:020000040800F2
:1000000078090020F101000839220008BD19000814
:1000100035220008411000082131000800000000CE
:1000200000000000000000000000000003020008C3
:10003000FD11000800000000070200080902000886
:100040000B0200080B0200080B0200080B0200085C
:100050000B0200080B020008011200080B02000846
:100060000B0200080B0200080B0200080B0200083C
:100070000B0200080B0200080B0200080B0200082C
:100080000B0200080B0200080B0200080B0200081C
:100090000B0200080B0200080B020008BD1200084A
:1000A0000B0200080B0200080B0200080B020008FC
:1000B000792600084D2A0008612A00080B02000872
:1000C0000B0200080B0200080B0200080B020008DC
:1000D0000B020008792F00080B0200080B02000831
:1000E0001D1200080B0200080B0200080B0200089A
:1000F0000B0200080B0200080B0200080B020008AC
:100100000B0200080B0200080B0200080B0200089B
:100110000B0200080B0200080B0200080B0200088B
:100120000B0200080B0200080B0200080B0200087B
:1001300000F002F800F04DF80AA090E8000C8244AC
:100140008344AAF10107DA4501D100F042F8AFF289
:10015000090EBAE80F0013F0010F18BFFB1A43F0A5
:1001600001031847E0F2000000F30000103A24BF3A
:1001700078C878C1FAD8520724BF30C830C144BF0C
:1001800004680C607047000000230024002500264E
:10019000103A28BF78C1FBD8520728BF30C148BFEA
:1001A0000B60704766290AF06887642900F0AE800A
:1001B000782900F0E780002070471FB500F00AFDA5
:1001C00004000020002109F087FCE0601FBD10B58D
:1001D00010BD00F007FE1146FFF7EFFF06F0BEFD71
:1001E00000F025FE03B4FFF7F2FF03BC05F0ECFEC0
:1001F0000948804709480047FEE7FEE7FEE7FEE7BB
:10020000FEE7FEE7FEE7FEE7FEE7FEE704480549F6
:10021000054A064B704700002125000831010008FF
:100220007803002078090020780500207805002058
:10023000704710B54C1084EA530404D54042C1F114
:10024000000138BF491E1B4204D55242C3F10003CE
:1002500038BF5B1E00F0A4F914F0804F04D0404278
:10026000C1F1000138BF491E14F0004F04D05242C2
:10027000C3F1000338BF5B1E10BD00000FB404497A
:1002800010B503AA029800F093FC10BC5DF814FBB3
:10029000B00200200FB41CB5074B06AA7B44694688
:1002A0000090059800F06BFC0020694600F07AFC95
:1002B0001CBC5DF814FB00000509000070B5044685
:1002C00085690068C10601D5302600E02026C007F8
:1002D00007D070BDD4E9012130469047206A401C08
:1002E00020626D1EF6D570BD70B504468569007834
:1002F000C00707D170BDD4E9012120209047206AB2
:10030000401C20626D1EF6D570BD00002DE9F04145
:100310000646002410687529314616A510D0AFF3A3
:100320000080002802DA404213A507E031688A07FE
:1003300001D512A502E0490704D511A5012401E069
:10034000AFF3008000210A2206F1240709E0B0FB88
:10035000F2FCB0FBF2F302FB1C003030785418467C
:10036000491C0028F3D123462A463046BDE8F04117
:1003700000F098B9000000002D0000002B000000E4
:100380002000000070B504460D4621461068AFF30A
:1003900000802188090502D50F4A7A4402E00E4AFE
:1003A0007A440E32002104F1240305E000F00F0628
:1003B0000009965D5E54491C0028F7D1207800237F
:1003C000000704D5702D02D009B102231132204656
:1003D000BDE8704000F066B91CAE00002DE9F05F8A
:1003E000894604464FF0000ADFF824B1FB44C0F808
:1003F00020A02046E168884700287DD0252806D027
:10040000D4E901219047206A401C2062F1E70025D1
:100410005F462046E16888472028064607DB312EE4
:1004200005D2B81910F8200C08B10543F1E7A80768
:1004300001D525F00405C4F81CA00027C4F818A0B5
:100440002A2E09D0304608F0CEFE38B304EB8708D8
:10045000303EC8F8186019E059F8041B204604EB38
:1004600087029161E1688847012F064618D1E0694B
:10047000002820DA25F020051DE0D8F8180000EB50
:10048000800006EB40003038C8F818002046E168CC
:100490008847064608F0A7FE0028EED1012F0AD0B3
:1004A0002E2E08D12046E16888477F1C0646022F81
:1004B00045F02005C4DBA069002803DA404245F07E
:1004C0000105A061E80701D025F01005A6B1A6F14D
:1004D0004100192802D8203645F400654A463146C5
:1004E000204625604D46FFF75DFE60B1012807D02C
:1004F000ED1D25F0070000E007E000F1080978E7AE
:1005000005F1040975E730467AE7206ABDE8F09FF7
:10051000F2AD000010B5044603E006F039FA401CC5
:1005200009D014F8010B05490028F6D1BDE81040A8
:100530000A2006F02DBA4FF0FF3010BDB0020020A7
:1005400040EA010310B59B070FD1042A0DD310C850
:1005500008C9121F9C42F8D020BA19BA884201D9A2
:10056000012010BD4FF0FF3010BD1AB1D30703D0EA
:10057000521C07E0002010BD10F8013B11F8014BA0
:100580001B1B07D110F8013B11F8014B1B1B01D1BC
:10059000921EF1D1184610BD7047704770477047E2
:1005A00053EA020C00F069802DE9F04B4FF0000691
:1005B000002B1FBFB3FA83F503FA05F424FA05F6FE
:1005C0005E4012BF1643B2FA82F502FA05F4C5F195
:1005D00020051EBF22FA05FC44EA0C04203556EA29
:1005E000044C4FEA144418BF641C4FF000084FF04D
:1005F0000009904271EB030C39D3002919BFB1FAFD
:1006000081F701FA07F6B0FA80F700FA07F6C7F1AA
:1006100020071EBF20FA07FC46EA0C062037B6FB6F
:10062000F4FCA7EB0507103F07F01F0BCBF12006EA
:100630002CFA06F60CFA0BFB44BFB3460026202F1B
:10064000A4BF5E464FF0000B5BEA060C08BF4FF0FC
:10065000010B19EB0B0948EB0608ABFB027C06FB10
:1006600002CC0BFB03CCC01B71EB0C01C1E70B46AA
:10067000024641464846BDE8F08B13B54FF00000F6
:100680004FF00001AFF30080BDE81C40704710B58B
:1006900000F0A4FA006810BD10B5044600F09EFA00
:1006A000046010BD2DE9F0470D4699469246044678
:1006B00000F124080168880604D5E06921F01001E2
:1006C000216000E00120A84201DD471B00E0002777
:1006D000A1697A1902EB0900081AA0612078C00606
:1006E00002D42046FFF7EAFD002608E0D4E9012104
:1006F0001AF806009047206A401C761C20624E457E
:10070000F4DB2078C0060AD52046FFF7D7FD06E0C7
:10071000D4E9012130209047206A401C2062381E15
:10072000A7F10107F4DC07E0D4E9012118F805007E
:100730009047206A401C2062281EA5F10105F3DCC9
:100740002046FFF7D1FD2078000602D50220BDE843
:10075000F0870120FBE72DE9FF4F0C461E464FF0C6
:10076000FF378BB0D2E90001DDF860800A908A463D
:10077000C1F30A5505B93D46002108464FF0000077
:10078000BAF1000F00F4400005DA00EB80004FF4EE
:10079000400101EA50004FEA9059B9F1010F00DD24
:1007A000B9460A9850EA4A000ED044F61050A5F215
:1007B000FF3545432F14B8F1000F1ED07542291E96
:1007C0001EDDC9F100021CE0B8F1010F4FF000007E
:1007D00001D0302103E0F24305E02154401CB04237
:1007E000FBDB30460022002121540B99C1F8088020
:1007F000C1E900200FB0BDE8F08FBD1B6D1CDEE726
:100800004A4600DA694206A800F072FA06AB93E89D
:10081000070003AB83E8070050460A9908F085F803
:100820008DE80700A0F500501F3800900398002DB8
:100830000ADD42F21F014A460844002303A903903F
:10084000684608F0EEFA09E0A0F500504A461F3865
:10085000002303A90390684608F0F8FA8DE8070022
:100860000004000C03D04FF0FF30410800E01046B8
:10087000B8F1000F03D00022009215461EE0751E4D
:1008800005D400F0AFF9303262556D1EF9D5B3468C
:100890000122084302D000227F1C04E02078302887
:1008A00001D100227F1E002A099784D01DE0112D5E
:1008B00007DA00F097F9303262556D1C50EA0102F8
:1008C000F5D1084302D00098C8B10EE00021681E9F
:1008D00005E0235C625C63542254401E491C814243
:1008E000F7DBAB46A81B401E0990002004F80B0064
:1008F0000B98099AC0F80880C0E9002B7AE7112606
:100900004FF0000857E72DE9F04F88460446D21D06
:1009100022F0070191B0D1E90001CDE90A0108F008
:10092000CCFB02460B98C00F01D02D2007E02068B9
:10093000810701D52B2002E0202101EAC000032A13
:10094000099001D0072A05DB03464146204600F006
:100950008FF90BE12078800601D5E06900E00620E0
:10096000B8F1650F814606D0B8F1660F18D0B8F11E
:10097000670F70D131E00020B9F1110F009001DB59
:10098000112301E009F101030AAA01A90CA8FFF74C
:10099000E2FEDDE90C70002609F10105834647E01F
:1009A00001204B4600904FF000470AAA01A90CA86D
:1009B000FFF7D1FEDDE90DB00C995D46002610B9B8
:1009C00009F101000D18B9EB050003D4C0F1FF36A1
:1009D00009F10105A5EB09002BE0B9F1010F01DADE
:1009E0004FF001090020B9F1110F0090484601DDD8
:1009F000112300E003460AAA01A90CA8FFF7ABFEE9
:100A0000DDE90C704D4600268346207800070AD4A5
:100A1000AB4500DA5D4601A8012D04DD411911F84E
:100A2000011C302907D04F4502DA17F1040F04DA10
:100A3000012082460FE06D1EEEE7002F02DCED1B69
:100A40003E4403E0781CA84200DD7D1CB81B00F189
:100A5000010A4FF000472078000703D4AA4501DBC4
:100A60004FF0FF3A0021B7F1004F0DF143088DF828
:100A7000431024D002202B23002F01DA7F422D23A4
:100A80000A21021EA0F1010000DC5FB197FBF1FC1E
:100A900097FBF1F201FB1C7C17460CF1300C08F8B7
:100AA00001CDEEE7A8F1010003702188090501D509
:100AB000452100E06521A0F1010800F8011C09981A
:100AC0000FA9A1EB0807FF1D00B10120411901EB9F
:100AD000EA70A1693844081A401EA0612078C00657
:100AE00002D42046FFF7EAFB099828B1D4E9012196
:100AF0009047206A401C20622078C00622D52046FC
:100B0000FFF7DCFB1EE0002E04DBB34502DD01A88D
:100B1000805D00E03020D4E901219047206A401C2C
:100B20002062761CAAF101005FEA000A0AD100F0F7
:100B300051F8C0680168405CD4E901219047206AFF
:100B4000401C2062281EA5F10105DCDC07E0D4E989
:100B5000012118F8010B9047206A401C2062381EC2
:100B6000A7F10107F3DC2046FFF7BEFB032011B01D
:100B700041E6000001694A1C02610878704700B52F
:100B80008FB0CDE901310021059105497944CDE9C6
:100B9000031011466846FFF721FC0FB000BD0000AE
:100BA000E5FFFFFF0A6802F8010B0A6070470000CA
:100BB000074B70B50D467B44FFF7E1FF044628461E
:100BC00000F008F910B14FF0FF3070BD204670BD45
:100BD000D75D000000487047C800002000487047FB
:100BE000A800002030B5B0F10A0271F100034FEA0D
:100BF000900E4EEA817EB0EB0E0061EB91014FEA60
:100C0000101E4EEA017E10EB0E0041EB11114FEA6F
:100C1000102E4EEA016E10EB0E0041EB11214FEA4F
:100C2000104E4EEA014E10EB0E0041EB1141401800
:100C300041F100014FEAD00040EA41704FEAD10192
:100C40004FEA810444EA907410EB800544EB010400
:100C50006D1944EB0404521BA3414FF0000348BF3D
:100C60000A3200D530BD401C41F1000130BD00000A
:100C70002DE9F0411F46044603260168072A01F4C6
:100C8000006004DB08B116A505E016A503E008B175
:100C900015A500E015A521F010002060A069C01E78
:100CA000A0610FB1401EA0612046FFF707FB4FB1C6
:100CB000D4E9012138469047206A401C2062C01CBC
:100CC000206206E0206AFAE7D4E9012115F8010B59
:100CD0009047761EF8D22046FFF706FBBDE8F0816C
:100CE0004E414E006E616E00494E4600696E6600D0
:100CF0002DE9F047814616468AB0354878440DC83C
:100D00008DE80D0032487844801C03AC0DC884E89F
:100D10000D0041F69B300844372190FBF1F290FB27
:100D2000F1F5A5F1800501FB12041B3C02D56442DC
:100D3000012000E00020DFF898A080460027FA4458
:100D4000AAF1BE0A0EE0E0070AD03246684607EB79
:100D5000470101230AEB810108F078F88DE80700CC
:100D600064107F1C002CEED1194F7F44AE3F19E078
:100D7000E80715D007EB04100DF1180A90E80E00F3
:100D80008AE80E00C068F04201D1981908903246F6
:100D9000012306A903A808F059F803AB83E807006C
:100DA0006D10641C002DE3D14FF0010332466946FB
:100DB000B8F1000F03A802D008F033F801E008F002
:100DC00045F8C9E90001C9F808200AB0BDE8F08774
:100DD00064A60000007B00F0800070470048704768
:100DE000A80000207546FFF7F9FFAE4605006946EA
:100DF000534620F00700854618B020B5FFF706FAE5
:100E0000BDE820404FF000064FF000074FF000080B
:100E10004FF0000BAC46ACE8C009ACE8C009ACE848
:100E2000C009ACE8C00921F007018D46704710B534
:100E30000446AFF300802046BDE81040FFF7D2B96A
:100E40004FF0013C50F8042B51F8043B9A4221D159
:100E5000A2EB0C03934313EACC1317D150F8042BE5
:100E600051F8043B9A4215D1A2EB0C03934313EAC9
:100E7000CC130BD150F8042B51F8043B9A4209D102
:100E8000A2EB0C03934313EACC13DBD04FF000002A
:100E9000704700BFD01A01BAB1FA81F101F0180110
:100EA00022FA01F0CB40DBB2C0B2C01AC1F120017E
:100EB0002CFA01F3D11A914311EAC311E6D170471C
:100EC0008268002942F0010308BF22F00103836019
:100ED0007047000080B543F60041C4F2010188422A
:100EE00014D042F60001C4F20101884216D042F249
:100EF0000041C4F20101884218BF80BD4FF4007068
:100F0000012101F0F7F94FF400700EE04FF40040BA
:100F1000012101F0EFF94FF4004006E04FF480604A
:100F2000012101F0E7F94FF480600021BDE8804025
:100F300001F0E0B98068C0F380007047C06C80B2F7
:100F4000704700000068084018BF0120704700008B
:100F50008068C0F3C000704780B54FF6FF634268F9
:100F6000CFF6F07302EA030CD1E9003243EA0C0336
:100F700043EA02224FF2FD734260CFF6F1738268BA
:100F800002EA030ED1E902C30A6942EA0E021A43D9
:100F900042EA4C028260C26A097D013922F4700281
:100FA000C9B242EA0151C16280BD000010B501EB37
:100FB000410C092988BFACF11E0C092903FA0CFE6B
:100FC0004FF0070303FA0CFC4FF0100388BF0C230B
:100FD000062AC45824EA0C0444EA0E04C45003D878
:100FE00034306FF0040307E00C2A87BF2C306FF019
:100FF000400330306FF0220302EB82021A441F23B9
:10100000914003FA02F2036823EA020211430160ED
:1010100010BD0000816841F0080181607047000048
:101020008268002942F4A00308BF22F4A003836071
:1010300070470000816841F0040181607047000042
:10104000FEE70000411EC8B2092802D90020C0B244
:10105000704740F2201024220929C2F200000270D9
:10106000F4D8DFE801F0050A0F14191E23282E34E6
:10107000052141710620C0B27047092141720A2042
:10108000C0B270470D2141730E20C0B270471121CC
:1010900041741220C0B27047152141751620C0B2AC
:1010A0007047192141761A20C0B270471D2141773F
:1010B0001E20C0B27047212180F821102220C0B22A
:1010C0007047252180F825102620C0B270472921BD
:1010D00080F829102A20C0B2704700000139CAB236
:1010E000092A98BF092900D97047DFE801F00511E6
:1010F0001D2935414D59667640F22011020AC2F28F
:10110000000148708A70020C000ECA7008717047A6
:1011100040F22011020AC2F2000148718A71020CE9
:10112000000ECA710872704740F22011020AC2F222
:10113000000148728A72020C000ECA72087370476E
:1011400040F22011020AC2F2000148738A73020CB5
:10115000000ECA730874704740F22011020AC2F2EE
:10116000000148748A74020C000ECA740875704736
:1011700040F22011020AC2F2000148758A75020C81
:10118000000ECA750876704740F22011020AC2F2BA
:10119000000148768A76020C000ECA7608777047FE
:1011A00040F22011020AC2F2000148778A77020C4D
:1011B000000ECA7781F82000704740F22011020A21
:1011C000C2F2000181F8210081F82220020C000EF9
:1011D00081F8232081F82400704740F22011020A90
:1011E000C2F2000181F8250081F82620020C000ED1
:1011F00081F8272081F82800704700007047000020
:1012000080B5012000F09EF841F200000121C4F2F7
:101210000100BDE8804000F043BA0000B0B541F2E3
:1012200000444FF48051C4F20104204600F038FA23
:10123000012808D120464FF4005100F031FA40F265
:101240001031002816E020464FF4805100F028FAB3
:10125000054620464FF4005100F022FA3DB1012826
:101260001ED1A4F580604FF4805100F019FA40F2CD
:1012700010310128C2F20001096801D0481C00E0C9
:10128000481E40F21031C2F2000108604FF4805055
:1012900000F058F84FF40050BDE8B04000F052B8EC
:1012A000A4F580644FF40051204600F0F9F90028BD
:1012B000ECD120464FF48051BFE70000B0B541F2B9
:1012C00000044021C4F20104204600F0E9F901289D
:1012D00007D12046802100F0E3F940F214310028C4
:1012E00012E02046402100F0DBF90546204680212F
:1012F00000F0D6F92DB101281AD12046402100F086
:10130000CFF940F214310128C2F20001096801D07E
:10131000481C00E0481E40F21431C2F2000108608F
:10132000802000F00FF84020BDE8B04000F00AB87F
:101330002046802100F0B4F90028F1D12046402158
:10134000C9E7000040F21441C4F20101086070478F
:1013500080B5D1F808E00EF00F0C1EF0100F1CBF86
:101360004B684CEA030C098811F0FF0F00F0A480D1
:101370000368CA070BD023F00F02BEF1480F42EA00
:101380000C0315D0BEF1280F01D1012242618A075A
:1013900012D523F0F002BEF1280F42EA0C131CD044
:1013A000BEF1480F08D1022202614A0706D418E0B4
:1013B000012202618A07ECD44A0712D523F4706235
:1013C000BEF1280F42EA0C231CD0BEF1480F08D111
:1013D000042202610A0719D505E0022242614A0788
:1013E000ECD40A0712D523F47042BEF1280F42EA6A
:1013F0000C331CD0BEF1480F08D108220261CA0686
:1014000006D418E0042242610A07ECD4CA0612D5B9
:1014100023F47022BEF1280F42EA0C431CD0BEF127
:10142000480F08D1102202618A0619D505E008226A
:101430004261CA06ECD48A0612D523F47002BEF1CA
:10144000280F42EA0C531CD0BEF1480F08D12022CD
:1014500002614A0606D418E0102242618A06ECD4E2
:101460004A0612D523F07062BEF1280F42EA0C63DF
:101470001AD0BEF1480F08D1402202610A061AD5DF
:1014800005E0202242614A06ECD40A0613D523F077
:101490007042BEF1280F42EA0C730AD0BEF1480F29
:1014A00009D18022026106E0402242610A06EED4A0
:1014B00001E0802242610360B1F5807F38BF80BDCA
:1014C0004368CA050CD523F00F02BEF1480F42EA6B
:1014D0000C0317D0BEF1280F02D14FF48072426185
:1014E0008A0514D523F0F002BEF1280F42EA0C134E
:1014F0001FD0BEF1480F0AD14FF4007202614A05B5
:1015000007D41BE04FF4807202618A05EAD44A05D1
:1015100014D523F47062BEF1280F42EA0C231FD0C9
:10152000BEF1480F0AD14FF4806202610A051CD552
:1015300006E04FF4007242614A05EAD40A0514D568
:1015400023F47042BEF1280F42EA0C331FD0BEF1E3
:10155000480F0AD14FF400620261CA0407D41BE0AD
:101560004FF4806242610A05EAD4CA0414D523F418
:101570007022BEF1280F42EA0C431FD0BEF1480F83
:101580000AD14FF4805202618A041CD506E04FF460
:1015900000624261CA04EAD48A0414D523F47002BA
:1015A000BEF1280F42EA0C531FD0BEF1480F0AD1FA
:1015B0004FF4005202614A0407D41BE04FF48052FA
:1015C00042618A04EAD44A0414D523F07062BEF161
:1015D000280F42EA0C631ED0BEF1480F0AD14FF427
:1015E0008042026109041BD506E04FF400524261BB
:1015F0004A04EAD4090413D523F07041BEF1280F40
:1016000041EA0C730ED0BEF1480F09D14FF40041EE
:101610000161436080BD4FF4804242610904EBD414
:10162000436080BD4FF400414161436080BD0000D4
:1016300010B50422002800F440141FFA80FCC4F204
:1016400001021346B8BF43F01803B4F5401F1B68EE
:10165000C0F3034E07D1146823F0706324F0706464
:10166000146081B916E0C40206D447F6F07404EAA7
:1016700050440CFA04F402E0032404FA0EF4A343E9
:1016800043F0706331B147F6F07101EA50410CFA52
:1016900001F10B430028B8BF1832136010BD0000E1
:1016A0008068084018BF0120704700004161704702
:1016B000016170472DE9F04F89B0012818D0022848
:1016C00029D140F2A41040F2A01140F2A022C2F2AF
:1016D0000000C2F20001C2F2000205F03BFC0DF175
:1016E000160369203B210E2200F068FEB0B142E0F3
:1016F00040F2A41940F2A01540F2A022C2F2000963
:10170000C2F20005C2F200024846294605F022FC5A
:10171000002800F0AE8009B0BDE8F08FBDF81600DB
:10172000C0BA09F043FA8146BDF81800C0BA09F002
:101730003DFA0546BDF81A00C0BA09F037FA064668
:10174000BDF81E00C0BA09F031FA09F009F80446E4
:10175000BDF820000F46C0BA09F028FA09F000F8D9
:10176000CDE90010BDF82200C0BA09F01FFA08F058
:10177000F7FFCDE9021046F26663204639464FF086
:101780006632C4F230031F4608F0AAFA08F0BAF92C
:1017900040F23C32C2F20002D2E900149268049294
:1017A00009F0F6FB834640F270103146C2F20000A9
:1017B000C0F800B0284608F025F840F2000AC4F24C
:1017C000343A514609F086FA40F6DB75C4F2490511
:1017D000294609F0B9F880464846314608F012F823
:1017E000B14606464046594600F0FAFA40F2A018C3
:1017F0004FF066323B46C2F20008C8F80000DDE94F
:10180000001008F06DFA08F07DF9214609F0C0FBE0
:1018100004463046514609F05DFA294609F094F82D
:10182000214600F09DFB40F2A4114FF066323B468A
:10183000C2F200010860DDE9021008F051FA08F078
:1018400061F9049909F0A4FB40F27411C2F200019D
:10185000086040F2141040F21811C2F20000C2F207
:101860000001C0F80090D8F80000086009B0BDE899
:10187000F08F0DF1160369203B210E2200F09EFD32
:1018800000B11AE0BDF81E00C0BA09F08FF908F0E7
:1018900067FF0746BDF820000C46C0BA09F086F97C
:1018A00008F05EFF0290BDF822008B46C0BA09F036
:1018B0007DF908F055FFCDE9031046F2666638461B
:1018C00021464FF06632C4F23006334608F008FA7B
:1018D00008F09AFB09F06AF940F23C32C2F20002C9
:1018E00092E8120109F054FB09F024F940F2343A6D
:1018F000074659464FF066323346C2F2000AAAF84C
:101900000000029808F0ECF908F07EFB09F04EF9AF
:10191000214609F03DFB09F00DF9AAF802004FF04D
:1019200066323346DDE9031008F0DAF908F06CFBA3
:1019300009F03CF9414609F02BFB09F0FBF8AAF845
:101940000400384609F032F90146286800F048FAE8
:101950002860BAF9020009F029F90146D9F8000017
:1019600000F0FEFA40F21811C9F800002868BAF930
:101970000440C2F200010860BAF9000009F016F94B
:1019800040F27011C2F200010860204609F00EF921
:1019900040F27411C2F20001086040F20430C2F259
:1019A0000000B0F9040009F001F940F21411C2F28C
:1019B0000001086009B0BDE8F08F0000FEE70000FC
:1019C000022004F053BB000010B584B008200121B0
:1019D000012400F083FC102001A903904FF4406023
:1019E000ADF804000320029040F60040C4F201006C
:1019F000FFF7AEFC48F2A810C4F221200460446056
:101A000004B010BD2DE9F04F83B040F604410290C0
:101A100048F2A8154FF0000BC4F20101C4F22125D1
:101A2000086820F470400860086840F400400860CE
:101A300000202860022004F019FB01262E6055F8D2
:101A40007C0C0190012004F011FB0220C5F800B0CD
:101A500004F00CFB2E60012055F87C7C04F006FBA2
:101A60000220C5F800B004F001FB2E60012055F8FB
:101A70007C4C04F0FBFA0220C5F800B004F0F6FA42
:101A80002E60012055F87C8C04F0F0FA0220C5F895
:101A900000B004F0EBFA2E60012055F87C9C04F0B5
:101AA000E5FA0220C5F800B004F0E0FA2E6001204B
:101AB00055F87CAC04F0DAFA0220C5F800B004F066
:101AC000D5FA2E60012055F87CBC04F0CFFA002036
:101AD0002860022004F0CAFA2E60012055F87C6CC0
:101AE00004F0C4FA40F6044200212960C4F2010265
:101AF000106820F470401060106840F4405010608E
:101B00000198002818BF0120002F18BF0127002CC2
:101B100018BF012447EA4000B8F1000F18BF4FF08A
:101B2000010844EA4000B9F1000F18BF4FF0010965
:101B300048EA4000BAF1000F18BF4FF0010A49EA25
:101B40004000BBF1000F18BF4FF0010B4AEA400004
:101B5000002E4BEA400018BF012646EA40040298D6
:101B600048B10220696004F081FA01202860022057
:101B700004F07CFA08E0012602206E6004F076FA98
:101B800002202E6004F072FA00202860E0B203B058
:101B9000BDE8F08FF0B581B0044640F6044048F24D
:101BA000A8150026C4F20100C4F22125016821F421
:101BB00070410160016841F440510160E0092E600C
:101BC0006860022004F052FA012702202F6004F01E
:101BD0004DFA02202E6004F049FAC4F380106860C8
:101BE000022004F043FA02202F6004F03FFA0220A2
:101BF0002E6004F03BFAC4F340106860022004F049
:101C000035FA02202F6004F031FA02202E6004F031
:101C10002DFAC4F300106860022004F027FA0220B5
:101C20002F6004F023FA02202E6004F01FFAC4F3A0
:101C3000C0006860022004F019FA02202F6004F04E
:101C400015FA02202E6004F011FAC4F380006860D7
:101C5000022004F00BFA02202F6004F007FA0220A1
:101C60002E6004F003FAC4F340006860022004F020
:101C7000FDF902202F6004F0F9F902202E6004F033
:101C8000F5F904F001006860022004F0EFF9022089
:101C90002F6004F0EBF92E60022001B0BDE8F040A7
:101CA00004F0E4B9B0B540F6044048F2A814C4F218
:101CB0000100C4F22124016821F47041016001682F
:101CC00041F440510160012060602060042004F074
:101CD000CDF900250420656004F0C8F92560B0BD89
:101CE00010B540F6044048F2A814C4F20100C4F252
:101CF0002124016821F470410160016841F44051E0
:101D00000160002020606060042004F0AFF9012031
:101D1000206060600420BDE8104004F0A7B9000016
:101D200070B540F6044448F22C150126C4F20104B3
:101D3000C4F22125206820F470402060206840F41F
:101D4000004020600120C5F8806004F08FF9012078
:101D5000EE6704F08BF9286888B10020296871B11A
:101D6000296861B140F00201C9B2F9290BD82A688B
:101D70002AB1F92907D8296804300029EED10024B6
:101D80002046EC6770BD206820F470402060206819
:101D900040F4405020600020E867C5F8800004202F
:101DA00004F064F901240420EC67C5F8804004F0D5
:101DB0005DF9204670BD000041F21801C4F2020135
:101DC0000A6842F001020A600421C4F201010A68B3
:101DD00022F0E0620A600A6842EA406008607047E8
:101DE0002DE9F04F85B0CDE9031040F27810C2F232
:101DF000000004684FF00040214609F0C9F840F2A5
:101E00007C11C2F200010968019109F0C1F8014694
:101E100040F27800C2F20000D0F800B0584608F056
:101E200059FF41F26F21C3F6832108F0C5FC40F24F
:101E30000805C2F20005296808F0BEFC4FF07C518D
:101E4000074608F0B9FC80463846414608F07CFD5C
:101E500039460646029008F03DFF0146384609F033
:101E600097F8286040F20C005946C2F2000005685D
:101E7000284608F02FFF82462046514609F088F890
:101E800081463046494608F025FF0146484609F09C
:101E90007FF840F27811C2F20001086001985146C3
:101EA00009F076F84146064608F04EFD39460446EC
:101EB00008F010FF0146304609F06AF840F27C1144
:101EC000C2F20001086049F6A6315846C3F6443113
:101ED00008F000FF294608F06FFC054620464946F9
:101EE00008F0F8FE0146284609F052F840F2801842
:101EF00040F20C01C2F20008C2F20001D8F8005012
:101F000008600398294609F043F8594608F0E2FEB4
:101F100040F284190146C2F20009D9F8000008F025
:101F20004BFC06460498314609F032F80299074600
:101F300008F0D0FE0146304608F03EFC0646C9F8DF
:101F400000003846214608F0C5FE0146284608F044
:101F500033FCC8F80000304605B0BDE8F08F000043
:101F60002DE9F04F83B0CDE9011040F28810C2F2A4
:101F70000000076841F26F20C3F68320394609F05C
:101F800007F840F28C11C2F200010C68214608F0FB
:101F9000FFFF014640F27800C2F20000D0F800B026
:101FA000584608F097FE40F21009C2F20009D9F82D
:101FB000001008F001FC4FF07C51054608F0FCFBD6
:101FC00080462846414608F0BFFC29460646009058
:101FD00008F080FE0146284608F0DAFFC9F8000044
:101FE00040F214005946C2F20000D0F800A050465A
:101FF00008F070FE81463846494608F0C9FF07469A
:102000003046394608F066FE0146384608F0C0FF03
:1020100040F28811C2F2000108602046494608F0EB
:10202000B7FF4146064608F08FFC2946044608F0F3
:1020300051FE0146304608F0ABFF40F28C11C2F26F
:102040000001086049F6A6315846C3F6443108F04D
:1020500041FE514608F0B0FB05462046394608F0DF
:1020600039FE0146284608F093FF40F2901840F2EE
:102070001401C2F20008C2F20001D8F80050086052
:102080000198294608F084FF594608F023FE40F2E3
:1020900094190146C2F20009D9F8000008F08CFB3F
:1020A00006460298314608F073FF0099074608F08B
:1020B00011FE0146304608F07FFB0646C9F80000D5
:1020C0003846214608F006FE0146284608F074FB13
:1020D000C8F80000304603B0BDE8F08F2DE9F043AA
:1020E00085B00C4605460DF1060369203B210E2202
:1020F00000F064F900281EBF002005B0BDE8F083A1
:10210000BDF80A00C0BA08F051FDBDF80810BDF8CE
:102110001280BDF80E90BDF81060BDF80670A86082
:10212000C8BA08F043FD6860F8BA08F03FFD2860BF
:10213000F0BA08F03BFD08F013FB46F266654FF07D
:102140006632C4F230052B4607F0CAFD07F0DAFC10
:10215000606099FAB9F008F029FD08F001FB4FF032
:1021600066322B4607F0BCFD07F0CCFC206098FAE5
:10217000B8F008F01BFD08F0F3FA4FF066322B467A
:1021800007F0AEFD07F0BEFCA060012005B0BDE881
:10219000F083000080B5FFF717FC6B20802100F072
:1021A000C1FF642003F034FF6B20002100F0BAFF70
:1021B0001B20182100F0B6FF1C20102100F0B2FFF8
:1021C0001920012100F0AEFF1A20012100F0AAFF22
:1021D0003820002100F0A6FF6A20002100F0A2FFB5
:1021E0002320002100F09EFF3720802100F09AFF7D
:1021F000FFF758FDD220FFF7CDFCFFF791FD7520CA
:10220000FFF7C8FCFFF78CFDFFF74CFDD320FFF76D
:10221000C1FCFFF785FD0020FFF7F4FBFFF760FD31
:102220006B20032100F07EFF6C20002100F07AFF7C
:10223000002080BDFEE700007047000042684EF2BB
:102240000011CEF20001EAB110B54EF60C52072390
:10225000CEF20002126890F801E0847890F800C095
:1022600023EA12220F23D340C2F1040223400EFAC4
:1022700002F21A4301EB0C03120183F80023BDE8BC
:10228000104000E080310078012300F01F02C0F30D
:10229000421003FA02F241F82020704740F08060BB
:1022A0004EF60C5140F0FD70CEF200010860704710
:1022B00041F20401C4F202010A6822F440421043D0
:1022C0000860704741F21C020029C4F20202116842
:1022D0000CBF21EA000008431060704741F2180269
:1022E0000029C4F2020211680CBF21EA0000084371
:1022F0001060704741F20C020029C4F2020211681A
:102300000CBF21EA000008431060704780B541F21D
:10231000040EC4F2020EDEF8002002F00C0341F2BB
:102320000022C0F27A02082B1FD1DEF80030C3F37E
:10233000834303F1020CDEF8003013F4803F06D132
:1023400040F60012C0F23D020CFB02F20DE0DEF896
:10235000003013F4003F02D10CFB02F205E040F61E
:102360000012C0F23D020CFB02F202604BF280311F
:10237000DEF80030C0F60001C3F30313CB5CDA4093
:102380004260DEF80030C3F30223CB5C22FA03F391
:102390008360DEF80030C3F3C223C95C4BF27C33A8
:1023A000C0F6000322FA01F1C160DEF80020C2F39A
:1023B00081329A5CB1FBF2F1016180BD2DE9F04FF1
:1023C00081B040F6044A074648F2A81901261C4687
:1023D00015468846C4F2010AC4F22129DAF8000041
:1023E00020F47040CAF80000DAF8000040F44050D1
:1023F000CAF800000420C9F80460C9F8006003F0BE
:1024000035FE4FF0000B0420C9F804B003F02EFE97
:102410007F00C9F800B0F8B2FFF7BCFBFFF780FC03
:10242000D0B1DAF8000020F47040CAF80000DAF801
:10243000000040F44050CAF800000420C9F800B081
:10244000C9F804B003F012FE0420C9F80060C9F80E
:10245000046003F00BFE51E04046FFF79BFBFFF7E3
:102460005FFCDAF8000020F47040CAF80000DAF8E7
:10247000000040F44050CAF800000420C9F804608D
:10248000C9F8006003F0F2FD0420C9F804B003F0BD
:10249000EDFD47F00100C9F800B0C0B2FFF77AFBCC
:1024A000FFF73EFC05E000BFFFF7ACFA04F8010BB4
:1024B000013DE8B2012803D020B10120F4E700BFBC
:1024C0000020F1E7DAF80000002620F47040CAF896
:1024D0000000DAF8000040F44050CAF80000042080
:1024E000C9F80060C9F8046003F0C0FD0120C9F814
:1024F0000000C9F80400042003F0B8FD304601B024
:10250000BDE8F08F4EF210010428CEF200010A68F7
:1025100022F0040308BF42F004030B607047000080
:1025200082B041F204000022C4F20200CFF6FF02A2
:1025300050F8041C41F0010140F8041C01681140EE
:102540004FF6FF720160CFF6F66250F8041C11409E
:1025500040F8041C50F8041C21F4802140F8041CAD
:10256000016821F4FE0101604FF41F014160002168
:102570000191009150F8041C41F4803140F8041C92
:1025800050F8041C01F400310091019901310191CE
:10259000009919B90199B1F5A06FF1D150F8041C57
:1025A00011F4003F0CBF0021012100910099012985
:1025B00058D1D0F8FC1F41F01001C0F8FC1FD0F832
:1025C000FC1F21F00301C0F8FC1FD0F8FC1F41F0F4
:1025D0000201C0F8FC1F0168016001680160016828
:1025E00041F480610160016821F47C11016001689F
:1025F00041F4E811016050F8041C41F0807140F88A
:10260000041C00BF50F8041C11F0007F0ED150F8DC
:10261000041C11F0007F09D150F8041C11F0007F58
:1026200004D150F8041C11F0007FEBD0016821F0B8
:1026300003010160016841F002010160016801F0DD
:102640000C0108290ED0016801F00C01082909D0FD
:10265000016801F00C01082904D0016801F00C01A7
:102660000829EBD14EF608504FF00061CEF2000081
:10267000016002B0704700002DE9F04F81B04FF0CB
:102680008040012100F03AFA012840F068814FF0C3
:102690008040012100F0FCF940F25C36C2F20006F5
:1026A0003068002840F0CD8040F2583BC2F2000B69
:1026B000DBF80000B0F5167FC0F2C080B0F57A7F7D
:1026C00023DA40F2641940F20810C2F20009C2F2A3
:1026D00000004946FFF702FD40F23030C2F2000030
:1026E0000168C9B340F2543099E88204C2F2000094
:1026F000D0F8008040F25030C2F20000056840F28D
:102700004C30C2F2000000683DE040F09A800120A9
:102710000024306040F26830C4F2C834C2F20000D5
:102720002146006808F010F940F23C352146C2F21B
:102730000005286040F26C30C2F20000006808F02A
:1027400003F9686040F270302146C2F20000006870
:1027500008F0FAF8A86074E00121016040F24C3002
:1027600099E88204C2F20000016040F25030D04685
:102770003D46C2F20000076040F25430C2F2000051
:10278000C0F800A0084608F003FC014608F0A2FAD1
:1027900004462846394608F0FBFB014608F09AFA41
:1027A0000146204608F008F804464046514608F025
:1027B000EFFB014608F08EFA0146204607F0FCFFC9
:1027C00007F074F90021C4F2F00108F0A3F830B961
:1027D00002203060D9E90005D9F8084012E040F243
:1027E0004C31D9E90005D9F80840C2F2000108606F
:1027F00040F25031C2F200010D6040F25431C2F299
:1028000000010C6040F26837C2F20007396807F037
:10281000D3FF386040F26C372846C2F200073968AF
:1028200007F0CAFF40F2703538602046C2F200055A
:10283000296807F0C1FF2860DBF800000130CBF801
:10284000000040F27430C2F200000168C72901DCC8
:1028500001310BE0C8290AD140F28011C4F22321D2
:102860000A68B2FA82F252090A600021016040F25D
:102870007C20C2F200000168B1FA81F200294FEA1F
:102880005212026019D03068012868D140F28C20C1
:10289000C2F200000068002861D140F24834C2F260
:1028A0000004206831285DDC0120FEF703FF20686A
:1028B0000130206001B0BDE8F08F02F017FF40F258
:1028C0009C21C2F20001086040F29421C2F2000192
:1028D0000A68531C40F29822C2F20002642B0B607B
:1028E0001768384410603AD100230B6048F21F513A
:1028F0001360C5F2EB1180FB0101481100EBD170B0
:1029000008F054F940F29021C2F200010860002161
:10291000C4F2C82108F018F807F022FF43F233335D
:102920004FF0333204460D46C4F2260307F0BAFFD7
:1029300040F28C260028C2F20006376808BF002F3C
:102940007DD043F23333204629464FF03332C4F270
:10295000260307F0B5FF002808BF012F71D001B092
:10296000BDE8F08F0220FEF7A5FE042002F0E2FA97
:1029700040F25814C2F200042060032002F0DAFA98
:1029800040F25C150146C2F200052860206803F0A1
:1029900043F840F27010C2F20000016840F21810D3
:1029A000C2F20000006803F0AFF840F21C1629687C
:1029B000C2F200063060206803F016F940F2842469
:1029C000C2F20004206040F27410C2F200000168FC
:1029D00040F2A020C2F20000006803F075F840F257
:1029E000A811226840F298154EF20C54C2F2000170
:1029F000C2F20005CFF6FF740860316840F29C1601
:102A0000C2F200060A441118101A224630602960EA
:102A1000084641F6F42103F0CFFA2860306841F609
:102A2000F421224603F0C8FA30604FF61840CFF682
:102A3000FF70014601B0BDE8F04F03F081B80120FE
:102A400000E00020306001B0BDE8F08F40F210409F
:102A5000C4F200000188018821F001010180704763
:102A600040F61000C4F200000188018821F0010145
:102A7000018070470288002942F0800308BF22F0DD
:102A80008003038070470000C94301827047000043
:102A9000C9430182704700000288002942F0010307
:102AA00008BF22F00103038070470000B0F8442003
:102AB000002913466FF3DF3318BF42F40043A0F838
:102AC0004430704780B5B0F808C02CF0070C41EADC
:102AD0000C01B0F818C0B0F820E001814FF6FC41BD
:102AE0000CEA010C40F2011141EA0C01018342EAB7
:102AF00003112EF022021143018480BD028A0A4094
:102B000018BF01228089084018BF0120104070477B
:102B100070B50B88042B2AD0002B56D1B1F802C017
:102B20000A898B88068C40F6FF354FF6FC74C4F298
:102B3000000526F0010643EA02130246A842068475
:102B400032F8186FB0F820E026F0F30643EA0603E7
:102B50006DDCB0F1804F7DD040F20045C4F200053D
:102B6000A84277D040F60005C4F200056FE00E8958
:102B70004B888A88058C40F6FF44360325F0100503
:102B800046EA02260584024632F8185FB0F820E0D3
:102B9000254046EA050C40F6FF356FF00306C4F207
:102BA0000005A6F1AD04A84262DCB0F1804F71D0FF
:102BB00040F20045C4F20005A8426BD040F6000583
:102BC000C4F20005A84265D068E00A898C884E8866
:102BD000058C082B71D125F48073038444EA021319
:102BE000024632F81C5FB0F820E025F0F30543EA16
:102BF000050C6FF4405303F5145440F6FF33C4F250
:102C00000003984200F38180B0F1804F00F08F8084
:102C100040F20043C4F20003984200F0888040F67E
:102C20000003C4F20003984200F0818084E040F683
:102C30000045C4F20005A8420CD042F60045C4F29B
:102C40000105A84206D043F20045C4F20105A8429E
:102C500018BF083C03830EEA040343EA0C0343F065
:102C600001030384C988038B23F00C03038394E0DE
:102C700040F60045C4F20005A8420BD043F20045DF
:102C8000C4F20105A84205D042F60045C4F2010590
:102C9000A84203D14FF6FC741B012D3C0EEA04063A
:102CA000A0F818C0334343F010030384C988038B92
:102CB00023F44063090203836FE025F48053120379
:102CC000038442EA0423024640F6FF4432F81C5FC4
:102CD000B0F820C0254046F6FF5443EA050E40F602
:102CE000FF33C4F20003984234DCB0F1804F43D08C
:102CF00040F20043C4F2000398423DD040F6000386
:102D0000C4F20003984237D039E040F60043C4F2E1
:102D1000000398420BD043F20043C4F201039842EF
:102D200005D042F60043C4F20103984204D14CF6A8
:102D3000FF73360203F534540EEA0403A0F81CC0F6
:102D4000334343F480730384C988838B23F00C03DB
:102D5000838322E040F60043C4F2000398420BD084
:102D600043F20043C4F20103984205D042F6004307
:102D7000C4F20103984202D136034CF6FF740CEA08
:102D80000403A0F81CE0334343F480530384C98850
:102D9000838B23F4406309028383108808431080E7
:102DA00070BD000000210122016042600181704776
:102DB000002A82890CBF22EA0101114381817047F8
:102DC00010B5028C22F480720284048CB0F804E006
:102DD000838B0A8823F0730343EA020C0B8924F4E3
:102DE000007242EA03224B8842EA032243F2004384
:102DF000C4F20103984205D042F60043C4F2010335
:102E0000984212D18B892EF4405422F4406244EA55
:102E10000313CC8943EA041E4B8940F2FF441B0292
:102E2000A3431A438B8842EA0322A0F804E0A0F8E7
:102E30001CC0C9888187028410BD0000828B22F0EB
:102E4000080211438183704710B5028C22F480522E
:102E50000284048CB0F804E0828B0B8822F4E642F2
:102E600042EA032C0B8924F4005242EA03324B88D5
:102E700042EA033343F20042C4F20102904205D019
:102E800042F60042C4F20102904204D18A892EF433
:102E9000804444EA821EA0F804E0A0F81CC0C9885F
:102EA000A0F84010038410BD828B22F4006242EA35
:102EB00001218183704700008184704740F6FF3311
:102EC000B0F800C0C4F2000398420FDCB0F1804FAC
:102ED0001ED040F20043C4F20003984218D040F6DE
:102EE0000003C4F20003984212D016E040F60043FB
:102EF000C4F2000398420BD043F20043C4F2010332
:102F0000984205D042F60043C4F20103984204D12E
:102F10004B882CF0700243EA020C41F2004240F46C
:102F20008063C4F20002934204D0CB882CF4407238
:102F300043EA020CA0F800C08A8882850A880285CC
:102F4000A0F18042A2F596324FEAB222072A07D8B2
:102F5000012303FA02F212F0E50F1CBF097A018681
:102F600001218182704700004FF6FF71416000210E
:102F7000016001727047000010B543F6000440F292
:102F80002551C4F20104204600F036F808B320466B
:102F900000F0C2F840F27821C2F200010A8812F46F
:102FA000004F18BF10BDC3B2540413D40D2B02BF81
:102FB00042F48040088010BD40F2B014531C6FF3FF
:102FC0009F32C2F20004A05498B2C72888BF0023E1
:102FD0000B8010BD0A2B14BF002042F40040088073
:102FE00010BD00008289002942F4005308BF22F47A
:102FF000005383817047000001F01F02012303FA90
:1030000002F2C1F34213022B06D0012B14BF00F1D0
:10301000140300F10C0301E000F110031B88090AFE
:103020001A404FF0010318BF0122008803FA01F192
:10303000084018BF012010407047000001F01F0C2D
:10304000012303FA0CFCC1F342131421022B08BF25
:103050001021012B08BF0C21002A42580CBF22EA84
:103060000C0242EA0C0242507047000070B586B074
:103070000446008A0D46C98801AE20F4405008433A
:103080004EF6F3112082A0890840A98808432989B7
:10309000084369890843A081A08AA98920F4407067
:1030A0000843A0823046FFF731F943F6000106F1EC
:1030B00008000222C4F201018C424FF0190108BF3E
:1030C00006F10C00042600684843A189A2EBD13127
:1030D0002A6802FA01F1B0FBF1F048F21F51C5F283
:1030E000EB11A0FB01235A096FF0630302FB0300FD
:1030F000A389A6EBD336B0403230A0FB01010720F4
:1031000040EA133080F0080000EA511040EA021053
:10311000208106B070BD000080886FF35F2070478B
:10312000FEE70000B0B50C460546FEF7BBFDFEF716
:1031300047FCD220FEF72EFDFEF7F2FD18B1FEF798
:10314000CFFD0120B0BD2846FEF724FDFEF7E8FDC7
:103150002046FEF71FFDFEF7E3FD0446002818BFDA
:103160000124FEF7BDFD2046B0BD00002DE9F04F63
:1031700081B040F6044A074648F2A81901241D46CA
:1031800016468846C4F2010AC4F22129DAF8000082
:1031900020F47040CAF80000DAF8000040F4405013
:1031A000CAF800000420C9F80440C9F8004002F041
:1031B0005DFF4FF0000B0420C9F804B002F056FF89
:1031C0007800C9F800B0C0B2FEF7E4FCFEF7A8FD35
:1031D000D0B1DAF8000020F47040CAF80000DAF844
:1031E000000040F44050CAF800000420C9F800B0C4
:1031F000C9F804B002F03AFF0420C9F80040C9F849
:10320000044002F033FF49E04046FEF7C3FCFEF7FE
:1032100087FD56B1002400BF285DFEF7BBFCFEF71A
:103220007FFDF8B90134B442F6D3DAF80000002487
:1032300020F47040CAF80000DAF8000040F4405072
:10324000CAF800000420C9F80040C9F8044002F0A0
:103250000DFF0120C9F80000C9F80400042002F0A5
:1032600005FF1BE0DAF8000020F47040CAF8000007
:10327000DAF8000040F44050CAF800000020C9F815
:103280000000C9F80400042002F0F0FE012404202C
:10329000C9F80040C9F8044002F0E8FE204601B039
:1032A000BDE8F08F10B50446000A01F099FDE0B2C8
:1032B000BDE8104001F094BD10B586B00120012199
:1032C0000124FEF7FFFF40F2671003A9039040F2CC
:1032D000E73004904FF08040FFF7F0FD4FF0804062
:1032E0000121FFF7D5FB4FF0804001210122FFF7BC
:1032F0005FFD4FF4A060FEF7D1FF00208DF80600BF
:103300001C20ADF8040001A80294FEF797FF4FF0CF
:1033100080400121FFF7C0FB06B010BD2DE9F04F42
:1033200087B0119E074690461C460D46069100EB5D
:103330005600013882B28819013883B2384602F04B
:1033400023F907210122300911EA560F18BF02EBB9
:10335000161070430028049000F08480A6F10C0041
:1033600075083E464FF0000BC0F385015FFA85F902
:1033700041EA8011A8F12000CBB24BF60401C2B2A1
:103380000020C0F600010292039301EB02110191AB
:103390004CF6D471C0F6000101EB821100220091BD
:1033A000052B5FD80592DFE803F0030D5D0F5D1973
:1033B00002994BF29032C0F6000201EB410102EBA0
:1033C00081010CE001990AE002994BF60462C0F613
:1033D000000201EB410102EB011100E000990844F9
:1033E0004FF0000890F800A00120129900FA08F0B0
:1033F00000EA0A0081B148B10699B0B2024689B22A
:103400000B4602F0C1F82046FFF74CFF0136B0B280
:10341000C01BA8420FD115E000280CBF1098204611
:10342000FFF740FF0BF1010B5FFA8BF0B0FBF9F1F6
:1034300001FB190058B108F10108B8F1080FD3D306
:1034400008E000BF06983E460130069002E04FF0CB
:10345000000B00BF059A0499039B013290B2814290
:103460003FF69EAF07B0BDE8F08F00002DE9F04FAA
:10347000A3B03A2000244BF6040A56250DF150085B
:10348000159044F256401394C0F6000AC4F244105A
:10349000149046F65010C3F67420CDE9114046F65C
:1034A0005270C3F66C20CDE90F4046F25910C3F6B6
:1034B0007720CDE90D4046F64560C3F64C2000F577
:1034C000C021CDE90B4000F5C1600A9144F6564198
:1034D000C0F23A01099101F5C061CDE90741CDE99A
:1034E000054047F24D40C3F65220049044F00701D6
:1034F000A0B20F2300278AB2002102F045F8A5F1FF
:103500002000C0B20AEB0016F55D15F0010F0CBFEC
:103510004FF6FF700020FFF7C5FEA80754BF4FF617
:10352000FF700020FFF7BEFE680754BF4FF6FF7024
:103530000020FFF7B7FE280754BF4FF6FF700020AA
:10354000FFF7B0FEE80654BF4FF6FF700020FFF70C
:10355000A9FEA80654BF4FF6FF700020FFF7A2FE99
:10356000680654BF4FF6FF700020FFF79BFE280649
:1035700054BF4FF6FF700020FFF794FE0137102F65
:10358000C2D118F8015F0834002DAFD100245025B6
:103590000DF1480844F00701A0B21F238AB21021A0
:1035A00001F0F2FFA5F120000026C0B20AEB0017DF
:1035B000BD5D15F0010F0CBF4FF6FF700020FFF747
:1035C00071FEA80754BF4FF6FF700020FFF76AFE98
:1035D000680754BF4FF6FF700020FFF763FE28070F
:1035E00054BF4FF6FF700020FFF75CFEE80654BFA3
:1035F0004FF6FF700020FFF755FEA80654BF4FF6A8
:10360000FF700020FFF74EFE680654BF4FF6FF70B4
:103610000020FFF747FE280654BF4FF6FF7000203A
:10362000FFF740FE0136102EC2D118F8015F0834B2
:10363000002DAFD1002452250DF1400844F00701C0
:10364000A0B22F238AB2202101F09EFFA5F1200015
:103650000026C0B20AEB0017BD5D15F0010F0CBFCC
:103660004FF6FF700020FFF71DFEA80754BF4FF66E
:10367000FF700020FFF716FE680754BF4FF6FF707B
:103680000020FFF70FFE280754BF4FF6FF70002001
:10369000FFF708FEE80654BF4FF6FF700020FFF763
:1036A00001FEA80654BF4FF6FF700020FFF7FAFD99
:1036B000680654BF4FF6FF700020FFF7F3FD2806A1
:1036C00054BF4FF6FF700020FFF7ECFD0136102EBF
:1036D000C2D118F8015F0834002DAFD1002459255C
:1036E0000DF1380844F00701A0B23F238AB230211F
:1036F00001F04AFFA5F120000026C0B20AEB001736
:10370000BD5D15F0010F0CBF4FF6FF700020FFF7F5
:10371000C9FDA80754BF4FF6FF700020FFF7C2FD98
:10372000680754BF4FF6FF700020FFF7BBFD280766
:1037300054BF4FF6FF700020FFF7B4FDE80654BFFA
:103740004FF6FF700020FFF7ADFDA80654BF4FF6FF
:10375000FF700020FFF7A6FD680654BF4FF6FF700C
:103760000020FFF79FFD280654BF4FF6FF70002092
:10377000FFF798FD0136102EC2D118F8015F08340A
:10378000002DAFD1002445250DF1300844F007018C
:10379000A0B24F238AB2402101F0F6FEA5F120002D
:1037A0000026C0B20AEB0017BD5D15F0010F0CBF7B
:1037B0004FF6FF700020FFF775FDA80754BF4FF6C6
:1037C000FF700020FFF76EFD680754BF4FF6FF70D3
:1037D0000020FFF767FD280754BF4FF6FF70002059
:1037E000FFF760FDE80654BF4FF6FF700020FFF7BB
:1037F00059FDA80654BF4FF6FF700020FFF752FD99
:10380000680654BF4FF6FF700020FFF74BFD2806F7
:1038100054BF4FF6FF700020FFF744FD0136102E15
:10382000C2D118F8015F0834002DAFD1002445251E
:103830000DF1280844F00701A0B25F238AB250219D
:1038400001F0A2FEA5F120000026C0B20AEB00178D
:10385000BD5D15F0010F0CBF4FF6FF700020FFF7A4
:1038600021FDA80754BF4FF6FF700020FFF71AFD97
:10387000680754BF4FF6FF700020FFF713FD2807BD
:1038800054BF4FF6FF700020FFF70CFDE80654BF51
:103890004FF6FF700020FFF705FDA80654BF4FF656
:1038A000FF700020FFF7FEFC680654BF4FF6FF7064
:1038B0000020FFF7F7FC280654BF4FF6FF700020EA
:1038C000FFF7F0FC0136102EC2D118F8015F083462
:1038D000002DAFD1002456250DF1240844F0070136
:1038E000A0B26F238AB2602101F04EFEA5F1200044
:1038F0000026C0B20AEB0017BD5D15F0010F0CBF2A
:103900004FF6FF700020FFF7CDFCA80754BF4FF61D
:10391000FF700020FFF7C6FC680754BF4FF6FF702A
:103920000020FFF7BFFC280754BF4FF6FF700020B0
:10393000FFF7B8FCE80654BF4FF6FF700020FFF712
:10394000B1FCA80654BF4FF6FF700020FFF7AAFC99
:10395000680654BF4FF6FF700020FFF7A3FC28064F
:1039600054BF4FF6FF700020FFF79CFC0136102E6D
:10397000C2D118F8015F0834002DAFD100245625BC
:103980000DF1200844F00701A0B27F238AB2702114
:1039900001F0FAFDA5F120000026C0B20AEB0017E5
:1039A000BD5D15F0010F0CBF4FF6FF700020FFF753
:1039B00079FCA80754BF4FF6FF700020FFF772FC98
:1039C000680754BF4FF6FF700020FFF76BFC280715
:1039D00054BF4FF6FF700020FFF764FCE80654BFA9
:1039E0004FF6FF700020FFF75DFCA80654BF4FF6AE
:1039F000FF700020FFF756FC680654BF4FF6FF70BB
:103A00000020FFF74FFC280654BF4FF6FF70002040
:103A1000FFF748FC0136102EC2D118F8015F0834B8
:103A2000002DAFD100244D250DF1180844F00701F9
:103A3000A0B28F238AB2802101F0A6FDA5F120005B
:103A40000026C0B20AEB0017BD5D15F0010F0CBFD8
:103A50004FF6FF700020FFF725FCA80754BF4FF674
:103A6000FF700020FFF71EFC680754BF4FF6FF7081
:103A70000020FFF717FC280754BF4FF6FF70002007
:103A8000FFF710FCE80654BF4FF6FF700020FFF769
:103A900009FCA80654BF4FF6FF700020FFF702FC98
:103AA000680654BF4FF6FF700020FFF7FBFB2806A7
:103AB00054BF4FF6FF700020FFF7F4FB0136102EC5
:103AC000C2D118F8015F0834002DAFD100244D2574
:103AD0000DF1100844F00701A0B29F238AB2902193
:103AE00001F052FDA5F120000026C0B20AEB00173C
:103AF000BD5D15F0010F0CBF4FF6FF700020FFF702
:103B0000D1FBA80754BF4FF6FF700020FFF7CAFB98
:103B1000680754BF4FF6FF700020FFF7C3FB28076C
:103B200054BF4FF6FF700020FFF7BCFBE80654BF00
:103B30004FF6FF700020FFF7B5FBA80654BF4FF605
:103B4000FF700020FFF7AEFB680654BF4FF6FF7012
:103B50000020FFF7A7FB280654BF4FF6FF70002098
:103B6000FFF7A0FB0136102EC2D118F8015F083410
:103B7000002DAFD140F290200021C2F20000C4F22B
:103B8000C821006806F0E0FE06F0EAFD02460B469A
:103B90000DF15A000FF60071FCF77CFB9DF85A50AE
:103BA000002D5BD028240DF15A0800BF44F0070116
:103BB000A0B20F2300278AB2002101F0E5FCA5F195
:103BC0002000C0B20AEB0016F55D15F0010F0CBF26
:103BD0004FF6FF704FF47840FFF764FBA80754BF1F
:103BE0004FF6FF704FF47840FFF75CFB680754BF57
:103BF0004FF6FF704FF47840FFF754FB280754BF8F
:103C00004FF6FF704FF47840FFF74CFBE80654BFC7
:103C10004FF6FF704FF47840FFF744FBA80654BFFF
:103C20004FF6FF704FF47840FFF73CFB680654BF37
:103C30004FF6FF704FF47840FFF734FB280654BF6F
:103C40004FF6FF704FF47840FFF72CFB0137102F31
:103C5000BAD118F8015F0834002DA7D15625502499
:103C60000DF15A08ADF85A5044F00701A0B20F23E5
:103C700000278AB2002101F087FCA5F12000C0B224
:103C80000AEB0016F55D15F0010F0CBF4FF6FF7043
:103C90004FF47840FFF706FBA80754BF4FF6FF70BC
:103CA0004FF47840FFF7FEFA680754BF4FF6FF70F5
:103CB0004FF47840FFF7F6FA280754BF4FF6FF702D
:103CC0004FF47840FFF7EEFAE80654BF4FF6FF7066
:103CD0004FF47840FFF7E6FAA80654BF4FF6FF709E
:103CE0004FF47840FFF7DEFA680654BF4FF6FF70D6
:103CF0004FF47840FFF7D6FA280654BF4FF6FF700E
:103D00004FF47840FFF7CEFA0137102FBAD118F8E8
:103D1000015F0834002DA7D140F2A010C2F20000CC
:103D2000006806F01DFD0B464FF2C33102460DF14F
:103D30005A00C0F60001FCF7ADFA9DF85A50002D6C
:103D400052D020240DF15A0844F00701A0B21F23DD
:103D50008AB2102101F018FCA5F120000026C0B2A3
:103D60000AEB0017BD5D15F0010F0CBF4FF6FF7099
:103D70001F20FFF797FAA80754BF4FF6FF701F20C8
:103D8000FFF790FA680754BF4FF6FF701F20FFF748
:103D900089FA280754BF4FF6FF701F20FFF782FAF9
:103DA000E80654BF4FF6FF701F20FFF77BFAA80606
:103DB00054BF4FF6FF701F20FFF774FA680654BF18
:103DC0004FF6FF701F20FFF76DFA280654BF4FF61D
:103DD000FF701F20FFF766FA0136102EC2D118F8C7
:103DE000015F0834002DAFD140F2A410C2F20000F0
:103DF000006806F0B5FC0B464FF2C33102460DF1E8
:103E00005A00C0F60001FCF745FA9DF85A50002D03
:103E100052D020240DF15A0844F00701A0B22F23FC
:103E20008AB2202101F0B0FBA5F120000026C0B22B
:103E30000AEB0017BD5D15F0010F0CBF4FF6FF70C8
:103E40001F20FFF72FFAA80754BF4FF6FF701F205F
:103E5000FFF728FA680754BF4FF6FF701F20FFF7DF
:103E600021FA280754BF4FF6FF701F20FFF71AFAF8
:103E7000E80654BF4FF6FF701F20FFF713FAA8069D
:103E800054BF4FF6FF701F20FFF70CFA680654BFAF
:103E90004FF6FF701F20FFF705FA280654BF4FF6B4
:103EA000FF701F20FFF7FEF90136102EC2D118F85F
:103EB000015F0834002DAFD140F2A020C2F2000013
:103EC000006806F04DFC0B464FF2C33102460DF17F
:103ED0005A00C0F60001FCF7DDF99DF85A50002D9C
:103EE00052D020240DF15A0844F00701A0B23F231C
:103EF0008AB2302101F048FBA5F120000026C0B2B3
:103F00000AEB0017BD5D15F0010F0CBF4FF6FF70F7
:103F10001F20FFF7C7F9A80754BF4FF6FF701F20F7
:103F2000FFF7C0F9680754BF4FF6FF701F20FFF777
:103F3000B9F9280754BF4FF6FF701F20FFF7B2F9F9
:103F4000E80654BF4FF6FF701F20FFF7ABF9A80635
:103F500054BF4FF6FF701F20FFF7A4F9680654BF47
:103F60004FF6FF701F20FFF79DF9280654BF4FF64C
:103F7000FF701F20FFF796F90136102EC2D118F8F6
:103F8000015F0834002DAFD140F2581420204021A9
:103F900027224F23C2F20004256801F0F5FA002D14
:103FA00026DB00254FF6FF70FFF77CF94FF6FF7018
:103FB000FFF778F94FF6FF70FFF774F94FF6FF70CF
:103FC000FFF770F94FF6FF70FFF76CF94FF6FF70CF
:103FD000FFF768F94FF6FF70FFF764F94FF6FF70CF
:103FE000FFF760F90135A8B21028DBD324884BE035
:103FF000002500BF0AEB050090F8D06016F0010F15
:104000000CBF4FF6FF7047F60F00FFF74BF9B007F4
:1040100054BF4FF6FF7047F60F00FFF743F97007E4
:1040200054BF4FF6FF7047F60F00FFF73BF930071C
:1040300054BF4FF6FF7047F60F00FFF733F9F00655
:1040400054BF4FF6FF7047F60F00FFF72BF9B0068D
:1040500054BF4FF6FF7047F60F00FFF723F97006C5
:1040600054BF4FF6FF7047F60F00FFF71BF93006FD
:1040700054BF4FF6FF7047F60F00FFF713F90135F5
:10408000102DB7D12068444240F25C152020502109
:1040900027225F23C2F200052E6801F075FA002E78
:1040A00026DB00264FF6FF70FFF7FCF84FF6FF7097
:1040B000FFF7F8F84FF6FF70FFF7F4F84FF6FF70D0
:1040C000FFF7F0F84FF6FF70FFF7ECF84FF6FF70D0
:1040D000FFF7E8F84FF6FF70FFF7E4F84FF6FF70D0
:1040E000FFF7E0F80136B0B21028DBD328884BE0A8
:1040F000002700BF0AEB070090F8D06016F0010F10
:104100000CBF4FF6FF7047F60F00FFF7CBF8B00774
:1041100054BF4FF6FF7047F60F00FFF7C3F8700764
:1041200054BF4FF6FF7047F60F00FFF7BBF830079C
:1041300054BF4FF6FF7047F60F00FFF7B3F8F006D5
:1041400054BF4FF6FF7047F60F00FFF7ABF8B0060D
:1041500054BF4FF6FF7047F60F00FFF7A3F8700645
:1041600054BF4FF6FF7047F60F00FFF79BF830067D
:1041700054BF4FF6FF7047F60F00FFF793F8013773
:10418000102FB7D128684042A5B2002442F210791E
:104190004FF0000B039055E02F2040214F2300EB00
:1041A000C40082B2601DC00080B201F0EDF90026AB
:1041B0001AF8067017F0010F0CBF4FF6FF7047F6A4
:1041C0000F00FFF76FF8B80754BF4FF6FF7047F6C0
:1041D0000F00FFF767F8780754BF4FF6FF7047F6F8
:1041E0000F00FFF75FF8380754BF4FF6FF7047F630
:1041F0000F00FFF757F8F80654BF4FF6FF7047F669
:104200000F00FFF74FF8B80654BF4FF6FF7047F6A0
:104210000F00FFF747F8780654BF4FF6FF7047F6D8
:104220000F00FFF73FF8380654BF4FF6FF7047F610
:104230000F00FFF737F80136102EB9D14FF0000B01
:104240009AE000BFE0B2022802D1012026E000BFC0
:10425000C4F10102C4F10200D2B200F00301032A4A
:1042600002D2012049B919E0421A0120043A00FBA8
:1042700009F012F0FF0FF9D181B1012903D100EB50
:10428000800040000AE04FF47A7202294FF0640186
:1042900000FB02F208BF00FB01F210464CF6CD41D4
:1042A000B5FBF0F0012CCCF6CC41A0FB01124FEA9B
:1042B000D20101EB8101A0EB410607D85FEA0B6058
:1042C00004D1002E3FF468AF4FF0010B2F204021A6
:1042D0004F2300EBC40082B2601DC00080B201F029
:1042E00053F946F0100000260AEB001818F8067083
:1042F00017F0010F0CBF4FF6FF7047F60F00FEF7E7
:10430000D1FFB80754BF4FF6FF7047F60F00FEF716
:10431000C9FF780754BF4FF6FF7047F60F00FEF74E
:10432000C1FF380754BF4FF6FF7047F60F00FEF786
:10433000B9FFF80654BF4FF6FF7047F60F00FEF7BF
:10434000B1FFB80654BF4FF6FF7047F60F00FEF7F7
:10435000A9FF780654BF4FF6FF7047F60F00FEF72F
:10436000A1FF380654BF4FF6FF7047F60F00FEF767
:1043700099FF0136102EB9D10134032C7FF462AFBE
:104380000398002542F210774FF0000980B20390A5
:1043900056E02F2050215F2300EBC50082B2681D3C
:1043A000C00080B201F0F0F8002600BF1AF8064005
:1043B00014F0010F0CBF4FF6FF7047F60F00FEF729
:1043C00071FFA00754BF4FF6FF7047F60F00FEF7CE
:1043D00069FF600754BF4FF6FF7047F60F00FEF706
:1043E00061FF200754BF4FF6FF7047F60F00FEF73E
:1043F00059FFE00654BF4FF6FF7047F60F00FEF777
:1044000051FFA00654BF4FF6FF7047F60F00FEF7AE
:1044100049FF600654BF4FF6FF7047F60F00FEF7E6
:1044200041FF200654BF4FF6FF7047F60F00FEF71E
:1044300039FF0136102EB9D14FF00009A3E000BFBB
:10444000E8B2022802D1012026E000BFC5F1010236
:10445000C5F10200D2B200F00301032A02D201200A
:1044600041B919E0421A0120043A784312F0FF0FD3
:10447000FAD189B1012903D100EB800040000BE0A3
:104480004FF47A7202294FF0640100FB02F208BF78
:1044900000FB01F2104600BF0399012DB1FBF0F0C3
:1044A0004CF6CD41CCF6CC41A0FB01124FEAD20133
:1044B00001EB8101A0EB410407D85FEA096004D158
:1044C000002C3FF466AF4FF001092F2050215F23ED
:1044D00000EBC50082B2681DC00080B201F054F844
:1044E00044F0100000260AEB001800BF18F806B0D0
:1044F0001BF0010F0CBF4FF6FF7047F60F00FEF7E1
:10450000D1FE5FEA8B7054BF4FF6FF7047F60F0085
:10451000FEF7C8FE5FEA4B7054BF4FF6FF7047F6D8
:104520000F00FEF7BFFE5FEA0B7054BF4FF6FF703F
:1045300047F60F00FEF7B6FE5FEACB6054BF4FF6BA
:10454000FF7047F60F00FEF7ADFE5FEA8B6054BFC9
:104550004FF6FF7047F60F00FEF7A4FE5FEA4B60D0
:1045600054BF4FF6FF7047F60F00FEF79BFE5FEA61
:104570000B6054BF4FF6FF7047F60F00FEF792FE38
:104580000136102EB2D10135032D7FF459AF40F220
:104590008025182060211F226F23C2F200052C689D
:1045A00000F0F2FF2046002106F0BBF900240028AD
:1045B0004ED04FF6FF7800BF0AEB040090F8D060B1
:1045C00016F0010F0CBF4FF6FF7047F60F00FEF715
:1045D00069FEB00754BF4FF6FF7047F60F00FEF7B5
:1045E00061FE700754BF4FF6FF7047F60F00FEF7ED
:1045F00059FE300754BF4FF6FF7047F60F00FEF725
:1046000051FEF00654BF4FF6FF7047F60F00FEF75D
:1046100049FEB00654BF4FF6FF7047F60F00FEF795
:1046200041FE700654BF4FF6FF7047F60F00FEF7CD
:1046300039FE300654BF4FF6FF7047F60F00FEF705
:1046400031FE0134102CB7D1286880F0004426E0F8
:104650004FF6FF70FEF726FE4FF6FF70FEF722FEC4
:104660004FF6FF70FEF71EFE4FF6FF70FEF71AFEC4
:104670004FF6FF70FEF716FE4FF6FF70FEF712FEC4
:104680004FF6FF70FEF70EFE4FF6FF70FEF70AFEC4
:104690000134A0B21028DBD32C684FF6FF7840F22B
:1046A0008827182070211F227F23C2F200073D684F
:1046B00000F06AFF2846002106F033F900250028A3
:1046C0004CD000BF0AEB050090F8D06016F0010F47
:1046D0000CBF4FF6FF7047F60F00FEF7E3FDB00783
:1046E00054BF4FF6FF7047F60F00FEF7DBFD700773
:1046F00054BF4FF6FF7047F60F00FEF7D3FD3007AB
:1047000054BF4FF6FF7047F60F00FEF7CBFDF006E3
:1047100054BF4FF6FF7047F60F00FEF7C3FDB0061B
:1047200054BF4FF6FF7047F60F00FEF7BBFD700653
:1047300054BF4FF6FF7047F60F00FEF7B3FD30068B
:1047400054BF4FF6FF7047F60F00FEF7ABFD013583
:10475000102DB7D1386880F0004524E04FF6FF7087
:10476000FEF7A0FD4FF6FF70FEF79CFD4FF6FF70C1
:10477000FEF798FD4FF6FF70FEF794FD4FF6FF70C1
:10478000FEF790FD4FF6FF70FEF78CFD4FF6FF70C1
:10479000FEF788FD4FF6FF70FEF784FD0135A8B2E5
:1047A0001028DBD33D6847F60F0710262020602134
:1047B00022460623CDE90078029600F0E1FF202092
:1047C00070212A460623CDE90078029600F0D8FF32
:1047D00040F298142020802127228F23C2F2000467
:1047E000256800F0D1FE002D26DB00254FF6FF7076
:1047F000FEF758FD4FF6FF70FEF754FD4FF6FF70C1
:10480000FEF750FD4FF6FF70FEF74CFD4FF6FF70C0
:10481000FEF748FD4FF6FF70FEF744FD4FF6FF70C0
:10482000FEF740FD4FF6FF70FEF73CFD0135A8B2E4
:104830001028DBD324884BE0002500BF0AEB0500DD
:1048400090F8D06016F0010F0CBF4FF6FF7047F6DE
:104850000F00FEF727FDB00754BF4FF6FF7047F675
:104860000F00FEF71FFD700754BF4FF6FF7047F6AD
:104870000F00FEF717FD300754BF4FF6FF7047F6E5
:104880000F00FEF70FFDF00654BF4FF6FF7047F61E
:104890000F00FEF707FDB00654BF4FF6FF7047F656
:1048A0000F00FEF7FFFC700654BF4FF6FF7047F68F
:1048B0000F00FEF7F7FC300654BF4FF6FF7047F6C7
:1048C0000F00FEF7EFFC0135102DB7D120684442F0
:1048D00040F29C152020902127229F23C2F2000540
:1048E0002E6800F051FE002E26DB00264FF6FF70EA
:1048F000FEF7D8FC4FF6FF70FEF7D4FC4FF6FF70C2
:10490000FEF7D0FC4FF6FF70FEF7CCFC4FF6FF70C1
:10491000FEF7C8FC4FF6FF70FEF7C4FC4FF6FF70C1
:10492000FEF7C0FC4FF6FF70FEF7BCFC0136B0B2DC
:104930001028DBD328884BE0002700BF0AEB0700D4
:1049400090F8D06016F0010F0CBF4FF6FF7047F6DD
:104950000F00FEF7A7FCB00754BF4FF6FF7047F6F5
:104960000F00FEF79FFC700754BF4FF6FF7047F62D
:104970000F00FEF797FC300754BF4FF6FF7047F665
:104980000F00FEF78FFCF00654BF4FF6FF7047F69E
:104990000F00FEF787FCB00654BF4FF6FF7047F6D6
:1049A0000F00FEF77FFC700654BF4FF6FF7047F60E
:1049B0000F00FEF777FC300654BF4FF6FF7047F646
:1049C0000F00FEF76FFC0137102FB7D12868404267
:1049D000A5B2002442F210784FF00009039055E090
:1049E0002F2080218F2300EBC40082B2601DC00005
:1049F00080B200F0C9FD00261AF8067017F0010F0A
:104A00000CBF4FF6FF7047F60F00FEF74BFCB807E0
:104A100054BF4FF6FF7047F60F00FEF743FC7807D0
:104A200054BF4FF6FF7047F60F00FEF73BFC380708
:104A300054BF4FF6FF7047F60F00FEF733FCF80641
:104A400054BF4FF6FF7047F60F00FEF72BFCB80679
:104A500054BF4FF6FF7047F60F00FEF723FC7806B1
:104A600054BF4FF6FF7047F60F00FEF71BFC3806E9
:104A700054BF4FF6FF7047F60F00FEF713FC0136E8
:104A8000102EB9D14FF000099EE000BFE0B203281C
:104A900006D101202AE000BF25342E326600000036
:104AA000C4F10202C4F10300D2B200F00301032AF0
:104AB00002D2012049B919E0421A0120043A00FB50
:104AC00008F012F0FF0FF9D181B1012903D100EBF9
:104AD000800040000AE04FF47A7202294FF064012E
:104AE00000FB02F208BF00FB01F210464CF6CD417C
:104AF000B5FBF0F0022CCCF6CC41A0FB01124FEA42
:104B0000D20101EB8101A0EB410607D85FEA096001
:104B100004D1002E3FF464AF4FF001092F20802113
:104B20008F2300EBC40082B2601DC00080B200F091
:104B30002BFD46F0100000260AEB001B1BF8067048
:104B400017F0010F0CBF4FF6FF7047F60F00FEF78E
:104B5000A9FBB80754BF4FF6FF7047F60F00FEF7EA
:104B6000A1FB780754BF4FF6FF7047F60F00FEF722
:104B700099FB380754BF4FF6FF7047F60F00FEF75A
:104B800091FBF80654BF4FF6FF7047F60F00FEF793
:104B900089FBB80654BF4FF6FF7047F60F00FEF7CB
:104BA00081FB780654BF4FF6FF7047F60F00FEF703
:104BB00079FB380654BF4FF6FF7047F60F00FEF73B
:104BC00071FB0136102EB9D10134042C7FF45EAF95
:104BD0000398002542F210774FF0000880B203904E
:104BE00006E000BF0135042D04BF23B0BDE8F08FFF
:104BF000E8B2032802D1012026E000BFC5F102027D
:104C0000C5F10300D2B200F00301032A02D2012051
:104C100041B919E0421A0120043A784312F0FF0F1B
:104C2000FAD189B1012903D100EB800040000BE0EB
:104C30004FF47A7202294FF0640100FB02F208BFC0
:104C400000FB01F2104600BF0399022DB1FBF0F00A
:104C50004CF6CD41CCF6CC41A0FB01124FEAD2017B
:104C600001EB8101A0EB410406D85FEA086003D1A3
:104C7000002C5FD04FF001082F2090219F2300EBE4
:104C8000C50082B2681DC00080B200F07DFC44F017
:104C9000100000260AEB001919F806B01BF0010FEE
:104CA0000CBF4FF6FF7047F60F00FEF7FBFA5FEA06
:104CB0008B7054BF4FF6FF7047F60F00FEF7F2FA05
:104CC0005FEA4B7054BF4FF6FF7047F60F00FEF7D8
:104CD000E9FA5FEA0B7054BF4FF6FF7047F60F001A
:104CE000FEF7E0FA5FEACB6054BF4FF6FF7047F67D
:104CF0000F00FEF7D7FA5FEA8B6054BF4FF6FF70E4
:104D000047F60F00FEF7CEFA5FEA4B6054BF4FF64E
:104D1000FF7047F60F00FEF7C5FA5FEA0B6054BF5D
:104D20004FF6FF7047F60F00FEF7BCFA0136102E63
:104D3000B2D157E72F2090219F2300EBC50082B20C
:104D4000681DC00080B200F01FFC00261AF8064063
:104D500014F0010F0CBF4FF6FF7047F60F00FEF77F
:104D6000A1FAA00754BF4FF6FF7047F60F00FEF7F9
:104D700099FA600754BF4FF6FF7047F60F00FEF731
:104D800091FA200754BF4FF6FF7047F60F00FEF769
:104D900089FAE00654BF4FF6FF7047F60F00FEF7A2
:104DA00081FAA00654BF4FF6FF7047F60F00FEF7DA
:104DB00079FA600654BF4FF6FF7047F60F00FEF712
:104DC00071FA200654BF4FF6FF7047F60F00FEF74A
:104DD00069FA0136102EB9D14FF0000802E7000041
:104DE000B0B541F6000405460221C4F20104204694
:104DF000FCF75CFC20460821FCF758FC68B2B0F1D7
:104E0000FF3F04DD20462021FCF750FC03E0204654
:104E10002021FCF74DFC20460821FCF749FC2046E8
:104E20000821FCF743FC680604D420462021FCF747
:104E30003DFC03E020462021FCF73AFC20460821F7
:104E4000FCF736FC20460821FCF730FCA80604D409
:104E500020462021FCF72AFC03E020462021FCF715
:104E600027FC20460821FCF723FC20460821FCF7FC
:104E70001DFCE80604D420462021FCF717FC03E0C3
:104E800020462021FCF714FC20460821FCF710FCEA
:104E900020460821FCF70AFC280704D420462021DC
:104EA000FCF704FC03E020462021FCF701FC20462F
:104EB0000821FCF7FDFB20460821FCF7F7FB6807FB
:104EC00004D420462021FCF7F1FB03E020462021FA
:104ED000FCF7EEFB20460821FCF7EAFB2046082100
:104EE000FCF7E4FBA80704D420462021FCF7DEFBF6
:104EF00003E020462021FCF7DBFB20460821FCF7DD
:104F0000D7FB20460821FCF7D1FBE80704D1204657
:104F10002021FCF7CBFB03E020462021FCF7C8FB57
:104F200020460821FCF7C4FB20460221BDE8B04022
:104F3000FCF7BEBB014640F224420020C4F200024E
:104F4000032904D0042918BF704702F58062B2F922
:104F5000001010800846704770B58AB04FF4047096
:104F600001210125FDF7BAF94FF40040FDF7A0F942
:104F700042F200440026022001A9C4F20104039673
:104F8000ADF80400A4F5A050FCF7E2F92046FBF7C9
:104F9000A1FF4FF46020CDE90466069604A9CDE98F
:104FA000070620468DF82450FBF7D6FF2046012146
:104FB000FBF786FF2046FCF72DF800BF2046FBF7E5
:104FC000C7FF0028FAD12046FCF734F82046FBF74B
:104FD000B1FF0028FAD10AB070BD000010B584B04E
:104FE00041F218000124C4F20200016841F01101ED
:104FF0000160012001F03AF810200121FDF76EF95F
:105000004820ADF8044001A903900320029041F22A
:105010000000C4F20100FCF79BF904B010BD0000D1
:1050200010B500F015FA41F600041021C4F2010495
:105030002046FCF73BFB642000F0EAFF20461021ED
:10504000FCF736FB642000F0E3FF20464021FCF72C
:105050002FFB642000F0DCFF20460421FCF726FB38
:105060001120FFF7BDFE20460421FCF721FB78202C
:1050700000F0CEFF20460421FCF718FB3620FFF796
:10508000AFFE20460421FCF713FB0020FFF7A8FE2B
:1050900020460421FCF70AFB3A20FFF7A1FE204638
:1050A0000421FCF705FB0520FFF79AFE20460421AA
:1050B000FCF7FCFAB220FFF793FE20460421FCF730
:1050C000F7FA0C20FFF78CFE0C20FFF789FE00207A
:1050D000FFF786FE3320FFF783FE3320FFF780FEC5
:1050E00020460421FCF7E2FAB720FFF779FE2046BC
:1050F0000421FCF7DDFA3520FFF772FE204604217B
:10510000FCF7D4FABB20FFF76BFE20460421FCF726
:10511000CFFA3220FFF764FE20460421FCF7C6FADE
:10512000C220FFF75DFE20460421FCF7C1FA0120F2
:10513000FFF756FE20460421FCF7B8FAC320FFF71C
:105140004FFE20460421FCF7B3FA1520FFF748FE76
:1051500020460421FCF7AAFAC420FFF741FE2046AE
:105160000421FCF7A5FA2020FFF73AFE204604218F
:10517000FCF79CFAC620FFF733FE20460421FCF71B
:1051800097FA0F20FFF72CFE20460421FCF78EFA39
:10519000D020FFF725FE20460421FCF789FAA42041
:1051A000FFF71EFEA120FFF71BFE20460421FCF79F
:1051B0007DFAE020FFF714FE20460421FCF778FA80
:1051C000D020FFF70DFE0820FFF70AFE0E20FFF7A4
:1051D00007FE0920FFF704FE0920FFF701FE052066
:1051E000FFF7FEFD3120FFF7FBFD3320FFF7F8FD51
:1051F0004820FFF7F5FD1720FFF7F2FD1420FFF719
:10520000EFFD1520FFF7ECFD3120FFF7E9FD34201D
:10521000FFF7E6FD20460421FCF748FAE120FFF7FE
:10522000DFFD20460421FCF743FAD020FFF7D8FD2C
:105230000820FFF7D5FD0E20FFF7D2FD0920FFF76C
:10524000CFFD0920FFF7CCFD1520FFF7C9FD312068
:10525000FFF7C6FD3320FFF7C3FD4820FFF7C0FD71
:105260001720FFF7BDFD1420FFF7BAFD1520FFF74B
:10527000B7FD3120FFF7B4FD3420FFF7B1FD204624
:105280000421FCF713FA2120FFF7AAFD2046042190
:10529000FCF70EFA20460421FCF708FA2920FFF754
:1052A0009FFD20460421BDE81040FCF701BA000034
:1052B00070B584B041F218060124C4F202063068C9
:1052C00040F045003060012000F0D0FE4020012178
:1052D000FDF704F840F60005102001A9C4F201050D
:1052E0000390ADF80440032005F580540290204659
:1052F000FCF72EF820462021FCF7DAF9286820F088
:1053000001002860286820F002002860286840F02A
:1053100003002860286820F010002860286820F02A
:1053200020002860286840F030002860286820F4B9
:1053300080702860286820F400702860286840F495
:1053400040702860286820F480502860286820F485
:1053500000502860286840F440502860286820F0F9
:1053600004002860286820F008002860286840F0C1
:105370000C002860286820F040002860286820F091
:1053800080002860286840F0C0002860286820F469
:1053900080602860286820F400602860286840F455
:1053A00040602860286820F480402860286820F445
:1053B00000402860286840F400402860706840F091
:1053C00008007060012000F051FE40F228400921E1
:1053D000CFF6FF70295240F22C4042F21071CFF606
:1053E000FF70295240F2184047F66801CFF6FF706F
:1053F000295240F21C4047F67801CFF6FF7029523F
:1054000040F240400021CFF6FF70295240F23C416B
:10541000285ACFF6FF716852685A40F23841CFF6E9
:10542000FF716852685A40F23441CFF6FF716852FA
:1054300040F2204041F21111CFF6FF70295240F2A4
:1054400000408121CFF6FF70295204B070BD0000EA
:1054500070B584B040200121FCF740FF41F6000404
:105460001026022001AD0396ADF804000320C4F21B
:105470000104294602902046FBF76AFF20460221DC
:10548000FCF716F928202946ADF804002046FBF762
:105490005FFF20462821FCF70BF944202946ADF890
:1054A00004002046FBF754FF204648F22001FCF799
:1054B000FFF820462946ADF80460FBF749FF204677
:1054C0001021FCF7F5F804B070BD000040F2A421F3
:1054D000C2F20001086040F274000021C2F2000034
:1054E000016070472DE9F04F83B00D4611789B465F
:1054F0000646B1B1DDE90C9ADDF83880571C4FEA59
:105500005A0400BFCAB2B0B229465B46CDE9009A40
:10551000CDF80880FDF702FF17F8011B264400298B
:10552000F0D103B0BDE8F08FB0B584B07020012198
:10553000FCF7D4FE102041F6000401AD03904FF4B7
:105540004160C4F201042946ADF804000320029032
:10555000A4F58060FBF7FCFE4FF480502946ADF8BF
:105560000400A4F50060FBF7F3FE4FF480602946C9
:10557000ADF804002046FBF7EBFE20464FF48061B7
:10558000FCF796F804B0B0BD2DE9F04141F60004F7
:105590000E460546042198461746C4F201042046EB
:1055A000FCF784F82A20FFF71BFC20460421FCF7B7
:1055B0007FF8280AFFF714FCE8B2FFF711FC380A5D
:1055C000FFF70EFCF8B2FFF70BFC20460421FCF7B6
:1055D0006DF82B20FFF704FC20460421FCF768F847
:1055E000300AFFF7FDFBF0B2FFF7FAFB4FEA182095
:1055F000FFF7F6FB5FFA88F0FFF7F2FB2046042185
:10560000FCF754F82C20FFF7EBFB20460421BDE803
:10561000F041FCF74DB80000F0B58BB041F2180036
:10562000C4F20200016841F400610160012000F051
:105630001DFD42F63C4601200027C4F201063780DA
:10564000B78000F013FDC0200121C0F21600FBF767
:10565000EFFF4FF400600121FCF740FE41200121E3
:10566000FCF73CFE032042F6004408A909901820EC
:10567000C4F201040A904FF4C040ADF82000A4F534
:10568000A050FBF765FE41F61F4005A9CDE9057066
:105690002046FDF713FC702001ADC0F20100294641
:1056A00001902046CDF80A70FDF78AFB20460821BC
:1056B000FDF7C4FB60202946ADF804002046FDF745
:1056C000C3FB20460821FDF7EFFB20460121FDF733
:1056D000EDF920460121FDF7CDF920460121FDF726
:1056E000DBF93780B7800BB0F0BD000010B542F297
:1056F00000440C2101220723C4F201042046FBF7D9
:1057000055FC20460121FBF78BFC00BF20460221FF
:10571000FBF718FC0028F9D02046FBF70FFC04F03B
:10572000B9FC46F266634FF06632C4F20A0304F035
:105730003DFD48F200030022C4F2670304F036FD89
:1057400000230022C4F2240304F0CAFA002300223A
:10575000C4F2590304F02AFD00230022C3F630737B
:1057600004F024FD04F050FC10BD000080B5FCF7EF
:1057700011FD00BF01F0E2FC0028FBD180BD00005C
:105780002DE9F04F89B01C460E46002B079000F023
:10579000A08014980021C4F2C8214508104605F0E5
:1057A00099FA05F0E3F90690E8B242F210774FF06B
:1057B00000080596049000BFA4EB0800E1B208942D
:1057C000421E5FFA88F012F0FF0F0DD0A31EA3EB6C
:1057D0000803DDB202F00303032D0BD2139EDDF8A4
:1057E0001CC0012293B923E0139EDDF81CC00122E6
:1057F0001EE000BF139EDDF81CC0D51A012200BFB9
:10580000043D7A4315F0FF0FFAD18BB1012B03D180
:1058100002EB820252000BE04FF47A77022B4FF03A
:10582000640302FB07F508BF02FB03F52A4600BF2D
:10583000069B02398142B3FBF2F24CF6CD43CCF623
:10584000CC43A2FB03354FEAD50303EB8303A2EB62
:1058500043021DD1DDF810A0DDF814B0129F149D95
:1058600000964FF0000916462E22CDF8089000FB56
:105870000AC059463B46019580B2FDF74FFDDDE970
:1058800007C43246139E08F10108013407E000BF47
:10589000089C149D129FDDE904AB4FF000095FFAEC
:1058A00088F042F030013B46CDE90065CDF8089024
:1058B00000FB0AC0CAB2594680B2FDF72FFD08F1BD
:1058C0000108E0B242F210775FFA88F188423FF6B1
:1058D00073AF09B0BDE8F08FB0B58AB002200121E6
:1058E000FCF7F0FC10200121FCF7F8FC40F600402A
:1058F0000121C0F21A00FBF79BFE40F20044042095
:1059000001A90390C020C4F20004ADF8040004F51E
:105910008630FBF71DFD07AD2846FDF725FB4FF64A
:10592000FF7029460890002007902046FDF7C6FA30
:105930002046032100220023FDF7C4F804AD2846C9
:10594000FDF730FA0A202946ADF818002046FDF789
:10595000DFF820460121FDF797F8204601210122BA
:10596000FDF726FA20460021FDF7A6FA2046012180
:10597000FDF792F80AB0B0BDB0B58AB0042001219D
:105980000424FCF79FFC20200121FCF7A7FC4FF426
:1059900080500121FBF74CFE039440F600044FF4C5
:1059A000405001A9C4F20004ADF8040004F58630AB
:1059B000FBF7CEFC07AD2846FDF7D6FA4FF6FF7091
:1059C00029460890002007902046FDF777FA2046E8
:1059D000032100220023FDF775F804AD2846FDF7EA
:1059E000E1F90A202946ADF818002046FDF790F8A5
:1059F00020460121FDF748F8204601210122FDF74C
:105A0000D7F920460021FDF757FA20460121FDF77E
:105A100043F80AB0B0BD00002DE9F047044608463F
:105A200004F021FB40F200080022C4F2690843465A
:105A300004F0BCFB40F200090022C3F6D0794B46CB
:105A400004F0B4FB40F2000A0022C4F22A0A5346D2
:105A500004F046F900250022C4F23E052B4604F06E
:105A60003FF94DF6D36644F69377C0F6E036C4F2BC
:105A70006A0732463B4604F099FB04F043F840F2D3
:105A80008821C2F200010860204604F0ECFA0022EE
:105A9000434604F08BFB00224B4604F087FB0022B8
:105AA000534604F01DF900222B4604F019F9324642
:105AB0003B4604F07BFB04F025F840F28021C2F263
:105AC00000010860BDE8F087B0B50C46014640F221
:105AD000AC100022C2F20000026040F25000C2F29C
