:020000040800F2
:1000000088070020F101000885170008BD120008CC
:10001000811700085D0F0008112A00080000000089
:1000200000000000000000000000000003020008C3
:10003000610F000800000000070200080902000824
:100040000B0200080B0200080B0200080B0200085C
:100050000B0200080B0200080B0200080B0200084C
:100060000B0200080B0200080B0200080B0200083C
:100070000B0200080B0200080B0200080B0200082C
:100080000B0200080B0200080B0200080B0200081C
:100090000B0200080B0200080B0200080B0200080C
:1000A0000B0200080B0200080B0200080B020008FC
:1000B000151F00083D1F0008511F00080B02000813
:1000C0000B0200080B0200080B0200080B020008DC
:1000D0000B020008792700080B0200080B02000839
:1000E0000B0200080B0200080B0200080B020008BC
:1000F000651F00080B0200080B0200080B02000835
:100100000B0200080B0200080B0200080B0200089B
:100110000B0200080B0200080B0200080B0200088B
:100120000B0200080B0200080B0200080B0200087B
:1001300000F002F800F04DF80AA090E8000C8244AC
:100140008344AAF10107DA4501D100F042F8AFF289
:10015000090EBAE80F0013F0010F18BFFB1A43F0A5
:1001600001031847F0C6000010C70000103A24BF72
:1001700078C878C1FAD8520724BF30C830C144BF0C
:1001800004680C607047000000230024002500264E
:10019000103A28BF78C1FBD8520728BF30C148BFEA
:1001A0000B607047662907F05884642900F09A8034
:1001B000782900F0D380002070471FB500F0E4FCE0
:1001C00004000020002107F093F8E0601FBD10B587
:1001D00010BD00F0DDFD1146FFF7EFFF05F0D6F88A
:1001E00000F0FBFD03B4FFF7F2FF03BC04F088FA54
:1001F0000948804709480047FEE7FEE7FEE7FEE7BB
:10020000FEE7FEE7FEE7FEE7FEE7FEE704480549F6
:10021000054A064B70470000BD1D0008310100086B
:100220008801002088070020880300208803002020
:10023000704710B54C1084EA530404D54042C1F114
:10024000000138BF491E1B4204D55242C3F10003CE
:1002500038BF5B1E00F090F914F0804F04D040428C
:10026000C1F1000138BF491E14F0004F04D05242C2
:10027000C3F1000338BF5B1E10BD00000FB404497A
:1002800010B503AA029800F06DFC10BC5DF814FBD9
:100290002401002070B5044685690068C10601D5B7
:1002A000302600E02026C00707D070BDD4E9012128
:1002B00030469047206A401C20626D1EF6D570BD06
:1002C00070B5044685690078C00707D170BDD4E9D0
:1002D000012120209047206A401C20626D1EF6D527
:1002E00070BD00002DE9F041064600241068752914
:1002F000314616A510D0AFF30080002802DA404244
:1003000013A507E031688A0701D512A502E0490765
:1003100004D511A5012401E0AFF3008000210A22D9
:1003200006F1240709E0B0FBF2FCB0FBF2F302FB9C
:100330001C00303078541846491C0028F3D123465D
:100340002A463046BDE8F04100F08DB900000000BB
:100350002D0000002B0000002000000070B50446B6
:100360000D4621461068AFF300802188090502D5AB
:100370000F4A7A4402E00E4A7A440E32002104F118
:10038000240305E000F00F060009965D5E54491C49
:100390000028F7D120780023000704D5702D02D063
:1003A00009B1022311322046BDE8704000F05BB96C
:1003B000E87600002DE9F05F894604464FF0000A18
:1003C000DFF824B1FB44C0F820A02046E16888474C
:1003D00000287DD0252806D0D4E901219047206A45
:1003E000401C2062F1E700255F462046E16888470F
:1003F0002028064607DB312E05D2B81910F8200C4C
:1004000008B10543F1E7A80701D525F00405C4F8B4
:100410001CA00027C4F818A02A2E09D0304606F0E8
:100420005FFF38B304EB8708303EC8F8186019E066
:1004300059F8041B204604EB87029161E168884764
:10044000012F064618D1E069002820DA25F02005A2
:100450001DE0D8F8180000EB800006EB40003038B3
:10046000C8F818002046E1688847064606F038FFBD
:100470000028EED1012F0AD02E2E08D12046E168A7
:1004800088477F1C0646022F45F02005C4DBA06983
:10049000002803DA404245F00105A061E80701D0D9
:1004A00025F01005A6B1A6F14100192802D8203682
:1004B00045F400654A463146204625604D46FFF723
:1004C00071FE60B1012807D0ED1D25F0070000E0A6
:1004D00007E000F1080978E705F1040975E73046FF
:1004E0007AE7206ABDE8F09FBE76000010B50446AA
:1004F00003E004F0DBFC401C09D014F8010B0549B3
:100500000028F6D1BDE810400A2004F0CFBC4FF01F
:10051000FF3010BD2401002040EA010310B59B0705
:100520000FD1042A0DD310C808C9121F9C42F8D05D
:1005300020BA19BA884201D9012010BD4FF0FF300E
:1005400010BD1AB1D30703D0521C07E0002010BD24
:1005500010F8013B11F8014B1B1B07D110F8013BB0
:1005600011F8014B1B1B01D1921EF1D1184610BD91
:10057000704770477047704753EA020C00F069807B
:100580002DE9F04B4FF00006002B1FBFB3FA83F5A7
:1005900003FA05F424FA05F65E4012BF1643B2FAD8
:1005A00082F502FA05F4C5F120051EBF22FA05FC0A
:1005B00044EA0C04203556EA044C4FEA144418BFB0
:1005C000641C4FF000084FF00009904271EB030CDF
:1005D00039D3002919BFB1FA81F701FA07F6B0FA49
:1005E00080F700FA07F6C7F120071EBF20FA07FCC4
:1005F00046EA0C062037B6FBF4FCA7EB0507103FD4
:1006000007F01F0BCBF120062CFA06F60CFA0BFBB9
:1006100044BFB3460026202FA4BF5E464FF0000B18
:100620005BEA060C08BF4FF0010B19EB0B0948EB16
:100630000608ABFB027C06FB02CC0BFB03CCC01B09
:1006400071EB0C01C1E70B46024641464846BDE846
:10065000F08B13B54FF000004FF00001AFF30080B6
:10066000BDE81C4070472DE9F0470D46994692467B
:10067000044600F124080168880604D5E06921F0E9
:100680001001216000E00120A84201DD471B00E0CD
:100690000027A1697A1902EB0900081AA0612078E5
:1006A000C00602D42046FFF7F5FD002608E0D4E995
:1006B00001211AF806009047206A401C761C20622F
:1006C0004E45F4DB2078C0060AD52046FFF7E2FD50
:1006D00006E0D4E9012130209047206A401C2062C6
:1006E000381EA7F10107F4DC07E0D4E9012118F86E
:1006F00005009047206A401C2062281EA5F10105D4
:10070000F3DC2046FFF7DCFD2078000602D502204E
:10071000BDE8F0870120FBE72DE9FF4F0C461E46A0
:100720004FF0FF378BB0D2E90001DDF860800A900E
:100730008A46C1F30A5505B93D46002108464FF0E7
:100740000000BAF1000F00F4400005DA00EB800071
:100750004FF4400101EA50004FEA9059B9F1010FFE
:1007600000DDB9460A9850EA4A000ED044F610500F
:10077000A5F2FF3545432F14B8F1000F1ED0754286
:10078000291E1EDDC9F100021CE0B8F1010F4FF077
:10079000000001D0302103E0F24305E02154401C69
:1007A000B042FBDB30460022002121540B99C1F8F6
:1007B0000880C1E900200FB0BDE8F08FBD1B6D1CA3
:1007C000DEE74A4600DA694206A800F067FA06AB9F
:1007D00093E8070003AB83E8070050460A9906F048
:1007E000A3F98DE80700A0F500501F38009003988A
:1007F000002D0ADD42F21F014A460844002303A9E6
:100800000390684606F00CFC09E0A0F500504A464B
:100810001F38002303A90390684606F016FC8DE8F4
:1008200007000004000C03D04FF0FF30410800E047
:100830001046B8F1000F03D00022009215461EE0CA
:10084000751E05D400F0A4F9303262556D1EF9D53D
:10085000B3460122084302D000227F1C04E0207826
:10086000302801D100227F1E002A099784D01DE084
:10087000112D07DA00F08CF9303262556D1C50EA08
:100880000102F5D1084302D00098C8B10EE0002162
:10089000681E05E0235C625C63542254401E491CC0
:1008A0008142F7DBAB46A81B401E0990002004F8EC
:1008B0000B000B98099AC0F80880C0E9002B7AE772
:1008C00011264FF0000857E72DE9F04F88460446FF
:1008D000D21D22F0070191B0D1E90001CDE90A0152
:1008E00006F0EAFC02460B98C00F01D02D2007E06D
:1008F0002068810701D52B2002E0202101EAC000F9
:10090000032A099001D0072A05DB03464146204609
:1009100000F084F90BE12078800601D5E06900E061
:100920000620B8F1650F814606D0B8F1660F18D0E1
:10093000B8F1670F70D131E00020B9F1110F0090CC
:1009400001DB112301E009F101030AAA01A90CA8A6
:10095000FFF7E2FEDDE90C70002609F10105834690
:1009600047E001204B4600904FF000470AAA01A93A
:100970000CA8FFF7D1FEDDE90DB00C995D4600260D
:1009800010B909F101000D18B9EB050003D4C0F14D
:10099000FF3609F10105A5EB09002BE0B9F1010FC4
:1009A00001DA4FF001090020B9F1110F009048461B
:1009B00001DD112300E003460AAA01A90CA8FFF7F4
:1009C000ABFEDDE90C704D4600268346207800071B
:1009D0000AD4AB4500DA5D4601A8012D04DD4119BA
:1009E00011F8011C302907D04F4502DA17F1040F26
:1009F00004DA012082460FE06D1EEEE7002F02DCD4
:100A0000ED1B3E4403E0781CA84200DD7D1CB81BB2
:100A100000F1010A4FF000472078000703D4AA45EF
:100A200001DB4FF0FF3A0021B7F1004F0DF1430811
:100A30008DF8431024D002202B23002F01DA7F42AF
:100A40002D230A21021EA0F1010000DC5FB197FBFB
:100A5000F1FC97FBF1F201FB1C7C17460CF1300C0A
:100A600008F801CDEEE7A8F101000370218809051F
:100A700001D5452100E06521A0F1010800F8011C25
:100A800009980FA9A1EB0807FF1D00B1012041192A
:100A900001EBEA70A1693844081A401EA061207871
:100AA000C00602D42046FFF7F5FB099828B1D4E927
:100AB00001219047206A401C20622078C00622D580
:100AC0002046FFF7E7FB1EE0002E04DBB34502DD06
:100AD00001A8805D00E03020D4E901219047206A20
:100AE000401C2062761CAAF101005FEA000A0AD1CC
:100AF00000F04AF8C0680168405CD4E901219047E1
:100B0000206A401C2062281EA5F10105DCDC07E0FC
:100B1000D4E9012118F8010B9047206A401C20629B
:100B2000381EA7F10107F3DC2046FFF7C9FB0320BD
:100B300011B041E601694A1C02610878704700B5AE
:100B40008FB0CDE901310021059105497944CDE906
:100B5000031011466846FFF72DFC0FB000BD0000E2
:100B6000E5FFFFFF074B70B50D467B44FFF7E7FF3E
:100B70000446284600F004F910B14FF0FF3070BD74
:100B8000204670BD3F4300000048704768000020C9
:100B900030B5B0F10A0271F100034FEA900E4EEA4F
:100BA000817EB0EB0E0061EB91014FEA101E4EEA20
:100BB000017E10EB0E0041EB11114FEA102E4EEAB0
:100BC000016E10EB0E0041EB11214FEA104E4EEA80
:100BD000014E10EB0E0041EB1141401841F10001B4
:100BE0004FEAD00040EA41704FEAD1014FEA810458
:100BF00044EA907410EB800544EB01046D1944EB5A
:100C00000404521BA3414FF0000348BF0A3200D531
:100C100030BD401C41F1000130BD00002DE9F04124
:100C20001F46044603260168072A01F4006004DB1E
:100C300008B116A505E016A503E008B115A500E06A
:100C400015A521F010002060A069C01EA0610FB1A1
:100C5000401EA0612046FFF71DFB4FB1D4E90121E2
:100C600038469047206A401C2062C01C206206E083
:100C7000206AFAE7D4E9012115F8010B9047761EA6
:100C8000F8D22046FFF71CFBBDE8F0814E414E0034
:100C90006E616E00494E4600696E66002DE9F047B0
:100CA000814616468AB0354878440DC88DE80D0057
:100CB00032487844801C03AC0DC884E80D0041F62E
:100CC0009B300844372190FBF1F290FBF1F5A5F140
:100CD000800501FB12041B3C02D56442012000E0A8
:100CE0000020DFF898A080460027FA44AAF1BE0A47
:100CF0000EE0E0070AD03246684607EB47010123C1
:100D00000AEB810106F0A1F98DE8070064107F1C51
:100D1000002CEED1194F7F44AE3F19E0E80715D003
:100D200007EB04100DF1180A90E80E008AE80E0097
:100D3000C068F04201D1981908903246012306A9F3
:100D400003A806F082F903AB83E807006D10641C6A
:100D5000002DE3D14FF0010332466946B8F1000F90
:100D600003A802D006F05CF901E006F06EF9C9E9CB
:100D70000001C9F808200AB0BDE8F087686E0000DD
:100D8000007B00F08000704700487047480000205A
:100D90007546FFF7F9FFAE4605006946534620F059
:100DA0000700854618B020B5FFF730FABDE82040AF
:100DB0004FF000064FF000074FF000084FF0000B17
:100DC000AC46ACE8C009ACE8C009ACE8C009ACE886
:100DD000C00921F007018D46704710B50446AFF3F6
:100DE00000802046BDE81040FFF7FCB94FF0013C01
:100DF00050F8042B51F8043B9A4221D1A2EB0C038A
:100E0000934313EACC1317D150F8042B51F8043B49
:100E10009A4215D1A2EB0C03934313EACC130BD1E6
:100E200050F8042B51F8043B9A4209D1A2EB0C0371
:100E3000934313EACC13DBD04FF00000704700BFA0
:100E4000D01A01BAB1FA81F101F0180122FA01F0C9
:100E5000CB40DBB2C0B2C01AC1F120012CFA01F3C1
:100E6000D11A914311EAC311E6D170478268002973
:100E700042F0010308BF22F00103836070470000C5
:100E800080B543F60041C4F20101884214D042F615
:100E90000001C4F20101884216D042F20041C4F2BE
:100EA0000101884218BF80BD4FF40070012100F09D
:100EB00097FC4FF400700EE04FF40040012100F069
:100EC0008FFC4FF4004006E04FF48060012100F0F9
:100ED00087FC4FF480600021BDE8804000F080BCBA
:100EE0008068C0F3800070478068C0F3C00070471E
:100EF00080B54FF6FF634268CFF6F07302EA030C49
:100F0000D1E9003243EA0C0343EA02224FF2FD73B7
:100F10004260CFF6F173826802EA030ED1E902C3A0
:100F20000A6942EA0E021A4342EA4C028260C26A2D
:100F3000097D013922F47002C9B242EA0151C1624D
:100F400080BD0000816841F00801816070470000A9
:100F5000816841F00401816070470000FEE70000F5
:100F60007047000080B5D1F808E00EF00F0C1EF0BD
:100F7000100F1CBF4B684CEA030C098811F0FF0FDF
:100F800000F0A4800368CA070BD023F00F02BEF163
:100F9000480F42EA0C0315D0BEF1280F01D10122FF
:100FA00042618A0712D523F0F002BEF1280F42EA0F
:100FB0000C131CD0BEF1480F08D1022202614A076F
:100FC00006D418E0012202618A07ECD44A0712D540
:100FD00023F47062BEF1280F42EA0C231CD0BEF14C
:100FE000480F08D1042202610A0719D505E0022240
:100FF00042614A07ECD40A0712D523F47042BEF1CD
:10100000280F42EA0C331CD0BEF1480F08D1082249
:101010000261CA0606D418E0042242610A07ECD431
:10102000CA0612D523F47022BEF1280F42EA0C43FF
:101030001CD0BEF1480F08D1102202618A0619D5D2
:1010400005E008224261CA06ECD48A0612D523F4D0
:101050007002BEF1280F42EA0C531CD0BEF1480FBB
:1010600008D1202202614A0606D418E0102242610B
:101070008A06ECD44A0612D523F07062BEF1280F1E
:1010800042EA0C631AD0BEF1480F08D14022026137
:101090000A061AD505E0202242614A06ECD40A0667
:1010A00013D523F07042BEF1280F42EA0C730AD028
:1010B000BEF1480F09D18022026106E04022426160
:1010C0000A06EED401E0802242610360B1F5807F20
:1010D00038BF80BD4368CA050CD523F00F02BEF1AE
:1010E000480F42EA0C0317D0BEF1280F02D14FF48B
:1010F000807242618A0514D523F0F002BEF1280FF8
:1011000042EA0C131FD0BEF1480F0AD14FF400720F
:1011100002614A0507D41BE04FF4807202618A0520
:10112000EAD44A0514D523F47062BEF1280F42EACE
:101130000C231FD0BEF1480F0AD14FF48062026128
:101140000A051CD506E04FF4007242614A05EAD454
:101150000A0514D523F47042BEF1280F42EA0C337D
:101160001FD0BEF1480F0AD14FF400620261CA04D9
:1011700007D41BE04FF4806242610A05EAD4CA0436
:1011800014D523F47022BEF1280F42EA0C431FD07D
:10119000BEF1480F0AD14FF4805202618A041CD577
:1011A00006E04FF400624261CA04EAD48A0414D50E
:1011B00023F47002BEF1280F42EA0C531FD0BEF197
:1011C000480F0AD14FF4005202614A0407D41BE0D1
:1011D0004FF4805242618A04EAD44A0414D523F0C1
:1011E0007062BEF1280F42EA0C631ED0BEF1480FB8
:1011F0000AD14FF48042026109041BD506E04FF486
:10120000005242614A04EAD4090413D523F0704124
:10121000BEF1280F41EA0C730ED0BEF1480F09D180
:101220004FF400410161436080BD4FF48042426150
:101230000904EBD4436080BD4FF400414161436039
:1012400080BD000010B50422002800F440141FFAED
:1012500080FCC4F201021346B8BF43F01803B4F592
:10126000401F1B68C0F3034E07D1146823F070635E
:1012700024F07064146081B916E0C40206D447F605
:10128000F07404EA50440CFA04F402E0032404FA73
:101290000EF4A34343F0706331B147F6F07101EAF5
:1012A00050410CFA01F10B430028B8BF183213600B
:1012B00010BD00004161704701617047FEE700000A
:1012C000022003F05FBA000010B584B008200121AD
:1012D000012400F079FA102001A903904FF4406036
:1012E000ADF804000320029040F60040C4F2010073
:1012F000FFF738FE48F2A810C4F2212004604460D1
:1013000004B010BD2DE9F04F83B040F604410290C7
:1013100048F2A8154FF0000BC4F20101C4F22125D8
:10132000086820F470400860086840F400400860D5
:1013300000202860022003F025FA01262E6055F8CF
:101340007C0C0190012003F01DFA0220C5F800B0CA
:1013500003F018FA2E60012055F87C7C03F012FA95
:101360000220C5F800B003F00DFA2E60012055F8F8
:101370007C4C03F007FA0220C5F800B003F002FA33
:101380002E60012055F87C8C03F0FCF90220C5F892
:1013900000B003F0F7F92E60012055F87C9C03F0B3
:1013A000F1F90220C5F800B003F0ECF92E6001203D
:1013B00055F87CAC03F0E6F90220C5F800B003F064
:1013C000E1F92E60012055F87CBC03F0DBF9002028
:1013D0002860022003F0D6F92E60012055F87C6CBD
:1013E00003F0D0F940F6044200212960C4F2010262
:1013F000106820F470401060106840F44050106095
:101400000198002818BF0120002F18BF0127002CC9
:1014100018BF012447EA4000B8F1000F18BF4FF091
:10142000010844EA4000B9F1000F18BF4FF001096C
:1014300048EA4000BAF1000F18BF4FF0010A49EA2C
:101440004000BBF1000F18BF4FF0010B4AEA40000B
:10145000002E4BEA400018BF012646EA40040298DD
:1014600048B10220696003F08DF901202860022054
:1014700003F088F908E0012602206E6003F082F98B
:1014800002202E6003F07EF900202860E0B203B055
:10149000BDE8F08FF0B581B0044640F6044048F254
:1014A000A8150026C4F20100C4F22125016821F428
:1014B00070410160016841F440510160E0092E6013
:1014C0006860022003F05EF9012702202F6003F01C
:1014D00059F902202E6003F055F9C4F380106860BA
:1014E000022003F04FF902202F6003F04BF9022095
:1014F0002E6003F047F9C4F340106860022003F047
:1015000041F902202F6003F03DF902202E6003F024
:1015100039F9C4F300106860022003F033F90220A7
:101520002F6003F02FF902202E6003F02BF9C4F393
:10153000C0006860022003F025F902202F6003F04C
:1015400021F902202E6003F01DF9C4F380006860C9
:10155000022003F017F902202F6003F013F9022094
:101560002E6003F00FF9C4F340006860022003F01E
:1015700009F902202F6003F005F902202E6003F024
:1015800001F904F001006860022003F0FBF802207A
:101590002F6003F0F7F82E60022001B0BDE8F040A4
:1015A00003F0F0B8B0B540F6044048F2A814C4F215
:1015B0000100C4F22124016821F470410160016836
:1015C00041F440510160012060602060042003F07C
:1015D000D9F800250420656003F0D4F82560B0BD7B
:1015E00010B540F6044048F2A814C4F20100C4F259
:1015F0002124016821F470410160016841F44051E7
:101600000160002020606060042003F0BBF801202E
:10161000206060600420BDE8104003F0B3B8000013
:1016200070B540F6044448F22C150126C4F20104BA
:10163000C4F22125206820F470402060206840F426
:10164000004020600120C5F8806003F09BF8012075
:10165000EE6703F097F8286888B10020296871B117
:10166000296861B140F00201C9B2F9290BD82A6892
:101670002AB1F92907D8296804300029EED10024BD
:101680002046EC6770BD206820F470402060206820
:1016900040F4405020600020E867C5F88000042036
:1016A00003F070F801240420EC67C5F8804003F0D3
:1016B00069F8204670BD000041F21801C4F2020131
:1016C0000A6842F001020A600421C4F201010A68BA
:1016D00022F0E0620A600A6842EA406008607047EF
:1016E00080B5FFF7F1FD6B20802101F093F96420B4
:1016F00003F01CF86B20002101F08CF91B2018214D
:1017000001F088F91C20102101F084F91920012131
:1017100001F080F91A20012101F07CF93820002124
:1017200001F078F96A20002101F074F923200021EA
:1017300001F070F93720802101F06CF9FFF732FFDA
:10174000D220FFF7A7FEFFF76BFF7520FFF7A2FE81
:10175000FFF766FFFFF726FFD320FFF79BFEFFF79B
:101760005FFF0020FFF7CEFDFFF73AFF6B2003215C
:1017700001F050F96C20002101F04CF9002080BDEF
:10178000FEE700007047000040F080604EF60C510C
:1017900040F0FD70CEF200010860704741F2040194
:1017A000C4F202010A6822F4404210430860704704
:1017B00041F21C020029C4F2020211680CBF21EAA6
:1017C000000008431060704741F218020029C4F27B
:1017D000020211680CBF21EA000008431060704744
:1017E00041F20C020029C4F2020211680CBF21EA86
:1017F000000008431060704780B541F2040EC4F247
:10180000020EDEF8002002F00C0341F20022C0F2CA
:101810007A02082B1FD1DEF80030C3F3834303F1B3
:10182000020CDEF8003013F4803F06D140F60012BF
:10183000C0F23D020CFB02F20DE0DEF8003013F4C2
:10184000003F02D10CFB02F205E040F60012C0F2AC
:101850003D020CFB02F2026047F63031DEF8003048
:10186000C0F60001C3F30313CB5CDA404260DEF83C
:101870000030C3F30223CB5C22FA03F38360DEF86B
:101880000030C3F3C223C95C47F62C33C0F6000313
:1018900022FA01F1C160DEF80020C2F381329A5CC5
:1018A000B1FBF2F1016180BD2DE9F04F81B040F64E
:1018B000044A074648F2A81901261C4615468846E0
:1018C000C4F2010AC4F22129DAF8000020F47040C1
:1018D000CAF80000DAF8000040F44050CAF80000EE
:1018E0000420C9F80460C9F8006002F04BFF4FF013
:1018F000000B0420C9F804B002F044FF7F00C9F8CF
:1019000000B0F8B2FFF7C6FDFFF78AFED0B1DAF8F3
:10191000000020F47040CAF80000DAF8000040F43B
:101920004050CAF800000420C9F800B0C9F804B05B
:1019300002F028FF0420C9F80060C9F8046002F032
:1019400021FF51E04046FFF7A5FDFFF769FEDAF8F9
:10195000000020F47040CAF80000DAF8000040F4FB
:101960004050CAF800000420C9F80460C9F80060BB
:1019700002F008FF0420C9F804B002F003FF47F0AA
:101980000100C9F800B0C0B2FFF784FDFFF748FEC0
:1019900005E000BFFFF7B6FC04F8010B013DE8B21B
:1019A000012803D020B10120F4E700BF0020F1E7B7
:1019B000DAF80000002620F47040CAF80000DAF8D7
:1019C000000040F44050CAF800000420C9F800604C
:1019D000C9F8046002F0D6FE0120C9F80000C9F879
:1019E0000400042002F0CEFE304601B0BDE8F08FC6
:1019F00041F2240CC4F2020C5CF8080C40F0805058
:101A00004CF8080C5CF8080C40F000604CF8080C2E
:101A1000DCF8000040F00100CCF80000DCF8000029
:101A200010F0020F0ED1DCF8000010F0020F09D107
:101A3000DCF8000010F0020F04D1DCF8000010F018
:101A4000020FEBD02DE9F04F42F6040943F2803843
:101A5000C4F20009C0F2E118B9F81400B9F818107E
:101A600041EA004044F20751CCF22E21A0FB0121B3
:101A700040F21E12C2F200021388B3EB114F40F085
:101A80001E814FF4884039F8000047F20001C4F28B
:101A90000001086840F4807008605CF8040C40F4B1
:101AA00080304CF8040C5CF8040C20F480304CF8C6
:101AB000040CDCF8000040F00100CCF8000000BF8E
:101AC000DCF8000010F0020F0ED1DCF8000010F07E
:101AD000020F09D1DCF8000010F0020F04D1DCF88D
:101AE000000010F0020FEBD0DCF8000040F0807036
:101AF000CCF800005CF8040C40F400704CF8040CC6
:101B00005CF8040C40F400404CF8040CB9F80000F8
:101B100010F0200F0ED1B9F8000010F0200F09D1FD
:101B2000B9F8000010F0200F04D1B9F8000010F04F
:101B3000200FEBD0B9F8000010F0080F0ED1B9F863
:101B4000000010F0080F09D1B9F8000010F0080FDC
:101B500004D1B9F8000010F0080FEBD0B9F800007C
:101B600010F0200F0ED1B9F8000010F0200F09D1AD
:101B7000B9F8000010F0200F04D1B9F8000010F0FF
:101B8000200FEBD0B9F8000048F21F5A48F200537A
:101B9000002140F2B4764FF0640B4FF4C872002776
:101BA000C5F2EB1AC0F2E21340F01000A9F80000F1
:101BB00047F6FF70A9F80410A9F8080040F2B470C5
:101BC000A0FB0A544744043065094744E40905FB77
:101BD0001B6507EB030E04FB12648D42754608BFBC
:101BE00007EB08058C42A1F1040108BF754605EB1F
:101BF000080711F13405E3D15CF8080C40F080507F
:101C00004CF8080C5CF8080C40F000604CF8080C2C
:101C100047F20000C4F200000146006840F4807002
:101C20000860B9F8000040F01000A9F8000046F282
:101C30007A10C0F2DC103844A9F81800000CA9F89A
:101C40001400B9F8000020F01000A9F8000000BF4F
:101C5000B9F8000010F0200F0ED1B9F8000010F014
:101C6000200F09D1B9F8000010F0200F04D1B9F805
:101C7000000010F0200FEBD0B9F8000020F01000A9
:101C8000A9F80000B9F8000010F0200F0ED1B9F843
:101C9000000010F0200F09D1B9F8000010F0200F5B
:101CA00004D1B9F8000010F0200FEBD04FF48840B9
:101CB00045F2500129F800100020BDE8F08F0B0C10
:101CC000A8F10101884213805CD948F21F5E4FF6EB
:101CD000926640F2B27164244FF4C875C5F2EB1EEF
:101CE000CFF6FF7611F0030F0AD188B2A0FB0E7277
:101CF000D70907FB15075FB1520902FB140038B979
:101D00006FF4B67003440131B3F5B67FEAD803E04F
:101D1000B3F5B77F3046F5D21C2B37D348F21F52AC
:101D200088B264264CF2AA7401F003050021C5F2C2
:101D3000EB12C0F60004A0FB02277A09FF0902FBA0
:101D400016024FF4C87607FB1600002AB0FA80F09E
:101D500018BF0122400942EA000600BF88B24DB90F
:101D6000421EB2FA82F25209324003D01D2B0FD329
:101D70001D3B03E0205C83420BD31B1A01311B2B5C
:101D8000ECD806E040F2B2711C2BC7D2002100E073
:101D900001214FF48840DAB239F80000FF2A3FF4FD
:101DA00074AEC9B2FF293FF470AE45F250018842CB
:101DB0007FF46BAE0020BDE8F08F000082B041F2EE
:101DC00004000022C4F20200CFF6FF0250F8041C07
:101DD00041F0010140F8041C016811404FF6FF7208
:101DE0000160CFF6F66250F8041C114040F8041C64
:101DF00050F8041C21F4802140F8041C016821F4EF
:101E0000FE0101604FF41F0141600021019100912A
:101E100050F8041C41F4803140F8041C50F8041CB4
:101E200001F400310091019901310191009919B932
:101E30000199B1F5A06FF1D150F8041C11F4003FE5
:101E40000CBF0021012100910099012958D1D0F83F
:101E5000FC1F41F01001C0F8FC1FD0F8FC1F21F05E
:101E60000301C0F8FC1FD0F8FC1F41F00201C0F8CC
:101E7000FC1F0168016001680160016841F4806134
:101E80000160016821F47C110160016841F4E811EE
:101E9000016050F8041C41F0807140F8041C00BF40
:101EA00050F8041C11F0007F0ED150F8041C11F002
:101EB000007F09D150F8041C11F0007F04D150F8C4
:101EC000041C11F0007FEBD0016821F003010160D8
:101ED000016841F002010160016801F00C0108296C
:101EE0000ED0016801F00C01082909D0016801F049
:101EF0000C01082904D0016801F00C010829EBD17C
:101F00004EF608504FF00061CEF20000016002B0C2
:101F1000704700001020C4F20000018811F0010F8A
:101F200006D040F20811C2F200010A8801320A808C
:101F300000210180BFF34F8F7047000040F2104036
:101F4000C4F200000188018821F00101018070477E
:101F500040F61000C4F200000188018821F0010160
:101F600001807047F0B581B043F20044C4F201042F
:101F70002046012100F040F9012840F0F68020467B
:101F8000012100F003F901F001FD002800F0ED80CF
:101F900040F22010C2F200000178B1FA81F1490943
:101FA0000170042000F0BCFE40F2D4044042C2F2B2
:101FB00000042060032000F0B3FE40F2D80140424C
:101FC000C2F200010860322001F022F940F214014F
:101FD00040F210020228C2F20001C2F2000209D04F
:101FE00001280FD1106800F10A07086817600A304D
:101FF000086008E01068A0F10A07086817600A384E
:10200000086000E0176842F210704DF6F003874256
:10201000CFF6FF7302DC9F42184601DA07461060D4
:102020000A6842F21070824205DC9A4204DA4EF2EB
:10203000A840CFF6FF7008602068381A05F038FB1A
:1020400040F20C17C2F200073968044608462146E0
:1020500005F064F948F20001C4F23B51054605F071
:10206000CDF948F2000100281CBF48F20005C4F277
:102070003B55CCF23B51284605F0D5F9002840F2FB
:102080000C00C2F200001CBF48F20005CCF23B5528
:10209000066840F20800C2F20000006829463D6070
:1020A00005F09AFB05463046214605F095FB29468A
:1020B00005F034F940F2040140F21017C2F20001B9
:1020C000C2F200070D6839680646204605F050FC4C
:1020D0000146284605F080FB314605F01FF93C60BB
:1020E00005F0AAFA40F2E801C2F20001086041F6E8
:1020F000F4218842B8BF01464EF20C50CFF6FF7073
:102100008142D8BF014640F2E000C2F20000016007
:1021100040F2E400C2F20000002748F29013006889
:102120000029C8BF01270026C4F222230129B8BF15
:102130000126DE619F6142F63C47002948BF4942C3
:10214000C4F2010740F2B0160022398001284FF096
:102150000001C4F22226B8BF01210028C8BF012215
:102160003260196048BF4042B88001B0F0BD000045
:102170000288002942F0800308BF22F08003038018
:1021800070470000C943018270470000C9430182C3
:10219000704700000288002942F0010308BF22F0C6
:1021A0000103038070470000B0F844200029134663
:1021B0006FF3DF3318BF42F40043A0F84430704798
:1021C00080B5B0F808C02CF0070C41EA0C01B0F85B
:1021D00018C0B0F820E001814FF6FC410CEA010C78
:1021E00040F2011141EA0C01018342EA03112EF091
:1021F00022021143018480BD008A084018BF0120DB
:102200007047000070B50B88042B2AD0002B56D1E4
:10221000B1F802C00A898B88068C40F6FF354FF66C
:10222000FC74C4F2000526F0010643EA02130246DC
:10223000A842068432F8186FB0F820E026F0F306C2
:1022400043EA06036DDCB0F1804F7DD040F20045DB
:10225000C4F20005A84277D040F60005C4F200059C
:102260006FE00E894B888A88058C40F6FF44360360
:1022700025F0100546EA02260584024632F8185F6A
:10228000B0F820E0254046EA050C40F6FF356FF037
:102290000306C4F20005A6F1AD04A84262DCB0F169
:1022A000804F71D040F20045C4F20005A8426BD0C7
:1022B00040F60005C4F20005A84265D068E00A892E
:1022C0008C884E88058C082B71D125F4807303848B
:1022D00044EA0213024632F81C5FB0F820E025F011
:1022E000F30543EA050C6FF4405303F5145440F62C
:1022F000FF33C4F20003984200F38180B0F1804FB5
:1023000000F08F8040F20043C4F20003984200F0D6
:10231000888040F60003C4F20003984200F08180F8
:1023200084E040F60045C4F20005A8420CD042F615
:102330000045C4F20105A84206D043F20045C4F2AC
:102340000105A84218BF083C03830EEA040343EAD0
:102350000C0343F001030384C988038B23F00C03AF
:10236000038394E040F60045C4F20005A8420BD078
:1023700043F20045C4F20105A84205D042F60045EB
:10238000C4F20105A84203D14FF6FC741B012D3C99
:102390000EEA0406A0F818C0334343F01003038488
:1023A000C988038B23F44063090203836FE025F49B
:1023B00080531203038442EA0423024640F6FF449A
:1023C00032F81C5FB0F820C0254046F6FF5443EABF
:1023D000050E40F6FF33C4F20003984234DCB0F13E
:1023E000804F43D040F20043C4F2000398423DD0F6
:1023F00040F60003C4F20003984237D039E040F6BB
:102400000043C4F2000398420BD043F20043C4F2ED
:102410000103984205D042F60043C4F201039842FA
:1024200004D14CF6FF73360203F534540EEA04036C
:10243000A0F81CC0334343F480730384C988838BA2
:1024400023F00C03838322E040F60043C4F2000330
:1024500098420BD043F20043C4F20103984205D0E6
:1024600042F60043C4F20103984202D136034CF60F
:10247000FF740CEA0403A0F81CE0334343F48053D8
:102480000384C988838B23F4406309028383108803
:102490000843108070BD00000021012201604260ED
:1024A00001817047002A82890CBF22EA0101114391
:1024B0008181704710B5028C22F001020284048CE5
:1024C000B0F804E0038B0A8823F0730343EA020C9C
:1024D0000B8924F002021A434B881A43A0F180436F
:1024E000A3F596334FEAB323072B14D8012404FA3B
:1024F00003F313F0E50F0ED08C892EF4407322F015
:102500000C022343CC8943EA040E4B8923F00403D5
:102510001A438B881A43A0F804E0A0F818C0C988B1
:102520008186028410BD0000028B22F00802114354
:102530000183704710B5028C22F010020284048CD3
:10254000B0F804E0038B0A8823F4E64343EA022C44
:102550000B8924F0200242EA03124B8842EA03125C
:1025600043F20043C4F20103984205D042F600430F
:10257000C4F20103984212D18B892EF4406422F0F8
:10258000C00244EA8303CC8943EA840E4B896FF08E
:102590004F0404EA03131A438B8842EA0312A0F89B
:1025A00004E0A0F818C0C9880187028410BD0000AB
:1025B000028B22F4006242EA01210183704700008D
:1025C00010B5028C22F480720284048CB0F804E00E
:1025D000838B0A8823F0730343EA020C0B8924F4EB
:1025E000007242EA03224B8842EA032243F200438C
:1025F000C4F20103984205D042F60043C4F201033D
:10260000984212D18B892EF4405422F4406244EA5D
:102610000313CC8943EA041E4B8940F2FF441B029A
:10262000A3431A438B8842EA0322A0F804E0A0F8EF
:102630001CC0C9888187028410BD0000828B22F0F3
:10264000080211438183704710B5028C22F4805236
:102650000284048CB0F804E0828B0B8822F4E642FA
:1026600042EA032C0B8924F4005242EA03324B88DD
:1026700042EA033343F20042C4F20102904205D021
:1026800042F60042C4F20102904204D18A892EF43B
:10269000804444EA821EA0F804E0A0F81CC0C98867
:1026A000A0F84010038410BD828B22F4006242EA3D
:1026B00001218183704700008184704740F6FF3319
:1026C000B0F800C0C4F2000398420FDCB0F1804FB4
:1026D0001ED040F20043C4F20003984218D040F6E6
:1026E0000003C4F20003984212D016E040F6004303
:1026F000C4F2000398420BD043F20043C4F201033A
:10270000984205D042F60043C4F20103984204D136
:102710004B882CF0700243EA020C41F2004240F474
:102720008063C4F20002934204D0CB882CF4407240
:1027300043EA020CA0F800C08A8882850A880285D4
:10274000A0F18042A2F596324FEAB222072A07D8BA
:10275000012303FA02F212F0E50F1CBF097A018689
:1027600001218182704700004FF6FF714160002116
:10277000016001727047000010B543F6000440F29A
:102780002551C4F20104204600F0AEF8002800F004
:102790009F80204600F038F940F200115928C2F21B
:1027A0000001087003D058281ED1012000E002204B
:1027B00040F2DF010022C2F200010A7040F2000183
:1027C000C2F20001087040F2DE00C2F200000270A6
:1027D00040F2DD000021C2F20000017040F2DC0096
:1027E000C2F20000017010BD0A2898BF10BDA0F110
:1027F0004101192952D8DFE801F0240D0D0D3A519D
:1028000051515151515151515151515151515151B8
:102810005151513140F2DE000021C2F2000001703E
:1028200040F2DF00C2F20000017040F2DC00C2F2B0
:102830000000017040F2DD000121C2F200000170D1
:1028400010BD40F2DE0000210122C2F20000017042
:1028500040F2DF00C2F20000027014E040F2DE003D
:102860000021C2F20000017040F2DF0008E040F2F7
:10287000DE000121C2F20000017040F2DF00002101
:10288000C2F20000017040F2DC00C2F200000170F0
:1028900040F2DD00C2F20000017010BD40F2DE0225
:1028A00000214638C2F200020228117040F2DF0215
:1028B000C2F2000211703FF68BAF40F2DD00C2F2AF
:1028C0000000017040F2DC000121C2F20000017042
:1028D00010BD00008289002942F4005308BF22F491
:1028E000005383817047000001F01F02012303FAA7
:1028F00002F2C1F34213022B06D0012B14BF00F1E8
:10290000140300F10C0301E000F110031B88090A15
:102910001A404FF0010318BF0122008803FA01F1A9
:10292000084018BF012010407047000001F01F0C44
:10293000012303FA0CFCC1F342131421022B08BF3C
:102940001021012B08BF0C21002A42580CBF22EA9B
:102950000C0242EA0C0242507047000070B586B08B
:102960000446008A0D46C98801AE20F44050084351
:102970004EF6F3112082A0890840A98808432989CE
:10298000084369890843A081A08AA98920F440707E
:102990000843A0823046FEF72FFF43F6000106F100
:1029A00008000222C4F201018C424FF0190108BF55
:1029B00006F10C00042600684843A189A2EBD1313E
:1029C0002A6802FA01F1B0FBF1F048F21F51C5F29A
:1029D000EB11A0FB01235A096FF0630302FB030014
:1029E000A389A6EBD336B0403230A0FB010107200B
:1029F00040EA133080F0080000EA511040EA02106B
:102A0000208106B070BD000080886FF35F207047A2
:102A1000FEE70000B0B50C460546FEF7C3FDFEF725
:102A20004FFCD220FEF736FDFEF7FAFD18B1FEF797
:102A3000D7FD0120B0BD2846FEF72CFDFEF7F0FDC6
:102A40002046FEF727FDFEF7EBFD0446002818BFE1
:102A50000124FEF7C5FD2046B0BD00002DE9F04F72
:102A600081B040F6044A074648F2A81901241D46E1
:102A700016468846C4F2010AC4F22129DAF8000099
:102A800020F47040CAF80000DAF8000040F440502A
:102A9000CAF800000420C9F80440C9F8004001F059
:102AA00071FE4FF0000B0420C9F804B001F06AFE7B
:102AB0007800C9F800B0C0B2FEF7ECFCFEF7B0FD3C
:102AC000D0B1DAF8000020F47040CAF80000DAF85B
:102AD000000040F44050CAF800000420C9F800B0DB
:102AE000C9F804B001F04EFE0420C9F80040C9F84E
:102AF000044001F047FE49E04046FEF7CBFCFEF7FC
:102B00008FFD56B1002400BF285DFEF7C3FCFEF721
:102B100087FDF8B90134B442F6D3DAF80000002496
:102B200020F47040CAF80000DAF8000040F4405089
:102B3000CAF800000420C9F80040C9F8044001F0B8
:102B400021FE0120C9F80000C9F80400042001F0AA
:102B500019FE1BE0DAF8000020F47040CAF800000B
:102B6000DAF8000040F44050CAF800000020C9F82C
:102B70000000C9F80400042001F004FE0124042030
:102B8000C9F80040C9F8044001F0FCFD204601B03E
:102B9000BDE8F08F80B5FFF711F901F0B3FD01201A
:102BA000FEF78AFD4FF44070FEF7EEFDBDE8804071
:102BB00002F03EBB10B50446000A00F007F8E0B290
:102BC000BDE8104000F002B8AFF30080B0B541F6A8
:102BD000000405460221C4F201042046FEF76AFB08
:102BE00020460821FEF766FB68B2B0F1FF3F04DD26
:102BF00020462021FEF75EFB03E020462021FEF761
:102C00005BFB20460821FEF757FB20460821FEF714
:102C100051FB680604D420462021FEF74BFB03E05D
:102C200020462021FEF748FB20460821FEF744FB02
:102C300020460821FEF73EFBA80604D420462021AA
:102C4000FEF738FB03E020462021FEF735FB204647
:102C50000821FEF731FB20460821FEF72BFBE80692
:102C600004D420462021FEF725FB03E02046202146
:102C7000FEF722FB20460821FEF71EFB2046082116
:102C8000FEF718FB280704D420462021FEF712FB8C
:102C900003E020462021FEF70FFB20460821FEF727
:102CA0000BFB20460821FEF705FB680704D42046ED
:102CB0002021FEF7FFFA03E020462021FEF7FCFA70
:102CC00020460821FEF7F8FA20460821FEF7F2FA1E
:102CD000A80704D420462021FEF7ECFA03E02046A2
:102CE0002021FEF7E9FA20460821FEF7E5FA204602
:102CF0000821FEF7DFFAE80704D120462021FEF77D
:102D0000D9FA03E020462021FEF7D6FA2046082112
:102D1000FEF7D2FA20460221BDE8B040FEF7CCBA59
:102D200024210228C4F200010BD0042807D0032874
:102D300012BF002001F58061B1F90000704701F574
:102D40000061B1F90000704770B58AB04FF40470AB
:102D500001210125FEF738FD4FF40040FEF71EFD6E
:102D600042F200440026042001A9C4F201040396A3
:102D7000ADF80400A4F5A050FEF7F4F82046FEF7E5
:102D80007FF84FF46020CDE90466069604A9CDE9EA
:102D9000070620468DF82450FEF7AAF820460121A8
:102DA000FEF764F82046FEF7CDF800BF2046FEF798
:102DB0009BF80028FAD12046FEF7CAF82046FEF715
:102DC0008FF80028FAD10AB070BD000010B584B0A9
:102DD00041F218000124C4F20200016841F011011F
:102DE0000160012001F0CEFC10200121FEF7ECFC77
:102DF0004820ADF8044001A903900320029041F25D
:102E00000000C4F20100FEF7ADF804B010BD0000F0
:102E100010B500F0B3F941F600041021C4F201042A
:102E20002046FEF747FA642001F080FC204610217E
:102E3000FEF742FA642001F079FC20464021FEF7BB
:102E40003BFA642001F072FC20460421FEF732FABE
:102E50001120FFF7BBFE20460421FEF72DFA782053
:102E600001F064FC20460421FEF724FA3620FFF727
:102E7000ADFE20460421FEF71FFA0020FFF7A6FE54
:102E800020460421FEF716FA3A20FFF79FFE20465F
:102E90000421FEF711FA0520FFF798FE20460421D1
:102EA000FEF708FAB220FFF791FE20460421FEF754
:102EB00003FA0C20FFF78AFE0C20FFF787FE0020A4
:102EC000FFF784FE3320FFF781FE3320FFF77EFEFD
:102ED00020460421FEF7EEF9B720FFF777FE2046E3
:102EE0000421FEF7E9F93520FFF770FE20460421A2
:102EF000FEF7E0F9BB20FFF769FE20460421FEF74C
:102F0000DBF93220FFF762FE20460421FEF7D2F9FA
:102F1000C220FFF75BFE20460421FEF7CDF9012019
:102F2000FFF754FE20460421FEF7C4F9C320FFF743
:102F30004DFE20460421FEF7BFF91520FFF746FE9F
:102F400020460421FEF7B6F9C420FFF73FFE2046D5
:102F50000421FEF7B1F92020FFF738FE20460421B6
:102F6000FEF7A8F9C620FFF731FE20460421FEF740
:102F7000A3F90F20FFF72AFE20460421FEF79AF955
:102F8000D020FFF723FE20460421FEF795F9A42068
:102F9000FFF71CFEA120FFF719FE20460421FEF7D3
:102FA00089F9E020FFF712FE20460421FEF784F99C
:102FB000D020FFF70BFE0820FFF708FE0E20FFF7DA
:102FC00005FE0920FFF702FE0920FFF7FFFD05209F
:102FD000FFF7FCFD3120FFF7F9FD3320FFF7F6FD89
:102FE0004820FFF7F3FD1720FFF7F0FD1420FFF74F
:102FF000EDFD1520FFF7EAFD3120FFF7E7FD342056
:10300000FFF7E4FD20460421FEF754F9E120FFF725
:10301000DDFD20460421FEF74FF9D020FFF7D6FD55
:103020000820FFF7D3FD0E20FFF7D0FD0920FFF7A2
:10303000CDFD0920FFF7CAFD1520FFF7C7FD3120A0
:10304000FFF7C4FD3320FFF7C1FD4820FFF7BEFDA9
:103050001720FFF7BBFD1420FFF7B8FD1520FFF781
:10306000B5FD3120FFF7B2FD3420FFF7AFFD20465C
:103070000421FEF71FF92120FFF7A8FD20460421B7
:10308000FEF71AF920460421FEF714F92920FFF76C
:103090009DFD20460421BDE81040FEF70DB900005B
:1030A000F0B58BB00120012401F06CFB0820012158
:1030B000FEF77EFB45200121FEF786FB4020012123
:1030C000FEF782FB102008AE03270A90ADF82040DF
:1030D00040F6004431460997C4F2000404F58635F1
:1030E0002846FDF73FFF28460121FEF7E5F80420BA
:1030F0000121FEF769FB182031460A900F20ADF838
:10310000200004F57C400997FDF72CFF4FF47A70FE
:1031100005A90690472005902046FFF7CFFA00202A
:1031200001ADADF80C0060202946C0F2010001900D
:103130002046FFF7BFF920460821FFF7F5F92046A2
:103140002946FFF7F7F920460821FFF731FA204614
:103150002946FFF735FA20460821FFF76FFA204687
:103160002946FFF771FA20460821FFF79DFA20460D
:103170000121FFF70FF80BB0F0BD000070B584B06F
:1031800040200121FEF720FB41F60004102602201A
:1031900001AD0396ADF804000320C4F201042946F2
:1031A00002902046FDF7DEFE20460221FEF784F85D
:1031B00028202946ADF804002046FDF7D3FE20461E
:1031C0002821FEF779F844202946ADF8040020466E
:1031D000FDF7C8FE204648F22001FEF76DF82046B4
:1031E0002946ADF80460FDF7BDFE20461021FEF72C
:1031F00063F804B070BD000040F20411C2F2000197
:10320000086040F218000021C2F20000016070471F
:10321000B0B540F2001540F218120021C4F2222588
:10322000C2F200022B681488002B08BF611C1180B9
:103230002A6842B940F21A13C2F200031A78002A2F
:1032400004BF01221A7040F21C1EC2F2000E9EF84A
:10325000002002BB40F21A1240F2141CC2F200021B
:10326000C2F2000C1278BCF80030012A05D10133FB
:1032700001228EF80020ACF800309AB2022A0AD15E
:1032800040F216100021C2F20000ACF800100180DC
:103290000221C8B2B0BD2A68012A07D140F21A1330
:1032A0000022C2F200038EF800201A7040F2141EB1
:1032B000C2F2000EBEF80020012A1EBF0021C8B2D3
:1032C000B0BD40F2161C8BB2C2F2000C8342BCF8B7
:1032D000002002F10102ACF800200AD291B2814232
:1032E00007D900200121ACF80000AEF80000C8B2F8
:1032F000B0BD00218342C8B284BFACF80010AEF864
:103300000010B0BDB0B584B070200121FEF75CFAAA
:10331000102041F6000401AD03904FF44160C4F267
:1033200001042946ADF8040003200290A4F5806052
:10333000FDF718FE4FF480502946ADF80400A4F5BF
:103340000060FDF70FFE4FF480602946ADF80400E1
:103350002046FDF707FE20464FF48061FDF7ACFFE5
:1033600004B0B0BDF0B587B004464FF40030012181
:10337000FEF71EFA202001212025FEF725FA08205D
:103380000121FDF75FFF032004AF0590ADF8105059
:1033900044F2004518203946C4F20005069005F5B0
:1033A00050463046FDF7DEFD0420394606904020A9
:1033B000ADF810003046FDF7D5FD002000946946B9
:1033C0000190ADF80C004FF4402002902846FFF722
:1033D000C5FA28460121FFF77DFA07B0F0BD0000CD
:1033E000F0B587B004464FF480200121FEF7E0F9E4
:1033F00020200121FEF7E8F930200121C0F214005D
:10340000FDF720FF44F60005032004AF05904FF4BC
:103410008070C4F200053946ADF81000182005F59B
:103420004C4606903046FDF79DFD04203946069037
:103430004FF40070ADF810003046FDF793FD00200A
:10344000009469460190ADF80C004FF440200290C2
:103450002846FFF783FA28460121FFF73BFA07B019
:10346000F0BD0000F0B587B004464FF40020012104
:10347000FEF79EF910200121FEF7A6F944F600455B
:10348000032004AF05904FF48060C4F20005394674
:10349000ADF81000182005F5444606903046FDF7BB
:1034A00061FD0420394606904FF40060ADF810002D
:1034B0003046FDF757FD0020009469460190ADF8B5
:1034C0000C004FF4402002902846FFF747FA2846A8
:1034D0000121FFF7FFF907B0F0BD00002DE9F04131
:1034E00041F600040E460546042198461746C4F2EC
:1034F00001042046FDF7DEFE2A20FFF767FB204689
:103500000421FDF7D9FE280AFFF760FBE8B2FFF7B8
:103510005DFB380AFFF75AFBF8B2FFF757FB20466E
:103520000421FDF7C7FE2B20FFF750FB20460421A6
:10353000FDF7C2FE300AFFF749FBF0B2FFF746FB8A
:103540004FEA1820FFF742FB5FFA88F0FFF73EFBD7
:1035500020460421FDF7AEFE2C20FFF737FB204666
:103560000421BDE8F041FDF7A7BE0000F0B58BB027
:1035700041F21800C4F20200016841F400610160E8
:10358000012001F0FFF842F63C4601200027C4F27A
:1035900001063780B78001F0F5F8C0200121C0F2A4
:1035A0001600FDF74FFE4FF400600121FEF70CF905
:1035B00041200121FEF708F9032042F6004408A942
:1035C00009901820C4F201040A904FF4C040ADF8ED
:1035D0002000A4F5A050FDF7C5FC41F61F4005A949
:1035E000CDE905702046FFF769F8602001ADC0F213
:1035F0000100294601902046CDF80A70FEF7E0FF51
:1036000020460821FFF71AF820462946FFF71CF844
:1036100020460821FFF748F820460121FEF7C4FDA7
:1036200020460121FEF7A4FD20460121FEF7B2FD50
:103630003780B7800BB0F0BD80B5FEF751F800BF02
:1036400001F01CFF0028FBD180BD0000B0B58AB09E
:1036500002200121FEF7ACF810200121FEF7B4F89A
:1036600040F600400121C0F21A00FDF7EBFD40F2E8
:103670000044042001A90390C020C4F20004ADF866
:10368000040004F58630FDF76DFC07AD2846FFF712
:103690006BF84FF6FF7029460890002007902046EF
:1036A000FFF70CF82046032100220023FEF788FDD7
:1036B00004AD2846FEF7F0FE0A202946ADF81800B2
:1036C0002046FEF79FFD20460121FEF75BFD2046C8
:1036D00001210122FEF7E6FE20460021FEF7ECFF65
:1036E00020460121FEF756FD0AB0B0BDB0B58AB044
:1036F000042001210424FEF75BF820200121FEF7BD
:1037000063F84FF480500121FDF79CFD039440F6CF
:1037100000044FF4405001A9C4F20004ADF80400C5
:1037200004F58630FDF71EFC07AD2846FFF71CF8B0
:103730004FF6FF7029460890002007902046FEF7BC
:10374000BDFF2046032100220023FEF739FD04AD12
:103750002846FEF7A1FE0A202946ADF818002046AB
:10376000FEF750FD20460121FEF70CFD2046012109
:103770000122FEF797FE20460021FEF79DFF20461E
:103780000121FEF707FD0AB0B0BD000010B541F2FF
:103790001800C4F202000168012441F400510160E4
:1037A000012000F0EFFF43F20040C4F20100472186
:1037B000018541F287318185848104804EF20410B5
:1037C000CEF20000302180F828134FF480510160C0
:1037D00010BD0000411EC8B2092802D90020C0B2A5
:1037E000704740F2A80024220929C2F200000270AA
:1037F000F4D8DFE801F0050A0F14191E23282E342F
:10380000052141710620C0B27047092141720A208A
:10381000C0B270470D2141730E20C0B27047112114
:1038200041741220C0B27047152141751620C0B2F4
:103830007047192141761A20C0B270471D21417787
:103840001E20C0B27047212180F821102220C0B272
:103850007047252180F825102620C0B27047292105
:1038600080F829102A20C0B2704700000139CAB27E
:10387000092A98BF092900D97047DFE801F005112E
:103880001D2935414D59667640F2A801020AC2F25F
:10389000000148708A70020C000ECA7008717047EF
:1038A00040F2A801020AC2F2000148718A71020CBA
:1038B000000ECA710872704740F2A801020AC2F2F3
:1038C000000148728A72020C000ECA7208737047B7
:1038D00040F2A801020AC2F2000148738A73020C86
:1038E000000ECA730874704740F2A801020AC2F2BF
:1038F000000148748A74020C000ECA74087570477F
:1039000040F2A801020AC2F2000148758A75020C51
:10391000000ECA750876704740F2A801020AC2F28A
:10392000000148768A76020C000ECA760877704746
:1039300040F2A801020AC2F2000148778A77020C1D
:10394000000ECA7781F82000704740F2A801020AF1
:10395000C2F2000181F8210081F82220020C000E41
:1039600081F8232081F82400704740F2A801020A60
:10397000C2F2000181F8250081F82620020C000E19
:1039800081F8272081F828007047000040F20110DC
:10399000C2F200000078704740F20210C2F200004C
:1039A0000088002818BF704740F201100121C2F2C0
:1039B00000000170704700002DE9F04FA7B046F2FB
:1039C00043100021EF22EF230024C0F27200259063
:1039D00046F65700C2F6755024905820239047F2BF
:1039E0006520C5F23A70229047F24150C6F6740045
:1039F00021900020FFF772FD002500BF4FF6FF70F9
:103A0000FFF7D8F80135A8B2F028F7D30134A0B2F7
:103A1000F028F1D342F23A0144F2564246F65013EE
:103A2000302048F240184AF6AB274FF0820A57245C
:103A30000DF19009C2F63061C4F24412C3F674234A
:103A40002090C0F60008CAF6AA271F91CDE91D02F2
:103A500042F220021B9346F65273C2F63062C3F65E
:103A60006C231C92CDE91920189346F25913CDE925
:103A70001620C3F67723159346F64563CDE9132048
:103A8000C3F64C23129346F64563CDE91020C3F6E6
:103A900052230F9344F65643CDE90D20C2F23A0368
:103AA0000C9345F25623CDE90A20C2F23A0309935A
:103AB00047F24D43CDE90720C3F64C230693CDE9E9
:103AC000042047F24D42C3F652220392CDE9011081
:103AD00047F64710C6F67270009000BF0AF10B015E
:103AE0001FFA8AF0172300268AB20021FFF7F6FC9E
:103AF000A4F120000024C0B200EB400008EB001B42
:103B00001BF8065015F0010F0CBF4FF6FF704FF475
:103B10007840FFF74FF8601CC0B2A0FB0712D10835
:103B200001EB4101A0EB8100002800F08580A8078F
:103B300054BF4FF6FF704FF47840FFF73BF8A01CDE
:103B4000C0B2A0FB0712D10801EB4101A0EB81003C
:103B5000002871D0680754BF4FF6FF704FF47840CB
:103B6000FFF728F8E01CC0B2A0FB0712D10801EB58
:103B70004101A0EB810000285ED0280754BF4FF61A
:103B8000FF704FF47840FFF715F8201DC0B2A0FB7E
:103B90000712D10801EB4101A0EB810000284BD0B6
:103BA000E80654BF4FF6FF704FF47840FFF702F875
:103BB000601DC0B2A0FB0712D10801EB4101A0EBD0
:103BC0008100C8B3A80654BF4FF6FF704FF4784089
:103BD000FEF7F0FFA01DC0B2A0FB0712D10801EB59
:103BE0004101A0EB810038B3680654BF4FF6FF7067
:103BF0004FF47840FEF7DEFFE01DC0B2A0FB0712D5
:103C0000D10801EB4101A0EB8100A8B1280654BF07
:103C10004FF6FF704FF47840FEF7CCFF04F1080038
:103C2000C1B2A1FB0723DA0802EB4202A1EB820436
:103C3000002C18BF044600E000240136302E7FF42B
:103C40005FAF19F8014F0AF10C0A002C7FF446AF60
:103C500047F64038872541240DF18409C0F6000855
:103C6000E91DA8B227238AB21821FFF737FCA4F177
:103C700020000024C0B208EB001700BF3E5D16F024
:103C8000010F0CBF4FF6FF701F20FEF793FFB00728
:103C900054BF4FF6FF701F20FEF78CFF700754BF14
:103CA0004FF6FF701F20FEF785FF300754BF4FF619
:103CB000FF701F20FEF77EFFF00654BF4FF6FF7027
:103CC0001F20FEF777FFB00654BF4FF6FF701F208E
:103CD000FEF770FF700654BF4FF6FF701F20FEF70F
:103CE00069FF300654BF4FF6FF701F20FEF762FFDA
:103CF0000134102CC2D119F8014F0835002CAFD176
:103D0000002000215A2238230024FFF7E7FB49F660
:103D10001875C0F6000500BF002600BF15F8160094
:103D2000FEF752FF05EB46004078FEF74DFF0136E7
:103D3000392EF3D101347235A0B25B28ECD35E2565
:103D400056240DF1780900BFE91DA8B24B238AB2B1
:103D50003C21FFF7C3FBA4F120000024C0B208EB14
:103D6000001700BF3E5D16F0010F0CBF4FF6FF704D
:103D70004FF47840FEF71EFFB00754BF4FF6FF70B8
:103D80004FF47840FEF716FF700754BF4FF6FF70F0
:103D90004FF47840FEF70EFF300754BF4FF6FF7028
:103DA0004FF47840FEF706FFF00654BF4FF6FF7061
:103DB0004FF47840FEF7FEFEB00654BF4FF6FF709A
:103DC0004FF47840FEF7F6FE700654BF4FF6FF70D2
:103DD0004FF47840FEF7EEFE300654BF4FF6FF700A
:103DE0004FF47840FEF7E6FE0134102CBAD119F8F2
:103DF000014F0835002CA7D15E2550240DF16C0928
:103E0000E91DA8B25B238AB24C21FFF767FBA4F13E
:103E100020000024C0B208EB001700BF3E5D16F082
:103E2000010F0CBF4FF6FF704FF47840FEF7C2FE53
:103E3000B00754BF4FF6FF704FF47840FEF7BAFE5C
:103E4000700754BF4FF6FF704FF47840FEF7B2FE94
:103E5000300754BF4FF6FF704FF47840FEF7AAFECC
:103E6000F00654BF4FF6FF704FF47840FEF7A2FE05
:103E7000B00654BF4FF6FF704FF47840FEF79AFE3D
:103E8000700654BF4FF6FF704FF47840FEF792FE75
:103E9000300654BF4FF6FF704FF47840FEF78AFEAD
:103EA0000134102CBAD119F8014F0835002CA7D1D4
:103EB0005E2552240DF16009E91DA8B26B238AB278
:103EC0005C21FFF70BFBA4F120000024C0B208EB3B
:103ED000001700BF3E5D16F0010F0CBF4FF6FF70DC
:103EE0004FF47840FEF766FEB00754BF4FF6FF7000
:103EF0004FF47840FEF75EFE700754BF4FF6FF7038
:103F00004FF47840FEF756FE300754BF4FF6FF706F
:103F10004FF47840FEF74EFEF00654BF4FF6FF70A8
:103F20004FF47840FEF746FEB00654BF4FF6FF70E0
:103F30004FF47840FEF73EFE700654BF4FF6FF7018
:103F40004FF47840FEF736FE300654BF4FF6FF7050
:103F50004FF47840FEF72EFE0134102CBAD119F838
:103F6000014F0835002CA7D15E2559240DF15409C5
:103F7000E91DA8B27B238AB26C21FFF7AFFAA4F146
:103F800020000024C0B208EB001700BF3E5D16F011
:103F9000010F0CBF4FF6FF704FF47840FEF70AFE9A
:103FA000B00754BF4FF6FF704FF47840FEF702FEA3
:103FB000700754BF4FF6FF704FF47840FEF7FAFDDC
:103FC000300754BF4FF6FF704FF47840FEF7F2FD14
:103FD000F00654BF4FF6FF704FF47840FEF7EAFD4D
:103FE000B00654BF4FF6FF704FF47840FEF7E2FD85
:103FF000700654BF4FF6FF704FF47840FEF7DAFDBD
:10400000300654BF4FF6FF704FF47840FEF7D2FDF4
:104010000134102CBAD119F8014F0835002CA7D162
:104020005E2545240DF14809E91DA8B28B238AB20B
:104030007C21FFF753FAA4F120000024C0B208EB62
:10404000001700BF3E5D16F0010F0CBF4FF6FF706A
:104050004FF47840FEF7AEFDB00754BF4FF6FF7047
:104060004FF47840FEF7A6FD700754BF4FF6FF707F
:104070004FF47840FEF79EFD300754BF4FF6FF70B7
:104080004FF47840FEF796FDF00654BF4FF6FF70F0
:104090004FF47840FEF78EFDB00654BF4FF6FF7028
:1040A0004FF47840FEF786FD700654BF4FF6FF7060
:1040B0004FF47840FEF77EFD300654BF4FF6FF7098
:1040C0004FF47840FEF776FD0134102CBAD119F880
:1040D000014F0835002CA7D15E2545240DF13C0980
:1040E000E91DA8B29B238AB28C21FFF7F7F9A4F14E
:1040F00020000024C0B208EB001700BF3E5D16F0A0
:10410000010F0CBF4FF6FF704FF47840FEF752FDE1
:10411000B00754BF4FF6FF704FF47840FEF74AFDEA
:10412000700754BF4FF6FF704FF47840FEF742FD22
:10413000300754BF4FF6FF704FF47840FEF73AFD5A
:10414000F00654BF4FF6FF704FF47840FEF732FD93
:10415000B00654BF4FF6FF704FF47840FEF72AFDCB
:10416000700654BF4FF6FF704FF47840FEF722FD03
:10417000300654BF4FF6FF704FF47840FEF71AFD3B
:104180000134102CBAD119F8014F0835002CA7D1F1
:104190005E2556240DF13009E91DA8B2AB238AB281
:1041A0009C21FFF79BF9A4F120000024C0B208EB8A
:1041B000001700BF3E5D16F0010F0CBF4FF6FF70F9
:1041C0004FF47840FEF7F6FCB00754BF4FF6FF708F
:1041D0004FF47840FEF7EEFC700754BF4FF6FF70C7
:1041E0004FF47840FEF7E6FC300754BF4FF6FF70FF
:1041F0004FF47840FEF7DEFCF00654BF4FF6FF7038
:104200004FF47840FEF7D6FCB00654BF4FF6FF706F
:104210004FF47840FEF7CEFC700654BF4FF6FF70A7
:104220004FF47840FEF7C6FC300654BF4FF6FF70DF
:104230004FF47840FEF7BEFC0134102CBAD119F8C7
:10424000014F0835002CA7D15E2556240DF1240915
:10425000E91DA8B2BB238AB2AC21FFF73FF9A4F154
:1042600020000024C0B208EB001700BF3E5D16F02E
:10427000010F0CBF4FF6FF704FF47840FEF79AFC29
:10428000B00754BF4FF6FF704FF47840FEF792FC32
:10429000700754BF4FF6FF704FF47840FEF78AFC6A
:1042A000300754BF4FF6FF704FF47840FEF782FCA2
:1042B000F00654BF4FF6FF704FF47840FEF77AFCDB
:1042C000B00654BF4FF6FF704FF47840FEF772FC13
:1042D000700654BF4FF6FF704FF47840FEF76AFC4B
:1042E000300654BF4FF6FF704FF47840FEF762FC83
:1042F0000134102CBAD119F8014F0835002CA7D180
:104300005E254D240DF11809E91DA8B2CB238AB210
:10431000BC21FFF7E3F8A4F120000024C0B208EBB1
:10432000001700BF3E5D16F0010F0CBF4FF6FF7087
:104330004FF47840FEF73EFCB00754BF4FF6FF70D5
:104340004FF47840FEF736FC700754BF4FF6FF700D
:104350004FF47840FEF72EFC300754BF4FF6FF7045
:104360004FF47840FEF726FCF00654BF4FF6FF707E
:104370004FF47840FEF71EFCB00654BF4FF6FF70B6
:104380004FF47840FEF716FC700654BF4FF6FF70EE
:104390004FF47840FEF70EFC300654BF4FF6FF7026
:1043A0004FF47840FEF706FC0134102CBAD119F80E
:1043B000014F0835002CA7D15E254D240DF10C09C5
:1043C000E91DA8B2DB238AB2CC21FFF787F8A4F15C
:1043D00020000024C0B208EB001700BF3E5D16F0BD
:1043E000010F0CBF4FF6FF704FF47840FEF7E2FB71
:1043F000B00754BF4FF6FF704FF47840FEF7DAFB7A
:10440000700754BF4FF6FF704FF47840FEF7D2FBB1
:10441000300754BF4FF6FF704FF47840FEF7CAFBE9
:10442000F00654BF4FF6FF704FF47840FEF7C2FB22
:10443000B00654BF4FF6FF704FF47840FEF7BAFB5A
:10444000700654BF4FF6FF704FF47840FEF7B2FB92
:10445000300654BF4FF6FF704FF47840FEF7AAFBCA
:104460000134102CBAD119F8014F0835002CA7D10E
:104470005E254724E94607E019F8014F0835002C6E
:1044800004BF27B0BDE8F08FE91DA8B2EB238AB2C4
:10449000DC21FFF723F8A4F120000024C0B208EBD0
:1044A000001700BF3E5D16F0010F0CBF4FF6FF7006
:1044B0004FF47840FEF77EFBB00754BF4FF6FF7015
:1044C0004FF47840FEF776FB700754BF4FF6FF704D
:1044D0004FF47840FEF76EFB300754BF4FF6FF7085
:1044E0004FF47840FEF766FBF00654BF4FF6FF70BE
:1044F0004FF47840FEF75EFBB00654BF4FF6FF70F6
:104500004FF47840FEF756FB700654BF4FF6FF702D
:104510004FF47840FEF74EFB300654BF4FF6FF7065
:104520004FF47840FEF746FB0134102CBAD1A3E7D4
:1045300010B540F2D400C2F20000006803F0B8F8F1
:104540000121FFF793F940F21000C2F20000006869
:1045500003F0AEF80221FFF789F940F2D800C2F269
:104560000000006803F0A4F80321FFF77FF940F290
:104570001400C2F20000006803F09AF80421FFF76B
:1045800075F90420FFF726F9002800F08B8043F628
:104590000001421E00F0030CC4F20101032A04D200
:1045A0000020BCF1000F63D17CE040F2A80EA0EB2C
:1045B0000C030020C2F2000E0A8812F0400F0BD14B
:1045C0000A8812F0400F07D10A8812F0400F03D179
:1045D0000A8812F0400FEFD01EF800208A8040F0C9
:1045E000010200BF0C8814F0400F0BD10C8814F0AE
:1045F000400F07D10C8814F0400F03D10C8814F041
:10460000400FEFD01EF802208A8040F0020200BF67
:104610000C8814F0400F0BD10C8814F0400F07D118
:104620000C8814F0400F03D10C8814F0400FEFD029
:104630001EF802208A8040F0030200BF0C8814F0AC
:10464000400F0BD10C8814F0400F07D10C8814F0E8
:10465000400F03D10C8814F0400FEFD01EF8022059
:10466000043B00F104008A80A6D1BCF1000F19D0F0
:104670000A8812F0400F0BD10A8812F0400F07D1C0
:104680000A8812F0400F03D10A8812F0400FEFD0D1
:1046900040F2A80EBCF1010FC2F2000E1EF800306D
:1046A0008B8000D110BD431C0A8812F0400F0BD143
:1046B0000A8812F0400F07D10A8812F0400F03D188
:1046C0000A8812F0400FEFD01EF80320BCF1020F51
:1046D0008A8008BF10BD02300A8812F0400F0BD14B
:1046E0000A8812F0400F07D10A8812F0400F03D158
:1046F0000A8812F0400FEFD01EF80000888010BD2D
:10470000704700004EF21000CEF20000016821F068
:104710000401016040F284100121C2F20000017026
:1047200040F28510C2F200000170704740F284111F
:10473000C2F200010978002918BF42F22831414332
:104740004EF21000CEF20000416000218160012194
:10475000016000BF016801F0011101290ED101685B
:1047600001F00111012909D1016801F001110129AC
:1047700004D1016801F001110129EBD00021016091
:104780008160704740F28511C2F20001097800296A
:1047900018BF092141434EF21000CEF200004160E3
:1047A0000021816001210160016801F001110129EE
:1047B0000ED1016801F00111012909D1016801F050
:1047C0000111012904D1016801F001110129EBD087
:1047D00000210160816070472DE9F04186B00446F8
:1047E0004CF602200DF102050421C0F6E3102A4622
:1047F000CDF80200682002F0EBF8A32014F0400688
:104800006FF05C026FF05C018DF8020018BF6FF072
:104810003F028DF803206FF05C0218BF6FF0370283
:104820008DF804206FF05C0218BF6FF03D0214F4A5
:10483000C0778DF805206FF05C0218BF6FF03B0267
:104840008DF806206FF05C0218BF6FF033028DF810
:10485000072018BF6FF039012A468DF808104AF278
:10486000A331ADF809108DF80B0040F6A7200A21FE
:1048700002F0AEF814F003086FF027004FF00101CA
:104880002A4618BF20208DF8020040F6B62002F01C
:104890009FF814F0200F0CD1C7208DF8140048F6B3
:1048A000B000CCF2C35004904AF6B820CAF6AA2051
:1048B0000AE05D20059049F6B400C3F20D50049063
:1048C0004AF6B820C8F6B350039003AA4FF4976095
:1048D000092102F07DF81FB314F480706FF07401A9
:1048E0000DF1020208BF6FF07F0100288DF8031060
:1048F0004FF0B00141EAD0118DF802104FF0B40131
:1049000041EAD01140F6A2208DF804106FF0640146
:1049100008BF6FF06F018DF80510042102F058F800
:10492000E00708D1D8200DF1020201218DF8020024
:104930004FF40B6051E0F8200DF1020201218DF8D7
:1049400002004FF40B6002F043F80720FA2100F058
:104950001DFA3F2003AA01218DF80C004FF4A4702A
:1049600002F036F8002003AA01218DF80C0040F275
:104970004F1002F02DF84FF4A05003AD0221ADF816
:104980000C004FF4EF702A4602F022F84FF4C840B2
:1049900002212A46ADF80C004FF4ED7002F018F831
:1049A00048F6006003AA0421C9F2F90003904FF40D
:1049B000AE7002F00DF84FF4006002212A46ADF807
:1049C0000C004FF4AD7002F003F84FF400700221B8
:1049D0002A46ADF80C004FF4AC7001F0F9FF600806
:1049E0006C210DF1020261F35F0001218DF80200DC
:1049F00040F23D7001F0ECFF600703AA4FF00401A4
:104A000052BF4FF08B304CF2C020CCF2C460039008
:104A100040F6982001F0DCFF01F0A4F8E00603AABC
:104A20004FF0040152BF4FF0A33042F62000C3F60E
:104A30003000039040F69E2001F0CAFF01F092F88A
:104A400040F27C1144F00800002EC2F20001088000
:104A500018BF0626002F18BF063614F0140F18BF13
:104A600046F01006B8F1000F18BF043601F07AF8CE
:104A700040F28210C2F200000670002006B0BDE8CD
:104A8000F081000049F2103140F6F6304FF48062B8
:104A9000C823C0F6000100F0C5BE0000B0B584B068
:104AA00004460DF1020000F07DFD40F278100C2567
:104AB000C2F20000028802F0030012F0040F05EABF
:104AC000520554F8200018BF4042BDF8021012F001
:104AD000200F4FEAC133C2F3811183FB00C054F8A9
:104AE000211064594FEA905E4FEA90358DF804E04A
:104AF0008DF805504FEA90158DF8065018BF6442A6
:104B000012F4807F83FB04E44FEA94558DF808503B
:104B10004FEA94358DF809504FEA94158DF80A50F4
:104B200018BF494283FB0112930D8DF80C30930B93
:104B30008DF80D3093098DF80E304FEA9C7343EADF
:104B400080008DF807004FEA9E7040EA84008DF8DF
:104B50000B00880F0C2140EA820001AA8DF80F009B
:104B60004FF4257001F034FF04B0B0BD10B582B031
:104B70000446C82819D8C8206A460221B0FBF4F0C0
:104B800001388DF80100000A8DF8000040F216206F
:104B900001F01EFF48B949F6067240F6C1200C210B
:104BA000C0F6000201F014FF18B14FF0FF3002B060
:104BB00010BD40F28010C2F200000480002002B05C
:104BC00010BD0000F0B581B040F278114EF2093707
:104BD0000C26C2F20001C0F2CA27098801F00302C4
:104BE00011F0040F06EA510650F8222018BF524275
:104BF0008659C1F3811511F4807F82FB072350F899
:104C000025504FEA93544FEA93308DF800408DF8C9
:104C100001004FEA93108DF802004FEA92706A4645
:104C200040EA83008DF8030018BF6D4211F0200F99
:104C30004FF474704FF0040118BF764201F0C8FEC3
:104C4000B0B986FB07016A46800F40EA8100010C7B
:104C50008DF803008DF80110010E000A8DF8001088
:104C60008DF802004FF47570042101F0B1FE18B107
:104C70004FF0FF3001B0F0BD85FB07016A46800FA1
:104C800040EA8100010C8DF803008DF80110010E3F
:104C9000000A8DF800108DF802004FF476700421A0
:104CA00001F096FE01B0F0BD10B582B049F6157165
:104CB0000446C0F3C100C0F600010A5C8DF805206F
:104CC00004F003028B5C8DF80430C4F38113C95CDB
:104CD0008DF8061049F61271C0F600018A5C085C76
:104CE0008DF800208DF80100C85C01AA03218DF821
:104CF000020040F2264001F06BFE50BB6A4640F2D3
:104D00002A40032101F064FE18BB44F22660C0F281
:104D10006600009045F23660C0F2760001906007B0
:104D20001BD4A00621D4E00505D567208DF802002C
:104D300077208DF8060001AA4FF48860032101F066
:104D400047FE30B96A4640F23140032101F040FE8F
:104D5000A0B14FF0FF3002B010BD27208DF8000049
:104D600037208DF80400A006DDD547208DF801001E
:104D700057208DF80500E005D7D4DCE740F2781025
:104D8000C2F200000480002002B010BD70B582B0F5
:104D900004460D464FF0FF30B1F5C86F52D814F0FD
:104DA00007014FD00DF1030000F0DEFB284602F0B2
:104DB00097FC0021C4F2483102F048FB05469DF8FB
:104DC000030002384FEA70024FF0FF30072A39D84B
:104DD00000264FF08D41C4F24066DFE802F0150472
:104DE000330A3333331000264FF08C41C4F2C056DF
:104DF0000AE000264FF08B41C4F2405604E0002642
:104E00004FF08A41C4F2C046284602F0E5FC02F0A9
:104E10002FFC8DF80500000A31468DF80400284665
:104E200002F0DAFC02F024FC8DF80700000A8DF88D
:104E3000060001A8851CE00706D1A00713D460076F
:104E400020D4002002B070BD01AA4FF4EA70022104
:104E500001F0BEFD28BB4FF4927002212A4601F0FA
:104E6000B7FDF0B9E9E701AA4FF4EC70022101F0B7
:104E7000AFFDB0B94FF4947002212A4601F0A8FDAD
:104E800078B9DCE701AA4FF4EE70022101F0A0FD31
:104E900038B94FF4967002212A4601F099FD002896
:104EA000CFD04FF0FF3002B070BD000043F60001DC
:104EB000C4F201010A8812F0400F0BD10A8812F0E7
:104EC000400F07D10A8812F0400F03D10A8812F070
:104ED000400FEFD0C2B28A80704700002DE9F04F3A
:104EE00083B040F21C070546012016460C466B466F
:104EF000ADF80000C2F20007D7E90002817C10780B
:104F00000222FDF7ABFD10B14FF0FF378CE1C82056
:104F1000FFF70CFC00206B468DF80000D7E900027B
:104F2000C17B10780122FDF799FD10B14FF0FF37DA
:104F30007AE1D7E900026B46417910780122FDF74A
:104F40008DFD10B14FF0FF376EE1D7E900026B46DF
:104F5000817C10780122FDF781FD10B14FF0FF3701
:104F600062E1D7E900026B46C17D10780122FDF7AE
:104F700075FD10B14FF0FF3756E1D7E900026B46DF
:104F8000017910780122FDF769FD10B14FF0FF376C
:104F90004AE10C206B468DF80000D7E90002017948
:104FA00010780122FDF75AFD10B14FF0FF373BE1B9
:104FB0000F20FFF7BBFBD7E90010BA6A6B46527AA5
:104FC0008DF80020012200788978FDF747FD10B1A7
:104FD0004FF0FF3728E1D7E90010BA6A6B46127A22
:104FE0008DF80020012200784978FDF737FD10B1D7
:104FF0004FF0FF3718E1D7E90010BA6A002E6B4670
:10500000927A18BF42F0E0028DF800200122007869
:105010008979FDF723FD10B14FF0FF3704E1002E31
:105020006B460FBF1820B86AC07A60F01F008DF879
:105030000000D7E90002C17910780122FDF70EFDCA
:1050400010B14FF0FF37EFE016B1C820FFF76EFB4D
:1050500040206B468DF80000D7E9000201791078F6
:105060000122FDF7FBFC10B14FF0FF37DCE07820A8
:105070006B468DF80000D7E90002417910780122D3
:10508000FDF7ECFC10B14FF0FF37CDE03220FFF719
:105090004DFB00206B468DF80000D7E900024179F6
:1050A00010780122FDF7DAFC10B14FF0FF37BBE0BA
:1050B000D7E900026B46817A10780222FCF7F4FBF4
:1050C00010B14FF0FF37AFE09DF800009DF80110E0
:1050D0000022C5E90022AA60C4E90022A26041EAD8
:1050E00000204AF6AB21CAF6AA21A0FB0101C1F3B8
:1050F000C709B9F1000F39D00026E846D7E9000208
:105100004346C17A10780C22FCF7CEFB002840F011
:105110008980BDF8000094E80E00013600BA01EB6A
:10512000204CBDF80410BDF8020000BA09BA02EB29
:10513000204003EB2141C4E900C0A16095E80700CD
:10514000BDF806301BBA00EB234ABDF80830BDF8A5
:105150000A001BBA00BA01EB234BF1B202EB20406C
:105160008945C5E900ABA860C8D802E0D5E900AB25
:10517000A868C117832200230027090441EA1041CF
:105180000004FBF756F84A460023FBF752F8A860E4
:105190004FEAEB7083220023000440EA1B414FEAF0
:1051A0000B40FBF746F84A460023FBF742F86860DD
:1051B0004FEAEA7083220023000440EA1A414FEAD2
:1051C0000A40FBF736F84A460023FBF732F828601E
:1051D0004A460023D4E90060A568C117490141EAA5
:1051E000D0614001FBF725F86060F0174A460023C4
:1051F000400140EAD6617001FBF71BF82060E81718
:105200004A460023400140EAD5616801FBF711F8E6
:105210004FF480310028C4BF0021CFF6FF7108444D
:10522000A06001E04FF0FF37384603B0BDE8F08FD3
:1052300080B582B0FCF7DCFB41F21C00C4F2020036
:10524000016841F0010101600020019003E000BF0E
:105250000199013101910199B1F57A7F14DA01992F
:10526000013101910199B1F57A7F0DDA019901318E
:1052700001910199B1F57A7F06DA01990131019125
:105280000199B1F57A7FE3DB0C210622C4F200011B
:105290008A834FF6F0720A8401220A8188800A808C
:1052A0004EF20011CEF2000181F81C034FF0805045
:1052B00008604FF080408121018002B080BD000075
:1052C00080B5FDF7EDFEFDF7A3FDFEF775FBFDF7DD
:1052D0007DFDFEF717F8FEF749F9FEF7ADF9FEF789
:1052E000B5F9FEF703FAFDF72FFD4FF4FA3000F0A1
:1052F0000FF84FF4E130FEF735F84FF4E130FEF7E8
:105300006FF84FF4E130BDE88040FEF7ABB8000025
:10531000F0B587B0054644F204000121FCF754FAC9
:1053200043F60004032004AF05904FF40070C4F26C
:1053300001043946ADF810001820A4F54056069037
:105340003046FBF70FFE0420394606904FF480608C
:10535000ADF810003046FBF705FE002000956946C9
:105360000190ADF80C004FF4402002902046FDF76C
:10537000F5FA204640F225510122FDF7D7FA2046E2
:105380000121FDF7A7FA07B0F0BD000080B5FDF7D9
:1053900001FCFFF795FF0020FDF72EFFFEF7F6F961
:1053A000FEF7FAFA40F2EC00C2F20000FCF724FA31
:1053B000FFF7BEF83220FFF7B9F9F9E770B582B010
:1053C00040F21C05C2F2000595F8241019B1002422
:1053D000204602B070BDA97A21B300F0FE002E7CF9
:1053E00001400C1A297418BF4FF0FF34E8B1687CF3
:1053F00080B901200DF107038DF80700D5E90002FF
:10540000C17B10780122FDF729FB002804BF9DF81D
:105410000700687400F0A6FB00281CBF2E744FF034
:10542000FF34D5E74FF0FF34D2E7287DA0B1687C88
:105430000028CDD101200DF105038DF80500D5E937
:105440000002C17B10780122FDF708FB0028BFD1C4
:105450009DF805006874BBE700200DF106038DF888
:105460000600D5E90002C17B10780122FDF7F6FAAB
:105470000028ADD19DF806006874A9E770B582B028
:10548000FBF722FF00F0BCF808B10A205FE07820AB
:1054900001F022FA10F0FF0F01D0012057E040F296
:1054A0001C04C2F2000494F8240038B1642001F016
:1054B000A3F910F0FF0F20D0032048E0A07A18B322
:1054C00000F07806257C2674607C80B901200DF1FF
:1054D00007038DF80700D4E90002C17B1078012290
:1054E000FDF7BCFA002804BF9DF80700607400F0C7
:1054F00039FB98B12574022029E0FFF7C3FA10F0B8
:10550000FF0F03D0042022E0022020E08820FFF7D4
:10551000CBFB10F0FF0F05D0052018E0782EC5D08A
:10552000022014E040F27310FFF756F910F0FF0F5D
:1055300001D006200BE06420FFF718FB10F0FF0FEE
:1055400001D0072003E001F077FA18B10820C0B2BB
:1055500002B070BD012001F0D7F8C0B2002818BF1A
:10556000092002B070BD000040F21C01C2F200012F
:105570004A7A032A84BF4FF0FF30704740F202435B
:10558000D200C1F20803D3400370C97C002904BFD4
:105590000020704740F60401C2F21001D1400170B2
:1055A0000020704780B540F21C0CC2F2000C9CF841
:1055B0000910032984BF4FF0FF3080BD4FF4005E17
:1055C0004FF48043DFE801F01002070C40F6CE7E76
:1055D00041F69C7308E04FF4006E4FF4805303E0F3
:1055E0004FF4806E4FF4006303809CF81310002981
:1055F00004BF002080BDA0F800E0002080BD0000B6
:1056000010B584B040F21C0480200DF107038DF822
:105610000700C2F20004D4E90002817C1078012264
:10562000FDF71CFA10B14FF0FF341EE06420FFF7C5
:105630007DF800200DF107038DF80700D4E9000282
:10564000817C10780122FDF709FA10B14FF0FF3488
:105650000BE0D4E900020DF10703817D10780622EA
:10566000FCF722F920B14FF0FF34204604B010BD02
:105670009DF80C209DF8080004239DF80A1003EA09
:10568000820200F0010061F34102104307D000F0F4
:10569000070101292BD002290ED1002028E0D4E9EE
:1056A00000020DF10703C17810780122FCF7FCF825
:1056B00048B14FF0FF34D8E7C1B248A0FAF7DEFD99
:1056C0004FF0FF34D1E79DF8070000F00F000428E9
:1056D0000AD00028E1D14CF2E070C0F60000FAF7E1
:1056E00005FF4FF0FF34C0E746A0FAF7FFFE0120A8
:1056F0004FF6FF710DF10D03E181E074FF2020747E
:10570000A0744FF0FF30A0600120207384F82200C5
:1057100000202084C4E90500E06184F82700C4F873
:10572000230018208DF80D00D4E90002817910784B
:105730000122FDF793F910B14FF0FF3495E79DF882
:105740000D00C0082072A07A70B100208DF80E0004
:10575000607A90B1D4E900020DF10E03C17910789E
:105760000122FDF77BF910B14FF0FF347DE79DF882
:105770000E00C0086072A07A78B103208DF80F0087
:10578000E07A03280FD0D4E900020DF10F038178ED
:1057900010780122FDF762F910B14FF0FF3464E791
:1057A0009DF80F00E072322001F026F810B14FF0A2
:1057B000FF345AE70020FFF701FE10B14FF0FF342D
:1057C00053E7002000F02CFF10B14FF0FF344CE7FE
:1057D0000020002401F080F847E700BF556E737584
:1057E00070706F7274656420736F66747761726530
:1057F0002070726F64756374207265762025642E44
:105800000A00000048616C662073656E73697469F4
:1058100076697479207061727420666F756E642E7B
:10582000000000002DE9F04F8BB0074688464FF08E
:10583000FF30002900F0958040F21C09C2F20009F7
:1058400099F82510002940F08C80002FCDE9013215
:105850006BD000204FF0000AA7EB000B08EB000113
:10586000BBF1100FA8BF4FF0100B002905916CD0B1
:1058700099F80A00002868D04FEA1A208DF82BA06A
:105880001FFA8BF58DF82A005FFA8AF02E18CAF3FA
:1058900007200490D9F8040041898E4255D8D9F8E0
:1058A0000010007802220DF12A03097EFDF7D6F8D8
:1058B0004C46002849D1039545465FFA8BF8D4E958
:1058C0000002059B417D10784246FDF7C7F8E0BB1A
:1058D000A07A2246C8B304988DF82BA08DF82A0030
:1058E000506841898E4230D81168007802220DF14B
:1058F0002A03097EFDF7B2F8494630BBD1E9000220
:105900000DF11A042346417D10784246FBF7CCFF87
:10591000D8B90598039A2146FAF7FEFD20BBDA4470
:10592000A8461FFA8AF0B84296D302980DF12A03CE
:105930008DF82B00000A8DF82A00D9E90002817E3B
:1059400010780222FDF78AF820B14FF0FF300BB03B
:10595000BDE8F08F0198A9F82600012089F82500FC
:1059600000200BB0BDE8F08F6FF001000BB0BDE878
:10597000F08F000070B582B00446282802D94FF09D
:10598000FF34EBE040F21C05002CC2F2000545D0CC
:1059900095F82300012820D0A87C95F82210322207
:1059A000002808BF302200298DF8032007D06FF0AF
:1059B0004D01002808BF6FF04F018DF80310D5E9A5
:1059C00000020DF103030126017D10780122FDF78D
:1059D00045F8002808BF85F823602020012C8DF8A9
:1059E00000004FD100208DF80100A87A002800F0B7
:1059F000998006208DF80400E87A062800F092804D
:105A0000D5E9000201AB817810780122FDF726F874
:105A1000002840F087809DF8040082E095F823007C
:105A200000B3A87C95F822100028024618BF022275
:105A300000298DF8022007D06FF07D01002808BFF3
:105A40006FF07F018DF80210D5E900020DF102031D
:105A5000017D10780122FDF701F8002804BF002025
:105A600085F823004FF4E0606B46ADF80000D5E9FF
:105A70000002817C10780222FCF7F0FFB8B34FF0EF
:105A8000FF346BE0052C18D801208DF80100A87AAE
:105A9000002847D006208DF80500E87A062841D076
:105AA000D5E900020DF10503817810780122FCF799
:105AB000D5FFB8BB9DF8050033E0142C1AD802209E
:105AC0008DF80100A87A68B305208DF80600E87A01
:105AD000052827D0D5E900020DF10603817810785A
