:020000040800F2
:1000000018090020F101000871210008F11800080A
:100010006D2100084110000895350008000000001F
:1000200000000000000000000000000003020008C3
:10003000DD100008000000000702000809020008A7
:100040000B0200080B0200080B0200080B0200085C
:100050000B0200080B0200080B0200080B0200084C
:100060000B0200080B0200080B0200080B0200083C
:100070000B0200080B0200080B0200080B0200082C
:100080000B0200080B0200080B0200080B0200081C
:100090000B0200080B0200080B0200080B0200080C
:1000A0000B0200080B0200080B0200080B020008FC
:1000B0001D29000845290008592900080B020008DD
:1000C0000B0200080B0200080B0200080B020008DC
:1000D0000B020008ED3300080B0200080B020008B9
:1000E0000B0200080B0200080B0200080B020008BC
:1000F0006D2900080B0200080B0200080B02000823
:100100000B0200080B0200080B0200080B0200089B
:100110000B0200080B0200080B0200080B0200088B
:100120000B0200080B0200080B0200080B0200087B
:1001300000F002F800F04DF80AA090E8000C8244AC
:100140008344AAF10107DA4501D100F042F8AFF289
:10015000090EBAE80F0013F0010F18BFFB1A43F0A5
:10016000010318475016010070160100103A24BF11
:1001700078C878C1FAD8520724BF30C830C144BF0C
:1001800004680C607047000000230024002500264E
:10019000103A28BF78C1FBD8520728BF30C148BFEA
:1001A0000B60704766290CF0AE80642900F0AE80C9
:1001B000782900F0E780002070471FB500F00AFDA5
:1001C0000400002000210AF027FEE0601FBD10B5EA
:1001D00010BD00F007FE1146FFF7EFFF08F020F812
:1001E00000F025FE03B4FFF7F2FF03BC07F0C4F8EC
:1001F0000948804709480047FEE7FEE7FEE7FEE7BB
:10020000FEE7FEE7FEE7FEE7FEE7FEE704480549F6
:10021000054A064B70470000C52700083101000859
:1002200018030020180900201805002018050020D8
:10023000704710B54C1084EA530404D54042C1F114
:10024000000138BF491E1B4204D55242C3F10003CE
:1002500038BF5B1E00F0A4F914F0804F04D0404278
:10026000C1F1000138BF491E14F0004F04D05242C2
:10027000C3F1000338BF5B1E10BD00000FB404497A
:1002800010B503AA029800F093FC10BC5DF814FBB3
:100290008C0200200FB41CB5074B06AA7B446946AC
:1002A0000090059800F06BFC0020694600F07AFC95
:1002B0001CBC5DF814FB00000509000070B5044685
:1002C00085690068C10601D5302600E02026C007F8
:1002D00007D070BDD4E9012130469047206A401C08
:1002E00020626D1EF6D570BD70B504468569007834
:1002F000C00707D170BDD4E9012120209047206AB2
:10030000401C20626D1EF6D570BD00002DE9F04145
:100310000646002410687529314616A510D0AFF3A3
:100320000080002802DA404213A507E031688A07FE
:1003300001D512A502E0490704D511A5012401E069
:10034000AFF3008000210A2206F1240709E0B0FB88
:10035000F2FCB0FBF2F302FB1C003030785418467C
:10036000491C0028F3D123462A463046BDE8F04117
:1003700000F098B9000000002D0000002B000000E4
:100380002000000070B504460D4621461068AFF30A
:1003900000802188090502D50F4A7A4402E00E4AFE
:1003A0007A440E32002104F1240305E000F00F0628
:1003B0000009965D5E54491C0028F7D1207800237F
:1003C000000704D5702D02D009B102231132204656
:1003D000BDE8704000F066B9A8C000002DE9F05FEC
:1003E000894604464FF0000ADFF824B1FB44C0F808
:1003F00020A02046E168884700287DD0252806D027
:10040000D4E901219047206A401C2062F1E70025D1
:100410005F462046E16888472028064607DB312EE4
:1004200005D2B81910F8200C08B10543F1E7A80768
:1004300001D525F00405C4F81CA00027C4F818A0B5
:100440002A2E09D030460AF05EF838B304EB87084C
:10045000303EC8F8186019E059F8041B204604EB38
:1004600087029161E1688847012F064618D1E0694B
:10047000002820DA25F020051DE0D8F8180000EB50
:10048000800006EB40003038C8F818002046E168CC
:10049000884706460AF037F80028EED1012F0AD027
:1004A0002E2E08D12046E16888477F1C0646022F81
:1004B00045F02005C4DBA069002803DA404245F07E
:1004C0000105A061E80701D025F01005A6B1A6F14D
:1004D0004100192802D8203645F400654A463146C5
:1004E000204625604D46FFF75DFE60B1012807D02C
:1004F000ED1D25F0070000E007E000F1080978E7AE
:1005000005F1040975E730467AE7206ABDE8F09FF7
:100510007EC0000010B5044603E007F011FC401C4B
:1005200009D014F8010B05490028F6D1BDE81040A8
:100530000A2007F005BC4FF0FF3010BD8C020020F0
:1005400040EA010310B59B070FD1042A0DD310C850
:1005500008C9121F9C42F8D020BA19BA884201D9A2
:10056000012010BD4FF0FF3010BD1AB1D30703D0EA
:10057000521C07E0002010BD10F8013B11F8014BA0
:100580001B1B07D110F8013B11F8014B1B1B01D1BC
:10059000921EF1D1184610BD7047704770477047E2
:1005A00053EA020C00F069802DE9F04B4FF0000691
:1005B000002B1FBFB3FA83F503FA05F424FA05F6FE
:1005C0005E4012BF1643B2FA82F502FA05F4C5F195
:1005D00020051EBF22FA05FC44EA0C04203556EA29
:1005E000044C4FEA144418BF641C4FF000084FF04D
:1005F0000009904271EB030C39D3002919BFB1FAFD
:1006000081F701FA07F6B0FA80F700FA07F6C7F1AA
:1006100020071EBF20FA07FC46EA0C062037B6FB6F
:10062000F4FCA7EB0507103F07F01F0BCBF12006EA
:100630002CFA06F60CFA0BFB44BFB3460026202F1B
:10064000A4BF5E464FF0000B5BEA060C08BF4FF0FC
:10065000010B19EB0B0948EB0608ABFB027C06FB10
:1006600002CC0BFB03CCC01B71EB0C01C1E70B46AA
:10067000024641464846BDE8F08B13B54FF00000F6
:100680004FF00001AFF30080BDE81C40704710B58B
:1006900000F0A4FA006810BD10B5044600F09EFA00
:1006A000046010BD2DE9F0470D4699469246044678
:1006B00000F124080168880604D5E06921F01001E2
:1006C000216000E00120A84201DD471B00E0002777
:1006D000A1697A1902EB0900081AA0612078C00606
:1006E00002D42046FFF7EAFD002608E0D4E9012104
:1006F0001AF806009047206A401C761C20624E457E
:10070000F4DB2078C0060AD52046FFF7D7FD06E0C7
:10071000D4E9012130209047206A401C2062381E15
:10072000A7F10107F4DC07E0D4E9012118F805007E
:100730009047206A401C2062281EA5F10105F3DCC9
:100740002046FFF7D1FD2078000602D50220BDE843
:10075000F0870120FBE72DE9FF4F0C461E464FF0C6
:10076000FF378BB0D2E90001DDF860800A908A463D
:10077000C1F30A5505B93D46002108464FF0000077
:10078000BAF1000F00F4400005DA00EB80004FF4EE
:10079000400101EA50004FEA9059B9F1010F00DD24
:1007A000B9460A9850EA4A000ED044F61050A5F215
:1007B000FF3545432F14B8F1000F1ED07542291E96
:1007C0001EDDC9F100021CE0B8F1010F4FF000007E
:1007D00001D0302103E0F24305E02154401CB04237
:1007E000FBDB30460022002121540B99C1F8088020
:1007F000C1E900200FB0BDE8F08FBD1B6D1CDEE726
:100800004A4600DA694206A800F072FA06AB93E89D
:10081000070003AB83E8070050460A9909F014FA71
:100820008DE80700A0F500501F3800900398002DB8
:100830000ADD42F21F014A460844002303A903903F
:10084000684609F07DFC09E0A0F500504A461F38D3
:10085000002303A90390684609F087FC8DE8070090
:100860000004000C03D04FF0FF30410800E01046B8
:10087000B8F1000F03D00022009215461EE0751E4D
:1008800005D400F0AFF9303262556D1EF9D5B3468C
:100890000122084302D000227F1C04E02078302887
:1008A00001D100227F1E002A099784D01DE0112D5E
:1008B00007DA00F097F9303262556D1C50EA0102F8
:1008C000F5D1084302D00098C8B10EE00021681E9F
:1008D00005E0235C625C63542254401E491C814243
:1008E000F7DBAB46A81B401E0990002004F80B0064
:1008F0000B98099AC0F80880C0E9002B7AE7112606
:100900004FF0000857E72DE9F04F88460446D21D06
:1009100022F0070191B0D1E90001CDE90A0109F007
:100920005BFD02460B98C00F01D02D2007E0206828
:10093000810701D52B2002E0202101EAC000032A13
:10094000099001D0072A05DB03464146204600F006
:100950008FF90BE12078800601D5E06900E00620E0
:10096000B8F1650F814606D0B8F1660F18D0B8F11E
:10097000670F70D131E00020B9F1110F009001DB59
:10098000112301E009F101030AAA01A90CA8FFF74C
:10099000E2FEDDE90C70002609F10105834647E01F
:1009A00001204B4600904FF000470AAA01A90CA86D
:1009B000FFF7D1FEDDE90DB00C995D46002610B9B8
:1009C00009F101000D18B9EB050003D4C0F1FF36A1
:1009D00009F10105A5EB09002BE0B9F1010F01DADE
:1009E0004FF001090020B9F1110F0090484601DDD8
:1009F000112300E003460AAA01A90CA8FFF7ABFEE9
:100A0000DDE90C704D4600268346207800070AD4A5
:100A1000AB4500DA5D4601A8012D04DD411911F84E
:100A2000011C302907D04F4502DA17F1040F04DA10
:100A3000012082460FE06D1EEEE7002F02DCED1B69
:100A40003E4403E0781CA84200DD7D1CB81B00F189
:100A5000010A4FF000472078000703D4AA4501DBC4
:100A60004FF0FF3A0021B7F1004F0DF143088DF828
:100A7000431024D002202B23002F01DA7F422D23A4
:100A80000A21021EA0F1010000DC5FB197FBF1FC1E
:100A900097FBF1F201FB1C7C17460CF1300C08F8B7
:100AA00001CDEEE7A8F1010003702188090501D509
:100AB000452100E06521A0F1010800F8011C09981A
:100AC0000FA9A1EB0807FF1D00B10120411901EB9F
:100AD000EA70A1693844081A401EA0612078C00657
:100AE00002D42046FFF7EAFB099828B1D4E9012196
:100AF0009047206A401C20622078C00622D52046FC
:100B0000FFF7DCFB1EE0002E04DBB34502DD01A88D
:100B1000805D00E03020D4E901219047206A401C2C
:100B20002062761CAAF101005FEA000A0AD100F0F7
:100B300051F8C0680168405CD4E901219047206AFF
:100B4000401C2062281EA5F10105DCDC07E0D4E989
:100B5000012118F8010B9047206A401C2062381EC2
:100B6000A7F10107F3DC2046FFF7BEFB032011B01D
:100B700041E6000001694A1C02610878704700B52F
:100B80008FB0CDE901310021059105497944CDE9C6
:100B9000031011466846FFF721FC0FB000BD0000AE
:100BA000E5FFFFFF0A6802F8010B0A6070470000CA
:100BB000074B70B50D467B44FFF7E1FF044628461E
:100BC00000F008F910B14FF0FF3070BD204670BD45
:100BD0008771000000487047880000200048704777
:100BE0006800002030B5B0F10A0271F100034FEA4D
:100BF000900E4EEA817EB0EB0E0061EB91014FEA60
:100C0000101E4EEA017E10EB0E0041EB11114FEA6F
:100C1000102E4EEA016E10EB0E0041EB11214FEA4F
:100C2000104E4EEA014E10EB0E0041EB1141401800
:100C300041F100014FEAD00040EA41704FEAD10192
:100C40004FEA810444EA907410EB800544EB010400
:100C50006D1944EB0404521BA3414FF0000348BF3D
:100C60000A3200D530BD401C41F1000130BD00000A
:100C70002DE9F0411F46044603260168072A01F4C6
:100C8000006004DB08B116A505E016A503E008B175
:100C900015A500E015A521F010002060A069C01E78
:100CA000A0610FB1401EA0612046FFF707FB4FB1C6
:100CB000D4E9012138469047206A401C2062C01CBC
:100CC000206206E0206AFAE7D4E9012115F8010B59
:100CD0009047761EF8D22046FFF706FBBDE8F0816C
:100CE0004E414E006E616E00494E4600696E6600D0
:100CF0002DE9F047814616468AB0354878440DC83C
:100D00008DE80D0032487844801C03AC0DC884E89F
:100D10000D0041F69B300844372190FBF1F290FB27
:100D2000F1F5A5F1800501FB12041B3C02D56442DC
:100D3000012000E00020DFF898A080460027FA4458
:100D4000AAF1BE0A0EE0E0070AD03246684607EB79
:100D5000470101230AEB810109F007FA8DE807003A
:100D600064107F1C002CEED1194F7F44AE3F19E078
:100D7000E80715D007EB04100DF1180A90E80E00F3
:100D80008AE80E00C068F04201D1981908903246F6
:100D9000012306A903A809F0E8F903AB83E80700DB
:100DA0006D10641C002DE3D14FF0010332466946FB
:100DB000B8F1000F03A802D009F0C2F901E009F070
:100DC000D4F9C9E90001C9F808200AB0BDE8F087E4
:100DD000ECB80000007B00F08000704700487047CE
:100DE000680000207546FFF7F9FFAE46050069462A
:100DF000534620F00700854618B020B5FFF706FAE5
:100E0000BDE820404FF000064FF000074FF000080B
:100E10004FF0000BAC46ACE8C009ACE8C009ACE848
:100E2000C009ACE8C00921F007018D46704710B534
:100E30000446AFF300802046BDE81040FFF7D2B96A
:100E40004FF0013C50F8042B51F8043B9A4221D159
:100E5000A2EB0C03934313EACC1317D150F8042BE5
:100E600051F8043B9A4215D1A2EB0C03934313EAC9
:100E7000CC130BD150F8042B51F8043B9A4209D102
:100E8000A2EB0C03934313EACC13DBD04FF000002A
:100E9000704700BFD01A01BAB1FA81F101F0180110
:100EA00022FA01F0CB40DBB2C0B2C01AC1F120017E
:100EB0002CFA01F3D11A914311EAC311E6D170471C
:100EC0008268002942F0010308BF22F00103836019
:100ED0007047000080B543F60041C4F2010188422A
:100EE00014D042F60001C4F20101884216D042F249
:100EF0000041C4F20101884218BF80BD4FF4007068
:100F0000012101F063F94FF400700EE04FF400404E
:100F1000012101F05BF94FF4004006E04FF48060DE
:100F2000012101F053F94FF480600021BDE88040B9
:100F300001F04CB98068C0F380007047C06C80B28B
:100F4000704700000068084018BF0120704700008B
:100F50008068C0F3C000704780B54FF6FF634268F9
:100F6000CFF6F07302EA030CD1E9003243EA0C0336
:100F700043EA02224FF2FD734260CFF6F1738268BA
:100F800002EA030ED1E902C30A6942EA0E021A43D9
:100F900042EA4C028260C26A097D013922F4700281
:100FA000C9B242EA0151C16280BD000010B501EB37
:100FB000410C092988BFACF11E0C092903FA0CFE6B
:100FC0004FF0070303FA0CFC4FF0100388BF0C230B
:100FD000062AC45824EA0C0444EA0E04C45003D878
:100FE00034306FF0040307E00C2A87BF2C306FF019
:100FF000400330306FF0220302EB82021A441F23B9
:10100000914003FA02F2036823EA020211430160ED
:1010100010BD0000816841F0080181607047000048
:101020008268002942F4A00308BF22F4A003836071
:1010300070470000816841F0040181607047000042
:10104000FEE70000B0B50C464DF20A71C3F6A341AD
:101050000BF00EF8054640F238002146C2F20000BF
:1010600000680BF005F840F264240146C2F2000467
:1010700020680AF06FFD4EF24811C3F67A710AF04B
:10108000F7FF014628460AF065FD2060B0BD00006C
:10109000B0B50C464DF20A71C3F6A3410AF0E8FF61
:1010A000054640F238002146C2F2000000680AF00E
:1010B000DFFF40F268240146C2F2000420680AF013
:1010C00049FD4EF24811C3F67A710AF0D1FF01468C
:1010D00028460AF03FFD2060B0BD000070470000C8
:1010E00080B5D1F808E00EF00F0C1EF0100F1CBFF9
:1010F0004B684CEA030C098811F0FF0F00F0A48044
:101100000368CA070BD023F00F02BEF1480F42EA72
:101110000C0315D0BEF1280F01D1012242618A07CC
:1011200012D523F0F002BEF1280F42EA0C131CD0B6
:10113000BEF1480F08D1022202614A0706D418E026
:10114000012202618A07ECD44A0712D523F47062A7
:10115000BEF1280F42EA0C231CD0BEF1480F08D183
:10116000042202610A0719D505E0022242614A07FA
:10117000ECD40A0712D523F47042BEF1280F42EADC
:101180000C331CD0BEF1480F08D108220261CA06F8
:1011900006D418E0042242610A07ECD4CA0612D52C
:1011A00023F47022BEF1280F42EA0C431CD0BEF19A
:1011B000480F08D1102202618A0619D505E00822DD
:1011C0004261CA06ECD48A0612D523F47002BEF13D
:1011D000280F42EA0C531CD0BEF1480F08D1202240
:1011E00002614A0606D418E0102242618A06ECD455
:1011F0004A0612D523F07062BEF1280F42EA0C6352
:101200001AD0BEF1480F08D1402202610A061AD551
:1012100005E0202242614A06ECD40A0613D523F0E9
:101220007042BEF1280F42EA0C730AD0BEF1480F9B
:1012300009D18022026106E0402242610A06EED412
:1012400001E0802242610360B1F5807F38BF80BD3C
:101250004368CA050CD523F00F02BEF1480F42EADD
:101260000C0317D0BEF1280F02D14FF480724261F7
:101270008A0514D523F0F002BEF1280F42EA0C13C0
:101280001FD0BEF1480F0AD14FF4007202614A0527
:1012900007D41BE04FF4807202618A05EAD44A0544
:1012A00014D523F47062BEF1280F42EA0C231FD03C
:1012B000BEF1480F0AD14FF4806202610A051CD5C5
:1012C00006E04FF4007242614A05EAD40A0514D5DB
:1012D00023F47042BEF1280F42EA0C331FD0BEF156
:1012E000480F0AD14FF400620261CA0407D41BE020
:1012F0004FF4806242610A05EAD4CA0414D523F48B
:101300007022BEF1280F42EA0C431FD0BEF1480FF5
:101310000AD14FF4805202618A041CD506E04FF4D2
:1013200000624261CA04EAD48A0414D523F470022C
:10133000BEF1280F42EA0C531FD0BEF1480F0AD16C
:101340004FF4005202614A0407D41BE04FF480526C
:1013500042618A04EAD44A0414D523F07062BEF1D3
:10136000280F42EA0C631ED0BEF1480F0AD14FF499
:101370008042026109041BD506E04FF4005242612D
:101380004A04EAD4090413D523F07041BEF1280FB2
:1013900041EA0C730ED0BEF1480F09D14FF4004161
:1013A0000161436080BD4FF4804242610904EBD487
:1013B000436080BD4FF400414161436080BD000047
:1013C00010B50422002800F440141FFA80FCC4F277
:1013D00001021346B8BF43F01803B4F5401F1B6861
:1013E000C0F3034E07D1146823F0706324F07064D7
:1013F000146081B916E0C40206D447F6F07404EA1A
:1014000050440CFA04F402E0032404FA0EF4A3435B
:1014100043F0706331B147F6F07101EA50410CFAC4
:1014200001F10B430028B8BF1832136010BD000053
:1014300041617047016170472DE9F04F87B0054663
:1014400000F0E4FD40F20811012DC2F20001086035
:1014500012D140F2001440F2041040F2F012C2F235
:101460000004C2F20000C2F20002214606F04CFF66
:1014700060B107B0BDE8F08F0DF10E0369203B218C
:101480000E2200F007FF00286DD091E00DF10E0351
:1014900069203B21062200F0FDFED0B9BDF80E0008
:1014A00040F2E021C2F2000100BA000C0880BDF851
:1014B000100040F2E221C2F2000100BA000C0880E4
:1014C000BDF8120040F2E421C2F2000100BA000CA3
:1014D00008800DF10E0369204321062200F0DAFE98
:1014E000D0B9BDF80E0040F20E31C2F2000100BAD0
:1014F000000C0880BDF8100040F21031C2F200016B
:1015000000BA000C0880BDF8120040F21231C2F29D
:10151000000100BA000C088040F2CC012068C2F241
:101520000001086040F20831C2F20001B1F9000088
:10153000B1F904400AF008FD40F2F001C2F20001E6
:10154000086020460AF000FD40F2F401C2F20001FA
:10155000086040F2E620C2F20000B0F904000AF090
:10156000F3FC804692E0BDF80E00C0BA0AF0ECFC35
:101570000290BDF81000C0BA0AF0E6FC8246BDF841
:101580001200C0BA0AF0E0FC8046BDF81600C0BAEE
:101590000AF0DAFC0646BDF81A00C0BA0AF0D4FC1C
:1015A0000190BDF81800C0BA0AF0CEFC0AF0A6FA05
:1015B00040F2F00246F26664C2F20002C4F2300465
:1015C00016604FF06632234609F02AFD09F03AFC16
:1015D000834630460AF092FA4FF06632234609F00D
:1015E0001FFD09F02FFC81465046414609F0A8FA3C
:1015F0000024C4F2343421460AF03AFD40F6DB768A
:10160000C4F2490631460AF06DFB0746029841468E
:1016100009F096FA21460AF02BFD31460AF062FBEA
:101620000446032D10D0022D019D20D13846494695
:1016300000F070FB40F20011C2F200010860204689
:10164000594600F025FC0DE038464946FFF7FAFC04
:1016500040F20011C2F20001086020465946FFF72F
:1016600017FD019D40F20411C2F20001086040F232
:10167000F40040F2CC01C2F20000C2F200010560A9
:1016800040F20010C2F200000068086040F2C8009A
:10169000C2F20000C0F8008007B0BDE8F08F000083
:1016A0002DE9F04742F6040CC4F2000CBCF800101F
:1016B00011F0080F00F00C81BCF81410BCF81820D1
:1016C00042EA014944F20751CCF22E21A9FB011252
:1016D00040F22A214FEA124EC2F200010B88B3EB0E
:1016E000124F08D140F20821C2F200018D7891F822
:1016F00003A009887BE0A1F800E043F28031C0F24A
:10170000E111894529D348F21F544FF6926840F2FF
:10171000B2714FF0640A4FF4C8767346C5F2EB1409
:10172000CFF6FF7811F0030F0AD18AB2A2FB04575B
:10173000FD0905FB16255DB17D0905FB1A223AB9A5
:101740006FF4B67213440131B3F5B67FEAD807E0FF
:10175000B3F5B77F4246F5D202E040F2B27173466C
:1017600040F208281C2BC2F20008A8F8001034D35D
:1017700048F21F548AB2642641F2027A01F003074C
:10178000C5F2EB14C0F6010AA2FB04456C09ED0991
:1017900004FB16244FF4C87605FB1622002C4FF0EC
:1017A0000005B2FA82F218BF0124520944EA020687
:1017B000AAB24FB9541EB4FA84F46409344003D079
:1017C0001D2B0CD31D3B04E01AF80220934207D3D3
:1017D0009B1A01351B2BEBD802E0002500E0012508
:1017E00003F1010A013588F803A088F8025040F29D
:1017F000A3224FF4616489B20EFB02F2A9EBC21777
:101800004BF2C532C9F2A212A7FB022640F208220F
:10181000F60AC2F2000206FB1477567148F68906F2
:10182000C8F68806A7FB0664660996713601A6EB22
:1018300054166424A7EB8607D77148F21F57C5F2E8
:10184000EB17A1FB0776FC2707EA5617760906FB7C
:101850001411132F44F6251688BF6431C2F2924644
:1018600001EB910711F0030FA7FB0643A7EB03045D
:1018700003EB54034FEA93044FEAC404A4EB93032D
:101880005FFA8AF4A7EB0303EFB24CF21865C0F6D7
:1018900000053D4415F8015C25442B444FF6FF75C7
:1018A000194608BF2944032F28BF194689B2A1FB56
:1018B0000637CB1B07EB53039F08FF00A7EB9303EF
:1018C000C91A1171BCF8001021F00801ACF8001021
:1018D00040F20821C2F2000191E88C00D1E90365D1
:1018E000496980E88C00C0E903654161BDE8F08783
:1018F000FEE70000022005F091BD000010B584B0A5
:1019000008200121012400F055FC102001A90390BA
:101910004FF44060ADF804000320029040F6004010
:10192000C4F20100FFF7DCFB48F2A810C4F221204A
:101930000460446004B010BD2DE9F04F83B040F660
:101940000441029048F2A8154FF0000BC4F20101C7
:10195000C4F22125086820F470400860086840F44B
:101960000040086000202860022005F057FD012695
:101970002E6055F87C0C0190012005F04FFD0220EF
:10198000C5F800B005F04AFD2E60012055F87C7CBA
:1019900005F044FD0220C5F800B005F03FFD2E60C3
:1019A000012055F87C4C05F039FD0220C5F800B047
:1019B00005F034FD2E60012055F87C8C05F02EFDDD
:1019C0000220C5F800B005F029FD2E60012055F871
:1019D0007C9C05F023FD0220C5F800B005F01EFD3B
:1019E0002E60012055F87CAC05F018FD0220C5F8EA
:1019F00000B005F013FD2E60012055F87CBC05F009
:101A00000DFD00202860022005F008FD2E60012059
:101A100055F87C6C05F002FD40F604420021296077
:101A2000C4F20102106820F470401060106840F4A5
:101A3000405010600198002818BF0120002F18BFE7
:101A40000127002C18BF012447EA4000B8F1000F1D
:101A500018BF4FF0010844EA4000B9F1000F18BF69
:101A60004FF0010948EA4000BAF1000F18BF4FF0EB
:101A7000010A49EA4000BBF1000F18BF4FF0010B0B
:101A80004AEA4000002E4BEA400018BF012646EA11
:101A90004004029848B10220696005F0BFFC0120B3
:101AA0002860022005F0BAFC08E0012602206E60E2
:101AB00005F0B4FC02202E6005F0B0FC0020286088
:101AC000E0B203B0BDE8F08FF0B581B0044640F657
:101AD000044048F2A8150026C4F20100C4F22125F2
:101AE000016821F470410160016841F440510160D6
:101AF000E0092E606860022005F090FC01270220BA
:101B00002F6005F08BFC02202E6005F087FCC4F3EB
:101B100080106860022005F081FC02202F6005F033
:101B20007DFC02202E6005F079FCC4F34010686053
:101B3000022005F073FC02202F6005F06FFC0220EC
:101B40002E6005F06BFCC4F300106860022005F005
:101B500065FC02202F6005F061FC02202E6005F07C
:101B60005DFCC4F3C0006860022005F057FC022051
:101B70002F6005F053FC02202E6005F04FFCC4F3EB
:101B800080006860022005F049FC02202F6005F00B
:101B900045FC02202E6005F041FCC4F34000686063
:101BA000022005F03BFC02202F6005F037FC0220EC
:101BB0002E6005F033FC04F001006860022005F09F
:101BC0002DFC02202F6005F029FC2E60022001B0C0
:101BD000BDE8F04005F022BCB0B540F6044048F244
:101BE000A814C4F20100C4F22124016821F4704158
:101BF0000160016841F44051016001206060206093
:101C0000042005F00BFC00250420656005F006FCAF
:101C10002560B0BD10B540F6044048F2A814C4F2E7
:101C20000100C4F22124016821F4704101600168BF
:101C300041F440510160002020606060042005F004
:101C4000EDFB0120206060600420BDE8104005F03D
:101C5000E5BB000070B540F6044448F22C1501269F
:101C6000C4F20104C4F22125206820F470402060F1
:101C7000206840F4004020600120C5F8806005F035
:101C8000CDFB0120EE6705F0C9FB286888B1002074
:101C9000296871B1296861B140F00201C9B2F9291E
:101CA0000BD82A682AB1F92907D8296804300029F5
:101CB000EED100242046EC6770BD206820F470400F
:101CC0002060206840F4405020600020E867C5F89C
:101CD0008000042005F0A2FB01240420EC67C5F875
:101CE000804005F09BFB204670BD000041F21801CA
:101CF000C4F202010A6842F001020A600421C4F23F
:101D000001010A6822F0E0620A600A6842EA406063
:101D1000086070472DE9F04F83B0CDE9011040F223
:101D20003820C2F20000076841F26F20C3F683201A
:101D300039460AF073FA40F23C21C2F200010C6805
:101D400021460AF06BFA014640F23800C2F2000068
:101D5000D0F800B058460AF08BF940F22809C2F2D8
:101D60000009D9F8001009F0F5FE4FF07C51054646
:101D700009F0F0FE80462846414609F0B3FF2946A7
:101D8000064600900AF074F9014628460AF046FA21
:101D9000C9F8000040F22C005946C2F20000D0F809
:101DA00000A050460AF064F98146384649460AF0D8
:101DB00035FA0746304639460AF05AF901463846A0
:101DC0000AF02CFA40F23821C2F2000108602046E5
:101DD00049460AF023FA4146064609F083FF2946A0
:101DE00004460AF045F9014630460AF017FA40F277
:101DF0003C21C2F20001086049F6A6315846C3F6FC
:101E000044310AF035F9514609F0A4FE0546204652
:101E100039460AF02DF9014628460AF0FFF940F24A
:101E2000442840F22C01C2F20008C2F20001D8F8A6
:101E300000500860019829460AF0F0F959460AF066
:101E400017F940F240290146C2F20009D9F8000012
:101E500009F080FE0646029831460AF0DFF9009943
:101E600007460AF005F90146304609F073FE0646BA
:101E7000C9F80000384621460AF0FAF8014628461B
:101E800009F068FEC8F80000304603B0BDE8F08FE6
:101E90002DE9F04F83B0CDE9011040F24820C2F2A5
:101EA0000000076841F26F20C3F6832039460AF02C
:101EB000B5F940F24C21C2F200010C6821460AF04B
:101EC000ADF9014640F23800C2F20000D0F800B08F
:101ED00058460AF0CDF840F23009C2F20009D9F8AC
:101EE000001009F037FE4FF07C51054609F032FE34
:101EF00080462846414609F0F5FE294606460090F0
:101F00000AF0B6F8014628460AF088F9C9F8000038
:101F100040F234005946C2F20000D0F800A050460A
:101F20000AF0A6F88146384649460AF077F907468E
:101F3000304639460AF09CF8014638460AF06EF9F8
:101F400040F24821C2F200010860204649460AF0EA
:101F500065F94146064609F0C5FE294604460AF0E1
:101F600087F8014630460AF059F940F24C21C2F296
:101F70000001086049F6A6315846C3F644310AF01C
:101F800077F8514609F0E6FD0546204639460AF045
:101F90006FF8014628460AF041F940F2542840F211
:101FA0003401C2F20008C2F20001D8F80050086003
:101FB000019829460AF032F959460AF059F840F2D8
:101FC00050290146C2F20009D9F8000009F0C2FD0B
:101FD0000646029831460AF021F9009907460AF0B0
:101FE00047F80146304609F0B5FD0646C9F800003D
:101FF000384621460AF03CF80146284609F0AAFD79
:10200000C8F80000304603B0BDE8F08FB0B5FFF768
:10201000E3FDD220FFF758FDFFF71CFE4120FFF73C
:1020200053FDFFF717FEFFF7D7FDD320FFF74CFD59
:10203000FFF710FE0020FFF77FFC0446FFF7EAFDE4
:10204000FFF7CAFDD220FFF73FFDFFF703FE422056
:10205000FFF73AFDFFF7FEFDFFF7BEFDD320FFF7C8
:1020600033FDFFF7F7FD0020FFF766FC40EA04248C
:10207000204609F069FF00210546CCF2807109F085
:1020800069FD0021B4F5004F98BF2846C4F2AA317B
:1020900009F028FE09F032FD47F2A40244F2D733DA
:1020A000C0F63D22C4F2420308F0FEFE00230022E7
:1020B000C4F2240309F048FA08F0C4FE09F008FF4E
:1020C0000446FFF7A7FD2046B0BD000080B5FFF72E
:1020D00015FC6B20802101F05FFA642005F070F997
:1020E0006B20002101F058FA1B20182101F054FA4E
:1020F0001C20102101F050FA1920012101F04CFAA6
:102100001A20012101F048FA3820002101F044FA98
:102110006A20002101F040FA2320002101F03CFA5E
:102120003720802101F038FAFFF756FDD220FFF763
:10213000CBFCFFF78FFD7520FFF7C6FCFFF78AFD8C
:10214000FFF74AFDD320FFF7BFFCFFF783FD002018
:10215000FFF7F2FBFFF75EFD6B20032101F01CFA95
:102160006C20002101F018FA002080BDFEE700007D
:102170007047000040F080604EF60C5140F0FD705A
:10218000CEF200010860704741F20401C4F202017E
:102190000A6822F4404210430860704741F21C0272
:1021A0000029C4F2020211680CBF21EA00000843B2
:1021B0001060704741F218020029C4F2020211684F
:1021C0000CBF21EA000008431060704741F20C0286
:1021D0000029C4F2020211680CBF21EA0000084382
:1021E0001060704780B541F2040EC4F2020EDEF8B2
:1021F000002002F00C0341F20022C0F27A02082B08
:102200001FD1DEF80030C3F3834303F1020CDEF884
:10221000003013F4803F06D140F60012C0F23D02B8
:102220000CFB02F20DE0DEF8003013F4003F02D1A7
:102230000CFB02F205E040F60012C0F23D020CFB7E
:1022400002F202604CF20861DEF80030C0F60001D4
:10225000C3F30313CB5CDA404260DEF80030C3F313
:102260000223CB5C22FA03F38360DEF80030C3F371
:10227000C223C95C4CF20463C0F6000322FA01F1E8
:10228000C160DEF80020C2F381329A5CB1FBF2F14A
:10229000016180BD2DE9F04F81B040F6044A074648
:1022A00048F2A81901261C4615468846C4F2010AC0
:1022B000C4F22129DAF8000020F47040CAF80000C6
:1022C000DAF8000040F44050CAF800000420C9F8D1
:1022D0000460C9F8006005F0A1F84FF0000B04207D
:1022E000C9F804B005F09AF87F00C9F800B0F8B258
:1022F000FFF7EAFBFFF7AEFCD0B1DAF8000020F4FC
:102300007040CAF80000DAF8000040F44050CAF803
:1023100000000420C9F800B0C9F804B005F07EF848
:102320000420C9F80060C9F8046005F077F851E0AE
:102330004046FFF7C9FBFFF78DFCDAF8000020F4F8
:102340007040CAF80000DAF8000040F44050CAF8C3
:1023500000000420C9F80460C9F8006005F05EF8C8
:102360000420C9F804B005F059F847F00100C9F895
:1023700000B0C0B2FFF7A8FBFFF76CFC05E000BFA0
:10238000FFF7DAFA04F8010B013DE8B2012803D0A7
:1023900020B10120F4E700BF0020F1E7DAF80000E7
:1023A000002620F47040CAF80000DAF8000040F47B
:1023B0004050CAF800000420C9F80060C9F8046061
:1023C00005F02CF80120C9F80000C9F80400042029
:1023D00005F024F8304601B0BDE8F08F4EF2100150
:1023E0000428CEF200010A6822F0040308BF42F07C
:1023F00004030B607047000041F2240CC4F2020C8D
:102400005CF8080C40F080504CF8080C5CF8080CA4
:1024100040F000604CF8080CDCF8000040F00100CF
:10242000CCF80000DCF8000010F0020F0ED1DCF850
:10243000000010F0020F09D1DCF8000010F0020FCC
:1024400004D1DCF8000010F0020FEBD02DE9F04FC2
:1024500042F6040943F28038C4F20009C0F2E118E0
:10246000B9F81400B9F8181041EA004044F20751D5
:10247000CCF22E21A0FB012140F25822C2F2000230
:102480001388B3EB114F40F01E814FF4884039F8A8
:10249000000047F20001C4F20001086840F48070B7
:1024A00008605CF8040C40F480304CF8040C5CF8D4
:1024B000040C20F480304CF8040CDCF8000040F0F0
:1024C0000100CCF8000000BFDCF8000010F0020FA3
:1024D0000ED1DCF8000010F0020F09D1DCF800008A
:1024E00010F0020F04D1DCF8000010F0020FEBD066
:1024F000DCF8000040F08070CCF800005CF8040CC0
:1025000040F400704CF8040C5CF8040C40F40040FB
:102510004CF8040CB9F8000010F0200F0ED1B9F8F7
:10252000000010F0200F09D1B9F8000010F0200FC2
:1025300004D1B9F8000010F0200FEBD0B9F800007A
:1025400010F0080F0ED1B9F8000010F0080F09D1F3
:10255000B9F8000010F0080F04D1B9F8000010F02D
:10256000080FEBD0B9F8000010F0200F0ED1B9F829
:10257000000010F0200F09D1B9F8000010F0200F72
:1025800004D1B9F8000010F0200FEBD0B9F800002A
:1025900048F21F5A48F20053002140F2B4764FF03F
:1025A000640B4FF4C8720027C5F2EB1AC0F2E213B5
:1025B00040F01000A9F8000047F6FF70A9F80410D9
:1025C000A9F8080040F2B470A0FB0A544744043054
:1025D00065094744E40905FB1B6507EB030E04FB93
:1025E00012648D42754608BF07EB08058C42A1F1C5
:1025F000040108BF754605EB080711F13405E3D166
:102600005CF8080C40F080504CF8080C5CF8080CA2
:1026100040F000604CF8080C47F20000C4F20000E3
:102620000146006840F480700860B9F8000040F08E
:102630001000A9F8000046F27A10C0F2DC1038440D
:10264000A9F81800000CA9F81400B9F8000020F04F
:102650001000A9F8000000BFB9F8000010F0200F2A
:102660000ED1B9F8000010F0200F09D1B9F8000020
:1026700010F0200F04D1B9F8000010F0200FEBD0BB
:10268000B9F8000020F01000A9F80000B9F8000027
:1026900010F0200F0ED1B9F8000010F0200F09D172
:1026A000B9F8000010F0200F04D1B9F8000010F0C4
:1026B000200FEBD04FF4884045F2500129F800106C
:1026C0000020BDE8F08F0B0CA8F1010188421380B7
:1026D0005CD948F21F5E4FF6926640F2B2716424F4
:1026E0004FF4C875C5F2EB1ECFF6FF7611F0030F5D
:1026F0000AD188B2A0FB0E72D70907FB15075FB19C
:10270000520902FB140038B96FF4B670034401316A
:10271000B3F5B67FEAD803E0B3F5B77F3046F5D21C
:102720001C2B37D348F21F5288B2642641F2027440
:1027300001F003050021C5F2EB12C0F60104A0FB75
:1027400002277A09FF0902FB16024FF4C87607FB3D
:102750001600002AB0FA80F018BF0122400942EAB0
:10276000000600BF88B24DB9421EB2FA82F2520989
:10277000324003D01D2B0FD31D3B03E0205C83426E
:102780000BD31B1A01311B2BECD806E040F2B271BF
:102790001C2BC7D2002100E001214FF48840DAB29F
:1027A00039F80000FF2A3FF474AEC9B2FF293FF4A4
:1027B00070AE45F2500188427FF46BAE0020BDE858
:1027C000F08F000082B041F204000022C4F2020047
:1027D000CFF6FF0250F8041C41F0010140F8041C40
:1027E000016811404FF6FF720160CFF6F66250F8B3
:1027F000041C114040F8041C50F8041C21F48021F2
:1028000040F8041C016821F4FE0101604FF41F012F
:10281000416000210191009150F8041C41F4803185
:1028200040F8041C50F8041C01F400310091019997
:1028300001310191009919B90199B1F5A06FF1D158
:1028400050F8041C11F4003F0CBF0021012100913D
:102850000099012958D1D0F8FC1F41F01001C0F8AF
:10286000FC1FD0F8FC1F21F00301C0F8FC1FD0F8BA
:10287000FC1F41F00201C0F8FC1F01680160016803
:102880000160016841F480610160016821F47C11FC
:102890000160016841F4E811016050F8041C41F046
:1028A000807140F8041C00BF50F8041C11F0007F38
:1028B0000ED150F8041C11F0007F09D150F8041C0F
:1028C00011F0007F04D150F8041C11F0007FEBD010
:1028D000016821F003010160016841F0020101601B
:1028E000016801F00C0108290ED0016801F00C010B
:1028F000082909D0016801F00C01082904D00168F9
:1029000001F00C010829EBD14EF608504FF00061A0
:10291000CEF20000016002B0704700001020C4F247
:102920000000018811F0010F06D040F22821C2F208
:1029300000010A8801320A8000210180BFF34F8F15
:102940007047000040F21040C4F200000188018886
:1029500021F001010180704740F61000C4F2000030
:102960000188018821F00101018070472DE9F04FB5
:1029700081B043F210400021C4F20100018003F055
:10298000BBFD002800F0F38140F25A24C2F200049B
:102990002078B0FA80F04009207040F21C00C2F2AA
:1029A00000000078FEF748FD042002F073FB40F2BF
:1029B000D4094042C2F20009C9F80000032002F025
:1029C00069FB40F2D80A4142D9F80000C2F2000A7D
:1029D000CAF8001003F034FD40F2ED20C2F200000E
:1029E000017801290CD140F2EC21C2F200010A78F1
:1029F00001320A70D2B20A2A02BF002202700A70A3
:102A00002078012826D103F065FB40F26021C2F254
:102A100000010A68531C40F25C22C2F20002642BDF
:102A20000B6017683844106040F0A18100230B60F0
:102A300048F21F511360C5F2EB1180FB01014811F0
:102A400000EBD17040F2EC11C2F20001086001B05D
:102A5000BDE8F08F40F20900C2F2000000780128C2
:102A600014BF6420002004F06BFC322002F08CFDC7
:102A7000012809D140F20900C2F2000001460078A5
:102A8000B0FA80F04009087040F2CC084FF04041A5
:102A9000C2F20008D8F8000009F05CF8044640F2E1
:102AA00004000025C2F20000C4F2C82500682946CF
:102AB00009F018F90146204609F0DAFA40F200015F
:102AC000044640F2F000C2F20000C2F200010068C9
:102AD000096809F0CDFA294609F004F901462046B3
:102AE00009F038F809F0F4F940F2D004DAF80010EF
:102AF000C2F200042060D9F8000003F077FD40F234
:102B0000E415C2F20005286040F2F400C2F20000B1
:102B1000006803F007FD40F210112A6841F6F42620
:102B200040F2F80340F27025C2F20001C2F2000345
:102B3000C2F200050860216811444EF20C520F18D1
:102B4000CFF6FF72081AB742A8BF37469742D8BFE0
:102B50001746B0421F60B8BF064640F2FC009642DE
:102B6000C2F20000D8BF1646DAF800B0D9F800402B
:102B7000D8F800A006602888022849D040F2C80191
:102B80000128C2F20001D1F800901CD0002862D1C7
:102B9000002C2046594648BF6042BBF1000F48BF99
:102BA000CBF1000108441E284FDA40F27220C2F235
:102BB000000001880131018089B20B294BD300212B
:102BC00001800120288040F27420C2F200000188B8
:102BD0000131018089B2C92922BF002129800180E9
:102BE00050460021C4F2B01109F05BF898BB42F2E4
:102BF00000014846C4F2CB6109F05AF858BB0021E5
:102C00005046CCF2901109F053F820BB02202880E6
:102C100040F27620C2F2000001880131018089B2C1
:102C2000652922BF0021298001801BEB040048BFD9
:102C3000404247280FDB40F2090029460125C2F235
:102C400000000570002008800BE040F27220002197
:102C5000C2F20000018040F20900C2F200000578D3
:102C6000CDB340F27828C2F2000898F80000A8B965
:102C700050464FF0414109F01BF8002840F0838096
:102C800000215046C4F2401109F00BF8002808BF9B
:102C90005BEA040077D1012088F8000040F27A2036
:102CA000C2F2000001880131018089B2332922BFBC
:102CB000002188F800100180201F232863D8ABF181
:102CC000040023285FD840F209010020C2F200016D
:102CD00088F80000087040F26C200025C2F2000065
:102CE000056000215046CCF2202108F0E8FF40F2B8
:102CF000B01848F290140028C4F22228C4F222240A
:102D000038D100215046C4F2202108F0C3FF88BB0F
:102D1000012D2FD040F2EC1040F25541C2F20000DC
:102D20000068884226DD012F4FF000014FF00002BD
:102D30004FF00000B8BF0121002FE1614FF000010A
:102D4000C8BF0121A16142F63C4148BF7F42002E2D
:102D5000C4F201010F80C8BF0122012EC8F8002073
:102D6000B8BF0120002E206048BF76428E8001B09F
:102D7000BDE8F08F00202060C8F80000E061A0618D
:102D800001B0BDE8F08F092CABDC012DA9D140F2D8
:102D90006C20BBF1000FC2F2000048BFCBF1000B6A
:102DA00001685944CA1F0160AC2A0CD840F20800DF
:102DB00001250021C2F20000057040F2E800C2F2D5
:102DC000000001708DE7A1F1B502B22A0CD840F2E3
:102DD000080000210125C2F20000017040F2E80065
:102DE000C2F2000005707CE7B1F5B47F4FF0010539
:102DF000C4BF0021016074E70288002942F080030B
:102E000008BF22F08003038070470000C94301829D
:102E1000704700000288002942F0010308BF22F039
:102E20000103038070470000B0F8442000291346D6
:102E30006FF3DF3318BF42F40043A0F8443070470B
:102E400080B5B0F808C02CF0070C41EA0C01B0F8CE
:102E500018C0B0F820E001814FF6FC410CEA010CEB
:102E600040F2011141EA0C01018342EA03112EF004
:102E700022021143018480BD70B50B88042B2AD037
:102E8000002B56D1B1F802C00A898B88068C40F617
:102E9000FF354FF6FC74C4F2000526F0010643EA44
:102EA00002130246A842068432F8186FB0F820E0F8
:102EB00026F0F30643EA06036DDCB0F1804F7DD0C7
:102EC00040F20045C4F20005A84277D040F6000564
:102ED000C4F200056FE00E894B888A88058C40F6A5
:102EE000FF44360325F0100546EA02260584024613
:102EF00032F8185FB0F820E0254046EA050C40F6AD
:102F0000FF356FF00306C4F20005A6F1AD04A84238
:102F100062DCB0F1804F71D040F20045C4F2000590
:102F2000A8426BD040F60005C4F20005A84265D067
:102F300068E00A898C884E88058C082B71D125F4AD
:102F40008073038444EA0213024632F81C5FB0F82F
:102F500020E025F0F30543EA050C6FF4405303F538
:102F6000145440F6FF33C4F20003984200F381800A
:102F7000B0F1804F00F08F8040F20043C4F20003B4
:102F8000984200F0888040F60003C4F200039842A3
:102F900000F0818084E040F60045C4F20005A842BC
:102FA0000CD042F60045C4F20105A84206D043F217
:102FB0000045C4F20105A84218BF083C03830EEA8D
:102FC000040343EA0C0343F001030384C988038B21
:102FD00023F00C03038394E040F60045C4F200059F
:102FE000A8420BD043F20045C4F20105A84205D027
:102FF00042F60045C4F20105A84203D14FF6FC7425
:103000001B012D3C0EEA0406A0F818C0334343F020
:1030100010030384C988038B23F4406309020383EC
:103020006FE025F480531203038442EA042302462E
:1030300040F6FF4432F81C5FB0F820C0254046F649
:10304000FF5443EA050E40F6FF33C4F200039842F2
:1030500034DCB0F1804F43D040F20043C4F20003AF
:1030600098423DD040F60003C4F20003984237D0A6
:1030700039E040F60043C4F2000398420BD043F21B
:103080000043C4F20103984205D042F60043C4F263
:103090000103984204D14CF6FF73360203F5345411
:1030A0000EEA0403A0F81CC0334343F48073038486
:1030B000C988838B23F00C03838322E040F600430E
:1030C000C4F2000398420BD043F20043C4F2010360
:1030D000984205D042F60043C4F20103984202D15F
:1030E00036034CF6FF740CEA0403A0F81CE03343EB
:1030F00043F480530384C988838B23F4406309021B
:10310000838310880843108070BD000000210122D5
:103110000160426001817047002A82890CBF22EA67
:10312000010111438181704710B5028C22F0010228
:103130000284048CB0F804E0038B0A8823F0730344
:1031400043EA020C0B8924F002021A434B881A430B
:10315000A0F18043A3F596334FEAB323072B14D88D
:10316000012404FA03F313F0E50F0ED08C892EF43A
:10317000407322F00C022343CC8943EA040E4B89AE
:1031800023F004031A438B881A43A0F804E0A0F844
:1031900018C0C9888186028410BD0000028B22F00D
:1031A000080211430183704710B5028C22F010020F
:1031B0000284048CB0F804E0038B0A8823F4E6430D
:1031C00043EA022C0B8924F0200242EA03124B88C6
:1031D00042EA031243F20043C4F20103984205D0CD
:1031E00042F60043C4F20103984212D18B892EF4B7
:1031F000406422F0C00244EA8303CC8943EA840E8F
:103200004B896FF04F0404EA03131A438B8842EA98
:103210000312A0F804E0A0F818C0C988018702844E
:1032200010BD0000028B22F4006242EA01210183FA
:103230007047000010B5028C22F480720284048C66
:10324000B0F804E0838B0A8823F0730343EA020C8E
:103250000B8924F4007242EA03224B8842EA0322DB
:1032600043F20043C4F20103984205D042F6004302
:10327000C4F20103984212D18B892EF4405422F4F7
:10328000406244EA0313CC8943EA041E4B8940F2AE
:10329000FF441B02A3431A438B8842EA0322A0F88F
:1032A00004E0A0F81CC0C9888187028410BD00001A
:1032B000828B22F0080211438183704710B5028C83
:1032C00022F480520284048CB0F804E0828B0B88D4
:1032D00022F4E64242EA032C0B8924F4005242EA2B
:1032E00003324B8842EA033343F20042C4F2010244
:1032F000904205D042F60042C4F20102904204D14D
:103300008A892EF4804444EA821EA0F804E0A0F8E2
:103310001CC0C988A0F84010038410BD828B22F421
:10332000006242EA01218183704700008184704776
:1033300040F6FF33B0F800C0C4F2000398420FDC3F
:10334000B0F1804F1ED040F20043C4F20003984217
:1033500018D040F60003C4F20003984212D016E0E1
:1033600040F60043C4F2000398420BD043F20043FE
:10337000C4F20103984205D042F60043C4F20103AF
:10338000984204D14B882CF0700243EA020C41F2BF
:10339000004240F48063C4F20002934204D0CB8820
:1033A0002CF4407243EA020CA0F800C08A8882859F
:1033B0000A880285A0F18042A2F596324FEAB22235
:1033C000072A07D8012303FA02F212F0E50F1CBF07
:1033D000097A018601218182704700004FF6FF7152
:1033E00041600021016001727047000010B543F692
:1033F000000440F22551C4F20104204600F036F8E2
:1034000008B3204600F0C2F840F2DC11C2F200011D
:103410000A8812F4004F18BF10BDC3B2540413D46D
:103420000D2B02BF42F48040088010BD40F21414FE
:10343000531C6FF39F32C2F20004A05498B2C72805
:1034400088BF00230B8010BD0A2B14BF002042F45C
:103450000040088010BD00008289002942F400531A
:1034600008BF22F4005383817047000001F01F025F
:10347000012303FA02F2C1F34213022B06D0012BFF
:1034800014BF00F1140300F10C0301E000F110037C
:103490001B88090A1A404FF0010318BF0122008857
:1034A00003FA01F1084018BF0120104070470000E6
:1034B00001F01F0C012303FA0CFCC1F34213142189
:1034C000022B08BF1021012B08BF0C21002A4258F3
:1034D0000CBF22EA0C0242EA0C0242507047000084
:1034E00070B586B00446008A0D46C98801AE20F446
:1034F000405008434EF6F3112082A0890840A98865
:1035000008432989084369890843A081A08AA989B9
:1035100020F440700843A0823046FEF763FE43F675
:10352000000106F108000222C4F201018C424FF0B2
:10353000190108BF06F10C00042600684843A18960
:10354000A2EBD1312A6802FA01F1B0FBF1F048F2A6
:103550001F51C5F2EB11A0FB01235A096FF0630361
:1035600002FB0300A389A6EBD336B0403230A0FBA8
:103570000101072040EA133080F0080000EA5110F2
:1035800040EA0210208106B070BD000080886FF311
:103590005F207047FEE70000B0B50C460546FEF719
:1035A0001BFBFEF7A7F9D220FEF78EFAFEF752FBBF
:1035B00018B1FEF72FFB0120B0BD2846FEF784FAB4
:1035C000FEF748FB2046FEF77FFAFEF743FB044672
:1035D000002818BF0124FEF71DFB2046B0BD0000E7
:1035E0002DE9F04F81B040F6044A074648F2A81989
:1035F00001241D4616468846C4F2010AC4F2212958
:10360000DAF8000020F47040CAF80000DAF8000090
:1036100040F44050CAF800000420C9F80440C9F83A
:10362000004003F0FBFE4FF0000B0420C9F804B08B
:1036300003F0F4FE7800C9F800B0C0B2FEF744FA17
:10364000FEF708FBD0B1DAF8000020F47040CAF8A9
:103650000000DAF8000040F44050CAF800000420EE
:10366000C9F800B0C9F804B003F0D8FE0420C9F8C6
:103670000040C9F8044003F0D1FE49E04046FEF79F
:1036800023FAFEF7E7FA56B1002400BF285DFEF7E3
:103690001BFAFEF7DFFAF8B90134B442F6D3DAF8D0
:1036A0000000002420F47040CAF80000DAF800009E
:1036B00040F44050CAF800000420C9F80040C9F89E
:1036C000044003F0ABFE0120C9F80000C9F8040073
:1036D000042003F0A3FE1BE0DAF8000020F47040A1
:1036E000CAF80000DAF8000040F44050CAF80000C0
:1036F0000020C9F80000C9F80400042003F08EFE81
:1037000001240420C9F80040C9F8044003F086FEF3
:10371000204601B0BDE8F08F2DE9F04F93B03A207C
:10372000ADF84A0006A8FDF7BBFF9DF81F004CF25C
:103730002469BDF818704FF0000842F210754FF080
:10374000000BC0F6000905909DF81A0001909DF845
:103750001B0002909DF81D0003909DF81E00049030
:1037600048E008EB48016920362300EB410037317F
:10377000490080B28AB22B2102F0E4F8002400BF95
:1037800019F8046016F0010F0CBF4FF6FF7047F6F2
:103790000F0001F0C9FBB00754BF4FF6FF7047F6AA
:1037A0000F0001F0C1FB700754BF4FF6FF7047F6E2
:1037B0000F0001F0B9FB300754BF4FF6FF7047F61A
:1037C0000F0001F0B1FBF00654BF4FF6FF7047F653
:1037D0000F0001F0A9FBB00654BF4FF6FF7047F68B
:1037E0000F0001F0A1FB01340C2CC9D14FF0000BEC
:1037F00092E000BF5FFA88F0032801D1012025E0A4
:10380000C8F10202C8F10300D2B200F00301032A9A
:1038100002D2012041B919E0421A0120043A68435A
:1038200012F0FF0FFAD189B1012903D100EB80001A
:1038300040000BE04FF47A7202294FF0640100FB64
:1038400002F208BF00FB01F2104600BF4CF6CD416A
:10385000B7FBF0F0B8F1020FCCF6CC41A0FB01129F
:103860004FEAD20101EB8101A0EB410407D85FEAE6
:103870000B6004D1002C3FF474AF4FF0010B08EB48
:1038800048016920362300EB41003731490080B2FE
:103890008AB22B2102F056F844F010004FF0000AD3
:1038A00000EB400009EB800414F80A6016F0010FE9
:1038B0000CBF4FF6FF7047F60F0001F035FBB00765
:1038C00054BF4FF6FF7047F60F0001F02DFB700755
:1038D00054BF4FF6FF7047F60F0001F025FB30078D
:1038E00054BF4FF6FF7047F60F0001F01DFBF006C6
:1038F00054BF4FF6FF7047F60F0001F015FBB006FE
:1039000054BF4FF6FF7047F60F0001F00DFB0AF1B0
:10391000010ABAF10C0FC7D108F10108B8F1040F80
:103920007FF468AF81253A240DF14A08691DA8B2D9
:1039300036238AB22B2102F005F8A4F120000026DC
:10394000C0B200EB400009EB800400BFA75D17F098
:10395000010F0CBF4FF6FF7047F60F0001F0E4FABD
:10396000B80754BF4FF6FF7047F60F0001F0DCFABE
:10397000780754BF4FF6FF7047F60F0001F0D4FAF6
:10398000380754BF4FF6FF7047F60F0001F0CCFA2E
:10399000F80654BF4FF6FF7047F60F0001F0C4FA67
:1039A000B80654BF4FF6FF7047F60F0001F0BCFA9F
:1039B00001360C2ECAD118F8014F0635002CB5D1AE
:1039C00000274FF0870B42F21078002542E000BF3D
:1039D0000CB101257FE087202B218C22362301F0BA
:1039E000B1FF002419F8045015F0010F0CBF4FF679
:1039F000FF7047F60F0001F097FAA80754BF4FF683
:103A0000FF7047F60F0001F08FFA680754BF4FF6BA
:103A1000FF7047F60F0001F087FA280754BF4FF6F2
:103A2000FF7047F60F0001F07FFAE80654BF4FF62B
:103A3000FF7047F60F0001F077FAA80654BF4FF663
:103A4000FF7047F60F0001F06FFA01340C2CC9D15A
:103A500000258EE0F8B2012802D1012026E000BF47
:103A60007A42C7F10100D2B200F00301032A03D267
:103A7000012051B91AE000BF421A0120043A00FBAC
:103A800008F012F0FF0FF9D181B1012903D100EB49
:103A9000800040000AE04FF47A7202294FF064017E
:103AA00000FB02F208BF00FB01F210460199002F53
:103AB000B1FBF0F04CF6CD41CCF6CC41A0FB0112AD
:103AC0004FEAD20101EB8101A0EB410408BF5FEA9C
:103AD00005603FF47DAF07EB470136230BEB410058
:103AE0004631490080B28AB22B2101F02BFF44F00D
:103AF0001000002600EB400009EB800414F806A03B
:103B00001AF0010F0CBF4FF6FF7047F60F0001F0DF
:103B10000BFA5FEA8A7054BF4FF6FF7047F60F004A
:103B200001F002FA5FEA4A7054BF4FF6FF7047F6A1
:103B30000F0001F0F9F95FEA0A7054BF4FF6FF7009
:103B400047F60F0001F0F0F95FEACA6054BF4FF684
:103B5000FF7047F60F0001F0E7F95FEA8A6054BF93
:103B60004FF6FF7047F60F0001F0DEF901360C2E1C
:103B7000C4D10137022F7FF46DAF93243A250DF1A4
:103B80004A0800BF611DA0B236238AB22B2101F082
:103B9000D9FEA5F120000026C0B200EB400009EBE1
:103BA000800700BFBD5D15F0010F0CBF4FF6FF7021
:103BB00047F60F0001F0B8F9A80754BF4FF6FF70A1
:103BC00047F60F0001F0B0F9680754BF4FF6FF70D9
:103BD00047F60F0001F0A8F9280754BF4FF6FF7011
:103BE00047F60F0001F0A0F9E80654BF4FF6FF704A
:103BF00047F60F0001F098F9A80654BF4FF6FF7082
:103C000047F60F0001F090F901360C2ECAD118F8D2
:103C1000015F0634002DB5D100244FF0990B42F21C
:103C200010774FF0000A45E015B14FF0010A82E02D
:103C300099202B219E22362301F084FE002500BF0F
:103C400019F8056016F0010F0CBF4FF6FF7047F62C
:103C50000F0001F069F9B00754BF4FF6FF7047F647
:103C60000F0001F061F9700754BF4FF6FF7047F67F
:103C70000F0001F059F9300754BF4FF6FF7047F6B7
:103C80000F0001F051F9F00654BF4FF6FF7047F6F0
:103C90000F0001F049F9B00654BF4FF6FF7047F628
:103CA0000F0001F041F901350C2DC9D14FF0000A88
:103CB0008EE000BFE0B2012802D1012026E000BF63
:103CC0006242C4F10100D2B200F00301032A03D220
:103CD000012049B91AE000BF421A0120043A784392
:103CE00012F0FF0FFAD189B1012903D100EB800056
:103CF00040000BE04FF47A7202294FF0640100FBA0
:103D000002F208BF00FB01F2104600BF0299002C2E
:103D1000B1FBF0F04CF6CD41CCF6CC41A0FB01124A
:103D20004FEAD20101EB8101A0EB410508BF5FEA38
:103D30000A603FF479AF04EB440136230BEB4100FA
:103D40004F31490080B28AB22B2101F0FBFD45F0D2
:103D500010004FF0000800EB400009EB800500BFA9
:103D600015F8086016F0010F0CBF4FF6FF7047F60C
:103D70000F0001F0D9F8B00754BF4FF6FF7047F6B7
:103D80000F0001F0D1F8700754BF4FF6FF7047F6EF
:103D90000F0001F0C9F8300754BF4FF6FF7047F627
:103DA0000F0001F0C1F8F00654BF4FF6FF7047F660
:103DB0000F0001F0B9F8B00654BF4FF6FF7047F698
:103DC0000F0001F0B1F808F10108B8F10C0FC7D1EC
:103DD0000134022C7FF46EAF00244FF0AB0B42F2A3
:103DE00010774FF0000A45E015B14FF0010A82E06C
:103DF000AB202B21B022362301F0A4FD002500BF0B
:103E000019F8056016F0010F0CBF4FF6FF7047F66A
:103E10000F0001F089F8B00754BF4FF6FF7047F666
:103E20000F0001F081F8700754BF4FF6FF7047F69E
:103E30000F0001F079F8300754BF4FF6FF7047F6D6
:103E40000F0001F071F8F00654BF4FF6FF7047F60F
:103E50000F0001F069F8B00654BF4FF6FF7047F647
:103E60000F0001F061F801350C2DC9D14FF0000AA7
:103E70008EE000BFE0B2012802D1012026E000BFA1
:103E80006242C4F10100D2B200F00301032A03D25E
:103E9000012049B91AE000BF421A0120043A7843D0
:103EA00012F0FF0FFAD189B1012903D100EB800094
:103EB00040000BE04FF47A7202294FF0640100FBDE
:103EC00002F208BF00FB01F2104600BF0399002C6C
:103ED000B1FBF0F04CF6CD41CCF6CC41A0FB011289
:103EE0004FEAD20101EB8101A0EB410508BF5FEA77
:103EF0000A603FF479AF04EB440136230BEB410039
:103F00005831490080B28AB22B2101F01BFD45F0E7
:103F100010004FF0000800EB400009EB800500BFE7
:103F200015F8086016F0010F0CBF4FF6FF7047F64A
:103F30000F0000F0F9FFB00754BF4FF6FF7047F6CF
:103F40000F0000F0F1FF700754BF4FF6FF7047F607
:103F50000F0000F0E9FF300754BF4FF6FF7047F63F
:103F60000F0000F0E1FFF00654BF4FF6FF7047F678
:103F70000F0000F0D9FFB00654BF4FF6FF7047F6B0
:103F80000F0000F0D1FF08F10108B8F10C0FC7D104
:103F90000134022C7FF46EAFB7243A250DF14A08A4
:103FA000611DA0B236238AB22B2101F0CBFCA5F112
:103FB00020000026C0B200EB400009EB800700BFE4
:103FC000BD5D15F0010F0CBF4FF6FF7047F60F00F7
:103FD00000F0AAFFA80754BF4FF6FF7047F60F0086
:103FE00000F0A2FF680754BF4FF6FF7047F60F00BE
:103FF00000F09AFF280754BF4FF6FF7047F60F00F6
:1040000000F092FFE80654BF4FF6FF7047F60F002E
:1040100000F08AFFA80654BF4FF6FF7047F60F0066
:1040200000F082FF01360C2ECAD118F8015F063469
:10403000002DB5D100244FF0BD0B42F210774FF0A8
:10404000000A45E015B14FF0010A82E0BD202B21A6
:10405000C222362301F076FC002500BF19F8056066
:1040600016F0010F0CBF4FF6FF7047F60F0000F07F
:104070005BFFB00754BF4FF6FF7047F60F0000F02C
:1040800053FF700754BF4FF6FF7047F60F0000F064
:104090004BFF300754BF4FF6FF7047F60F0000F09C
:1040A00043FFF00654BF4FF6FF7047F60F0000F0D5
:1040B0003BFFB00654BF4FF6FF7047F60F0000F00D
:1040C00033FF01350C2DC9D14FF0000A8EE000BF3F
:1040D000E0B2012802D1012026E000BF6242C4F113
:1040E0000100D2B200F00301032A03D2012049B932
:1040F0001AE000BF421A0120043A784312F0FF0F81
:10410000FAD189B1012903D100EB800040000BE016
:104110004FF47A7202294FF0640100FB02F208BFEB
:1041200000FB01F2104600BF0499002CB1FBF0F037
:104130004CF6CD41CCF6CC41A0FB01124FEAD201A6
:1041400001EB8101A0EB410508BF5FEA0A603FF483
:1041500079AF04EB440136230BEB41006131490098
:1041600080B28AB22B2101F0EDFB45F010004FF038
:10417000000800EB400009EB800500BF15F808605F
:1041800016F0010F0CBF4FF6FF7047F60F0000F05E
:10419000CBFEB00754BF4FF6FF7047F60F0000F09C
:1041A000C3FE700754BF4FF6FF7047F60F0000F0D4
:1041B000BBFE300754BF4FF6FF7047F60F0000F00C
:1041C000B3FEF00654BF4FF6FF7047F60F0000F045
:1041D000ABFEB00654BF4FF6FF7047F60F0000F07D
:1041E000A3FE08F10108B8F10C0FC7D10134022C6D
:1041F0007FF46EAFC9243A250DF14A08611DA0B2C3
:1042000036238AB22B2101F09DFBA5F12000002668
:10421000C0B200EB400009EB800700BFBD5D15F0A8
:10422000010F0CBF4FF6FF7047F60F0000F07CFE49
:10423000A80754BF4FF6FF7047F60F0000F074FE5A
:10424000680754BF4FF6FF7047F60F0000F06CFE92
:10425000280754BF4FF6FF7047F60F0000F064FECA
:10426000E80654BF4FF6FF7047F60F0000F05CFE03
:10427000A80654BF4FF6FF7047F60F0000F054FE3B
:1042800001360C2ECAD118F8015F0634002DB5D1C5
:1042900000244FF0CF0B42F210774FF0000A45E0B8
:1042A00015B14FF0010A82E0CF202B21D422362312
:1042B00001F048FB002500BF19F8056016F0010F5A
:1042C0000CBF4FF6FF7047F60F0000F02DFEB00751
:1042D00054BF4FF6FF7047F60F0000F025FE700741
:1042E00054BF4FF6FF7047F60F0000F01DFE300779
:1042F00054BF4FF6FF7047F60F0000F015FEF006B2
:1043000054BF4FF6FF7047F60F0000F00DFEB006E9
:1043100054BF4FF6FF7047F60F0000F005FE013561
:104320000C2DC9D14FF0000A8EE000BFE0B2012889
:1043300002D1012026E000BF6242C4F10100D2B2E6
:1043400000F00301032A03D2012049B91AE000BF9B
:10435000421A0120043A784312F0FF0FFAD189B1D2
:10436000012903D100EB800040000BE04FF47A728A
:1043700002294FF0640100FB02F208BF00FB01F2CA
:10438000104600BF0599002CB1FBF0F04CF6CD4172
:10439000CCF6CC41A0FB01124FEAD20101EB810126
:1043A000A0EB410508BF5FEA0A603FF479AF04EB78
:1043B000440136230BEB41006A31490080B28AB2D6
:1043C0002B2101F0BFFA45F010004FF0000800EB80
:1043D000400009EB800500BF15F8086016F0010FDA
:1043E0000CBF4FF6FF7047F60F0000F09DFDB007C1
:1043F00054BF4FF6FF7047F60F0000F095FD7007B1
:1044000054BF4FF6FF7047F60F0000F08DFD3007E8
:1044100054BF4FF6FF7047F60F0000F085FDF00621
:1044200054BF4FF6FF7047F60F0000F07DFDB00659
:1044300054BF4FF6FF7047F60F0000F075FD08F10E
:104440000108B8F10C0FC7D10134022C7FF46EAF14
:1044500040F20010C2F20000006807F04FFB0B466C
:1044600041F22D71024606A8C0F60101FBF712FFCA
:104470009DF81850002D5FD04CF6982886240DF139
:104480001809C0F6000800BFE11DA0B25B238AB284
:104490004C2101F057FAA5F120000026C0B208EB2C
:1044A000001700BFBD5D15F0010F0CBF4FF6FF7088
:1044B0004FF4784000F038FDA80754BF4FF6FF7066
:1044C0004FF4784000F030FD680754BF4FF6FF709E
:1044D0004FF4784000F028FD280754BF4FF6FF70D6
:1044E0004FF4784000F020FDE80654BF4FF6FF700F
:1044F0004FF4784000F018FDA80654BF4FF6FF7047
:104500004FF4784000F010FD680654BF4FF6FF707E
:104510004FF4784000F008FD280654BF4FF6FF70B6
:104520004FF4784000F000FD0136102EBAD119F892
:10453000015F0834002DA7D140F20410C2F2000040
:10454000006807F0DBFA0B4641F22D71024606A81F
:10455000C0F60101FBF79EFE9DF81850002D5FD0BC
:104560004CF6982886240DF11809C0F6000800BF03
:10457000E11DA0B26B238AB25C2101F0E3F9A5F141
:1045800020000026C0B208EB001700BFBD5D15F08B
:10459000010F0CBF4FF6FF704FF4784000F0C4FCE1
:1045A000A80754BF4FF6FF704FF4784000F0BCFCF2
:1045B000680754BF4FF6FF704FF4784000F0B4FC2A
:1045C000280754BF4FF6FF704FF4784000F0ACFC62
:1045D000E80654BF4FF6FF704FF4784000F0A4FC9B
:1045E000A80654BF4FF6FF704FF4784000F09CFCD3
:1045F000680654BF4FF6FF704FF4784000F094FC0B
:10460000280654BF4FF6FF704FF4784000F08CFC42
:104610000136102EBAD119F8015F0834002DA7D148
:1046200040F2F010C2F20000006807F067FA0B4693
:1046300041F22D71024606A8C0F60101FBF72AFEE1
:104640009DF81850002D5FD04CF6982886240DF167
:104650001809C0F6000800BFE11DA0B27B238AB292
:104660006C2101F06FF9A5F120000026C0B208EB23
:10467000001700BFBD5D15F0010F0CBF4FF6FF70B6
:104680004FF4784000F050FCA80754BF4FF6FF707D
:104690004FF4784000F048FC680754BF4FF6FF70B5
:1046A0004FF4784000F040FC280754BF4FF6FF70ED
:1046B0004FF4784000F038FCE80654BF4FF6FF7026
:1046C0004FF4784000F030FCA80654BF4FF6FF705E
:1046D0004FF4784000F028FC680654BF4FF6FF7096
:1046E0004FF4784000F020FC280654BF4FF6FF70CE
:1046F0004FF4784000F018FC0136102EBAD119F8AA
:10470000015F0834002DA7D140F2D40041F2297195
:10471000C2F20000C0F60101026806A8FBF7BAFD6C
:104720009DF81850002D5FD04CF6982886240DF186
:104730001809C0F6000800BFE11DA0B28B238AB2A1
:104740007C2101F0FFF8A5F120000026C0B208EBA3
:10475000001700BFBD5D15F0010F0CBF4FF6FF70D5
:104760004FF4784000F0E0FBA80754BF4FF6FF700D
:104770004FF4784000F0D8FB680754BF4FF6FF7045
:104780004FF4784000F0D0FB280754BF4FF6FF707D
:104790004FF4784000F0C8FBE80654BF4FF6FF70B6
:1047A0004FF4784000F0C0FBA80654BF4FF6FF70EE
:1047B0004FF4784000F0B8FB680654BF4FF6FF7026
:1047C0004FF4784000F0B0FB280654BF4FF6FF705E
:1047D0004FF4784000F0A8FB0136102EBAD119F83A
:1047E000015F0834002DA7D140F2D80041F22971B1
:1047F000C2F20000C0F60101026806A8FBF74AFDFC
:104800009DF81850002D5FD04CF6982886240DF1A5
:104810001809C0F6000800BFE11DA0B29B238AB2B0
:104820008C2101F08FF8A5F120000026C0B208EB22
:10483000001700BFBD5D15F0010F0CBF4FF6FF70F4
:104840004FF4784000F070FBA80754BF4FF6FF709C
:104850004FF4784000F068FB680754BF4FF6FF70D4
:104860004FF4784000F060FB280754BF4FF6FF700C
:104870004FF4784000F058FBE80654BF4FF6FF7045
:104880004FF4784000F050FBA80654BF4FF6FF707D
:104890004FF4784000F048FB680654BF4FF6FF70B5
:1048A0004FF4784000F040FB280654BF4FF6FF70ED
:1048B0004FF4784000F038FB0136102EBAD119F8C9
:1048C000015F0834002DA7D140F2E010C2F20000D1
:1048D000006807F013F90B4641F23371024606A84F
:1048E000C0F60101FBF7D6FC9DF81850002D5FD0F3
:1048F0004CF6982886240DF11809C0F6000800BF70
:10490000E11DA0B2AB238AB29C2101F01BF8A5F1F6
:1049100020000026C0B208EB001700BFBD5D15F0F7
:10492000010F0CBF4FF6FF704FF4784000F0FCFA17
:10493000A80754BF4FF6FF704FF4784000F0F4FA28
:10494000680754BF4FF6FF704FF4784000F0ECFA60
:10495000280754BF4FF6FF704FF4784000F0E4FA98
:10496000E80654BF4FF6FF704FF4784000F0DCFAD1
:10497000A80654BF4FF6FF704FF4784000F0D4FA09
:10498000680654BF4FF6FF704FF4784000F0CCFA41
:10499000280654BF4FF6FF704FF4784000F0C4FA79
:1049A0000136102EBAD119F8015F0834002DA7D1B5
:1049B00040F2E810C2F20000006807F09FF80B46D2
:1049C00041F23371024606A8C0F60101FBF762FC12
:1049D0009DF81850002D5FD04CF6982886240DF1D4
:1049E0001809C0F6000800BFE11DA0B2BB238AB2BF
:1049F000AC2100F0A7FFA5F120000026C0B208EB13
:104A0000001700BFBD5D15F0010F0CBF4FF6FF7022
:104A10004FF4784000F088FAA80754BF4FF6FF70B3
:104A20004FF4784000F080FA680754BF4FF6FF70EB
:104A30004FF4784000F078FA280754BF4FF6FF7023
:104A40004FF4784000F070FAE80654BF4FF6FF705C
:104A50004FF4784000F068FAA80654BF4FF6FF7094
:104A60004FF4784000F060FA680654BF4FF6FF70CC
:104A70004FF4784000F058FA280654BF4FF6FF7004
:104A80004FF4784000F050FA0136102EBAD119F8E0
:104A9000015F0834002DA7D140F2F80041F22971DE
:104AA000C2F20000C0F60101026806A8FBF7F2FBA3
:104AB0009DF81850002D5FD04CF6982886240DF1F3
:104AC0001809C0F6000800BFE11DA0B2CB238AB2CE
:104AD000BC2100F037FFA5F120000026C0B208EB92
:104AE000001700BFBD5D15F0010F0CBF4FF6FF7042
:104AF0004FF4784000F018FAA80754BF4FF6FF7043
:104B00004FF4784000F010FA680754BF4FF6FF707A
:104B10004FF4784000F008FA280754BF4FF6FF70B2
:104B20004FF4784000F000FAE80654BF4FF6FF70EB
:104B30004FF4784000F0F8F9A80654BF4FF6FF7024
:104B40004FF4784000F0F0F9680654BF4FF6FF705C
:104B50004FF4784000F0E8F9280654BF4FF6FF7094
:104B60004FF4784000F0E0F90136102EBAD119F870
:104B7000015F0834002DA7D140F2FC0041F22971F9
:104B8000C2F20000C0F60101026806A8FBF782FB32
:104B90009DF81850002D5FD04CF6982886240DF112
:104BA0001809C0F6000800BFE11DA0B2DB238AB2DD
:104BB000CC2100F0C7FEA5F120000026C0B208EB12
:104BC000001700BFBD5D15F0010F0CBF4FF6FF7061
:104BD0004FF4784000F0A8F9A80754BF4FF6FF70D3
:104BE0004FF4784000F0A0F9680754BF4FF6FF700B
:104BF0004FF4784000F098F9280754BF4FF6FF7043
:104C00004FF4784000F090F9E80654BF4FF6FF707B
:104C10004FF4784000F088F9A80654BF4FF6FF70B3
:104C20004FF4784000F080F9680654BF4FF6FF70EB
:104C30004FF4784000F078F9280654BF4FF6FF7023
:104C40004FF4784000F070F90136102EBAD119F8FF
:104C5000015F0834002DA7D140F2F000C2F200003D
:104C6000006806F04BFF0B4641F23371024606A87E
:104C7000C0F60101FBF70EFB9DF81850002D5FD028
:104C80004CF6982886240DF11809C0F6000800BFDC
:104C9000E11DA0B2EB238AB2DC2100F053FEA5F1A6
:104CA00020000026C0B208EB001700BFBD5D15F064
:104CB000010F0CBF4FF6FF704FF4784000F034F94D
:104CC000A80754BF4FF6FF704FF4784000F02CF95E
:104CD000680754BF4FF6FF704FF4784000F024F996
:104CE000280754BF4FF6FF704FF4784000F01CF9CE
:104CF000E80654BF4FF6FF704FF4784000F014F907
:104D0000A80654BF4FF6FF704FF4784000F00CF93E
:104D1000680654BF4FF6FF704FF4784000F004F976
:104D2000280654BF4FF6FF704FF4784000F0FCF8AF
:104D30000136102EBAD119F8015F0834002DA7D121
:104D400040F2EC10C2F20000006807F0FDF800210C
:104D5000C4F2C82106F0C6FF06F0D0FE02460B469C
:104D600006A867A1FBF796FA9DF81850002D5FD0B2
:104D70004CF6982886240DF11809C0F6000800BFEB
:104D8000E11DA0B24B238AB23C2100F0DBFDA5F16E
:104D900020000026C0B208EB001700BFBD5D15F073
:104DA000010F0CBF4FF6FF704FF4784000F0BCF8D5
:104DB000A80754BF4FF6FF704FF4784000F0B4F8E6
:104DC000680754BF4FF6FF704FF4784000F0ACF81E
:104DD000280754BF4FF6FF704FF4784000F0A4F856
:104DE000E80654BF4FF6FF704FF4784000F09CF88F
:104DF000A80654BF4FF6FF704FF4784000F094F8C7
:104E0000680654BF4FF6FF704FF4784000F08CF8FE
:104E1000280654BF4FF6FF704FF4784000F084F836
:104E20000136102EBAD119F8015F0834002DA7D130
:104E30004CF698285625AE240DF11809C0F6000846
:104E4000ADF8185008E000BF19F8015F0834002DD4
:104E500004BF13B0BDE8F08FE11DA0B24B238AB2AE
:104E60003C2100F06FFDA5F120000026C0B208EB48
:104E7000001700BFBD5D15F0010F0CBF4FF6FF70AE
:104E80004FF4784000F050F8A80754BF4FF6FF7079
:104E90004FF4784000F048F8680754BF4FF6FF70B1
:104EA0004FF4784000F040F8280754BF4FF6FF70E9
:104EB0004FF4784000F038F8E80654BF4FF6FF7022
:104EC0004FF4784000F030F8A80654BF4FF6FF705A
:104ED0004FF4784000F028F8680654BF4FF6FF7092
:104EE0004FF4784000F020F8280654BF4FF6FF70CA
:104EF0004FF4784000F018F80136102EBAD1A3E72D
:104F000025342E326600000080B5FDF75BFC02F010
:104F100035FA0120FCF7EAFE4FF44070FDF72AF95C
:104F2000BDE8804003F0CEB810B50446000A00F09A
:104F300007F8E0B2BDE8104000F002B8AFF300801F
:104F4000B0B541F6000405460221C4F20104204632
:104F5000FCF76EFA20460821FCF76AFA68B2B0F155
:104F6000FF3F04DD20462021FCF762FA03E02046E3
:104F70002021FCF75FFA20460821FCF75BFA204667
:104F80000821FCF755FA680604D420462021FCF7D6
:104F90004FFA03E020462021FCF74CFA2046082176
:104FA000FCF748FA20460821FCF742FAA80604D488
:104FB00020462021FCF73CFA03E020462021FCF7A4
:104FC00039FA20460821FCF735FA20460821FCF77B
:104FD0002FFAE80604D420462021FCF729FA03E042
:104FE00020462021FCF726FA20460821FCF722FA69
:104FF00020460821FCF71CFA280704D4204620216B
:10500000FCF716FA03E020462021FCF713FA2046AD
:105010000821FCF70FFA20460821FCF709FA680777
:1050200004D420462021FCF703FA03E02046202187
:10503000FCF700FA20460821FCF7FCF9204608217D
:10504000FCF7F6F9A80704D420462021FCF7F0F974
:1050500003E020462021FCF7EDF920460821FCF76B
:10506000E9F920460821FCF7E3F9E80704D12046D6
:105070002021FCF7DDF903E020462021FCF7DAF9D6
:1050800020460821FCF7D6F920460221BDE8B040B1
:10509000FCF7D0B9242200210228C4F200020BD070
:1050A000042807D003284FF0000018BF704702F50E
:1050B000806201E002F50062B2F9000011807047E1
:1050C00070B58AB04FF4047001210125FDF772F824
:1050D0004FF40040FDF758F842F200440026042047
:1050E00001A9C4F201040396ADF80400A4F5E05050
:1050F000FBF7F6FF2046FBF7EDFE4FF46020CDE90D
:105100000466069604A9CDE9070620468DF82450CA
:10511000FBF722FF20460121FBF7D2FE2046FBF7DA
:1051200079FF00BF2046FBF713FF0028FAD1204685
:10513000FBF780FF2046FBF7FDFE0028FAD10AB0FE
:1051400070BD000010B584B041F218000124C4F213
:105150000200016841F011010160012002F05EF9D6
:1051600010200121FDF726F84820ADF8044001A9E0
:1051700003900320029041F20000C4F20100FBF70B
:10518000AFFF04B010BD000010B500F0B3F941F658
:1051900000041021C4F201042046FCF749F9642000
:1051A00002F00EF920461021FCF744F9642002F0C9
:1051B00007F920464021FCF73DF9642002F000F990
:1051C00020460421FCF734F91120FFF7B9FE2046F0
:1051D0000421FCF72FF9782002F0F2F82046042190
:1051E000FCF726F93620FFF7ABFE20460421FCF73A
:1051F00021F90020FFF7A4FE20460421FCF718F94E
:105200003A20FFF79DFE20460421FCF713F9052004
:10521000FFF796FE20460421FCF70AF9B220FFF7BB
:105220008FFE20460421FCF705F90C20FFF788FECD
:105230000C20FFF785FE0020FFF782FE3320FFF7EA
:105240007FFE3320FFF77CFE20460421FCF7F0F8B8
:10525000B720FFF775FE20460421FCF7EBF8352058
:10526000FFF76EFE20460421FCF7E2F8BB20FFF7B3
:1052700067FE20460421FCF7DDF83220FFF760FED0
:1052800020460421FCF7D4F8C220FFF759FE20463F
:105290000421FCF7CFF80120FFF752FE204604213D
:1052A000FCF7C6F8C320FFF74BFE20460421FCF7AD
:1052B000C1F81520FFF744FE20460421FCF7B8F89A
:1052C000C420FFF73DFE20460421FCF7B3F8202060
:1052D000FFF736FE20460421FCF7AAF8C620FFF7A8
:1052E0002FFE20460421FCF7A5F80F20FFF728FE2B
:1052F00020460421FCF79CF8D020FFF721FE204631
:105300000421FCF797F8A420FFF71AFEA120FFF76D
:1053100017FE20460421FCF78BF8E020FFF710FE73
:1053200020460421FCF786F8D020FFF709FE08206C
:10533000FFF706FE0E20FFF703FE0920FFF700FE31
:105340000920FFF7FDFD0520FFF7FAFD3120FFF7EB
:10535000F7FD3320FFF7F4FD4820FFF7F1FD17209C
:10536000FFF7EEFD1420FFF7EBFD1520FFF7E8FD3A
:105370003120FFF7E5FD3420FFF7E2FD2046042150
:10538000FCF756F8E120FFF7DBFD20460421FCF78F
:1053900051F8D020FFF7D4FD0820FFF7D1FD0E20F3
:1053A000FFF7CEFD0920FFF7CBFD0920FFF7C8FD71
:1053B0001520FFF7C5FD3120FFF7C2FD3320FFF7B1
:1053C000BFFD4820FFF7BCFD1720FFF7B9FD1420F3
:1053D000FFF7B6FD1520FFF7B3FD3120FFF7B0FD55
:1053E0003420FFF7ADFD20460421FCF721F82120F1
:1053F000FFF7A6FD20460421FCF71CF820460421F7
:10540000FCF716F82920FFF79BFD20460421BDE894
:105410001040FCF70FB80000F0B58BB0012001245C
:1054200001F0FCFF08200121FCF7B8FE4520012116
:10543000FCF7C0FE40200121FCF7BCFE102008AEA6
:1054400003270A90ADF8204040F600443146099702
:10545000C4F2000404F586352846FBF741FE2846D1
:105460000121FBF7E7FF04200121FCF7A3FE182030
:1054700031460A900F20ADF8200004F57C400997D2
:10548000FBF72EFE4FF47A7005A906904720059091
:105490002046FDF74DFF002001ADADF80C00602067
:1054A0002946C0F2010001902046FDF73DFE20464E
:1054B0000821FDF773FE20462946FDF775FE2046BC
:1054C0000821FDF7AFFE20462946FDF7B3FE204632
:1054D0000821FDF7EDFE20462946FDF7EFFE2046A8
:1054E0000821FDF71BFF20460121FDF793FC0BB0BF
:1054F000F0BD000070B584B040200121FCF75AFED9
:1055000041F600041026022001AD0396ADF8040018
:105510000320C4F20104294602902046FBF7E0FD77
:1055200020460221FBF786FF28202946ADF804001B
:105530002046FBF7D5FD20462821FBF77BFF4420C2
:105540002946ADF804002046FBF7CAFD204648F284
:105550002001FBF76FFF20462946ADF80460FBF7FA
:10556000BFFD20461021FBF765FF04B070BD0000B1
:1055700040F22421C2F20001086040F22000002124
:10558000C2F2000001607047B0B540F2001540F271
:1055900030220021C4F22225C2F200022B681488B6
:1055A000002B08BF611C11802A6842B940F23223E7
:1055B000C2F200031A78002A04BF01221A7040F2D6
:1055C000342EC2F2000E9EF8002002BB40F23222BE
:1055D00040F22C2CC2F20002C2F2000C1278BCF88D
:1055E0000030012A05D1013301228EF80020ACF8E9
:1055F00000309AB2022A0AD140F22E200021C2F2D3
:105600000000ACF8001001800221C8B2B0BD2A68C9
:10561000012A07D140F232230022C2F200038EF8A1
:1056200000201A7040F22C2EC2F2000EBEF80020AC
:10563000012A1EBF0021C8B2B0BD40F22E2C8BB291
:10564000C2F2000C8342BCF8002002F10102ACF867
:1056500000200AD291B2814207D900200121ACF882
:105660000000AEF80000C8B2B0BD00218342C8B24D
:1056700084BFACF80010AEF80010B0BDB0B584B077
:1056800070200121FCF796FD102041F6000401ADC9
:1056900003904FF44160C4F201042946ADF80400C0
:1056A00003200290A4F58060FBF71AFD4FF48050B0
:1056B0002946ADF80400A4F50060FBF711FD4FF496
:1056C00080602946ADF804002046FBF709FD20461E
:1056D0004FF48061FBF7AEFE04B0B0BDF0B587B00B
:1056E00004464FF400300121FCF758FD2020012131
:1056F0002025FCF75FFD08200121FBF761FE032058
:1057000004AF0590ADF8105044F20045182039461A
:10571000C4F20005069005F550463046FBF7E0FC64
:105720000420394606904020ADF810003046FBF7C3
:10573000D7FC0020009469460190ADF80C004FF4AE
:10574000402002902846FDF7CBFE28460121FDF7B8
:1057500083FE07B0F0BD0000F0B587B004464FF4FB
:1057600080200121FCF71AFD20200121FCF722FDF9
:1057700030200121C0F21400FBF722FE44F60005A0
:10578000032004AF05904FF48070C4F20005394641
:10579000ADF81000182005F54C4606903046FBF792
:1057A0009FFC0420394606904FF40070ADF81000BD
:1057B0003046FBF795FC0020009469460190ADF857
:1057C0000C004FF4402002902846FDF789FE284641
:1057D0000121FDF741FE07B0F0BD0000F0B587B034
:1057E00004464FF400200121FCF7D8FC10200121D1
:1057F000FCF7E0FC44F60045032004AF05904FF4AD
:105800008060C4F200053946ADF81000182005F597
:10581000444606903046FBF763FC04203946069068
:105820004FF40060ADF810003046FBF759FC002043
:10583000009469460190ADF80C004FF440200290AE
:105840002846FDF74DFE28460121FDF705FE07B06D
:10585000F0BD00002DE9F04140F62C480746C4F2A7
:105860000008B8F8080006F087FB0446B8F8000006
:1058700006F082FB0146204606F034FA0446B8F8EA
:105880000C0006F079FB0546B8F8000006F074FB42
:105890000146284606F026FA0546B8F8100006F03C
:1058A0006BFB0646B8F8000006F066FB0146304682
:1058B00006F018FA0646C82F38BFBDE8F081B7F5E4
:1058C0007A7F3CD0384605F0B3FD0B4648F2804164
:1058D00002460020C4F22E1105F0A2FB05F064FD83
:1058E000A8F80000B8F8140000281EBFB8F800009F
:1058F0004008A8F81400B8F8000006F03DFB014687
:10590000204606F0B5FB06F0FFFAA8F80800B8F844
:10591000000006F031FB0146284606F0A9FB06F020
:10592000F3FAA8F80C00B8F8000006F025FB0146D1
:10593000304606F09DFB06F0E7FAA8F81000BDE837
:10594000F08100002DE9F04141F600040E460546C5
:10595000042198461746C4F201042046FBF768FD6F
:105960002A20FFF7EDFA20460421FBF763FD280A01
:10597000FFF7E6FAE8B2FFF7E3FA380AFFF7E0FAD2
:10598000F8B2FFF7DDFA20460421FBF751FD2B208A
:10599000FFF7D6FA20460421FBF74CFD300AFFF74B
:1059A000CFFAF0B2FFF7CCFA4FEA1820FFF7C8FAA7
:1059B0005FFA88F0FFF7C4FA20460421FBF738FDB0
:1059C0002C20FFF7BDFA20460421BDE8F041FBF78B
:1059D00031BD0000F0B58BB041F21800C4F20200F6
:1059E000016841F400610160012001F017FD42F6F9
:1059F0003C4601200027C4F201063780B78001F041
:105A00000DFDC0200121C0F21600FBF7D9FC4FF4B8
:105A100000600121FCF7CEFB41200121FCF7CAFB0D
:105A2000032042F6004408A909901820C4F201049A
:105A30000A904FF4C040ADF82000A4F5A050FBF749
:105A40004FFB41F61F4005A9CDE905702046FDF743
:105A50006FFC602001ADC0F2010029460190204694
:105A6000CDF80A70FDF7E6FB20460821FDF720FC83
:105A700020462946FDF722FC20460821FDF74EFC72
:105A800020460121FDF7D0F920460121FDF7B4F9A8
:105A900020460121FDF7BEF93780B7800BB0F0BD7D
:105AA00040F62C410028C4F200010EBF00200888F7
:105AB000400888827047000070B540F2200600213F
:105AC000C2F200063468204606F0F9F890B340F2BE
:105AD0002400C2F2000000680138052800F2E581C8
