:020000040800F2
:1000000058090020F101000839220008BD19000834
:100010003522000841100008C53300080000000028
:1000200000000000000000000000000003020008C3
:10003000FD11000800000000070200080902000886
:100040000B0200080B0200080B0200080B0200085C
:100050000B0200080B020008011200080B02000846
:100060000B0200080B0200080B0200080B0200083C
:100070000B0200080B0200080B0200080B0200082C
:100080000B0200080B0200080B0200080B0200081C
:100090000B0200080B0200080B020008BD1200084A
:1000A0000B0200080B0200080B0200080B020008FC
:1000B00079260008392B00084D2B00080B02000898
:1000C0000B0200080B0200080B0200080B020008DC
:1000D0000B02000865300008993100080B02000887
:1000E0001D1200080B0200080B0200080B0200089A
:1000F0000B0200080B0200080B0200080B020008AC
:100100000B0200080B0200080B0200080B0200089B
:100110000B0200080B0200080B0200080B0200088B
:100120000B0200080B0200080B0200080B0200087B
:1001300000F002F800F04DF80AA090E8000C8244AC
:100140008344AAF10107DA4501D100F042F8AFF289
:10015000090EBAE80F0013F0010F18BFFB1A43F0A5
:1001600001031847D0130100F0130100103A24BF17
:1001700078C878C1FAD8520724BF30C830C144BF0C
:1001800004680C607047000000230024002500264E
:10019000103A28BF78C1FBD8520728BF30C148BFEA
:1001A0000B60704766290CF0E087642900F0AE8090
:1001B000782900F0E780002070471FB500F00AFDA5
:1001C0000400002000210BF0D1FCE0601FBD10B541
:1001D00010BD00F007FE1146FFF7EFFF08F0ECFD41
:1001E00000F025FE03B4FFF7F2FF03BC07F01AFF8F
:1001F0000948804709480047FEE7FEE7FEE7FEE7BB
:10020000FEE7FEE7FEE7FEE7FEE7FEE704480549F6
:10021000054A064B704700002125000831010008FF
:1002200058030020580900205805002058050020D8
:10023000704710B54C1084EA530404D54042C1F114
:10024000000138BF491E1B4204D55242C3F10003CE
:1002500038BF5B1E00F0A4F914F0804F04D0404278
:10026000C1F1000138BF491E14F0004F04D05242C2
:10027000C3F1000338BF5B1E10BD00000FB404497A
:1002800010B503AA029800F093FC10BC5DF814FBB3
:10029000800200200FB41CB5074B06AA7B446946B8
:1002A0000090059800F06BFC0020694600F07AFC95
:1002B0001CBC5DF814FB00000509000070B5044685
:1002C00085690068C10601D5302600E02026C007F8
:1002D00007D070BDD4E9012130469047206A401C08
:1002E00020626D1EF6D570BD70B504468569007834
:1002F000C00707D170BDD4E9012120209047206AB2
:10030000401C20626D1EF6D570BD00002DE9F04145
:100310000646002410687529314616A510D0AFF3A3
:100320000080002802DA404213A507E031688A07FE
:1003300001D512A502E0490704D511A5012401E069
:10034000AFF3008000210A2206F1240709E0B0FB88
:10035000F2FCB0FBF2F302FB1C003030785418467C
:10036000491C0028F3D123462A463046BDE8F04117
:1003700000F098B9000000002D0000002B000000E4
:100380002000000070B504460D4621461068AFF30A
:1003900000802188090502D50F4A7A4402E00E4AFE
:1003A0007A440E32002104F1240305E000F00F0628
:1003B0000009965D5E54491C0028F7D1207800237F
:1003C000000704D5702D02D009B102231132204656
:1003D000BDE8704000F066B90CCF00002DE9F05F79
:1003E000894604464FF0000ADFF824B1FB44C0F808
:1003F00020A02046E168884700287DD0252806D027
:10040000D4E901219047206A401C2062F1E70025D1
:100410005F462046E16888472028064607DB312EE4
:1004200005D2B81910F8200C08B10543F1E7A80768
:1004300001D525F00405C4F81CA00027C4F818A0B5
:100440002A2E09D030460AF0F2FE38B304EB8708B2
:10045000303EC8F8186019E059F8041B204604EB38
:1004600087029161E1688847012F064618D1E0694B
:10047000002820DA25F020051DE0D8F8180000EB50
:10048000800006EB40003038C8F818002046E168CC
:10049000884706460AF0CBFE0028EED1012F0AD08D
:1004A0002E2E08D12046E16888477F1C0646022F81
:1004B00045F02005C4DBA069002803DA404245F07E
:1004C0000105A061E80701D025F01005A6B1A6F14D
:1004D0004100192802D8203645F400654A463146C5
:1004E000204625604D46FFF75DFE60B1012807D02C
:1004F000ED1D25F0070000E007E000F1080978E7AE
:1005000005F1040975E730467AE7206ABDE8F09FF7
:10051000E2CE000010B5044603E008F067FA401C84
:1005200009D014F8010B05490028F6D1BDE81040A8
:100530000A2008F05BBA4FF0FF3010BD80020020A7
:1005400040EA010310B59B070FD1042A0DD310C850
:1005500008C9121F9C42F8D020BA19BA884201D9A2
:10056000012010BD4FF0FF3010BD1AB1D30703D0EA
:10057000521C07E0002010BD10F8013B11F8014BA0
:100580001B1B07D110F8013B11F8014B1B1B01D1BC
:10059000921EF1D1184610BD7047704770477047E2
:1005A00053EA020C00F069802DE9F04B4FF0000691
:1005B000002B1FBFB3FA83F503FA05F424FA05F6FE
:1005C0005E4012BF1643B2FA82F502FA05F4C5F195
:1005D00020051EBF22FA05FC44EA0C04203556EA29
:1005E000044C4FEA144418BF641C4FF000084FF04D
:1005F0000009904271EB030C39D3002919BFB1FAFD
:1006000081F701FA07F6B0FA80F700FA07F6C7F1AA
:1006100020071EBF20FA07FC46EA0C062037B6FB6F
:10062000F4FCA7EB0507103F07F01F0BCBF12006EA
:100630002CFA06F60CFA0BFB44BFB3460026202F1B
:10064000A4BF5E464FF0000B5BEA060C08BF4FF0FC
:10065000010B19EB0B0948EB0608ABFB027C06FB10
:1006600002CC0BFB03CCC01B71EB0C01C1E70B46AA
:10067000024641464846BDE8F08B13B54FF00000F6
:100680004FF00001AFF30080BDE81C40704710B58B
:1006900000F0A4FA006810BD10B5044600F09EFA00
:1006A000046010BD2DE9F0470D4699469246044678
:1006B00000F124080168880604D5E06921F01001E2
:1006C000216000E00120A84201DD471B00E0002777
:1006D000A1697A1902EB0900081AA0612078C00606
:1006E00002D42046FFF7EAFD002608E0D4E9012104
:1006F0001AF806009047206A401C761C20624E457E
:10070000F4DB2078C0060AD52046FFF7D7FD06E0C7
:10071000D4E9012130209047206A401C2062381E15
:10072000A7F10107F4DC07E0D4E9012118F805007E
:100730009047206A401C2062281EA5F10105F3DCC9
:100740002046FFF7D1FD2078000602D50220BDE843
:10075000F0870120FBE72DE9FF4F0C461E464FF0C6
:10076000FF378BB0D2E90001DDF860800A908A463D
:10077000C1F30A5505B93D46002108464FF0000077
:10078000BAF1000F00F4400005DA00EB80004FF4EE
:10079000400101EA50004FEA9059B9F1010F00DD24
:1007A000B9460A9850EA4A000ED044F61050A5F215
:1007B000FF3545432F14B8F1000F1ED07542291E96
:1007C0001EDDC9F100021CE0B8F1010F4FF000007E
:1007D00001D0302103E0F24305E02154401CB04237
:1007E000FBDB30460022002121540B99C1F8088020
:1007F000C1E900200FB0BDE8F08FBD1B6D1CDEE726
:100800004A4600DA694206A800F072FA06AB93E89D
:10081000070003AB83E8070050460A990AF0A9F8DD
:100820008DE80700A0F500501F3800900398002DB8
:100830000ADD42F21F014A460844002303A903903F
:1008400068460AF012FB09E0A0F500504A461F383E
:10085000002303A9039068460AF01CFB8DE80700FB
:100860000004000C03D04FF0FF30410800E01046B8
:10087000B8F1000F03D00022009215461EE0751E4D
:1008800005D400F0AFF9303262556D1EF9D5B3468C
:100890000122084302D000227F1C04E02078302887
:1008A00001D100227F1E002A099784D01DE0112D5E
:1008B00007DA00F097F9303262556D1C50EA0102F8
:1008C000F5D1084302D00098C8B10EE00021681E9F
:1008D00005E0235C625C63542254401E491C814243
:1008E000F7DBAB46A81B401E0990002004F80B0064
:1008F0000B98099AC0F80880C0E9002B7AE7112606
:100900004FF0000857E72DE9F04F88460446D21D06
:1009100022F0070191B0D1E90001CDE90A010AF006
:10092000F0FB02460B98C00F01D02D2007E0206895
:10093000810701D52B2002E0202101EAC000032A13
:10094000099001D0072A05DB03464146204600F006
:100950008FF90BE12078800601D5E06900E00620E0
:10096000B8F1650F814606D0B8F1660F18D0B8F11E
:10097000670F70D131E00020B9F1110F009001DB59
:10098000112301E009F101030AAA01A90CA8FFF74C
:10099000E2FEDDE90C70002609F10105834647E01F
:1009A00001204B4600904FF000470AAA01A90CA86D
:1009B000FFF7D1FEDDE90DB00C995D46002610B9B8
:1009C00009F101000D18B9EB050003D4C0F1FF36A1
:1009D00009F10105A5EB09002BE0B9F1010F01DADE
:1009E0004FF001090020B9F1110F0090484601DDD8
:1009F000112300E003460AAA01A90CA8FFF7ABFEE9
:100A0000DDE90C704D4600268346207800070AD4A5
:100A1000AB4500DA5D4601A8012D04DD411911F84E
:100A2000011C302907D04F4502DA17F1040F04DA10
:100A3000012082460FE06D1EEEE7002F02DCED1B69
:100A40003E4403E0781CA84200DD7D1CB81B00F189
:100A5000010A4FF000472078000703D4AA4501DBC4
:100A60004FF0FF3A0021B7F1004F0DF143088DF828
:100A7000431024D002202B23002F01DA7F422D23A4
:100A80000A21021EA0F1010000DC5FB197FBF1FC1E
:100A900097FBF1F201FB1C7C17460CF1300C08F8B7
:100AA00001CDEEE7A8F1010003702188090501D509
:100AB000452100E06521A0F1010800F8011C09981A
:100AC0000FA9A1EB0807FF1D00B10120411901EB9F
:100AD000EA70A1693844081A401EA0612078C00657
:100AE00002D42046FFF7EAFB099828B1D4E9012196
:100AF0009047206A401C20622078C00622D52046FC
:100B0000FFF7DCFB1EE0002E04DBB34502DD01A88D
:100B1000805D00E03020D4E901219047206A401C2C
:100B20002062761CAAF101005FEA000A0AD100F0F7
:100B300051F8C0680168405CD4E901219047206AFF
:100B4000401C2062281EA5F10105DCDC07E0D4E989
:100B5000012118F8010B9047206A401C2062381EC2
:100B6000A7F10107F3DC2046FFF7BEFB032011B01D
:100B700041E6000001694A1C02610878704700B52F
:100B80008FB0CDE901310021059105497944CDE9C6
:100B9000031011466846FFF721FC0FB000BD0000AE
:100BA000E5FFFFFF0A6802F8010B0A6070470000CA
:100BB000074B70B50D467B44FFF7E1FF044628461E
:100BC00000F008F910B14FF0FF3070BD204670BD45
:100BD000337E000000487047E00000200048704766
:100BE000C000002030B5B0F10A0271F100034FEAF5
:100BF000900E4EEA817EB0EB0E0061EB91014FEA60
:100C0000101E4EEA017E10EB0E0041EB11114FEA6F
:100C1000102E4EEA016E10EB0E0041EB11214FEA4F
:100C2000104E4EEA014E10EB0E0041EB1141401800
:100C300041F100014FEAD00040EA41704FEAD10192
:100C40004FEA810444EA907410EB800544EB010400
:100C50006D1944EB0404521BA3414FF0000348BF3D
:100C60000A3200D530BD401C41F1000130BD00000A
:100C70002DE9F0411F46044603260168072A01F4C6
:100C8000006004DB08B116A505E016A503E008B175
:100C900015A500E015A521F010002060A069C01E78
:100CA000A0610FB1401EA0612046FFF707FB4FB1C6
:100CB000D4E9012138469047206A401C2062C01CBC
:100CC000206206E0206AFAE7D4E9012115F8010B59
:100CD0009047761EF8D22046FFF706FBBDE8F0816C
:100CE0004E414E006E616E00494E4600696E6600D0
:100CF0002DE9F047814616468AB0354878440DC83C
:100D00008DE80D0032487844801C03AC0DC884E89F
:100D10000D0041F69B300844372190FBF1F290FB27
:100D2000F1F5A5F1800501FB12041B3C02D56442DC
:100D3000012000E00020DFF898A080460027FA4458
:100D4000AAF1BE0A0EE0E0070AD03246684607EB79
:100D5000470101230AEB81010AF09CF88DE80700A6
:100D600064107F1C002CEED1194F7F44AE3F19E078
:100D7000E80715D007EB04100DF1180A90E80E00F3
:100D80008AE80E00C068F04201D1981908903246F6
:100D9000012306A903A80AF07DF803AB83E8070046
:100DA0006D10641C002DE3D14FF0010332466946FB
:100DB000B8F1000F03A802D00AF057F801E00AF0DA
:100DC00069F8C9E90001C9F808200AB0BDE8F08750
:100DD00054C70000007B00F0800070470048704757
:100DE000C00000207546FFF7F9FFAE4605006946D2
:100DF000534620F00700854618B020B5FFF706FAE5
:100E0000BDE820404FF000064FF000074FF000080B
:100E10004FF0000BAC46ACE8C009ACE8C009ACE848
:100E2000C009ACE8C00921F007018D46704710B534
:100E30000446AFF300802046BDE81040FFF7D2B96A
:100E40004FF0013C50F8042B51F8043B9A4221D159
:100E5000A2EB0C03934313EACC1317D150F8042BE5
:100E600051F8043B9A4215D1A2EB0C03934313EAC9
:100E7000CC130BD150F8042B51F8043B9A4209D102
:100E8000A2EB0C03934313EACC13DBD04FF000002A
:100E9000704700BFD01A01BAB1FA81F101F0180110
:100EA00022FA01F0CB40DBB2C0B2C01AC1F120017E
:100EB0002CFA01F3D11A914311EAC311E6D170471C
:100EC0008268002942F0010308BF22F00103836019
:100ED0007047000080B543F60041C4F2010188422A
:100EE00014D042F60001C4F20101884216D042F249
:100EF0000041C4F20101884218BF80BD4FF4007068
:100F0000012101F0F7F94FF400700EE04FF40040BA
:100F1000012101F0EFF94FF4004006E04FF480604A
:100F2000012101F0E7F94FF480600021BDE8804025
:100F300001F0E0B98068C0F380007047C06C80B2F7
:100F4000704700000068084018BF0120704700008B
:100F50008068C0F3C000704780B54FF6FF634268F9
:100F6000CFF6F07302EA030CD1E9003243EA0C0336
:100F700043EA02224FF2FD734260CFF6F1738268BA
:100F800002EA030ED1E902C30A6942EA0E021A43D9
:100F900042EA4C028260C26A097D013922F4700281
:100FA000C9B242EA0151C16280BD000010B501EB37
:100FB000410C092988BFACF11E0C092903FA0CFE6B
:100FC0004FF0070303FA0CFC4FF0100388BF0C230B
:100FD000062AC45824EA0C0444EA0E04C45003D878
:100FE00034306FF0040307E00C2A87BF2C306FF019
:100FF000400330306FF0220302EB82021A441F23B9
:10100000914003FA02F2036823EA020211430160ED
:1010100010BD0000816841F0080181607047000048
:101020008268002942F4A00308BF22F4A003836071
:1010300070470000816841F0040181607047000042
:10104000FEE70000411EC8B2092802D90020C0B244
:10105000704740F2381024220929C2F200000270C1
:10106000F4D8DFE801F0050A0F14191E23282E34E6
:10107000052141710620C0B27047092141720A2042
:10108000C0B270470D2141730E20C0B270471121CC
:1010900041741220C0B27047152141751620C0B2AC
:1010A0007047192141761A20C0B270471D2141773F
:1010B0001E20C0B27047212180F821102220C0B22A
:1010C0007047252180F825102620C0B270472921BD
:1010D00080F829102A20C0B2704700000139CAB236
:1010E000092A98BF092900D97047DFE801F00511E6
:1010F0001D2935414D59667640F23811020AC2F277
:10110000000148708A70020C000ECA7008717047A6
:1011100040F23811020AC2F2000148718A71020CD1
:10112000000ECA710872704740F23811020AC2F20A
:10113000000148728A72020C000ECA72087370476E
:1011400040F23811020AC2F2000148738A73020C9D
:10115000000ECA730874704740F23811020AC2F2D6
:10116000000148748A74020C000ECA740875704736
:1011700040F23811020AC2F2000148758A75020C69
:10118000000ECA750876704740F23811020AC2F2A2
:10119000000148768A76020C000ECA7608777047FE
:1011A00040F23811020AC2F2000148778A77020C35
:1011B000000ECA7781F82000704740F23811020A09
:1011C000C2F2000181F8210081F82220020C000EF9
:1011D00081F8232081F82400704740F23811020A78
:1011E000C2F2000181F8250081F82620020C000ED1
:1011F00081F8272081F82800704700007047000020
:1012000080B5012000F09EF841F200000121C4F2F7
:101210000100BDE8804000F043BA0000B0B541F2E3
:1012200000444FF48051C4F20104204600F038FA23
:10123000012808D120464FF4005100F031FA40F265
:10124000E021002816E020464FF4805100F028FAF3
:10125000054620464FF4005100F022FA3DB1012826
:101260001ED1A4F580604FF4805100F019FA40F2CD
:10127000E0210128C2F20001096801D0481C00E009
:10128000481E40F2E021C2F2000108604FF4805095
:1012900000F058F84FF40050BDE8B04000F052B8EC
:1012A000A4F580644FF40051204600F0F9F90028BD
:1012B000ECD120464FF48051BFE70000B0B541F2B9
:1012C00000044021C4F20104204600F0E9F901289D
:1012D00007D12046802100F0E3F940F2E421002804
:1012E00012E02046402100F0DBF90546204680212F
:1012F00000F0D6F92DB101281AD12046402100F086
:10130000CFF940F2E4210128C2F20001096801D0BE
:10131000481C00E0481E40F2E421C2F200010860CF
:10132000802000F00FF84020BDE8B04000F00AB87F
:101330002046802100F0B4F90028F1D12046402158
:10134000C9E7000040F21441C4F20101086070478F
:1013500080B5D1F808E00EF00F0C1EF0100F1CBF86
:101360004B684CEA030C098811F0FF0F00F0A480D1
:101370000368CA070BD023F00F02BEF1480F42EA00
:101380000C0315D0BEF1280F01D1012242618A075A
:1013900012D523F0F002BEF1280F42EA0C131CD044
:1013A000BEF1480F08D1022202614A0706D418E0B4
:1013B000012202618A07ECD44A0712D523F4706235
:1013C000BEF1280F42EA0C231CD0BEF1480F08D111
:1013D000042202610A0719D505E0022242614A0788
:1013E000ECD40A0712D523F47042BEF1280F42EA6A
:1013F0000C331CD0BEF1480F08D108220261CA0686
:1014000006D418E0042242610A07ECD4CA0612D5B9
:1014100023F47022BEF1280F42EA0C431CD0BEF127
:10142000480F08D1102202618A0619D505E008226A
:101430004261CA06ECD48A0612D523F47002BEF1CA
:10144000280F42EA0C531CD0BEF1480F08D12022CD
:1014500002614A0606D418E0102242618A06ECD4E2
:101460004A0612D523F07062BEF1280F42EA0C63DF
:101470001AD0BEF1480F08D1402202610A061AD5DF
:1014800005E0202242614A06ECD40A0613D523F077
:101490007042BEF1280F42EA0C730AD0BEF1480F29
:1014A00009D18022026106E0402242610A06EED4A0
:1014B00001E0802242610360B1F5807F38BF80BDCA
:1014C0004368CA050CD523F00F02BEF1480F42EA6B
:1014D0000C0317D0BEF1280F02D14FF48072426185
:1014E0008A0514D523F0F002BEF1280F42EA0C134E
:1014F0001FD0BEF1480F0AD14FF4007202614A05B5
:1015000007D41BE04FF4807202618A05EAD44A05D1
:1015100014D523F47062BEF1280F42EA0C231FD0C9
:10152000BEF1480F0AD14FF4806202610A051CD552
:1015300006E04FF4007242614A05EAD40A0514D568
:1015400023F47042BEF1280F42EA0C331FD0BEF1E3
:10155000480F0AD14FF400620261CA0407D41BE0AD
:101560004FF4806242610A05EAD4CA0414D523F418
:101570007022BEF1280F42EA0C431FD0BEF1480F83
:101580000AD14FF4805202618A041CD506E04FF460
:1015900000624261CA04EAD48A0414D523F47002BA
:1015A000BEF1280F42EA0C531FD0BEF1480F0AD1FA
:1015B0004FF4005202614A0407D41BE04FF48052FA
:1015C00042618A04EAD44A0414D523F07062BEF161
:1015D000280F42EA0C631ED0BEF1480F0AD14FF427
:1015E0008042026109041BD506E04FF400524261BB
:1015F0004A04EAD4090413D523F07041BEF1280F40
:1016000041EA0C730ED0BEF1480F09D14FF40041EE
:101610000161436080BD4FF4804242610904EBD414
:10162000436080BD4FF400414161436080BD0000D4
:1016300010B50422002800F440141FFA80FCC4F204
:1016400001021346B8BF43F01803B4F5401F1B68EE
:10165000C0F3034E07D1146823F0706324F0706464
:10166000146081B916E0C40206D447F6F07404EAA7
:1016700050440CFA04F402E0032404FA0EF4A343E9
:1016800043F0706331B147F6F07101EA50410CFA52
:1016900001F10B430028B8BF1832136010BD0000E1
:1016A0008068084018BF0120704700004161704702
:1016B000016170472DE9F04F89B0012818D0022848
:1016C00029D140F2F41040F2CC1140F23422C2F29F
:1016D0000000C2F20001C2F2000207F05FFC0DF14F
:1016E000160369203B210E2200F068FEB0B142E0F3
:1016F00040F2F41940F2CC1540F23422C2F2000953
:10170000C2F20005C2F200024846294607F046FC34
:10171000002800F0AE8009B0BDE8F08FBDF81600DB
:10172000C0BA0BF0BBFA8146BDF81800C0BA0BF086
:10173000B5FA0546BDF81A00C0BA0BF0AFFA064676
:10174000BDF81E00C0BA0BF0A9FA0BF081F80446F0
:10175000BDF820000F46C0BA0BF0A0FA0BF078F8E5
:10176000CDE90010BDF82200C0BA0BF097FA0BF0DB
:101770006FF8CDE9021046F26663204639464FF015
:101780006632C4F230031F460AF0F4FA0AF004FA93
:1017900040F20C32C2F20002D2E9001492680492C4
:1017A0000BF06EFC834640F29C103146C2F2000002
:1017B000C0F800B028460AF057F840F2000AC4F218
:1017C000343A51460BF0FEFA40F6DB75C4F2490597
:1017D00029460BF031F98046484631460AF044F874
:1017E000B14606464046594600F0FAFA40F2CC1897
:1017F0004FF066323B46C2F20008C8F80000DDE94F
:1018000000100AF0B7FA0AF0C7F921460BF038FCCD
:101810000446304651460BF0D5FA29460BF00CF938
:10182000214600F09DFB40F2F4114FF066323B463A
:10183000C2F200010860DDE902100AF09BFA0AF02A
:10184000ABF904990BF01CFC40F2A011C2F20001AC
:10185000086040F22C1040F23011C2F20000C2F2D7
:101860000001C0F80090D8F80000086009B0BDE899
:10187000F08F0DF1160369203B210E2200F09EFD32
:1018800000B11AE0BDF81E00C0BA0BF007FA0AF06A
:10189000DFFF0746BDF820000C46C0BA0BF0FEF98A
:1018A0000AF0D6FF0290BDF822008B46C0BA0BF0BA
:1018B000F5F90AF0CDFFCDE9031046F26666384629
:1018C00021464FF06632C4F2300633460AF052FA2F
:1018D0000AF0E4FB0BF0E2F940F20C32C2F2000233
:1018E00092E812010BF0CCFB0BF09CF940F2043AA9
:1018F000074659464FF066323346C2F2000AAAF84C
:10190000000002980AF036FA0AF0C8FB0BF0C6F99C
:1019100021460BF0B5FB0BF085F9AAF802004FF059
:1019200066323346DDE903100AF024FA0AF0B6FB0A
:101930000BF0B4F941460BF0A3FB0BF073F9AAF8D6
:10194000040038460BF0AAF90146286800F048FA6E
:101950002860BAF902000BF0A1F90146D9F800009D
:1019600000F0FEFA40F23011C9F800002868BAF918
:101970000440C2F200010860BAF900000BF08EF9D1
:1019800040F29C11C2F20001086020460BF086F97B
:1019900040F2A011C2F20001086040F2D420C2F26D
:1019A0000000B0F904000BF079F940F22C11C2F2FA
:1019B0000001086009B0BDE8F08F0000FEE70000FC
:1019C000022006F081BB000010B584B00820012180
:1019D000012400F083FC102001A903904FF4406023
:1019E000ADF804000320029040F60040C4F201006C
:1019F000FFF7AEFC48F2A810C4F221200460446056
:101A000004B010BD2DE9F04F83B040F604410290C0
:101A100048F2A8154FF0000BC4F20101C4F22125D1
:101A2000086820F470400860086840F400400860CE
:101A300000202860022006F047FB01262E6055F8A2
:101A40007C0C0190012006F03FFB0220C5F800B09D
:101A500006F03AFB2E60012055F87C7C06F034FB42
:101A60000220C5F800B006F02FFB2E60012055F8CB
:101A70007C4C06F029FB0220C5F800B006F024FBE0
:101A80002E60012055F87C8C06F01EFB0220C5F864
:101A900000B006F019FB2E60012055F87C9C06F082
:101AA00013FB0220C5F800B006F00EFB2E600120EB
:101AB00055F87CAC06F008FB0220C5F800B006F033
:101AC00003FB2E60012055F87CBC06F0FDFA0020D7
:101AD0002860022006F0F8FA2E60012055F87C6C90
:101AE00006F0F2FA40F6044200212960C4F2010235
:101AF000106820F470401060106840F4405010608E
:101B00000198002818BF0120002F18BF0127002CC2
:101B100018BF012447EA4000B8F1000F18BF4FF08A
:101B2000010844EA4000B9F1000F18BF4FF0010965
:101B300048EA4000BAF1000F18BF4FF0010A49EA25
:101B40004000BBF1000F18BF4FF0010B4AEA400004
:101B5000002E4BEA400018BF012646EA40040298D6
:101B600048B10220696006F0AFFA01202860022027
:101B700006F0AAFA08E0012602206E6006F0A4FA38
:101B800002202E6006F0A0FA00202860E0B203B028
:101B9000BDE8F08FF0B581B0044640F6044048F24D
:101BA000A8150026C4F20100C4F22125016821F421
:101BB00070410160016841F440510160E0092E600C
:101BC0006860022006F080FA012702202F6006F0EC
:101BD0007BFA02202E6006F077FAC4F3801068606A
:101BE000022006F071FA02202F6006F06DFA022042
:101BF0002E6006F069FAC4F340106860022006F017
:101C000063FA02202F6006F05FFA02202E6006F0D1
:101C10005BFAC4F300106860022006F055FA022057
:101C20002F6006F051FA02202E6006F04DFAC4F340
:101C3000C0006860022006F047FA02202F6006F01C
:101C400043FA02202E6006F03FFAC4F38000686079
:101C5000022006F039FA02202F6006F035FA022041
:101C60002E6006F031FAC4F340006860022006F0EE
:101C70002BFA02202F6006F027FA02202E6006F0D1
:101C800023FA04F001006860022006F01DFA022029
:101C90002F6006F019FA2E60022001B0BDE8F04076
:101CA00006F012BAB0B540F6044048F2A814C4F2E7
:101CB0000100C4F22124016821F47041016001682F
:101CC00041F440510160012060602060042006F072
:101CD000FBF900250420656006F0F6F92560B0BD2B
:101CE00010B540F6044048F2A814C4F20100C4F252
:101CF0002124016821F470410160016841F44051E0
:101D00000160002020606060042006F0DDF9012001
:101D1000206060600420BDE8104006F0D5B90000E6
:101D200070B540F6044448F22C150126C4F20104B3
:101D3000C4F22125206820F470402060206840F41F
:101D4000004020600120C5F8806006F0BDF9012048
:101D5000EE6706F0B9F9286888B10020296871B1EA
:101D6000296861B140F00201C9B2F9290BD82A688B
:101D70002AB1F92907D8296804300029EED10024B6
:101D80002046EC6770BD206820F470402060206819
:101D900040F4405020600020E867C5F8800004202F
:101DA00006F092F901240420EC67C5F8804006F0A3
:101DB0008BF9204670BD000041F21801C4F2020107
:101DC0000A6842F001020A600421C4F201010A68B3
:101DD00022F0E0620A600A6842EA406008607047E8
:101DE0002DE9F04F85B0CDE9031040F2A410C2F206
:101DF000000004684FF0004021460BF041F940F22A
:101E0000A811C2F20001096801910BF039F90146ED
:101E100040F28C00C2F20000D0F800B058460AF040
:101E2000D1FF41F26F21C3F683210AF03DFD40F25C
:101E30000805C2F2000529680AF036FD4FF07C5112
:101E400007460AF031FD8046384641460AF0F4FD67
:101E50003946064602900AF0B5FF014638460BF0B7
:101E60000FF9286040F20C005946C2F200000568E4
:101E700028460AF0A7FF8246204651460BF000F99B
:101E80008146304649460AF09DFF014648460BF020
:101E9000F7F840F2A411C2F200010860019851461F
:101EA0000BF0EEF8414606460AF0C6FD39460446F8
:101EB0000AF088FF014630460BF0E2F840F2A81124
:101EC000C2F20001086049F6A6315846C3F6443113
:101ED0000AF078FF29460AF0E7FC05462046494605
:101EE0000AF070FF014628460BF0CAF840F2AC1821
:101EF00040F20C01C2F20008C2F20001D8F8005012
:101F00000860039829460BF0BBF859460AF05AFFBF
:101F100040F2B0190146C2F20009D9F800000AF0F7
:101F2000C3FC0646049831460BF0AAF8029907460E
:101F30000AF048FF014630460AF0B6FC0646C9F8EA
:101F40000000384621460AF03DFF014628460AF0C7
:101F5000ABFCC8F80000304605B0BDE8F08F0000CB
:101F60002DE9F04F83B0CDE9011040F2B410C2F278
:101F70000000076841F26F20C3F6832039460BF05A
:101F80007FF840F2B811C2F200010C6821460BF054
:101F900077F8014640F28C00C2F20000D0F800B0A1
:101FA00058460AF00FFF40F21009C2F20009D9F8B2
:101FB00000100AF079FC4FF07C5105460AF074FCE1
:101FC0008046284641460AF037FD294606460090DD
:101FD0000AF0F8FE014628460BF052F8C9F8000056
:101FE00040F214005946C2F20000D0F800A050465A
:101FF0000AF0E8FE8146384649460BF041F80746AC
:10200000304639460AF0DEFE014638460BF038F815
:1020100040F2B411C2F200010860204649460BF0BC
:102020002FF8414606460AF007FD294604460AF005
:10203000C9FE014630460BF023F840F2B811C2F257
:102040000001086049F6A6315846C3F644310AF04B
:10205000B9FE51460AF028FC0546204639460AF0EA
:10206000B1FE014628460BF00BF840F2BC1840F2D6
:102070001401C2F20008C2F20001D8F80050086052
:10208000019829460AF0FCFF59460AF09BFE40F2EF
:10209000C0190146C2F20009D9F800000AF004FC98
:1020A0000646029831460AF0EBFF009907460AF00F
:1020B00089FE014630460AF0F7FB0646C9F80000E3
:1020C000384621460AF07EFE014628460AF0ECFB1F
:1020D000C8F80000304603B0BDE8F08F2DE9F043AA
:1020E00085B00C4605460DF1060369203B210E2202
:1020F00000F064F900281EBF002005B0BDE8F083A1
:10210000BDF80A00C0BA0AF0C9FDBDF80810BDF854
:102110001280BDF80E90BDF81060BDF80670A86082
:10212000C8BA0AF0BBFD6860F8BA0AF0B7FD2860CB
:10213000F0BA0AF0B3FD0AF08BFB46F266654FF089
:102140006632C4F230052B4609F014FE09F024FD76
:10215000606099FAB9F00AF0A1FD0AF079FB4FF03E
:1021600066322B4609F006FE09F016FD206098FA4B
:10217000B8F00AF093FD0AF06BFB4FF066322B4685
:1021800009F0F8FD09F008FDA060012005B0BDE8E8
:10219000F083000080B5FFF717FC6B20802101F071
:1021A00013F9642005F062FF6B20002101F00CF9A7
:1021B0001B20182101F008F91C20102101F004F95E
:1021C0001920012101F000F91A20012101F0FCF889
:1021D0003820002101F0F8F86A20002101F0F4F81D
:1021E0002320002101F0F0F83720802101F0ECF8E5
:1021F000FFF758FDD220FFF7CDFCFFF791FD7520CA
:10220000FFF7C8FCFFF78CFDFFF74CFDD320FFF76D
:10221000C1FCFFF785FD0020FFF7F4FBFFF760FD31
:102220006B20032101F0D0F86C20002101F0CCF8E4
:10223000002080BDFEE700007047000042684EF2BB
:102240000011CEF20001EAB110B54EF60C52072390
:10225000CEF20002126890F801E0847890F800C095
:1022600023EA12220F23D340C2F1040223400EFAC4
:1022700002F21A4301EB0C03120183F80023BDE8BC
:10228000104000E080310078012300F01F02C0F30D
:10229000421003FA02F241F82020704740F08060BB
:1022A0004EF60C5140F0FD70CEF200010860704710
:1022B00041F20401C4F202010A6822F440421043D0
:1022C0000860704741F21C020029C4F20202116842
:1022D0000CBF21EA000008431060704741F2180269
:1022E0000029C4F2020211680CBF21EA0000084371
:1022F0001060704741F20C020029C4F2020211681A
:102300000CBF21EA000008431060704780B541F21D
:10231000040EC4F2020EDEF8002002F00C0341F2BB
:102320000022C0F27A02082B1FD1DEF80030C3F37E
:10233000834303F1020CDEF8003013F4803F06D132
:1023400040F60012C0F23D020CFB02F20DE0DEF896
:10235000003013F4003F02D10CFB02F205E040F61E
:102360000012C0F23D020CFB02F202604DF270411D
:10237000DEF80030C0F60001C3F30313CB5CDA4093
:102380004260DEF80030C3F30223CB5C22FA03F391
:102390008360DEF80030C3F3C223C95C4DF26C43A6
:1023A000C0F6000322FA01F1C160DEF80020C2F39A
:1023B00081329A5CB1FBF2F1016180BD2DE9F04FF1
:1023C00081B040F6044A074648F2A81901261C4687
:1023D00015468846C4F2010AC4F22129DAF8000041
:1023E00020F47040CAF80000DAF8000040F44050D1
:1023F000CAF800000420C9F80460C9F8006005F0BC
:1024000063FE4FF0000B0420C9F804B005F05CFE39
:102410007F00C9F800B0F8B2FFF7BCFBFFF780FC03
:10242000D0B1DAF8000020F47040CAF80000DAF801
:10243000000040F44050CAF800000420C9F800B081
:10244000C9F804B005F040FE0420C9F80060C9F8DE
:10245000046005F039FE51E04046FFF79BFBFFF7B3
:102460005FFCDAF8000020F47040CAF80000DAF8E7
:10247000000040F44050CAF800000420C9F804608D
:10248000C9F8006005F020FE0420C9F804B005F08A
:102490001BFE47F00100C9F800B0C0B2FFF77AFB9D
:1024A000FFF73EFC05E000BFFFF7ACFA04F8010BB4
:1024B000013DE8B2012803D020B10120F4E700BFBC
:1024C0000020F1E7DAF80000002620F47040CAF896
:1024D0000000DAF8000040F44050CAF80000042080
:1024E000C9F80060C9F8046005F0EEFD0120C9F8E4
:1024F0000000C9F80400042005F0E6FD304601B0F4
:10250000BDE8F08F4EF210010428CEF200010A68F7
:1025100022F0040308BF42F004030B607047000080
:1025200082B041F204000022C4F20200CFF6FF02A2
:1025300050F8041C41F0010140F8041C01681140EE
:102540004FF6FF720160CFF6F66250F8041C11409E
:1025500040F8041C50F8041C21F4802140F8041CAD
:10256000016821F4FE0101604FF41F014160002168
:102570000191009150F8041C41F4803140F8041C92
:1025800050F8041C01F400310091019901310191CE
:10259000009919B90199B1F5A06FF1D150F8041C57
:1025A00011F4003F0CBF0021012100910099012985
:1025B00058D1D0F8FC1F41F01001C0F8FC1FD0F832
:1025C000FC1F21F00301C0F8FC1FD0F8FC1F41F0F4
:1025D0000201C0F8FC1F0168016001680160016828
:1025E00041F480610160016821F47C11016001689F
:1025F00041F4E811016050F8041C41F0807140F88A
:10260000041C00BF50F8041C11F0007F0ED150F8DC
:10261000041C11F0007F09D150F8041C11F0007F58
:1026200004D150F8041C11F0007FEBD0016821F0B8
:1026300003010160016841F002010160016801F0DD
:102640000C0108290ED0016801F00C01082909D0FD
:10265000016801F00C01082904D0016801F00C01A7
:102660000829EBD14EF608504FF00061CEF2000081
:10267000016002B0704700002DE9F04F81B04FF0CB
:102680008040012100F0B0FA012840F051824FF063
:102690008040012100F072FA40F2383AC2F2000A9A
:1026A000DAF80000002840F0D28040F2343BC2F259
:1026B000000BDBF80000B0F5167FC0F2C580B0F566
:1026C0007A7F25DA40F2901940F22010C2F2000918
:1026D000C2F200004946FFF701FD40F20030C2F2AD
:1026E00000000168E1B340F23030D9E90017D9F8B1
:1026F0000850C2F20000D0F8008040F22C30C2F244
:102700000000066840F22830C2F2000000683FE096
:1027100040F09D8001200024CAF8000040F24430BF
:10272000C4F2C834C2F20000214600680AF084F9FD
:1027300040F20C352146C2F20005286040F24830D4
:10274000C2F2000000680AF077F9686040F24C308D
:102750002146C2F2000000680AF06EF9A86076E037
:102760000121016040F22830D9E90017C2F20000CF
:10277000D9F80850016040F22C30A8463E46C2F21B
:102780000000076040F23030C2F2000005600846E9
:102790000AF076FC01460AF015FB0446304639463D
:1027A0000AF06EFC01460AF00DFB014620460AF0D5
:1027B0007BF80446404629460AF062FC01460AF0CE
:1027C00001FB014620460AF06FF809F0B9F9002133
:1027D000C4F2F0010AF016F938B90220CAF8000074
:1027E000D9E90005D9F8084012E040F22831D9E9CA
:1027F0000005D9F80840C2F20001086040F22C310F
:10280000C2F200010D6040F23031C2F200010C60F2
:1028100040F24436C2F2000631680AF045F83060F2
:1028200040F248362846C2F2000631680AF03CF809
:1028300040F24C3530602046C2F2000529680AF0AB
:1028400033F82860DBF800000130CBF8000040F2DC
:102850005030C2F200000168C72901DC01310BE0F1
:10286000C8290AD140F28011C4F223210A68B2FAC1
:1028700082F252090A600021016040F21020C2F287
:1028800000000168B1FA81F200294FEA5212026099
:1028900028D040F29000C2F200000068012840F009
:1028A000FA80DAF80000012840F0F58040F2202993
:1028B00040F26411C2F20001C2F20009D9F800002E
:1028C0000968084340F0E78040F21834C2F200047F
:1028D000206831284DDC0120FEF7ECFE2068013035
:1028E0002060D8E004F030FC40F23021C2F2000158
:1028F000086040F22821C2F200010A68531C40F22D
:102900002C22C2F20002642B0B601768384410605E
:1029100040F0C18000230B6048F21F511360C5F2E4
:10292000EB1180FB0101481100EBD1700AF0B6F900
:1029300040F22421C2F2000108600021C4F2C82143
:102940000AF07AF809F084FF46F266634FF06632C7
:10295000C4F227030AF01EF8002840F09C8040F2E1
:102960002020C2F200000168002904BF012101609B
:1029700091E00220FEF79EFE042003F0A5F940F24C
:102980007414C2F200042060032003F09DF940F2A9
:1029900078160146C2F200063060206804F07EFE20
:1029A00040F29C1040F23018C2F20000C2F200085F
:1029B0000168D8F8000005F09FF840F2341531683E
:1029C000C2F200052860206805F028F940F21826B8
:1029D000C2F20006306040F2A010C2F200000168AE
:1029E00040F23420C2F20000006805F039F840F2ED
:1029F00000274FF630024FF4FA61C2F20007CFF61B
:102A0000FF72386005F006FB0446386028683168BC
:102A10000E1830190AF042F9014640F2D410C2F201
:102A20000000006809F040FF0AF0FCF840F2C4170B
:102A30000546C2F200073860301B0AF02FF9014644
:102A400040F2D810C2F20000006809F02DFF0AF031
:102A5000E9F840F2C8164EF20C5441F6F421C2F2E5
:102A60000006CFF6FF7430602846224605F0D2FA01
:102A70003860306841F6F421224605F0CBFA306028
:102A8000D9F80010D8F8000005F0A4F818B931689A
:102A9000386805F04BF8DAF80000012848D140F218
:102AA0009000C2F200000068012841D140F2641099
:102AB000C2F20000006801283AD140F26810C2F268
:102AC0000000006860B140F2F810C2F20000016836
:102AD00040F27410C2F20000006803F0DBFD11E068
:102AE00040F26C10C2F20000006808B340F24800E7
:102AF000C2F20000016840F27410C2F200000068E7
:102B000004F062FB4EF20C5140F2C414CFF6FF7198
:102B1000C2F2000401F1C80241F62C21206005F048
:102B200079FA2060002101B0BDE8F04F04F0FEBF4B
:102B300001B0BDE8F08F000040F21040C4F2000088
:102B40000188018821F001010180704740F61000E2
:102B5000C4F200000188018821F001010180704762
:102B60000288002942F0800308BF22F0800303801E
:102B700070470000C943018270470000C9430182C9
:102B8000704700000288002942F0010308BF22F0CC
:102B90000103038070470000B0F844200029134669
:102BA0006FF3DF3318BF42F40043A0F8443070479E
:102BB00080B5B0F808C02CF0070C41EA0C01B0F861
:102BC00018C0B0F820E001814FF6FC410CEA010C7E
:102BD00040F2011141EA0C01018342EA03112EF097
:102BE00022021143018480BD028A0A4018BF0122DB
:102BF0008089084018BF01201040704770B50B88CD
:102C0000042B2AD0002B56D1B1F802C00A898B8838
:102C1000068C40F6FF354FF6FC74C4F2000526F032
:102C2000010643EA02130246A842068432F8186FEE
:102C3000B0F820E026F0F30643EA06036DDCB0F1BD
:102C4000804F7DD040F20045C4F20005A84277D005
:102C500040F60005C4F200056FE00E894B888A88B3
:102C6000058C40F6FF44360325F0100546EA02269F
:102C70000584024632F8185FB0F820E0254046EAA5
:102C8000050C40F6FF356FF00306C4F20005A6F10F
:102C9000AD04A84262DCB0F1804F71D040F2004533
:102CA000C4F20005A8426BD040F60005C4F200054E
:102CB000A84265D068E00A898C884E88058C082B6C
:102CC00071D125F48073038444EA0213024632F87A
:102CD0001C5FB0F820E025F0F30543EA050C6FF423
:102CE000405303F5145440F6FF33C4F200039842F6
:102CF00000F38180B0F1804F00F08F8040F20043FC
:102D0000C4F20003984200F0888040F60003C4F249
:102D10000003984200F0818084E040F60045C4F250
:102D20000005A8420CD042F60045C4F20105A842B5
:102D300006D043F20045C4F20105A84218BF083C82
:102D400003830EEA040343EA0C0343F00103038404
:102D5000C988038B23F00C03038394E040F60045FD
:102D6000C4F20005A8420BD043F20045C4F20105AD
:102D7000A84205D042F60045C4F20105A84203D19D
:102D80004FF6FC741B012D3C0EEA0406A0F818C097
:102D9000334343F010030384C988038B23F4406357
:102DA000090203836FE025F480531203038442EA8F
:102DB0000423024640F6FF4432F81C5FB0F820C0FE
:102DC000254046F6FF5443EA050E40F6FF33C4F2B1
:102DD0000003984234DCB0F1804F43D040F200430E
:102DE000C4F2000398423DD040F60003C4F2000351
:102DF000984237D039E040F60043C4F200039842CD
:102E00000BD043F20043C4F20103984205D042F6CE
:102E10000043C4F20103984204D14CF6FF7336021A
:102E200003F534540EEA0403A0F81CC0334343F402
:102E300080730384C988838B23F00C03838322E08F
:102E400040F60043C4F2000398420BD043F2004323
:102E5000C4F20103984205D042F60043C4F20103D4
:102E6000984202D136034CF6FF740CEA0403A0F832
:102E70001CE0334343F480530384C988838B23F4D9
:102E800040630902838310880843108070BD0000EE
:102E9000002101220160426001817047002A82897D
:102EA0000CBF22EA010111438181704710B5028CE9
:102EB00022F480720284048CB0F804E0838B0A88C8
:102EC00023F0730343EA020C0B8924F4007242EAF4
:102ED00003224B8842EA032243F20043C4F2010377
:102EE000984205D042F60043C4F20103984212D141
:102EF0008B892EF4405422F4406244EA0313CC89B7
:102F000043EA041E4B8940F2FF441B02A3431A43C9
:102F10008B8842EA0322A0F804E0A0F81CC0C9880C
:102F20008187028410BD0000828B22F008021143C9
:102F30008183704710B5028C22F480520284048C85
:102F4000B0F804E0828B0B8822F4E64242EA032CBC
:102F50000B8924F4005242EA03324B8842EA0333DD
:102F600043F20042C4F20102904205D042F6004210
:102F7000C4F20102904204D18A892EF4804444EACA
:102F8000821EA0F804E0A0F81CC0C988A0F8401078
:102F9000038410BD828B22F4006242EA0121818306
:102FA000704700008184704740F6FF33B0F800C0DE
:102FB000C4F2000398420FDCB0F1804F1ED040F203
:102FC0000043C4F20003984218D040F60003C4F254
:102FD0000003984212D016E040F60043C4F200030A
:102FE00098420BD043F20043C4F20103984205D04B
:102FF00042F60043C4F20103984204D14B882CF0FE
:10300000700243EA020C41F2004240F48063C4F2D1
:103010000002934204D0CB882CF4407243EA020CA5
:10302000A0F800C08A8882850A880285A0F18042C3
:10303000A2F596324FEAB222072A07D8012303FAF3
:1030400002F212F0E50F1CBF097A0186012181828C
:10305000704700004FF6FF7141600021016001726E
:103060007047000010B543F6000440F22551C4F249
:103070000104204600F012F9002800F08B8040F295
:1030800070100021C2F200000160204600F096F9A5
:1030900040F208210B28C2F20001086038BF10BDC1
:1030A000A0F14101192952D8DFE801F0240D0D0DDE
:1030B0003A51515151515151515151515151515117
:1030C00051515151513140F28B100021C2F2000098
:1030D000017040F28C10C2F20000017040F28810C2
:1030E000C2F20000017040F28910C2F2000001211A
:1030F000017010BD40F28B1000210122C2F20000CD
:10310000017040F28C10C2F20000027014E040F234
:103110008B100021C2F20000017040F28C1008E018
:1031200040F28B100121C2F20000017040F28C10BD
:103130000021C2F20000017040F28810C2F20000CB
:10314000017040F28910C2F20000017010BD40F21F
:103150008B1246380021C2F2000280B2117040F298
:103160008C120228C2F20002117009D840F28910B4
:10317000C2F20000017040F28810C2F20000B6E70F
:1031800040F28910C2F20000017040F28810C2F2D1
:103190000000017010BD000010B544F2004440F280
:1031A0002551C4F20004204600F078F8002808BF3A
:1031B00010BD204600F002F940F20C21C2F20001DD
:1031C0000870A0F14101192933D8DFE801F01A0D88
:1031D0000D0D283232323232323232323232323223
:1031E000323232323232324540F28B110020C2F29A
:1031F0000001087040F28C11C2F200010870012138
:1032000036E040F28B1100200122C2F2000108706A
:1032100040F28C11C2F200010A70002128E040F255
:103220008B100121C2F20000017040F28C110020CD
:103230001AE040F28B1246380021C2F2000280B23E
:10324000117040F28C1203284FF00000C2F200020D
:10325000117038BF01200BE040F28B110020C2F248
:103260000001087040F28C11C2F2000108700021C8
:1032700040F28912C2F20002117040F28811C2F2CB
:103280000001087010BD00008289002942F400533B
:1032900008BF22F4005383817047000001F01F0231
:1032A000012303FA02F2C1F34213022B06D0012BD1
:1032B00014BF00F1140300F10C0301E000F110034E
:1032C0001B88090A1A404FF0010318BF0122008829
:1032D00003FA01F1084018BF0120104070470000B8
:1032E00001F01F0C012303FA0CFCC1F3421314215B
:1032F000022B08BF1021012B08BF0C21002A4258C5
:103300000CBF22EA0C0242EA0C0242507047000055
:1033100070B586B00446008A0D46C98801AE20F417
:10332000405008434EF6F3112082A0890840A98836
:1033300008432989084369890843A081A08AA9898B
:1033400020F440700843A0823046FEF7DFFF43F6CA
:10335000000106F108000222C4F201018C424FF084
:10336000190108BF06F10C00042600684843A18932
:10337000A2EBD1312A6802FA01F1B0FBF1F048F278
:103380001F51C5F2EB11A0FB01235A096FF0630333
:1033900002FB0300A389A6EBD336B0403230A0FB7A
:1033A0000101072040EA133080F0080000EA5110C4
:1033B00040EA0210208106B070BD000080886FF3E3
:1033C0005F207047FEE70000B0B50C460546FEF7EB
:1033D00069FCFEF7F5FAD220FEF7DCFBFEF7A0FC55
:1033E00018B1FEF77DFC0120B0BD2846FEF7D2FBE8
:1033F000FEF796FC2046FEF7CDFBFEF791FC044657
:10340000002818BF0124FEF76BFC2046B0BD000069
:103410002DE9F04F81B040F6044A074648F2A8195A
:1034200001241D4616468846C4F2010AC4F2212929
:10343000DAF8000020F47040CAF80000DAF8000062
:1034400040F44050CAF800000420C9F80440C9F80C
:10345000004004F039FE4FF0000B0420C9F804B01E
:1034600004F032FE7800C9F800B0C0B2FEF792FB5B
:10347000FEF756FCD0B1DAF8000020F47040CAF82C
:103480000000DAF8000040F44050CAF800000420C0
:10349000C9F800B0C9F804B004F016FE0420C9F859
:1034A0000040C9F8044004F00FFE49E04046FEF732
:1034B00071FBFEF735FC56B1002400BF285DFEF716
:1034C00069FBFEF72DFCF8B90134B442F6D3DAF803
:1034D0000000002420F47040CAF80000DAF8000070
:1034E00040F44050CAF800000420C9F80040C9F870
:1034F000044004F0E9FD0120C9F80000C9F8040007
:10350000042004F0E1FD1BE0DAF8000020F4704034
:10351000CAF80000DAF8000040F44050CAF8000091
:103520000020C9F80000C9F80400042004F0CCFD14
:1035300001240420C9F80040C9F8044004F0C4FD87
:10354000204601B0BDE8F08F10B50446000A02F035
:1035500011FBE0B2BDE8104002F00CBB10B586B024
:10356000012001210124FEF7ADFE40F2671003A9FE
:10357000039040F2E73004904FF08040FFF714FDD5
:103580004FF080400121FFF7F9FA4FF08040012110
:103590000122FFF783FC4FF4A060FEF77FFE0020BE
:1035A0008DF806001C20ADF8040001A80294FEF777
:1035B00045FE4FF080400121FFF7E4FA06B010BD50
:1035C0002DE9F04F87B0119E074690461C460D46E8
:1035D000069100EB5600013882B28819013883B297
:1035E000384603F0C3F907210122300911EA560FCA
:1035F00018BF02EB161070430028049000F084807E
:10360000A6F10C0075083E464FF0000BC0F3850193
:103610005FFA85F941EA8011A8F12000CBB24DF69E
:10362000F401C2B20020C0F600010292039301EB44
:10363000021101914FF2C401C0F6000101EB8211A9
:1036400000220091052B5FD80592DFE803F0030DFF
:103650005D0F5D1902994DF28042C0F6000201EB48
:10366000410102EB81010CE001990AE002994DF65B
:10367000F462C0F6000201EB410102EB011100E02F
:10368000009908444FF0000890F800A0012012991A
:1036900000FA08F000EA0A0081B148B10699B0B218
:1036A000024689B20B4603F061F92046FFF74CFF52
:1036B0000136B0B2C01BA8420FD115E000280CBFE4
:1036C00010982046FFF740FF0BF1010B5FFA8BF0DB
:1036D000B0FBF9F101FB190058B108F10108B8F18C
:1036E000080FD3D308E000BF06983E46013006908D
:1036F00002E04FF0000B00BF059A0499039B0132D2
:1037000090B281423FF69EAF07B0BDE8F08F000057
:103710002DE9F04FB9B03A2046F650112B9044F203
:103720005640C3F67421C4F244102A900020299018
:10373000CDE9270146F65271C3F66C21CDE925018A
:1037400046F25911C3F67721CDE9230146F64561CA
:10375000C3F64C2101F5C022CDE9210101F5C1617B
:10376000209244F65642C0F23A021F9202F5C0621D
:10377000CDE91D02CDE91B0147F24D40C3F65220B1
:103780001A900FF6F450071D40698ECF199015A8B6
:103790008EC0DFF8E40D14900FF6F450031D00699D
:1037A0000ECB139010A80EC0DFF8E40D0F900FF6AB
:1037B000F450031D00690ECB0E900BA80EC0DFF86D
:1037C000E40D0A900FF6F050031D00690ECB09902E
:1037D00006A80EC0DFF8E00D059040F29000C2F29E
:1037E00000000068012841F0B0844DF6F40900247F
:1037F00056250DF1A808C0F6000900BF44F00701E6
:10380000A0B20F2300268AB2002103F0AFF8A5F181
:103810002000C0B209EB0017BD5D15F0010F0CBF11
:103820004FF6FF700020FFF78FFEA80754BF4FF63A
:10383000FF700020FFF788FE680754BF4FF6FF7047
:103840000020FFF781FE280754BF4FF6FF700020CD
:10385000FFF77AFEE80654BF4FF6FF700020FFF72F
:1038600073FEA80654BF4FF6FF700020FFF76CFEF2
:10387000680654BF4FF6FF700020FFF765FE28066C
:1038800054BF4FF6FF700020FFF75EFE0136102E8A
:10389000C2D118F8015F0834002DAFD100245025A3
:1038A0000DF1A00844F00701A0B21F238AB2102135
:1038B00003F05CF8A5F120000027C0B209EB001668
:1038C000F55D15F0010F0CBF4FF6FF700020FFF7FC
:1038D0003BFEA80754BF4FF6FF700020FFF734FEF1
:1038E000680754BF4FF6FF700020FFF72DFE280732
:1038F00054BF4FF6FF700020FFF726FEE80654BFC6
:103900004FF6FF700020FFF71FFEA80654BF4FF6CA
:10391000FF700020FFF718FE680654BF4FF6FF70D7
:103920000020FFF711FE280654BF4FF6FF7000205D
:10393000FFF70AFE0137102FC2D118F8015F0834D3
:10394000002DAFD1002452250DF1980844F0070155
:10395000A0B22F238AB2202103F008F8A5F120009D
:103960000027C0B209EB0016F55D15F0010F0CBF82
:103970004FF6FF700020FFF7E7FDA80754BF4FF692
:10398000FF700020FFF7E0FD680754BF4FF6FF709F
:103990000020FFF7D9FD280754BF4FF6FF70002025
:1039A000FFF7D2FDE80654BF4FF6FF700020FFF787
:1039B000CBFDA80654BF4FF6FF700020FFF7C4FDF3
:1039C000680654BF4FF6FF700020FFF7BDFD2806C4
:1039D00054BF4FF6FF700020FFF7B6FD0137102FE0
:1039E000C2D118F8015F0834002DAFD10024592549
:1039F0000DF1900844F00701A0B23F238AB23021B4
:103A000002F0B4FFA5F120000027C0B209EB0016B8
:103A1000F55D15F0010F0CBF4FF6FF700020FFF7AA
:103A200093FDA80754BF4FF6FF700020FFF78CFDF1
:103A3000680754BF4FF6FF700020FFF785FD280789
:103A400054BF4FF6FF700020FFF77EFDE80654BF1D
:103A50004FF6FF700020FFF777FDA80654BF4FF622
:103A6000FF700020FFF770FD680654BF4FF6FF702F
:103A70000020FFF769FD280654BF4FF6FF700020B5
:103A8000FFF762FD0137102FC2D118F8015F08342B
:103A9000002DAFD1002445250DF1880844F0070121
:103AA000A0B24F238AB2402102F060FFA5F12000AE
:103AB0000027C0B209EB0016F55D15F0010F0CBF31
:103AC0004FF6FF700020FFF73FFDA80754BF4FF6E9
:103AD000FF700020FFF738FD680754BF4FF6FF70F6
:103AE0000020FFF731FD280754BF4FF6FF7000207C
:103AF000FFF72AFDE80654BF4FF6FF700020FFF7DE
:103B000023FDA80654BF4FF6FF700020FFF71CFDF1
:103B1000680654BF4FF6FF700020FFF715FD28061A
:103B200054BF4FF6FF700020FFF70EFD0137102F36
:103B3000C2D118F8015F0834002DAFD1002445250B
:103B40000DF1800844F00701A0B25F238AB2502132
:103B500002F00CFFA5F120000027C0B209EB00160F
:103B6000F55D15F0010F0CBF4FF6FF700020FFF759
:103B7000EBFCA80754BF4FF6FF700020FFF7E4FCF2
:103B8000680754BF4FF6FF700020FFF7DDFC2807E1
:103B900054BF4FF6FF700020FFF7D6FCE80654BF75
:103BA0004FF6FF700020FFF7CFFCA80654BF4FF67A
:103BB000FF700020FFF7C8FC680654BF4FF6FF7087
:103BC0000020FFF7C1FC280654BF4FF6FF7000200D
:103BD000FFF7BAFC0137102FC2D118F8015F083483
:103BE000002DAFD1002456250DF17C0844F00701CB
:103BF000A0B26F238AB2602102F0B8FEA5F12000C6
:103C00000027C0B209EB0016F55D15F0010F0CBFDF
:103C10004FF6FF700020FFF797FCA80754BF4FF640
:103C2000FF700020FFF790FC680754BF4FF6FF704D
:103C30000020FFF789FC280754BF4FF6FF700020D3
:103C4000FFF782FCE80654BF4FF6FF700020FFF735
:103C50007BFCA80654BF4FF6FF700020FFF774FCF2
:103C6000680654BF4FF6FF700020FFF76DFC280672
:103C700054BF4FF6FF700020FFF766FC0137102F8E
:103C8000C2D118F8015F0834002DAFD100245625A9
:103C90000DF1780844F00701A0B27F238AB27021A9
:103CA00002F064FEA5F120000027C0B209EB001667
:103CB000F55D15F0010F0CBF4FF6FF700020FFF708
:103CC00043FCA80754BF4FF6FF700020FFF73CFCF1
:103CD000680754BF4FF6FF700020FFF735FC280738
:103CE00054BF4FF6FF700020FFF72EFCE80654BFCC
:103CF0004FF6FF700020FFF727FCA80654BF4FF6D1
:103D0000FF700020FFF720FC680654BF4FF6FF70DD
:103D10000020FFF719FC280654BF4FF6FF70002063
:103D2000FFF712FC0137102FC2D118F8015F0834D9
:103D3000002DAFD100244D250DF1700844F007018E
:103D4000A0B28F238AB2802102F010FEA5F12000DC
:103D50000027C0B209EB0016F55D15F0010F0CBF8E
:103D60004FF6FF700020FFF7EFFBA80754BF4FF698
:103D7000FF700020FFF7E8FB680754BF4FF6FF70A5
:103D80000020FFF7E1FB280754BF4FF6FF7000202B
:103D9000FFF7DAFBE80654BF4FF6FF700020FFF78D
:103DA000D3FBA80654BF4FF6FF700020FFF7CCFBF3
:103DB000680654BF4FF6FF700020FFF7C5FB2806CA
:103DC00054BF4FF6FF700020FFF7BEFB0137102FE6
:103DD000C2D118F8015F0834002DAFD100244D2561
:103DE0000DF1680844F00701A0B29F238AB2902128
:103DF00002F0BCFDA5F120000027C0B209EB0016BF
:103E0000F55D15F0010F0CBF4FF6FF700020FFF7B6
:103E10009BFBA80754BF4FF6FF700020FFF794FBF1
:103E2000680754BF4FF6FF700020FFF78DFB28078F
:103E300054BF4FF6FF700020FFF786FBE80654BF23
:103E40004FF6FF700020FFF77FFBA80654BF4FF628
:103E5000FF700020FFF778FB680654BF4FF6FF7035
:103E60000020FFF771FB280654BF4FF6FF700020BB
:103E7000FFF76AFB0137102FC2D118F8015F083431
:103E8000002DAFD140F224200021C2F20000C4F284
:103E9000C821006808F0D0FD08F0DAFC02460B46A5
:103EA0000DF1B2000FF61441FCF7F4F99DF8B25091
:103EB000002D5BD028240DF1B20800BF44F00701AB
:103EC000A0B20F2300268AB2002102F04FFDA5F117
:103ED0002000C0B209EB0017BD5D15F0010F0CBF4B
:103EE0004FF6FF704FF47840FFF72EFBA80754BF42
:103EF0004FF6FF704FF47840FFF726FB680754BF7A
:103F00004FF6FF704FF47840FFF71EFB280754BFB1
:103F10004FF6FF704FF47840FFF716FBE80654BFEA
:103F20004FF6FF704FF47840FFF70EFBA80654BF22
:103F30004FF6FF704FF47840FFF706FB680654BF5A
:103F40004FF6FF704FF47840FFF7FEFA280654BF93
:103F50004FF6FF704FF47840FFF7F6FA0136102E57
:103F6000BAD118F8015F0834002DA7D15625502486
:103F70000DF1B208ADF8B25044F00701A0B20F2322
:103F800000268AB2002102F0F1FCA5F12000C0B2A7
:103F900009EB0017BD5D15F0010F0CBF4FF6FF7068
:103FA0004FF47840FFF7D0FAA80754BF4FF6FF70E0
:103FB0004FF47840FFF7C8FA680754BF4FF6FF7018
:103FC0004FF47840FFF7C0FA280754BF4FF6FF7050
:103FD0004FF47840FFF7B8FAE80654BF4FF6FF7089
:103FE0004FF47840FFF7B0FAA80654BF4FF6FF70C1
:103FF0004FF47840FFF7A8FA680654BF4FF6FF70F9
:104000004FF47840FFF7A0FA280654BF4FF6FF7030
:104010004FF47840FFF798FA0136102EBAD118F80D
:10402000015F0834002DA7D140F2CC10C2F200008D
:10403000006808F00DFC0B4641F2B34102460DF159
:10404000B200C0F60101FCF725F99DF8B250002D31
:1040500052D020240DF1B20844F00701A0B21F2372
:104060008AB2102102F082FCA5F120000027C0B224
:1040700009EB0016F55D15F0010F0CBF4FF6FF7050
:104080001F20FFF761FAA80754BF4FF6FF701F20EB
:10409000FFF75AFA680754BF4FF6FF701F20FFF76B
:1040A00053FA280754BF4FF6FF701F20FFF74CFA52
:1040B000E80654BF4FF6FF701F20FFF745FAA80629
:1040C00054BF4FF6FF701F20FFF73EFA680654BF3B
:1040D0004FF6FF701F20FFF737FA280654BF4FF640
:1040E000FF701F20FFF730FA0137102FC2D118F8E8
:1040F000015F0834002DAFD140F2F410C2F200008D
:10410000006808F0A5FB0B4641F2B34102460DF1F1
:10411000B200C0F60101FCF7BDF89DF8B250002DC9
:1041200052D020240DF1B20844F00701A0B22F2391
:104130008AB2202102F01AFCA5F120000027C0B2AB
:1041400009EB0016F55D15F0010F0CBF4FF6FF707F
:104150001F20FFF7F9F9A80754BF4FF6FF701F2083
:10416000FFF7F2F9680754BF4FF6FF701F20FFF703
:10417000EBF9280754BF4FF6FF701F20FFF7E4F953
:10418000E80654BF4FF6FF701F20FFF7DDF9A806C1
:1041900054BF4FF6FF701F20FFF7D6F9680654BFD3
:1041A0004FF6FF701F20FFF7CFF9280654BF4FF6D8
:1041B000FF701F20FFF7C8F90137102FC2D118F880
:1041C000015F0834002DAFD140F23420C2F200006C
:1041D000006808F03DFB0B4641F2B34102460DF189
:1041E000B200C0F60101FCF755F89DF8B250002D61
:1041F00052D020240DF1B20844F00701A0B23F23B1
:104200008AB2302102F0B2FBA5F120000027C0B233
:1042100009EB0016F55D15F0010F0CBF4FF6FF70AE
:104220001F20FFF791F9A80754BF4FF6FF701F201A
:10423000FFF78AF9680754BF4FF6FF701F20FFF79A
:1042400083F9280754BF4FF6FF701F20FFF77CF952
:10425000E80654BF4FF6FF701F20FFF775F9A80658
:1042600054BF4FF6FF701F20FFF76EF9680654BF6A
:104270004FF6FF701F20FFF767F9280654BF4FF66F
:10428000FF701F20FFF760F90137102FC2D118F817
:10429000015F0834002DAFD140F27414202040217A
:1042A00027224F23C2F20004256802F05FFB002D95
:1042B00026DB00254FF6FF70FFF746F94FF6FF703B
:1042C000FFF742F94FF6FF70FFF73EF94FF6FF7028
:1042D000FFF73AF94FF6FF70FFF736F94FF6FF7028
:1042E000FFF732F94FF6FF70FFF72EF94FF6FF7028
:1042F000FFF72AF90135A8B21028DBD324884BE058
:10430000002500BF09EB050090F8D06016F0010F02
:104310000CBF4FF6FF7047F60F00FFF715F9B00717
:1043200054BF4FF6FF7047F60F00FFF70DF9700707
:1043300054BF4FF6FF7047F60F00FFF705F930073F
:1043400054BF4FF6FF7047F60F00FFF7FDF8F00679
:1043500054BF4FF6FF7047F60F00FFF7F5F8B006B1
:1043600054BF4FF6FF7047F60F00FFF7EDF87006E9
:1043700054BF4FF6FF7047F60F00FFF7E5F8300621
:1043800054BF4FF6FF7047F60F00FFF7DDF8013519
:10439000102DB7D12068444240F2781520205021DA
:1043A00027225F23C2F200052E6802F0DFFA002EFA
:1043B00026DB00264FF6FF70FFF7C6F84FF6FF70BA
:1043C000FFF7C2F84FF6FF70FFF7BEF84FF6FF7029
:1043D000FFF7BAF84FF6FF70FFF7B6F84FF6FF7029
:1043E000FFF7B2F84FF6FF70FFF7AEF84FF6FF7029
:1043F000FFF7AAF80136B0B21028DBD328884BE0CB
:10440000002600BF09EB060090F8D07017F0010FEE
:104410000CBF4FF6FF7047F60F00FFF795F8B8078F
:1044200054BF4FF6FF7047F60F00FFF78DF878077F
:1044300054BF4FF6FF7047F60F00FFF785F83807B7
:1044400054BF4FF6FF7047F60F00FFF77DF8F806F0
:1044500054BF4FF6FF7047F60F00FFF775F8B80628
:1044600054BF4FF6FF7047F60F00FFF76DF8780660
:1044700054BF4FF6FF7047F60F00FFF765F8380698
:1044800054BF4FF6FF7047F60F00FFF75DF8013697
:10449000102EB7D128684042A5B2002442F2107A0B
:1044A0004FF00008049055E02F2040214F2300EBEF
:1044B000C40082B2601DC00080B202F057FA00272B
:1044C00019F8076016F0010F0CBF4FF6FF7047F6A2
:1044D0000F00FFF739F8B00754BF4FF6FF7047F6EB
:1044E0000F00FFF731F8700754BF4FF6FF7047F623
:1044F0000F00FFF729F8300754BF4FF6FF7047F65B
:104500000F00FFF721F8F00654BF4FF6FF7047F693
:104510000F00FFF719F8B00654BF4FF6FF7047F6CB
:104520000F00FFF711F8700654BF4FF6FF7047F603
:104530000F00FFF709F8300654BF4FF6FF7047F63B
:104540000F00FFF701F80137102FB9D14FF0000825
:10455000C8E000BFE0B2022802D1012050E000BF55
:10456000C4F10102C4F10200D2B200F00301032A37
:104570002CD2012099BB43E0426C7565546F6F7477
:104580006820202020202020202020200000000063
:104590005475726E203930202020202020202020C9
:1045A000202000005475726E2031383020202020E9
:1045B00020202020202000005475726E20333630D9
:1045C000202020202020202020200000421A01202E
:1045D000043A00FB0AF012F0FF0FF9D181B1012972
:1045E00003D100EB800040000AE04FF47A72022908
:1045F0004FF0640100FB02F208BF00FB01F210461D
:104600004CF6CD41B5FBF0F0012CCCF6CC41A0FB33
:1046100001124FEAD20101EB8101A0EB410607D85C
:104620005FEA086004D1002E3FF43EAF4FF001086E
:104630002F2040214F2300EBC40082B2601DC00038
:1046400080B202F093F946F010004FF0000B09EB36
:10465000001700BF17F80B6016F0010F0CBF4FF6E4
:10466000FF7047F60F00FEF76FFFB00754BF4FF61D
:10467000FF7047F60F00FEF767FF700754BF4FF655
:10468000FF7047F60F00FEF75FFF300754BF4FF68D
:10469000FF7047F60F00FEF757FFF00654BF4FF6C6
:1046A000FF7047F60F00FEF74FFFB00654BF4FF6FE
:1046B000FF7047F60F00FEF747FF700654BF4FF636
:1046C000FF7047F60F00FEF73FFF300654BF4FF66E
:1046D000FF7047F60F00FEF737FF0BF1010BBBF140
:1046E000100FB7D10134032C7FF434AF04980025A8
:1046F00042F210764FF000081FFA80FB56E02F20A0
:1047000050215F2300EBC50082B2681DC00080B25B
:1047100002F02CF9002700BF19F8074014F0010F30
:104720000CBF4FF6FF7047F60F00FEF70DFFA00716
:1047300054BF4FF6FF7047F60F00FEF705FF600706
:1047400054BF4FF6FF7047F60F00FEF7FDFE20073F
:1047500054BF4FF6FF7047F60F00FEF7F5FEE00678
:1047600054BF4FF6FF7047F60F00FEF7EDFEA006B0
:1047700054BF4FF6FF7047F60F00FEF7E5FE6006E8
:1047800054BF4FF6FF7047F60F00FEF7DDFE200620
:1047900054BF4FF6FF7047F60F00FEF7D5FE013706
:1047A000102FB9D14FF00008A1E000BFE8B20228F5
:1047B00002D1012026E000BFC5F10102C5F10200CF
:1047C000D2B200F00301032A02D2012041B919E05C
:1047D000421A0120043A704312F0FF0FFAD189B156
:1047E000012903D100EB800040000BE04FF47A7206
:1047F00002294FF0640100FB02F208BF00FB01F246
:10480000104600BF4CF6CD41BBFBF0F0012DCCF6BD
:10481000CC41A0FB01124FEAD20101EB8101A0EBD8
:10482000410407D85FEA086004D1002C3FF467AF69
:104830004FF001082F2050215F2300EBC50082B20A
:10484000681DC00080B202F091F844F0100000240E
:1048500009EB001717F804A01AF0010F0CBF4FF670
:10486000FF7047F60F00FEF76FFE5FEA8A7054BFD5
:104870004FF6FF7047F60F00FEF766FE5FEA4A70DC
:1048800054BF4FF6FF7047F60F00FEF75DFE5FEA7C
:104890000A7054BF4FF6FF7047F60F00FEF754FE44
:1048A0005FEACA6054BF4FF6FF7047F60F00FEF78D
:1048B0004BFE5FEA8A6054BF4FF6FF7047F60F0069
:1048C000FEF742FE5FEA4A6054BF4FF6FF7047F6BC
:1048D0000F00FEF739FE5FEA0A6054BF4FF6FF7023
:1048E00047F60F00FEF730FE0134102CB2D101352F
:1048F000032D7FF45BAF40F21425182060211F22A6
:104900006F23C2F200052C6802F030F82046002127
:1049100008F07FF8002400284CD000BF09EB040009
:1049200090F8D06016F0010F0CBF4FF6FF7047F6FD
:104930000F00FEF709FEB00754BF4FF6FF7047F6B1
:104940000F00FEF701FE700754BF4FF6FF7047F6E9
:104950000F00FEF7F9FD300754BF4FF6FF7047F622
:104960000F00FEF7F1FDF00654BF4FF6FF7047F65B
:104970000F00FEF7E9FDB00654BF4FF6FF7047F693
:104980000F00FEF7E1FD700654BF4FF6FF7047F6CB
:104990000F00FEF7D9FD300654BF4FF6FF7047F603
:1049A0000F00FEF7D1FD0134102CB7D1286880F03C
:1049B000004825E04FF6FF70FEF7C6FD4FF6FF708A
:1049C000FEF7C2FD4FF6FF70FEF7BEFD4FF6FF701B
:1049D000FEF7BAFD4FF6FF70FEF7B6FD4FF6FF701B
:1049E000FEF7B2FD4FF6FF70FEF7AEFD4FF6FF701B
:1049F000FEF7AAFD0134A0B21028DBD3D5F8008061
:104A000040F21C26182070211F227F23C2F20006CC
:104A1000356801F0ABFF2846002107F0FAFF0025BA
:104A200000284FD009EB050090F8D07017F0010F67
:104A30000CBF4FF6FF7047F60F00FEF785FDB80775
:104A400054BF4FF6FF7047F60F00FEF77DFD780765
:104A500054BF4FF6FF7047F60F00FEF775FD38079D
:104A600054BF4FF6FF7047F60F00FEF76DFDF806D6
:104A700054BF4FF6FF7047F60F00FEF765FDB8060E
:104A800054BF4FF6FF7047F60F00FEF75DFD780646
:104A900054BF4FF6FF7047F60F00FEF755FD38067E
:104AA00054BF4FF6FF7047F60F00FEF74DFD01357E
:104AB000102DB7D1306880F0004528E025342E3223
:104AC000660000004FF6FF70FEF73EFD4FF6FF70E8
:104AD000FEF73AFD4FF6FF70FEF736FD4FF6FF701A
:104AE000FEF732FD4FF6FF70FEF72EFD4FF6FF701A
:104AF000FEF72AFD4FF6FF70FEF726FD4FF6FF701A
:104B0000FEF722FD0135A8B21028DBD3356847F641
:104B10000F0710264FF6FF7420206021424606231F
:104B20000097CDE9014602F0C1FB202070212A4602
:104B30000623CDE90074029602F0B8FB40F2C414DB
:104B40002020802127228F23C2F20004256801F053
:104B50000DFF002D26DB00254FF6FF70FEF7F4FC5D
:104B60004FF6FF70FEF7F0FC4FF6FF70FEF7ECFC1F
:104B70004FF6FF70FEF7E8FC4FF6FF70FEF7E4FC1F
:104B80004FF6FF70FEF7E0FC4FF6FF70FEF7DCFC1F
:104B90004FF6FF70FEF7D8FC0135A8B21028DBD322
:104BA00024884BE0002500BF09EB050090F8D06099
:104BB00016F0010F0CBF4FF6FF7047F60F00FEF71F
:104BC000C3FCB00754BF4FF6FF7047F60F00FEF767
:104BD000BBFC700754BF4FF6FF7047F60F00FEF79F
:104BE000B3FC300754BF4FF6FF7047F60F00FEF7D7
:104BF000ABFCF00654BF4FF6FF7047F60F00FEF710
:104C0000A3FCB00654BF4FF6FF7047F60F00FEF747
:104C10009BFC700654BF4FF6FF7047F60F00FEF77F
:104C200093FC300654BF4FF6FF7047F60F00FEF7B7
:104C30008BFC0135102DB7D12068444240F2C815D5
:104C40002020902127229F23C2F200052E6801F028
:104C50008DFE002E26DB00264FF6FF70FEF774FC5B
:104C60004FF6FF70FEF770FC4FF6FF70FEF76CFC1E
:104C70004FF6FF70FEF768FC4FF6FF70FEF764FC1E
:104C80004FF6FF70FEF760FC4FF6FF70FEF75CFC1E
:104C90004FF6FF70FEF758FC0136B0B21028DBD398
:104CA00028884BE0002600BF09EB060090F8D07082
:104CB00017F0010F0CBF4FF6FF7047F60F00FEF71D
:104CC00043FCB80754BF4FF6FF7047F60F00FEF7DE
:104CD0003BFC780754BF4FF6FF7047F60F00FEF716
:104CE00033FC380754BF4FF6FF7047F60F00FEF74E
:104CF0002BFCF80654BF4FF6FF7047F60F00FEF787
:104D000023FCB80654BF4FF6FF7047F60F00FEF7BE
:104D10001BFC780654BF4FF6FF7047F60F00FEF7F6
:104D200013FC380654BF4FF6FF7047F60F00FEF72E
:104D30000BFC0136102EB7D128684042A5B20024E2
:104D400042F210784FF0000A049055E02F208021A5
:104D50008F2300EBC40082B2601DC00080B201F05E
:104D600005FE002719F8076016F0010F0CBF4FF67B
:104D7000FF7047F60F00FEF7E7FBB00754BF4FF692
:104D8000FF7047F60F00FEF7DFFB700754BF4FF6CA
:104D9000FF7047F60F00FEF7D7FB300754BF4FF602
:104DA000FF7047F60F00FEF7CFFBF00654BF4FF63B
:104DB000FF7047F60F00FEF7C7FBB00654BF4FF673
:104DC000FF7047F60F00FEF7BFFB700654BF4FF6AB
:104DD000FF7047F60F00FEF7B7FB300654BF4FF6E3
:104DE000FF7047F60F00FEF7AFFB0137102FB9D168
:104DF0004FF0000AA1E000BFE0B2032802D1012079
:104E000026E000BFC4F10202C4F10300D2B200F0F8
:104E10000301032A02D2012049B919E0421A0120F4
:104E2000043A00FB08F012F0FF0FF9D181B101291B
:104E300003D100EB800040000AE04FF47A720229AF
:104E40004FF0640100FB02F208BF00FB01F21046C4
:104E50004CF6CD41B5FBF0F0022CCCF6CC41A0FBDA
:104E600001124FEAD20101EB8101A0EB410607D804
:104E70005FEA0A6004D1002E3FF468AF4FF0010AE8
:104E80002F2080218F2300EBC40082B2601DC00060
:104E900080B201F06BFD46F01000002609EB001710
:104EA00017F806B01BF0010F0CBF4FF6FF7047F666
:104EB0000F00FEF749FB5FEA8B7054BF4FF6FF709F
:104EC00047F60F00FEF740FB5FEA4B7054BF4FF60A
:104ED000FF7047F60F00FEF737FB5FEA0B7054BF19
:104EE0004FF6FF7047F60F00FEF72EFB5FEACB6030
:104EF00054BF4FF6FF7047F60F00FEF725FB5FEA41
:104F00008B6054BF4FF6FF7047F60F00FEF71CFB97
:104F10005FEA4B6054BF4FF6FF7047F60F00FEF795
:104F200013FB5FEA0B6054BF4FF6FF7047F60F00AC
:104F3000FEF70AFB0136102EB2D10134042C7FF4A7
:104F40005BAF0498002542F210764FF000081FFA7C
:104F500080FB55E02F2090219F2300EBC50082B2FB
:104F6000681DC00080B201F001FD002719F807405C
:104F700014F0010F0CBF4FF6FF7047F60F00FEF75D
:104F8000E3FAA00754BF4FF6FF7047F60F00FEF795
:104F9000DBFA600754BF4FF6FF7047F60F00FEF7CD
:104FA000D3FA200754BF4FF6FF7047F60F00FEF705
:104FB000CBFAE00654BF4FF6FF7047F60F00FEF73E
:104FC000C3FAA00654BF4FF6FF7047F60F00FEF776
:104FD000BBFA600654BF4FF6FF7047F60F00FEF7AE
:104FE000B3FA200654BF4FF6FF7047F60F00FEF7E6
:104FF000ABFA0137102FB9D14FF00008A1E000BF84
:10500000E8B2032802D1012026E000BFC5F1020268
:10501000C5F10300D2B200F00301032A02D201203D
:1050200041B919E0421A0120043A704312F0FF0F0F
:10503000FAD189B1012903D100EB800040000BE0D7
:105040004FF47A7202294FF0640100FB02F208BFAC
:1050500000FB01F2104600BF4CF6CD41BBFBF0F067
:10506000022DCCF6CC41A0FB01124FEAD20101EB9C
:105070008101A0EB410407D85FEA086004D1002C4D
:105080003FF468AF4FF001082F2090219F2300EBE1
:10509000C50082B2681DC00080B201F067FC44F018
:1050A0001000002409EB001717F804A01AF0010FF4
:1050B0000CBF4FF6FF7047F60F00FEF745FA5FEAA8
:1050C0008A7054BF4FF6FF7047F60F00FEF73CFAA8
:1050D0005FEA4A7054BF4FF6FF7047F60F00FEF7C5
:1050E00033FA5FEA0A7054BF4FF6FF7047F60F00BD
:1050F000FEF72AFA5FEACA6054BF4FF6FF7047F620
:105100000F00FEF721FA5FEA8A6054BF4FF6FF7086
:1051100047F60F00FEF718FA5FEA4A6054BF4FF6F1
:10512000FF7047F60F00FEF70FFA5FEA0A6054BF00
:105130004FF6FF7047F60F00FEF706FA0134102C09
:10514000B2D10135042D7FF45BAF40F22030C2F2C2
:1051500000000068022868D0002840F0338340F245
:1051600090009DF85050C2F200000068012840F005
:10517000D080002D00F026834DF6F40800240DF1B8
:105180005009C0F6000800BF44F00701A0B2AF23E9
:105190008AB2A02101F0EAFBA5F120000026C0B2EE
:1051A00008EB0017BD5D15F0010F0CBF4FF6FF7047
:1051B0001F20FEF7C9F9A80754BF4FF6FF701F2044
:1051C000FEF7C2F9680754BF4FF6FF701F20FEF7C5
:1051D000BBF9280754BF4FF6FF701F20FEF7B4F944
:1051E000E80654BF4FF6FF701F20FEF7ADF9A80682
:1051F00054BF4FF6FF701F20FEF7A6F9680654BF94
:105200004FF6FF701F20FEF79FF9280654BF4FF698
:10521000FF701F20FEF798F90136102EC2D119F841
:10522000015F0834002DAFD1CCE240F22430C2F24D
:1052300000000068022800F0D080012800F03381CF
:10524000002840F0BF8240F290009DF83C50C2F22E
:1052500000000068002800F08C81002D00F0B28270
:105260004DF6F40800240DF13C09C0F6000800BF1B
:1052700044F00701A0B2AF238AB2A02101F076FB6F
:10528000A5F120000026C0B208EB0017BD5D15F0A7
:10529000010F0CBF4FF6FF701F20FEF755F9A8074E
:1052A00054BF4FF6FF701F20FEF74EF9680754BF3A
:1052B0004FF6FF701F20FEF747F9280754BF4FF63F
:1052C000FF701F20FEF740F9E80654BF4FF6FF704D
:1052D0001F20FEF739F9A80654BF4FF6FF701F20B4
:1052E000FEF732F9680654BF4FF6FF701F20FEF735
:1052F0002BF9280654BF4FF6FF701F20FEF724F944
:105300000136102EC2D119F8015F0834002DAFD13B
:1053100058E2002D00F056824DF6F40800240DF1FD
:105320005009C0F6000800BF44F00701A0B2AF2347
:105330008AB2A02101F01AFBA5F120000026C0B21C
:1053400008EB0017BD5D15F0010F0CBF4FF6FF70A5
:105350004FF47840FEF7F8F8A80754BF4FF6FF70F7
:105360004FF47840FEF7F0F8680754BF4FF6FF702F
:105370004FF47840FEF7E8F8280754BF4FF6FF7067
:105380004FF47840FEF7E0F8E80654BF4FF6FF70A0
:105390004FF47840FEF7D8F8A80654BF4FF6FF70D8
:1053A0004FF47840FEF7D0F8680654BF4FF6FF7010
:1053B0004FF47840FEF7C8F8280654BF4FF6FF7048
:1053C0004FF47840FEF7C0F80136102EBAD119F824
:1053D000015F0834002DA7D1F4E140F290009DF860
:1053E0001450C2F200000068002800F02681002D51
:1053F00000F0E8814DF6F40800240DF11409C0F620
:10540000000800BF44F00701A0B2AF238AB2A02178
:1054100001F0ACFAA5F120000026C0B208EB00179D
:10542000BD5D15F0010F0CBF4FF6FF701F20FEF79A
:105430008BF8A80754BF4FF6FF701F20FEF784F8C3
:10544000680754BF4FF6FF701F20FEF77DF828074E
:1054500054BF4FF6FF701F20FEF776F8E80654BFE2
:105460004FF6FF701F20FEF76FF8A80654BF4FF6E7
:10547000FF701F20FEF768F8680654BF4FF6FF70F4
:105480001F20FEF761F8280654BF4FF6FF701F205B
:10549000FEF75AF80136102EC2D119F8015F083410
:1054A000002DAFD18EE140F290009DF82850C2F25D
:1054B00000000068002800F02481002D00F08281A7
:1054C0004DF6F40800240DF12809C0F6000800BFCD
:1054D00044F00701A0B2AF238AB2A02101F046FA3E
:1054E000A5F120000026C0B208EB0017BD5D15F045
:1054F000010F0CBF4FF6FF701F20FEF725F8A8071D
:1055000054BF4FF6FF701F20FEF71EF8680754BF08
:105510004FF6FF701F20FEF717F8280754BF4FF60D
:10552000FF701F20FEF710F8E80654BF4FF6FF701B
:105530001F20FEF709F8A80654BF4FF6FF701F2082
:10554000FEF702F8680654BF4FF6FF701F20FDF704
:10555000FBFF280654BF4FF6FF701F20FDF7F4FF36
:105560000136102EC2D119F8015F0834002DAFD1D9
:1055700028E1002D00F026814DF6F40800240DF1FD
:105580003C09C0F6000800BF44F00701A0B2AF23F9
:105590008AB2A02101F0EAF9A5F120000026C0B2EC
:1055A00008EB0017BD5D15F0010F0CBF4FF6FF7043
:1055B0004FF47840FDF7C8FFA80754BF4FF6FF70BF
:1055C0004FF47840FDF7C0FF680754BF4FF6FF70F7
:1055D0004FF47840FDF7B8FF280754BF4FF6FF702F
:1055E0004FF47840FDF7B0FFE80654BF4FF6FF7068
:1055F0004FF47840FDF7A8FFA80654BF4FF6FF70A0
:105600004FF47840FDF7A0FF680654BF4FF6FF70D7
:105610004FF47840FDF798FF280654BF4FF6FF700F
:105620004FF47840FDF790FF0136102EBAD119F8EB
:10563000015F0834002DA7D1C4E0002D00F0C28026
:105640004DF6F40800240DF11409C0F6000800BF5F
:1056500044F00701A0B2AF238AB2A02101F086F97D
:10566000A5F120000026C0B208EB0017BD5D15F0C3
:10567000010F0CBF4FF6FF704FF47840FDF764FF49
:10568000A80754BF4FF6FF704FF47840FDF75CFF5A
:10569000680754BF4FF6FF704FF47840FDF754FF92
:1056A000280754BF4FF6FF704FF47840FDF74CFFCA
:1056B000E80654BF4FF6FF704FF47840FDF744FF03
:1056C000A80654BF4FF6FF704FF47840FDF73CFF3B
:1056D000680654BF4FF6FF704FF47840FDF734FF73
:1056E000280654BF4FF6FF704FF47840FDF72CFFAB
:1056F0000136102EBAD119F8015F0834002DA7D158
:1057000060E0002D5ED04DF6F40800240DF128096C
:10571000C0F6000844F00701A0B2AF238AB2A0216E
:1057200001F024F9A5F120000026C0B208EB001713
:10573000BD5D15F0010F0CBF4FF6FF704FF47840C0
:10574000FDF702FFA80754BF4FF6FF704FF47840F3
:10575000FDF7FAFE680754BF4FF6FF704FF478402C
:10576000FDF7F2FE280754BF4FF6FF704FF4784064
:10577000FDF7EAFEE80654BF4FF6FF704FF478409D
:10578000FDF7E2FEA80654BF4FF6FF704FF47840D5
:10579000FDF7DAFE680654BF4FF6FF704FF478400D
:1057A000FDF7D2FE280654BF4FF6FF704FF4784045
:1057B000FDF7CAFE0136102EBAD119F8015F083480
:1057C000002DA7D140F208204DF6F4684AF6AB2729
:1057D0004FF0000942F2107AC2F20000C0F6000851
:1057E000CAF6AA27008803900020049008E000BFB2
:1057F00009F10109B9F1030F04BF39B0BDE8F08F19
:105800005FFA89F0022801D1012025E0C9F10102E7
:10581000C9F10200D2B200F00301032A02D2012032
:1058200049B919E0421A0120043A00FB0AF012F0CB
:10583000FF0FF9D181B1012903D100EB80004000B5
:105840000AE04FF47A7202294FF0640100FB02F281
:1058500008BF00FB01F210460399B9F1010FB1FB3B
:10586000F0F04CF6CD41CCF6CC41A0FB01124FEA52
:10587000D20101EB8101A0EB410407D80498000696
:1058800004D1002C00F0C3800120049009EB4900F2
:105890000B21DF2301EB800180008AB280B2C82196
:1058A00001F064F844F0100045460024002600EBA7
:1058B000400008EB001800BF18F804B01BF0010FFF
:1058C0000CBF4FF6FF704FF47840FDF73DFE701CA3
:1058D000C0B2A0FB0712D10801EB4101A0EB81008F
:1058E000002800F08D805FEA8B7054BF4FF6FF7088
:1058F0004FF47840FDF728FEB01CC0B2A0FB0712A1
:10590000D10801EB4101A0EB8100002878D05FEACB
:105910004B7054BF4FF6FF704FF47840FDF714FE04
:10592000F01CC0B2A0FB0712D10801EB4101A0EBB3
:105930008100002864D05FEA0B7054BF4FF6FF70FF
:105940004FF47840FDF700FE301DC0B2A0FB0712F7
:10595000D10801EB4101A0EB8100002850D05FEAA3
:10596000CB6054BF4FF6FF704FF47840FDF7ECFD6D
:10597000701DC0B2A0FB0712D10801EB4101A0EBE2
:105980008100E8B35FEA8B6054BF4FF6FF704FF4BD
:105990007840FDF7D9FDB01DC0B2A0FB0712D108B9
:1059A00001EB4101A0EB810050B35FEA4B6054BFB3
:1059B0004FF6FF704FF47840FDF7C6FDF01DC0B202
:1059C000A0FB0712D10801EB4101A0EB8100B8B1A7
:1059D0005FEA0B6054BF4FF6FF704FF47840FDF75D
:1059E000B3FD06F10800C1B2A1FB0723DA0802EB00
:1059F0004202A1EB8206002E18BF064601E000BF5E
:105A000000260134302C7FF457AFA846F0E609EBAE
:105A100049000B21DF2301EB800180008AB280B2B4
:105A2000C82100F0A3FF0024002600BF18F804508E
:105A300015F0010F0CBF4FF6FF704FF47840FDF7E3
:105A400083FD701CC0B2A0FB0712D10801EB41011D
:105A5000A0EB8100002800F08580A80754BF4FF616
:105A6000FF704FF47840FDF76FFDB01CC0B2A0FB93
:105A70000712D10801EB4101A0EB8100002871D091
:105A8000680754BF4FF6FF704FF47840FDF75CFD98
:105A9000F01CC0B2A0FB0712D10801EB4101A0EB42
:105AA000810000285ED0280754BF4FF6FF704FF4E6
:105AB0007840FDF749FD301DC0B2A0FB0712D108A8
:105AC00001EB4101A0EB810000284BD0E80654BF58
:105AD0004FF6FF704FF47840FDF736FD701DC0B2F1
