:020000040800F2
:10000000000A0020F10100089D200008C91700081F
:1000100099200008F11000084D2B00080000000096
:1000200000000000000000000000000003020008C3
:10003000C1110008000000000702000809020008C2
:100040000B0200080B0200080B0200080B0200085C
:100050000B0200080B020008C51100080B02000883
:100060000B0200080B0200080B0200080B0200083C
:100070000B0200080B0200080B0200080B0200082C
:100080000B0200080B0200080B0200080B0200081C
:100090000B0200080B0200080B0200080B0200080C
:1000A0000B0200080B0200080B0200080B020008FC
:1000B0000B0200080B020008DD2400080B020008F8
:1000C0000B0200080B0200080B0200080B020008DC
:1000D0000B02000881290008C92900080B0200084A
:1000E0000B0200080B0200080B0200080B020008BC
:1000F0000B0200080B0200080B0200080B020008AC
:100100000B0200080B0200080B0200080B0200089B
:100110000B0200080B0200080B0200080B0200088B
:100120000B0200080B0200080B0200080B0200087B
:1001300000F002F800F04DF80AA090E8000C8244AC
:100140008344AAF10107DA4501D100F042F8AFF289
:10015000090EBAE80F0013F0010F18BFFB1A43F0A5
:100160000103184770E3000090E30000103A24BF39
:1001700078C878C1FAD8520724BF30C830C144BF0C
:1001800004680C607047000000230024002500264E
:10019000103A28BF78C1FBD8520728BF30C148BFEA
:1001A0000B607047662909F05686642900F0C0800C
:1001B000782900F0F980002070471FB500F062FD3B
:1001C00004000020002108F059FCE0601FBD10B5BC
:1001D00010BD00F05FFE1146FFF7EFFF05F0C6FB14
:1001E00000F07DFE03B4FFF7F2FF03BC04F03CFA1D
:1001F0000948804709480047FEE7FEE7FEE7FEE7BB
:10020000FEE7FEE7FEE7FEE7FEE7FEE704480549F6
:10021000054A064B7047000085230008310100089D
:1002200000040020000A0020000600200006002034
:10023000704710B54C1084EA530404D54042C1F114
:10024000000138BF491E1B4204D55242C3F10003CE
:1002500038BF5B1E00F0FDF914F0804F04D040421F
:10026000C1F1000138BF491E14F0004F04D05242C2
:10027000C3F1000338BF5B1E10BD00000FB404497A
:1002800010B503AA029800F0EBFC10BC5DF814FB5B
:10029000240200200FB41CB5074B06AA7B44694614
:1002A0000090059800F0C3FC0020694600F0D2FCE5
:1002B0001CBC5DF814FB0000B509000070B50446D5
:1002C00085690068C10601D5302600E02026C007F8
:1002D00007D070BDD4E9012130469047206A401C08
:1002E00020626D1EF6D570BD70B504468569007834
:1002F000C00707D170BDD4E9012120209047206AB2
:10030000401C20626D1EF6D570BD09684A0501D5F6
:1003100040B27047C905FCD500B2704709684A056C
:1003200001D5C0B27047C905FCD580B27047000046
:100330002DE9F0410646002410687529314616A5BE
:1003400010D0FFF7E2FF002802DA404213A507E0D1
:1003500031688A0701D512A502E0490704D511A525
:10036000012401E0FFF7DAFF00210A2206F1240749
:1003700009E0B0FBF2FCB0FBF2F302FB1C003030F2
:1003800078541846491C0028F3D123462A463046A3
:10039000BDE8F04100F0DFB9000000002D000000D2
:1003A0002B0000002000000070B504460D462146D9
:1003B0001068FFF7B3FF2188090502D50F4A7A4478
:1003C00002E00E4A7A440E32002104F1240305E0D3
:1003D00000F00F060009965D5E54491C0028F7D115
:1003E00020780023000704D5702D02D009B1022324
:1003F00011322046BDE8704000F0ADB9D49B00003A
:100400002DE9F05F894604464FF0000ADFF874B129
:10041000FB44C0F820A02046E1688847002874D03B
:10042000252806D0D4E901219047206A401C20628B
:10043000F1E700265F462046E16888472028054608
:1004400007DB312D05D2781910F8200C08B10643CE
:10045000F1E7B00701D526F00406C4F81CA0002778
:10046000C4F818A02A2D09D0284607F0D5FD38B3C6
:1004700004EB8708303DC8F8185019E059F8041B00
:10048000204604EB87029161E1688847012F054609
:1004900018D1E069002820DA26F020061DE0D8F8FF
:1004A000180000EB800005EB40003038C8F8180059
:1004B0002046E1688847054607F0AEFD0028EED1EA
:1004C000012F0AD02E2D08D12046E16888477F1CD5
:1004D0000546022F46F02006C4DBA069002803DA97
:1004E000404246F00106A061F00701D026F0100658
:1004F0006C2D0BD0682D09D04C2D39D06A2D35D0FC
:10050000742D35D07A2D33D016E038E0E1682F46CF
:1005100020468847B842054609D16C2F26D04FF4B3
:100520008060E168064320468847054604E06C2F5A
:100530001AD04FF4807006430DB3A5F1410019287D
:1005400002D8203546F400664A46294620462660F1
:100550004E46FFF727FE80B101280BD0F61D26F08E
:10056000070000F1080956E74020E4E78020D8E7BB
:100570000020D6E706F104094DE7284652E7206A35
:10058000BDE8F09FAA9B000010B5044603E005F00B
:1005900023F8401C09D014F8010B05490028F6D1B6
:1005A000BDE810400A2005F017B84FF0FF3010BD2D
:1005B0002402002040EA010310B59B070FD1042A52
:1005C0000DD310C808C9121F9C42F8D020BA19BA1E
:1005D000884201D9012010BD4FF0FF3010BD1AB183
:1005E000D30703D0521C07E0002010BD10F8013BD8
:1005F00011F8014B1B1B07D110F8013B11F8014BFF
:100600001B1B01D1921EF1D1184610BD10B5431C21
:1006100002E010F8011B71B18107FAD14FF00132ED
:1006200002C88C1A8C4314EAC211F9D0C01A0A0607
:1006300003D0C01E10BDC01A10BD0A0401D0801E18
:1006400010BD0902FCD0401E10BD704770477047B6
:10065000704753EA020C00F069802DE9F04B4FF02F
:100660000006002B1FBFB3FA83F503FA05F424FA42
:1006700005F65E4012BF1643B2FA82F502FA05F49F
:10068000C5F120051EBF22FA05FC44EA0C04203502
:1006900056EA044C4FEA144418BF641C4FF000089B
:1006A0004FF00009904271EB030C39D3002919BFB8
:1006B000B1FA81F701FA07F6B0FA80F700FA07F607
:1006C000C7F120071EBF20FA07FC46EA0C062037B8
:1006D000B6FBF4FCA7EB0507103F07F01F0BCBF1AF
:1006E00020062CFA06F60CFA0BFB44BFB346002694
:1006F000202FA4BF5E464FF0000B5BEA060C08BF3C
:100700004FF0010B19EB0B0948EB0608ABFB027C21
:1007100006FB02CC0BFB03CCC01B71EB0C01C1E749
:100720000B46024641464846BDE8F08B13B54FF0F4
:1007300000004FF00001AFF30080BDE81C4070479F
:1007400010B500F0A3FA006810BD10B5044600F023
:100750009DFA046010BD2DE9F0470D46994692467A
:10076000044600F124080168880604D5E06921F0F8
:100770001001216000E00120A84201DD471B00E0DC
:100780000027A1697A1902EB0900081AA0612078F4
:10079000C00602D42046FFF791FD002608E0D4E908
:1007A00001211AF806009047206A401C761C20623E
:1007B0004E45F4DB2078C0060AD52046FFF77EFDC3
:1007C00006E0D4E9012130209047206A401C2062D5
:1007D000381EA7F10107F4DC07E0D4E9012118F87D
:1007E00005009047206A401C2062281EA5F10105E3
:1007F000F3DC2046FFF778FD2078000602D50220C2
:10080000BDE8F0870120FBE72DE9FF4F0C461E46AF
:100810004FF0FF378BB0D2E90001DDF860800A901D
:100820008A46C1F30A5505B93D46002108464FF0F6
:100830000000BAF1000F00F4400005DA00EB800080
:100840004FF4400101EA50004FEA9059B9F1010F0D
:1008500000DDB9460A9850EA4A000ED044F610501E
:10086000A5F2FF3545432F14B8F1000F1ED0754295
:10087000291E1EDDC9F100021CE0B8F1010F4FF086
:10088000000001D0302103E0F24305E02154401C78
:10089000B042FBDB30460022002121540B99C1F805
:1008A0000880C1E900200FB0BDE8F08FBD1B6D1CB2
:1008B000DEE74A4600DA694206A800F071FA06ABA4
:1008C00093E8070003AB83E8070050460A9906F057
:1008D0003EFF8DE80700A0F500501F3800900398F8
:1008E000002D0ADD42F21F014A460844002303A9F5
:1008F0000390684607F0A7F909E0A0F500504A46C2
:100900001F38002303A90390684607F0B1F98DE86A
:1009100007000004000C03D04FF0FF30410800E056
:100920001046B8F1000F03D00022009215461EE0D9
:10093000751E05D400F0AEF9303262556D1EF9D542
:10094000B3460122084302D000227F1C04E0207835
:10095000302801D100227F1E002A099784D01DE093
:10096000112D07DA00F096F9303262556D1C50EA0D
:100970000102F5D1084302D00098C8B10EE0002171
:10098000681E05E0235C625C63542254401E491CCF
:100990008142F7DBAB46A81B401E0990002004F8FB
:1009A0000B000B98099AC0F80880C0E9002B7AE781
:1009B00011264FF0000857E72DE9F04F884604460E
:1009C000D21D22F0070191B0D1E90001CDE90A0161
:1009D00007F085FA02460B98C00F01D02D2007E0E2
:1009E0002068810701D52B2002E0202101EAC00008
:1009F000032A099001D0072A05DB03464146204619
:100A000000F08EF90BE12078800601D5E06900E066
:100A10000620B8F1650F814606D0B8F1660F18D0F0
:100A2000B8F1670F70D131E00020B9F1110F0090DB
:100A300001DB112301E009F101030AAA01A90CA8B5
:100A4000FFF7E2FEDDE90C70002609F1010583469F
:100A500047E001204B4600904FF000470AAA01A949
:100A60000CA8FFF7D1FEDDE90DB00C995D4600261C
:100A700010B909F101000D18B9EB050003D4C0F15C
:100A8000FF3609F10105A5EB09002BE0B9F1010FD3
:100A900001DA4FF001090020B9F1110F009048462A
:100AA00001DD112300E003460AAA01A90CA8FFF703
:100AB000ABFEDDE90C704D4600268346207800072A
:100AC0000AD4AB4500DA5D4601A8012D04DD4119C9
:100AD00011F8011C302907D04F4502DA17F1040F35
:100AE00004DA012082460FE06D1EEEE7002F02DCE3
:100AF000ED1B3E4403E0781CA84200DD7D1CB81BC2
:100B000000F1010A4FF000472078000703D4AA45FE
:100B100001DB4FF0FF3A0021B7F1004F0DF1430820
:100B20008DF8431024D002202B23002F01DA7F42BE
:100B30002D230A21021EA0F1010000DC5FB197FB0A
:100B4000F1FC97FBF1F201FB1C7C17460CF1300C19
:100B500008F801CDEEE7A8F101000370218809052E
:100B600001D5452100E06521A0F1010800F8011C34
:100B700009980FA9A1EB0807FF1D00B10120411939
:100B800001EBEA70A1693844081A401EA061207880
:100B9000C00602D42046FFF791FB099828B1D4E99A
:100BA00001219047206A401C20622078C00622D58F
:100BB0002046FFF783FB1EE0002E04DBB34502DD79
:100BC00001A8805D00E03020D4E901219047206A2F
:100BD000401C2062761CAAF101005FEA000A0AD1DB
:100BE00000F050F8C0680168405CD4E901219047EA
:100BF000206A401C2062281EA5F10105DCDC07E00C
:100C0000D4E9012118F8010B9047206A401C2062AA
:100C1000381EA7F10107F3DC2046FFF765FB032030
:100C200011B041E601694A1C02610878704700B5BD
:100C30008FB0CDE901310021059105497944CDE915
:100C4000031011466846FFF7DBFB0FB000BD000044
:100C5000E5FFFFFF0A6802F8010B0A607047000019
:100C6000074B70B50D467B44FFF7E1FF044628466D
:100C700000F008F910B14FF0FF3070BD204670BD94
:100C80006F49000000487047A800002000487047E6
:100C90008800002030B5B0F10A0271F100034FEA7C
:100CA000900E4EEA817EB0EB0E0061EB91014FEAAF
:100CB000101E4EEA017E10EB0E0041EB11114FEABF
:100CC000102E4EEA016E10EB0E0041EB11214FEA9F
:100CD000104E4EEA014E10EB0E0041EB1141401850
:100CE00041F100014FEAD00040EA41704FEAD101E2
:100CF0004FEA810444EA907410EB800544EB010450
:100D00006D1944EB0404521BA3414FF0000348BF8C
:100D10000A3200D530BD401C41F1000130BD000059
:100D20002DE9F0411F46044603260168072A01F415
:100D3000006004DB08B116A505E016A503E008B1C4
:100D400015A500E015A521F010002060A069C01EC7
:100D5000A0610FB1401EA0612046FFF7AFFA4FB16E
:100D6000D4E9012138469047206A401C2062C01C0B
:100D7000206206E0206AFAE7D4E9012115F8010BA8
:100D80009047761EF8D22046FFF7AEFABDE8F08114
:100D90004E414E006E616E00494E4600696E66001F
:100DA0002DE9F047814616468AB0354878440DC88B
:100DB0008DE80D0032487844801C03AC0DC884E8EF
:100DC0000D0041F69B300844372190FBF1F290FB77
:100DD000F1F5A5F1800501FB12041B3C02D564422C
:100DE000012000E00020DFF898A080460027FA44A8
:100DF000AAF1BE0A0EE0E0070AD03246684607EBC9
:100E0000470101230AEB810106F032FF8DE807005C
:100E100064107F1C002CEED1194F7F44AE3F19E0C7
:100E2000E80715D007EB04100DF1180A90E80E0042
:100E30008AE80E00C068F04201D198190890324645
:100E4000012306A903A806F013FF03AB83E80700FC
:100E50006D10641C002DE3D14FF00103324669464A
:100E6000B8F1000F03A802D006F0EDFE01E006F095
:100E7000FFFEC9E90001C9F808200AB0BDE8F08703
:100E80008C930000007B00F08000704700487047A2
:100E9000880000207546FFF7F9FFAE460500694659
:100EA000534620F00700854618B020B5FFF7AEF98D
:100EB000BDE820404FF000064FF000074FF000085B
:100EC0004FF0000BAC46ACE8C009ACE8C009ACE898
:100ED000C009ACE8C00921F007018D46704710B584
:100EE0000446AFF300802046BDE81040FFF77AB912
:100EF0004FF0013C50F8042B51F8043B9A4221D1A9
:100F0000A2EB0C03934313EACC1317D150F8042B34
:100F100051F8043B9A4215D1A2EB0C03934313EA18
:100F2000CC130BD150F8042B51F8043B9A4209D151
:100F3000A2EB0C03934313EACC13DBD04FF0000079
:100F4000704700BFD01A01BAB1FA81F101F018015F
:100F500022FA01F0CB40DBB2C0B2C01AC1F12001CD
:100F60002CFA01F3D11A914311EAC311E6D170476B
:100F70008268002942F0010308BF22F00103836068
:100F80007047000080B543F60041C4F20101884279
:100F900014D042F60001C4F20101884216D042F298
:100FA0000041C4F20101884218BF80BD4FF40070B7
:100FB000012101F0D1F84FF400700EE04FF4004031
:100FC000012101F0C9F84FF4004006E04FF48060C1
:100FD000012101F0C1F84FF480600021BDE880409C
:100FE00001F0BAB88068C0F380007047C06C80B26E
:100FF000704700000068084018BF012070470000DB
:101000008068C0F3C000704780B54FF6FF63426848
:10101000CFF6F07302EA030CD1E9003243EA0C0385
:1010200043EA02224FF2FD734260CFF6F173826809
:1010300002EA030ED1E902C30A6942EA0E021A4328
:1010400042EA4C028260C26A097D013922F47002D0
:10105000C9B242EA0151C16280BD000010B501EB86
:10106000410C092988BFACF11E0C092903FA0CFEBA
:101070004FF0070303FA0CFC4FF0100388BF0C235A
:10108000062AC45824EA0C0444EA0E04C45003D8C7
:1010900034306FF0040307E00C2A87BF2C306FF068
:1010A000400330306FF0220302EB82021A441F2308
:1010B000914003FA02F2036823EA0202114301603D
:1010C00010BD0000816841F0080181607047000098
:1010D0008268002942F4A00308BF22F4A0038360C1
:1010E00070470000816841F0040181607047000092
:1010F000FEE70000B0B54DF20A71C3F6A34108F057
:10110000D7FC40F2F4054EF248110446C2F2000545
:10111000C3F67A71286808F0CBFC0146204608F037
:1011200063FA2860B0BD0000B0B50C464DF20A71FC
:10113000C3F6A34108F0BCFC054640F23800214646
:10114000C2F20000006808F0B3FC40F2F804014667
:10115000C2F20004206808F047FA4EF24811C3F6C4
:101160007A7108F0A5FC0146284608F03DFA206097
:10117000B0BD0000B0B50C464DF20A71C3F6A341F4
:1011800008F096FC054640F238002146C2F2000005
:10119000006808F08DFC40F2FC040146C2F2000435
:1011A000206808F021FA4EF24811C3F67A7108F06F
:1011B0007FFC0146284608F017FA2060B0BD000009
:1011C0007047000010B50120012400F015F841F22D
:1011D00000000121C4F2010000F006FA002818BF47
:1011E00010BD40F28400C2F2000001680529B8BFBA
:1011F0004C1C046010BD000040F21441C4F2010117
:1012000008607047C26840F20041C4F20101F2B1C7
:1012100002680B6893430B604B6893434B60D0F8B4
:1012200004C05CF801301A434CF8012002688B6856
:1012300093438B60CB689343CB60806810280DD1BB
:10124000886810438860C8681043C8607047D0E958
:101250000020435823EA02024250704743581A4381
:101260004250704780B50C2240F2080E0F2302EA6C
:10127000810201F0FC01C4F2010E03FA02FC51F8F4
:101280000E30904023EA0C0341F80E3051F80E2046
:10129000104341F80E0080BD80B5D1F808E00EF093
:1012A0000F0C1EF0100F1CBF4B684CEA030C098892
:1012B00011F0FF0F00F0A4800368CA070BD023F0E1
:1012C0000F02BEF1480F42EA0C0315D0BEF1280F01
:1012D00001D1012242618A0712D523F0F002BEF14A
:1012E000280F42EA0C131CD0BEF1480F08D102228D
:1012F00002614A0706D418E0012202618A07ECD491
:101300004A0712D523F47062BEF1280F42EA0C237B
:101310001CD0BEF1480F08D1042202610A0719D57A
:1013200005E0022242614A07ECD40A0712D523F4F1
:101330007042BEF1280F42EA0C331CD0BEF1480FB8
:1013400008D108220261CA0606D418E004224261CC
:101350000A07ECD4CA0612D523F47022BEF1280F76
:1013600042EA0C431CD0BEF1480F08D110220261A2
:101370008A0619D505E008224261CA06ECD48A061D
:1013800012D523F47002BEF1280F42EA0C531CD090
:10139000BEF1480F08D1202202614A0606D418E0A7
:1013A000102242618A06ECD44A0612D523F07062FC
:1013B000BEF1280F42EA0C631AD0BEF1480F08D1E3
:1013C000402202610A061AD505E0202242614A063F
:1013D000ECD40A0613D523F07042BEF1280F42EA7E
:1013E0000C730AD0BEF1480F09D18022026106E0D9
:1013F000402242610A06EED401E08022426103608D
:10140000B1F5807F38BF80BD4368CA050CD523F095
:101410000F02BEF1480F42EA0C0317D0BEF1280FAD
:1014200002D14FF4807242618A0514D523F0F00294
:10143000BEF1280F42EA0C131FD0BEF1480F0AD1AB
:101440004FF4007202614A0507D41BE04FF480722A
:1014500002618A05EAD44A0514D523F47062BEF10C
:10146000280F42EA0C231FD0BEF1480F0AD14FF4D7
:10147000806202610A051CD506E04FF400724261E9
:101480004A05EAD40A0514D523F47042BEF1280FA8
:1014900042EA0C331FD0BEF1480F0AD14FF400626C
:1014A0000261CA0407D41BE04FF4806242610A055E
:1014B000EAD4CA0414D523F47022BEF1280F42EAFC
:1014C0000C431FD0BEF1480F0AD14FF48052026185
:1014D0008A041CD506E04FF400624261CA04EAD4D3
:1014E0008A0414D523F47002BEF1280F42EA0C538B
:1014F0001FD0BEF1480F0AD14FF4005202614A04D6
:1015000007D41BE04FF4805242618A04EAD44A04B3
:1015100014D523F07062BEF1280F42EA0C631ED08E
:10152000BEF1480F0AD14FF48042026109041BD575
:1015300006E04FF4005242614A04EAD4090413D58C
:1015400023F07041BEF1280F41EA0C730ED0BEF1BA
:10155000480F09D14FF400410161436080BD4FF451
:10156000804242610904EBD4436080BD4FF40041E6
:101570004161436080BD000010B50422002800F4E2
:1015800040141FFA80FCC4F201021346B8BF43F0B6
:101590001803B4F5401F1B68C0F3034E07D114684D
:1015A00023F0706324F07064146081B916E0C40203
:1015B00006D447F6F07404EA50440CFA04F402E04E
:1015C000032404FA0EF4A34343F0706331B147F6E9
:1015D000F07101EA50410CFA01F10B430028B8BF49
:1015E0001832136010BD00008068084018BF012049
:1015F0007047000041617047016170472DE9F04F6D
:101600008DB00891CDE905209A460DF12603692099
:101610003B210E2200F004FE00B12CE0BDF82600B4
:10162000C0BA08F0B1F90190BDF82800C0BA08F0BE
:10163000ABF90290BDF82A00C0BA08F0A5F905463A
:10164000BDF82E00C0BA08F09FF907F0A1FF0746C9
:10165000BDF830000C46C0BA08F096F907F098FFC4
:101660008046BDF832000E46C0BA08F08DF907F08A
:101670008FFFCDE9031046F26669384621464FF0E8
:101680006632C4F230094B4607F0FCFA07F00CFA58
:1016900040F23C01C2F200010C68214608F066FBF2
:1016A0008346404631464FF066324B4607F0EAFA31
:1016B00007F0FAF9214608F059FB8046DDE90310EE
:1016C0004FF066324B4607F0DDFA07F0EDF92146A0
:1016D00008F04CFB81460698CDF81CA0042841D1A7
:1016E0004DF20A7440F2982059460322C3F6A334FF
:1016F000C2F20000234605F0F1FE834640F2A4202A
:10170000414605222346C2F2000005F0E7FE80466E
:1017100040F2B020494605222346C2F2000005F0FF
:10172000DDFE814640F2BC20019905222346C2F22B
:10173000000005F0D3FE824640F2C820029905223F
:101740002346C2F2000005F0C9FE064640F2D4204E
:10175000294605222346C2F2000005F0BFFE059F80
:10176000054602E0059FDDE901A63046294607F05F
:1017700003F804465046294606F0FEFF3146064669
:101780000798C0E900B8C0F808901698C0E900A111
:10179000856000252046C4F23435294608F088F9D2
:1017A00040F6DB74C4F24904214607F0BBFF0899F8
:1017B00008603046294608F07BF9214607F0B2FF61
:1017C00038600DB0BDE8F08FFEE70000022003F0A6
:1017D00071BA000010B584B008200121012400F086
:1017E000AFFC102001A903904FF44060ADF8040055
:1017F0000320029040F60040C4F20100FFF74CFDC8
:1018000048F2A810C4F221200460446004B010BD66
:101810002DE9F04F83B040F60441029048F2A8153C
:101820004FF0000BC4F20101C4F22125086820F436
:1018300070400860086840F400400860002028609C
:10184000022003F037FA01262E6055F87C0C019037
:10185000012003F02FFA0220C5F800B003F02AFAA5
:101860002E60012055F87C7C03F024FA0220C5F894
:1018700000B003F01FFA2E60012055F87C4C03F0F5
:1018800019FA0220C5F800B003F014FA2E60012006
:1018900055F87C8C03F00EFA0220C5F800B003F076
:1018A00009FA2E60012055F87C9C03F003FA02200F
:1018B000C5F800B003F0FEF92E60012055F87CACAD
:1018C00003F0F8F90220C5F800B003F0F3F92E6038
:1018D000012055F87CBC03F0EDF9002028600220BF
:1018E00003F0E8F92E60012055F87C6C03F0E2F972
:1018F00040F6044200212960C4F20102106820F47D
:1019000070401060106840F440501060019800284A
:1019100018BF0120002F18BF0127002C18BF012479
:1019200047EA4000B8F1000F18BF4FF0010844EA41
:101930004000B9F1000F18BF4FF0010948EA40001C
:10194000BAF1000F18BF4FF0010A49EA4000BBF19D
:10195000000F18BF4FF0010B4AEA4000002E4BEA7F
:10196000400018BF012646EA4004029848B1022010
:10197000696003F09FF901202860022003F09AF9C2
:1019800008E0012602206E6003F094F902202E6028
:1019900003F090F900202860E0B203B0BDE8F08FBA
:1019A000F0B581B0044640F6044048F2A815002680
:1019B000C4F20100C4F22125016821F470410160E4
:1019C000016841F440510160E0092E606860022026
:1019D00003F070F9012702202F6003F06BF9022059
:1019E0002E6003F067F9C4F380106860022003F0F2
:1019F00061F902202F6003F05DF902202E6003F0F0
:101A000059F9C4F340106860022003F053F9022032
:101A10002F6003F04FF902202E6003F04BF9C4F35E
:101A200000106860022003F045F902202F6003F0E7
:101A300041F902202E6003F03DF9C4F3C000686054
:101A4000022003F037F902202F6003F033F902205F
:101A50002E6003F02FF9C4F380006860022003F0C9
:101A600029F902202F6003F025F902202E6003F0EF
:101A700021F9C4F340006860022003F01BF9022042
:101A80002F6003F017F902202E6003F013F904F021
:101A900001006860022003F00DF902202F6003F0BE
:101AA00009F92E60022001B0BDE8F04003F002B950
:101AB000B0B540F6044048F2A814C4F20100C4F2E4
:101AC0002124016821F470410160016841F4405112
:101AD0000160012060602060042003F0EBF8002525
:101AE0000420656003F0E6F82560B0BD10B540F64F
:101AF000044048F2A814C4F20100C4F22124016891
:101B000021F470410160016841F4405101600020FE
:101B100020606060042003F0CDF801202060606048
:101B20000420BDE8104003F0C5B8000070B540F6D1
:101B3000044448F22C150126C4F20104C4F2212504
:101B4000206820F470402060206840F4004020604D
:101B50000120C5F8806003F0ADF80120EE6703F0C6
:101B6000A9F8286888B10020296871B1296861B195
:101B700040F00201C9B2F9290BD82A682AB1F92923
:101B800007D8296804300029EED100242046EC67EC
:101B900070BD206820F470402060206840F4405000
:101BA00020600020E867C5F88000042003F082F878
:101BB00001240420EC67C5F8804003F07BF8204640
:101BC00070BD00002DE9F041044688460068A66813
:101BD000D4E9041707F008FD39460546606007F0B0
:101BE00003FD0146284607F09DFD0746E06040469C
:101BF000314608F0BBF80146384607F059FF014668
:101C0000304607F0F1FC0646A0604FF07E503946A2
:101C100008F0ACF80146284607F04AFF206030463D
:101C2000BDE8F0812DE9F04F85B0CDE9031040F219
:101C30000C10C2F2000004684FF00040214608F08A
:101C400095F840F21011C2F200010968019108F004
:101C50008DF8014640F23800C2F20000D0F800B022
:101C6000584607F025FF41F26F21C3F6832107F0A4
:101C7000BBFC40F20005C2F20005296807F0B4FC85
:101C80004FF07C51074607F0AFFC8046384641468E
:101C900007F048FD39460646029007F009FF014665
:101CA000384608F063F8286040F204005946C2F252
:101CB00000000568284607F0FBFE82462046514694
:101CC00008F054F881463046494607F0F1FE0146D7
:101CD000484608F04BF840F20C11C2F200010860CF
:101CE0000198514608F042F84146064607F01AFDB1
:101CF0003946044607F0DCFE0146304608F036F867
:101D000040F21011C2F20001086049F6A6315846AF
:101D1000C3F6443107F0CCFE294607F065FC0546C2
:101D20002046494607F0C4FE0146284608F01EF842
:101D300040F2141840F20401C2F20008C2F200019D
:101D4000D8F8005008600398294608F00FF8594663
:101D500007F0AEFE40F218190146C2F20009D9F8A8
:101D6000000007F041FC06460498314607F0FEFFEC
:101D70000299074607F09CFE0146304607F034FC06
:101D80000646C9F800003846214607F091FE014694
:101D9000284607F029FCC8F80000304605B0BDE829
:101DA000F08F00002DE9F04F83B0CDE9011040F233
:101DB0001C10C2F20000076841F26F20C3F68320B6
:101DC000394607F0D3FF40F22011C2F200010C683F
:101DD000214607F0CBFF014640F23800C2F2000076
:101DE000D0F800B0584607F063FE40F20809C2F28E
:101DF0000009D9F8001007F0F7FB4FF07C510546B9
:101E000007F0F2FB80462846414607F08BFC294646
:101E10000646009007F04CFE0146284607F0A6FF54
:101E2000C9F8000040F20C005946C2F20000D0F898
:101E300000A0504607F03CFE81463846494607F070
:101E400095FF07463046394607F032FE01463846D0
:101E500007F08CFF40F21C11C2F20001086020461E
:101E6000494607F083FF4146064607F05BFC2946DA
:101E7000044607F01DFE0146304607F077FF40F2AA
:101E80002011C2F20001086049F6A6315846C3F697
:101E9000443107F00DFE514607F0A6FB05462046EB
:101EA000394607F005FE0146284607F05FFF40F27D
:101EB000241840F20C01C2F20008C2F20001D8F866
:101EC000005008600198294607F050FF594607F076
:101ED000EFFD40F228190146C2F20009D9F80000CE
:101EE00007F082FB06460298314607F03FFF009953
:101EF000074607F0DDFD0146304607F075FB064654
:101F0000C9F800003846214607F0D2FD01462846B0
:101F100007F06AFBC8F80000304603B0BDE8F08F58
:101F200042F6E05300214FF07E524FF07C5CC3F646
:101F30009023C0E90021C0E90211C0E9043C7047C8
:101F40002DE9F04385B00C4605460DF106036920E6
:101F50003B210E2200F064F900281EBF002005B0CE
:101F6000BDE8F083BDF80A00C0BA07F00DFDBDF86A
:101F70000810BDF81280BDF80E90BDF81060BDF8D5
:101F80000670A860C8BA07F0FFFC6860F8BA07F0EE
:101F9000FBFC2860F0BA07F0F7FC07F0F9FA46F20C
:101FA00066654FF06632C4F230052B4606F06AFED5
:101FB00006F07AFD606099FAB9F007F0E5FC07F0E9
:101FC000E7FA4FF066322B4606F05CFE06F06CFD39
:101FD000206098FAB8F007F0D7FC07F0D9FA4FF074
:101FE00066322B4606F04EFE06F05EFDA060012034
:101FF00005B0BDE8F083000080B5FFF7EBFB6B2078
:10200000802100F0A5FD642002F026FE6B20002157
:1020100000F09EFD1B20182100F09AFD1C201021CD
:1020200000F096FD1920012100F092FD1A200121F7
:1020300000F08EFD3820002100F08AFD6A2000218A
:1020400000F086FD2320002100F082FD3720802152
:1020500000F07EFDFFF72CFDD220FFF7A1FCFFF77B
:1020600065FD7520FFF79CFCFFF760FDFFF720FD85
:10207000D320FFF795FCFFF759FD0020FFF7C8FBC1
:10208000FFF734FD6B20032100F062FD6C2000217E
:1020900000F05EFD002080BDFEE7000070470000FC
:1020A00042684EF20011CEF20001EAB110B54EF6D0
:1020B0000C520723CEF20002126890F801E08478F7
:1020C00090F800C023EA12220F23D340C2F1040289
:1020D00023400EFA02F21A4301EB0C03120183F8BB
:1020E0000023BDE8104000E080310078012300F0BB
:1020F0001F02C0F3421003FA02F241F82020704799
:1021000040F080604EF60C5140F0FD70CEF20001C0
:102110000860704741F20401C4F202010A6822F427
:10212000404210430860704741F21C020029C4F28B
:10213000020211680CBF21EA0000084310607047DA
:1021400041F218020029C4F2020211680CBF21EA10
:10215000000008431060704741F20C020029C4F2ED
:10216000020211680CBF21EA0000084310607047AA
:1021700080B541F2040EC4F2020EDEF8002002F037
:102180000C0341F20022C0F27A02082B1FD1DEF8C4
:102190000030C3F3834303F1020CDEF8003013F484
:1021A000803F06D140F60012C0F23D020CFB02F265
:1021B0000DE0DEF8003013F4003F02D10CFB02F218
:1021C00005E040F60012C0F23D020CFB02F2026094
:1021D0004AF25811DEF80030C0F60001C3F30313D1
:1021E000CB5CDA404260DEF80030C3F30223CB5C04
:1021F00022FA03F38360DEF80030C3F3C223C95C24
:102200004AF25413C0F6000322FA01F1C160DEF86D
:102210000020C2F381329A5CB1FBF2F1016180BD12
:102220002DE9F04F81B040F6044A074648F2A8195C
:1022300001261C4615468846C4F2010AC4F221292B
:10224000DAF8000020F47040CAF80000DAF8000064
:1022500040F44050CAF800000420C9F80460C9F8EE
:10226000006002F027FD4FF0000B0420C9F804B015
:1022700002F020FD7F00C9F800B0F8B2FFF790FB34
:10228000FFF754FCD0B1DAF8000020F47040CAF82F
:102290000000DAF8000040F44050CAF800000420C2
:1022A000C9F800B0C9F804B002F004FD0420C9F870
:1022B0000060C9F8046002F0FDFC51E04046FFF701
:1022C0006FFBFFF733FCDAF8000020F47040CAF827
:1022D0000000DAF8000040F44050CAF80000042082
:1022E000C9F80460C9F8006002F0E4FC0420C9F8F1
:1022F00004B002F0DFFC47F00100C9F800B0C0B242
:10230000FFF74EFBFFF712FC05E000BFFFF780FA76
:1023100004F8010B013DE8B2012803D020B10120EF
:10232000F4E700BF0020F1E7DAF80000002620F40F
:102330007040CAF80000DAF8000040F44050CAF8D3
:1023400000000420C9F80060C9F8046002F0B2FC83
:102350000120C9F80000C9F80400042002F0AAFC1A
:10236000304601B0BDE8F08F4EF210010428CEF2E5
:1023700000010A6822F0040308BF42F004030B6066
:102380007047000082B041F204000022C4F2020053
:10239000CFF6FF0250F8041C41F0010140F8041C84
:1023A000016811404FF6FF720160CFF6F66250F8F7
:1023B000041C114040F8041C50F8041C21F4802136
:1023C00040F8041C016821F4FE0101604FF41F0174
:1023D000416000210191009150F8041C41F48031CA
:1023E00040F8041C50F8041C01F4003100910199DC
:1023F00001310191009919B90199B1F5A06FF1D19D
:1024000050F8041C11F4003F0CBF00210121009181
:102410000099012958D1D0F8FC1F41F01001C0F8F3
:10242000FC1FD0F8FC1F21F00301C0F8FC1FD0F8FE
:10243000FC1F41F00201C0F8FC1F01680160016847
:102440000160016841F480610160016821F47C1140
:102450000160016841F4E811016050F8041C41F08A
:10246000807140F8041C00BF50F8041C11F0007F7C
:102470000ED150F8041C11F0007F09D150F8041C53
:1024800011F0007F04D150F8041C11F0007FEBD054
:10249000016821F003010160016841F0020101605F
:1024A000016801F00C0108290ED0016801F00C014F
:1024B000082909D0016801F00C01082904D001683D
:1024C00001F00C010829EBD14EF608504FF00061E5
:1024D000CEF20000016002B0704700002DE9F04329
:1024E00081B040F600040121C4F20004204600F04F
:1024F000DFF9012840F0C6812046012100F0CAF929
:1025000040F2F03048F21F5240F21434C2F20000A0
:10251000C5F2EB12C2F200040168013181FB022313
:102520009A1102EBD372C82302FB1312002A08BFD0
:10253000012101602068B8BB00F0CAFB01F020FC5B
:1025400040F23400C2F20000006805F0B5F840F235
:10255000A830C2F20000FFF7E3FC40F21830C2F2EC
:102560000000FFF7DDFC40F23030C2F20000FFF760
:10257000D7FC40F24830C2F20000FFF7D1FC40F235
:102580006030C2F20000FFF7CBFC40F27830C2F2BC
:102590000000FFF7C5FC40F29030C2F20000FFF7E8
:1025A000BFFC20680130206040F2CC36C2F2000649
:1025B0003768002F45D0012F21D140F2E0300024B0
:1025C000C2F20000C4F248340068214607F0AAF8BD
:1025D00040F23C052146C2F20005286040F2E4309A
:1025E000C2F20000006807F09DF8686040F2E83031
:1025F0002146C2F20000006807F094F8A86040F29B
:102600008407C2F20007386801F000FF40F2F83199
:10261000C2F2000108603068012840F01981386872
:10262000012833D140F2441040F22C1140F2142220
:10263000C2F20000C2F20001C2F2000203F0C0FACE
:1026400006E140F28028C2F20008D8F80000A0F2AB
:10265000E931C6294DD840F2001940F2E800C2F233
:102660000009C2F200004946FFF76AFC40F2C83098
:10267000C2F200000168002900F0858040F2C030FD
:10268000D9F80050C2F20000006886E0811E0229DD
:1026900036D840F21421002240F22C1540F24414A6
:1026A00040F20016C2F20001C2F20006C2F20005BA
:1026B000C2F200040A6040F2E80122463346C2F248
:1026C000000100912946FEF799FF3868042800F0C0
:1026D0009D80032800F0B280022840F0B980316864
:1026E0002868FFF79FFA286071682068FFF75AFB97
:1026F000ADE0B0F57A7F3FDC0130C8F800007EE73E
:10270000052840F0A58040F2001440F2E800C2F233
:102710000004C2F200002146FFF712FC002800F07E
:10272000978040F23C0294E82101C2F20002D2E913
:102730000017966807F01AFB20602846394607F014
:1027400015FB60604046314607F010FBA06040F288
:10275000142040F2E80140F22C1240F24413C2F27D
:102760000000C2F20001C2F20002C2F200030090B7
:10277000204601F07BFF6BE0B0F5966F7FF43FAF32
:102780000120306019E70121D9F80050016040F2C2
:10279000C030C2F2000005602846294607F0E6FA7C
:1027A000002120F00040C4F2201106F0A1FF10B972
:1027B0000227376005E040F2C0303768C2F20000FF
:1027C000056040F2E0342846C2F20004216806F0B9
:1027D0000BFF40F2E4352060C2F20005D9E90104A4
:1027E000296806F001FF286040F2E8352046C2F271
:1027F0000005296806F0F8FE2860D8F800000130CE
:10280000C8F80000012F7FF4FAAED6E64DF20A7642
:1028100040F2E02029680A22C3F6A336C2F2000083
:10282000334604F05BFE286040F2EC2021680A2267
:102830003346C2F2000004F051FE08E03168286817
:10284000FEF772FC286071682068FEF793FC206038
:1028500040F21034C2F200042068B0F5AF6F04DC1F
:102860000130206001B0BDE8F083B0F5FA6F09DAFD
:1028700040F20010C2F20000006804F0E7FE206899
:102880000130206001B0BDE8F0830000C94301823F
:1028900070470000C9430182704700000288002988
:1028A00042F0010308BF22F00103038070470000DB
:1028B000028A0A4018BF01228089084018BF0120FF
:1028C00010407047002A82890CBF22EA010111439F
:1028D0008181704740F6FF33B0F800C0C4F20003B6
:1028E00098420FDCB0F1804F1ED040F20043C4F29A
:1028F0000003984218D040F60003C4F20003984247
:1029000012D016E040F60043C4F2000398420BD008
:1029100043F20043C4F20103984205D042F600435B
:10292000C4F20103984204D14B882CF0700243EAB0
:10293000020C41F2004240F48063C4F20002934270
:1029400004D0CB882CF4407243EA020CA0F800C0FB
:102950008A8882850A880285A0F18042A2F5963293
:102960004FEAB222072A07D8012303FA02F212F033
:10297000E50F1CBF097A01860121818270470000A2
:1029800010B543F6000440F22551C4F2010420467C
:1029900000F044F8002808BF10BD40F28010C4F2D7
:1029A00023200168B1FA81F149090160204600F055
:1029B000C5F840F2F431C2F20001086040F2122181
:1029C000C2F20001087010BD10B544F2004440F29C
:1029D0002551C4F20004204600F020F8002808BF6A
:1029E00010BD40F28010C4F223200168B1FA81F1D9
:1029F00049090160204600F0A1F810BD8289002934
:102A000042F4005308BF22F4005383817047000052
:102A10000088084018BF01207047000001F01F0225
:102A2000012303FA02F2C1F34213022B06D0012B59
:102A300014BF00F1140300F10C0301E000F11003D6
:102A40001B88090A1A404FF0010318BF01220088B1
:102A500003FA01F1084018BF012010407047000040
:102A600001F01F0C012303FA0CFCC1F342131421E3
:102A7000022B08BF1021012B08BF0C21002A42584D
:102A80000CBF22EA0C0242EA0C02425070470000DE
:102A900070B586B00446008A0D46C98801AE20F4A0
:102AA000405008434EF6F3112082A0890840A988BF
:102AB00008432989084369890843A081A08AA98914
:102AC00020F440700843A0823046FFF751FB43F6E4
:102AD000000106F108000222C4F201018C424FF00D
:102AE000190108BF06F10C00042600684843A189BB
:102AF000A2EBD1312A6802FA01F1B0FBF1F048F201
:102B00001F51C5F2EB11A0FB01235A096FF06303BB
:102B100002FB0300A389A6EBD336B0403230A0FB02
:102B20000101072040EA133080F0080000EA51104C
:102B300040EA0210208106B070BD000080886FF36B
:102B40005F2070476FF35F2181807047FEE70000D0
:102B5000B0B50C460546FEF7ABFFFEF737FED220B8
:102B6000FEF71EFFFEF7E2FF18B1FEF7BFFF0120E0
:102B7000B0BD2846FEF714FFFEF7D8FF2046FEF74B
:102B80000FFFFEF7D3FF0446002818BF0124FEF70D
:102B9000ADFF2046B0BD00002DE9F04F81B040F6FA
:102BA000044A074648F2A81901241D4616468846DD
:102BB000C4F2010AC4F22129DAF8000020F47040BE
:102BC000CAF80000DAF8000040F44050CAF80000EB
:102BD0000420C9F80440C9F8004002F06BF84FF037
:102BE000000B0420C9F804B002F064F87800C9F8BA
:102BF00000B0C0B2FEF7D4FEFEF798FFD0B1DAF80D
:102C0000000020F47040CAF80000DAF8000040F438
:102C10004050CAF800000420C9F800B0C9F804B058
:102C200002F048F80420C9F80040C9F8044002F056
:102C300041F849E04046FEF7B3FEFEF777FF56B194
:102C4000002400BF285DFEF7ABFEFEF76FFFF8B96A
:102C50000134B442F6D3DAF80000002420F47040C6
:102C6000CAF80000DAF8000040F44050CAF800004A
:102C70000420C9F80040C9F8044002F01BF8012004
:102C8000C9F80000C9F80400042002F013F81BE0A2
:102C9000DAF8000020F47040CAF80000DAF800000A
:102CA00040F44050CAF800000020C9F80000C9F8FC
:102CB0000400042001F0FEFF01240420C9F80040B4
:102CC000C9F8044001F0F6FF204601B0BDE8F08FDE
:102CD00070B586B041F218000124C4F20200016808
:102CE00041F011010160012001F0E4FF10200121F9
:102CF000FFF726FA4820ADF8084002A90490032007
:102D0000039041F20000C4F20100FEF7C5FA012071
:102D10000121FFF715FA0220002102250026FEF707
:102D2000A1FA0C20CDE90246CDE9040402A8FEF781
:102D300069FA4FF483708DF80250ADF800006846D0
:102D40000194FFF7ADF906B070BD000010B5044660
:102D5000000A00F06BFFE0B2BDE8104000F066BF73
:102D600070B586B00C460546042001210126FFF708
:102D7000DBF9ADF80C4040F60004ADF8105000252A
:102D800003A9C4F20004ADF80E50ADF8125020466D
:102D9000FFF7A0FD20460121FFF778FD2046012125
:102DA0000122FFF78FFD4FF4A060FFF7A9F91E2065
:102DB0008DF80650ADF8040001A80296FFF770F9EF
:102DC00020460121FFF76AFD06B070BD2DE9F04FE6
:102DD00087B0119E074690461C460D46069100EBB3
:102DE0005600013882B28819013883B2384601F0A2
:102DF000C5FA07210122300911EA560F18BF02EB6C
:102E0000161070430028049000F08480A6F10C0096
:102E100075083E464FF0000BC0F385015FFA85F957
:102E200041EA8011A8F12000CBB24AF2DC51C2B2D3
:102E30000020C0F600010292039301EB0211019100
:102E40004BF6AC51C0F6000101EB8211002200915B
:102E5000052B5FD80592DFE803F0030D5D0F5D19C8
:102E600002994AF26812C0F6000201EB410102EB3E
:102E700081010CE001990AE002994AF6DC32C0F6C1
:102E8000000201EB410102EB011100E0009908444E
:102E90004FF0000890F800A00120129900FA08F005
:102EA00000EA0A0081B148B10699B0B2024689B27F
:102EB0000B4601F063FA2046FFF748FF0136B0B237
:102EC000C01BA8420FD115E000280CBF1098204667
:102ED000FFF73CFF0BF1010B5FFA8BF0B0FBF9F150
:102EE00001FB190058B108F10108B8F1080FD3D35C
:102EF00008E000BF06983E460130069002E04FF021
:102F0000000B00BF059A0499039B013290B28142E5
:102F10003FF69EAF07B0BDE8F08F00002DE9F04FFF
:102F2000BBB00FF67C404FF0000A4AF2DC59422455
:102F30004FF6FF78031D0069C0F600090ECB2D90F7
:102F40002AA80EC0DFF8580CCDF89CA0299046F6B0
:102F50005010C3F67420CDE925A046F65270C3F692
:102F60006C20CDE923A046F25910C3F677202290B9
:102F70000FF64040071D40698ECF21901DA88EC0DE
:102F8000DFF8300C1C900FF64440071D40698ECFCF
:102F90001B9017A88EC0DFF8340C16900FF6444033
:102FA000071D40698ECF159011A88EC0DFF8340C34
:102FB00010900FF64840071D40698ECF0F900BA868
:102FC0008EC0DFF8380C0A900FF64840071D4069A4
:102FD0008ECF099005A88EC0DFF8380C29AF049079
:102FE0004AF007011FFA8AF00F2300258AB2002158
:102FF00001F0C4F9A4F12000C0B209EB001400BF35
:10300000665D16F0010F0CBF4FF6FF700020FFF752
:103010009DFEB00754BF4FF6FF700020FFF796FEED
:10302000700754BF4FF6FF700020FFF78FFE300788
:1030300054BF4FF6FF700020FFF788FEF00654BF24
:103040004FF6FF700020FFF781FEB00654BF4FF629
:10305000FF700020FFF77AFE700654BF4FF6FF7036
:103060000020FFF773FE300654BF4FF6FF700020BC
:10307000FFF76CFE0135102DC2D117F8014F0AF190
:10308000080A002CACD1002650240DF1980A00BF8C
:1030900046F00701B0B21F238AB2102101F06EF989
:1030A000A4F120000024C0B209EB00152F5D17F039
:1030B000010F0CBF4FF6FF700020FFF747FEB80767
:1030C00054BF4FF6FF700020FFF740FE780754BF53
:1030D0004FF6FF700020FFF739FE380754BF4FF658
:1030E000FF700020FFF732FEF80654BF4FF6FF7066
:1030F0000020FFF72BFEB80654BF4FF6FF700020EC
:10310000FFF724FE780654BF4FF6FF700020FFF74C
:103110001DFE380654BF4FF6FF700020FFF716FE65
:103120000134102CC2D11AF8014F0836002CAFD14F
:10313000002652240DF1900A46F00701B0B22F2369
:103140008AB2202101F01AF9A4F120000024C0B2B3
:1031500009EB00152F5D17F0010F0CBF4FF6FF7044
:103160000020FFF7F3FDB80754BF4FF6FF700020B3
:10317000FFF7ECFD780754BF4FF6FF700020FFF714
:10318000E5FD380754BF4FF6FF700020FFF7DEFD66
:10319000F80654BF4FF6FF700020FFF7D7FDB806C2
:1031A00054BF4FF6FF700020FFF7D0FD780654BFE4
:1031B0004FF6FF700020FFF7C9FD380654BF4FF6E9
:1031C000FF700020FFF7C2FD0134102CC2D11AF8A5
:1031D000014F0836002CAFD1002659240DF1880A82
:1031E00046F00701B0B23F238AB2302101F0C6F8A1
:1031F000A4F120000024C0B209EB00152F5D17F0E8
:10320000010F0CBF4FF6FF700020FFF79FFDB807BE
:1032100054BF4FF6FF700020FFF798FD780754BFAA
:103220004FF6FF700020FFF791FD380754BF4FF6AF
:10323000FF700020FFF78AFDF80654BF4FF6FF70BD
:103240000020FFF783FDB80654BF4FF6FF70002043
:10325000FFF77CFD780654BF4FF6FF700020FFF7A4
:1032600075FD380654BF4FF6FF700020FFF76EFD66
:103270000134102CC2D11AF8014F0836002CAFD1FE
:1032800040F2F8304FF478410623C2F200000268A1
:103290001020CDE9001800210290802001F014F9DF
:1032A00040F22C10C2F20000006806F071F90B46E3
:1032B0004EF29B1102460DF1BA00C0F60001FCF778
:1032C000E9FF9DF8BA40002C5AD020250DF1BA082C
:1032D00045F00701A8B21F238AB2102101F04EF871
:1032E000A4F120000024C0B209EB00173E5D16F0E7
:1032F000010F0CBF4FF6FF704FF47840FFF726FD2B
:10330000B00754BF4FF6FF704FF47840FFF71EFD33
:10331000700754BF4FF6FF704FF47840FFF716FD6B
:10332000300754BF4FF6FF704FF47840FFF70EFDA3
:10333000F00654BF4FF6FF704FF47840FFF706FDDC
:10334000B00654BF4FF6FF704FF47840FFF7FEFC15
:10335000700654BF4FF6FF704FF47840FFF7F6FC4D
:10336000300654BF4FF6FF704FF47840FFF7EEFC85
:103370000134102CBAD118F8014F0835002CA7D110
:1033800040F24410C2F20000006806F001F90B465A
:103390004EF29B1102460DF1BA00C0F60001FCF797
:1033A00079FF9DF8BA40002C5AD020250DF1BA08BB
:1033B00045F00701A8B22F238AB2202100F0DEFFDA
:1033C000A4F120000024C0B209EB00173E5D16F006
:1033D000010F0CBF4FF6FF704FF47840FFF7B6FCBB
:1033E000B00754BF4FF6FF704FF47840FFF7AEFCC4
:1033F000700754BF4FF6FF704FF47840FFF7A6FCFC
:10340000300754BF4FF6FF704FF47840FFF79EFC33
:10341000F00654BF4FF6FF704FF47840FFF796FC6C
:10342000B00654BF4FF6FF704FF47840FFF78EFCA4
:10343000700654BF4FF6FF704FF47840FFF786FCDC
:10344000300654BF4FF6FF704FF47840FFF77EFC14
:103450000134102CBAD118F8014F0835002CA7D12F
:1034600040F21420C2F20000006806F091F80B460A
:103470004EF29B1102460DF1BA00C0F60001FCF7B6
:1034800009FF9DF8BA40002C5AD020250DF1BA084A
:1034900045F00701A8B23F238AB2302100F06EFF49
:1034A000A4F120000024C0B209EB00173E5D16F025
:1034B000010F0CBF4FF6FF704FF47840FFF746FC4A
:1034C000B00754BF4FF6FF704FF47840FFF73EFC53
:1034D000700754BF4FF6FF704FF47840FFF736FC8B
:1034E000300754BF4FF6FF704FF47840FFF72EFCC3
:1034F000F00654BF4FF6FF704FF47840FFF726FCFC
:10350000B00654BF4FF6FF704FF47840FFF71EFC33
:10351000700654BF4FF6FF704FF47840FFF716FC6B
:10352000300654BF4FF6FF704FF47840FFF70EFCA3
:103530000134102CBAD118F8014F0835002CA7D14E
:1035400040F28400C2F2000000680138042800F252
:10355000DB81DFE810F005006200C0001E017C0185
:10356000002564240DF1700845F00701A8B24F232F
:103570008AB2402100F002FFA4F120000024C0B272
:1035800009EB00173E5D16F0010F0CBF4FF6FF7000
:1035900047F60F00FFF7DAFBB00754BF4FF6FF7096
:1035A00047F60F00FFF7D2FB700754BF4FF6FF70CE
:1035B00047F60F00FFF7CAFB300754BF4FF6FF7006
:1035C00047F60F00FFF7C2FBF00654BF4FF6FF703F
:1035D00047F60F00FFF7BAFBB00654BF4FF6FF7077
:1035E00047F60F00FFF7B2FB700654BF4FF6FF70AF
:1035F00047F60F00FFF7AAFB300654BF4FF6FF70E7
:1036000047F60F00FFF7A2FB0134102CBAD118F8CF
:10361000014F0835002CA7D176E100254B240DF190
:10362000580800BF45F00701A8B24F238AB24021D5
:1036300000F0A4FEA4F120000024C0B209EB0017A2
:103640003E5D16F0010F0CBF4FF6FF7047F60F00FE
:10365000FFF77CFBB00754BF4FF6FF7047F60F0033
:10366000FFF774FB700754BF4FF6FF7047F60F006B
:10367000FFF76CFB300754BF4FF6FF7047F60F00A3
:10368000FFF764FBF00654BF4FF6FF7047F60F00DC
:10369000FFF75CFBB00654BF4FF6FF7047F60F0014
:1036A000FFF754FB700654BF4FF6FF7047F60F004C
:1036B000FFF74CFB300654BF4FF6FF7047F60F0084
:1036C000FFF744FB0134102CBAD118F8014F08352C
:1036D000002CA7D118E1002543240DF1400800BFBC
:1036E00045F00701A8B24F238AB2402100F046FE00
:1036F000A4F120000024C0B209EB00173E5D16F0D3
:10370000010F0CBF4FF6FF7047F60F00FFF71EFBCF
:10371000B00754BF4FF6FF7047F60F00FFF716FBD8
:10372000700754BF4FF6FF7047F60F00FFF70EFB10
:10373000300754BF4FF6FF7047F60F00FFF706FB48
:10374000F00654BF4FF6FF7047F60F00FFF7FEFA82
:10375000B00654BF4FF6FF7047F60F00FFF7F6FABA
:10376000700654BF4FF6FF7047F60F00FFF7EEFAF2
:10377000300654BF4FF6FF7047F60F00FFF7E6FA2A
:103780000134102CBAD118F8014F0835002CA7D1FC
:10379000BAE0002570240DF1280800BF45F00701AC
:1037A000A8B24F238AB2402100F0E8FDA4F1200026
:1037B0000024C0B209EB00173E5D16F0010F0CBFEC
:1037C0004FF6FF7047F60F00FFF7C0FAB00754BF7F
:1037D0004FF6FF7047F60F00FFF7B8FA700754BFB7
:1037E0004FF6FF7047F60F00FFF7B0FA300754BFEF
:1037F0004FF6FF7047F60F00FFF7A8FAF00654BF28
:103800004FF6FF7047F60F00FFF7A0FAB00654BF5F
:103810004FF6FF7047F60F00FFF798FA700654BF97
:103820004FF6FF7047F60F00FFF790FA300654BFCF
:103830004FF6FF7047F60F00FFF788FA0134102C9F
:10384000BAD118F8014F0835002CA7D15CE000254B
:1038500061240DF1100800BF45F00701A8B24F2305
:103860008AB2402100F08AFDA4F120000024C0B2F9
:1038700009EB00173E5D16F0010F0CBF4FF6FF700D
:1038800047F60F00FFF762FAB00754BF4FF6FF701C
:1038900047F60F00FFF75AFA700754BF4FF6FF7054
:1038A00047F60F00FFF752FA300754BF4FF6FF708C
:1038B00047F60F00FFF74AFAF00654BF4FF6FF70C5
:1038C00047F60F00FFF742FAB00654BF4FF6FF70FD
:1038D00047F60F00FFF73AFA700654BF4FF6FF7035
:1038E00047F60F00FFF732FA300654BF4FF6FF706D
:1038F00047F60F00FFF72AFA0134102CBAD118F856
:10390000014F0835002CA7D140F212204BF6AC5BDA
:10391000002542F210790027C2F20000C0F6000B29
:103920000078039006E000BF0135032D04BF3BB0D3
:10393000BDE8F08FE8B2022802D1012026E000BFE6
:10394000C5F10102C5F10200D2B200F00301032A61
:1039500002D2012049B919E0421A0120043A00FBC1
:1039600009F012F0FF0FF9D181B1012903D100EB69
:10397000800040000AE04FF47A7202294FF064019F
:1039800000FB02F208BF00FB01F210460399012D73
:10399000B1FBF0F04CF6CD41CCF6CC41A0FB0112CE
:1039A0004FEAD20101EB8101A0EB410405D83806B2
:1039B00003D1002C00F07F800127142023218323D2
:1039C00000EB051001EB05118AB280B2642100F012
:1039D000D5FC44F01000002600240BEB801800BF3B
:1039E00018F806A01AF0010F0CBF4FF6FF704FF445
:1039F0007840FFF7ABF9601C000757D05FEA8A7088
:103A000054BF4FF6FF704FF47840FFF79FF9A01CAA
:103A100000074BD05FEA4A7054BF4FF6FF704FF477
:103A20007840FFF793F9E01C00073FD05FEA0A7087
:103A300054BF4FF6FF704FF47840FFF787F9201D11
:103A4000000733D05FEACA6054BF4FF6FF704FF4EF
:103A50007840FFF77BF9601D000727D05FEA8A6096
:103A600054BF4FF6FF704FF47840FFF76FF9A01D79
:103A700000071BD05FEA4A6054BF4FF6FF704FF457
:103A80007840FFF763F9E01D00070FD05FEA0A6096
:103A900054BF4FF6FF704FF47840FFF757F904F129
:103AA000080010F00F0418BF044600E0002401369F
:103AB000402E95D138E714202321832300EB0510F5
:103AC00001EB05118AB280B2642100F057FC002698
:103AD000002400BF1BF8067017F0010F0CBF4FF653
:103AE000FF704FF47840FFF731F9601C000751D0A8
:103AF000B80754BF4FF6FF704FF47840FFF726F930
:103B0000A01C000746D0780754BF4FF6FF704FF453
:103B10007840FFF71BF9E01C00073BD0380754BF83
:103B20004FF6FF704FF47840FFF710F9201D0007A3
:103B300030D0F80654BF4FF6FF704FF47840FFF7CF
:103B400005F9601D000725D0B80654BF4FF6FF7079
:103B50004FF47840FFF7FAF8A01D00071AD0780656
:103B600054BF4FF6FF704FF47840FFF7EFF8E01DB9
:103B700000070FD0380654BF4FF6FF704FF478405F
:103B8000FFF7E4F804F1080010F00F0418BF044632
:103B900001E000BF00240136402E9BD10027C3E680
:103BA0004261747465727920766F6C746167653AEE
:103BB00000000000646D70202020202020202020A4
:103BC0002020202020202020200000004B616C6D50
:103BD000616E46696C7465722020202020202020B0
:103BE00020000000436F6D706C656D656E746172CE
:103BF00079202020202020202000000070743146F1
:103C0000696C746572202020202020202020202034
:103C10002020000061747469747564655F616C676D
:103C20006F726974686D202020000000B0B541F605
:103C3000000405460221C4F201042046FDF7DAFC27
:103C400020460821FDF7D6FC68B2B0F1FF3F04DD45
:103C500020462021FDF7CEFC03E020462021FDF781
:103C6000CBFC20460821FDF7C7FC20460821FDF7C4
:103C7000C1FC680604D420462021FDF7BBFC03E00C
:103C800020462021FDF7B8FC20460821FDF7B4FCB2
:103C900020460821FDF7AEFCA80604D420462021CA
:103CA000FDF7A8FC03E020462021FDF7A5FC2046F7
:103CB0000821FDF7A1FC20460821FDF79BFCE80642
:103CC00004D420462021FDF795FC03E02046202166
:103CD000FDF792FC20460821FDF78EFC20460821C6
:103CE000FDF788FC280704D420462021FDF782FC3C
:103CF00003E020462021FDF77FFC20460821FDF748
:103D00007BFC20460821FDF775FC680704D420469B
:103D10002021FDF76FFC03E020462021FDF76CFC1D
:103D200020460821FDF768FC20460821FDF762FCCB
:103D3000A80704D420462021FDF75CFC03E02046C0
:103D40002021FDF759FC20460821FDF755FC2046AF
:103D50000821FDF74FFCE80704D120462021FDF79C
:103D600049FC03E020462021FDF746FC20460821BF
:103D7000FDF742FC20460221BDE8B040FDF73CBC07
:103D800070B58AB04FF4047001210125FEF7D8F90F
:103D90004FF40040FEF7BEF942F200440026022034
:103DA00001A9C4F201040396ADF80400A4F5A050E3
:103DB000FDF772FA2046FDF7E5F84FF46020CDE9F3
:103DC0000466069604A9CDE9070620468DF824501E
:103DD000FDF71AF920460121FDF7CAF82046FDF744
:103DE00071F900BF2046FDF70BF90028FAD12046F3
:103DF000FDF778F92046FDF7F5F80028FAD10AB06A
:103E000070BD000010B500F015FA41F60004102155
:103E1000C4F201042046FDF7EDFB642000F01CFF16
:103E200020461021FDF7E8FB642000F015FF204636
:103E30004021FDF7E1FB642000F00EFF2046042145
:103E4000FDF7D8FB1120FFF7F1FE20460421FDF716
:103E5000D3FB782000F000FF20460421FDF7CAFBC9
:103E60003620FFF7E3FE20460421FDF7C5FB0020C6
:103E7000FFF7DCFE20460421FDF7BCFB3A20FFF7EC
:103E8000D5FE20460421FDF7B7FB0520FFF7CEFE47
:103E900020460421FDF7AEFBB220FFF7C7FE204607
:103EA0000421FDF7A9FB0C20FFF7C0FE0C20FFF753
:103EB000BDFE0020FFF7BAFE3320FFF7B7FE332028
:103EC000FFF7B4FE20460421FDF794FBB720FFF76F
:103ED000ADFE20460421FDF78FFB3520FFF7A6FE3F
:103EE00020460421FDF786FBBB20FFF79FFE2046FE
:103EF0000421FDF781FB3220FFF798FE20460421C4
:103F0000FDF778FBC220FFF791FE20460421FDF764
:103F100073FB0120FFF78AFE20460421FDF76AFBB0
:103F2000C320FFF783FE20460421FDF765FB152023
:103F3000FFF77CFE20460421FDF75CFBC420FFF761
:103F400075FE20460421FDF757FB2020FFF76EFE8B
:103F500020460421FDF74EFBC620FFF767FE2046F2
:103F60000421FDF749FB0F20FFF760FE20460421E6
:103F7000FDF740FBD020FFF759FE20460421FDF756
:103F80003BFBA420FFF752FEA120FFF74FFE204687
:103F90000421FDF72FFBE020FFF748FE2046042117
:103FA000FDF72AFBD020FFF741FE0820FFF73EFE79
:103FB0000E20FFF73BFE0920FFF738FE0920FFF730
:103FC00035FE0520FFF732FE3120FFF72FFE3320AC
:103FD000FFF72CFE4820FFF729FE1720FFF726FEEB
:103FE0001420FFF723FE1520FFF720FE3120FFF7F6
:103FF0001DFE3420FFF71AFE20460421FDF7FAFAD1
:10400000E120FFF713FE20460421FDF7F5FAD0204A
:10401000FFF70CFE0820FFF709FE0E20FFF706FE53
:104020000920FFF703FE0920FFF700FE1520FFF728
:10403000FDFD3120FFF7FAFD3320FFF7F7FD4820A3
:10404000FFF7F4FD1720FFF7F1FD1420FFF7EEFD59
:104050001520FFF7EBFD3120FFF7E8FD3420FFF7D7
:10406000E5FD20460421FDF7C5FA2120FFF7DEFD1E
:1040700020460421FDF7C0FA20460421FDF7BAFAD4
:104080002920FFF7D3FD20460421BDE81040FDF7AD
:10409000B3BA000070B584B041F218060124C4F22E
:1040A0000206306840F045003060012000F002FE5A
:1040B00040200121FEF744F840F60005102001A938
:1040C000C4F201050390ADF80440032005F58054C7
:1040D00002902046FDF7E0F820462021FDF78CFAFB
:1040E000286820F001002860286820F0020028607D
:1040F000286840F003002860286820F0100028603D
:10410000286820F020002860286840F030002860EF
:10411000286820F480702860286820F400702860E7
:10412000286840F440702860286820F48050286097
:10413000286820F400502860286840F44050286027
:10414000286820F004002860286820F00800286013
:10415000286840F00C002860286820F040002860A3
:10416000286820F080002860286840F0C00028609F
:10417000286820F480602860286820F400602860A7
:10418000286840F440602860286820F48040286057
:10419000286820F400402860286840F40040286027
:1041A000706840F008007060012000F083FD40F26C
:1041B00028400921CFF6FF70295240F22C4042F2EC
:1041C0001071CFF6FF70295240F2184047F668018F
:1041D000CFF6FF70295240F21C4047F67801CFF627
:1041E000FF70295240F240400021CFF6FF70295263
:1041F00040F23C41285ACFF6FF716852685A40F2AB
:104200003841CFF6FF716852685A40F23441CFF618
:10421000FF71685240F2204041F21111CFF6FF7059
:10422000295240F200408121CFF6FF70295204B09C
:1042300070BD000070B584B040200121FDF780FF03
:1042400041F600041026022001AD0396ADF80400EB
:104250000320C4F20104294602902046FDF71CF811
:1042600020460221FDF7C8F928202946ADF80400B0
:104270002046FDF711F820462821FDF7BDF944201E
:104280002946ADF804002046FDF706F8204648F21E
:104290002001FDF7B1F920462946ADF80460FCF78E
:1042A000FBFF20461021FDF7A7F904B070BD000008
:1042B0002DE9F04F83B00D4611789B460646B1B10B
:1042C000DDE90C9ADDF83880571C4FEA5A0400BF2C
:1042D000CAB2B0B229465B46CDE9009ACDF8088053
:1042E000FEF774FD17F8011B26440029F0D103B036
:1042F000BDE8F08FF0B587B004464FF400300121DF
:10430000FDF712FF202001212025FDF719FF0820CD
:104310000121FDF731F9032004AF0590ADF81050ED
:1043200044F2004518203946C4F20005069005F510
:1043300050463046FCF7B0FF042039460690402036
:10434000ADF810003046FCF7A7FF00200094694646
:104350000190ADF80C004FF4402002902846FEF783
:1043600097FB284640F225510022FEF779FB2846AC
:104370000121FEF743FB07B0F0BD00002DE9F0413D
:1043800041F600040E460546042198461746C4F23D
:1043900001042046FDF72EF92A20FFF747FC2046AE
:1043A0000421FDF729F9280AFFF740FCE8B2FFF7DE
:1043B0003DFC380AFFF73AFCF8B2FFF737FC20461D
:1043C0000421FDF717F92B20FFF730FC20460421CC
:1043D000FDF712F9300AFFF729FCF0B2FFF726FCCF
:1043E0004FEA1820FFF722FC5FFA88F0FFF71EFC67
:1043F00020460421FDF7FEF82C20FFF717FC20468D
:104400000421BDE8F041FDF7F7B80000B0B542F275
:10441000004504460C2101220723C4F20105284669
:10442000FCF71CFE28460121FCF752FE284602211B
:10443000FCF7E0FD0028F9D02846FCF7D7FD4FF443
:104440007A71484304F0B2FD46F266634FF066327B
:10445000C4F20A0304F0C2FD00230022C4F22603C2
:1044600004F0BCFD00230022C4F2240304F00AFC83
:1044700000230022C3F6307304F0B0FD04F014FBF7
:104480000146042C0DD0032C18D0022C1CBF08466A
:10449000B0BD40F2A830C2F20000BDE8B040FDF768
:1044A00091BB40F2FC204DF20A730322C2F20000DD
:1044B000C3F6A333BDE8B04003F010B80846BDE82A
:1044C000B040FCF717BE00002DE9F04F89B01C4644
:1044D0000E46002B079000F0A08014980021C4F233
:1044E000C8214508104605F0E3FA05F02DFA0690BC
:1044F000E8B242F210774FF000080596049000BF32
:10450000A4EB0800E1B20894421E5FFA88F012F0B2
:10451000FF0F0DD0A31EA3EB0803DDB202F00303CF
:10452000032D0BD2139EDDF81CC0012293B923E0AA
:10453000139EDDF81CC001221EE000BF139EDDF8B3
:104540001CC0D51A012200BF043D7A4315F0FF0FAD
:10455000FAD18BB1012B03D102EB820252000BE0A6
:104560004FF47A77022B4FF0640302FB07F508BF84
:1045700002FB03F52A4600BF069B02398142B3FBCA
:10458000F2F24CF6CD43CCF6CC43A2FB03354FEA16
:10459000D50303EB8303A2EB43021DD1DDF810A08A
:1045A000DDF814B0129F149D00964FF000091646D6
:1045B0002E22CDF8089000FB0AC059463B460195D3
:1045C00080B2FEF703FCDDE907C43246139E08F112
:1045D0000108013407E000BF089C149D129FDDE92B
:1045E00004AB4FF000095FFA88F042F030013B461F
:1045F000CDE90065CDF8089000FB0AC0CAB2594663
:1046000080B2FEF7E3FB08F10108E0B242F2107756
:104610005FFA88F188423FF673AF09B0BDE8F08FCA
:104620002DE9F04381B08146501E154698460E464E
:1046300082B2581E83B24846FFF7A0FE464510D20C
:10464000089C00BFA94508D24F4600BF2046FEF790
:104650007DFB0137B8B2A842F8D30136B0B240456D
:10466000F0D301B0BDE8F083704700002DE9F04FB2
:104670008DB048F67225CDE90B2383460C46C3F670
:104680008E450068294605F013FACBF8000029464C
:10469000DBF8040005F00CFACBF804002946DBF83F
:1046A000080005F005FACBF808004FF0625194E8D5
:1046B000610005F0FDF90746206028464FF0625181
:1046C00005F0F6F90546606030464FF0625105F09E
:1046D000EFF90646A0603846394605F0E9F9074685
:1046E0002846294605F0E4F90146384604F07CFFE7
:1046F00005463046314605F0DBF90146284604F010
:1047000073FF04F0A5F9054694E8C100294605F0B9
:1047100009F80A9020603046294605F003F806465D
:10472000606009903846294604F0FCFF8046A0608E
:10473000049040F2D030C2F2000007683846394693
:1047400004F052FF0146384605F0B2F901464FF039
:104750007E5005F00BFB044640F2D430C2F200005C
:10476000D0F800904846494604F03EFF01464846CE
:1047700005F09EF90146204605F0F8FA014608903A
:10478000304605F095F9054640F25400C2F20000AB
:1047900001683846059105F08BF9064640F2D8309D
:1047A0004946C2F200000068039005F081F9014615
:1047B000304604F019FF014604F016FF0146079049
:1047C000404605F075F90146284605F0CFFA064641
:1047D00040F24C00C2F200003146006805F068F972
:1047E000014604F001FF014640F24800C2F2000019
:1047F000006805F05DF940F21C250446C2F2000590
:104800002146286804F0F0FE286040F22025824608
:104810002146C2F20005286804F0E6FE286040F256
:10482000182506902146C2F20005286804F0DCFE37
:104830000446286040F25000C2F200000168304691
:1048400005F036F90146204604F0CEFE0146DBE9CC
:1048500000020192DBF80820029204F0C5FE0399E1
:104860008046CBF80000384605F022F9044605984A
:10487000494605F01DF90146204605F077FA014644
:1048800004F0B2FE04460498214605F011F90A9D91
:1048900008990646284605F00BF90146304605F012
:1048A00065FA40F25001C2F200010E68314605F08F
:1048B000FFF80146504604F097FE0146019804F0C7
:1048C00093FE07998146CBF80400284605F0F0F8DE
:1048D00005460998214605F0EBF80146284605F003
:1048E00045FA314605F0E4F80146069804F07CFEEE
:1048F000029904F079FE0746CBF8080040F2D03068
:10490000C2F20000016840460A9105F0D1F8014664
:104910004FF0004005F02AFA054640F2D430C2F2CA
:104920000000046848462146099405F0C1F8014694
:10493000284605F01BFA054640F2D830C2F20000C6
:10494000D0F800803846414605F0B2F801462846C6
:1049500005F00CFA014640F24800C2F20000D0F81F
:1049600000A0504605F0A4F840F254060146C2F2F9
:104970000006306804F038FE30600546DBF80000C1
:10498000294605F095F806464846414605F090F858
:104990000146304605F0EAF906463846214605F05C
:1049A00087F8314604F020FE0146504605F080F8B5
:1049B00001460A9804F018FE064640F2D030294617
:1049C000C2F200000660484605F072F80446384618
:1049D000314605F06DF80146204605F0C7F9DBF8D1
:1049E00000100446404605F063F8214604F0FCFD43
:1049F0000146504605F05CF80146099804F0F4FDC4
:104A0000044640F2D4302946C2F200000460384621
:104A100005F04EF807464846314605F049F801468C
:104A2000384604F0E1FD0746DBF80000214605F0BA
:104A30003FF80146384605F099F90146504605F021
:104A400037F80146404604F0CFFD40F2D83B074618
:104A50003146C2F2000BCBF80000304605F028F8D2
:104A600006462846294605F023F8314604F0BCFDE9
:104A700005462046214605F01BF80146284604F06D
:104A8000B3FD04463846394605F012F80146204683
:104A900004F0AAFD03F0DCFF40F254040646C2F223
:104AA00000043146206804F03DFE40F2D0358046D7
:104AB00020603146C2F20005286804F033FE40F25F
:104AC000D437044628603146A946C2F20007386848
:104AD00004F028FE05463860DBF800003146BA468F
:104AE00004F020FE0646CBF800004046214604F0C4
:104AF000DFFF07462846314604F0DAFF0146384614
:104B000004F072FD014604F06FFD06462046214682
:104B100004F0CEFF04462846294604F0C9FF0146AA
:104B2000204604F061FD014604F05EFD01464FF0B1
:104B30007E5005F01BF90146304603F01DFE40F2A1
:104B40000008C4F23438414604F0B2FF40F6DB7589
:104B5000C4F24905294604F0E5FD0B9940F25404DE
:104B6000C2F2000408602068DAF8001004F0A0FF28
:104B70000646D9F80000DBF8001004F099FF014662
:104B8000304605F0F3F8014604F02EFD03F084FBF7
:104B9000414604F08DFF294604F0C4FD0C990860DD
:104BA000DAF80060D9F80000314604F081FF0746CA
:104BB0002068DBF80040214604F07AFF01463846C1
:104BC00004F012FD014604F00FFD07463046314661
:104BD00004F06EFF06462046214604F069FF0146B8
:104BE000304604F001FD014604F0FEFC01464FF0A2
:104BF0007E5005F0BBF80146384603F0BDFD414646
:104C000004F056FF294604F08DFD169908600DB09A
:104C1000BDE8F08F80B56FF00400FDF7A5FB40F212
:104C200030004DF6836140F2FA22C2F20000C4F275
:104C30001B31C2F200020068A0FB0101480D107098
:104C4000C1F347504FF47A71484340F2F821C2F261
:104C50000001088080BD000040F2F821C2F200018E
:104C6000098841434EF21000CEF20000416000215D
:104C70008160016841F00101016000BF016801F03D
:104C8000011101290ED1016801F00111012909D199
:104C9000016801F00111012904D1016801F001113D
:104CA0000129EBD0016821F0010101600021816040
:104CB0007047000040F2FA21C2F200010978414336
:104CC0004EF21000CEF200004160002181600168C8
:104CD00041F00101016000BF016801F001110129EB
:104CE0000ED1016801F00111012909D1016801F01B
:104CF0000111012904D1016801F001110129EBD052
:104D0000016821F00101016000218160704700000D
:104D10002DE9F04186B004464CF602200DF1020563
:104D20000421C0F6E3102A46CDF80200682002F004
:104D3000A1FBA32014F040066FF05C026FF05C0151
:104D40008DF8020018BF6FF03F028DF803206FF05E
:104D50005C0218BF6FF037028DF804206FF05C0220
:104D600018BF6FF03D0214F4C0778DF805206FF086
:104D70005C0218BF6FF03B028DF806206FF05C02FA
:104D800018BF6FF033028DF8072018BF6FF039019C
:104D90002A468DF808104AF2A331ADF809108DF8B3
:104DA0000B0040F6A7200A2102F064FB14F0030870
:104DB0006FF027004FF001012A4618BF20208DF820
:104DC000020040F6B62002F055FB14F0200F0CD183
:104DD000C7208DF8140048F6B000CCF2C350049000
:104DE0004AF6B820CAF6AA200AE05D20059049F6E6
:104DF000B400C3F20D5004904AF6B820C8F6B35080
:104E0000039003AA4FF49760092102F033FB1FB30C
:104E100014F480706FF074010DF1020208BF6FF09E
:104E20007F0100288DF803104FF0B00141EAD01146
:104E30008DF802104FF0B40141EAD01140F6A220E3
:104E40008DF804106FF0640108BF6FF06F018DF8EA
:104E50000510042102F00EFBE00708D1D8200DF167
:104E6000020201218DF802004FF40B6051E0F8209E
:104E70000DF1020201218DF802004FF40B6002F0E7
:104E8000F9FA0720FA2100F017FB3F2003AA0121BD
:104E90008DF80C004FF4A47002F0ECFA002003AA85
:104EA00001218DF80C0040F24F1002F0E3FA4FF4AC
:104EB000A05003AD0221ADF80C004FF4EF702A466C
:104EC00002F0D8FA4FF4C84002212A46ADF80C008F
:104ED0004FF4ED7002F0CEFA48F6006003AA042108
:104EE000C9F2F90003904FF4AE7002F0C3FA4FF428
:104EF000006002212A46ADF80C004FF4AD7002F0BC
:104F0000B9FA4FF4007002212A46ADF80C004FF4B4
:104F1000AC7002F0AFFA60086C210DF1020261F38F
:104F20005F0001218DF8020040F23D7002F0A2FA0C
:104F3000600703AA4FF0040152BF4FF08B304CF2D0
:104F4000C020CCF2C460039040F6982002F092FAA0
:104F500001F05AFBE00603AA4FF0040152BF4FF0E4
:104F6000A33042F62000C3F63000039040F69E20A6
:104F700002F080FA01F048FB40F2902144F0080072
:104F8000002EC2F20001088018BF0626002F18BFAD
:104F9000063614F0140F18BF46F01006B8F1000FD3
:104FA00018BF043601F030FB40F29620C2F2000038
:104FB0000670002006B0BDE8F08100004DF26C5193
:104FC00040F6F6304FF48062C823C0F6000101F0CD
:104FD00025B900002DE9F04F89B0DDF848908246F0
:104FE000002014460DF1040B139A88461E465946BC
:104FF000A9F8000040F29620C2F20000007801F00B
:10500000ADFA20B14FF0FF3009B0BDE8F08F40F2AB
:105010009020C2F20000B0F800C01CF0140F52D073
:105020009DF805209DF804109DF80630B6469DF8C1
:105030000760120442EA016141EA03220914324383
:1050400022609DF809309DF808209DF80A609DF8BF
:105050000B501B0443EA026242EA062312142B435C
:105060005243636001FB01219DF80D609DF80C30F7
:105070009DF80E509DF80F00360446EA036343EA9C
:1050800005261A14304302FB0211A0609DF811603E
:105090009DF810009DF812509DF81370360446EAF2
:1050A000006040EA0526001400FB0010374300F1C1
:1050B0007140E760B0F1007F79D901F0A5FA0020D6
:1050C000A9F800009EE700215FEA4C602AD5C8B22B
:1050D00041F0060140F001031BF800201BF80330EB
:1050E00043EA022240F00303A8F8002040F0020245
:1050F0001BF802201BF8033043EA0222A8F8022022
:1051000040F0040240F005001BF802201BF80000EC
:1051100040EA0220A8F80400B9F8000040F00800B6
:10512000A9F800001CF4C07F18D0C8B206313BF8C3
:105130000020584412BA120CAAF80020428812BA71
:10514000120CAAF80220808800BA000CAAF8040009
:10515000B9F8000040F07000A9F800005FEA8C7018
:105160001ED0C8B20BEB00056878EC7810F0010F88
:105170000CD040F28421C2F200010A6832B104F07E
:105180000701C4F3C200013190476878000707D5D2
:1051900040F28820C2F20000016809B1A0098847E6
:1051A000304600F0ABFC002009B0BDE8F08FB9F844
:1051B00000001021764640F48070A9F800005FEAF4
:1051C0004C603FF584AFADE7B0B584B004460DF157
:1051D000020000F0E3FE40F28C200C25C2F2000039
:1051E000028802F0030012F0040F05EA520554F899
:1051F000200018BF4042BDF8021012F0200F4FEA05
:10520000C133C2F3811183FB00C054F821106459EB
:105210004FEA905E4FEA90358DF804E08DF8055026
:105220004FEA90158DF8065018BF644212F4807F43
:1052300083FB04E44FEA94558DF808504FEA943507
:105240008DF809504FEA94158DF80A5018BF49425D
:1052500083FB0112930D8DF80C30930B8DF80D30FC
:1052600093098DF80E304FEA9C7343EA80008DF865
:1052700007004FEA9E7040EA84008DF80B00880F0B
:105280000C2140EA820001AA8DF80F004FF425702E
:1052900002F0F0F804B0B0BD10B582B00446C828E2
:1052A00019D8C8206A460221B0FBF4F001388DF805
:1052B0000100000A8DF8000040F2162002F0DAF832
:1052C00048B94EF2621240F6C1200C21C0F600022D
:1052D00002F0D0F818B14FF0FF3002B010BD40F22C
:1052E0009420C2F200000480002002B010BD000033
:1052F000F0B581B040F28C214EF209370C26C2F293
:105300000001C0F2CA27098801F0030211F0040F5E
:1053100006EA510650F8222018BF52428659C1F3BE
:10532000811511F4807F82FB072350F825504FEA46
:1053300093544FEA93308DF800408DF801004FEA06
:1053400093108DF802004FEA92706A4640EA83009B
:105350008DF8030018BF6D4211F0200F4FF47470E8
:105360004FF0040118BF764202F084F8B0B986FB12
:1053700007016A46800F40EA8100010C8DF80300A6
:105380008DF80110010E000A8DF800108DF8020052
:105390004FF47570042102F06DF818B14FF0FF3032
:1053A00001B0F0BD85FB07016A46800F40EA81002D
:1053B000010C8DF803008DF80110010E000A8DF824
:1053C00000108DF802004FF47670042102F052F8BC
:1053D00001B0F0BD10B582B04EF271110446C0F3B9
:1053E000C100C0F600010A5C8DF8052004F003023C
:1053F0008B5C8DF80430C4F38113C95C8DF8061002
:105400004EF26E11C0F600018A5C085C8DF8002037
:105410008DF80100C85C01AA03218DF8020040F25A
:10542000264002F027F850BB6A4640F22A4003218A
:1054300002F020F818BB44F22660C0F2660000902B
:1054400045F23660C0F27600019060071BD4A006DA
:1054500021D4E00505D567208DF8020077208DF86E
:10546000060001AA4FF48860032102F003F830B966
:105470006A4640F23140032101F0FCFFA0B14FF039
:10548000FF3002B010BD27208DF8000037208DF8C6
:105490000400A006DDD547208DF8010057208DF8C7
:1054A0000500E005D7D4DCE740F28C20C2F2000012
:1054B0000480002002B010BD70B582B004460D46D5
:1054C0004FF0FF30B1F5C86F52D814F007014FD03C
:1054D0000DF1030000F044FD284604F06DFA0021B0
:1054E000C4F2483104F01EF905469DF80300023865
:1054F0004FEA70024FF0FF30072A39D800264FF0EC
:105500008D41C4F24066DFE802F01504330A3333FC
:10551000331000264FF08C41C4F2C0560AE000263A
:105520004FF08B41C4F2405604E000264FF08A4110
:10553000C4F2C046284604F0BBFA04F005FA8DF820
:105540000500000A31468DF80400284604F0B0FA40
:1055500004F0FAF98DF80700000A8DF8060001A89A
:10556000851CE00706D1A00713D4600720D40020D3
:1055700002B070BD01AA4FF4EA70022101F07AFF77
:1055800028BB4FF4927002212A4601F073FFF0B954
:10559000E9E701AA4FF4EC70022101F06BFFB0B90A
:1055A0004FF4947002212A4601F064FF78B9DCE7D9
:1055B00001AA4FF4EE70022101F05CFF38B94FF4FC
:1055C000967002212A4601F055FF0028CFD04FF0F7
:1055D000FF3002B070BD000043F60001C4F20101CB
:1055E0000A8812F0400F0BD10A8812F0400F07D141
:1055F0000A8812F0400F03D10A8812F0400FEFD052
:10560000C2B28A80704700002DE9F04F83B040F2AB
:1056100058070546012016460C466B46ADF80000BB
:10562000C2F20007D7E90002817C10780222FDF760
:10563000B3FA10B14FF0FF378CE1C820FFF70CFB35
:1056400000206B468DF80000D7E90002C17B10787E
:105650000122FDF7A1FA10B14FF0FF377AE1D7E947
:1056600000026B46417910780122FDF795FA10B1DE
:105670004FF0FF376EE1D7E900026B46817C10786E
:105680000122FDF789FA10B14FF0FF3762E1D7E947
:1056900000026B46C17D10780122FDF77DFA10B142
:1056A0004FF0FF3756E1D7E900026B4601791078D9
:1056B0000122FDF771FA10B14FF0FF374AE10C20DB
:1056C0006B468DF80000D7E90002017910780122BD
:1056D000FDF762FA10B14FF0FF373BE10F20FFF703
:1056E000BBFAD7E90010BA6A6B46527A8DF80020EF
:1056F000012200788978FDF74FFA10B14FF0FF379B
:1057000028E1D7E90010BA6A6B46127A8DF80020BA
:10571000012200784978FDF73FFA10B14FF0FF37CA
:1057200018E1D7E90010BA6A002E6B46927A18BFCA
:1057300042F0E0028DF80020012200788979FDF71F
:105740002BFA10B14FF0FF3704E1002E6B460FBF6C
:105750001820B86AC07A60F01F008DF80000D7E901
:105760000002C17910780122FDF716FA10B14FF04E
:10577000FF37EFE016B1C820FFF76EFA40206B4606
:105780008DF80000D7E90002017910780122FDF7B9
:1057900003FA10B14FF0FF37DCE078206B468DF84C
:1057A0000000D7E90002417910780122FDF7F4F9F1
:1057B00010B14FF0FF37CDE03220FFF74DFA002057
:1057C0006B468DF80000D7E900024179107801227C
:1057D000FDF7E2F910B14FF0FF37BBE0D7E9000267
:1057E0006B46817A10780222FCF71AFD10B14FF057
:1057F000FF37AFE09DF800009DF801100022C5E9D9
:105800000022AA60C4E90022A26041EA00204AF610
:10581000AB21CAF6AA21A0FB0101C1F3C709B9F166
:10582000000F39D00026E846D7E900024346C17A86
:1058300010780C22FCF7F4FC002840F08980BDF8B9
:10584000000094E80E00013600BA01EB204CBDF8D0
:105850000410BDF8020000BA09BA02EB204003EBC5
:105860002141C4E900C0A16095E80700BDF80630F9
:105870001BBA00EB234ABDF80830BDF80A001BBA7A
:1058800000BA01EB234BF1B202EB20408945C5E998
:1058900000ABA860C8D802E0D5E900ABA868C11782
:1058A000832200230027090441EA10410004FAF78B
:1058B000C0FC4A460023FAF7BCFCA8604FEAEB7034
:1058C00083220023000440EA1B414FEA0B40FAF711
:1058D000B0FC4A460023FAF7ACFC68604FEAEA7075
:1058E00083220023000440EA1A414FEA0A40FAF7F3
:1058F000A0FC4A460023FAF79CFC28604A46002395
:10590000D4E90060A568C117490141EAD0614001AE
:10591000FAF78FFC6060F0174A460023400140EA26
:10592000D6617001FAF785FC2060E8174A4600232B
:10593000400140EAD5616801FAF77BFC4FF4803101
:105940000028C4BF0021CFF6FF710844A06001E029
:105950004FF0FF37384603B0BDE8F08F80B5FEF753
:1059600099FBBDE88040FEF74DBA00002DE9F04FED
:1059700083B0FCF707FDFFF74DF940F23010C2F29B
:105980000000FCF7F5FBFFF7E9FF40F2E73040F2DB
:105990006711FDF7E5F94FF6FF700021F022F023C3
:1059A00000900020FEF73CFEFEF7EAF9FDF790F9C3
:1059B000FCF722FB00F0F8F90028FBD14FF4E130AE
:1059C00001F07AFE4FF41650FEF794FC43F6000403
:1059D00040F2102640F2CC3740F2C43540F2EC38A9
:1059E00040F248194FF0FF304FF0000BC4F20104B1
:1059F000C2F20006C2F200071FFA80FAC2F20005E6
:105A0000C2F20008C2F200090BE000BF00208021B2
:105A10004FF480729023CDF800A0FEF701FEFDF751
:105A20007DFAB6F900004FF0FF31884224DC00F027
:105A30003F0028702BA0FAF7A7FD287888F800B05F
:105A4000A8B10020C0B219F800102046FDF77AF87E
:105A500020464021FCF7DCFF0128F9D198F800002E
:105A600029780130C2B288F800008A42EAD322A025
:105A7000FAF78AFDA6F800B03868022810D0C0B93D
:105A800040F210021020CDF800B080214FF478438E
:105A9000CDE9010B0020C2F20002FEF709FC08E08C
:105AA0004FF478400021F022F02300900020FEF710
:105AB000B7FD40F2F03046F26761C2F20000C6F274
:105AC0006661006880FB0112D11001EBD27101EB1D
:105AD0008101A0EB81000028A3D13868012895D06E
