:020000040800F2
:1000000058080020F1010008491B0008811600086B
:10001000451B00080D10000895270008000000008F
:1000200000000000000000000000000003020008C3
:10003000C9110008000000000702000809020008BA
:100040000B0200080B0200080B0200080B0200085C
:100050000B0200080B020008CD1100080B0200087B
:100060000B0200080B0200080B0200080B0200083C
:100070000B0200080B0200080B0200080B0200082C
:100080000B0200080B0200080B0200080B0200081C
:100090000B0200080B0200080B020008891200087E
:1000A0000B0200080B0200080B0200080B020008FC
:1000B000891F0008C1200008D52000080B02000895
:1000C0000B0200080B0200080B0200080B020008DC
:1000D0000B020008ED2500080B0200080B020008C7
:1000E000E91100080B0200080B0200080B020008CF
:1000F0000B0200080B0200080B0200080B020008AC
:100100000B0200080B0200080B0200080B0200089B
:100110000B0200080B0200080B0200080B0200088B
:100120000B0200080B0200080B0200080B0200087B
:1001300000F002F800F04DF80AA090E8000C8244AC
:100140008344AAF10107DA4501D100F042F8AFF289
:10015000090EBAE80F0013F0010F18BFFB1A43F0A5
:10016000010318470091000020910000103A24BFBD
:1001700078C878C1FAD8520724BF30C830C144BF0C
:1001800004680C607047000000230024002500264E
:10019000103A28BF78C1FBD8520728BF30C148BFEA
:1001A0000B607047662908F0A480642900F09A80EB
:1001B000782900F0D380002070471FB500F0F0FCD4
:1001C00004000020002106F073FEE0601FBD10B5A2
:1001D00010BD00F0EDFD1146FFF7EFFF04F082F9CE
:1001E00000F00BFE03B4FFF7F2FF03BC03F0B0FA1C
:1001F0000948804709480047FEE7FEE7FEE7FEE7BB
:10020000FEE7FEE7FEE7FEE7FEE7FEE704480549F6
:10021000054A064B70470000311E000831010008F6
:1002200058020020580800205804002058040020DC
:10023000704710B54C1084EA530404D54042C1F114
:10024000000138BF491E1B4204D55242C3F10003CE
:1002500038BF5B1E00F090F914F0804F04D040428C
:10026000C1F1000138BF491E14F0004F04D05242C2
:10027000C3F1000338BF5B1E10BD00000FB404497A
:1002800010B503AA029800F079FC10BC5DF814FBCD
:10029000D001002070B5044685690068C10601D50B
:1002A000302600E02026C00707D070BDD4E9012128
:1002B00030469047206A401C20626D1EF6D570BD06
:1002C00070B5044685690078C00707D170BDD4E9D0
:1002D000012120209047206A401C20626D1EF6D527
:1002E00070BD00002DE9F041064600241068752914
:1002F000314616A510D0AFF30080002802DA404244
:1003000013A507E031688A0701D512A502E0490765
:1003100004D511A5012401E0AFF3008000210A22D9
:1003200006F1240709E0B0FBF2FCB0FBF2F302FB9C
:100330001C00303078541846491C0028F3D123465D
:100340002A463046BDE8F04100F098B900000000B0
:100350002D0000002B0000002000000070B50446B6
:100360000D4621461068AFF300802188090502D5AB
:100370000F4A7A4402E00E4A7A440E32002104F118
:10038000240305E000F00F060009965D5E54491C49
:100390000028F7D120780023000704D5702D02D063
:1003A00009B1022311322046BDE8704000F066B961
:1003B000708000002DE9F05F894604464FF0000A86
:1003C000DFF824B1FB44C0F820A02046E16888474C
:1003D00000287DD0252806D0D4E901219047206A45
:1003E000401C2062F1E700255F462046E16888470F
:1003F0002028064607DB312E05D2B81910F8200C4C
:1004000008B10543F1E7A80701D525F00405C4F8B4
:100410001CA00027C4F818A02A2E09D0304606F0E8
:1004200011FA38B304EB8708303EC8F8186019E0B9
:1004300059F8041B204604EB87029161E168884764
:10044000012F064618D1E069002820DA25F02005A2
:100450001DE0D8F8180000EB800006EB40003038B3
:10046000C8F818002046E1688847064606F0EAF911
:100470000028EED1012F0AD02E2E08D12046E168A7
:1004800088477F1C0646022F45F02005C4DBA06983
:10049000002803DA404245F00105A061E80701D0D9
:1004A00025F01005A6B1A6F14100192802D8203682
:1004B00045F400654A463146204625604D46FFF723
:1004C00071FE60B1012807D0ED1D25F0070000E0A6
:1004D00007E000F1080978E705F1040975E73046FF
:1004E0007AE7206ABDE8F09F4680000010B5044618
:1004F00003E003F011FE401C09D014F8010B05497C
:100500000028F6D1BDE810400A2003F005BE4FF0E8
:10051000FF3010BDD001002040EA010310B59B0759
:100520000FD1042A0DD310C808C9121F9C42F8D05D
:1005300020BA19BA884201D9012010BD4FF0FF300E
:1005400010BD1AB1D30703D0521C07E0002010BD24
:1005500010F8013B11F8014B1B1B07D110F8013BB0
:1005600011F8014B1B1B01D1921EF1D1184610BD91
:10057000704770477047704753EA020C00F069807B
:100580002DE9F04B4FF00006002B1FBFB3FA83F5A7
:1005900003FA05F424FA05F65E4012BF1643B2FAD8
:1005A00082F502FA05F4C5F120051EBF22FA05FC0A
:1005B00044EA0C04203556EA044C4FEA144418BFB0
:1005C000641C4FF000084FF00009904271EB030CDF
:1005D00039D3002919BFB1FA81F701FA07F6B0FA49
:1005E00080F700FA07F6C7F120071EBF20FA07FCC4
:1005F00046EA0C062037B6FBF4FCA7EB0507103FD4
:1006000007F01F0BCBF120062CFA06F60CFA0BFBB9
:1006100044BFB3460026202FA4BF5E464FF0000B18
:100620005BEA060C08BF4FF0010B19EB0B0948EB16
:100630000608ABFB027C06FB02CC0BFB03CCC01B09
:1006400071EB0C01C1E70B46024641464846BDE846
:10065000F08B13B54FF000004FF00001AFF30080B6
:10066000BDE81C40704710B500F09EFA006810BD50
:1006700010B5044600F098FA046010BD2DE9F0476B
:100680000D4699469246044600F124080168880602
:1006900004D5E06921F01001216000E00120A842AA
:1006A00001DD471B00E00027A1697A1902EB090070
:1006B000081AA0612078C00602D42046FFF7EAFDA0
:1006C000002608E0D4E901211AF806009047206AC4
:1006D000401C761C20624E45F4DB2078C0060AD50B
:1006E0002046FFF7D7FD06E0D4E9012130209047EE
:1006F000206A401C2062381EA7F10107F4DC07E0E5
:10070000D4E9012118F805009047206A401C2062B6
:10071000281EA5F10105F3DC2046FFF7D1FD207866
:10072000000602D50220BDE8F0870120FBE72DE995
:10073000FF4F0C461E464FF0FF378BB0D2E9000149
:10074000DDF860800A908A46C1F30A5505B93D4636
:10075000002108464FF00000BAF1000F00F44000FD
:1007600005DA00EB80004FF4400101EA50004FEA47
:100770009059B9F1010F00DDB9460A9850EA4A00D4
:100780000ED044F61050A5F2FF3545432F14B8F1B2
:10079000000F1ED07542291E1EDDC9F100021CE0AB
:1007A000B8F1010F4FF0000001D0302103E0F24317
:1007B00005E02154401CB042FBDB30460022002102
:1007C00021540B99C1F80880C1E900200FB0BDE8A1
:1007D000F08FBD1B6D1CDEE74A4600DA694206A8B1
:1007E00000F06CFA06AB93E8070003AB83E8070060
:1007F00050460A9905F0E1FB8DE80700A0F500508E
:100800001F3800900398002D0ADD42F21F014A466E
:100810000844002303A90390684605F04AFE09E056
:10082000A0F500504A461F38002303A903906846EC
:1008300005F054FE8DE807000004000C03D04FF0D3
:10084000FF30410800E01046B8F1000F03D000224D
:10085000009215461EE0751E05D400F0A9F930324D
:1008600062556D1EF9D5B3460122084302D000221D
:100870007F1C04E02078302801D100227F1E002A4E
:10088000099784D01DE0112D07DA00F091F930327C
:1008900062556D1C50EA0102F5D1084302D0009860
:1008A000C8B10EE00021681E05E0235C625C635461
:1008B0002254401E491C8142F7DBAB46A81B401E58
:1008C0000990002004F80B000B98099AC0F80880E2
:1008D000C0E9002B7AE711264FF0000857E72DE911
:1008E000F04F88460446D21D22F0070191B0D1E9AD
:1008F0000001CDE90A0105F028FF02460B98C00F60
:1009000001D02D2007E02068810701D52B2002E0CF
:10091000202101EAC000032A099001D0072A05DB43
:1009200003464146204600F089F90BE12078800615
:1009300001D5E06900E00620B8F1650F814606D0D8
:10094000B8F1660F18D0B8F1670F70D131E0002010
:10095000B9F1110F009001DB112301E009F101034E
:100960000AAA01A90CA8FFF7E2FEDDE90C70002637
:1009700009F10105834647E001204B4600904FF006
:1009800000470AAA01A90CA8FFF7D1FEDDE90DB0C6
:100990000C995D46002610B909F101000D18B9EB5C
:1009A000050003D4C0F1FF3609F10105A5EB0900EC
:1009B0002BE0B9F1010F01DA4FF001090020B9F184
:1009C000110F0090484601DD112300E003460AAAFA
:1009D00001A90CA8FFF7ABFEDDE90C704D4600261F
:1009E0008346207800070AD4AB4500DA5D4601A8AB
:1009F000012D04DD411911F8011C302907D04F45A4
:100A000002DA17F1040F04DA012082460FE06D1EAE
:100A1000EEE7002F02DCED1B3E4403E0781CA84209
:100A200000DD7D1CB81B00F1010A4FF00047207863
:100A3000000703D4AA4501DB4FF0FF3A0021B7F1CC
:100A4000004F0DF143088DF8431024D002202B23D2
:100A5000002F01DA7F422D230A21021EA0F101009E
:100A600000DC5FB197FBF1FC97FBF1F201FB1C7C12
:100A700017460CF1300C08F801CDEEE7A8F10100A3
:100A800003702188090501D5452100E06521A0F109
:100A9000010800F8011C09980FA9A1EB0807FF1D28
:100AA00000B10120411901EBEA70A1693844081A2C
:100AB000401EA0612078C00602D42046FFF7EAFB62
:100AC000099828B1D4E901219047206A401C20628E
:100AD0002078C00622D52046FFF7DCFB1EE0002E62
:100AE00004DBB34502DD01A8805D00E03020D4E9DD
:100AF00001219047206A401C2062761CAAF1010067
:100B00005FEA000A0AD100F04BF8C0680168405C57
:100B1000D4E901219047206A401C2062281EA5F1DB
:100B20000105DCDC07E0D4E9012118F8010B90474E
:100B3000206A401C2062381EA7F10107F3DC204622
:100B4000FFF7BEFB032011B041E6000001694A1C1B
:100B500002610878704700B58FB0CDE901310021FE
:100B6000059105497944CDE9031011466846FFF720
:100B700021FC0FB000BD0000E5FFFFFF074B70B583
:100B80000D467B44FFF7E7FF0446284600F008F9CE
:100B900010B14FF0FF3070BD204670BD933500009E
:100BA0000048704768000020004870474800002057
:100BB00030B5B0F10A0271F100034FEA900E4EEA2F
:100BC000817EB0EB0E0061EB91014FEA101E4EEA00
:100BD000017E10EB0E0041EB11114FEA102E4EEA90
:100BE000016E10EB0E0041EB11214FEA104E4EEA60
:100BF000014E10EB0E0041EB1141401841F1000194
:100C00004FEAD00040EA41704FEAD1014FEA810437
:100C100044EA907410EB800544EB01046D1944EB39
:100C20000404521BA3414FF0000348BF0A3200D511
:100C300030BD401C41F1000130BD00002DE9F04104
:100C40001F46044603260168072A01F4006004DBFE
:100C500008B116A505E016A503E008B115A500E04A
:100C600015A521F010002060A069C01EA0610FB181
:100C7000401EA0612046FFF70DFB4FB1D4E90121D2
:100C800038469047206A401C2062C01C206206E063
:100C9000206AFAE7D4E9012115F8010B9047761E86
:100CA000F8D22046FFF70CFBBDE8F0814E414E0024
:100CB0006E616E00494E4600696E66002DE9F04790
:100CC000814616468AB0354878440DC88DE80D0037
:100CD00032487844801C03AC0DC884E80D0041F60E
:100CE0009B300844372190FBF1F290FBF1F5A5F120
:100CF000800501FB12041B3C02D56442012000E088
:100D00000020DFF898A080460027FA44AAF1BE0A26
:100D10000EE0E0070AD03246684607EB47010123A0
:100D20000AEB810105F0DAFB8DE8070064107F1CF7
:100D3000002CEED1194F7F44AE3F19E0E80715D0E3
:100D400007EB04100DF1180A90E80E008AE80E0077
:100D5000C068F04201D1981908903246012306A9D3
:100D600003A805F0BBFB03AB83E807006D10641C10
:100D7000002DE3D14FF0010332466946B8F1000F70
:100D800003A802D005F095FB01E005F0A7FBC9E937
:100D90000001C9F808200AB0BDE8F087C07800005B
:100DA000007B00F08000704700487047480000203A
:100DB0007546FFF7F9FFAE4605006946534620F039
:100DC0000700854618B020B5FFF720FABDE820409F
:100DD0004FF000064FF000074FF000084FF0000BF7
:100DE000AC46ACE8C009ACE8C009ACE8C009ACE866
:100DF000C00921F007018D46704710B50446AFF3D6
:100E000000802046BDE81040FFF7ECB94FF0013CF0
:100E100050F8042B51F8043B9A4221D1A2EB0C0369
:100E2000934313EACC1317D150F8042B51F8043B29
:100E30009A4215D1A2EB0C03934313EACC130BD1C6
:100E400050F8042B51F8043B9A4209D1A2EB0C0351
:100E5000934313EACC13DBD04FF00000704700BF80
:100E6000D01A01BAB1FA81F101F0180122FA01F0A9
:100E7000CB40DBB2C0B2C01AC1F120012CFA01F3A1
:100E8000D11A914311EAC311E6D170478268002953
:100E900042F0010308BF22F00103836070470000A5
:100EA00080B543F60041C4F20101884214D042F6F5
:100EB0000001C4F20101884216D042F20041C4F29E
:100EC0000101884218BF80BD4FF40070012100F07D
:100ED00099FE4FF400700EE04FF40040012100F045
:100EE00091FE4FF4004006E04FF48060012100F0D5
:100EF00089FE4FF480600021BDE8804000F082BE92
:100F00008068C0F380007047C06C80B270470000FA
:100F10000068084018BF0120704700008068C0F3D7
:100F2000C000704780B54FF6FF634268CFF6F0739C
:100F300002EA030CD1E9003243EA0C0343EA02223D
:100F40004FF2FD734260CFF6F173826802EA030E3E
:100F5000D1E902C30A6942EA0E021A4342EA4C028C
:100F60008260C26A097D013922F47002C9B242EA84
:100F70000151C16280BD000010B501EB410C09298F
:100F800088BFACF11E0C092903FA0CFE4FF00703D1
:100F900003FA0CFC4FF0100388BF0C23062AC45838
:100FA00024EA0C0444EA0E04C45003D834306FF031
:100FB000040307E00C2A87BF2C306FF04003303069
:100FC0006FF0220302EB82021A441F23914003FABE
:100FD00002F2036823EA02021143016010BD00001F
:100FE000816841F008018160704700008268002933
:100FF00042F4A00308BF22F4A003836070470000FE
:10100000816841F00401816070470000FEE7000044
:10101000411EC8B2092802D90020C0B2704740F270
:10102000A80024220929C2F200000270F4D8DFE8E7
:1010300001F0050A0F14191E23282E3405214171D1
:101040000620C0B27047092141720A20C0B2704721
:101050000D2141730E20C0B270471121417412203E
:10106000C0B27047152141751620C0B270471921D2
:1010700041761A20C0B270471D2141771E20C0B2B0
:101080007047212180F821102220C0B2704725210D
:1010900080F825102620C0B27047292180F8291039
:1010A0002A20C0B2704700000139CAB2092A98BF8D
:1010B000092900D97047DFE801F005111D293541E4
:1010C0004D59667640F2A801020AC2F2000148704A
:1010D0008A70020C000ECA700871704740F2A801B5
:1010E000020AC2F2000148718A71020C000ECA7134
:1010F0000872704740F2A801020AC2F20001487269
:101100008A72020C000ECA720873704740F2A8017E
:10111000020AC2F2000148738A73020C000ECA73FD
:101120000874704740F2A801020AC2F20001487434
:101130008A74020C000ECA740875704740F2A80148
:10114000020AC2F2000148758A75020C000ECA75C7
:101150000876704740F2A801020AC2F20001487600
:101160008A76020C000ECA760877704740F2A80112
:10117000020AC2F2000148778A77020C000ECA7791
:1011800081F82000704740F2A801020AC2F2000173
:1011900081F8210081F82220020C000E81F8232022
:1011A00081F82400704740F2A801020AC2F200014F
:1011B00081F8250081F82620020C000E81F82720F6
:1011C00081F82800704700007047000080B50120BA
:1011D00000F09EF841F200000121C4F20100BDE8D8
:1011E000804000F043BA0000B0B541F200444FF433
:1011F0008051C4F20104204600F038FA012808D1D9
:1012000020464FF4005100F031FA40F22C21002822
:1012100016E020464FF4805100F028FA054620469B
:101220004FF4005100F022FA3DB101281ED1A4F57F
:1012300080604FF4805100F019FA40F22C2101280F
:10124000C2F20001096801D0481C00E0481E40F2CB
:101250002C21C2F2000108604FF4805000F058F8D1
:101260004FF40050BDE8B04000F052B8A4F58064DF
:101270004FF40051204600F0F9F90028ECD1204647
:101280004FF48051BFE70000B0B541F200044021A7
:10129000C4F20104204600F0E9F9012807D12046F4
:1012A000802100F0E3F940F23021002812E02046CE
:1012B000402100F0DBF905462046802100F0D6F9F8
:1012C0002DB101281AD12046402100F0CFF940F27B
:1012D00030210128C2F20001096801D0481C00E059
:1012E000481E40F23021C2F200010860802000F068
:1012F0000FF84020BDE8B04000F00AB82046802139
:1013000000F0B4F90028F1D120464021C9E70000DF
:1013100040F21441C4F201010860704780B5D1F871
:1013200008E00EF00F0C1EF0100F1CBF4B684CEACB
:10133000030C098811F0FF0F00F0A4800368CA07AE
:101340000BD023F00F02BEF1480F42EA0C0315D078
:10135000BEF1280F01D1012242618A0712D523F084
:10136000F002BEF1280F42EA0C131CD0BEF1480F68
:1013700008D1022202614A0706D418E00122026164
:101380008A07ECD44A0712D523F47062BEF1280F05
:1013900042EA0C231CD0BEF1480F08D1042202619E
:1013A0000A0719D505E0022242614A07ECD40A0770
:1013B00012D523F47042BEF1280F42EA0C331CD040
:1013C000BEF1480F08D108220261CA0606D418E00F
:1013D000042242610A07ECD4CA0612D523F4702213
:1013E000BEF1280F42EA0C431CD0BEF1480F08D1D1
:1013F000102202618A0619D505E008224261CA0658
:10140000ECD48A0612D523F47002BEF1280F42EA0A
:101410000C531CD0BEF1480F08D1202202614A06AD
:1014200006D418E0102242618A06ECD44A0612D58E
:1014300023F07062BEF1280F42EA0C631AD0BEF1AD
:10144000480F08D1402202610A061AD505E0202281
:1014500042614A06ECD40A0613D523F07042BEF16D
:10146000280F42EA0C730AD0BEF1480F09D180223E
:10147000026106E0402242610A06EED401E08022C9
:1014800042610360B1F5807F38BF80BD4368CA0503
:101490000CD523F00F02BEF1480F42EA0C0317D01F
:1014A000BEF1280F02D14FF4807242618A0514D533
:1014B00023F0F002BEF1280F42EA0C131FD0BEF158
:1014C000480F0AD14FF4007202614A0507D41BE0AD
:1014D0004FF4807202618A05EAD44A0514D523F4D8
:1014E0007062BEF1280F42EA0C231FD0BEF1480FF4
:1014F0000AD14FF4806202610A051CD506E04FF460
:10150000007242614A05EAD40A0514D523F47042F8
:10151000BEF1280F42EA0C331FD0BEF1480F0AD1AA
:101520004FF400620261CA0407D41BE04FF48062EA
:1015300042610A05EAD4CA0414D523F47022BEF12C
:10154000280F42EA0C431FD0BEF1480F0AD14FF4D6
:10155000805202618A041CD506E04FF400624261A9
:10156000CA04EAD48A0414D523F47002BEF1280F09
:1015700042EA0C531FD0BEF1480F0AD14FF400527B
:1015800002614A0407D41BE04FF4805242618A048E
:10159000EAD44A0414D523F07062BEF1280F42EA5F
:1015A0000C631ED0BEF1480F0AD14FF48042026195
:1015B00009041BD506E04FF4005242614A04EAD404
:1015C000090413D523F07041BEF1280F41EA0C73D2
:1015D0000ED0BEF1480F09D14FF4004101614360C4
:1015E00080BD4FF4804242610904EBD4436080BD6A
:1015F0004FF400414161436080BD000010B50422FA
:10160000002800F440141FFA80FCC4F201021346C3
:10161000B8BF43F01803B4F5401F1B68C0F3034E76
:1016200007D1146823F0706324F07064146081B9EA
:1016300016E0C40206D447F6F07404EA50440CFAEB
:1016400004F402E0032404FA0EF4A34343F07063AD
:1016500031B147F6F07101EA50410CFA01F10B4348
:101660000028B8BF1832136010BD00008068084021
:1016700018BF012070470000416170470161704749
:10168000FEE70000022002F0B5B8000010B584B0FB
:1016900008200121012400F0A9FA102001A90390DB
:1016A0004FF44060ADF804000320029040F6004083
:1016B000C4F20100FFF732FE48F2A810C4F2212064
:1016C0000460446004B010BD2DE9F04F83B040F6D3
:1016D0000441029048F2A8154FF0000BC4F201013A
:1016E000C4F22125086820F470400860086840F4BE
:1016F0000040086000202860022002F07BF80126EC
:101700002E6055F87C0C0190012002F073F8022045
:10171000C5F800B002F06EF82E60012055F87C7C10
:1017200002F068F80220C5F800B002F063F82E60FD
:10173000012055F87C4C02F05DF80220C5F800B09D
:1017400002F058F82E60012055F87C8C02F052F817
:101750000220C5F800B002F04DF82E60012055F8C7
:101760007C9C02F047F80220C5F800B002F042F875
:101770002E60012055F87CAC02F03CF80220C5F840
:1017800000B002F037F82E60012055F87CBC02F062
:1017900031F800202860022002F02CF82E60012091
:1017A00055F87C6C02F026F840F6044200212960CE
:1017B000C4F20102106820F470401060106840F418
:1017C000405010600198002818BF0120002F18BF5A
:1017D0000127002C18BF012447EA4000B8F1000F90
:1017E00018BF4FF0010844EA4000B9F1000F18BFDC
:1017F0004FF0010948EA4000BAF1000F18BF4FF05E
:10180000010A49EA4000BBF1000F18BF4FF0010B7D
:101810004AEA4000002E4BEA400018BF012646EA83
:101820004004029848B10220696001F0E3FF012002
:101830002860022001F0DEFF08E0012602206E6031
:1018400001F0D8FF02202E6001F0D4FF00202860B4
:10185000E0B203B0BDE8F08FF0B581B0044640F6C9
:10186000044048F2A8150026C4F20100C4F2212564
:10187000016821F470410160016841F44051016048
:10188000E0092E606860022001F0B4FF0127022009
:101890002F6001F0AFFF02202E6001F0ABFFC4F318
:1018A00080106860022001F0A5FF02202F6001F087
:1018B000A1FF02202E6001F09DFFC4F3401068607C
:1018C000022001F097FF02202F6001F093FF022019
:1018D0002E6001F08FFFC4F300106860022001F059
:1018E00089FF02202F6001F085FF02202E6001F0A9
:1018F00081FFC4F3C0006860022001F07BFF02207A
:101900002F6001F077FF02202E6001F073FFC4F317
:1019100080006860022001F06DFF02202F6001F05E
:1019200069FF02202E6001F065FFC4F3400068608B
:10193000022001F05FFF02202F6001F05BFF022018
:101940002E6001F057FF04F001006860022001F0F2
:1019500051FF02202F6001F04DFF2E60022001B0E8
:10196000BDE8F04001F046BFB0B540F6044048F293
:10197000A814C4F20100C4F22124016821F47041CA
:101980000160016841F44051016001206060206005
:10199000042001F02FFF00250420656001F02AFFDC
:1019A0002560B0BD10B540F6044048F2A814C4F25A
:1019B0000100C4F22124016821F470410160016832
:1019C00041F440510160002020606060042001F07B
:1019D00011FF0120206060600420BDE8104001F08C
:1019E00009BF000070B540F6044448F22C150126EA
:1019F000C4F20104C4F22125206820F47040206064
:101A0000206840F4004020600120C5F8806001F0AB
:101A1000F1FE0120EE6701F0EDFE286888B100209C
:101A2000296871B1296861B140F00201C9B2F92990
:101A30000BD82A682AB1F92907D829680430002967
:101A4000EED100242046EC6770BD206820F4704081
:101A50002060206840F4405020600020E867C5F80E
:101A60008000042001F0C6FE01240420EC67C5F8C4
:101A7000804001F0BFFE204670BD000041F2180119
:101A8000C4F202010A6842F001020A600421C4F2B1
:101A900001010A6822F0E0620A600A6842EA4060D6
:101AA0000860704780B5FFF7F1FD6B20802100F0E2
:101AB00073FE642001F070FE6B20002100F06CFECC
:101AC0001B20182100F068FE1C20102100F064FE8D
:101AD0001920012100F060FE1A20012100F05CFEB7
:101AE0003820002100F058FE6A20002100F054FE4A
:101AF0002320002100F050FE3720802100F04CFE12
:101B0000FFF732FFD220FFF7A7FEFFF76BFF75202C
:101B1000FFF7A2FEFFF766FFFFF726FFD320FFF7D0
:101B20009BFEFFF75FFF0020FFF7CEFDFFF73AFFB8
:101B30006B20032100F030FE6C20002100F02CFE11
:101B4000002080BDFEE700007047000042684EF2B2
:101B50000011CEF20001EAB110B54EF60C52072387
:101B6000CEF20002126890F801E0847890F800C08C
:101B700023EA12220F23D340C2F1040223400EFABB
:101B800002F21A4301EB0C03120183F80023BDE8B3
:101B9000104000E080310078012300F01F02C0F304
:101BA000421003FA02F241F82020704740F08060B2
:101BB0004EF60C5140F0FD70CEF200010860704707
:101BC00041F20401C4F202010A6822F440421043C7
:101BD0000860704741F21C020029C4F20202116839
:101BE0000CBF21EA000008431060704741F2180260
:101BF0000029C4F2020211680CBF21EA0000084368
:101C00001060704741F20C020029C4F20202116810
:101C10000CBF21EA000008431060704780B541F214
:101C2000040EC4F2020EDEF8002002F00C0341F2B2
:101C30000022C0F27A02082B1FD1DEF80030C3F375
:101C4000834303F1020CDEF8003013F4803F06D129
:101C500040F60012C0F23D020CFB02F20DE0DEF88D
:101C6000003013F4003F02D10CFB02F205E040F615
:101C70000012C0F23D020CFB02F2026048F2A851D1
:101C8000DEF80030C0F60001C3F30313CB5CDA408A
:101C90004260DEF80030C3F30223CB5C22FA03F388
:101CA0008360DEF80030C3F3C223C95C48F2A4535A
:101CB000C0F6000322FA01F1C160DEF80020C2F391
:101CC00081329A5CB1FBF2F1016180BD2DE9F04FE8
:101CD00081B040F6044A074648F2A81901261C467E
:101CE00015468846C4F2010AC4F22129DAF8000038
:101CF00020F47040CAF80000DAF8000040F44050C8
:101D0000CAF800000420C9F80460C9F8006001F0B6
:101D100071FD4FF0000B0420C9F804B001F06AFD1A
:101D20007F00C9F800B0F8B2FFF796FDFFF75AFE42
:101D3000D0B1DAF8000020F47040CAF80000DAF8F8
:101D4000000040F44050CAF800000420C9F800B078
:101D5000C9F804B001F04EFD0420C9F80060C9F8CC
:101D6000046001F047FD51E04046FFF775FDFFF7C5
:101D700039FEDAF8000020F47040CAF80000DAF802
:101D8000000040F44050CAF800000420C9F8046084
:101D9000C9F8006001F02EFD0420C9F804B001F07C
:101DA00029FD47F00100C9F800B0C0B2FFF754FDAB
:101DB000FFF718FE05E000BFFFF786FC04F8010BF3
:101DC000013DE8B2012803D020B10120F4E700BFB3
:101DD0000020F1E7DAF80000002620F47040CAF88D
:101DE0000000DAF8000040F44050CAF80000042077
:101DF000C9F80060C9F8046001F0FCFC0120C9F8D2
:101E00000000C9F80400042001F0F4FC304601B0E1
:101E1000BDE8F08F4EF210010428CEF200010A68EE
:101E200022F0040308BF42F004030B607047000077
:101E300082B041F204000022C4F20200CFF6FF0299
:101E400050F8041C41F0010140F8041C01681140E5
:101E50004FF6FF720160CFF6F66250F8041C114095
:101E600040F8041C50F8041C21F4802140F8041CA4
:101E7000016821F4FE0101604FF41F01416000215F
:101E80000191009150F8041C41F4803140F8041C89
:101E900050F8041C01F400310091019901310191C5
:101EA000009919B90199B1F5A06FF1D150F8041C4E
:101EB00011F4003F0CBF002101210091009901297C
:101EC00058D1D0F8FC1F41F01001C0F8FC1FD0F829
:101ED000FC1F21F00301C0F8FC1FD0F8FC1F41F0EB
:101EE0000201C0F8FC1F016801600168016001681F
:101EF00041F480610160016821F47C110160016896
:101F000041F4E811016050F8041C41F0807140F880
:101F1000041C00BF50F8041C11F0007F0ED150F8D3
:101F2000041C11F0007F09D150F8041C11F0007F4F
:101F300004D150F8041C11F0007FEBD0016821F0AF
:101F400003010160016841F002010160016801F0D4
:101F50000C0108290ED0016801F00C01082909D0F4
:101F6000016801F00C01082904D0016801F00C019E
:101F70000829EBD14EF608504FF00061CEF2000078
:101F8000016002B07047000010B54FF080400121A1
:101F900000F0EEF8012818BF10BD4FF0804001217D
:101FA00000F0B0F840F25424C2F200042068632824
:101FB00011DC01F09FF940F2C011C2F2000108608B
:101FC00040F2BC11C2F200010A68104408602068A7
:101FD0000130206039E0642837D140F2BC12002182
:101FE000C2F2000221601068116005F0ADFF00240C
:101FF000C4F2C824214605F075FE40F2B811C2F2C1
:1020000000010860214605F06DFE05F07DFD46F2F9
:1020100066634FF06632C4F2270305F026FE40F2F5
:10202000B4110028C2F2000118BF01200A68B2FAF8
:1020300082F252091040086040F28010C4F223205E
:102040000168B1FA81F14909016040F2E40040F20F
:10205000E00140F2C412C2F20000C2F20001C2F27A
:10206000000202F0BFFA042000F098FD40F2D40410
:102070004042C2F200042060032000F08FFD40F2D5
:10208000D801C2F20001086040F210012068C2F2DB
:102090000001096800F026FD40F2DC044EF2D45243
:1020A00041F62C21C2F20004CFF6FF72206001F04D
:1020B00047FB20600021BDE8104001F005BA000098
:1020C00040F21040C4F200000188018821F00101B3
:1020D0000180704740F61000C4F2000001880188BA
:1020E00021F00101018070470288002942F080033D
:1020F00008BF22F08003038070470000C9430182BB
:1021000070470000C943018270470000028800291F
:1021100042F0010308BF22F0010303807047000072
:10212000B0F84420002913466FF3DF3318BF42F4A0
:102130000043A0F84430704780B5B0F808C02CF0D8
:10214000070C41EA0C01B0F818C0B0F820E001819A
:102150004FF6FC410CEA010C40F2011141EA0C017E
:10216000018342EA03112EF022021143018480BD53
:10217000028A0A4018BF01228089084018BF012046
:102180001040704770B50B88042B2AD0002B56D115
:10219000B1F802C00A898B88068C40F6FF354FF6ED
:1021A000FC74C4F2000526F0010643EA021302465D
:1021B000A842068432F8186FB0F820E026F0F30643
:1021C00043EA06036DDCB0F1804F7DD040F200455C
:1021D000C4F20005A84277D040F60005C4F200051D
:1021E0006FE00E894B888A88058C40F6FF443603E1
:1021F00025F0100546EA02260584024632F8185FEB
:10220000B0F820E0254046EA050C40F6FF356FF0B7
:102210000306C4F20005A6F1AD04A84262DCB0F1E9
:10222000804F71D040F20045C4F20005A8426BD047
:1022300040F60005C4F20005A84265D068E00A89AE
:102240008C884E88058C082B71D125F4807303840B
:1022500044EA0213024632F81C5FB0F820E025F091
:10226000F30543EA050C6FF4405303F5145440F6AC
:10227000FF33C4F20003984200F38180B0F1804F35
:1022800000F08F8040F20043C4F20003984200F057
:10229000888040F60003C4F20003984200F0818079
:1022A00084E040F60045C4F20005A8420CD042F696
:1022B0000045C4F20105A84206D043F20045C4F22D
:1022C0000105A84218BF083C03830EEA040343EA51
:1022D0000C0343F001030384C988038B23F00C0330
:1022E000038394E040F60045C4F20005A8420BD0F9
:1022F00043F20045C4F20105A84205D042F600456C
:10230000C4F20105A84203D14FF6FC741B012D3C19
:102310000EEA0406A0F818C0334343F01003038408
:10232000C988038B23F44063090203836FE025F41B
:1023300080531203038442EA0423024640F6FF441A
:1023400032F81C5FB0F820C0254046F6FF5443EA3F
:10235000050E40F6FF33C4F20003984234DCB0F1BE
:10236000804F43D040F20043C4F2000398423DD076
:1023700040F60003C4F20003984237D039E040F63B
:102380000043C4F2000398420BD043F20043C4F26E
:102390000103984205D042F60043C4F2010398427B
:1023A00004D14CF6FF73360203F534540EEA0403ED
:1023B000A0F81CC0334343F480730384C988838B23
:1023C00023F00C03838322E040F60043C4F20003B1
:1023D00098420BD043F20043C4F20103984205D067
:1023E00042F60043C4F20103984202D136034CF690
:1023F000FF740CEA0403A0F81CE0334343F4805359
:102400000384C988838B23F4406309028383108883
:102410000843108070BD000000210122016042606D
:1024200001817047002A82890CBF22EA0101114311
:102430008181704710B5028C22F480720284048C72
:10244000B0F804E0838B0A8823F0730343EA020C9C
:102450000B8924F4007242EA03224B8842EA0322E9
:1024600043F20043C4F20103984205D042F6004310
:10247000C4F20103984212D18B892EF4405422F405
:10248000406244EA0313CC8943EA041E4B8940F2BC
:10249000FF441B02A3431A438B8842EA0322A0F89D
:1024A00004E0A0F81CC0C9888187028410BD000028
:1024B000828B22F0080211438183704710B5028C91
:1024C00022F480520284048CB0F804E0828B0B88E2
:1024D00022F4E64242EA032C0B8924F4005242EA39
:1024E00003324B8842EA033343F20042C4F2010252
:1024F000904205D042F60042C4F20102904204D15B
:102500008A892EF4804444EA821EA0F804E0A0F8F0
:102510001CC0C988A0F84010038410BD828B22F42F
:10252000006242EA01218183704700008184704784
:1025300040F6FF33B0F800C0C4F2000398420FDC4D
:10254000B0F1804F1ED040F20043C4F20003984225
:1025500018D040F60003C4F20003984212D016E0EF
:1025600040F60043C4F2000398420BD043F200430C
:10257000C4F20103984205D042F60043C4F20103BD
:10258000984204D14B882CF0700243EA020C41F2CD
:10259000004240F48063C4F20002934204D0CB882E
:1025A0002CF4407243EA020CA0F800C08A888285AD
:1025B0000A880285A0F18042A2F596324FEAB22243
:1025C000072A07D8012303FA02F212F0E50F1CBF15
:1025D000097A018601218182704700004FF6FF7160
:1025E00041600021016001727047000010B543F6A0
:1025F000000440F22551C4F20104204600F036F8F0
:1026000008B3204600F0C2F840F2B011C2F2000157
:102610000A8812F4004F18BF10BDC3B2540413D47B
:102620000D2B02BF42F48040088010BD40F2E80448
:10263000531C6FF39F32C2F20004A05498B2C72813
:1026400088BF00230B8010BD0A2B14BF002042F46A
:102650000040088010BD00008289002942F4005328
:1026600008BF22F4005383817047000001F01F026D
:10267000012303FA02F2C1F34213022B06D0012B0D
:1026800014BF00F1140300F10C0301E000F110038A
:102690001B88090A1A404FF0010318BF0122008865
:1026A00003FA01F1084018BF0120104070470000F4
:1026B00001F01F0C012303FA0CFCC1F34213142197
:1026C000022B08BF1021012B08BF0C21002A425801
:1026D0000CBF22EA0C0242EA0C0242507047000092
:1026E00070B586B00446008A0D46C98801AE20F454
:1026F000405008434EF6F3112082A0890840A98873
:1027000008432989084369890843A081A08AA989C7
:1027100020F440700843A0823046FFF77FFA43F66A
:10272000000106F108000222C4F201018C424FF0C0
:10273000190108BF06F10C00042600684843A1896E
:10274000A2EBD1312A6802FA01F1B0FBF1F048F2B4
:102750001F51C5F2EB11A0FB01235A096FF063036F
:1027600002FB0300A389A6EBD336B0403230A0FBB6
:102770000101072040EA133080F0080000EA511000
:1027800040EA0210208106B070BD000080886FF31F
:102790005F207047FEE70000B0B50C460546FFF726
:1027A000E3F8FEF76FFFD220FFF756F8FFF71AF9AC
:1027B00018B1FFF7F7F80120B0BD2846FFF74CF835
:1027C000FFF710F92046FFF747F8FFF70BF904462B
:1027D000002818BF0124FFF7E5F82046B0BD00002F
:1027E0002DE9F04F81B040F6044A074648F2A81997
:1027F00001241D4616468846C4F2010AC4F2212966
:10280000DAF8000020F47040CAF80000DAF800009E
:1028100040F44050CAF800000420C9F80440C9F848
:10282000004000F0E7FF4FF0000B0420C9F804B0AF
:1028300000F0E0FF7800C9F800B0C0B2FFF70CF874
:10284000FFF7D0F8D0B1DAF8000020F47040CAF8F1
:102850000000DAF8000040F44050CAF800000420FC
:10286000C9F800B0C9F804B000F0C4FF0420C9F8EA
:102870000040C9F8044000F0BDFF49E04046FEF7C3
:10288000EBFFFFF7AFF856B1002400BF285DFEF75D
:10289000E3FFFFF7A7F8F8B90134B442F6D3DAF84A
:1028A0000000002420F47040CAF80000DAF80000AC
:1028B00040F44050CAF800000420C9F80040C9F8AC
:1028C000044000F097FF0120C9F80000C9F8040097
:1028D000042000F08FFF1BE0DAF8000020F47040C5
:1028E000CAF80000DAF8000040F44050CAF80000CE
:1028F0000020C9F80000C9F80400042000F07AFFA5
:1029000001240420C9F80040C9F8044000F072FF17
:10291000204601B0BDE8F08F10B50446000A00F073
:1029200037F8E0B2BDE8104000F032B810B586B01C
:10293000012001210124FFF74DF940F2671003A99E
:10294000039040F2E73004904FF08040FFF7F0FD35
:102950004FF080400121FFF7D5FB4FF0804001216F
:102960000122FFF75FFD4FF4A060FFF71FF9002081
:102970008DF806001C20ADF8040001A80294FFF7B2
:10298000E5F84FF080400121FFF7C0FB06B010BD15
:10299000B0B541F6000405460221C4F20104204608
:1029A000FEF76AFE20460821FEF766FE68B2B0F127
:1029B000FF3F04DD20462021FEF75EFE03E02046B7
:1029C0002021FEF75BFE20460821FEF757FE204639
:1029D0000821FEF751FE680604D420462021FEF7A8
:1029E0004BFE03E020462021FEF748FE204608214A
:1029F000FEF744FE20460821FEF73EFEA80604D45A
:102A000020462021FEF738FE03E020462021FEF775
:102A100035FE20460821FEF731FE20460821FEF74C
:102A20002BFEE80604D420462021FEF725FE03E015
:102A300020462021FEF722FE20460821FEF71EFE3A
:102A400020460821FEF718FE280704D4204620213E
:102A5000FEF712FE03E020462021FEF70FFE20467F
:102A60000821FEF70BFE20460821FEF705FE680749
:102A700004D420462021FEF7FFFD03E0204620215C
:102A8000FEF7FCFD20460821FEF7F8FD2046082150
:102A9000FEF7F2FDA80704D420462021FEF7ECFD46
:102AA00003E020462021FEF7E9FD20460821FEF73D
:102AB000E5FD20460821FEF7DFFDE80704D12046AA
:102AC0002021FEF7D9FD03E020462021FEF7D6FDA8
:102AD00020460821FEF7D2FD20460221BDE8B04085
:102AE000FEF7CCBDF0B581B0081A05F02DFA40F222
:102AF000C8170446C2F200072146386805F030F8CE
:102B000045F200050646C4F2C375294605F0C2F831
:102B100068B945F200013046CCF2C37105F0C1F846
:102B20000028354604BF45F20005CCF2C37540F2DB
:102B3000CC1021463D60C2F200000668046040F2FD
:102B40000800C2F20000006805F092FA074640F261
:102B50000400C2F200000168284605F089FA00214D
:102B6000C4F2201105F0BEF80146384604F0F8FF23
:102B700005462046314605F047FB014640F200007D
:102B8000C2F20000006805F073FA0146284604F01E
:102B9000E7FF05F09DF901B0F0BD000040F22441CF
:102BA0000328C4F2000105D004281CBF0020704790
:102BB00001F58061B1F900004042704770B58AB0FC
:102BC0004FF4047001210125FFF710F84FF4004085
:102BD000FEF7F6FF42F200440026022001A9C4F2EB
:102BE00001040396ADF80400A4F5A050FEF796FB8F
:102BF0002046FEF755F94FF46020CDE904660696AD
:102C000004A9CDE9070620468DF82450FEF78AF97D
:102C100020460121FEF73AF92046FEF7E1F900BF10
:102C20002046FEF77BF90028FAD12046FEF7E8F9A6
:102C30002046FEF765F90028FAD10AB070BD000001
:102C400010B584B041F218000124C4F202000168FA
:102C500041F011010160012000F0CCFD10200121A4
:102C6000FEF7C4FF4820ADF8044001A903900320FB
:102C7000029041F20000C4F20100FEF74FFB04B0E5
:102C800010BD000010B500F015FA41F60004102147
:102C9000C4F201042046FEF7EFFC642000F07CFD46
:102CA00020461021FEF7EAFC642000F075FD204666
:102CB0004021FEF7E3FC642000F06EFD2046042175
:102CC000FEF7DAFC1120FFF763FE20460421FEF731
:102CD000D5FC782000F060FD20460421FEF7CCFCF6
:102CE0003620FFF755FE20460421FEF7C7FC0020E2
:102CF000FFF74EFE20460421FEF7BEFC3A20FFF708
:102D000047FE20460421FEF7B9FC0520FFF740FEF0
:102D100020460421FEF7B0FCB220FFF739FE204622
:102D20000421FEF7ABFC0C20FFF732FE0C20FFF76E
:102D30002FFE0020FFF72CFE3320FFF729FE332063
:102D4000FFF726FE20460421FEF796FCB720FFF78A
:102D50001FFE20460421FEF791FC3520FFF718FEE8
:102D600020460421FEF788FCBB20FFF711FE204619
:102D70000421FEF783FC3220FFF70AFE20460421DF
:102D8000FEF77AFCC220FFF703FE20460421FEF77F
:102D900075FC0120FFF7FCFD20460421FEF76CFCCA
:102DA000C320FFF7F5FD20460421FEF767FC152040
:102DB000FFF7EEFD20460421FEF75EFCC420FFF77E
:102DC000E7FD20460421FEF759FC2020FFF7E0FD37
:102DD00020460421FEF750FCC620FFF7D9FD20460F
:102DE0000421FEF74BFC0F20FFF7D2FD2046042103
:102DF000FEF742FCD020FFF7CBFD20460421FEF772
:102E00003DFCA420FFF7C4FDA120FFF7C1FD204633
:102E10000421FEF731FCE020FFF7BAFD2046042133
:102E2000FEF72CFCD020FFF7B3FD0820FFF7B0FD24
:102E30000E20FFF7ADFD0920FFF7AAFD0920FFF7DF
:102E4000A7FD0520FFF7A4FD3120FFF7A1FD3320EA
:102E5000FFF79EFD4820FFF79BFD1720FFF798FD29
:102E60001420FFF795FD1520FFF792FD3120FFF7A5
:102E70008FFD3420FFF78CFD20460421FEF7FCFB7C
:102E8000E120FFF785FD20460421FEF7F7FBD02067
:102E9000FFF77EFD0820FFF77BFD0E20FFF778FD92
:102EA0000920FFF775FD0920FFF772FD1520FFF7D8
:102EB0006FFD3120FFF76CFD3320FFF769FD4820DF
:102EC000FFF766FD1720FFF763FD1420FFF760FD95
:102ED0001520FFF75DFD3120FFF75AFD3420FFF785
:102EE00057FD20460421FEF7C7FB2120FFF750FDC8
:102EF00020460421FEF7C2FB20460421FEF7BCFB5E
:102F00002920FFF745FD20460421BDE81040FEF7CB
:102F1000B5BB000070B584B041F218060124C4F2BC
:102F20000206306840F045003060012000F062FC8D
:102F300040200121FEF75AFE40F60005102001A9AD
:102F4000C4F201050390ADF80440032005F5805458
:102F500002902046FEF7E2F920462021FEF78EFB84
:102F6000286820F001002860286820F0020028600E
:102F7000286840F003002860286820F010002860CE
:102F8000286820F020002860286840F03000286081
:102F9000286820F480702860286820F40070286079
:102FA000286840F440702860286820F48050286029
:102FB000286820F400502860286840F440502860B9
:102FC000286820F004002860286820F008002860A5
:102FD000286840F00C002860286820F04000286035
:102FE000286820F080002860286840F0C000286031
:102FF000286820F480602860286820F40060286039
:10300000286840F440602860286820F480402860E8
:10301000286820F400402860286840F400402860B8
:10302000706840F008007060012000F0E3FB40F29F
:1030300028400921CFF6FF70295240F22C4042F27D
:103040001071CFF6FF70295240F2184047F6680120
:10305000CFF6FF70295240F21C4047F67801CFF6B8
:10306000FF70295240F240400021CFF6FF702952F4
:1030700040F23C41285ACFF6FF716852685A40F23C
:103080003841CFF6FF716852685A40F23441CFF6AA
:10309000FF71685240F2204041F21111CFF6FF70EB
:1030A000295240F200408121CFF6FF70295204B02E
:1030B00070BD000070B584B040200121FEF796FD80
:1030C00041F600041026022001AD0396ADF804007D
:1030D0000320C4F20104294602902046FEF71EF99F
:1030E00020460221FEF7CAFA28202946ADF804003E
:1030F0002046FEF713F920462821FEF7BFFA4420A8
:103100002946ADF804002046FEF708F9204648F2AB
:103110002001FEF7B3FA20462946ADF80460FEF719
:10312000FDF820461021FEF7A9FA04B070BD00009A
:10313000B0B584B070200121FEF758FD102041F693
:10314000000401AD03904FF44160C4F2010429462C
:10315000ADF8040003200290A4F58060FEF7DEF8CD
:103160004FF480502946ADF80400A4F50060FEF746
:10317000D5F84FF480602946ADF804002046FEF7EC
:10318000CDF820464FF48061FEF778FA04B0B0BD68
:103190002DE9F04141F600040E460546042198460B
:1031A0001746C4F201042046FEF766FA2A20FFF70C
:1031B000EFFB20460421FEF761FA280AFFF7E8FB3F
:1031C000E8B2FFF7E5FB380AFFF7E2FBF8B2FFF7DA
:1031D000DFFB20460421FEF74FFA2B20FFF7D8FB38
:1031E00020460421FEF74AFA300AFFF7D1FBF0B27D
:1031F000FFF7CEFB4FEA1820FFF7CAFB5FFA88F013
:10320000FFF7C6FB20460421FEF736FA2C20FFF715
:10321000BFFB20460421BDE8F041FEF72FBA0000B5
:10322000F0B58BB041F21800C4F20200016841F41D
:1032300000610160012000F0DDFA42F63C46012009
:103240000027C4F201063780B78000F0D3FAC0200F
:103250000121C0F21600FEF7D1F94FF40060012100
:10326000FEF7C4FC41200121FEF7C0FC032042F61A
:10327000004408A909901820C4F201040A904FF4F0
:10328000C040ADF82000A4F5A050FEF747F841F685
:103290001F4005A9CDE905702046FFF749F97020C8
:1032A00001ADC0F20100294601902046CDF80A7018
:1032B000FFF7C0F820460821FFF7FAF860202946FA
:1032C000ADF804002046FFF7F9F820460821FFF783
:1032D00025F920460121FEF723FF20460121FEF7B4
:1032E00003FF20460121FEF711FF3780B7800BB0A6
:1032F000F0BD000010B542F200440C21012207236A
:10330000C4F201042046FDF737FE20460121FDF7F7
:103310006DFE00BF20460221FDF7FAFD0028F9D01E
:103320002046FDF7F1FD04F08AF846F266634FF09F
:103330006632C4F20A0304F00DF948F200030022D9
:10334000C4F2670304F006F900230022C4F2240348
:1033500003F0B2FE00230022C4F2590304F0FAF88D
:1033600000230022C3F6307304F0F4F804F038F8B8
:1033700010BD000080B5FEF795FB00BF01F026FAF6
:103380000028FBD180BD0000B0B58AB00220012129
:10339000FEF720FC10200121FEF728FC40F600403B
:1033A0000121C0F21A00FEF729F940F2004404207E
:1033B00001A90390C020C4F20004ADF8040004F594
:1033C0008630FDF7ABFF07AD2846FFF707F94FF64C
:1033D000FF7029460890002007902046FFF7A8F8C4
:1033E0002046032100220023FEF7A6FE04AD284656
:1033F000FFF712F80A202946ADF818002046FEF71C
:10340000C1FE20460121FEF779FE2046012101225E
:10341000FFF708F820460021FFF788F82046012131
:10342000FEF774FE0AB0B0BDB0B58AB00420012129
:103430000424FEF7CFFB20200121FEF7D7FB4FF439
:1034400080500121FEF7DAF8039440F600044FF4AF
:10345000405001A9C4F20004ADF8040004F5863020
:10346000FDF75CFF07AD2846FFF7B8F84FF6FF7091
:1034700029460890002007902046FFF759F820467B
:10348000032100220023FEF757FE04AD2846FEF775
:10349000C3FF0A202946ADF818002046FEF772FE49
:1034A00020460121FEF72AFE204601210122FEF7D7
:1034B000B9FF20460021FFF739F820460121FEF729
:1034C00025FE0AB0B0BD000048F290120128C4F2F7
:1034D000222203DB0123D361002305E0002300281F
:1034E000D361034618BF01230129936103DB012344
:1034F0001360002205E00023002913600A4618BF6C
:10350000012240F2B0130029C4F222231A6042F6CD
:103510003C4248BF49420028C4F20102918048BFA2
:1035200040421080704700002DE9F04381B0814691
:10353000501E154698460E4682B2581E83B2484623
:10354000FFF726FE464510D2089C00BFA94508D2C9
:103550004F4600BF2046FFF7DFF90137B8B2A84257
:10356000F8D30136B0B24045F0D301B0BDE8F083E6
:1035700010B540F2D400C2F20000006804F0E4FC90
:103580000121FDF791FD40F21000C2F20000006839
:1035900004F0DAFC0221FDF787FD40F2D800C2F208
:1035A0000000006804F0D0FC0321FDF77DFD40F22F
:1035B0001400C2F20000006804F0C6FC0421FDF70C
:1035C00073FD0420FDF724FD002800F08B8043F6F6
:1035D0000001421E00F0030CC4F20101032A04D2D0
:1035E0000020BCF1000F63D17CE040F2A80EA0EBFC
:1035F0000C030020C2F2000E0A8812F0400F0BD11B
:103600000A8812F0400F07D10A8812F0400F03D148
:103610000A8812F0400FEFD01EF800208A8040F098
:10362000010200BF0C8814F0400F0BD10C8814F07D
:10363000400F07D10C8814F0400F03D10C8814F010
:10364000400FEFD01EF802208A8040F0020200BF37
:103650000C8814F0400F0BD10C8814F0400F07D1E8
:103660000C8814F0400F03D10C8814F0400FEFD0F9
:103670001EF802208A8040F0030200BF0C8814F07C
:10368000400F0BD10C8814F0400F07D10C8814F0B8
:10369000400F03D10C8814F0400FEFD01EF8022029
:1036A000043B00F104008A80A6D1BCF1000F19D0C0
:1036B0000A8812F0400F0BD10A8812F0400F07D190
:1036C0000A8812F0400F03D10A8812F0400FEFD0A1
:1036D00040F2A80EBCF1010FC2F2000E1EF800303D
:1036E0008B8000D110BD431C0A8812F0400F0BD113
:1036F0000A8812F0400F07D10A8812F0400F03D158
:103700000A8812F0400FEFD01EF80320BCF1020F20
:103710008A8008BF10BD02300A8812F0400F0BD11A
:103720000A8812F0400F07D10A8812F0400F03D127
:103730000A8812F0400FEFD01EF80000888010BDFC
:103740008842C4BF084670479042B8BF10467047D1
:103750007047000080B56FF00400FEF75BFB40F29D
:103760000C004DF6836140F24A22C2F20000C4F21E
:103770001B31C2F200020068A0FB0101480D10706D
:10378000C1F347504FF47A71484340F24821C2F2E6
:103790000001088080BD000040F24821C2F2000113
:1037A000098841434EF21000CEF200004160002132
:1037B0008160016841F00101016000BF016801F012
:1037C000011101290ED1016801F00111012909D16E
:1037D000016801F00111012904D1016801F0011112
:1037E0000129EBD0016821F0010101600021816015
:1037F0007047000040F24A21C2F2000109784143BB
:103800004EF21000CEF2000041600021816001689C
:1038100041F00101016000BF016801F001110129BF
:103820000ED1016801F00111012909D1016801F0EF
:103830000111012904D1016801F001110129EBD026
:10384000016821F0010101600021816070470000E2
:103850002DE9F04186B004464CF602200DF1020538
:103860000421C0F6E3102A46CDF80200682002F0D9
:10387000ADFAA32014F040066FF05C026FF05C011B
:103880008DF8020018BF6FF03F028DF803206FF033
:103890005C0218BF6FF037028DF804206FF05C02F5
:1038A00018BF6FF03D0214F4C0778DF805206FF05B
:1038B0005C0218BF6FF03B028DF806206FF05C02CF
:1038C00018BF6FF033028DF8072018BF6FF0390171
:1038D0002A468DF808104AF2A331ADF809108DF888
:1038E0000B0040F6A7200A2102F070FA14F003083A
:1038F0006FF027004FF001012A4618BF20208DF8F5
:10390000020040F6B62002F061FA14F0200F0CD14C
:10391000C7208DF8140048F6B000CCF2C3500490D4
:103920004AF6B820CAF6AA200AE05D20059049F6BA
:10393000B400C3F20D5004904AF6B820C8F6B35054
:10394000039003AA4FF49760092102F03FFA1FB3D6
:1039500014F480706FF074010DF1020208BF6FF073
:103960007F0100288DF803104FF0B00141EAD0111B
:103970008DF802104FF0B40141EAD01140F6A220B8
:103980008DF804106FF0640108BF6FF06F018DF8BF
:103990000510042102F01AFAE00708D1D8200DF131
:1039A000020201218DF802004FF40B6051E0F82073
:1039B0000DF1020201218DF802004FF40B6002F0BC
:1039C00005FA0720FA2100F017FB3F2003AA012186
:1039D0008DF80C004FF4A47002F0F8F9002003AA4F
:1039E00001218DF80C0040F24F1002F0EFF94FF476
:1039F000A05003AD0221ADF80C004FF4EF702A4641
:103A000002F0E4F94FF4C84002212A46ADF80C0058
:103A10004FF4ED7002F0DAF948F6006003AA0421D1
:103A2000C9F2F90003904FF4AE7002F0CFF94FF4F1
:103A3000006002212A46ADF80C004FF4AD7002F090
:103A4000C5F94FF4007002212A46ADF80C004FF47E
:103A5000AC7002F0BBF960086C210DF1020261F359
:103A60005F0001218DF8020040F23D7002F0AEF9D6
:103A7000600703AA4FF0040152BF4FF08B304CF2A5
:103A8000C020CCF2C460039040F6982002F09EF96A
:103A900001F066FAE00603AA4FF0040152BF4FF0AE
:103AA000A33042F62000C3F63000039040F69E207B
:103AB00002F08CF901F054FA40F2402144F0080081
:103AC000002EC2F20001088018BF0626002F18BF82
:103AD000063614F0140F18BF46F01006B8F1000FA8
:103AE00018BF043601F03CFA40F24620C2F2000052
:103AF0000670002006B0BDE8F081000048F2B85121
:103B000040F6F6304FF48062C823C0F6000101F0A1
:103B100031B800002DE9F04F89B0DDF848908246B9
:103B2000002014460DF1040B139A88461E46594690
:103B3000A9F8000040F24620C2F20000007801F02F
:103B4000B9F920B14FF0FF3009B0BDE8F08F40F275
:103B50004020C2F20000B0F800C01CF0140F52D098
:103B60009DF805209DF804109DF80630B6469DF896
:103B70000760120442EA016141EA03220914324358
:103B800022609DF809309DF808209DF80A609DF894
:103B90000B501B0443EA026242EA062312142B4331
:103BA0005243636001FB01219DF80D609DF80C30CC
:103BB0009DF80E509DF80F00360446EA036343EA71
:103BC00005261A14304302FB0211A0609DF8116013
:103BD0009DF810009DF812509DF81370360446EAC7
:103BE000006040EA0526001400FB0010374300F196
:103BF0007140E760B0F1007F79D901F0B1F90020A0
:103C0000A9F800009EE700215FEA4C602AD5C8B2FF
:103C100041F0060140F001031BF800201BF80330BF
:103C200043EA022240F00303A8F8002040F0020219
:103C30001BF802201BF8033043EA0222A8F80220F6
:103C400040F0040240F005001BF802201BF80000C1
:103C500040EA0220A8F80400B9F8000040F008008B
:103C6000A9F800001CF4C07F18D0C8B206313BF898
:103C70000020584412BA120CAAF80020428812BA46
:103C8000120CAAF80220808800BA000CAAF80400DE
:103C9000B9F8000040F07000A9F800005FEA8C70ED
:103CA0001ED0C8B20BEB00056878EC7810F0010F5D
:103CB0000CD040F23421C2F200010A6832B104F0A3
:103CC0000701C4F3C200013190476878000707D5A7
:103CD00040F23820C2F20000016809B1A00988470B
:103CE000304600F01DFC002009B0BDE8F08FB9F8A7
:103CF00000001021764640F48070A9F800005FEAC9
:103D00004C603FF584AFADE7B0B584B004460DF12B
:103D1000020000F0EFFD40F23C200C25C2F2000052
:103D2000028802F0030012F0040F05EA520554F86D
:103D3000200018BF4042BDF8021012F0200F4FEAD9
:103D4000C133C2F3811183FB00C054F821106459C0
:103D50004FEA905E4FEA90358DF804E08DF80550FB
:103D60004FEA90158DF8065018BF644212F4807F18
:103D700083FB04E44FEA94558DF808504FEA9435DC
:103D80008DF809504FEA94158DF80A5018BF494232
:103D900083FB0112930D8DF80C30930B8DF80D30D1
:103DA00093098DF80E304FEA9C7343EA80008DF83A
:103DB00007004FEA9E7040EA84008DF80B00880FE0
:103DC0000C2140EA820001AA8DF80F004FF4257003
:103DD00001F0FCFF04B0B0BD10B582B00446C828A5
:103DE00019D8C8206A460221B0FBF4F001388DF8DA
:103DF0000100000A8DF8000040F2162001F0E6FFF5
:103E000048B949F2AE1240F6C1200C21C0F60002BA
:103E100001F0DCFF18B14FF0FF3002B010BD40F2EE
:103E20004420C2F200000480002002B010BD000057
:103E3000F0B581B040F23C214EF209370C26C2F2B7
:103E40000001C0F2CA27098801F0030211F0040F33
:103E500006EA510650F8222018BF52428659C1F393
:103E6000811511F4807F82FB072350F825504FEA1B
:103E700093544FEA93308DF800408DF801004FEADB
:103E800093108DF802004FEA92706A4640EA830070
:103E90008DF8030018BF6D4211F0200F4FF47470BD
:103EA0004FF0040118BF764201F090FFB0B986FBD5
:103EB00007016A46800F40EA8100010C8DF803007B
:103EC0008DF80110010E000A8DF800108DF8020027
:103ED0004FF47570042101F079FF18B14FF0FF30F5
:103EE00001B0F0BD85FB07016A46800F40EA810002
:103EF000010C8DF803008DF80110010E000A8DF8F9
:103F000000108DF802004FF47670042101F05EFF7E
:103F100001B0F0BD10B582B049F2BD110446C0F346
:103F2000C100C0F600010A5C8DF8052004F0030210
:103F30008B5C8DF80430C4F38113C95C8DF80610D6
:103F400049F2BA11C0F600018A5C085C8DF80020C5
:103F50008DF80100C85C01AA03218DF8020040F22F
:103F6000264001F033FF50BB6A4640F22A4003214D
:103F700001F02CFF18BB44F22660C0F266000090EE
:103F800045F23660C0F27600019060071BD4A006AF
:103F900021D4E00505D567208DF8020077208DF843
:103FA000060001AA4FF48860032101F00FFF30B929
:103FB0006A4640F23140032101F008FFA0B14FF002
:103FC000FF3002B010BD27208DF8000037208DF89B
:103FD0000400A006DDD547208DF8010057208DF89C
:103FE0000500E005D7D4DCE740F23C20C2F2000037
:103FF0000480002002B010BD70B582B004460D46AA
:104000004FF0FF30B1F5C86F52D814F007014FD010
:104010000DF1030000F050FC284603F0ADFF002135
:10402000C4F2483103F05EFE05469DF803000238F5
:104030004FEA70024FF0FF30072A39D800264FF0C0
:104040008D41C4F24066DFE802F01504330A3333D1
:10405000331000264FF08C41C4F2C0560AE000260F
:104060004FF08B41C4F2405604E000264FF08A41E5
:10407000C4F2C046284603F0FBFF03F045FF8DF86D
:104080000500000A31468DF80400284603F0F0FFD1
:1040900003F03AFF8DF80700000A8DF8060001A82A
:1040A000851CE00706D1A00713D4600720D40020A8
:1040B00002B070BD01AA4FF4EA70022101F086FE41
:1040C00028BB4FF4927002212A4601F07FFEF0B91E
:1040D000E9E701AA4FF4EC70022101F077FEB0B9D4
:1040E0004FF4947002212A4601F070FE78B9DCE7A3
:1040F00001AA4FF4EE70022101F068FE38B94FF4C6
:10410000967002212A4601F061FE0028CFD04FF0C0
:10411000FF3002B070BD000043F60001C4F201019F
:104120000A8812F0400F0BD10A8812F0400F07D115
:104130000A8812F0400F03D10A8812F0400FEFD026
:10414000C2B28A80704700002DE9F04F83B040F280
:1041500018070546012016460C466B46ADF80000D0
:10416000C2F20007D7E90002817C10780222FEF734
:1041700037FB10B14FF0FF378CE1C820FFF70CFB85
:1041800000206B468DF80000D7E90002C17B107853
:104190000122FEF725FB10B14FF0FF377AE1D7E996
:1041A00000026B46417910780122FEF719FB10B12D
:1041B0004FF0FF376EE1D7E900026B46817C107843
:1041C0000122FEF70DFB10B14FF0FF3762E1D7E996
:1041D00000026B46C17D10780122FEF701FB10B191
:1041E0004FF0FF3756E1D7E900026B4601791078AE
:1041F0000122FEF7F5FA10B14FF0FF374AE10C202B
:104200006B468DF80000D7E9000201791078012291
:10421000FEF7E6FA10B14FF0FF373BE10F20FFF752
:10422000BBFAD7E90010BA6A6B46527A8DF80020C3
:10423000012200788978FEF7D3FA10B14FF0FF37EA
:1042400028E1D7E90010BA6A6B46127A8DF800208F
:10425000012200784978FEF7C3FA10B14FF0FF371A
:1042600018E1D7E90010BA6A002E6B46927A18BF9F
:1042700042F0E0028DF80020012200788979FEF7F3
:10428000AFFA10B14FF0FF3704E1002E6B460FBFBD
:104290001820B86AC07A60F01F008DF80000D7E9D6
:1042A0000002C17910780122FEF79AFA10B14FF09E
:1042B000FF37EFE016B1C820FFF76EFA40206B46DB
:1042C0008DF80000D7E90002017910780122FEF78D
:1042D00087FA10B14FF0FF37DCE078206B468DF89D
:1042E0000000D7E90002417910780122FEF778FA40
:1042F00010B14FF0FF37CDE03220FFF74DFA00202C
:104300006B468DF80000D7E9000241791078012250
:10431000FEF766FA10B14FF0FF37BBE0D7E90002B5
:104320006B46817A10780222FDF7D0FC10B14FF075
:10433000FF37AFE09DF800009DF801100022C5E9AD
:104340000022AA60C4E90022A26041EA00204AF6E5
:10435000AB21CAF6AA21A0FB0101C1F3C709B9F13B
:10436000000F39D00026E846D7E900024346C17A5B
:1043700010780C22FDF7AAFC002840F08980BDF8D7
:10438000000094E80E00013600BA01EB204CBDF8A5
:104390000410BDF8020000BA09BA02EB204003EB9A
:1043A0002141C4E900C0A16095E80700BDF80630CE
:1043B0001BBA00EB234ABDF80830BDF80A001BBA4F
:1043C00000BA01EB234BF1B202EB20408945C5E96D
:1043D00000ABA860C8D802E0D5E900ABA868C11757
:1043E000832200230027090441EA10410004FBF75F
:1043F00020FF4A460023FBF71CFFA8604FEAEB7042
:1044000083220023000440EA1B414FEA0B40FBF7E4
:1044100010FF4A460023FBF70CFF68604FEAEA7082
:1044200083220023000440EA1A414FEA0A40FBF7C6
:1044300000FF4A460023FBF7FCFE28604A460023A3
:10444000D4E90060A568C117490141EAD061400183
:10445000FBF7EFFE6060F0174A460023400140EA98
:10446000D6617001FBF7E5FE2060E8174A4600239D
:10447000400140EAD5616801FBF7DBFE4FF4803173
:104480000028C4BF0021CFF6FF710844A06001E0FE
:104490004FF0FF37384603B0BDE8F08F80B582B0EB
:1044A0004FF4FA3001F03EFDFEF734FDFEF7EAFB73
:1044B000FEF7C6FB4FF6FF700021F022F0230090BC
:1044C0000020FFF731F8FEF733FEFEF7A9FEFEF7F6
:1044D00051FFFEF759FFFEF7A7FF02B0BDE880408D
:1044E000FEF76CBB80B54FF4A060FDF75FFBFDF7F6
:1044F0009FFCFFF72FF90220FDF7C0FA0120FDF71E
:10450000BDFAFFF7CBFFFEF711FA00BF3220FFF72D
:1045100043F9FFF72DF83220FFF73EF9F6E70000E8
:104520007047000070B582B040F21805C2F2000575
:1045300095F8241019B10024204602B070BDA97A64
:1045400021B300F0FE002E7C01400C1A297418BF24
:104550004FF0FF34E8B1687C80B901200DF107030A
:104560008DF80700D5E90002C17B10780122FEF723
:1045700037F9002804BF9DF80700687400F0F0FCCC
:1045800000281CBF2E744FF0FF34D5E74FF0FF34E6
:10459000D2E7287DA0B1687C0028CDD101200DF1A3
:1045A00005038DF80500D5E90002C17B10780122D2
:1045B000FEF716F90028BFD19DF805006874BBE727
:1045C00000200DF106038DF80600D5E90002C17B3D
:1045D00010780122FEF704F90028ADD19DF80600FD
:1045E0006874A9E72DE9F04F8DB040F252240546DA
:1045F0000DF12F000F4640F22421164607AA0CABFE
:10460000C2F20004C2F20001CDE9004040F24C20A9
:10461000C2F20000FFF77EFA08B10120D1E0607815
:10462000C00701D10220CCE0DDE90704069605971A
:10463000099E0A9F03F088FC4FF0425103F018FDD9
:104640008046204603F080FC4FF0425103F010FDFD
:104650008146304603F078FC4FF0425103F008FDEC
:104660000446384603F070FC4FF0425103F000FD61
:10467000064648464FF0404103F0FAFC3146824678
:10468000039603F0F5FC074640464146CDF81080FE
:1046900003F066FA2146804603F0EAFC394603F04F
:1046A0005FFA03F031FA02F0D5F84AF266634FF090
:1046B0006632C4F24C0302F04DFF02F00FFC28609A
:1046C0002046214603F04CFA3146834603F0D0FCE5
:1046D00005464046494603F0CBFC294603F040FA24
:1046E00003F012FA05460F464846514603F0C0FC57
:1046F00006462046594603F0BBFC0146304603F00F
:1047000083FD4FF07E5103F02BFA03F0FDF90246D2
:104710000B462846394602F0E5FA4AF2666A4FF03F
:104720006632C4F24C0A534602F014FF02F0D6FB84
:10473000059908604846214603F09AFC039F049EB1
:1047400005463046394603F093FC0146284603F0FF
:1047500007FA014603F004FA03F0D6F90546884645
:104760003046314603F084FC06464846494603F08D
:104770007FFC0146304603F0F3F906462046214609
:1047800003F076FC0146304603F03EFD0446384611
:10479000394603F06DFC0146204603F035FD03F079
:1047A000B3F902460B462846414602F09BFA4FF009
:1047B0006632534602F0CEFE02F090FB0699086086
:1047C0000020C0B20DB0BDE8F08F000070B582B01F
:1047D000FCF75CFF00F0BCF808B10A205FE078202D
:1047E00001F078FA10F0FF0F01D0012057E040F2FD
:1047F0001804C2F2000494F8240038B1642001F0D7
:10480000F9F910F0FF0F20D0032048E0A07A18B388
:1048100000F07806257C2674607C80B901200DF1BB
:1048200007038DF80700D4E90002C17B107801224C
:10483000FDF7D6FF002804BF9DF80700607400F064
:104840008FFB98B12574022029E0FFF757F910F08B
:10485000FF0F03D0042022E0022020E08820FFF791
:1048600059FB10F0FF0F05D0052018E0782EC5D0B9
:10487000022014E040F27310FEF7EAFF10F0FF0F81
:1048800001D006200BE06420FFF7A6FA10F0FF0F1E
:1048900001D0072003E001F0CDFA18B10820C0B222
:1048A00002B070BD012001F02DF9C0B2002818BF80
:1048B000092002B070BD000040F21801C2F20001F0
:1048C0004A7A032A84BF4FF0FF30704740F2024318
:1048D000D200C1F20803D3400370C97C002904BF91
:1048E0000020704740F60401C2F21001D14001706F
:1048F0000020704780B540F2180CC2F2000C9CF802
:104900000910032984BF4FF0FF3080BD4FF4005ED3
:104910004FF48043DFE801F01002070C40F6CE7E32
:1049200041F69C7308E04FF4006E4FF4805303E0AF
:104930004FF4806E4FF4006303809CF8131000293D
:1049400004BF002080BDA0F800E0002080BD000072
:1049500010B584B040F2180480200DF107038DF8E3
:104960000700C2F20004D4E90002817C1078012221
:10497000FDF736FF10B14FF0FF341EE06420FEF764
:104980000BFF00200DF107038DF80700D4E90002AA
:10499000817C10780122FDF723FF10B14FF0FF3426
:1049A0000BE0D4E900020DF10703817D10780622A7
:1049B000FDF78CF920B14FF0FF34204604B010BD54
:1049C0009DF80C209DF8080004239DF80A1003EAC6
:1049D000820200F0010061F34102104307D000F0B1
:1049E000070101292BD002290ED1002028E0D4E9AB
:1049F00000020DF10703C17810780122FDF766F976
:104A000048B14FF0FF34D8E7C1B248A0FBF736FCFD
:104A10004FF0FF34D1E79DF8070000F00F000428A5
:104A20000AD00028E1D149F2F010C0F60000FBF7EF
:104A30005DFD4FF0FF34C0E746A0FBF757FD0120B6
:104A40004FF6FF710DF10D03E181E074FF2020743A
:104A5000A0744FF0FF30A0600120207384F8220082
:104A600000202084C4E90500E06184F82700C4F830
:104A7000230018208DF80D00D4E900028179107808
:104A80000122FDF7ADFE10B14FF0FF3495E79DF820
:104A90000D00C0082072A07A70B100208DF80E00C1
:104AA000607A90B1D4E900020DF10E03C17910785B
:104AB0000122FDF795FE10B14FF0FF347DE79DF820
:104AC0000E00C0086072A07A78B103208DF80F0044
:104AD000E07A03280FD0D4E900020DF10F038178AA
:104AE00010780122FDF77CFE10B14FF0FF3464E72F
:104AF0009DF80F00E072322001F07CF810B14FF009
:104B0000FF345AE70020FFF70DFD10B14FF0FF34DE
:104B100053E7002000F082FF10B14FF0FF344CE764
:104B20000020002401F0D6F847E700BF556E7375EA
:104B300070706F7274656420736F667477617265EC
:104B40002070726F64756374207265762025642E00
:104B50000A00000048616C662073656E73697469B1
:104B600076697479207061727420666F756E642E38
:104B7000000000002DE9F04F8BB0074688464FF04B
:104B8000FF30002900F0958040F21809C2F20009B8
:104B900099F82510002940F08C80002FCDE90132D2
:104BA0006BD000204FF0000AA7EB000B08EB0001D0
:104BB000BBF1100FA8BF4FF0100B002905916CD06E
:104BC00099F80A00002868D04FEA1A208DF82BA027
:104BD0001FFA8BF58DF82A005FFA8AF02E18CAF3B7
:104BE00007200490D9F8040041898E4255D8D9F89D
:104BF0000010007802220DF12A03097EFDF7F0FD76
:104C00004C46002849D1039545465FFA8BF8D4E914
:104C10000002059B417D10784246FDF7E1FDE0BBB7
:104C2000A07A2246C8B304988DF82BA08DF82A00EC
:104C3000506841898E4230D81168007802220DF107
:104C40002A03097EFDF7CCFD494630BBD1E90002BD
:104C50000DF11A042346417D10784246FDF736F8DF
:104C6000D8B90598039A2146FBF756FC20BBDA44D5
:104C7000A8461FFA8AF0B84296D302980DF12A038B
:104C80008DF82B00000A8DF82A00D9E90002817EF8
:104C900010780222FDF7A4FD20B14FF0FF300BB0D9
:104CA000BDE8F08F0198A9F82600012089F82500B9
:104CB00000200BB0BDE8F08F6FF001000BB0BDE835
:104CC000F08F000070B582B00446282802D94FF05A
:104CD000FF34EBE040F21805002CC2F2000545D08D
:104CE00095F82300012820D0A87C95F822103222C4
:104CF000002808BF302200298DF8032007D06FF06C
:104D00004D01002808BF6FF04F018DF80310D5E961
:104D100000020DF103030126017D10780122FDF749
:104D20005FFD002808BF85F823602020012C8DF846
:104D300000004FD100208DF80100A87A002800F073
:104D4000998006208DF80400E87A062800F0928009
:104D5000D5E9000201AB817810780122FDF740FD12
:104D6000002840F087809DF8040082E095F8230039
:104D700000B3A87C95F822100028024618BF022232
:104D800000298DF8022007D06FF07D01002808BFB0
:104D90006FF07F018DF80210D5E900020DF10203DA
:104DA000017D10780122FDF71BFD002804BF0020C3
:104DB00085F823004FF4E0606B46ADF80000D5E9BC
:104DC0000002817C10780222FDF70AFDB8B34FF093
:104DD000FF346BE0052C18D801208DF80100A87A6B
:104DE000002847D006208DF80500E87A062841D033
:104DF000D5E900020DF10503817810780122FDF755
:104E0000EFFCB8BB9DF8050033E0142C1AD8022043
:104E10008DF80100A87A68B305208DF80600E87ABD
:104E2000052827D0D5E900020DF106038178107816
:104E30000122FDF7D5FCE8B99DF8060019E0002431
:104E40002C7533E003208DF80100A87A90B104207E
:104E50008DF80700E87A04280CD0D5E900020DF19E
:104E60000703817810780122FDF7BAFC10B99DF88C
:104E70000700E8729DF8010007216B4641EA8010A7
:104E80008DF80100D5E90002817C10780222FDF73F
:104E9000A7FC10B14FF0FF3408E0002408202C7369
:104EA000A872012028750020FFF73CFB204602B0C5
:104EB00070BD00002DE9F04182B040F218070E46A7
:104EC000054614464FF0FF30C2F2000797F8241051
:104ED000D9B3B97AC9B3D7E900020DF10603817AD3
:104EE00010780222FCF7F2FE28BB9DF806009DF820
:104EF000071041EA0028A84502D2002020701AE0DD
:104F000078684188B8EB510F0DD9396800780DF1F8
:104F100006030122497CFCF7D9FE60B99DF8060022
:104F2000C00615D4786839680078EAB23346C97A81
:104F3000FCF7CCFE20B14FF0FF3002B0BDE8F081AD
:104F4000B8FBF5F001382070002002B0BDE8F08118
:104F500000F006F86FF0010002B0BDE8F08100003B
:104F600010B582B040F21804C2F20004A07A00B377
:104F700000200DF107038DF80700D4E90002C17B82
:104F800010780122FDF72CFC98B9D4E900020DF14C
:104F90000703417910780122FDF722FC48B9D4E9D2
:104FA00000020DF10703017910780122FDF718FCCA
:104FB00018B14FF0FF3002B010BD94F82400002863
:104FC00041D00C200DF107038DF80700D4E9000251
:104FD000017910780122FDF703FC0028E9D1322085
:104FE000FEF7DAFBA07AC0210DF1070341EA401079
:104FF0008DF80700D4E90002017910780122FDF74D
:10500000EFFB0028D5D1607C0DF10703002818BF05
:1050100002208DF80700D4E90002C17B107801223C
:10502000FDF7DEFB0028C4D100200DF107038DF849
:105030000700D4E90002417910780122FDF7D0FB86
:105040000028B6D142E004200DF107038DF80700D7
:10505000D4E90002017910780122FDF7C1FB002894
:10506000A7D1A17C40200DF10703002904BFA17A3C
:1050700061F345108DF80700D4E90002017910783A
:105080000122FDF7ADFB002893D13220FEF784FB0F
:10509000607C0DF10703002818BF01208DF8070080
:1050A000D4E90002C17B10780122FDF799FB0028AA
:1050B0007FF47FAFD4E9000204F110034179107846
:1050C0000122FDF78DFB00287FF473AF002002B0B2
:1050D00010BD00002DE9F04F8FB040F2180A834652
:1050E0008946C2F2000A9AF8240028B1002000F094
:1050F00009FD4FF0010801E04FF000089AF80800A0
:10510000032807D8FA22DFE800F00C02070A4FF460
:10511000FA7206E0002204E04FF47A7201E04FF4E4
:10512000FA629AF90900069203280ED89AF8133009
:105130000FF6D8020FF6C40102EB8002002B08BF65
:1051400001EB80021068023801E06FF00100059069
:105150009AF80B000138052808D8BC210791DFE830
:1051600000F00F0307090B0D622008E0002006E0A5
:105170002A2004E0142002E00A2000E00520079025
:105180009AF80A709AF81060BAF80E4058464946E4
:105190000022FEF7D9FF40B15846494600220025BB
:1051A000FEF7D2FF002840F080830BA808A9012257
:1051B000CDF810B0FEF7C8FF38B10BA808A901223E
:1051C000FEF7C2FF08B100256FE3CDE901760EAB13
:1051D0000D210422CDF80C80DAF804000078FCF7E9
:1051E00075FD002800942AD0D9F800000899401ACB
:1051F00048BF404202F0A8FE4FF05E5102F038FF77
:1052000004462846002102F037FD002846D12046FA
:10521000294602F067FD0021CBF6807102F0A0FC68
:1052200020F0004045F62941C3F60F6102F040FD31
:1052300000280CBF4FF001084FF0000842E09DF835
:105240003B309DF839109DF83A201C269DF8380017
:1052500006EAD20B06EAD101C3F3810206EAD000C6
:1052600003F0030441EA0207C3F30111014300F014
:10527000E380A1F1010818F0FF0F00F0F28018F0B0
:105280000302A1F1020000F0F580012A40F0FB804A
:105290004FF6AD758046C3F6B36503E149F69A1142
:1052A0002046C3F6996102F00AFD43F23331054608
:1052B0002046C3F6737102F0EDFC55EA000818BFF2
:1052C0004FF00108D9F804000999401A48BF40423C
:1052D00002F03AFE4FF05E5102F0CAFE054630463B
:1052E000002102F0C9FCA8B92846314602F0FAFCB8
:1052F0000021CBF6807102F033FC20F0004045F62F
:105300002941C3F60F6102F0D3FC002808BF48F022
:10531000020815E043F233312846C3F6737102F0F8
:10532000B9FC49F69A11002848F002042846C3F651
:10533000996118BFA04602F0C2FC002818BFA04621
:10534000D9F808000A99401A48BF404202F0FCFD13
:105350004FF05E5102F08CFE04463846002102F008
:105360008BFC98B92046394602F0BCFC0021CBF6F4
:10537000807102F0F5FB20F0004045F62941C3F6AC
:105380000F6102F087FC0446002810E049F69A11EC
:105390002046C3F6996102F092FC43F23331054690
:1053A0002046C3F6737102F075FC55EA000418BF7D
:1053B0000124DAF804000EAB0D2103220078FCF77B
:1053C00085FC002C18BF48F0040808B107275EE2EE
:1053D0009DF838009DF839109DF83A2000F01F051F
:1053E00001F01F0B02F01F0404980B998DF8385040
:1053F0008DF839B08DF83A400068401A48BF4042F5
:1054000002F0A2FD4FF05E5102F032FE0646ADB151
:105410006F1E17F0FF0F8DF8387027D017F00301BB
:10542000A5F102002BD0012940F0818043F23331F5
:105430000746C4F2D11188E000254EE00021304635
:10544000C4F2201102F03BFC002105463046C4F2B4
:10545000D22102F01FFC55EA000718BF0127049D66
:10546000A4E041F27B45C3F6AE6536E00021C4F20C
:10547000C81186E041F27B45C3F6AE6512E000211B
:10548000C4F2C81161E047F25E25A1F10408022AC6
:10549000C3F6C06508BFA1F1030804BF41F6636508
:1054A000C3F6BA65C0B2032817D345F61D26C3F666
:1054B000847600BF2846314602F0DAFD314602F01C
:1054C000D7FD314602F0D4FD314602F0D1FDA8F1FE
:1054D0000408054618F0FF0FECD14BEA04088FB121
:1054E0007C1E14F0FF0F14D014F00301A7F102008A
:1054F00018D0012940F09B804FF6AD760446C3F6E4
:10550000B366A1E00026B8F1000F40F0BB80002791
:105510006AE641F27B46C3F6AE66B8F1000F40F092
:10552000B180F4E741F27B46C3F6AE668CE0022917
:105530004EF29A31A5F10407C4F2E41108BFEF1E40
:1055400004BF4DF2BD21C4F2DA11C0B2032815D355
:105550004EF25435C3F685750846294602F088FD9B
:10556000294602F085FD294602F082FD294602F017
:105570007FFD043F014617F0FF0FEDD100208DF8AD
:105580003800304602F0AEFB0021CBF6807102F00D
:10559000E7FA20F0004045F62941C3F60F6102F01A
:1055A00087FB049D00280CBF0127002768680C9921
:1055B000401A48BF404202F0C7FC4FF05E5102F073
:1055C00057FD0646BBF1000F13D0ABF1010919F0EE
:1055D000FF0F8DF8399022D019F00301ABF10200D2
:1055E00021D001296BD143F233318146C4F2D1116C
:1055F00074E000213046C4F2D22102F04BFB0021BE
:10560000002847F002053046C4F2201118BF2F468B
:1056100002F055FB002818BF2F46049D91E00021A1
:10562000C4F2C81179E00021C4F2C81156E047F273
:105630005E263C1F0229C3F6C06608BFFC1E04BFDD
:1056400041F66366C3F6BA66C0B2032816D345F6C0
:105650001D27C3F6847700BF3046394602F008FDA7
:10566000394602F005FD394602F002FD394602F0E6
:10567000FFFC043C064614F0FF0FEDD1B8F1000F1B
:105680003FF445AFA8F1010414F0FF0F0DD014F062
:105690000301A8F102000DD0012940F08F804FF6E0
:1056A000AD770446C3F6B36797E041F27B47C3F694
:1056B000AE6799E541F27B47C3F6AE678DE00229FC
:1056C0004EF29A31ABF10409C4F2E41108BFABF118
:1056D000030904BF4DF2BD21C4F2DA11C0B20328A0
:1056E00017D34EF25435C3F6857500BF08462946D8
:1056F00002F0BEFC294602F0BBFC294602F0B8FCD1
:10570000294602F0B5FCA9F10409014619F0FF0F82
:10571000ECD1049D00208DF83900304602F0E2FA09
:105720000021CBF6807102F01BFA20F0004045F614
:105730002941C3F60F6102F0BBFA002808BF47F009
:105740000207A8680D99401A48BF404202F0FCFBCE
:105750004FF05E5102F08CFC814694B1661E16F04B
:10576000FF0F8DF83A6021D016F00301A4F102007A
:1057700020D001294DD143F233310646C4F2D11174
:1057800055E000214846C4F2D22102F083FA0021FC
:10579000002847F004054846C4F2201118BF2F46E0
:1057A00002F08DFA002818BF2F4670E00021C4F2E5
:1057B000C81158E00021C4F2C81138E047F25E2752
:1057C000A8F104040229C3F6C06708BFA8F10304C6
:1057D00004BF41F66367C3F6BA67C0B20328FFF49B
:1057E00003AD45F61D28C3F6847800BF3846414610
:1057F00002F03EFC414602F03BFC414602F038FC20
:10580000414602F035FC043C074614F0FF0FEDD191
:10581000EAE402294EF29A31A4F10406C4F2E4113A
:1058200008BFE61E04BF4DF2BD21C4F2DA11C0B2BA
:10583000032815D34EF25435C3F68575084629461C
:1058400002F016FC294602F013FC294602F010FC77
:10585000294602F00DFC043E014616F0FF0FEDD183
:1058600000208DF83A00484602F03CFA0021CBF6C1
:10587000807102F075F920F0004045F62941C3F629
:105880000F6102F015FA002808BF47F004075FEA2D
:105890000860F8B2B0FA80F04FEA501508BF45F042
:1058A0000205DDE90268DDE90047FF208AF8100003
:1058B0004FF6FF70AAF80E004FF0FF30CAF808004C
:1058C00001208AF80C0006986FF3DF20B0F57A7F8C
:1058D00006DAFA280AD0B0F5FA7F1ED1082008E0CF
:1058E00006D0B0F5FA6F18D1182002E0002000E0D1
:1058F00010208DF838000EABDAE9000281791078BB
:105900000122FCF76DFF20B99DF83800C0088AF825
:1059100008009AF80A0000285CD005984FEA700049
:1059200007282AD8DFE800F00408290D29292912C0
:1059300000208DF838000DE008208DF83800012097
:1059400008E010208DF83800022003E018208DF8C0
:10595000380003209AF80910C0B281420DD0DAE96C
:1059600000020EABC17910780122FCF739FF20B993
:105970009DF83800C0088AF809009AF80A0048B370
:105980000798BC2801D301200FE0622801D3022030
:105990000BE02A2801D3032007E0142801D30420B8
:1059A00003E00A2834BF062005209AF80B108DF872
:1059B0003800C0B281420DD0DAE900020EAB817826
:1059C00010780122FCF70CFF002804BF9DF8380076
:1059D0008AF80B00204600F00DF9384600F07AF9FD
:1059E0003046FEF79FFDB8F1000F02D0012000F015
:1059F00089F828460FB0BDE8F08F00BF0200000014
:105A00000400000008000000100000000400000076
:105A1000080000001000000020000000B0B582B0B7
:105A200040F218050446C2F20005A87CA04202D14B
:105A3000002002B0B0BDD5E900020DF107030179E5
:105A400010780122FCF742F98CB3002846D19DF86A
:105A500007000DF1070300F0DF008DF80700D5E91E
:105A60000002017910780122FCF7BAFEB0BB0320D6
:105A7000FDF792FE95F8221095F823206FF07D0037
:105A8000002908BF0220002A8DF8070003D040F04B
:105A900030008DF80700D5E900020DF10703017D04
:105AA00010780122FCF79CFEC0B9AC74C0E7A8B91D
:105AB000A87A9DF807100DF1070341F0200210F0BD
:105AC000010F08BF01F0DF028DF807200122D5E9A0
:105AD000001000780979FCF783FE18B14FF0FF3011
