:020000040800F2
:1000000090070020CD01000869060008610600087D
:10001000650600087D020008FD0A000800000000D7
:10002000000000000000000000000000DF010008E8
:100030008102000800000000E3010008E50100085B
:10004000E7010008E7010008E7010008E7010008F0
:10005000E7010008E701000885020008E701000841
:10006000E7010008E7010008E7010008E7010008D0
:10007000E7010008E7010008E7010008E7010008C0
:10008000E7010008E7010008E7010008E7010008B0
:10009000E7010008E7010008E7010008E7010008A0
:1000A000E7010008E7010008E7010008E701000890
:1000B000E7010008E701000835090008E70100082A
:1000C000E7010008E7010008E7010008E701000870
:1000D000E7010008450A0008E7010008E7010008F9
:1000E000E7010008E7010008E7010008E701000850
:1000F000E7010008E7010008E7010008E701000840
:10010000E7010008E7010008E7010008E70100082F
:10011000E7010008E7010008E7010008E70100081F
:10012000E7010008E7010008E7010008E70100080F
:1001300000F002F800F03AF80AA090E8000C8244BF
:100140008344AAF10107DA4501D100F02FF8AFF29C
:10015000090EBAE80F0013F0010F18BFFB1A43F0A5
:1001600001031847D45F0000F45F0000103A24BF79
:1001700078C878C1FAD8520724BF30C830C144BF0C
:1001800004680C607047000000230024002500264E
:10019000103A28BF78C1FBD8520728BF30C148BFEA
:1001A0000B6070471FB51FBD10B510BD00F033F8D0
:1001B0001146FFF7F7FF02F049FD00F051F803B4D4
:1001C000FFF7F2FF03BC02F0B9FC000009488047CA
:1001D00009480047FEE7FEE7FEE7FEE7FEE7FEE729
:1001E000FEE7FEE7FEE7FEE704480549054A064B41
:1001F00070470000DD070008310100089001002071
:100200009007002090030020900300207047704763
:10021000704770477047754600F02CF8AE460500F1
:100220006946534620F00700854618B020B5FFF711
:10023000DBFFBDE820404FF000064FF000074FF015
:1002400000084FF0000BAC46ACE8C009ACE8C009B0
:10025000ACE8C009ACE8C00921F007018D46704741
:1002600010B50446AFF300802046BDE81040FFF70C
:10027000A6BF00000048704710000020FEE7000005
:100280007047000080B5012000F020F841F2000026
:100290000121C4F2010000F0D9F9002818BF80BD87
:1002A00040F26C10C2F200000168022907D0012957
:1002B00008D0002902BF0121016080BD80BD00215E
:1002C000016080BD0221016080BD000040F2144148
:1002D000C4F2010108607047C26840F20041C4F2F4
:1002E0000101F2B102680B6893430B604B689343C2
:1002F0004B60D0F804C05CF801301A434CF8012080
:1003000002688B6893438B60CB689343CB608068B3
:1003100010280DD1886810438860C8681043C860F1
:100320007047D0E90020435823EA02024250704748
:1003300043581A434250704780B50C2240F2080ED1
:100340000F2302EA810201F0FC01C4F2010E03FA5C
:1003500002FC51F80E30904023EA0C0341F80E30B5
:1003600051F80E20104341F80E0080BD80B5D1F841
:1003700008E00EF00F0C1EF0100F1CBF4B684CEA8B
:10038000030C098811F0FF0F00F0A4800368CA076E
:100390000BD023F00F02BEF1480F42EA0C0315D038
:1003A000BEF1280F01D1012242618A0712D523F044
:1003B000F002BEF1280F42EA0C131CD0BEF1480F28
:1003C00008D1022202614A0706D418E00122026124
:1003D0008A07ECD44A0712D523F47062BEF1280FC5
:1003E00042EA0C231CD0BEF1480F08D1042202615E
:1003F0000A0719D505E0022242614A07ECD40A0730
:1004000012D523F47042BEF1280F42EA0C331CD0FF
:10041000BEF1480F08D108220261CA0606D418E0CE
:10042000042242610A07ECD4CA0612D523F47022D2
:10043000BEF1280F42EA0C431CD0BEF1480F08D190
:10044000102202618A0619D505E008224261CA0617
:10045000ECD48A0612D523F47002BEF1280F42EACA
:100460000C531CD0BEF1480F08D1202202614A066D
:1004700006D418E0102242618A06ECD44A0612D54E
:1004800023F07062BEF1280F42EA0C631AD0BEF16D
:10049000480F08D1402202610A061AD505E0202241
:1004A00042614A06ECD40A0613D523F07042BEF12D
:1004B000280F42EA0C730AD0BEF1480F09D18022FE
:1004C000026106E0402242610A06EED401E0802289
:1004D00042610360B1F5807F38BF80BD4368CA05C3
:1004E0000CD523F00F02BEF1480F42EA0C0317D0DF
:1004F000BEF1280F02D14FF4807242618A0514D5F3
:1005000023F0F002BEF1280F42EA0C131FD0BEF117
:10051000480F0AD14FF4007202614A0507D41BE06C
:100520004FF4807202618A05EAD44A0514D523F497
:100530007062BEF1280F42EA0C231FD0BEF1480FB3
:100540000AD14FF4806202610A051CD506E04FF41F
:10055000007242614A05EAD40A0514D523F47042B8
:10056000BEF1280F42EA0C331FD0BEF1480F0AD16A
:100570004FF400620261CA0407D41BE04FF48062AA
:1005800042610A05EAD4CA0414D523F47022BEF1EC
:10059000280F42EA0C431FD0BEF1480F0AD14FF496
:1005A000805202618A041CD506E04FF40062426169
:1005B000CA04EAD48A0414D523F47002BEF1280FC9
:1005C00042EA0C531FD0BEF1480F0AD14FF400523B
:1005D00002614A0407D41BE04FF4805242618A044E
:1005E000EAD44A0414D523F07062BEF1280F42EA1F
:1005F0000C631ED0BEF1480F0AD14FF48042026155
:1006000009041BD506E04FF4005242614A04EAD4C3
:10061000090413D523F07041BEF1280F41EA0C7391
:100620000ED0BEF1480F09D14FF400410161436083
:1006300080BD4FF4804242610904EBD4436080BD29
:100640004FF400414161436080BD00008068084074
:1006500018BF012070470000416170470161704779
:10066000FEE70000FEE700007047000042684EF21F
:100670000011CEF20001EAB110B54EF60C5207237C
:10068000CEF20002126890F801E0847890F800C081
:1006900023EA12220F23D340C2F1040223400EFAB0
:1006A00002F21A4301EB0C03120183F80023BDE8A8
:1006B000104000E080310078012300F01F02C0F3F9
:1006C000421003FA02F241F82020704740F08060A7
:1006D0004EF60C5140F0FD70CEF2000108607047FC
:1006E00041F21C020029C4F2020211680CBF21EA87
:1006F000000008431060704741F218020029C4F25C
:10070000020211680CBF21EA000008431060704724
:1007100080B541F2040EC4F2020EDEF8002002F0B1
:100720000C0341F20022C0F27A02082B1FD1DEF83E
:100730000030C3F3834303F1020CDEF8003013F4FE
:10074000803F06D140F60012C0F23D020CFB02F2DF
:100750000DE0DEF8003013F4003F02D10CFB02F292
:1007600005E040F60012C0F23D020CFB02F202600E
:1007700042F62451DEF80030C0F60001C3F3031343
:10078000CB5CDA404260DEF80030C3F30223CB5C7E
:1007900022FA03F38360DEF80030C3F3C223C95C9E
:1007A00042F62053C0F6000322FA01F1C160DEF8E0
:1007B0000020C2F381329A5CB1FBF2F1016180BD8D
:1007C0004EF210010428CEF200010A6822F0040360
:1007D00008BF42F004030B607047000082B041F292
:1007E00004000022C4F20200CFF6FF0250F8041CFD
:1007F00041F0010140F8041C016811404FF6FF72FE
:100800000160CFF6F66250F8041C114040F8041C59
:1008100050F8041C21F4802140F8041C016821F4E4
:10082000FE0101604FF41F01416000210191009120
:1008300050F8041C41F4803140F8041C50F8041CAA
:1008400001F400310091019901310191009919B928
:100850000199B1F5A06FF1D150F8041C11F4003FDB
:100860000CBF0021012100910099012958D1D0F835
:10087000FC1F41F01001C0F8FC1FD0F8FC1F21F054
:100880000301C0F8FC1FD0F8FC1F41F00201C0F8C2
:10089000FC1F0168016001680160016841F480612A
:1008A0000160016821F47C110160016841F4E811E4
:1008B000016050F8041C41F0807140F8041C00BF36
:1008C00050F8041C11F0007F0ED150F8041C11F0F8
:1008D000007F09D150F8041C11F0007F04D150F8BA
:1008E000041C11F0007FEBD0016821F003010160CE
:1008F000016841F002010160016801F00C01082962
:100900000ED0016801F00C01082909D0016801F03E
:100910000C01082904D0016801F00C010829EBD171
:100920004EF608504FF00061CEF20000016002B0B8
:100930007047000010B540F600040121C4F2000425
:10094000204600F017F8012818BF10BD20460121ED
:10095000BDE81040AFF30080C9430182704700003A
:100960000288002942F0010308BF22F0010303803E
:1009700070470000028A0A4018BF0122808908409F
:1009800018BF012010407047002A82890CBF22EA5C
:10099000010111438181704740F6FF33B0F800C078
:1009A000C4F2000398420FDCB0F1804F1ED040F239
:1009B0000043C4F20003984218D040F60003C4F28A
:1009C0000003984212D016E040F60043C4F2000340
:1009D00098420BD043F20043C4F20103984205D081
:1009E00042F60043C4F20103984204D14B882CF034
:1009F000700243EA020C41F2004240F48063C4F208
:100A00000002934204D0CB882CF4407243EA020CDB
:100A1000A0F800C08A8882850A880285A0F18042F9
:100A2000A2F596324FEAB222072A07D8012303FA29
:100A300002F212F0E50F1CBF097A018601218182C2
:100A40007047000010B543F6000440F22551C4F28F
:100A50000104204600F02CF808B3204600F04AF8C4
:100A600040F24C11C2F200010A8812F4004F18BF84
:100A700010BDC3B2540413D40D2B02BF42F4804006
:100A8000088010BD40F28404531C6FF39F32C2F201
:100A90000004A05498B2C72888BF00230B8010BD63
:100AA0000A2B14BF002042F40040088010BD000053
:100AB00001F01F02012303FA02F2C1F34213022BD9
:100AC00006D0012B14BF00F1140300F10C0301E068
:100AD00000F110031B88090A1A404FF0010318BFE8
:100AE0000122008803FA01F1084018BF01201040DC
:100AF0007047000080886FF35F207047FEE70000BA
:100B000070B586B041F218000124C4F202000168F9
:100B100041F011010160012002F062F81020012172
:100B2000FFF7EAFD4820ADF8084002A90490032031
:100B3000039041F20000C4F20100FFF717FC01200E
:100B40000121FFF7D9FD0220002102250026FFF731
:100B5000F3FB0C20CDE90246CDE9040402A8FFF71F
:100B6000BBFB06208DF80250ADF8000068460194EA
:100B7000FFF77CFD06B070BDB0B586B00420012142
:100B80000125FFF7ADFD40F6000441F61F4003A923
:100B9000039042F20F70C4F2000404902046FFF765
:100BA000FBFE204601210122FFF7EEFE4FF4A0607C
:100BB000FFF78CFD02208DF8060040F21E20ADF8F4
:100BC000040001A80295FFF751FD20460121FFF71F
:100BD000C7FE06B0B0BD000010B50446000A00F024
:100BE000ADF8E0B2BDE8104000F0A8B82DE9F04F34
:100BF00087B0119E074690461C460D46069100EBB5
:100C00005600013882B28819013883B2384600F0A4
:100C100087FC07210122300911EA560F18BF02EBA9
:100C2000161070430028049000F08480A6F10C0098
:100C300075083E464FF0000BC0F385015FFA85F959
:100C400041EA8011A8F12000CBB243F2A811C2B250
:100C50000020C0F600010292039301EB0211019102
:100C600044F67811C0F6000101EB821100220091D8
:100C7000052B5FD80592DFE803F0030D5D0F5D19CA
:100C8000029942F63452C0F6000201EB410102EB38
:100C900081010CE001990AE0029943F2A872C0F6C2
:100CA000000201EB410102EB011100E00099084450
:100CB0004FF0000890F800A00120129900FA08F007
:100CC00000EA0A0081B148B10699B0B2024689B281
:100CD0000B4600F025FC2046FFF77EFF0136B0B240
:100CE000C01BA8420FD115E000280CBF1098204669
:100CF000FFF772FF0BF1010B5FFA8BF0B0FBF9F11C
:100D000001FB190058B108F10108B8F1080FD3D35D
:100D100008E000BF06983E460130069002E04FF022
:100D2000000B00BF059A0499039B013290B28142E7
:100D30003FF69EAF07B0BDE8F08F0000B0B541F6BA
:100D4000000405460221C4F201042046FFF784FC9A
:100D500020460821FFF780FC68B2B0F1FF3F04DDB8
:100D600020462021FFF778FC03E020462021FFF7F2
:100D700075FC20460821FFF771FC20460821FFF78B
:100D80006BFC680604D420462021FFF765FC03E0D5
:100D900020462021FFF762FC20460821FFF75EFC79
:100DA00020460821FFF758FCA80604D4204620213D
:100DB000FFF752FC03E020462021FFF74FFC2046BE
:100DC0000821FFF74BFC20460821FFF745FCE80609
:100DD00004D420462021FFF73FFC03E020462021D9
:100DE000FFF73CFC20460821FFF738FC204608218D
:100DF000FFF732FC280704D420462021FFF72CFC03
:100E000003E020462021FFF729FC20460821FFF7B8
:100E100025FC20460821FFF71FFC680704D4204664
:100E20002021FFF719FC03E020462021FFF716FCE4
:100E300020460821FFF712FC20460821FFF70CFC92
:100E4000A80704D420462021FFF706FC03E0204633
:100E50002021FFF703FC20460821FFF7FFFB204677
:100E60000821FFF7F9FBE80704D120462021FFF70E
:100E7000F3FB03E020462021FFF7F0FB204608218A
:100E8000FFF7ECFB20460221BDE8B040FFF7E6BBD0
:100E900010B500F015FA41F600041021C4F2010467
:100EA0002046FFF7D9FB642001F06CFE204610219C
:100EB000FFF7D4FB642001F065FE20464021FFF7D8
:100EC000CDFB642001F05EFE20460421FFF7C4FB49
:100ED0001120FFF733FF20460421FFF7BFFB7820E6
:100EE00001F050FE20460421FFF7B6FB3620FFF745
:100EF00025FF20460421FFF7B1FB0020FFF71EFF6E
:100F000020460421FFF7A8FB3A20FFF717FF2046F1
:100F10000421FFF7A3FB0520FFF710FF2046042163
:100F2000FFF79AFBB220FFF709FF20460421FFF7E5
:100F300095FB0C20FFF702FF0C20FFF7FFFE0020BF
:100F4000FFF7FCFE3320FFF7F9FE3320FFF7F6FE34
:100F500020460421FFF780FBB720FFF7EFFE204675
:100F60000421FFF77BFB3520FFF7E8FE2046042134
:100F7000FFF772FBBB20FFF7E1FE20460421FFF7DD
:100F80006DFB3220FFF7DAFE20460421FFF764FBF9
:100F9000C220FFF7D3FE20460421FFF75FFB0120AC
:100FA000FFF7CCFE20460421FFF756FBC320FFF7D6
:100FB000C5FE20460421FFF751FB1520FFF7BEFEBA
:100FC00020460421FFF748FBC420FFF7B7FE204668
:100FD0000421FFF743FB2020FFF7B0FE2046042149
:100FE000FFF73AFBC620FFF7A9FE20460421FFF7D2
:100FF00035FB0F20FFF7A2FE20460421FFF72CFB54
:10100000D020FFF79BFE20460421FFF727FBA420FA
:10101000FFF794FEA120FFF791FE20460421FFF781
:101020001BFBE020FFF78AFE20460421FFF716FB9A
:10103000D020FFF783FE0820FFF780FE0E20FFF789
:101040007DFE0920FFF77AFE0920FFF777FE0520D5
:10105000FFF774FE3120FFF771FE3320FFF76EFEBD
:101060004820FFF76BFE1720FFF768FE1420FFF7FC
:1010700065FE1520FFF762FE3120FFF75FFE34208A
:10108000FFF75CFE20460421FFF7E6FAE120FFF7B8
:1010900055FE20460421FFF7E1FAD020FFF74EFE6F
:1010A0000820FFF74BFE0E20FFF748FE0920FFF750
:1010B00045FE0920FFF742FE1520FFF73FFE3120D5
:1010C000FFF73CFE3320FFF739FE4820FFF736FEDE
:1010D0001720FFF733FE1420FFF730FE1520FFF72F
:1010E0002DFE3120FFF72AFE3420FFF727FE204691
:1010F0000421FFF7B1FA2120FFF720FE204604214A
:10110000FFF7ACFA20460421FFF7A6FA2920FFF7E3
:1011100015FE20460421BDE81040FFF79FBA0000ED
:1011200070B584B041F218060124C4F2020630689A
:1011300040F045003060012001F052FD40200121C7
:10114000FFF7DAFA40F60005102001A9C4F2010504
:101150000390ADF80440032005F58054029020462A
:10116000FFF704F920462021FFF778FA286820F0DD
:1011700001002860286820F002002860286840F0FC
:1011800003002860286820F010002860286820F0FC
:1011900020002860286840F030002860286820F48B
:1011A00080702860286820F400702860286840F467
:1011B00040702860286820F480502860286820F457
:1011C00000502860286840F440502860286820F0CB
:1011D00004002860286820F008002860286840F093
:1011E0000C002860286820F040002860286820F063
:1011F00080002860286840F0C0002860286820F43B
:1012000080602860286820F400602860286840F426
:1012100040602860286820F480402860286820F416
:1012200000402860286840F400402860706840F062
:1012300008007060012001F0D3FC40F22840092131
:10124000CFF6FF70295240F22C4042F21071CFF6D7
:10125000FF70295240F2184047F66801CFF6FF7040
:10126000295240F21C4047F67801CFF6FF70295210
:1012700040F240400021CFF6FF70295240F23C413D
:10128000285ACFF6FF716852685A40F23841CFF6BB
:10129000FF716852685A40F23441CFF6FF716852CC
:1012A00040F2204041F21111CFF6FF70295240F276
:1012B00000408121CFF6FF70295204B070BD0000BC
:1012C00070B584B040200121FFF716FA41F6000402
:1012D0001026022001AD0396ADF804000320C4F2ED
:1012E0000104294602902046FFF740F820460221DB
:1012F000FFF7B4F928202946ADF804002046FFF78F
:1013000035F820462821FFF7A9F944202946ADF8F1
:1013100004002046FFF72AF8204648F22001FFF794
:101320009DF920462946ADF80460FFF71FF82046D6
:101330001021FFF793F904B070BD00002DE9F04FC4
:1013400085B01C460E460746002B04926FD01098BD
:10135000A11EA4F1010A42F2107B4FF00009002502
:1013600003914FEA500809E00F98002531462022EA
:1013700000901098CDE901054FE000BFA4EB0900F3
:10138000C0B2012802D1012028E000BF0399AAEBD6
:101390000900A1EB0901CAB200F00301032A07D238
:1013A0000120D9B101290ED100EB8000400015E0E9
:1013B000421A0120043A00FB0BF012F0FF0FF9D1A2
:1013C0000029EFD10AE04FF47A7202294FF064014C
:1013D00000FB02F208BF00FB01F210460499B1FBCA
:1013E000F0F04CF6CD41CCF6CC41A0FB0112D10877
:1013F00001EB8101A0EB4101280604D1CA4502DDC1
:101400000029B1D001250F9841F03001CAB2314610
:101410000090109801900020029009FB087080B2A3
:101420000E9BFFF7E3FB09F10109A145A6D105B029
:10143000BDE8F08FF0B581B041F20005044601210E
:10144000C4F201052846FFF701F940F258160028BA
:101450004FF000022846C2F20006318808BF4A1C3D
:1014600001213280FFF7F2F840B940F25A10C2F27F
:1014700000000178002904BF0121017040F25C17CF
:10148000C2F200073878D8B940F25A1240F254102C
:10149000C2F20002C2F2000012780188012A03D1D0
:1014A000013101223A70018089B2022908D140F24B
:1014B00056110022C2F2000102800A8002212CE0B3
:1014C00028460121FFF7C2F8012806D140F25A113F
:1014D0000020C2F200013870087040F25410C2F2CD
:1014E00000000188012911D140F256123388C2F25E
:1014F000000211880131118089B2A14208D9A342AA
:1015000006D2002111800180012106E0002104E0C3
:101510000021A34284BF11800180C8B201B0F0BD98
:101520002DE9F04141F600040E4605460421984697
:101530001746C4F201042046FFF78EF82A20FFF771
:10154000FDFB20460421FFF789F8280AFFF7F6FB88
:10155000E8B2FFF7F3FB380AFFF7F0FBF8B2FFF74A
:10156000EDFB20460421FFF777F82B20FFF7E6FB81
:1015700020460421FFF772F8300AFFF7DFFBF0B2D4
:10158000FFF7DCFB4FEA1820FFF7D8FB5FFA88F083
:10159000FFF7D4FB20460421FFF75EF82C20FFF76D
:1015A000CDFB20460421BDE8F041FFF757B800000D
:1015B0002DE9F04FA5B0824646F66F60144647F21B
:1015C000652200269846C0F23A00C3F632222196E0
:1015D000249046F26310C6F67410239046F66960B4
:1015E000C6F66410229047F26520C3F631202090A1
:1015F00047F26E50C6F26D20CDE91E60CDE91C02A7
:101600000FF2AC60D0E90152D0E9033740691B907A
:10161000DFF89C06CDE91937CDE9175216900FF285
:10162000A860D0E90152D0E9033740691590DFF88E
:101630009806CDE91337CDE9115210900FF2A06052
:10164000D0E90152D0E9033740690F90DFF89006E6
:10165000CDE90D37CDE90B520A900FF29C60D0E92D
:101660000172D0E90330CDE90830DFF88C06CDE90E
:10167000067205900AF1070082B201F10F00258978
:1016800083B25046CDE90331FFF74AFF4CF6CD4017
:10169000CCF6CC40A5FB0001C80843F2A81100EB32
:1016A0008000C0F60001A5EB400040F0100001EB07
:1016B000001B00BF1BF8065015F0010F0CBF4FF6C2
:1016C000FF700020FFF788FAA80754BF4FF6FF709D
:1016D0000020FFF781FA680754BF4FF6FF70002023
:1016E000FFF77AFA280754BF4FF6FF700020FFF784
:1016F00073FAE80654BF4FF6FF700020FFF76CFA4C
:10170000A80654BF4FF6FF700020FFF765FA680681
:1017100054BF4FF6FF700020FFF75EFA280654BF53
:101720004FF6FF700020FFF757FA0136102EC1D197
:101730000AF117010AF11000A5888AB2DDE9033128
:1017400080B2FFF7EDFE4CF6CD4043F2A819CCF67F
:10175000CC40C0F60009A5FB0001C80800EB8000E2
:10176000A5EB4000002540F0100009EB001600BF7B
:10177000775D17F0010F0CBF4FF6FF700020FFF7E9
:101780002BFAB80754BF4FF6FF700020FFF724FA7A
:10179000780754BF4FF6FF700020FFF71DFA380797
:1017A00054BF4FF6FF700020FFF716FAF80654BF3B
:1017B0004FF6FF700020FFF70FFAB80654BF4FF640
:1017C000FF700020FFF708FA780654BF4FF6FF704D
:1017D0000020FFF701FA380654BF4FF6FF700020D3
:1017E000FFF7FAF90135102DC2D10AF127010AF1EC
:1017F000200024888AB2DDE9033180B2FFF790FE31
:101800004CF6CD400025CCF6CC40A4FB0001C80826
:1018100000EB8000A4EB400040F0100009EB001446
:10182000665D16F0010F0CBF4FF6FF700020FFF74A
:10183000D3F9B00754BF4FF6FF700020FFF7CCF983
:10184000700754BF4FF6FF700020FFF7C5F930074F
:1018500054BF4FF6FF700020FFF7BEF9F00654BFEB
:101860004FF6FF700020FFF7B7F9B00654BF4FF6F0
:10187000FF700020FFF7B0F9700654BF4FF6FF70FD
:101880000020FFF7A9F9300654BF4FF6FF70002083
:10189000FFF7A2F90135102DC2D10AF137010AF183
:1018A00030008AB2DDE9033180B2FFF739FEA8F1DA
:1018B00020002E9F0025C0B209EB0014665D16F0D3
:1018C000010F0CBF4FF6FF700020FFF785F9B0073E
:1018D00054BF4FF6FF700020FFF77EF9700754BF2A
:1018E0004FF6FF700020FFF777F9300754BF4FF62F
:1018F000FF700020FFF770F9F00654BF4FF6FF703D
:101900000020FFF769F9B00654BF4FF6FF700020C2
:10191000FFF762F9700654BF4FF6FF700020FFF723
:101920005BF9300654BF4FF6FF700020FFF754F903
:101930000135102DC2D10AF147010AF140003C895E
:101940008AB2DDE9033180B2FFF7EAFD4CF6CD4003
:101950000025CCF6CC40A4FB0001C80800EB8000B9
:10196000A4EB400040F0100009EB0014665D16F097
:10197000010F0CBF4FF6FF700020FFF72DF9B007E5
:1019800054BF4FF6FF700020FFF726F9700754BFD1
:101990004FF6FF700020FFF71FF9300754BF4FF6D6
:1019A000FF700020FFF718F9F00654BF4FF6FF70E4
:1019B0000020FFF711F9B00654BF4FF6FF7000206A
:1019C000FFF70AF9700654BF4FF6FF700020FFF7CB
:1019D00003F9300654BF4FF6FF700020FFF7FCF804
:1019E0000135102DC2D10AF157010AF15000BC880F
:1019F0008AB2DDE9033180B2FFF792FD4CF6CD40AB
:101A00000025CCF6CC40A4FB0001C80800EB800008
:101A1000A4EB400040F0100009EB0014665D16F0E6
:101A2000010F0CBF4FF6FF700020FFF7D5F8B0078D
:101A300054BF4FF6FF700020FFF7CEF8700754BF79
:101A40004FF6FF700020FFF7C7F8300754BF4FF67E
:101A5000FF700020FFF7C0F8F00654BF4FF6FF708C
:101A60000020FFF7B9F8B00654BF4FF6FF70002012
:101A7000FFF7B2F8700654BF4FF6FF700020FFF773
:101A8000ABF8300654BF4FF6FF700020FFF7A4F804
:101A90000135102DC2D10AF167010AF160003C88BE
:101AA0008AB2DDE9033180B2FFF73AFD4CF6CD4052
:101AB0000025CCF6CC40A4FB0001C80800EB800058
:101AC000A4EB400040F0100009EB0014665D16F036
:101AD000010F0CBF4FF6FF700020FFF77DF8B00735
:101AE00054BF4FF6FF700020FFF776F8700754BF21
:101AF0004FF6FF700020FFF76FF8300754BF4FF626
:101B0000FF700020FFF768F8F00654BF4FF6FF7033
:101B10000020FFF761F8B00654BF4FF6FF700020B9
:101B2000FFF75AF8700654BF4FF6FF700020FFF71A
:101B300053F8300654BF4FF6FF700020FFF74CF803
:101B40000135102DC2D10AF177010AF170008AB275
:101B5000DDE9033180B2FFF7E3FC002409EB040068
:101B600090F8D05115F0010F0CBF4FF6FF70002018
:101B7000FFF732F8A80754BF4FF6FF700020FFF7B9
:101B80002BF8680754BF4FF6FF700020FFF724F8CA
:101B9000280754BF4FF6FF700020FFF71DF8E80636
:101BA00054BF4FF6FF700020FFF716F8A80654BF89
:101BB0004FF6FF700020FFF70FF8680654BF4FF68E
:101BC000FF700020FFF708F8280654BF4FF6FF709B
:101BD0000020FFF701F80134102CBFD12F984CF6EC
:101BE000CD4500244FF0000BCCF6CC4580B20290DE
:101BF0000AF1800042F2107A019053E0019800EB64
:101C0000C40188B207318AB2DDE90331FFF788FCED
:101C100043F2A8150027C0F6000500BFEE5D16F0E0
:101C2000010F0CBF4FF6FF700020FEF7D5FFB00785
:101C300054BF4FF6FF700020FEF7CEFF700754BF71
:101C40004FF6FF700020FEF7C7FF300754BF4FF676
:101C5000FF700020FEF7C0FFF00654BF4FF6FF7084
:101C60000020FEF7B9FFB00654BF4FF6FF7000200A
:101C7000FEF7B2FF700654BF4FF6FF700020FEF76C
:101C8000ABFF300654BF4FF6FF700020FEF7A4FFF5
:101C90000137102FC2D14CF6CD454FF0000BCCF6DA
:101CA000CC45C6E0E0B2052830D1012054E000BFA9
:101CB00073696E676C652020202020202020202062
:101CC000202020200000000074656E2020202020AD
:101CD0002020202020202020202020200000000084
:101CE00068756E64726564202020202020202020EA
:101CF00020202020000000006F7065726174696F01
:101D00006E2020202020202020202000C4F104026A
:101D1000C4F10500D2B200F00301032A02D201206F
:101D200049B919E0421A0120043A00FB0AF012F006
:101D3000FF0FF9D181B1012903D100EB80004000F0
:101D40000AE04FF47A7202294FF0640100FB02F2BC
:101D500008BF00FB01F210460299042CB1FBF0F021
:101D6000A0FB05124FEAD20101EB8101A0EB410675
:101D700007D85FEA0B6004D1002E3FF43FAF4FF06D
:101D8000010B019800EBC40188B207318AB2DDE98A
:101D90000331FFF7C5FB43F2A81146F010000027FE
:101DA000C0F6000101EB001818F8079019F0010FB8
:101DB0000CBF4FF6FF700020FEF70EFF5FEA897040
:101DC00054BF4FF6FF700020FEF706FF5FEA497030
:101DD00054BF4FF6FF700020FEF7FEFE5FEA097069
:101DE00054BF4FF6FF700020FEF7F6FE5FEAC960B1
:101DF00054BF4FF6FF700020FEF7EEFE5FEA8960E9
:101E000054BF4FF6FF700020FEF7E6FE5FEA496020
:101E100054BF4FF6FF700020FEF7DEFE5FEA096058
:101E200054BF4FF6FF700020FEF7D6FE0137102F8B
:101E3000BAD10134062C7FF435AF049943F2A81BC4
:101E4000002669240DF18809C0F6000B481F1439DB
:101E50001FFA81F81FFA80FA46F00701B0B2534624
:101E60008AB24146FFF75CFBA4F120000027C0B214
:101E70000BEB0015EC5D14F0010F0CBF4FF6FF707B
:101E80001F20FEF7A9FEA00754BF4FF6FF701F20CA
:101E9000FEF7A2FE600754BF4FF6FF701F20FEF74B
:101EA0009BFE200754BF4FF6FF701F20FEF794FEE5
:101EB000E00654BF4FF6FF701F20FEF78DFEA00610
:101EC00054BF4FF6FF701F20FEF786FE600654BF1A
:101ED0004FF6FF701F20FEF77FFE200654BF4FF61F
:101EE000FF701F20FEF778FE0137102FC2D119F8BE
:101EF000014F0836002CAFD13099062900F2C28478
:101F0000DFE811F00700C2007B01350293024D03A8
:101F1000070458266E240DF17C0900BF46F0070126
:101F2000B0B253468AB24146FFF7FAFAA4F1200054
:101F30000027C0B20BEB0015EC5D14F0010F0CBFD5
:101F40004FF6FF704FF47840FEF746FEA00754BFEF
:101F50004FF6FF704FF47840FEF73EFE600754BF27
:101F60004FF6FF704FF47840FEF736FE200754BF5F
:101F70004FF6FF704FF47840FEF72EFEE00654BF98
:101F80004FF6FF704FF47840FEF726FEA00654BFD0
:101F90004FF6FF704FF47840FEF71EFE600654BF08
:101FA0004FF6FF704FF47840FEF716FE200654BF40
:101FB0004FF6FF704FF47840FEF70EFE0137102FFA
:101FC000BAD119F8014F0836002CA7D198267324EE
:101FD0000DF1580946F00701B0B253468AB24146A6
:101FE000FFF79EFAA4F120000027C0B20BEB00150A
:101FF000EC5D14F0010F0CBF4FF6FF704FF478400A
:10200000FEF7EAFDA00754BF4FF6FF704FF478408B
:10201000FEF7E2FD600754BF4FF6FF704FF47840C3
:10202000FEF7DAFD200754BF4FF6FF704FF47840FB
:10203000FEF7D2FDE00654BF4FF6FF704FF4784034
:10204000FEF7CAFDA00654BF4FF6FF704FF478406C
:10205000FEF7C2FD600654BF4FF6FF704FF47840A4
:10206000FEF7BAFD200654BF4FF6FF704FF47840DC
:10207000FEF7B2FD0137102FBAD119F8014F08361B
:10208000002CA7D100F0FEBB58266E240DF17C0970
:1020900046F00701B0B253468AB24146FFF740FA14
:1020A000A4F120000027C0B20BEB0015EC5D14F08A
:1020B000010F0CBF4FF6FF704FF47840FEF78CFD18
:1020C000A00754BF4FF6FF704FF47840FEF784FD31
:1020D000600754BF4FF6FF704FF47840FEF77CFD69
:1020E000200754BF4FF6FF704FF47840FEF774FDA1
:1020F000E00654BF4FF6FF704FF47840FEF76CFDDA
:10210000A00654BF4FF6FF704FF47840FEF764FD11
:10211000600654BF4FF6FF704FF47840FEF75CFD49
:10212000200654BF4FF6FF704FF47840FEF754FD81
:102130000137102FBAD119F8014F0836002CA7D15A
:10214000982674240DF1400946F00701B0B25346B9
:102150008AB24146FFF7E4F9A4F120000027C0B29B
:102160000BEB0015EC5D14F0010F0CBF4FF6FF7088
:102170004FF47840FEF730FDA00754BF4FF6FF70D4
:102180004FF47840FEF728FD600754BF4FF6FF700C
:102190004FF47840FEF720FD200754BF4FF6FF7044
:1021A0004FF47840FEF718FDE00654BF4FF6FF707D
:1021B0004FF47840FEF710FDA00654BF4FF6FF70B5
:1021C0004FF47840FEF708FD600654BF4FF6FF70ED
:1021D0004FF47840FEF700FD200654BF4FF6FF7025
:1021E0004FF47840FEF7F8FC0137102FBAD119F8F8
:1021F000014F0836002CA7D144E358266E240DF178
:102200007C0900BF46F00701B0B253468AB241468E
:10221000FFF786F9A4F120000027C0B20BEB0015F0
:10222000EC5D14F0010F0CBF4FF6FF704FF47840D7
:10223000FEF7D2FCA00754BF4FF6FF704FF4784072
:10224000FEF7CAFC600754BF4FF6FF704FF47840AA
:10225000FEF7C2FC200754BF4FF6FF704FF47840E2
:10226000FEF7BAFCE00654BF4FF6FF704FF478401B
:10227000FEF7B2FCA00654BF4FF6FF704FF4784053
:10228000FEF7AAFC600654BF4FF6FF704FF478408B
:10229000FEF7A2FC200654BF4FF6FF704FF47840C3
:1022A000FEF79AFC0137102FBAD119F8014F083602
:1022B000002CA7D1982668240DF1280946F00701C3
:1022C000B0B253468AB24146FFF72AF9A4F1200082
:1022D0000027C0B20BEB0015EC5D14F0010F0CBF32
:1022E0004FF6FF704FF47840FEF776FCA00754BF1E
:1022F0004FF6FF704FF47840FEF76EFC600754BF56
:102300004FF6FF704FF47840FEF766FC200754BF8D
:102310004FF6FF704FF47840FEF75EFCE00654BFC6
:102320004FF6FF704FF47840FEF756FCA00654BFFE
:102330004FF6FF704FF47840FEF74EFC600654BF36
:102340004FF6FF704FF47840FEF746FC200654BF6E
:102350004FF6FF704FF47840FEF73EFC0137102F28
:10236000BAD119F8014F0836002CA7D18AE25826B5
:102370006F240DF1140900BF46F00701B0B25346B7
:102380008AB24146FFF7CCF8A4F120000027C0B282
:102390000BEB0015EC5D14F0010F0CBF4FF6FF7056
:1023A0004FF47840FEF718FCA00754BF4FF6FF70BB
:1023B0004FF47840FEF710FC600754BF4FF6FF70F3
:1023C0004FF47840FEF708FC200754BF4FF6FF702B
:1023D0004FF47840FEF700FCE00654BF4FF6FF7064
:1023E0004FF47840FEF7F8FBA00654BF4FF6FF709D
:1023F0004FF47840FEF7F0FB600654BF4FF6FF70D5
:102400004FF47840FEF7E8FB200654BF4FF6FF700C
:102410004FF47840FEF7E0FB0137102FBAD119F8DE
:10242000014F0836002CA7D12CE258266E240DF15E
:10243000700900BF46F00701B0B253468AB2414668
:10244000FFF76EF8A4F120000027C0B20BEB0015D7
:10245000EC5D14F0010F0CBF4FF6FF704FF47840A5
:10246000FEF7BAFBA00754BF4FF6FF704FF4784059
:10247000FEF7B2FB600754BF4FF6FF704FF4784091
:10248000FEF7AAFB200754BF4FF6FF704FF47840C9
:10249000FEF7A2FBE00654BF4FF6FF704FF4784002
:1024A000FEF79AFBA00654BF4FF6FF704FF478403A
:1024B000FEF792FB600654BF4FF6FF704FF4784072
:1024C000FEF78AFB200654BF4FF6FF704FF47840AA
:1024D000FEF782FB0137102FBAD119F8014F0836E9
:1024E000002CA7D1982673240DF1580946F0070156
:1024F000B0B253468AB24146FFF712F8A4F1200069
:102500000027C0B20BEB0015EC5D14F0010F0CBFFF
:102510004FF6FF704FF47840FEF75EFBA00754BF04
:102520004FF6FF704FF47840FEF756FB600754BF3C
:102530004FF6FF704FF47840FEF74EFB200754BF74
:102540004FF6FF704FF47840FEF746FBE00654BFAD
:102550004FF6FF704FF47840FEF73EFBA00654BFE5
:102560004FF6FF704FF47840FEF736FB600654BF1D
:102570004FF6FF704FF47840FEF72EFB200654BF55
:102580004FF6FF704FF47840FEF726FB0137102F0F
:10259000BAD119F8014F0836002CA7D172E158269C
:1025A0006E240DF1700900BF46F00701B0B253462A
:1025B0008AB24146FEF7B4FFA4F120000027C0B262
:1025C0000BEB0015EC5D14F0010F0CBF4FF6FF7024
:1025D0004FF47840FEF700FBA00754BF4FF6FF70A2
:1025E0004FF47840FEF7F8FA600754BF4FF6FF70DB
:1025F0004FF47840FEF7F0FA200754BF4FF6FF7013
:102600004FF47840FEF7E8FAE00654BF4FF6FF704B
:102610004FF47840FEF7E0FAA00654BF4FF6FF7083
:102620004FF47840FEF7D8FA600654BF4FF6FF70BB
:102630004FF47840FEF7D0FA200654BF4FF6FF70F3
:102640004FF47840FEF7C8FA0137102FBAD119F8C5
:10265000014F0836002CA7D1982674240DF14009AB
:1026600046F00701B0B253468AB24146FEF758FF22
:10267000A4F120000027C0B20BEB0015EC5D14F0B4
:10268000010F0CBF4FF6FF704FF47840FEF7A4FA2D
:10269000A00754BF4FF6FF704FF47840FEF79CFA46
:1026A000600754BF4FF6FF704FF47840FEF794FA7E
:1026B000200754BF4FF6FF704FF47840FEF78CFAB6
:1026C000E00654BF4FF6FF704FF47840FEF784FAEF
:1026D000A00654BF4FF6FF704FF47840FEF77CFA27
:1026E000600654BF4FF6FF704FF47840FEF774FA5F
:1026F000200654BF4FF6FF704FF47840FEF76CFA97
:102700000137102FBAD119F8014F0836002CA7D184
:10271000B8E058266E240DF1700900BF46F007019D
:10272000B0B253468AB24146FEF7FAFEA4F1200049
:102730000027C0B20BEB0015EC5D14F0010F0CBFCD
:102740004FF6FF704FF47840FEF746FAA00754BFEB
:102750004FF6FF704FF47840FEF73EFA600754BF23
:102760004FF6FF704FF47840FEF736FA200754BF5B
:102770004FF6FF704FF47840FEF72EFAE00654BF94
:102780004FF6FF704FF47840FEF726FAA00654BFCC
:102790004FF6FF704FF47840FEF71EFA600654BF04
:1027A0004FF6FF704FF47840FEF716FA200654BF3C
:1027B0004FF6FF704FF47840FEF70EFA0137102FF6
:1027C000BAD119F8014F0836002CA7D198266824F1
:1027D0000DF1280946F00701B0B253468AB24146CE
:1027E000FEF79EFEA4F120000027C0B20BEB0015FF
:1027F000EC5D14F0010F0CBF4FF6FF704FF4784002
:10280000FEF7EAF9A00754BF4FF6FF704FF4784087
:10281000FEF7E2F9600754BF4FF6FF704FF47840BF
:10282000FEF7DAF9200754BF4FF6FF704FF47840F7
:10283000FEF7D2F9E00654BF4FF6FF704FF4784030
:10284000FEF7CAF9A00654BF4FF6FF704FF4784068
:10285000FEF7C2F9600654BF4FF6FF704FF47840A0
:10286000FEF7BAF9200654BF4FF6FF704FF47840D8
:10287000FEF7B2F90137102FBAD119F8014F083617
:10288000002CA7D125B0BDE8F08F0000B0B5062020
:10289000FEF7D0FD02281AD0012823D140F264109F
:1028A000C2F200000068062800F2E380DFE800F0D2
:1028B000048F99A384B7C10040F27010C2F20000E7
:1028C0000168082940F3808000210160B0BD40F21A
:1028D00064100022C2F2000001680629B8BF4A1C39
:1028E0000260B0BD40F25014C2F20004207840B93A
:1028F00041F200000121C4F20100FDF7A7FE00280B
:1029000042D040F252100021C2F200000180217832
:102910000020012908BF2070002800F0AA8040F2A2
:102920007C1040F27011C2F20000C2F20001D0E946
:1029300000C4D0F808E0D1E900208B6840F26811AB
:10294000C2F200010D8801350D8040F20401C2F28F
:10295000000109782A39052988BFB0BD00EB800045
:1029600004EB840402EB40000CEB440564240EFBF2
:10297000045503FB0400DFE801F003667C6A7C7306
:1029800080B2A9B2484365E040F24E11C2F20001A4
:1029900008880130088040F25210C2F2000002881C
:1029A000531C03809BB21A2B64D3002101800120A9
:1029B000207000285DD0B2E740F27C10C2F2000027
:1029C000016808293FF780AF01310160B0BD40F2D6
:1029D0007010C2F200004168082927DC0131416013
:1029E000B0BD40F27010C2F200008168082927DCF7
:1029F00001318160B0BD40F20800C2F20000016800
:102A0000032936D8DFE801F0023E4750012101607A
:102A100040F204002B21C2F200000170B0BD40F270
:102A20007C10C2F2000041680829D7DD0021416016
:102A3000B0BD40F27C10C2F2000081680829D7DDE9
:102A400000218160B0BD80B2A9B2084402E0A9B201
:102A500080B2401A40F28811C2F200010860B0BD95
:102A6000A9B280B2B0FBF1F040F28811C2F20001CD
:102A70000860B0BD002A7FF44AAF0020088000281B
:102A8000F7D04CE70221016040F204002D21C2F290
:102A900000000170B0BD0321016040F204002A2152
:102AA000C2F200000170B0BD0021016040F20400DC
:102AB0002F21C2F200000170B0BD00002DE9F043EB
:102AC00081B08146501E154698460E4682B2581E69
:102AD00083B24846FEF724FD464510D2089C00BF4D
:102AE000A94508D24F4600BF2046FEF775F80137CA
:102AF000B8B2A842F8D30136B0B24045F0D301B025
:102B0000BDE8F08310B584B004200121FDF7F4FD89
:102B1000102040F6000401A903900820C4F201042B
:102B2000ADF80400032002902046FDF71FFC20466C
:102B30000821FDF791FD04B010BD000070470000B2
:102B400080B56FF00400FDF73BFE40F200004DF64B
:102B5000836140F26012C2F20000C4F21B31C2F283
:102B600000020068A0FB0101480D1070C1F347503E
:102B70004FF47A71484340F25E11C2F200010880BE
:102B800080BD000040F25E11C2F20001098841439D
:102B90004EF21000CEF20000416000218160016819
:102BA00041F00101016000BF016801F0011101293C
:102BB0000ED1016801F00111012909D1016801F06C
:102BC0000111012904D1016801F001110129EBD0A3
:102BD000016821F00101016000218160704700005F
:102BE00040F26011C2F20001097841434EF2100038
:102BF000CEF20000416000218160016841F00101D6
:102C0000016000BF016801F0011101290ED10168C6
:102C100001F00111012909D1016801F00111012917
:102C200004D1016801F001110129EBD0016821F004
:102C300001010160002181607047000080B5FEF74E
:102C40006FFABDE88040FEF723B900002DE9F04F90
:102C500087B0FDF7C3FDFFF773FF40F27000C2F2CB
:102C60000000FDF755FDFFF7E9FF40200121012499
:102C7000FDF742FD102004A90690ADF8104041F682
:102C800000040320C4F2010405902046FDF76EFB0A
:102C900020460121FDF7E0FCFDF76EFF4FF6FF79BE
:102CA00000200021F022F0234FF0000ACDF8009020
:102CB000FFF704FFFFF726FFFDF722FF40F2040BAA
:102CC00040F2881640F2641740F27C1540F270140E
:102CD00040F26C18C2F2000BC2F20006C2F200070A
:102CE000C2F20005C2F20004C2F20008FFF7CEFDF6
:102CF000308839689BF800302246CDE900500291B7
:102D000000207821FEF754FCB8F800201020CDE90F
:102D100000A90021042302900020FEF70FFBE5E745
:102D2000020406080000000001020304010203047B
:102D30000607080900000000000000000000000075
:102D400000000404040404000004000014140A0039
:102D5000000000000000000000000A0A1F0A0A1F0D
:102D60000A0A000000040E1505060C14150E0400D6
:102D7000000012150D152E2C2A1200000000040A66
:102D80000A36151529160000020201000000000095
:102D900000000000100808040404040408081000DF
:102DA00002040408080808080404020000000004E3
:102DB000150E0E150400000000000008083E08086B
:102DC00000000000000000000000000002020100FE
:102DD00000000000003F00000000000000000000B4
:102DE0000000000000020000002010100808040489
:102DF0000202010000000E1111111111110E00004C
:102E00000000040604040404040E000000000E1177
:102E100011080402011F000000000E11100C101018
:102E2000110E00000000080C0C0A091F081C00000D
:102E300000001F01010F1110110E000000000C1204
:102E4000010D1311110E000000001E1008080404EB
:102E50000404000000000E11110E1111110E0000EB
:102E600000000E11111916100906000000000000E4
:102E70000400000000040000000000000004000046
:102E800000040400000010080402020408100000FE
:102E9000000000003F003F000000000000000204AE
:102EA000081010080402000000000E1111080404AC
:102EB0000004000000001C22292D2D1D221C0000F2
:102EC000000004040C0A0A1E1233000000000F1256
:102ED000120E1212120F000000001E11010101015A
:102EE000110E000000000F1212121212120F000039
:102EF00000001F120A0E0A02121F000000001F121B
:102F00000A0E0A020207000000001C12010139111A
:102F1000120C000000003312121E121212330000B5
:102F200000001F0404040404041F000000003E0805
:102F30000808080808080907000037120A060A12DC
:102F4000123700000000070202020202223F0000C6
:102F500000003B1B1B1B15151535000000003B1224
:102F600016161A1A1217000000000E111111111175
:102F7000110E000000000F12120E020202070000E4
:102F800000000E1111111117190E180000000F1278
:102F9000120E0A121237000000001E11010608105E
:102FA000110F000000001F1504040404040E0000AB
:102FB0000000331212121212120C00000000331221
:102FC000120A0A0C040400000000151515150E0A5B
:102FD0000A0A000000001B0A0A04040A0A1B000077
:102FE00000001B0A0A0A0404040E000000001F0966
:102FF00008040402121F00001C0404040404040456
:1030000004041C0000020204040408080810100054
:103010000E0808080808080808080E00040A00003E
:1030200000000000000000000000000000000000A0
:103030000000003F0204000000000000000000004B
:1030400000000000000C121C123C000000030202F1
:10305000020E1212120E000000000000001C1202EC
:10306000120C000000181010101C1212123C00006C
:1030700000000000000C121E021C000000182404B6
:10308000041E0404041E000000000000003C120C9A
:10309000021C221C00030202020E12121237000050
:1030A0000004040000060404040E000000080800E8
:1030B000000C08080808080700030202021A0A06A2
:1030C0000A1300000007040404040404041F0000A1
:1030D00000000000000F151515150000000000008D
:1030E000000F12121237000000000000000C121234
:1030F000120C000000000000000F1212120E020756
:1031000000000000001C1212121C10380000000009
:10311000001B06020207000000000000001E020C57
:10312000101E000000000004041E0404041C000023
:1031300000000000001B1212123C00000000000002
:10314000001B0A0A04040000000000000015150E10
:103150000A0A000000000000001B0A040A1B00000D
:1031600000000000003312120C08040300000000ED
:10317000001E0804041E000018080808080C0808AF
:1031800008081800080808080808080808080808B7
:1031900006040404040804040404060016090000DC
:1031A000000000000000000000000000000000001F
:1031B00000000000000000000000000808080808E7
:1031C000080800001818000000486C2412000000D5
:1031D00000000000000000000000002424247F12F2
:1031E00012127F12121200000000081C2A2A0A0C78
:1031F0001828282A2A1C0808000000222515151561
:103200002A585454542200000000000C1212120AD2
:1032100076252911916E00000006060403000000C7
:103220000000000000000000004020101008080806
:1032300008080810102040000002040808101010B0
:1032400010101008080402000000000008086B1CA1
:103250001C6B0808000000000000000008080808B7
:103260007F080808080000000000000000000000BF
:10327000000000000606040300000000000000003B
:10328000FE00000000000000000000000000000040
:1032900000000000060600000000804040202010D2
:1032A00010080804040202000000001824424242F0
:1032B0004242424224180000000000080E0808089C
:1032C00008080808083E00000000003C4242422076
:1032D00020100804427E00000000003C42422018FA
:1032E00020404042221C00000000002030282424FE
:1032F00022227E20207800000000007E0202021AB6
:1033000026404042221C0000000000382402021A1D
:1033100026424242241800000000007E22221010A3
:1033200008080808080800000000003C4242422447
:1033300018244242423C000000000018244242424D
:1033400064584040241C00000000000000001818D1
:103350000000000018180000000000000000000835
:1033600000000000000808040000004020100804CD
:1033700002040810204000000000000000007F0050
:1033800000007F0000000000000000020408102080
:1033900040201008040200000000003C4242464069
:1033A00020101000181800000000001C225A55556B
:1033B00055552D42221C0000000000080818141466
:1033C000243C224242E700000000001F2222221E6D
:1033D00022424242221F00000000007C42420101C2
:1033E00001010142221C00000000001F2242424253
:1033F00042424242221F00000000003F4212121EC1
:1034000012120242423F00000000003F4212121E10
:1034100012120202020700000000003C22220101F9
:1034200001712122221C0000000000E742424242BA
:103430007E42424242E700000000003E08080808C1
:1034400008080808083E00000000007C101010105A
:10345000101010101010110F0000007722120A0E29
:103460000A12122222770000000000070202020264
:1034700002020202427F0000000000773636363634
:103480002A2A2A2A2A6B0000000000E346464A4AFC
:1034900052525262624700000000001C224141412A
:1034A00041414141221C00000000003F4242424293
:1034B0003E020202020700000000001C22414141BE
:1034C00041414D53321C60000000003F4242423EE9
:1034D0001212222242C700000000007C4242020475
:1034E00018204042423E00000000007F49080808C2
:1034F00008080808081C0000000000E74242424299
:1035000042424242423C0000000000E74242222484
:1035100024141418080800000000006B49494949A8
:103520005555362222220000000000E742242418CC
:103530001818242442E70000000000772222141407
:1035400008080808081C00000000007E2120101058
:1035500008040442423F00000078080808080808F0
:103560000808080808087800000002020404080897
:103570000810102020204040001E101010101010C5
:103580001010101010101E00003844000000000041
:10359000000000000000000000000000000000002B
:1035A00000000000000000FF00060800000000000E
:1035B0000000000000000000000000000000003CCF
:1035C0004278444242FC0000000000030202021A5A
:1035D00026424242261A0000000000000000003887
:1035E000440202024438000000000060404040787D
:1035F0004442424264D80000000000000000003C49
:10360000427E0202423C0000000000F08808087E72
:1036100008080808083E0000000000000000007CC8
:1036200022221C023C42423C000000030202023AF9
:103630004642424242E700000000000C0C00000E2F
:1036400008080808083E000000000030300000387C
:10365000202020202020221E0000000302020272EF
:10366000120A1612227700000000000E080808084F
:1036700008080808083E0000000000000000007F65
:103680009292929292B70000000000000000003B6E
:103690004642424242E70000000000000000003CB9
:1036A00042424242423C0000000000000000001B79
:1036B00026424242221E020700000000000000785D
:1036C00044424242447840E000000000000000779D
:1036D0004C040404041F0000000000000000007CF3
:1036E00042023C40423E0000000000000008083E4C
:1036F000080808080830000000000000000000630F
:103700004242424262DC000000000000000000E78C
:10371000422424140808000000000000000000EB10
:1037200049495555222200000000000000000076A3
:1037300024181818246E000000000000000000E7A4
:103740004224241418080807000000000000007E2E
:1037500022100808447E000000C0202020202010F5
:10376000202020202020C000101010101010101059
:10377000101010101010101000060808080808108B
:1037800008080808080806000C32C2000000000003
:103790000000000000000000000080C040602030F9
:1037A00010190B0E040000000000000000000000D3
:1037B0000000000000000000000000000000000009
:1037C00000000000000000000000000000000000F9
:1037D00000000000000000000000000000000000E9
:1037E00060006000600060006000600060004000F9
:1037F00020002000200000000000000060006000A9
:10380000600000000000000000000000600660068C
:103810003003980188004400000000000000000010
:103820000000000000000000000000000000000098
:103830000000000000000000000000000000000088
:103840001002100210021002FE07FE070802080113
:10385000080108010801FE07FE0704010401040134
:103860000401000000000000000000000000400013
:103870004000F00158034C03CC034C00580070008A
:10388000E000C001C00140034C035C034C0348014D
:10389000F0004000400000000000000000000000B8
:1038A0000E010A01910091009100510051003A006F
:1038B000AE03A002500450044804480448048402A3
:1038C0008403000000000000000000000000000071
:1038D00038006C006C006C006C006C002C009807C9
:1038E0001C011A01330133016301E300C308C60957
:1038F0003C07000000000000000000000C001C005D
:10390000100010000800040000000000000000008B
:1039100000000000000000000000000000000000A7
:103920000000000000000000000000000004000291
:1039300000018000800040004000200020002000A6
:103940002000200020002000400040008000800077
:10395000000100020004000000000000020004005A
:10396000080010001000200020004000400040002F
:1039700040004000400040002000200010001000E7
:103980000800040002000000000000000000000029
:10399000000000004000C0004000460C4E0FD00167
:1039A000F0015E0F460C40004000400000000000A7
:1039B0000000000000000000000000000000000007
:1039C00000000000000040004000400040004000B7
:1039D000FE0F40004000400040004000000000009A
:1039E00000000000000000000000000000000000D7
:1039F00000000000000000000000000000000000C7
:103A00000000000000000000000000000C001C008E
:103A1000100010000800040000000000000000007A
:103A20000000000000000000000000000000000096
:103A3000FE07000000000000000000000000000081
:103A40000000000000000000000000000000000076
:103A50000000000000000000000000000000000066
:103A60000000000000000000000000001C001C001E
:103A70001C00000000000000000000000004000620
:103A800000020003000100018000800040004000AF
:103A900060002000200010001000080008000C004A
:103AA000040006000200000000000000000000000A
:103AB0000000F00098010C030C030606060606063B
:103AC000060606060606060606060C030C03980103
:103AD000F0000000000000000000000000000000F6
:103AE000000040007C00600060006000600060003A
:103AF00060006000600060006000600060006000C6
:103B0000FC030000000000000000000000000000B6
:103B10000000F8008401020306030603000300010D
:103B20008001C000600020001000080204020602AC
:103B3000FE03000000000000000000000000000084
:103B400000007800C6008601860180018001C00067
:103B500070008001000100030003060306038601D4
:103B6000F80000000000000000000000000000005D
:103B7000000080018001C001A001A0019001880126
:103B8000880184018201FE0F800180018001800193
:103B9000E00700000000000000000000000000003E
:103BA0000000FC0304000400040004000400F4000E
:103BB0008C01040300030003060306038201840151
:103BC000F8000000000000000000000000000000FD
:103BD0000000E00118030C030C0004000600E601DD
:103BE00016030E0606060606060604060C02180351
:103BF000F0000000000000000000000000000000D5
:103C00000000F8070C060402040100010001800016
:103C100080004000400040006000600060006000E4
:103C20006000000000000000000000000000000034
:103C30000000F8010C030606060606060C021C032B
:103C4000F000C8010C0306060606060606060C036D
:103C5000F001000000000000000000000000000073
:103C60000000F0000C010C0306020606060606061C
:103C700006078C0678060006000300030C018C0181
:103C800078000000000000000000000000000000BC
:103C9000000000000000000000000000E000E00064
:103CA000E00000000000000000000000E000E00074
:103CB000E000000000000000000000000000000024
:103CC0000000000000000000000000006000600034
:103CD0000000000000000000000000000000600084
:103CE00060004000200020000000000000000000F4
:103CF00000040002000180004000200010000800C5
:103D000004000800100020004000800000010002B4
:103D1000000400000000000000000000000000009F
:103D2000000000000000000000000000FE0700008E
:103D300000000000FE07000000000000000000007E
:103D40000000000000000000000000000000000073
:103D50000400080010002000400080000001000264
:103D60000004000200018000400020001000080054
:103D7000040000000000000000000000000000003F
:103D80000000E0031806040C040C0C0C0C0C0007DB
:103D9000800140004000400000000000E000E00022
:103DA000E000000000000000000000000000000033
:103DB000E00018030C02CC0564056605A605B604F0
:103DC000B604B604B604B602E4010C040C021803EF
:103DD000F0000000000000000000000000000000F3
:103DE0000000600060005000D0009000900088004B
:103DF00088010801F8010403040304020202020618
:103E00000F0F000000000000000000000000000094
:103E10000000FE008C030C030C030C030C038C014C
:103E2000FC000C030C020C060C060C060C060C0322
:103E3000FE01000000000000000000000000000083
:103E40000000E00318030C060C040404060006003E
:103E5000060006000600060006040C040C02180307
:103E6000F000000000000000000000000000000062
:103E700000007F008C010C030C030C060C060C06E2
:103E80000C060C060C060C060C060C030C038C012D
:103E90007F000000000000000000000000000000A3
:103EA0000000FF03060306040604060086008600E1
:103EB000FE00860086008600060006040604060250
:103EC000FF030000000000000000000000000000F0
:103ED0000000FF03060306040604060086008600B1
:103EE000FE0086008600860006000600060006002A
:103EF0001F000000000000000000000000000000A3
:103F00000000F00018010C020C020402060006007A
:103F100006000600C60F060306030C030C03180375
:103F2000F0000000000000000000000000000000A1
:103F300000000F0F0606060606060606060606061B
:103F4000FE07060606060606060606060606060618
:103F50000F0F000000000000000000000000000043
:103F60000000FC0360006000600060006000600012
:103F70006000600060006000600060006000600041
:103F8000FC03000000000000000000000000000032
:103F90000000F807C000C000C000C000C000C000A2
:103FA000C000C000C000C000C000C000C000C00011
:103FB000C000C60066003C000000000000000000D9
:103FC0000000CF038601C60046002600160036001A
:103FD0002E006E004600C60086008601060106031C
:103FE0008F0700000000000000000000000000003B
:103FF00000001F000600060006000600060006007E
:104000000600060006000600060006040604060276
:10401000FF0300000000000000000000000000009E
:1040200000000707860386038E038E034E034E03AC
:104030004A035A035A033A03320332033203120388
:1040400087070000000000000000000000000000E2
:1040500000008E0F0C021C021C02340234026402A7
:1040600064024402C402840284038403040304033C
:104070001F0200000000000000000000000000001F
:104080000000F00098010C030C0206060606060666
:10409000060606060606060606060C020C0398012E
:1040A000F000000000000000000000000000000020
:1040B0000000FF00060306060606060606060606BC
:1040C0008603FE0006000600060006000600060045
:1040D0001F000000000000000000000000000000C1
:1040E0000000F00098010C030C0206060606060606
:1040F000060606060606060676064C02CC0398015E
:10410000F000800700030000000000000000000035
:104110000000FF010603060606060606060606035D
:10412000FE004600C600860086010603060306065A
:104130000F0E000000000000000000000000000062
:104140000000F8020C030602060206000E003C0006
:10415000F800E003800300070206020606060C03CF
:10416000F00100000000000000000000000000005E
:104170000000FE07620461086108600060006000E2
:10418000600060006000600060006000600060002F
:10419000F801000000000000000000000000000026
:1041A00000001E070C020C020C020C020C020C0296
:1041B0000C020C020C020C020C020C020C02180184
:1041C000F0000000000000000000000000000000FF
:1041D00000000F070602040104010C010C01880015
:1041E00088009800980050005000700030002000B7
:1041F000200000000000000000000000000000009F
:104200000000F70E6204420446044604640264029D
:10421000E402E4029C029C01980198018801880054
:104220008800000000000000000000000000000006
:1042300000009E070C01080118019000B00060000A
:10424000200060006000D000900088010801040395
:104250008E070000000000000000000000000000C9
:1042600000000F0F060404020C0208011801B80038
:10427000B0007000600060006000600060006000DE
:10428000F801000000000000000000000000000035
:104290000000FC070C0206030201800180004000C0
:1042A0004000200020001000180008040C04040244
:1042B000FE0300000000000000000000E0032000FA
:1042C00020002000200020002000200020002000EE
:1042D00020002000200020002000200020002000DE
:1042E00020002000E00300000000000000000000AB
:1042F0000400040008000800100010001000200056
:10430000200040004000C00080008000000100014B
:104310000002000200020004000000007C004000D7
:10432000400040004000400040004000400040008D
:10433000400040004000400040004000400040007D
:10434000400040007C000000000060009000080178
:10435000000000000000000000000000000000005D
:10436000000000000000000000000000000000004D
:10437000000000000000000000000000000000003D
:10438000000000000000000000000000000000002D
:10439000000000000000000000000000000000001D
:1043A000000000000000FF0F000000001800600087
:1043B00000000000000000000000000000000000FD
:1043C00000000000000000000000000000000000ED
:1043D00000000000000000000000000000000000DD
:1043E000000000000000000000000000F0010C03CD
:1043F0000C030003E0031C030E03060306038E0BED
:104400007C0E000000000000000000000000000022
:1044100008000E000C000C000C000C00CC013C034A
:104420001C060C060C060C060C060C060C021C03E3
:10443000E401000000000000000000000000000097
:10444000000000000000000000000000F0008C01EF
:104450008C01860106000600060006020C020C0113
:10446000F00000000000000000000000000000005C
:104470000002C003000300030003000378038C0361
:104480000C030603060306030603060304038C0756
:1044900078010000000000000000000000000000A3
:1044A000000000000000000000000000E001180310
:1044B00008020C060C06FC070C000C00180418027D
:1044C000E00100000000000000000000000000000B
:1044D0000000C0036006300630003000FE013000EE
:1044E000300030003000300030003000300030004C
:1044F000FC010000000000000000000000000000BF
:10450000000000000000000000000000F007D806D6
:104510008C018C018C019801F8000C00FC00CC038C
:10452000060306038E03F8000000000000000000F0
:1045300008000E000C000C000C000C00EC011C0329
:104540000C030C030C030C030C030C030C030C03F3
:104550009E070000000000000000000000000000B6
:104560000000600060000000000040007C0060006F
:10457000600060006000600060006000600060003B
:10458000FC0300000000000000000000000000002C
:104590000000C001C001000000000001F001800126
:1045A0008001800180018001800180018001800103
:1045B00080018001CC007C000000000000000000B1
:1045C00008000E000C000C000C000C008C038C008A
:1045D0008C004C006C005C008C008C010C010C0306
:1045E0009E07000000000000000000000000000026
:1045F00040007C00600060006000600060006000BF
:1046000060006000600060006000600060006000AA
:10461000FC0300000000000000000000000000009B
:104620000000000000000000000000003707EE0658
:10463000660666066606660666066606660666061A
:10464000FF0F00000000000000000000000000005C
:10465000000000000000000000000000EE011C034C
:104660000C030C030C030C030C030C030C030C03D2
:104670009E07000000000000000000000000000095
:10468000000000000000000000000000F0009801A1
:104690000C03060606060606060606060C030C03B1
:1046A000F00000000000000000000000000000001A
:1046B000000000000000000000000000EE011C03EC
:1046C0000C060C060C060C060C060C060C031C0350
:1046D000EC010C000C003E00000000000000000097
:1046E00000000000000000000000000078028C03C1
:1046F0000C030603060306030603060304038C03E8
:10470000780300030003C007000000000000000061
:104710000000000000000000000000009F03580699
:1047200038061800180018001800180018001800A3
:10473000FF0000000000000000000000000000007A
:10474000000000000000000000000000F0031C0357
:104750000C020C023800F000C003040304038C03B5
:10476000FC0100000000000000000000000000004C
:10477000000000002000200030003000FE0130006A
:1047800030003000300030003000300030023002A5
:10479000E001000000000000000000000000000038
:1047A0000000000000000000000008028E030C035F
:1047B0000C030C030C030C030C030C030C039C07ED
:1047C0007801000000000000000000000000000070
:1047D0000000000000000000000000001E070C02A6
:1047E0000801080118019000B000B00060006000EE
:1047F0002000000000000000000000000000000099
:10480000000000000000000000000000F70E62043D
:10481000460464026402EC029C019801980198012C
:104820000800000000000000000000000000000080
:10483000000000000000000000000000BC0718019C
:104840001001B00060006000E00090000801080363
:104850009E070000000000000000000000000000B3
:104860000000000000000000000000009E0708019A
:104870000801080190009000B00060006000600036
:104880002000200024001C000000000000000000A8
:10489000000000000000000000000000FC01840196
:1048A000C4004400600020003000180208020C031D
:1048B000FC01000000000000000000000003800078
:1048C0008000800080008000800080008000400028
:1048D0002000400080008000800080008000800078
:1048E00080008000000300004000400040004000C5
:1048F00040004000400040004000400040004000B8
:1049000040004000400040004000400040004000A7
:104910004000400040004000000000000C0010007B
:1049200010001000100010001000100010002000F7
:1049300040002000100010001000100010001000B7
:10494000100010000C00000000001C002204C20433
:1049500080030000000000000000000000000000D4
:104960000000000000000000000000000000000047
:104970000000000000000000000000000000000037
:104980000000000000000000000000000000000027
:104990000000000000000000000000000000000017
:1049A0000000000000000000000000000000000007
:1049B00000000000000000000000000000000000F7
:1049C0000000C001C001C001C001C001C001C001A0
:1049D0008000800080008000800080008000000057
:1049E0000000000000008001C003C003800100003F
:1049F0000000000000000000000000000000E01CBB
:104A0000E01CF01E700E3807180308018400000037
:104A10000000000000000000000000000000000096
:104A20000000000000000000000000000000000086
:104A30000000000000000000000000000000000076
:104A40000000000020102010201020102010FE7FF9
:104A5000FE7F100810081008100810081008100831
:104A6000FE7FFE7F08040804080408040804000010
:104A70000000000000000000000000000000000036
:104A800000010001C00760191031183118391839B8
:104A900038017001E001C0038007000F001D0039DC
:104AA00000311C311C310C310C11180DE0070001D4
:104AB00000010001000000000000000000000000F4
:104AC000000000001C1036186308630C63046304C4
:104AD000630263026301361D9C378022806340635A
:104AE000406320632063306310221836081C0000E6
:104AF00000000000000000000000000000000000B6
:104B000000000000F00098018C018C018C018C01E8
:104B10008C00CC007800183E1C083608320863046C
:104B20006304C304C303834306438E26781C00003A
:104B300000000000000000000000000000001C0059
:104B40003C003C003000300010000C00060000006B
:104B50000000000000000000000000000000000055
:104B60000000000000000000000000000000000045
:104B700000000000000000000000000000000040F5
:104B8000002000100008000C0004000600030003D1
:104B9000000380018001800180018001800180018B
:104BA000800100030003000300060006000C00085B
:104BB0000010002000400000000000000000020083
:104BC000040008001000300020006000C000C00099
:104BD000C00080018001800180018001800180018E
:104BE0008001C000C000C000600060003000100004
:104BF00008000400020000000000000000000000A7
:104C0000000000000000000000018003800300019C
:104C10001C713C79783DC0070001C007783D3C79A4
:104C20001C7100018003800380010000000000006F
:104C30000000000000000000000000000000000074
:104C40000000000000000000000000010001000161
:104C50000001000100010001FC7F000100010001D2
:104C60000001000100010001000000000000000040
:104C70000000000000000000000000000000000034
:104C80000000000000000000000000000000000024
:104C90000000000000000000000000000000000014
:104CA00000000000000000001C003C003C00300040
:104CB000300010000C0006000000000000000000A2
:104CC00000000000000000000000000000000000E4
:104CD0000000000000000000FE7F00000000000057
:104CE00000000000000000000000000000000000C4
:104CF00000000000000000000000000000000000B4
:104D000000000000000000000000000000000000A3
:104D10000000000000000000000000000000000093
:104D200000000000000018003C003C0018000000DB
:104D30000000000000000000000000000000004033
:104D4000006000200030001000180008000C000473
:104D5000000600020003000180018000C000400046
:104D60006000200030001000180008000C00040053
:104D7000060002000000000000000000000000002B
:104D800000000000C007600C3018183018301820E0
:104D90000C600C600C600C600C600C600C600C60B3
:104DA0000C601820183018303018600CC007000054
:104DB00000000000000000000000000000000000F3
:104DC0000000000000018001F801800180018001E5
:104DD00080018001800180018001800180018001CB
:104DE00080018001800180018001C003F81F000064
:104DF00000000000000000000000000000000000B3
:104E000000000000E007101C0818043004300C30CB
:104E10000C3000300018000800040002000180007F
:104E200040002020102008200430FC1FFC1F000040
:104E30000000000000000000000000000000000072
:104E400000000000E003180E0C0C0C180C180C18D5
:104E50000018000C0006C003000E001800100030FF
:104E600000300C300C300C100C18180CE003000053
:104E70000000000000000000000000000000000032
:104E800000000000000C000E000E000F800E800ECF
:104E9000400E600E200E100E100E080E040E040EB2
:104EA000FE7F000E000E000E000E000E000EC07FF2
:104EB00000000000000000000000000000000000F2
:104EC00000000000F03FF03F10001000100008004C
:104ED0000800C807280C18180810003000300030EF
:104EE00000300C300C3004180418080CF0030000DB
:104EF00000000000000000000000000000000000B2
:104F000000000000800FC010203010301800180082
:104F100008000C008C0F6C183C301C600C600C609E
:104F20000C600C601860182030306018C00700005A
:104F30000000000000000000000000000000000071
:104F400000000000F83FF83F1C100C08040804049F
:104F50000004000200020001000100018000800046
:104F60008000C000C000C000C000C000C000000041
:104F70000000000000000000000000000000000031
:104F800000000000E007300C18180C300C300C301A
:104F90001C3038187008E007B007180E0C1C0638D3
:104FA00006300630063006300C18180CE0030000FE
:104FB00000000000000000000000000000000000F1
:104FC00000000000E00318040C080C18061006305E
:104FD00006300630063006380C3C1836F03100300A
:104FE0000018001800180C0C0C060C03F00100004F
:104FF00000000000000000000000000000000000B1
:1050000000000000000000000000000000000000A0
:1050100000008001C003C003800100000000000008
:105020000000000000008001C003C00380010000F8
:105030000000000000000000000000000000000070
:105040000000000000000000000000000000000060
:105050000000C000C00000000000000000000000D0
:1050600000000000000000000000C000C000800040
:105070008000400040000000000000000000000030
:10508000000000200010000800040006000380015A
:10509000C0006000300018000C00180030006000F4
:1050A000C00080010003000600040008001000207A
:1050B00000000000000000000000000000000000F0
:1050C00000000000000000000000000000000000E0
:1050D0000000FE7F00000000000000000000FE7FD6
:1050E00000000000000000000000000000000000C0
:1050F00000000000000000000000000000000000B0
:10510000000004000800100020006000C0008001C2
:1051100000030006000C001800300018000C000608
:1051200000038001C000600020001000080004009F
:10513000000000000000000000000000000000006F
:105140000000C0073018083008600C601C601C604C
:105150001C600030001C0006000180008000800000
:105160008000000000008001C003C0038001000037
:10517000000000000000000000000000000000002F
:1051800000000000C0076018103018200C2F8C4D54
:10519000864CC64CC64C664C6644664466266626FB
:1051A0006615CC1C0C40082018303018C0070000D1
:1051B00000000000000000000000000000000000EF
:1051C00000000001C001C001C001400160032003D4
:1051D000200320033006100610061006F80F080CF6
:1051E000080C080C0C0C0418041806181F7C00008E
:1051F00000000000000000000000000000000000AF
:1052000000000000FE07181C18381830183018303D
:1052100018301818180CF8071818183018201860CB
:10522000186018601860186018301818FE0F000019
:10523000000000000000000000000000000000006E
:1052400000000000C0276038103018200C400C40CF
:105250000400060006000600060006000600060020
:1052600006000C400C400C2018303018C00700001D
:10527000000000000000000000000000000000002E
:1052800000000000FE03180E1818183018301830EF
:10529000186018601860186018601860186018604E
:1052A00018601830183018101818180EFE03000077
:1052B00000000000000000000000000000000000EE
:1052C00000000000FE3F1830182018601840180039
:1052D00018081808180CF80F180C180818081800E7
:1052E000180018001840184018201830FE3F000021
:1052F00000000000000000000000000000000000AE
:1053000000000000FE7F1870184018C018801800B8
:10531000181018101818F81F18181810181018005E
:105320001800180018001800180018007E0000006F
:10533000000000000000000000000000000000006D
:1053400000000000C013701C101018100C200C205E
:1053500004000600060006000600060006FC0630F3
:1053600006300C300C30183018303008C007000000
:10537000000000000000000000000000000000002D
:10538000000000003F7E0C180C180C180C180C18AC
:105390000C180C180C180C18FC1F0C180C180C18F6
:1053A0000C180C180C180C180C180C183F7E000068
:1053B00000000000000000000000000000000000ED
:1053C00000000000F81F8001800180018001800141
:1053D00080018001800180018001800180018001C5
:1053E000800180018001800180018001F81F0000A0
:1053F00000000000000000000000000000000000AD
:1054000000000000E07F000600060006000600061F
:10541000000600060006000600060006000600065C
:10542000000600060006000600060006000600064C
:105430000E060E038E01FC000000000000000000BC
:10544000000000007E7C18181808180418061802BE
:10545000180198019801D801B803380318071806F5
:10546000180E180C181C1818183018307EFC000084
:10547000000000000000000000000000000000002C
:10548000000000007E001800180018001800180026
:10549000180018001800180018001800180018004C
:1054A000180018001840184018201830FE3F00005F
:1054B00000000000000000000000000000000000EC
:1054C000000000001FF81C381C381C381C3C343409
:1054D0003434343434367432643264326432643195
:1054E000C431C431C431C430C43084309FFC0000A6
:1054F00000000000000000000000000000000000AC
:10550000000000001F7C1C103C103410341074107C
:105510006410E410C410C41184118413041304171C
:105520000416041E041C041C041C04181F1800008C
:10553000000000000000000000000000000000006B
:1055400000000000C003300C181808100C300C309C
:10555000066006600660066006600660066006601B
:1055600006600C200C3008101818300CC003000026
:10557000000000000000000000000000000000002B
:1055800000000000FE0F181818301860186018602E
:105590001860186018301818F80F18001800180054
:1055A0001800180018001800180018007E000000ED
:1055B00000000000000000000000000000000000EB
:1055C00000000000C003300C18180C100C300C2028
:1055D000066006600660066006600660066006609B
:1055E0000660E4612C331C321816300EC007004CE4
:1055F000007C0038000000000000000000000000F7
:1056000000000000FE07181C183818301830183039
:1056100018301818180CF8079803180318071806FC
:105620001806180E180C180C181C18187E78000094
:10563000000000000000000000000000000000006A
:1056400000000000E027303818300C200C200C003F
:105650000C0018007800E003800F001E0038007076
:10566000006004600460086018303818C80F00003B
:10567000000000000000000000000000000000002A
:1056800000000000FC3F8C21846182418241800146
:105690008001800180018001800180018001800102
:1056A000800180018001800180018001E00700000D
:1056B00000000000000000000000000000000000EA
:1056C000000000003F7C0C100C100C100C100C1093
:1056D0000C100C100C100C100C100C100C100C10EA
:1056E0000C100C100C100C1008083804E00300001B
:1056F00000000000000000000000000000000000AA
:10570000000000003EF8182018201820301030103B
:1057100030103010600860086008E00CC004C0045D
:10572000C0048003800380038003000100010000A7
:105730000000000000000000000000000000000069
:1057400000000000DFF38661862186218C210C2178
:105750008C238C138C138C134C1358125816580E20
:10576000380E380E380E300C1004100410040000EF
:105770000000000000000000000000000000000029
:10578000000000007E3E1808380830043004700223
:105790006002E001C001C0018001800340034007B6
:1057A00020062006100C100C081808183E7C00007B
:1057B00000000000000000000000000000000000E9
:1057C000000000007E7C1C10181018083008300CF7
:1057D000700460046002C002C002C0018001800148
:1057E000800180018001800180018001E0070000CC
:1057F00000000000000000000000000000000000A9
:1058000000000000F83F18180818040C040E0006E9
:105810000007000380038001C001C000E0006000B9
:1058200070003000382018201C100C18FE1F0000DB
:105830000000000000000000000000000000C03F69
:105840004000400040004000400040004000400058
:105850004000400040004000400040004000400048
:105860004000400040004000400040004000400038
:105870004000C03F000000000000000000000000E9
:105880000000080018001800100030002000600020
:1058900060004000C0008000800180010001000322
:1058A0000002000600060004000C000800180018A2
:1058B0000010003000200000000000000000FC0389
:1058C00000020002000200020002000200020002C8
:1058D00000020002000200020002000200020002B8
:1058E00000020002000200020002000200020002A8
:1058F0000002FC0300000000000000000000800720
:10590000C006200810100000000000000000000089
:105910000000000000000000000000000000000087
:105920000000000000000000000000000000000077
:105930000000000000000000000000000000000067
:105940000000000000000000000000000000000057
:105950000000000000000000000000000000000047
:105960000000000000000000000000000000000037
:10597000000000000000FFFF0000000000007800B1
:10598000C000000100000000000000000000000056
:105990000000000000000000000000000000000007
:1059A00000000000000000000000000000000000F7
:1059B00000000000000000000000000000000000E7
:1059C00000000000000000000000000000000000D7
:1059D0000000F00318060C0C0C0C000C800F700C6F
:1059E0001C0C0C0C060C060C064C0C4FF838000076
:1059F00000000000000000000000000000000000A7
:105A0000000010001E0018001800180018001800F0
:105A10001800180FD81838303860186018601860EF
:105A2000186018601860182038307818C80700000F
:105A30000000000000000000000000000000000066
:105A40000000000000000000000000000000000056
:105A50000000C007700C181818180C180C000C0067
:105A60000C000C000C20182018103008C007000093
:105A70000000000000000000000000000000000026
:105A800000000010001E0018001800180018001870
:105A90000018E01B301C181818180C180C180C18DB
:105AA0000C180C180C180818181C307AE0090000A3
:105AB00000000000000000000000000000000000E6
:105AC00000000000000000000000000000000000D6
:105AD0000000C007300C181808100C300C30FC3FC8
