:020000040800F2
:1000000048080020F1010008291B000861160008BB
:10001000251B0008ED0F00085D2700080000000008
:1000200000000000000000000000000003020008C3
:10003000A9110008000000000702000809020008DA
:100040000B0200080B0200080B0200080B0200085C
:100050000B0200080B020008AD1100080B0200089B
:100060000B0200080B0200080B0200080B0200083C
:100070000B0200080B0200080B0200080B0200082C
:100080000B0200080B0200080B0200080B0200081C
:100090000B0200080B0200080B020008691200089E
:1000A0000B0200080B0200080B0200080B020008FC
:1000B000691F0008892000089D2000080B02000825
:1000C0000B0200080B0200080B0200080B020008DC
:1000D0000B020008B52500080B0200080B020008FF
:1000E000C91100080B0200080B0200080B020008EF
:1000F0000B0200080B0200080B0200080B020008AC
:100100000B0200080B0200080B0200080B0200089B
:100110000B0200080B0200080B0200080B0200088B
:100120000B0200080B0200080B0200080B0200087B
:1001300000F002F800F04DF80AA090E8000C8244AC
:100140008344AAF10107DA4501D100F042F8AFF289
:10015000090EBAE80F0013F0010F18BFFB1A43F0A5
:1001600001031847507F0000707F0000103A24BF41
:1001700078C878C1FAD8520724BF30C830C144BF0C
:1001800004680C607047000000230024002500264E
:10019000103A28BF78C1FBD8520728BF30C148BFEA
:1001A0000B607047662907F0BE80642900F09A80D2
:1001B000782900F0D380002070471FB500F0E4FCE0
:1001C00004000020002106F001F9E0601FBD10B519
:1001D00010BD00F0DDFD1146FFF7EFFF04F0F2F86F
:1001E00000F0FBFD03B4FFF7F2FF03BC03F01AFBC2
:1001F0000948804709480047FEE7FEE7FEE7FEE7BB
:10020000FEE7FEE7FEE7FEE7FEE7FEE704480549F6
:10021000054A064B70470000111E00083101000816
:10022000480200204808002048040020480400201C
:10023000704710B54C1084EA530404D54042C1F114
:10024000000138BF491E1B4204D55242C3F10003CE
:1002500038BF5B1E00F090F914F0804F04D040428C
:10026000C1F1000138BF491E14F0004F04D05242C2
:10027000C3F1000338BF5B1E10BD00000FB404497A
:1002800010B503AA029800F06DFC10BC5DF814FBD9
:10029000D801002070B5044685690068C10601D503
:1002A000302600E02026C00707D070BDD4E9012128
:1002B00030469047206A401C20626D1EF6D570BD06
:1002C00070B5044685690078C00707D170BDD4E9D0
:1002D000012120209047206A401C20626D1EF6D527
:1002E00070BD00002DE9F041064600241068752914
:1002F000314616A510D0AFF30080002802DA404244
:1003000013A507E031688A0701D512A502E0490765
:1003100004D511A5012401E0AFF3008000210A22D9
:1003200006F1240709E0B0FBF2FCB0FBF2F302FB9C
:100330001C00303078541846491C0028F3D123465D
:100340002A463046BDE8F04100F08DB900000000BB
:100350002D0000002B0000002000000070B50446B6
:100360000D4621461068AFF300802188090502D5AB
:100370000F4A7A4402E00E4A7A440E32002104F118
:10038000240305E000F00F060009965D5E54491C49
:100390000028F7D120780023000704D5702D02D063
:1003A00009B1022311322046BDE8704000F05BB96C
:1003B000B46F00002DE9F05F894604464FF0000A53
:1003C000DFF824B1FB44C0F820A02046E16888474C
:1003D00000287DD0252806D0D4E901219047206A45
:1003E000401C2062F1E700255F462046E16888470F
:1003F0002028064607DB312E05D2B81910F8200C4C
:1004000008B10543F1E7A80701D525F00405C4F8B4
:100410001CA00027C4F818A02A2E09D0304605F0E9
:10042000CEFF38B304EB8708303EC8F8186019E0F7
:1004300059F8041B204604EB87029161E168884764
:10044000012F064618D1E069002820DA25F02005A2
:100450001DE0D8F8180000EB800006EB40003038B3
:10046000C8F818002046E1688847064605F0A7FF4F
:100470000028EED1012F0AD02E2E08D12046E168A7
:1004800088477F1C0646022F45F02005C4DBA06983
:10049000002803DA404245F00105A061E80701D0D9
:1004A00025F01005A6B1A6F14100192802D8203682
:1004B00045F400654A463146204625604D46FFF723
:1004C00071FE60B1012807D0ED1D25F0070000E0A6
:1004D00007E000F1080978E705F1040975E73046FF
:1004E0007AE7206ABDE8F09F8A6F000010B50446E5
:1004F00003E003F081FD401C09D014F8010B05490D
:100500000028F6D1BDE810400A2003F075BD4FF079
:10051000FF3010BDD801002040EA010310B59B0751
:100520000FD1042A0DD310C808C9121F9C42F8D05D
:1005300020BA19BA884201D9012010BD4FF0FF300E
:1005400010BD1AB1D30703D0521C07E0002010BD24
:1005500010F8013B11F8014B1B1B07D110F8013BB0
:1005600011F8014B1B1B01D1921EF1D1184610BD91
:10057000704770477047704753EA020C00F069807B
:100580002DE9F04B4FF00006002B1FBFB3FA83F5A7
:1005900003FA05F424FA05F65E4012BF1643B2FAD8
:1005A00082F502FA05F4C5F120051EBF22FA05FC0A
:1005B00044EA0C04203556EA044C4FEA144418BFB0
:1005C000641C4FF000084FF00009904271EB030CDF
:1005D00039D3002919BFB1FA81F701FA07F6B0FA49
:1005E00080F700FA07F6C7F120071EBF20FA07FCC4
:1005F00046EA0C062037B6FBF4FCA7EB0507103FD4
:1006000007F01F0BCBF120062CFA06F60CFA0BFBB9
:1006100044BFB3460026202FA4BF5E464FF0000B18
:100620005BEA060C08BF4FF0010B19EB0B0948EB16
:100630000608ABFB027C06FB02CC0BFB03CCC01B09
:1006400071EB0C01C1E70B46024641464846BDE846
:10065000F08B13B54FF000004FF00001AFF30080B6
:10066000BDE81C4070472DE9F0470D46994692467B
:10067000044600F124080168880604D5E06921F0E9
:100680001001216000E00120A84201DD471B00E0CD
:100690000027A1697A1902EB0900081AA0612078E5
:1006A000C00602D42046FFF7F5FD002608E0D4E995
:1006B00001211AF806009047206A401C761C20622F
:1006C0004E45F4DB2078C0060AD52046FFF7E2FD50
:1006D00006E0D4E9012130209047206A401C2062C6
:1006E000381EA7F10107F4DC07E0D4E9012118F86E
:1006F00005009047206A401C2062281EA5F10105D4
:10070000F3DC2046FFF7DCFD2078000602D502204E
:10071000BDE8F0870120FBE72DE9FF4F0C461E46A0
:100720004FF0FF378BB0D2E90001DDF860800A900E
:100730008A46C1F30A5505B93D46002108464FF0E7
:100740000000BAF1000F00F4400005DA00EB800071
:100750004FF4400101EA50004FEA9059B9F1010FFE
:1007600000DDB9460A9850EA4A000ED044F610500F
:10077000A5F2FF3545432F14B8F1000F1ED0754286
:10078000291E1EDDC9F100021CE0B8F1010F4FF077
:10079000000001D0302103E0F24305E02154401C69
:1007A000B042FBDB30460022002121540B99C1F8F6
:1007B0000880C1E900200FB0BDE8F08FBD1B6D1CA3
:1007C000DEE74A4600DA694206A800F067FA06AB9F
:1007D00093E8070003AB83E8070050460A9905F049
:1007E00012FA8DE80700A0F500501F38009003981A
:1007F000002D0ADD42F21F014A460844002303A9E6
:100800000390684605F07BFC09E0A0F500504A46DD
:100810001F38002303A90390684605F085FC8DE886
:1008200007000004000C03D04FF0FF30410800E047
:100830001046B8F1000F03D00022009215461EE0CA
:10084000751E05D400F0A4F9303262556D1EF9D53D
:10085000B3460122084302D000227F1C04E0207826
:10086000302801D100227F1E002A099784D01DE084
:10087000112D07DA00F08CF9303262556D1C50EA08
:100880000102F5D1084302D00098C8B10EE0002162
:10089000681E05E0235C625C63542254401E491CC0
:1008A0008142F7DBAB46A81B401E0990002004F8EC
:1008B0000B000B98099AC0F80880C0E9002B7AE772
:1008C00011264FF0000857E72DE9F04F88460446FF
:1008D000D21D22F0070191B0D1E90001CDE90A0152
:1008E00005F059FD02460B98C00F01D02D2007E0FE
:1008F0002068810701D52B2002E0202101EAC000F9
:10090000032A099001D0072A05DB03464146204609
:1009100000F084F90BE12078800601D5E06900E061
:100920000620B8F1650F814606D0B8F1660F18D0E1
:10093000B8F1670F70D131E00020B9F1110F0090CC
:1009400001DB112301E009F101030AAA01A90CA8A6
:10095000FFF7E2FEDDE90C70002609F10105834690
:1009600047E001204B4600904FF000470AAA01A93A
:100970000CA8FFF7D1FEDDE90DB00C995D4600260D
:1009800010B909F101000D18B9EB050003D4C0F14D
:10099000FF3609F10105A5EB09002BE0B9F1010FC4
:1009A00001DA4FF001090020B9F1110F009048461B
:1009B00001DD112300E003460AAA01A90CA8FFF7F4
:1009C000ABFEDDE90C704D4600268346207800071B
:1009D0000AD4AB4500DA5D4601A8012D04DD4119BA
:1009E00011F8011C302907D04F4502DA17F1040F26
:1009F00004DA012082460FE06D1EEEE7002F02DCD4
:100A0000ED1B3E4403E0781CA84200DD7D1CB81BB2
:100A100000F1010A4FF000472078000703D4AA45EF
:100A200001DB4FF0FF3A0021B7F1004F0DF1430811
:100A30008DF8431024D002202B23002F01DA7F42AF
:100A40002D230A21021EA0F1010000DC5FB197FBFB
:100A5000F1FC97FBF1F201FB1C7C17460CF1300C0A
:100A600008F801CDEEE7A8F101000370218809051F
:100A700001D5452100E06521A0F1010800F8011C25
:100A800009980FA9A1EB0807FF1D00B1012041192A
:100A900001EBEA70A1693844081A401EA061207871
:100AA000C00602D42046FFF7F5FB099828B1D4E927
:100AB00001219047206A401C20622078C00622D580
:100AC0002046FFF7E7FB1EE0002E04DBB34502DD06
:100AD00001A8805D00E03020D4E901219047206A20
:100AE000401C2062761CAAF101005FEA000A0AD1CC
:100AF00000F04AF8C0680168405CD4E901219047E1
:100B0000206A401C2062281EA5F10105DCDC07E0FC
:100B1000D4E9012118F8010B9047206A401C20629B
:100B2000381EA7F10107F3DC2046FFF7C9FB0320BD
:100B300011B041E601694A1C02610878704700B5AE
:100B40008FB0CDE901310021059105497944CDE906
:100B5000031011466846FFF72DFC0FB000BD0000E2
:100B6000E5FFFFFF074B70B50D467B44FFF7E7FF3E
:100B70000446284600F004F910B14FF0FF3070BD74
:100B8000204670BD8B34000000487047680000208C
:100B900030B5B0F10A0271F100034FEA900E4EEA4F
:100BA000817EB0EB0E0061EB91014FEA101E4EEA20
:100BB000017E10EB0E0041EB11114FEA102E4EEAB0
:100BC000016E10EB0E0041EB11214FEA104E4EEA80
:100BD000014E10EB0E0041EB1141401841F10001B4
:100BE0004FEAD00040EA41704FEAD1014FEA810458
:100BF00044EA907410EB800544EB01046D1944EB5A
:100C00000404521BA3414FF0000348BF0A3200D531
:100C100030BD401C41F1000130BD00002DE9F04124
:100C20001F46044603260168072A01F4006004DB1E
:100C300008B116A505E016A503E008B115A500E06A
:100C400015A521F010002060A069C01EA0610FB1A1
:100C5000401EA0612046FFF71DFB4FB1D4E90121E2
:100C600038469047206A401C2062C01C206206E083
:100C7000206AFAE7D4E9012115F8010B9047761EA6
:100C8000F8D22046FFF71CFBBDE8F0814E414E0034
:100C90006E616E00494E4600696E66002DE9F047B0
:100CA000814616468AB0354878440DC88DE80D0057
:100CB00032487844801C03AC0DC884E80D0041F62E
:100CC0009B300844372190FBF1F290FBF1F5A5F140
:100CD000800501FB12041B3C02D56442012000E0A8
:100CE0000020DFF898A080460027FA44AAF1BE0A47
:100CF0000EE0E0070AD03246684607EB47010123C1
:100D00000AEB810105F010FA8DE8070064107F1CE2
:100D1000002CEED1194F7F44AE3F19E0E80715D003
:100D200007EB04100DF1180A90E80E008AE80E0097
:100D3000C068F04201D1981908903246012306A9F3
:100D400003A805F0F1F903AB83E807006D10641CFC
:100D5000002DE3D14FF0010332466946B8F1000F90
:100D600003A802D005F0CBF901E005F0DDF9C9E9EF
:100D70000001C9F808200AB0BDE8F0873467000018
:100D8000007B00F08000704700487047480000205A
:100D90007546FFF7F9FFAE4605006946534620F059
:100DA0000700854618B020B5FFF730FABDE82040AF
:100DB0004FF000064FF000074FF000084FF0000B17
:100DC000AC46ACE8C009ACE8C009ACE8C009ACE886
:100DD000C00921F007018D46704710B50446AFF3F6
:100DE00000802046BDE81040FFF7FCB94FF0013C01
:100DF00050F8042B51F8043B9A4221D1A2EB0C038A
:100E0000934313EACC1317D150F8042B51F8043B49
:100E10009A4215D1A2EB0C03934313EACC130BD1E6
:100E200050F8042B51F8043B9A4209D1A2EB0C0371
:100E3000934313EACC13DBD04FF00000704700BFA0
:100E4000D01A01BAB1FA81F101F0180122FA01F0C9
:100E5000CB40DBB2C0B2C01AC1F120012CFA01F3C1
:100E6000D11A914311EAC311E6D170478268002973
:100E700042F0010308BF22F00103836070470000C5
:100E800080B543F60041C4F20101884214D042F615
:100E90000001C4F20101884216D042F20041C4F2BE
:100EA0000101884218BF80BD4FF40070012100F09D
:100EB00099FE4FF400700EE04FF40040012100F065
:100EC00091FE4FF4004006E04FF48060012100F0F5
:100ED00089FE4FF480600021BDE8804000F082BEB2
:100EE0008068C0F380007047C06C80B2704700001B
:100EF0000068084018BF0120704700008068C0F3F8
:100F0000C000704780B54FF6FF634268CFF6F073BC
:100F100002EA030CD1E9003243EA0C0343EA02225D
:100F20004FF2FD734260CFF6F173826802EA030E5E
:100F3000D1E902C30A6942EA0E021A4342EA4C02AC
:100F40008260C26A097D013922F47002C9B242EAA4
:100F50000151C16280BD000010B501EB410C0929AF
:100F600088BFACF11E0C092903FA0CFE4FF00703F1
:100F700003FA0CFC4FF0100388BF0C23062AC45858
:100F800024EA0C0444EA0E04C45003D834306FF051
:100F9000040307E00C2A87BF2C306FF04003303089
:100FA0006FF0220302EB82021A441F23914003FADE
:100FB00002F2036823EA02021143016010BD00003F
:100FC000816841F008018160704700008268002953
:100FD00042F4A00308BF22F4A0038360704700001E
:100FE000816841F00401816070470000FEE7000065
:100FF000411EC8B2092802D90020C0B2704740F291
:10100000A80024220929C2F200000270F4D8DFE807
:1010100001F0050A0F14191E23282E3405214171F1
:101020000620C0B27047092141720A20C0B2704741
:101030000D2141730E20C0B270471121417412205E
:10104000C0B27047152141751620C0B270471921F2
:1010500041761A20C0B270471D2141771E20C0B2D0
:101060007047212180F821102220C0B2704725212D
:1010700080F825102620C0B27047292180F8291059
:101080002A20C0B2704700000139CAB2092A98BFAD
:10109000092900D97047DFE801F005111D29354104
:1010A0004D59667640F2A801020AC2F2000148706A
:1010B0008A70020C000ECA700871704740F2A801D5
:1010C000020AC2F2000148718A71020C000ECA7154
:1010D0000872704740F2A801020AC2F20001487289
:1010E0008A72020C000ECA720873704740F2A8019F
:1010F000020AC2F2000148738A73020C000ECA731E
:101100000874704740F2A801020AC2F20001487454
:101110008A74020C000ECA740875704740F2A80168
:10112000020AC2F2000148758A75020C000ECA75E7
:101130000876704740F2A801020AC2F20001487620
:101140008A76020C000ECA760877704740F2A80132
:10115000020AC2F2000148778A77020C000ECA77B1
:1011600081F82000704740F2A801020AC2F2000193
:1011700081F8210081F82220020C000E81F8232042
:1011800081F82400704740F2A801020AC2F200016F
:1011900081F8250081F82620020C000E81F8272016
:1011A00081F82800704700007047000080B50120DA
:1011B00000F09EF841F200000121C4F20100BDE8F8
:1011C000804000F043BA0000B0B541F200444FF453
:1011D0008051C4F20104204600F038FA012808D1F9
:1011E00020464FF4005100F031FA40F22C21002843
:1011F00016E020464FF4805100F028FA05462046BC
:101200004FF4005100F022FA3DB101281ED1A4F59F
:1012100080604FF4805100F019FA40F22C2101282F
:10122000C2F20001096801D0481C00E0481E40F2EB
:101230002C21C2F2000108604FF4805000F058F8F1
:101240004FF40050BDE8B04000F052B8A4F58064FF
:101250004FF40051204600F0F9F90028ECD1204667
:101260004FF48051BFE70000B0B541F200044021C7
:10127000C4F20104204600F0E9F9012807D1204614
:10128000802100F0E3F940F23021002812E02046EE
:10129000402100F0DBF905462046802100F0D6F918
:1012A0002DB101281AD12046402100F0CFF940F29B
:1012B00030210128C2F20001096801D0481C00E079
:1012C000481E40F23021C2F200010860802000F088
:1012D0000FF84020BDE8B04000F00AB82046802159
:1012E00000F0B4F90028F1D120464021C9E7000000
:1012F00040F21441C4F201010860704780B5D1F892
:1013000008E00EF00F0C1EF0100F1CBF4B684CEAEB
:10131000030C098811F0FF0F00F0A4800368CA07CE
:101320000BD023F00F02BEF1480F42EA0C0315D098
:10133000BEF1280F01D1012242618A0712D523F0A4
:10134000F002BEF1280F42EA0C131CD0BEF1480F88
:1013500008D1022202614A0706D418E00122026184
:101360008A07ECD44A0712D523F47062BEF1280F25
:1013700042EA0C231CD0BEF1480F08D104220261BE
:101380000A0719D505E0022242614A07ECD40A0790
:1013900012D523F47042BEF1280F42EA0C331CD060
:1013A000BEF1480F08D108220261CA0606D418E02F
:1013B000042242610A07ECD4CA0612D523F4702233
:1013C000BEF1280F42EA0C431CD0BEF1480F08D1F1
:1013D000102202618A0619D505E008224261CA0678
:1013E000ECD48A0612D523F47002BEF1280F42EA2B
:1013F0000C531CD0BEF1480F08D1202202614A06CE
:1014000006D418E0102242618A06ECD44A0612D5AE
:1014100023F07062BEF1280F42EA0C631AD0BEF1CD
:10142000480F08D1402202610A061AD505E02022A1
:1014300042614A06ECD40A0613D523F07042BEF18D
:10144000280F42EA0C730AD0BEF1480F09D180225E
:10145000026106E0402242610A06EED401E08022E9
:1014600042610360B1F5807F38BF80BD4368CA0523
:101470000CD523F00F02BEF1480F42EA0C0317D03F
:10148000BEF1280F02D14FF4807242618A0514D553
:1014900023F0F002BEF1280F42EA0C131FD0BEF178
:1014A000480F0AD14FF4007202614A0507D41BE0CD
:1014B0004FF4807202618A05EAD44A0514D523F4F8
:1014C0007062BEF1280F42EA0C231FD0BEF1480F14
:1014D0000AD14FF4806202610A051CD506E04FF480
:1014E000007242614A05EAD40A0514D523F4704219
:1014F000BEF1280F42EA0C331FD0BEF1480F0AD1CB
:101500004FF400620261CA0407D41BE04FF480620A
:1015100042610A05EAD4CA0414D523F47022BEF14C
:10152000280F42EA0C431FD0BEF1480F0AD14FF4F6
:10153000805202618A041CD506E04FF400624261C9
:10154000CA04EAD48A0414D523F47002BEF1280F29
:1015500042EA0C531FD0BEF1480F0AD14FF400529B
:1015600002614A0407D41BE04FF4805242618A04AE
:10157000EAD44A0414D523F07062BEF1280F42EA7F
:101580000C631ED0BEF1480F0AD14FF480420261B5
:1015900009041BD506E04FF4005242614A04EAD424
:1015A000090413D523F07041BEF1280F41EA0C73F2
:1015B0000ED0BEF1480F09D14FF4004101614360E4
:1015C00080BD4FF4804242610904EBD4436080BD8A
:1015D0004FF400414161436080BD000010B504221A
:1015E000002800F440141FFA80FCC4F201021346E4
:1015F000B8BF43F01803B4F5401F1B68C0F3034E97
:1016000007D1146823F0706324F07064146081B90A
:1016100016E0C40206D447F6F07404EA50440CFA0B
:1016200004F402E0032404FA0EF4A34343F07063CD
:1016300031B147F6F07101EA50410CFA01F10B4368
:101640000028B8BF1832136010BD00008068084041
:1016500018BF012070470000416170470161704769
:10166000FEE70000022002F02FB9000010B584B0A0
:1016700008200121012400F0A9FA102001A90390FB
:101680004FF44060ADF804000320029040F60040A3
:10169000C4F20100FFF732FE48F2A810C4F2212084
:1016A0000460446004B010BD2DE9F04F83B040F6F3
:1016B0000441029048F2A8154FF0000BC4F201015A
:1016C000C4F22125086820F470400860086840F4DE
:1016D0000040086000202860022002F0F5F8012692
:1016E0002E6055F87C0C0190012002F0EDF80220EC
:1016F000C5F800B002F0E8F82E60012055F87C7CB7
:1017000002F0E2F80220C5F800B002F0DDF82E6029
:10171000012055F87C4C02F0D7F80220C5F800B043
:1017200002F0D2F82E60012055F87C8C02F0CCF843
:101730000220C5F800B002F0C7F82E60012055F86D
:101740007C9C02F0C1F80220C5F800B002F0BCF8A1
:101750002E60012055F87CAC02F0B6F80220C5F8E6
:1017600000B002F0B1F82E60012055F87CBC02F008
:10177000ABF800202860022002F0A6F82E600120BD
:1017800055F87C6C02F0A0F840F604420021296074
:10179000C4F20102106820F470401060106840F438
:1017A000405010600198002818BF0120002F18BF7A
:1017B0000127002C18BF012447EA4000B8F1000FB0
:1017C00018BF4FF0010844EA4000B9F1000F18BFFC
:1017D0004FF0010948EA4000BAF1000F18BF4FF07E
:1017E000010A49EA4000BBF1000F18BF4FF0010B9E
:1017F0004AEA4000002E4BEA400018BF012646EAA4
:101800004004029848B10220696002F05DF80120AE
:101810002860022002F058F808E0012602206E60DD
:1018200002F052F802202E6002F04EF800202860EC
:10183000E0B203B0BDE8F08FF0B581B0044640F6E9
:10184000044048F2A8150026C4F20100C4F2212584
:10185000016821F470410160016841F44051016068
:10186000E0092E606860022002F02EF801270220B5
:101870002F6002F029F802202E6002F025F8C4F350
:1018800080106860022002F01FF802202F6002F032
:101890001BF802202E6002F017F8C4F340106860B5
:1018A000022002F011F802202F6002F00DF8022051
:1018B0002E6002F009F8C4F300106860022002F004
:1018C00003F802202F6001F0FFFF02202E6001F0DC
:1018D000FBFFC4F3C0006860022001F0F5FF0220A6
:1018E0002F6001F0F1FF02202E6001F0EDFFC4F344
:1018F00080006860022001F0E7FF02202F6001F005
:10190000E3FF02202E6001F0DFFFC4F340006860B7
:10191000022001F0D9FF02202F6001F0D5FF022044
:101920002E6001F0D1FF04F001006860022001F098
:10193000CBFF02202F6001F0C7FF2E60022001B014
:10194000BDE8F04001F0C0BFB0B540F6044048F239
:10195000A814C4F20100C4F22124016821F47041EA
:101960000160016841F44051016001206060206025
:10197000042001F0A9FF00250420656001F0A4FF08
:101980002560B0BD10B540F6044048F2A814C4F27A
:101990000100C4F22124016821F470410160016852
:1019A00041F440510160002020606060042001F09B
:1019B0008BFF0120206060600420BDE8104001F032
:1019C00083BF000070B540F6044448F22C15012690
:1019D000C4F20104C4F22125206820F47040206084
:1019E000206840F4004020600120C5F8806001F0CC
:1019F0006BFF0120EE6701F067FF286888B10020C7
:101A0000296871B1296861B140F00201C9B2F929B0
:101A10000BD82A682AB1F92907D829680430002987
:101A2000EED100242046EC6770BD206820F47040A1
:101A30002060206840F4405020600020E867C5F82E
:101A40008000042001F040FF01240420EC67C5F869
:101A5000804001F039FF204670BD000041F21801BE
:101A6000C4F202010A6842F001020A600421C4F2D1
:101A700001010A6822F0E0620A600A6842EA4060F6
:101A80000860704780B5FFF7F1FD6B20802100F002
:101A900067FE642001F0EAFE6B20002100F060FE8A
:101AA0001B20182100F05CFE1C20102100F058FEC5
:101AB0001920012100F054FE1A20012100F050FEEF
:101AC0003820002100F04CFE6A20002100F048FE82
:101AD0002320002100F044FE3720802100F040FE4A
:101AE000FFF732FFD220FFF7A7FEFFF76BFF75204D
:101AF000FFF7A2FEFFF766FFFFF726FFD320FFF7F1
:101B00009BFEFFF75FFF0020FFF7CEFDFFF73AFFD8
:101B10006B20032100F024FE6C20002100F020FE49
:101B2000002080BDFEE700007047000042684EF2D2
:101B30000011CEF20001EAB110B54EF60C520723A7
:101B4000CEF20002126890F801E0847890F800C0AC
:101B500023EA12220F23D340C2F1040223400EFADB
:101B600002F21A4301EB0C03120183F80023BDE8D3
:101B7000104000E080310078012300F01F02C0F324
:101B8000421003FA02F241F82020704740F08060D2
:101B90004EF60C5140F0FD70CEF200010860704727
:101BA00041F20401C4F202010A6822F440421043E7
:101BB0000860704741F21C020029C4F20202116859
:101BC0000CBF21EA000008431060704741F2180280
:101BD0000029C4F2020211680CBF21EA0000084388
:101BE0001060704741F20C020029C4F20202116831
:101BF0000CBF21EA000008431060704780B541F235
:101C0000040EC4F2020EDEF8002002F00C0341F2D2
:101C10000022C0F27A02082B1FD1DEF80030C3F395
:101C2000834303F1020CDEF8003013F4803F06D149
:101C300040F60012C0F23D020CFB02F20DE0DEF8AD
:101C4000003013F4003F02D10CFB02F205E040F635
:101C50000012C0F23D020CFB02F2026047F2FC31BE
:101C6000DEF80030C0F60001C3F30313CB5CDA40AA
:101C70004260DEF80030C3F30223CB5C22FA03F3A8
:101C80008360DEF80030C3F3C223C95C47F2F83347
:101C9000C0F6000322FA01F1C160DEF80020C2F3B1
:101CA00081329A5CB1FBF2F1016180BD2DE9F04F08
:101CB00081B040F6044A074648F2A81901261C469E
:101CC00015468846C4F2010AC4F22129DAF8000058
:101CD00020F47040CAF80000DAF8000040F44050E8
:101CE000CAF800000420C9F80460C9F8006001F0D7
:101CF000EBFD4FF0000B0420C9F804B001F0E4FD47
:101D00007F00C9F800B0F8B2FFF796FDFFF75AFE62
:101D1000D0B1DAF8000020F47040CAF80000DAF818
:101D2000000040F44050CAF800000420C9F800B098
:101D3000C9F804B001F0C8FD0420C9F80060C9F872
:101D4000046001F0C1FD51E04046FFF775FDFFF76B
:101D500039FEDAF8000020F47040CAF80000DAF822
:101D6000000040F44050CAF800000420C9F80460A4
:101D7000C9F8006001F0A8FD0420C9F804B001F022
:101D8000A3FD47F00100C9F800B0C0B2FFF754FD51
:101D9000FFF718FE05E000BFFFF786FC04F8010B13
:101DA000013DE8B2012803D020B10120F4E700BFD3
:101DB0000020F1E7DAF80000002620F47040CAF8AD
:101DC0000000DAF8000040F44050CAF80000042097
:101DD000C9F80060C9F8046001F076FD0120C9F877
:101DE0000000C9F80400042001F06EFD304601B087
:101DF000BDE8F08F4EF210010428CEF200010A680F
:101E000022F0040308BF42F004030B607047000097
:101E100082B041F204000022C4F20200CFF6FF02B9
:101E200050F8041C41F0010140F8041C0168114005
:101E30004FF6FF720160CFF6F66250F8041C1140B5
:101E400040F8041C50F8041C21F4802140F8041CC4
:101E5000016821F4FE0101604FF41F01416000217F
:101E60000191009150F8041C41F4803140F8041CA9
:101E700050F8041C01F400310091019901310191E5
:101E8000009919B90199B1F5A06FF1D150F8041C6E
:101E900011F4003F0CBF002101210091009901299C
:101EA00058D1D0F8FC1F41F01001C0F8FC1FD0F849
:101EB000FC1F21F00301C0F8FC1FD0F8FC1F41F00B
:101EC0000201C0F8FC1F016801600168016001683F
:101ED00041F480610160016821F47C1101600168B6
:101EE00041F4E811016050F8041C41F0807140F8A1
:101EF000041C00BF50F8041C11F0007F0ED150F8F4
:101F0000041C11F0007F09D150F8041C11F0007F6F
:101F100004D150F8041C11F0007FEBD0016821F0CF
:101F200003010160016841F002010160016801F0F4
:101F30000C0108290ED0016801F00C01082909D014
:101F4000016801F00C01082904D0016801F00C01BE
:101F50000829EBD14EF608504FF00061CEF2000098
:101F6000016002B07047000010B54FF080400121C1
:101F700000F0E2F8012818BF10BD4FF080400121A9
:101F800000F0A4F840F24424C2F200042068632860
:101F900011DC01F0ADF940F2C011C2F2000108609D
:101FA00040F2BC11C2F200010A68104408602068C7
:101FB0000130206039E0642837D140F2BC120021A2
:101FC000C2F2000221601068116004F0D7FF002403
:101FD000C4F2C824214604F09FFE40F2B811C2F2B8
:101FE00000010860214604F097FE04F0A7FD46F2C8
:101FF00066634FF06632C4F2270304F050FE40F2ED
:10200000B4110028C2F2000118BF01200A68B2FA18
:1020100082F252091040086040F28010C4F223207E
:102020000168B1FA81F149090160042000F03EFD28
:1020300040F2D404C2F200042060032000F036FD18
:10204000014640F2D800C2F200000160206801F0B1
:1020500039FA40F20400C2F200000168206800F082
:10206000FDFF40F2DC044EF2D45241F62C21C2F2C4
:102070000004CFF6FF72206001F0CCFB206000214D
:10208000BDE8104001F076BA40F21040C4F2000002
:102090000188018821F001010180704740F610009D
:1020A000C4F200000188018821F00101018070471D
:1020B0000288002942F0800308BF22F080030380D9
:1020C00070470000C943018270470000C943018284
:1020D000704700000288002942F0010308BF22F087
:1020E0000103038070470000B0F844200029134624
:1020F0006FF3DF3318BF42F40043A0F84430704759
:1021000080B5B0F808C02CF0070C41EA0C01B0F81B
:1021100018C0B0F820E001814FF6FC410CEA010C38
:1021200040F2011141EA0C01018342EA03112EF051
:1021300022021143018480BD028A0A4018BF012295
:102140008089084018BF01201040704770B50B8887
:10215000042B2AD0002B56D1B1F802C00A898B88F3
:10216000068C40F6FF354FF6FC74C4F2000526F0ED
:10217000010643EA02130246A842068432F8186FA9
:10218000B0F820E026F0F30643EA06036DDCB0F178
:10219000804F7DD040F20045C4F20005A84277D0C0
:1021A00040F60005C4F200056FE00E894B888A886E
:1021B000058C40F6FF44360325F0100546EA02265A
:1021C0000584024632F8185FB0F820E0254046EA60
:1021D000050C40F6FF356FF00306C4F20005A6F1CA
:1021E000AD04A84262DCB0F1804F71D040F20045EE
:1021F000C4F20005A8426BD040F60005C4F2000509
:10220000A84265D068E00A898C884E88058C082B26
:1022100071D125F48073038444EA0213024632F834
:102220001C5FB0F820E025F0F30543EA050C6FF4DD
:10223000405303F5145440F6FF33C4F200039842B0
:1022400000F38180B0F1804F00F08F8040F20043B6
:10225000C4F20003984200F0888040F60003C4F204
:102260000003984200F0818084E040F60045C4F20B
:102270000005A8420CD042F60045C4F20105A84270
:1022800006D043F20045C4F20105A84218BF083C3D
:1022900003830EEA040343EA0C0343F001030384BF
:1022A000C988038B23F00C03038394E040F60045B8
:1022B000C4F20005A8420BD043F20045C4F2010568
:1022C000A84205D042F60045C4F20105A84203D158
:1022D0004FF6FC741B012D3C0EEA0406A0F818C052
:1022E000334343F010030384C988038B23F4406312
:1022F000090203836FE025F480531203038442EA4A
:102300000423024640F6FF4432F81C5FB0F820C0B8
:10231000254046F6FF5443EA050E40F6FF33C4F26B
:102320000003984234DCB0F1804F43D040F20043C8
:10233000C4F2000398423DD040F60003C4F200030B
:10234000984237D039E040F60043C4F20003984287
:102350000BD043F20043C4F20103984205D042F689
:102360000043C4F20103984204D14CF6FF733602D5
:1023700003F534540EEA0403A0F81CC0334343F4BD
:1023800080730384C988838B23F00C03838322E04A
:1023900040F60043C4F2000398420BD043F20043DE
:1023A000C4F20103984205D042F60043C4F201038F
:1023B000984202D136034CF6FF740CEA0403A0F8ED
:1023C0001CE0334343F480530384C988838B23F494
:1023D00040630902838310880843108070BD0000A9
:1023E000002101220160426001817047002A828938
:1023F0000CBF22EA010111438181704710B5028CA4
:1024000022F480720284048CB0F804E0838B0A8882
:1024100023F0730343EA020C0B8924F4007242EAAE
:1024200003224B8842EA032243F20043C4F2010331
:10243000984205D042F60043C4F20103984212D1FB
:102440008B892EF4405422F4406244EA0313CC8971
:1024500043EA041E4B8940F2FF441B02A3431A4384
:102460008B8842EA0322A0F804E0A0F81CC0C988C7
:102470008187028410BD0000828B22F00802114384
:102480008183704710B5028C22F480520284048C40
:10249000B0F804E0828B0B8822F4E64242EA032C77
:1024A0000B8924F4005242EA03324B8842EA033398
:1024B00043F20042C4F20102904205D042F60042CB
:1024C000C4F20102904204D18A892EF4804444EA85
:1024D000821EA0F804E0A0F81CC0C988A0F8401033
:1024E000038410BD828B22F4006242EA01218183C1
:1024F000704700008184704740F6FF33B0F800C099
:10250000C4F2000398420FDCB0F1804F1ED040F2BD
:102510000043C4F20003984218D040F60003C4F20E
:102520000003984212D016E040F60043C4F20003C4
:1025300098420BD043F20043C4F20103984205D005
:1025400042F60043C4F20103984204D14B882CF0B8
:10255000700243EA020C41F2004240F48063C4F28C
:102560000002934204D0CB882CF4407243EA020C60
:10257000A0F800C08A8882850A880285A0F180427E
:10258000A2F596324FEAB222072A07D8012303FAAE
:1025900002F212F0E50F1CBF097A01860121818247
:1025A000704700004FF6FF71416000210160017229
:1025B0007047000010B543F6000440F22551C4F204
:1025C0000104204600F036F808B3204600F0C2F8B7
:1025D00040F2A811C2F200010A8812F4004F18BF9D
:1025E00010BDC3B2540413D40D2B02BF42F480407B
:1025F000088010BD40F2E004531C6FF39F32C2F21A
:102600000004A05498B2C72888BF00230B8010BDD7
:102610000A2B14BF002042F40040088010BD0000C7
:102620008289002942F4005308BF22F400538381B9
:102630007047000001F01F02012303FA02F2C1F308
:102640004213022B06D0012B14BF00F1140300F13A
:102650000C0301E000F110031B88090A1A404FF037
:10266000010318BF0122008803FA01F1084018BFD6
:10267000012010407047000001F01F0C012303FAF5
:102680000CFCC1F342131421022B08BF1021012BB3
:1026900008BF0C21002A42580CBF22EA0C0242EA71
:1026A0000C0242507047000070B586B00446008AA4
:1026B0000D46C98801AE20F4405008434EF6F31190
:1026C0002082A0890840A98808432989084369898C
:1026D0000843A081A08AA98920F440700843A08201
:1026E0003046FFF78BFA43F6000106F1080002229C
:1026F000C4F201018C424FF0190108BF06F10C0031
:10270000042600684843A189A2EBD1312A6802FA65
:1027100001F1B0FBF1F048F21F51C5F2EB11A0FB43
:1027200001235A096FF0630302FB0300A389A6EBA0
:10273000D336B0403230A0FB0101072040EA13300D
:1027400080F0080000EA511040EA0210208106B033
:1027500070BD000080886FF35F207047FEE70000C7
:10276000B0B50C460546FFF7EFF8FEF77BFFD22029
:10277000FFF762F8FFF726F918B1FFF703F9012018
:10278000B0BD2846FFF758F8FFF71CF92046FFF7C1
:1027900053F8FFF717F90446002818BF0124FFF784
:1027A000F1F82046B0BD00002DE9F04F81B040F6B1
:1027B000044A074648F2A81901241D4616468846D1
:1027C000C4F2010AC4F22129DAF8000020F47040B2
:1027D000CAF80000DAF8000040F44050CAF80000DF
:1027E0000420C9F80440C9F8004001F06DF84FF02A
:1027F000000B0420C9F804B001F066F87800C9F8AD
:1028000000B0C0B2FFF718F8FFF7DCF8D0B1DAF883
:10281000000020F47040CAF80000DAF8000040F42C
:102820004050CAF800000420C9F800B0C9F804B04C
:1028300001F04AF80420C9F80040C9F8044001F04A
:1028400043F849E04046FEF7F7FFFFF7BBF856B103
:10285000002400BF285DFEF7EFFFFFF7B3F8F8B9DB
:102860000134B442F6D3DAF80000002420F47040BA
:10287000CAF80000DAF8000040F44050CAF800003E
:102880000420C9F80040C9F8044001F01DF80120F7
:10289000C9F80000C9F80400042001F015F81BE095
:1028A000DAF8000020F47040CAF80000DAF80000FE
:1028B00040F44050CAF800000020C9F80000C9F8F0
:1028C0000400042001F000F801240420C9F80040AD
:1028D000C9F8044000F0F8FF204601B0BDE8F08FD1
:1028E00010B50446000A00F037F8E0B2BDE8104029
:1028F00000F032B810B586B0012001210124FFF7A5
:1029000059F940F2671003A9039040F2E7300490B0
:102910004FF08040FFF7F0FD4FF080400121FFF7BE
:10292000D5FB4FF0804001210122FFF75FFD4FF4FE
:10293000A060FFF72BF900208DF806001C20ADF8F1
:10294000040001A80294FFF7F1F84FF08040012144
:10295000FFF7C0FB06B010BDB0B541F60004054658
:102960000221C4F201042046FEF776FE204608212B
:10297000FEF772FE68B2B0F1FF3F04DD2046202171
:10298000FEF76AFE03E020462021FEF767FE2046A0
:102990000821FEF763FE20460821FEF75DFE68066B
:1029A00004D420462021FEF757FE03E020462021D4
:1029B000FEF754FE20460821FEF750FE204608216F
:1029C000FEF74AFEA80604D420462021FEF744FE66
:1029D00003E020462021FEF741FE20460821FEF7B5
:1029E0003DFE20460821FEF737FEE80604D42046C7
:1029F0002021FEF731FE03E020462021FEF72EFEC7
:102A000020460821FEF72AFE20460821FEF724FE74
:102A1000280704D420462021FEF71EFE03E02046AE
:102A20002021FEF71BFE20460821FEF717FE204658
:102A30000821FEF711FE680704D420462021FEF786
:102A40000BFE03E020462021FEF708FE2046082169
:102A5000FEF704FE20460821FEF7FEFDA80704D479
:102A600020462021FEF7F8FD03E020462021FEF756
:102A7000F5FD20460821FEF7F1FD20460821FEF76E
:102A8000EBFDE80704D120462021FEF7E5FD03E039
:102A900020462021FEF7E2FD20460821FEF7DEFD5C
:102AA00020460221BDE8B040FEF7D8BD014640F205
:102AB00024420020C4F20002032904D0042918BFD4
:102AC000704702F58062B2F9001010800846704726
:102AD00070B58AB04FF4047001210125FFF776F834
:102AE0004FF40040FFF75CF842F200440026022059
:102AF00001A9C4F201040396ADF80400A4F5A050A6
:102B0000FEF7FCFB2046FEF7BBF94FF46020CDE951
:102B10000466069604A9CDE9070620468DF82450E0
:102B2000FEF7F0F920460121FEF7A0F92046FEF756
:102B300047FA00BF2046FEF7E1F90028FAD1204607
:102B4000FEF74EFA2046FEF7CBF90028FAD10AB07C
:102B500070BD000010B584B041F218000124C4F229
:102B60000200016841F011010160012000F0ACFE9B
:102B700010200121FFF72AF84820ADF8044001A9F0
:102B800003900320029041F20000C4F20100FEF71E
:102B9000B5FB04B010BD000010B500F015FA41F609
:102BA00000041021C4F201042046FEF755FD642004
:102BB00000F05CFE20461021FEF750FD642000F07E
:102BC00055FE20464021FEF749FD642000F04EFEF0
:102BD00020460421FEF740FD1120FFF7BDFE2046F0
:102BE0000421FEF73BFD782000F040FE2046042142
:102BF000FEF732FD3620FFF7AFFE20460421FEF738
:102C00002DFD0020FFF7A8FE20460421FEF724FD3D
:102C10003A20FFF7A1FE20460421FEF71FFD052004
:102C2000FFF79AFE20460421FEF716FDB220FFF7BB
:102C300093FE20460421FEF711FD0C20FFF78CFEC9
:102C40000C20FFF789FE0020FFF786FE3320FFF7F8
:102C500083FE3320FFF780FE20460421FEF7FCFCB4
:102C6000B720FFF779FE20460421FEF7F7FC352058
:102C7000FFF772FE20460421FEF7EEFCBB20FFF7B3
:102C80006BFE20460421FEF7E9FC3220FFF764FECC
:102C900020460421FEF7E0FCC220FFF75DFE20463F
:102CA0000421FEF7DBFC0120FFF756FE204604213D
:102CB000FEF7D2FCC320FFF74FFE20460421FEF7AB
:102CC000CDFC1520FFF748FE20460421FEF7C4FC8A
:102CD000C420FFF741FE20460421FEF7BFFC202060
:102CE000FFF73AFE20460421FEF7B6FCC620FFF7A8
:102CF00033FE20460421FEF7B1FC0F20FFF72CFE27
:102D000020460421FEF7A8FCD020FFF725FE204630
:102D10000421FEF7A3FCA420FFF71EFEA120FFF76D
:102D20001BFE20460421FEF797FCE020FFF714FE6F
:102D300020460421FEF792FCD020FFF70DFE08206C
:102D4000FFF70AFE0E20FFF707FE0920FFF704FE3B
:102D50000920FFF701FE0520FFF7FEFD3120FFF7F8
:102D6000FBFD3320FFF7F8FD4820FFF7F5FD1720A6
:102D7000FFF7F2FD1420FFF7EFFD1520FFF7ECFD44
:102D80003120FFF7E9FD3420FFF7E6FD204604215E
:102D9000FEF762FCE120FFF7DFFD20460421FEF78D
:102DA0005DFCD020FFF7D8FD0820FFF7D5FD0E20F1
:102DB000FFF7D2FD0920FFF7CFFD0920FFF7CCFD7B
:102DC0001520FFF7C9FD3120FFF7C6FD3320FFF7BF
:102DD000C3FD4820FFF7C0FD1720FFF7BDFD1420FD
:102DE000FFF7BAFD1520FFF7B7FD3120FFF7B4FD5F
:102DF0003420FFF7B1FD20460421FEF72DFC2120F1
:102E0000FFF7AAFD20460421FEF728FC20460421F6
:102E1000FEF722FC2920FFF79FFD20460421BDE894
:102E20001040FEF71BBC000070B584B041F21806DC
:102E30000124C4F20206306840F0450030600120F1
:102E400000F042FD40200121FEF7C0FE40F60005E3
:102E5000102001A9C4F201050390ADF8044003203D
:102E600005F5805402902046FEF748FA20462021BE
:102E7000FEF7F4FB286820F001002860286820F0A5
:102E800002002860286840F003002860286820F0CD
:102E900010002860286820F020002860286840F092
:102EA00030002860286820F480702860286820F4AA
:102EB00000702860286840F440702860286820F47A
:102EC00080502860286820F400502860286840F46A
:102ED00040502860286820F004002860286820F00E
:102EE00008002860286840F00C002860286820F05E
:102EF00040002860286820F080002860286840F0A2
:102F0000C0002860286820F480602860286820F4C9
:102F100000602860286840F440602860286820F439
:102F200080402860286820F400402860286840F429
:102F300000402860706840F008007060012000F0D8
:102F4000C3FC40F228400921CFF6FF70295240F21D
:102F50002C4042F21071CFF6FF70295240F2184017
:102F600047F66801CFF6FF70295240F21C4047F641
:102F70007801CFF6FF70295240F240400021CFF691
:102F8000FF70295240F23C41285ACFF6FF71685237
:102F9000685A40F23841CFF6FF716852685A40F2E1
:102FA0003441CFF6FF71685240F2204041F21111D6
:102FB000CFF6FF70295240F200408121CFF6FF701A
:102FC000295204B070BD000070B584B040200121CA
:102FD000FEF7FCFD41F600041026022001AD039629
:102FE000ADF804000320C4F20104294602902046F3
:102FF000FEF784F920460221FEF730FB28202946FF
:10300000ADF804002046FEF779F920462821FEF7A6
:1030100025FB44202946ADF804002046FEF76EF952
:10302000204648F22001FEF719FB20462946ADF85C
:103030000460FEF763F920461021FEF70FFB04B091
:1030400070BD000040F2C411C2F20001086040F2FD
:1030500018000021C2F20000016070472DE9F04124
:1030600040F2D41740F2C812081AC2F20007C2F2A6
:1030700000023D68D2F80080156003F07FFF06462D
:10308000386040F21000C2F200003146006804F0DF
:1030900009F849F69A11C3F6996104F003F840F271
:1030A000CC1443F233310746C2F20004C3F6337145
:1030B000206803F0F7FF394603F06CFD07462060F7
:1030C0003046294604F0BAF8014640F21400C2F234
:1030D0000000006803F0E6FF0146384603F05AFDA1
:1030E00007462846294603F055FD0146304604F0C0
:1030F000A5F8414603F04EFD014640F20C00C2F235
:103100000000006803F0CEFF0146384603F042FDA0
:1031100040F2D0140146C2F20004206803F03AFDE8
:10312000206003F0EFFEBDE8F0810000B0B584B090
:1031300070200121FEF74AFD102041F6000401AD88
:1031400003904FF44160C4F201042946ADF8040035
:1031500003200290A4F58060FEF7D0F84FF4805071
:103160002946ADF80400A4F50060FEF7C7F84FF457
:1031700080602946ADF804002046FEF7BFF82046DF
:103180004FF48061FEF76AFA04B0B0BD2DE9F0415A
:1031900041F600040E460546042198461746C4F23F
:1031A00001042046FEF758FA2A20FFF7D5FB2046F7
:1031B0000421FEF753FA280AFFF7CEFBE8B2FFF727
:1031C000CBFB380AFFF7C8FBF8B2FFF7C5FB204678
:1031D0000421FEF741FA2B20FFF7BEFB2046042115
:1031E000FEF73CFA300AFFF7B7FBF0B2FFF7B4FB8B
:1031F0004FEA1820FFF7B0FB5FFA88F0FFF7ACFB4F
:1032000020460421FEF728FA2C20FFF7A5FB2046D4
:103210000421BDE8F041FEF721BA0000F0B58BB003
:1032200041F21800C4F20200016841F4006101603B
:10323000012000F049FB42F63C4601200027C4F281
:1032400001063780B78000F03FFBC0200121C0F2AB
:103250001600FEF7C3F94FF400600121FEF7B6FC3B
:1032600041200121FEF7B2FC032042F6004408A9E8
:1032700009901820C4F201040A904FF4C040ADF840
:103280002000A4F5A050FEF739F841F61F4005A92B
:10329000CDE905702046FFF72FF9702001ADC0F28F
:1032A0000100294601902046CDF80A70FFF7A6F8E4
:1032B00020460821FFF7E0F860202946ADF8040019
:1032C0002046FFF7DFF820460821FFF70BF92046DC
:1032D0000121FEF709FF20460121FEF7E9FE204605
:1032E0000121FEF7F7FE3780B7800BB0F0BD00007C
:1032F00010B542F200440C2101220723C4F201045C
:103300002046FDF729FE20460121FDF75FFE00BFA4
:1033100020460221FDF7ECFD0028F9D02046FDF7FC
:10332000E3FD03F081FA46F266634FF06632C4F2C1
:103330000A0303F005FB48F200030022C4F267030E
:1033400003F0FEFA00230022C4F2240303F092F8F3
:1033500000230022C4F2590303F0F2FA00230022F2
:10336000C3F6307303F0ECFA03F018FA10BD000056
:1033700080B5FEF787FB00BF01F0A4F80028FBD161
:1033800080BD0000B0B58AB002200121FEF712FC1A
:1033900010200121FEF71AFC40F600400121C0F286
:1033A0001A00FEF71BF940F20044042001A9039023
:1033B000C020C4F20004ADF8040004F58630FDF727
:1033C0009DFF07AD2846FFF7EDF84FF6FF70294641
:1033D0000890002007902046FFF78EF82046032132
:1033E00000220023FEF78CFE04AD2846FEF7F8FF0E
:1033F0000A202946ADF818002046FEF7A7FE204611
:103400000121FEF75FFE204601210122FEF7EEFFBB
:1034100020460021FFF76EF820460121FEF75AFEF4
:103420000AB0B0BDB0B58AB0042001210424FEF773
:10343000C1FB20200121FEF7C9FB4FF48050012180
:10344000FEF7CCF8039440F600044FF4405001A975
:10345000C4F20004ADF8040004F58630FDF74EFF19
:1034600007AD2846FFF79EF84FF6FF7029460890F3
:10347000002007902046FFF73FF820460321002256
:103480000023FEF73DFE04AD2846FEF7A9FF0A2003
:103490002946ADF818002046FEF758FE20460121C7
:1034A000FEF710FE204601210122FEF79FFF204675
:1034B0000021FFF71FF820460121FEF70BFE0AB09E
:1034C000B0BD00002DE9F0470446084603F095F929
:1034D00040F200080022C4F26908434603F030FAC3
:1034E00040F200090022C3F6D0794B4603F028FAD7
:1034F00040F2000A0022C4F22A0A534602F0BAFF40
:1035000000250022C4F23E052B4602F0B3FF4DF623
:10351000D36644F69377C0F6E036C4F26A073246C3
:103520003B4603F00DFA02F067FF40F2B011C2F221
:1035300000010860204603F060F90022434603F0D2
:10354000FFF900224B4603F0FBF90022534602F03C
:1035500091FF00222B4602F08DFF32463B4603F0DE
:10356000EFF902F049FF40F2AC11C2F2000108602D
:10357000BDE8F08748F290120128C4F2222203DB52
:103580000123D361002305E000230028D361034613
:1035900018BF01230129936103DB0123136000227B
:1035A00005E00023002913600A4618BF012240F2FB
:1035B000B0130029C4F222231A6042F63C4248BFED
:1035C00049420028C4F20102918048BF4042108065
:1035D000704700002DE9F04381B08146501E15462A
:1035E00098460E4682B2581E83B24846FFF7CEFD7B
:1035F000464510D2089C00BFA94508D24F4600BFDF
:103600002046FFF76DF90137B8B2A842F8D301366A
:10361000B0B24045F0D301B0BDE8F08310B540F240
:10362000D400C2F20000006803F0A8FC0121FDF7FD
:103630002BFD40F20400C2F20000006803F09EFC83
:103640000221FDF721FD40F2D800C2F2000000681F
:1036500003F094FC0321FDF717FD40F20800C2F2CD
:103660000000006803F08AFC0421FDF70DFD40F224
:10367000DC0044F6D351C2F20000C1F262010068DE
:1036800080FB0101881100EBD17003F077FC05216C
:10369000FDF7FAFC0520FDF7ABFC002800F08C805C
:1036A00043F60001421E00F0030CC4F20101032A9C
:1036B00004D20020BCF1000F64D17DE040F2A80EDE
:1036C000A0EB0C030020C2F2000E00BF0A8812F02B
:1036D000400F0BD10A8812F0400F07D10A8812F070
:1036E000400F03D10A8812F0400FEFD01EF80020DF
:1036F0008A8040F0010200BF0C8814F0400F0BD10B
:103700000C8814F0400F07D10C8814F0400F03D13F
:103710000C8814F0400FEFD01EF802208A8040F091
:10372000020200BF0C8814F0400F0BD10C8814F07B
:10373000400F07D10C8814F0400F03D10C8814F00F
:10374000400FEFD01EF802208A8040F0030200BF35
:103750000C8814F0400F0BD10C8814F0400F07D1E7
:103760000C8814F0400F03D10C8814F0400FEFD0F8
:103770001EF80220043B00F104008A80A6D1BCF1AF
:10378000000F19D00A8812F0400F0BD10A8812F0EE
:10379000400F07D10A8812F0400F03D10A8812F0B7
:1037A000400FEFD040F2A80EBCF1010FC2F2000EA4
:1037B0001EF800308B8000D110BD431C0A8812F027
:1037C000400F0BD10A8812F0400F07D10A8812F07F
:1037D000400F03D10A8812F0400FEFD01EF80320EB
:1037E000BCF1020F8A8008BF10BD02300A8812F0B7
:1037F000400F0BD10A8812F0400F07D10A8812F04F
:10380000400F03D10A8812F0400FEFD01EF80000DD
:10381000888010BD8842C4BF084670479042B8BF38
:10382000104670477047000080B56FF00400FEF747
:10383000E1FA40F200004DF6836140F24222C2F20A
:103840000000C4F21B31C2F200020068A0FB0101BB
:10385000480D1070C1F347504FF47A71484340F25D
:103860004021C2F20001088080BD000040F24021EA
:10387000C2F20001098841434EF21000CEF200006E
:10388000416000218160016841F00101016000BFD9
:10389000016801F0011101290ED1016801F0011147
:1038A000012909D1016801F00111012904D1016840
:1038B00001F001110129EBD0016821F00101016043
:1038C000002181607047000040F24221C2F20001F5
:1038D000097841434EF21000CEF200004160002111
:1038E0008160016841F00101016000BF016801F0E1
:1038F000011101290ED1016801F00111012909D13D
:10390000016801F00111012904D1016801F00111E0
:103910000129EBD0016821F00101016000218160E3
:10392000704700002DE9F04186B004464CF60220B5
:103930000DF102050421C0F6E3102A46CDF802007D
:10394000682002F069F8A32014F040066FF05C02D2
:103950006FF05C018DF8020018BF6FF03F028DF828
:1039600003206FF05C0218BF6FF037028DF804205F
:103970006FF05C0218BF6FF03D0214F4C0778DF851
:1039800005206FF05C0218BF6FF03B028DF8062037
:103990006FF05C0218BF6FF033028DF8072018BF7C
:1039A0006FF039012A468DF808104AF2A331ADF8BC
:1039B00009108DF80B0040F6A7200A2102F02CF820
:1039C00014F003086FF027004FF001012A4618BFDA
:1039D00020208DF8020040F6B62002F01DF814F009
:1039E000200F0CD1C7208DF8140048F6B000CCF29F
:1039F000C35004904AF6B820CAF6AA200AE05D2017
:103A0000059049F6B400C3F20D5004904AF6B82070
:103A1000C8F6B350039003AA4FF49760092101F050
:103A2000FBFF1FB314F480706FF074010DF10202FC
:103A300008BF6FF07F0100288DF803104FF0B00130
:103A400041EAD0118DF802104FF0B40141EAD011D3
:103A500040F6A2208DF804106FF0640108BF6FF0EB
:103A60006F018DF80510042101F0D6FFE00708D1A1
:103A7000D8200DF1020201218DF802004FF40B60F5
:103A800051E0F8200DF1020201218DF802004FF4FF
:103A90000B6001F0C1FF0720FA2100F01DFA3F2062
:103AA00003AA01218DF80C004FF4A47001F0B4FFBB
:103AB000002003AA01218DF80C0040F24F1001F004
:103AC000ABFF4FF4A05003AD0221ADF80C004FF452
:103AD000EF702A4601F0A0FF4FF4C84002212A46A9
:103AE000ADF80C004FF4ED7001F096FF48F6006061
:103AF00003AA0421C9F2F90003904FF4AE7001F05B
:103B00008BFF4FF4006002212A46ADF80C004FF401
:103B1000AD7001F081FF4FF4007002212A46ADF82C
:103B20000C004FF4AC7001F077FF60086C210DF1D0
:103B3000020261F35F0001218DF8020040F23D7046
:103B400001F06AFF600703AA4FF0040152BF4FF073
:103B50008B304CF2C020CCF2C460039040F6982029
:103B600001F05AFF01F022F8E00603AA4FF0040129
:103B700052BF4FF0A33042F62000C3F6300003904E
:103B800040F69E2001F048FF01F010F840F2382185
:103B900044F00800002EC2F20001088018BF06267B
:103BA000002F18BF063614F0140F18BF46F0100689
:103BB000B8F1000F18BF043600F0F8FF40F23E20C5
:103BC000C2F200000670002006B0BDE8F0810000DF
:103BD00047F20C4140F6F6304FF48062C823C0F63D
:103BE000000100F043BE0000B0B584B004460DF102
:103BF000020000F0FBFC40F234200C25C2F2000071
:103C0000028802F0030012F0040F05EA520554F88E
:103C1000200018BF4042BDF8021012F0200F4FEAFA
:103C2000C133C2F3811183FB00C054F821106459E1
:103C30004FEA905E4FEA90358DF804E08DF805501C
:103C40004FEA90158DF8065018BF644212F4807F39
:103C500083FB04E44FEA94558DF808504FEA9435FD
:103C60008DF809504FEA94158DF80A5018BF494253
:103C700083FB0112930D8DF80C30930B8DF80D30F2
:103C800093098DF80E304FEA9C7343EA80008DF85B
:103C900007004FEA9E7040EA84008DF80B00880F01
:103CA0000C2140EA820001AA8DF80F004FF4257024
:103CB00001F0B2FE04B0B0BD10B582B00446C82811
:103CC00019D8C8206A460221B0FBF4F001388DF8FB
:103CD0000100000A8DF8000040F2162001F09CFE61
:103CE00048B948F2020240F6C1200C21C0F6000299
:103CF00001F092FE18B14FF0FF3002B010BD40F25B
:103D00003C20C2F200000480002002B010BD000080
:103D1000F0B581B040F234214EF209370C26C2F2E0
:103D20000001C0F2CA27098801F0030211F0040F54
:103D300006EA510650F8222018BF52428659C1F3B4
:103D4000811511F4807F82FB072350F825504FEA3C
:103D500093544FEA93308DF800408DF801004FEAFC
:103D600093108DF802004FEA92706A4640EA830091
:103D70008DF8030018BF6D4211F0200F4FF47470DE
:103D80004FF0040118BF764201F046FEB0B986FB41
:103D900007016A46800F40EA8100010C8DF803009C
:103DA0008DF80110010E000A8DF800108DF8020048
:103DB0004FF47570042101F02FFE18B14FF0FF3061
:103DC00001B0F0BD85FB07016A46800F40EA810023
:103DD000010C8DF803008DF80110010E000A8DF81A
:103DE00000108DF802004FF47670042101F014FEEB
:103DF00001B0F0BD10B582B048F211010446C0F325
:103E0000C100C0F600010A5C8DF8052004F0030231
:103E10008B5C8DF80430C4F38113C95C8DF80610F7
:103E200048F20E01C0F600018A5C085C8DF80020A3
:103E30008DF80100C85C01AA03218DF8020040F250
:103E4000264001F0E9FD50BB6A4640F22A400321BA
:103E500001F0E2FD18BB44F22660C0F2660000905B
:103E600045F23660C0F27600019060071BD4A006D0
:103E700021D4E00505D567208DF8020077208DF864
:103E8000060001AA4FF48860032101F0C5FD30B996
:103E90006A4640F23140032101F0BEFDA0B14FF06F
:103EA000FF3002B010BD27208DF8000037208DF8BC
:103EB0000400A006DDD547208DF8010057208DF8BD
:103EC0000500E005D7D4DCE740F23420C2F2000060
:103ED0000480002002B010BD70B582B004460D46CB
:103EE0004FF0FF30B1F5C86F52D814F007014FD032
:103EF0000DF1030000F05CFB284603F057F80021A9
:103F0000C4F2483102F008FF05469DF8030002386C
:103F10004FEA70024FF0FF30072A39D800264FF0E1
:103F20008D41C4F24066DFE802F01504330A3333F2
:103F3000331000264FF08C41C4F2C0560AE0002630
:103F40004FF08B41C4F2405604E000264FF08A4106
:103F5000C4F2C046284603F0A5F802F0EFFF8DF842
:103F60000500000A31468DF80400284603F09AF84F
:103F700002F0E4FF8DF80700000A8DF8060001A8A2
:103F8000851CE00706D1A00713D4600720D40020C9
:103F900002B070BD01AA4FF4EA70022101F03CFDAD
:103FA00028BB4FF4927002212A4601F035FDF0B98A
:103FB000E9E701AA4FF4EC70022101F02DFDB0B940
:103FC0004FF4947002212A4601F026FD78B9DCE70F
:103FD00001AA4FF4EE70022101F01EFD38B94FF432
:103FE000967002212A4601F017FD0028CFD04FF02D
:103FF000FF3002B070BD000043F60001C4F20101C1
:104000000A8812F0400F0BD10A8812F0400F07D136
:104010000A8812F0400F03D10A8812F0400FEFD047
:10402000C2B28A80704700002DE9F04F83B040F2A1
:104030001C070546012016460C466B46ADF80000ED
:10404000C2F20007D7E90002817C10780222FEF755
:10405000ABFB10B14FF0FF378CE1C820FFF706FC37
:1040600000206B468DF80000D7E90002C17B107874
:104070000122FEF799FB10B14FF0FF377AE1D7E943
:1040800000026B46417910780122FEF78DFB10B1DA
:104090004FF0FF376EE1D7E900026B46817C107864
:1040A0000122FEF781FB10B14FF0FF3762E1D7E943
:1040B00000026B46C17D10780122FEF775FB10B13E
:1040C0004FF0FF3756E1D7E900026B4601791078CF
:1040D0000122FEF769FB10B14FF0FF374AE10C20D7
:1040E0006B468DF80000D7E90002017910780122B3
:1040F000FEF75AFB10B14FF0FF373BE10F20FFF7FF
:10410000B5FBD7E90010BA6A6B46527A8DF80020E9
:10411000012200788978FEF747FB10B14FF0FF3796
:1041200028E1D7E90010BA6A6B46127A8DF80020B0
:10413000012200784978FEF737FB10B14FF0FF37C6
:1041400018E1D7E90010BA6A002E6B46927A18BFC0
:1041500042F0E0028DF80020012200788979FEF714
:1041600023FB10B14FF0FF3704E1002E6B460FBF69
:104170001820B86AC07A60F01F008DF80000D7E9F7
:104180000002C17910780122FEF70EFB10B14FF04A
:10419000FF37EFE016B1C820FFF768FB40206B4601
:1041A0008DF80000D7E90002017910780122FEF7AE
:1041B000FBFA10B14FF0FF37DCE078206B468DF84A
:1041C0000000D7E90002417910780122FEF7ECFAED
:1041D00010B14FF0FF37CDE03220FFF747FB002052
:1041E0006B468DF80000D7E9000241791078012272
:1041F000FEF7DAFA10B14FF0FF37BBE0D7E9000263
:104200006B46817A10780222FDF750FD10B14FF015
:10421000FF37AFE09DF800009DF801100022C5E9CE
:104220000022AA60C4E90022A26041EA00204AF606
:10423000AB21CAF6AA21A0FB0101C1F3C709B9F15C
:10424000000F39D00026E846D7E900024346C17A7C
:1042500010780C22FDF72AFD002840F08980BDF877
:10426000000094E80E00013600BA01EB204CBDF8C6
:104270000410BDF8020000BA09BA02EB204003EBBB
:104280002141C4E900C0A16095E80700BDF80630EF
:104290001BBA00EB234ABDF80830BDF80A001BBA70
:1042A00000BA01EB234BF1B202EB20408945C5E98E
:1042B00000ABA860C8D802E0D5E900ABA868C11778
:1042C000832200230027090441EA10410004FBF780
:1042D000B0FF4A460023FBF7ACFFA8604FEAEB7043
:1042E00083220023000440EA1B414FEA0B40FBF706
:1042F000A0FF4A460023FBF79CFF68604FEAEA7084
:1043000083220023000440EA1A414FEA0A40FBF7E7
:1043100090FF4A460023FBF78CFF28604A460023A3
:10432000D4E90060A568C117490141EAD0614001A4
:10433000FBF77FFF6060F0174A460023400140EA28
:10434000D6617001FBF775FF2060E8174A4600232D
:10435000400140EAD5616801FBF76BFF4FF4803103
:104360000028C4BF0021CFF6FF710844A06001E01F
:104370004FF0FF37384603B0BDE8F08F80B582B00C
:104380004FF4FA3001F0F4FBFEF74EFDFEF704FCAB
:10439000FEF7E0FB4FF6FF700021F022F0230090C3
:1043A0000020FFF717F9FEF7C1FEFEF737FFFEF713
:1043B000DFFFFEF7E7FFFFF735F802B0BDE880400A
:1043C000FEF786BB80B54FF4A060FDF7DFFBFDF77D
:1043D0001FFDFFF729FA0220FDF740FB0120FDF742
:1043E0003DFBFFF7CBFF0020FEF72CFEFEF782FA25
:1043F0003220FFF73BFAFFF711F93220FFF736FAC8
:10440000F6E7000070B582B040F21C05C2F200056C
:1044100095F8241019B10024204602B070BDA97A85
:1044200021B300F0FE002E7C01400C1A297418BF45
:104430004FF0FF34E8B1687C80B901200DF107032B
:104440008DF80700D5E90002C17B10780122FEF744
:10445000ABF9002804BF9DF80700687400F0A6FBC4
:1044600000281CBF2E744FF0FF34D5E74FF0FF3407
:10447000D2E7287DA0B1687C0028CDD101200DF1C4
:1044800005038DF80500D5E90002C17B10780122F3
:10449000FEF78AF90028BFD19DF805006874BBE7D4
:1044A00000200DF106038DF80600D5E90002C17B5E
:1044B00010780122FEF778F90028ADD19DF80600AA
:1044C0006874A9E770B582B0FDF7D0F800F0BCF8C9
:1044D00008B10A205FE0782001F022FA10F0FF0F07
:1044E00001D0012057E040F21C04C2F2000494F80D
:1044F000240038B1642001F0A3F910F0FF0F20D0A0
:10450000032048E0A07A18B300F07806257C2674D2
:10451000607C80B901200DF107038DF80700D4E914
:104520000002C17B10780122FEF73EF9002804BF8B
:104530009DF80700607400F039FB98B125740220E3
:1045400029E0FFF745FB10F0FF0F03D0042022E025
:10455000022020E08820FFF74DFC10F0FF0F05D06F
:10456000052018E0782EC5D0022014E040F2731028
:10457000FFF7D8F910F0FF0F01D006200BE0642000
:10458000FFF79AFB10F0FF0F01D0072003E001F0C6
:1045900077FA18B10820C0B202B070BD012001F056
:1045A000D7F8C0B2002818BF092002B070BD0000C3
:1045B00040F21C01C2F200014A7A032A84BF4FF084
:1045C000FF30704740F20243D200C1F20803D340EB
:1045D0000370C97C002904BF0020704740F6040125
:1045E000C2F21001D14001700020704780B540F246
:1045F0001C0CC2F2000C9CF80910032984BF4FF078
:10460000FF3080BD4FF4005E4FF48043DFE801F0DF
:104610001002070C40F6CE7E41F69C7308E04FF482
:10462000006E4FF4805303E04FF4806E4FF400634C
:1046300003809CF81310002904BF002080BDA0F85F
:1046400000E0002080BD000010B584B040F21C04E2
:1046500080200DF107038DF80700C2F20004D4E9B1
:104660000002817C10780122FEF79EF810B14FF015
:10467000FF341EE06420FFF7F9F800200DF1070376
:104680008DF80700D4E90002817C10780122FEF742
:104690008BF810B14FF0FF340BE0D4E900020DF1BC
:1046A0000703817D10780622FDF700FB20B14FF053
:1046B000FF34204604B010BD9DF80C209DF8080082
:1046C00004239DF80A1003EA820200F0010061F35E
:1046D0004102104307D000F0070101292BD0022925
:1046E0000ED1002028E0D4E900020DF10703C178C3
:1046F00010780122FDF7DAFA48B14FF0FF34D8E71D
:10470000C1B248A0FBF7BAFD4FF0FF34D1E79DF8E6
:10471000070000F00F0004280AD00028E1D148F279
:104720004000C0F60000FBF7E1FE4FF0FF34C0E7A9
:1047300046A0FBF7DBFE01204FF6FF710DF10D03E4
:10474000E181E074FF202074A0744FF0FF30A0607E
:104750000120207384F8220000202084C4E9050091
:10476000E06184F82700C4F8230018208DF80D00BC
:10477000D4E90002817910780122FEF715F810B112
:104780004FF0FF3495E79DF80D00C0082072A07A25
:1047900070B100208DF80E00607A90B1D4E900026B
:1047A0000DF10E03C17910780122FDF7FDFF10B164
:1047B0004FF0FF347DE79DF80E00C0086072A07ACC
:1047C00078B103208DF80F00E07A03280FD0D4E9E8
:1047D00000020DF10F03817810780122FDF7E4FF4C
:1047E00010B14FF0FF3464E79DF80F00E072322003
:1047F00001F026F810B14FF0FF345AE70020FFF720
:1048000001FE10B14FF0FF3453E7002000F02CFF01
:1048100010B14FF0FF344CE70020002401F080F885
:1048200047E700BF556E737570706F7274656420D2
:10483000736F6674776172652070726F64756374EC
:10484000207265762025642E0A00000048616C669F
:104850002073656E7369746976697479207061720A
:104860007420666F756E642E000000002DE9F04F15
:104870008BB0074688464FF0FF30002900F0958046
:1048800040F21C09C2F2000999F82510002940F0F5
:104890008C80002FCDE901326BD000204FF0000A50
:1048A000A7EB000B08EB0001BBF1100FA8BF4FF006
:1048B000100B002905916CD099F80A00002868D0E7
:1048C0004FEA1A208DF82BA01FFA8BF58DF82A00DD
:1048D0005FFA8AF02E18CAF307200490D9F8040072
:1048E00041898E4255D8D9F80010007802220DF186
:1048F0002A03097EFDF758FF4C46002849D103954D
:1049000045465FFA8BF8D4E90002059B417D10789B
:104910004246FDF749FFE0BBA07A2246C8B304989F
:104920008DF82BA08DF82A00506841898E4230D82E
:104930001168007802220DF12A03097EFDF734FF89
:10494000494630BBD1E900020DF11A042346417DEE
:1049500010784246FDF7AAF9D8B90598039A21467E
:10496000FBF7DAFD20BBDA44A8461FFA8AF0B8420A
:1049700096D302980DF12A038DF82B00000A8DF8CA
:104980002A00D9E90002817E10780222FDF70CFF8F
:1049900020B14FF0FF300BB0BDE8F08F0198A9F8BF
:1049A0002600012089F8250000200BB0BDE8F08F1B
:1049B0006FF001000BB0BDE8F08F000070B582B061
:1049C0000446282802D94FF0FF34EBE040F21C05E2
:1049D000002CC2F2000545D095F82300012820D014
:1049E000A87C95F822103222002808BF3022002926
:1049F0008DF8032007D06FF04D01002808BF6FF03D
:104A00004F018DF80310D5E900020DF103030126D3
:104A1000017D10780122FDF7C7FE002808BF85F848
:104A200023602020012C8DF800004FD100208DF84C
:104A30000100A87A002800F0998006208DF8040073
:104A4000E87A062800F09280D5E9000201AB81786F
:104A500010780122FDF7A8FE002840F087809DF81D
:104A6000040082E095F8230000B3A87C95F822109A
:104A70000028024618BF022200298DF8022007D024
:104A80006FF07D01002808BF6FF07F018DF80210E4
:104A9000D5E900020DF10203017D10780122FDF736
:104AA00083FE002804BF002085F823004FF4E06057
:104AB0006B46ADF80000D5E90002817C1078022237
:104AC000FDF772FEB8B34FF0FF346BE0052C18D839
:104AD00001208DF80100A87A002847D006208DF823
:104AE0000500E87A062841D0D5E900020DF105035A
:104AF000817810780122FDF757FEB8BB9DF80500BC
:104B000033E0142C1AD802208DF80100A87A68B37B
:104B100005208DF80600E87A052827D0D5E900029F
:104B20000DF10603817810780122FDF73DFEE8B90A
:104B30009DF8060019E000242C7533E003208DF861
:104B40000100A87A90B104208DF80700E87A0428C3
:104B50000CD0D5E900020DF107038178107801220D
:104B6000FDF722FE10B99DF80700E8729DF80100DC
:104B700007216B4641EA80108DF80100D5E900025B
:104B8000817C10780222FDF70FFE10B14FF0FF3448
:104B900008E0002408202C73A8720120287500204A
:104BA000FFF730FC204602B070BD000010B582B0A7
:104BB00040F21C04C2F20004A07A00B300200DF100
:104BC00007038DF80700D4E90002C17B10780122A9
:104BD000FDF7EAFD98B9D4E900020DF10703417928
:104BE00010780122FDF7E0FD48B9D4E900020DF18B
:104BF0000703017910780122FDF7D6FD18B14FF0B7
:104C0000FF3002B010BD94F82400002841D00C20E1
:104C10000DF107038DF80700D4E90002017910783F
:104C20000122FDF7C1FD0028E9D13220FEF71EFE6A
:104C3000A07AC0210DF1070341EA40108DF807006A
:104C4000D4E90002017910780122FDF7ADFD0028BA
:104C5000D5D1607C0DF10703002818BF02208DF824
:104C60000700D4E90002C17B10780122FDF79CFD0A
:104C70000028C4D100200DF107038DF80700D4E906
:104C80000002417910780122FDF78EFD0028B6D18F
:104C900042E004200DF107038DF80700D4E900027B
:104CA000017910780122FDF77FFD0028A7D1A17CB2
:104CB00040200DF10703002904BFA17A61F34510DC
:104CC0008DF80700D4E90002017910780122FDF780
:104CD0006BFD002893D13220FEF7C8FD607C0DF1FA
:104CE0000703002818BF01208DF80700D4E900024F
:104CF000C17B10780122FDF757FD00287FF47FAFBC
:104D0000D4E9000204F11003417910780122FDF783
:104D10004BFD00287FF473AF002002B010BD0000EF
:104D20002DE9F04F8FB040F21C0A83468946C2F24B
:104D3000000A9AF8240028B1002000F009FD4FF085
:104D4000010801E04FF000089AF80800032807D88E
:104D5000FA22DFE800F00C02070A4FF4FA7206E0CC
:104D6000002204E04FF47A7201E04FF4FA629AF9FB
:104D70000900069203280ED89AF813300FF6D802CD
:104D80000FF6C40102EB8002002B08BF01EB80028A
:104D90001068023801E06FF0010005909AF80B00EE
:104DA0000138052808D8BC210791DFE800F00F037F
:104DB00007090B0D622008E0002006E02A2004E02D
:104DC000142002E00A2000E0052007909AF80A70FB
:104DD0009AF81060BAF80E40584649460022FFF78C
:104DE00023F940B15846494600220025FFF71CF937
:104DF000002840F080830BA808A90122CDF810B04C
:104E0000FFF712F938B10BA808A90122FFF70CF936
:104E100008B100256FE3CDE901760EAB0D21042228
:104E2000CDF80C80DAF804000078FCF73FFF00288A
:104E300000942AD0D9F800000899401A48BF40428F
:104E400002F09CF84FF05E5102F02CF9044628461F
:104E5000002101F02BFF002846D12046294601F011
:104E60005BFF0021CBF6807101F094FE20F0004042
:104E700045F62941C3F60F6101F034FF00280CBF4D
:104E80004FF001084FF0000842E09DF83B309DF8DC
:104E900039109DF83A201C269DF8380006EAD20BFE
:104EA00006EAD101C3F3810206EAD00003F003044D
:104EB00041EA0207C3F30111014300F0E380A1F1CD
:104EC000010818F0FF0F00F0F28018F00302A1F1C2
:104ED000020000F0F580012A40F0FB804FF6AD752E
:104EE0008046C3F6B36503E149F69A112046C3F63E
:104EF000996101F0FEFE43F2333105462046C3F6C8
:104F0000737101F0E1FE55EA000818BF4FF0010887
:104F1000D9F804000999401A48BF404202F02EF81F
:104F20004FF05E5102F0BEF805463046002101F018
:104F3000BDFEA8B92846314601F0EEFE0021CBF6B1
:104F4000807101F027FE20F0004045F62941C3F6AC
:104F50000F6101F0C7FE002808BF48F0020815E005
:104F600043F233312846C3F6737101F0ADFE49F6C2
:104F70009A11002848F002042846C3F6996118BF28
:104F8000A04601F0B6FE002818BFA046D9F80800D8
:104F90000A99401A48BF404201F0F0FF4FF05E51BD
:104FA00002F080F804463846002101F07FFE98B9EF
:104FB0002046394601F0B0FE0021CBF6807101F0A9
:104FC000E9FD20F0004045F62941C3F60F6101F0EC
:104FD0007BFE0446002810E049F69A112046C3F6ED
:104FE000996101F086FE43F2333105462046C3F64F
:104FF000737101F069FE55EA000418BF0124DAF864
:1050000004000EAB0D2103220078FCF74FFE002CAC
:1050100018BF48F0040808B107275EE29DF8380081
:105020009DF839109DF83A2000F01F0501F01F0B84
:1050300002F01F0404980B998DF838508DF839B0A0
:105040008DF83A400068401A48BF404201F096FF90
:105050004FF05E5102F026F80646ADB16F1E17F014
:10506000FF0F8DF8387027D017F00301A5F102006B
:105070002BD0012940F0818043F233310746C4F23E
:10508000D11188E000254EE000213046C4F2201105
:1050900001F02FFE002105463046C4F2D22101F076
:1050A00013FE55EA000718BF0127049DA4E041F252
:1050B0007B45C3F6AE6536E00021C4F2C81186E038
:1050C00041F27B45C3F6AE6512E00021C4F2C8117F
:1050D00061E047F25E25A1F10408022AC3F6C0652B
:1050E00008BFA1F1030804BF41F66365C3F6BA65C2
:1050F000C0B2032817D345F61D26C3F6847600BF39
:105100002846314601F0CEFF314601F0CBFF314653
:1051100001F0C8FF314601F0C5FFA8F104080546BB
:1051200018F0FF0FECD14BEA04088FB17C1E14F08D
:10513000FF0F14D014F00301A7F1020018D00129C9
:1051400040F09B804FF6AD760446C3F6B366A1E00F
:105150000026B8F1000F40F0BB8000276AE641F25C
:105160007B46C3F6AE66B8F1000F40F0B180F4E7BD
:1051700041F27B46C3F6AE668CE002294EF29A31CC
:10518000A5F10407C4F2E41108BFEF1E04BF4DF2FD
:10519000BD21C4F2DA11C0B2032815D34EF2543542
:1051A000C3F685750846294601F07CFF294601F0C3
:1051B00079FF294601F076FF294601F073FF043F8D
:1051C000014617F0FF0FEDD100208DF83800304672
:1051D00001F0A2FD0021CBF6807101F0DBFC20F094
:1051E000004045F62941C3F60F6101F07BFD049DA7
:1051F00000280CBF0127002768680C99401A48BF97
:10520000404201F0BBFE4FF05E5101F04BFF0646FD
:10521000BBF1000F13D0ABF1010919F0FF0F8DF8AE
:10522000399022D019F00301ABF1020021D00129FD
:105230006BD143F233318146C4F2D11174E00021C5
:105240003046C4F2D22101F03FFD0021002847F092
:1052500002053046C4F2201118BF2F4601F049FD67
:10526000002818BF2F46049D91E00021C4F2C81108
:1052700079E00021C4F2C81156E047F25E263C1FD7
:105280000229C3F6C06608BFFC1E04BF41F6636670
:10529000C3F6BA66C0B2032816D345F61D27C3F677
:1052A000847700BF3046394601F0FCFE394601F0F4
:1052B000F9FE394601F0F6FE394601F0F3FE043CF2
:1052C000064614F0FF0FEDD1B8F1000F3FF445AFE3
:1052D000A8F1010414F0FF0F0DD014F00301A8F1A0
:1052E00002000DD0012940F08F804FF6AD770446C3
:1052F000C3F6B36797E041F27B47C3F6AE6799E523
:1053000041F27B47C3F6AE678DE002294EF29A3137
:10531000ABF10409C4F2E41108BFABF1030904BF07
:105320004DF2BD21C4F2DA11C0B2032817D34EF2F8
:105330005435C3F6857500BF0846294601F0B2FE14
:10534000294601F0AFFE294601F0ACFE294601F0E6
:10535000A9FEA9F10409014619F0FF0FECD1049D43
:1053600000208DF83900304601F0D6FC0021CBF644
:10537000807101F00FFC20F0004045F62941C3F692
:105380000F6101F0AFFC002808BF47F00207A868D2
:105390000D99401A48BF404201F0F0FD4FF05E51B8
:1053A00001F080FE814694B1661E16F0FF0F8DF865
:1053B0003A6021D016F00301A4F1020020D00129A7
:1053C0004DD143F233310646C4F2D11155E00021EC
:1053D0004846C4F2D22101F077FC0021002847F0B2
:1053E00004054846C4F2201118BF2F4601F081FC85
:1053F000002818BF2F4670E00021C4F2C81158E001
:105400000021C4F2C81138E047F25E27A8F1040475
:105410000229C3F6C06708BFA8F1030404BF41F620
:105420006367C3F6BA67C0B20328FFF403AD45F65D
:105430001D28C3F6847800BF3846414601F032FE8D
:10544000414601F02FFE414601F02CFE414601F09D
:1054500029FE043C074614F0FF0FEDD1EAE40229CF
:105460004EF29A31A4F10406C4F2E41108BFE61E1C
:1054700004BF4DF2BD21C4F2DA11C0B2032815D326
:105480004EF25435C3F685750846294601F00AFEEA
:10549000294601F007FE294601F004FE294601F0E5
:1054A00001FE043E014616F0FF0FEDD100208DF8FD
:1054B0003A00484601F030FC0021CBF6807101F043
:1054C00069FB20F0004045F62941C3F60F6101F069
:1054D00009FC002808BF47F004075FEA0860F8B23B
:1054E000B0FA80F04FEA501508BF45F00205DDE93B
:1054F0000268DDE90047FF208AF810004FF6FF70D0
:10550000AAF80E004FF0FF30CAF8080001208AF810
:105510000C0006986FF3DF20B0F57A7F06DAFA28E0
:105520000AD0B0F5FA7F1ED1082008E006D0B0F509
:10553000FA6F18D1182002E0002000E010208DF84A
:1055400038000EABDAE90002817910780122FDF70C
:105550002BF920B99DF83800C0088AF808009AF89D
:105560000A0000285CD005984FEA700007282AD866
:10557000DFE800F00408290D2929291200208DF800
:1055800038000DE008208DF83800012008E01020D8
:105590008DF83800022003E018208DF83800032031
:1055A0009AF80910C0B281420DD0DAE900020EABC0
:1055B000C17910780122FDF7F7F820B99DF838007D
:1055C000C0088AF809009AF80A0048B30798BC286E
:1055D00001D301200FE0622801D302200BE02A282A
:1055E00001D3032007E0142801D3042003E00A2894
:1055F00034BF062005209AF80B108DF83800C0B291
:1056000081420DD0DAE900020EAB817810780122D8
:10561000FDF7CAF8002804BF9DF838008AF80B008F
:10562000204600F00DF9384600F07AF93046FEF7D2
:10563000E9FEB8F1000F02D0012000F089F82846F9
:105640000FB0BDE8F08F00BF0200000004000000B2
:105650000800000010000000040000000800000026
:105660001000000020000000B0B582B040F21C0520
:105670000446C2F20005A87CA04202D1002002B07C
:10568000B0BDD5E900020DF10703017910780122C0
:10569000FCF70CFB8CB3002846D19DF807000DF1F8
:1056A000070300F0DF008DF80700D5E9000201795B
:1056B00010780122FDF778F8B0BB0320FEF7D6F88A
:1056C00095F8221095F823206FF07D00002908BF7F
:1056D0000220002A8DF8070003D040F030008DF83A
:1056E0000700D5E900020DF10703017D10780122C2
:1056F000FDF75AF8C0B9AC74C0E7A8B9A87A9DF80C
:1057000007100DF1070341F0200210F0010F08BF50
:1057100001F0DF028DF807200122D5E900100078A2
:105720000979FDF741F818B14FF0FF3002B0B0BD74
:105730000320FEF79BF895F8220095F82310002827
:1057400018BF6FF07F0000298DF80700C5D1C8E7AA
:10575000B0B582B040F21C05C2F2000595F82410E5
:10576000814201D1002467E000283FD095F8250050
:1057700000285FD009B9A87A80B100200DF1050397
:105780008DF80500D5E90002C17B10780122FDF7F4
:105790000BF8002804BF9DF8050068740020002461
:1057A000FFF762FFE88C00F04BF868688DF8044062
:1057B00001AB2321012201240078FCF7F5FF022030
:1057C00085F824400DF106038DF80600D5E90002A6
:1057D000C17B10780122FCF7E7FF002804BF9DF889
:1057E00006006874FFF7E2F9002425E009B9A87AF9
:1057F00080B100200DF107038DF80700D5E9000204
:10580000C17B10780122FCF7CFFF002804BF9DF870
:1058100007006874287C01AB232101228DF8040065
:1058200068680078FCF7C0FF002485F82440FFF783
:10583000BDF901E04FF0FF34204602B0B0BD0000DA
:1058400070B582B040F21C0504464FF0FF30C2F242
:105850000005A97A002961D095F8241000295DD1AE
:10586000287D60B1601E80B2272805D8E0B2FFF71E
:10587000A5F8002002B070BD0020FFF79FF84FF49C
:105880007A76B4F57A7F0DF1060328BF3446042CEE
:1058900098BF0424B6FBF4F001388DF80600D5E972
:1058A0000002417810780122FCF77EFF00281EBF1D
:1058B0004FF0FF3002B070BD9DF806000130B6FB1E
:1058C000F0F1E981A97A41B380B2022801D8012020
:1058D0000FE0052801D802200BE00B2801D8032097
:1058E00007E0192801D8042003E032288CBF0620E5
:1058F0000520E97A8DF80700C0B281420DD0D5E9C4
:1059000000020DF10703817810780122FCF74CFFAB
:10591000002804BF9DF80700E872002002B070BDA7
:1059200070B582B0044610F0700F01D0012003E082
:10593000002C0CBF4020002040F21C068DF8060011
:105940000DF10603C2F20006D6E90002817C107850
:105950000122FCF729FF20B100204FF0FF35B07283
:1059600056E09DF8060014F0200F0DF1060300F03C
:10597000BF0030734FF0040020EA141008BF40F05D
:10598000020014F0100F08BF40F0010014F0080FDF
:1059900008BF40F038008DF80600D6E90002C17C4F
:1059A00010780122FCF700FF20B100204FF0FF35F6
:1059B000B0722DE044F00800082823D096F82300A8
:1059C00000B3B07C96F822100028024618BF0222CD
:1059D00000298DF8072007D06FF07D01002808BF4F
:1059E0006FF07F018DF80710D6E900020DF1070373
:1059F000017D10780122FCF7D7FE002804BF0020AB
:105A000086F82300002532203575B472FDF72EFF8D
:105A1000284602B070BD000070B582B00D46014648
:105A200014464FF0FF304AB340F21C06C2F20006A3
:105A3000B27A1AB3080A8DF807108DF80600C8B2BA
:105A4000411970684289914208D8316800780DF197
:105A500006030222097EFCF7A7FE18B14FF0FF30C3
:105A600002B070BDD6E900022346417D1078EAB24B
:105A7000FCF79AFE002818BF4FF0FF3002B070BD4F
:105A8000F0B587B004A801A9FFF74AF903281EBFA3
:105A9000012007B0F0BD40F21C07C2F20007387ABF
:105AA00003280AD002280DD0012840F200040CBFC0
:105AB000C4F28324C4F2033408E043F23334C4F262
:105AC000831403E043F23334C4F20324DDE9040613
:105AD000069D01F053FA0146204601F0E3FA01F079
