:020000040800F2
:1000000020080020CD010008810C0008CD0A00085E
:100010007D0C000859040008411E00080000000083
:10002000000000000000000000000000DF010008E8
:100030001506000800000000E3010008E5010008C3
:10004000E7010008E7010008E7010008E7010008F0
:10005000E7010008E701000819060008E7010008A9
:10006000E7010008E7010008E7010008E7010008D0
:10007000E7010008E7010008E7010008E7010008C0
:10008000E7010008E7010008E7010008E7010008B0
:10009000E7010008E7010008E7010008E7010008A0
:1000A000E7010008E7010008E7010008E701000890
:1000B0002D1000086514000879140008E7010008F5
:1000C000E7010008E7010008E7010008E701000870
:1000D000E7010008A91A0008E7010008C11B000891
:1000E00035060008E7010008E7010008E7010008FD
:1000F000E7010008E7010008E7010008E701000840
:10010000E7010008E7010008E7010008E70100082F
:1001100091190008E7010008E7010008E70100085D
:10012000E7010008E7010008E7010008E70100080F
:1001300000F002F800F03AF80AA090E8000C8244BF
:100140008344AAF10107DA4501D100F02FF8AFF29C
:10015000090EBAE80F0013F0010F18BFFB1A43F0A5
:1001600001031847C4770000E4770000103A24BF69
:1001700078C878C1FAD8520724BF30C830C144BF0C
:1001800004680C607047000000230024002500264E
:10019000103A28BF78C1FBD8520728BF30C148BFEA
:1001A0000B6070471FB51FBD10B510BD00F038F8CB
:1001B0001146FFF7F7FF04F07FFA00F056F803B49A
:1001C000FFF7F2FF03BC04F0D9F8000009488047AC
:1001D00009480047FEE7FEE7FEE7FEE7FEE7FEE729
:1001E000FEE7FEE7FEE7FEE704480549054A064B41
:1001F00070470000D50E00083101000820020020E1
:1002000020080020200400202004002070477047B0
:10021000704770477047000000487047500000204A
:100220007546FFF7F9FFAE4605006946534620F0D4
:100230000700854618B020B5FFF7D6FFBDE820407F
:100240004FF000064FF000074FF000084FF0000B92
:10025000AC46ACE8C009ACE8C009ACE8C009ACE801
:10026000C00921F007018D46704710B50446AFF371
:1002700000802046BDE81040FFF7A1BF826800293A
:1002800042F0010308BF22F00103836070470000C1
:1002900080B543F60041C4F20101884214D042F611
:1002A0000001C4F20101884216D042F20041C4F2BA
:1002B0000101884218BF80BD4FF40070012100F099
:1002C00097FD4FF400700EE04FF40040012100F064
:1002D0008FFD4FF4004006E04FF48060012100F0F4
:1002E00087FD4FF480600021BDE8804000F080BDB4
:1002F0008068C0F3800070478068C0F3C00070471A
:1003000080B54FF6FF634268CFF6F07302EA030C44
:10031000D1E9003243EA0C0343EA02224FF2FD73B3
:100320004260CFF6F173826802EA030ED1E902C39C
:100330000A6942EA0E021A4342EA4C028260C26A29
:10034000097D013922F47002C9B242EA0151C16249
:1003500080BD0000816841F00801816070470000A5
:10036000816841F0040181607047000040F2C40CD4
:10037000C2F2000C9CF8001000296CD007296AD347
:1003800010B540F2BC0EC2F2000E9EF800002C2800
:100390000CD09EF80100122808D0C80734D00EEB0C
:1003A000010010F8010C5B2802D02DE0C8072BD00B
:1003B000C81E40F2B403002142100020C2F2000324
:1003C0000EEB4004A4781C5441F0010080B282423C
:1003D0001ADD0EEB4004A4781C5441F0020080B2F8
:1003E000824211DD40F001041EF814401C5441F01B
:1003F000030080B2824207DD0EEB40040431A47892
:100400001C5488B28242DBDC00208CF800009EF88D
:100410000300A0F14501042901D2022009E0A0F166
:10042000430101290AD840F2BC11C2F20001086060
:10043000012040F25811C2F2000108609EF802004B
:100440000128BDE8104018BF704740F2D0000121DC
:10045000C2F2000001607047FEE70000411EC8B212
:10046000092802D90020C0B2704740F2D4002422EB
:100470000929C2F200000270F4D8DFE801F0050A91
:100480000F14191E23282E34052141710620C0B2F5
:100490007047092141720A20C0B270470D21417393
:1004A0000E20C0B27047112141741220C0B27047B3
:1004B000152141751620C0B27047192141761A20C6
:1004C000C0B270471D2141771E20C0B27047212164
:1004D00080F821102220C0B27047252180F8251015
:1004E0002620C0B27047292180F829102A20C0B2E6
:1004F000704700000139CAB2092A98BF092900D9FA
:100500007047DFE801F005111D2935414D59667628
:1005100040F2D401020AC2F2000148708A70020C53
:10052000000ECA700871704740F2D401020AC2F28C
:10053000000148718A71020C000ECA71087270477E
:1005400040F2D401020AC2F2000148728A72020C1F
:10055000000ECA720873704740F2D401020AC2F258
:10056000000148738A73020C000ECA730874704746
:1005700040F2D401020AC2F2000148748A74020CEB
:10058000000ECA740875704740F2D401020AC2F224
:10059000000148758A75020C000ECA75087670470E
:1005A00040F2D401020AC2F2000148768A76020CB7
:1005B000000ECA760877704740F2D401020AC2F2F0
:1005C000000148778A77020C000ECA7781F8200074
:1005D000704740F2D401020AC2F2000181F8210002
:1005E00081F82220020C000E81F8232081F82400DB
:1005F000704740F2D401020AC2F2000181F82500DE
:1006000081F82620020C000E81F8272081F82800AE
:10061000704700007047000080B5012000F054F8DA
:1006200041F200000121C4F20100BDE8804000F069
:1006300043BA000010B5012003F0C4FE48F2BC101C
:1006400041F20044C4F22220C4F201040168B1FA6C
:1006500081F14909016020464FF4804100F02CFAF5
:10066000012815D140F24810C2F20000016849B9D2
:1006700040F25811C2F200010968013901299CBFFA
:100680000121016040F20C100121C2F20000016062
:1006900020464FF4804100F00FFA78B940F248103C
:1006A000C2F200000168012908D140F25811C2F2DB
:1006B00000010968012904BF022101604FF4804054
:1006C000BDE81040AFF3008040F21441C4F20101D4
:1006D00008607047C26840F20041C4F20101F2B103
:1006E00002680B6893430B604B6893434B60D0F8F0
:1006F00004C05CF801301A434CF8012002688B6892
:1007000093438B60CB689343CB60806810280DD1F6
:10071000886810438860C8681043C8607047D0E993
:100720000020435823EA02024250704743581A43BC
:100730004250704780B50C2240F2080E0F2302EAA7
:10074000810201F0FC01C4F2010E03FA02FC51F82F
:100750000E30904023EA0C0341F80E3051F80E2081
:10076000104341F80E0080BD80B5D1F808E00EF0CE
:100770000F0C1EF0100F1CBF4B684CEA030C0988CD
:1007800011F0FF0F00F0A4800368CA070BD023F01C
:100790000F02BEF1480F42EA0C0315D0BEF1280F3C
:1007A00001D1012242618A0712D523F0F002BEF185
:1007B000280F42EA0C131CD0BEF1480F08D10222C8
:1007C00002614A0706D418E0012202618A07ECD4CC
:1007D0004A0712D523F47062BEF1280F42EA0C23B7
:1007E0001CD0BEF1480F08D1042202610A0719D5B6
:1007F00005E0022242614A07ECD40A0712D523F42D
:100800007042BEF1280F42EA0C331CD0BEF1480FF3
:1008100008D108220261CA0606D418E00422426107
:100820000A07ECD4CA0612D523F47022BEF1280FB1
:1008300042EA0C431CD0BEF1480F08D110220261DD
:100840008A0619D505E008224261CA06ECD48A0658
:1008500012D523F47002BEF1280F42EA0C531CD0CB
:10086000BEF1480F08D1202202614A0606D418E0E2
:10087000102242618A06ECD44A0612D523F0706237
:10088000BEF1280F42EA0C631AD0BEF1480F08D11E
:10089000402202610A061AD505E0202242614A067A
:1008A000ECD40A0613D523F07042BEF1280F42EAB9
:1008B0000C730AD0BEF1480F09D18022026106E014
:1008C000402242610A06EED401E0802242610360C8
:1008D000B1F5807F38BF80BD4368CA050CD523F0D1
:1008E0000F02BEF1480F42EA0C0317D0BEF1280FE9
:1008F00002D14FF4807242618A0514D523F0F002D0
:10090000BEF1280F42EA0C131FD0BEF1480F0AD1E6
:100910004FF4007202614A0507D41BE04FF4807265
:1009200002618A05EAD44A0514D523F47062BEF147
:10093000280F42EA0C231FD0BEF1480F0AD14FF412
:10094000806202610A051CD506E04FF40072426124
:100950004A05EAD40A0514D523F47042BEF1280FE3
:1009600042EA0C331FD0BEF1480F0AD14FF40062A7
:100970000261CA0407D41BE04FF4806242610A0599
:10098000EAD4CA0414D523F47022BEF1280F42EA37
:100990000C431FD0BEF1480F0AD14FF480520261C0
:1009A0008A041CD506E04FF400624261CA04EAD40E
:1009B0008A0414D523F47002BEF1280F42EA0C53C6
:1009C0001FD0BEF1480F0AD14FF4005202614A0411
:1009D00007D41BE04FF4805242618A04EAD44A04EF
:1009E00014D523F07062BEF1280F42EA0C631ED0CA
:1009F000BEF1480F0AD14FF48042026109041BD5B1
:100A000006E04FF4005242614A04EAD4090413D5C7
:100A100023F07041BEF1280F41EA0C730ED0BEF1F5
:100A2000480F09D14FF400410161436080BD4FF48C
:100A3000804242610904EBD4436080BD4FF4004121
:100A40004161436080BD000010B50422002800F41D
:100A500040141FFA80FCC4F201021346B8BF43F0F1
:100A60001803B4F5401F1B68C0F3034E07D1146888
:100A700023F0706324F07064146081B916E0C4023E
:100A800006D447F6F07404EA50440CFA04F402E089
:100A9000032404FA0EF4A34343F0706331B147F624
:100AA000F07101EA50410CFA01F10B430028B8BF84
:100AB0001832136010BD00008068084018BF012084
:100AC000704700004161704701617047FEE7000018
:100AD00041F21801C4F202010A6842F001020A6000
:100AE0000421C4F201010A6822F0E0620A600A6887
:100AF00042EA40600860704740F2301CC2F2000CCD
:100B00009CF80000002800F09A800728C0F0978029
:100B100010B540F2281EC2F2000E9EF800102C29DB
:100B20000CD09EF80110122908D0C10734D00EEB6A
:100B3000000111F8011C5B2902D02DE0C1072BD068
:100B400040F22013033800214210C2F200030020BB
:100B50000EEB4104A4785C5440F0010189B28A4252
:100B60001ADD0EEB4104A4785C5440F0020189B216
:100B70008A4211DD41F001041EF814405C5440F03B
:100B8000030189B28A4207DD0EEB41040430A478E8
:100B90005C5481B28A42DBDC40F264110020C2F274
:100BA0000001CEF80400CEF800008CF800000868C0
:100BB0000028BDE8104005D140F22010C2F200002C
:100BC0004078086040F24811C2F20001096851B94A
:100BD00002289ABF1AA151F82000472040F2BC1108
:100BE000C2F20001086040F2A810C2F200000068E2
:100BF0000B2809DC40F2201040F25411C2F2000030
:100C0000C2F200010078086040F23110C2F2000028
:100C10000079012818BF704740F25410C2F200005A
:100C2000006830B140F218100121C2F200000160EA
:100C3000704740F218100221C2F2000001607047B4
:100C400000000000410000004200000070B544F6C2
:100C5000004504460026C4F2000503E00136322EAA
:100C600008BF70BDA15D284601F0E6F82846402186
:100C700001F048F80128F9D1F0E70000FEE7000094
:100C80007047000042684EF20011CEF20001EAB156
:100C900010B54EF60C520723CEF20002126890F8FF
:100CA00001E0847890F800C023EA12220F23D34099
:100CB000C2F1040223400EFA02F21A4301EB0C03C4
:100CC000120183F80023BDE8104000E08031007875
:100CD000012300F01F02C0F3421003FA02F241F8B0
:100CE0002020704740F080604EF60C5140F0FD70BF
:100CF000CEF200010860704740F2781CC2F2000C8E
:100D00009CF80000002850D0072838BF704710B565
:100D100040F2701EC2F2000E9EF800102C290CD07A
:100D20009EF80110122908D0C10735D00EEB000142
:100D300011F8011C5B2902D02EE0C1072CD040F233
:100D40006813033800214210C2F20003002000BFE4
:100D50000EEB4104A4785C5440F0010189B28A4250
:100D60001ADD0EEB4104A4785C5440F0020189B214
:100D70008A4211DD41F001041EF814405C5440F039
:100D8000030189B28A4207DD0EEB41040430A478E6
:100D90005C5481B28A42DBDC0020CEF80400CEF83D
:100DA00000008CF80000BDE81040704741F20401DB
:100DB000C4F202010A6822F44042104308607047FE
:100DC00041F21C020029C4F2020211680CBF21EAA0
:100DD000000008431060704741F218020029C4F275
:100DE000020211680CBF21EA00000843106070473E
:100DF00041F20C020029C4F2020211680CBF21EA80
:100E0000000008431060704780B541F2040EC4F240
:100E1000020EDEF8002002F00C0341F20022C0F2C4
:100E20007A02082B1FD1DEF80030C3F3834303F1AD
:100E3000020CDEF8003013F4803F06D140F60012B9
:100E4000C0F23D020CFB02F20DE0DEF8003013F4BC
:100E5000003F02D10CFB02F205E040F60012C0F2A6
:100E60003D020CFB02F2026045F65631DEF800301E
:100E7000C0F60001C3F30313CB5CDA404260DEF836
:100E80000030C3F30223CB5C22FA03F38360DEF865
:100E90000030C3F3C223C95C45F65233C0F60003E9
:100EA00022FA01F1C160DEF80020C2F381329A5CBF
:100EB000B1FBF2F1016180BD4EF210010428CEF2C7
:100EC00000010A6822F0040308BF42F004030B602B
:100ED0007047000082B041F204000022C4F2020018
:100EE000CFF6FF0250F8041C41F0010140F8041C49
:100EF000016811404FF6FF720160CFF6F66250F8BC
:100F0000041C114040F8041C50F8041C21F48021FA
:100F100040F8041C016821F4FE0101604FF41F0138
:100F2000416000210191009150F8041C41F480318E
:100F300040F8041C50F8041C01F4003100910199A0
:100F400001310191009919B90199B1F5A06FF1D161
:100F500050F8041C11F4003F0CBF00210121009146
:100F60000099012958D1D0F8FC1F41F01001C0F8B8
:100F7000FC1FD0F8FC1F21F00301C0F8FC1FD0F8C3
:100F8000FC1F41F00201C0F8FC1F0168016001680C
:100F90000160016841F480610160016821F47C1105
:100FA0000160016841F4E811016050F8041C41F04F
:100FB000807140F8041C00BF50F8041C11F0007F41
:100FC0000ED150F8041C11F0007F09D150F8041C18
:100FD00011F0007F04D150F8041C11F0007FEBD019
:100FE000016821F003010160016841F00201016024
:100FF000016801F00C0108290ED0016801F00C0114
:10100000082909D0016801F00C01082904D0016801
:1010100001F00C010829EBD14EF608504FF00061A9
:10102000CEF20000016002B0704700002DE9F04FE1
:1010300081B04FF08040012100F06CFA01281CBF04
:1010400001B0BDE8F08F4FF08040012100F02CFA94
:1010500040F21020C2F2000001683B2902DC01319D
:10106000016003E03C2908BFFFF746FDFFF77EF96A
:10107000FFF742FE042002F0FDF840F21017C2F222
:1010800000073860032002F0F5F840F21419014619
:10109000C2F20009C9F80000386802F0F3FE40F21D
:1010A0007C1840F2801B3868C2F20008C2F2000BC4
:1010B000D8F80010DBF800200844D9F80010C8F870
:1010C00000005418CBF8004004F082FB0025C4F265
:1010D000C345294604F06AFA46F2AD36C4F2A816B2
:1010E000314604F0F5FB04F057FB40F24C11C2F21C
:1010F00000010860204604F06BFB294604F056FA14
:10110000314604F0E5FB04F047FB40F2501140F299
:10111000B016C2F20001C2F2000608603068012871
:1011200040F0978040F26810C2F200000078643806
:1011300002F0FEFC04F030FB40F2C01440F2B412A6
:10114000D8F80010C2F20004C2F200022060DBF8FE
:1011500000001268084402F1960300EBD070B3EB74
:10116000600F2EDD4010A2F19603984229DD40F277
:10117000082500234FF0000AC2F20005286801305C
:101180002860386802F09EFD40F23C1140F2B8122F
:101190000023C2F20002C2F200010860D9F8000088
:1011A000DBF80010126802F0ADFD40F24011C2F20F
:1011B0000001086029681E292DDBC6F800A0012166
:1011C0001EE040F228053868C2F200052B6802F0E4
:1011D00079FD40F23C1140F2B8122B68C2F20002D5
:1011E000C2F200010860D9F80000DBF800101268B4
:1011F00002F088FD40F24011C2F2000108600021B7
:1012000040F208220023C2F20002136040F2AC1246
:10121000C2F20002116040F2B00240F23C11C2F290
:101220000002C2F20001126809682AB140F25C12A1
:10123000C2F20002116007E0226840F25C13C2F2C1
:1012400000031144801A196040F26011C2F20001DB
:10125000086040F2981AC2F2000ADAF80000012889
:1012600040F0CC8040F2B410D8F80050C2F2000038
:10127000046804F12800854210DAA4F128008542B0
:101280000CDD40F29C10012122460023C2F2000036
:1012900001603868294602F015FD2CE040F29C10F0
:1012A0000021B0463E68C2F20000016040F24410E6
:1012B000C2F20000076840F22800C2F20000006895
:1012C00003F0C7FF47B14EF2481244F2AE73C1F2C9
:1012D0007A42C3F6D17303E000230022C3F6E07321
:1012E00003F0CEFF03F086FF034630462946224630
:1012F00002F0E8FC464640F23C18DBF80050C2F22F
:101300000008C8F8000040F2B810C2F200000468FB
:1013100004F12800854211DAA4F1280085420DDD90
:1013200040F29C10012122460023C2F200004160DD
:10133000D9F80000294602F0E5FC2DE040F29C10AF
:101340000021B346D9F80060C2F20000416040F2CB
:101350004410C2F20000076840F22800C2F2000008
:10136000006803F076FF47B14EF2481244F2AE73C4
:10137000C1F27A42C3F6D17303E000230022C3F620
:10138000E07303F07DFF03F035FF03463046294646
:10139000224602F0B7FC5E4640F24011C2F2000164
:1013A000086040F29C11C2F200010A68012A17D1BC
:1013B0004A68012A14D140F20822C2F200021368DE
:1013C0005F1C132B17600BDB00230127C1E90033DF
:1013D00040F2AC11CAF800301360C2F200010F6095
:1013E00040F26011C2F20001086040F25C11D8F8CE
:1013F0000000C2F200010860DAF80000316808431A
:1014000005D040F25C10C2F2000000680AE040F231
:1014100060110020C2F20001086040F25C11C2F2CB
:10142000000108604EF20C5441F6F421CFF6FF742F
:10143000224602F09BFF40F25C1540F2601641F636
:10144000F4212246C2F20005C2F20006286030688C
:1014500002F08CFF01463060286801B0BDE8F04F13
:1014600002F0AABD40F21040C4F2000001880188D9
:1014700021F001010180704740F61000C4F2000025
:101480000188018821F0010101807047028800294C
:1014900042F0800308BF22F0800303807047000001
:1014A000C943018270470000C943018270470000B0
:1014B0000288002942F0010308BF22F001030380E3
:1014C00070470000B0F84420002913466FF3DF3363
:1014D00018BF42F40043A0F84430704780B5B0F81C
:1014E00008C02CF0070C41EA0C01B0F818C0B0F8A5
:1014F00020E001814FF6FC410CEA010C40F20111A1
:1015000041EA0C01018342EA03112EF02202114349
:10151000018480BD028A0A4018BF012280890840E8
:1015200018BF01201040704770B50B88042B2AD0DB
:10153000002B56D1B1F802C00A898B88068C40F680
:10154000FF354FF6FC74C4F2000526F0010643EAAD
:1015500002130246A842068432F8186FB0F820E061
:1015600026F0F30643EA06036DDCB0F1804F7DD030
:1015700040F20045C4F20005A84277D040F60005CD
:10158000C4F200056FE00E894B888A88058C40F60E
:10159000FF44360325F0100546EA0226058402467C
:1015A00032F8185FB0F820E0254046EA050C40F616
:1015B000FF356FF00306C4F20005A6F1AD04A842A2
:1015C00062DCB0F1804F71D040F20045C4F20005FA
:1015D000A8426BD040F60005C4F20005A84265D0D1
:1015E00068E00A898C884E88058C082B71D125F417
:1015F0008073038444EA0213024632F81C5FB0F899
:1016000020E025F0F30543EA050C6FF4405303F5A1
:10161000145440F6FF33C4F20003984200F3818073
:10162000B0F1804F00F08F8040F20043C4F200031D
:10163000984200F0888040F60003C4F2000398420C
:1016400000F0818084E040F60045C4F20005A84225
:101650000CD042F60045C4F20105A84206D043F280
:101660000045C4F20105A84218BF083C03830EEAF6
:10167000040343EA0C0343F001030384C988038B8A
:1016800023F00C03038394E040F60045C4F2000508
:10169000A8420BD043F20045C4F20105A84205D090
:1016A00042F60045C4F20105A84203D14FF6FC748E
:1016B0001B012D3C0EEA0406A0F818C0334343F08A
:1016C00010030384C988038B23F440630902038356
:1016D0006FE025F480531203038442EA0423024698
:1016E00040F6FF4432F81C5FB0F820C0254046F6B3
:1016F000FF5443EA050E40F6FF33C4F2000398425C
:1017000034DCB0F1804F43D040F20043C4F2000318
:1017100098423DD040F60003C4F20003984237D00F
:1017200039E040F60043C4F2000398420BD043F284
:101730000043C4F20103984205D042F60043C4F2CC
:101740000103984204D14CF6FF73360203F534547A
:101750000EEA0403A0F81CC0334343F480730384EF
:10176000C988838B23F00C03838322E040F6004377
:10177000C4F2000398420BD043F20043C4F20103C9
:10178000984205D042F60043C4F20103984202D1C8
:1017900036034CF6FF740CEA0403A0F81CE0334354
:1017A00043F480530384C988838B23F44063090284
:1017B000838310880843108070BD0000002101223F
:1017C0000160426001817047002A82890CBF22EAD1
:1017D000010111438181704710B5028C22F480729F
:1017E0000284048CB0F804E0838B0A8823F073032E
:1017F00043EA020C0B8924F4007242EA03224B886C
:1018000042EA032243F20043C4F20103984205D0A6
:1018100042F60043C4F20103984212D18B892EF4A0
:10182000405422F4406244EA0313CC8943EA041E84
:101830004B8940F2FF441B02A3431A438B8842EAC0
:101840000322A0F804E0A0F81CC0C98881870284A4
:1018500010BD0000828B22F0080211438183704783
:1018600010B5028C22F480520284048CB0F804E09B
:10187000828B0B8822F4E64242EA032C0B8924F483
:10188000005242EA03324B8842EA033343F20042F9
:10189000C4F20102904205D042F60042C4F20102B5
:1018A000904204D18A892EF4804444EA821EA0F832
:1018B00004E0A0F81CC0C988A0F84010038410BD43
:1018C000828B22F4006242EA01218183704700008A
:1018D0008184704740F6FF33B0F800C0C4F20003C3
:1018E00098420FDCB0F1804F1ED040F20043C4F2AA
:1018F0000003984218D040F60003C4F20003984257
:1019000012D016E040F60043C4F2000398420BD018
:1019100043F20043C4F20103984205D042F600436B
:10192000C4F20103984204D14B882CF0700243EAC0
:10193000020C41F2004240F48063C4F20002934280
:1019400004D0CB882CF4407243EA020CA0F800C00B
:101950008A8882850A880285A0F18042A2F59632A3
:101960004FEAB222072A07D8012303FA02F212F043
:10197000E50F1CBF097A01860121818270470000B2
:101980004FF6FF7141600021016001727047000055
:10199000B0B544F6004440F22551C4F2000420469C
:1019A00000F0B6F998B1204600F042FA054640F240
:1019B0001C20C2F20000016803291BD8DFE801F0F7
:1019C00002081F34E9B22C2914D1012104E048E0B7
:1019D000E9B212290ED10221016040F20420C2F2C4
:1019E000000001784A1C027040F22810C2F2000088
:1019F00045542EE040F20421C2F2000126E040F2FC
:101A00000422C2F200021378591C117040F228120D
:101A1000C2F20002D554EAB25B2A02D0C9B2092947
:101A200017D30321016014E040F2042140F228138F
:101A3000C2F20001C2F200030A781A4412F8012C23
:101A40005B2A03D1002202600A7002E000220A70C1
:101A500002602046202100F03FF92046202100F0BE
:101A60003FF940F20F20C2F20000057040F2301042
:101A7000C2F200000178312905D840F20421C2F2F7
:101A800000010978017020464FF4587100F03AF9CE
:101A9000002808BFB0BD2046082100F01DF92046EF
:101AA00000F0C6F9B0BD0000B0B543F6000440F246
:101AB0002551C4F20104204600F02AF998B12046CD
:101AC00000F0B6F9054640F21420C2F200000168A9
:101AD00003291BD8DFE801F002081F34E9B22C29E2
:101AE00014D1012104E048E0E9B212290ED102210B
:101AF000016040F20520C2F2000001784A1C027029
:101B000040F27010C2F2000045542EE040F2052170
:101B1000C2F2000126E040F20522C2F20002137870
:101B2000591C117040F27012C2F20002D554EAB290
:101B30005B2A02D0C9B2092917D30321016014E03E
:101B400040F2052140F27013C2F20001C2F200031C
:101B50000A781A4412F8012C5B2A03D10022026091
:101B60000A7002E000220A7002602046202100F084
:101B7000B3F82046202100F0B3F840F20F20C2F263
:101B80000000057040F27810C2F20000017831299F
:101B900005D840F20521C2F2000109780170204603
:101BA0004FF4587100F0AEF8002808BFB0BD2046D1
:101BB000082100F091F8204600F03AF9B0BD00008D
:101BC000B0B544F6000440F22551C4F200042046AA
:101BD00000F09EF898B1204600F02AF9054640F240
:101BE0001820C2F20000016803291BD8DFE801F0C9
:101BF00002081F34E9B22C2914D1012104E048E085
:101C0000E9B212290ED10221016040F20620C2F28F
:101C1000000001784A1C027040F2BC00C2F20000D1
:101C200045542EE040F20621C2F2000126E040F2C7
:101C30000622C2F200021378591C117040F2BC0255
:101C4000C2F20002D554EAB25B2A02D0C9B2092915
:101C500017D30321016014E040F2062140F2BC03D7
:101C6000C2F20001C2F200030A781A4412F8012CF1
:101C70005B2A03D1002202600A7002E000220A708F
:101C800002602046202100F027F82046202100F0A5
:101C900027F840F20F20C2F20000057040F2C400A5
:101CA000C2F200000178312905D840F20621C2F2C3
:101CB00000010978017020464FF4587100F022F8B5
:101CC000002808BFB0BD2046082100F005F82046D6
:101CD00000F0AEF8B0BD0000C943018070470000BD
:101CE000090A012202FA01F1C9430180704700008C
:101CF0008289002942F4005308BF22F400538381F3
:101D0000704700000088084018BF0120704700009D
:101D100001F01F02012303FA02F2C1F34213022B66
:101D200006D0012B14BF00F1140300F10C0301E0F5
:101D300000F110031B88090A1A404FF0010318BF75
:101D40000122008803FA01F1084018BF0120104069
:101D50007047000001F01F0C012303FA0CFCC1F3D3
:101D600042131421022B08BF1021012B08BF0C21A4
:101D7000002A42580CBF22EA0C0242EA0C024250EE
:101D80007047000070B586B00446008A0D46C988C9
:101D900001AE20F4405008434EF6F3112082A08992
:101DA0000840A98808432989084369890843A08114
:101DB000A08AA98920F440700843A0823046FFF72A
:101DC00023F843F6000106F108000222C4F20101E3
:101DD0008C424FF0190108BF06F10C000426006880
:101DE0004843A189A2EBD1312A6802FA01F1B0FB84
:101DF000F1F048F21F51C5F2EB11A0FB01235A0983
:101E00006FF0630302FB0300A389A6EBD336B04057
:101E10003230A0FB0101072040EA133080F00800B7
:101E200000EA511040EA0210208106B070BD0000A7
:101E300080886FF35F2070476FF35F218180704768
:101E4000FEE7000070B586B041F218000124C4F22C
:101E50000200016841F011010160012002F0E0FA86
:101E600010200121FEF7B8FF4820ADF8084002A974
:101E700004900320039041F20000C4F20100FEF739
:101E800073FC01200121FEF7A7FF0220002102259B
:101E90000026FEF74FFC0C20CDE90246CDE90404F4
:101EA00002A8FEF717FC4FF483708DF80250ADF8CE
:101EB000000068460194FEF7E5FE06B070BD000024
:101EC00010B50446000A01F02BF9E0B2BDE810405D
:101ED00001F026B92DE9F04381B040F2D81440F268
:101EE000CC12081AC2F20004C2F200022568D2F82D
:101EF0000080156003F06CFC064603F04DFC0028E2
:101F000048BF4042012840F23C00C2F20000B8BF86
:101F1000002601683046266003F0DAFC4CF6CD411D
:101F2000C3F64C6103F0D4FC40F2D0194CF6CD411D
:101F30000446C2F20009C3F64C71D9F8000003F060
:101F4000C7FC214603F09AFA4CF200040746C9F890
:101F50000000C4F2DA54214603F000FB40B94CF211
:101F600000043846CCF2DA54214603F0FEFA10B9E8
:101F70002746C9F8004040F2AC102946C2F20000E2
:101F800000680128304604BF0027C9F8007003F03C
:101F90006BFD014640F24400C2F20000006803F00D
:101FA00097FC0146384603F069FA0446284629465C
:101FB00003F064FA0146304603F056FD414603F053
:101FC0005DFA014640F23400C2F20000006803F0FE
:101FD0007FFC0146204603F051FA40F2D41401463A
:101FE000C2F20004206803F049FA206003F0D4FB39
:101FF00001B0BDE8F08300002DE9F04381B040F26C
:10200000E81440F2DC12081AC2F20004C2F2000224
:102010002568D2F80080156003F0DAFB064603F06D
:10202000BBFB002848BF4042012840F24000C2F2FA
:102030000000B8BF002601683046266003F048FC67
:102040004CF6CD41C3F64C6103F042FC40F2E0197E
:102050004CF6CD410446C2F20009C3F64C71D9F8E2
:10206000000003F035FC214603F008FA4CF20004AE
:102070000746C9F80000C4F2DA54214603F06EFAAC
:1020800040B94CF200043846CCF2DA54214603F051
:102090006CFA10B92746C9F8004040F2AC10294646
:1020A000C2F2000000680128304604BF0027C9F8CA
:1020B000007003F0D9FC014640F24800C2F2000073
:1020C000006803F005FC0146384603F0D7F90446E2
:1020D0002846294603F0D2F90146304603F0C4FCF5
:1020E000414603F0CBF9014640F23800C2F200004D
:1020F000006803F0EDFB0146204603F0BFF940F213
:10210000E4140146C2F20004206803F0B7F920602D
:1021100003F042FB01B0BDE8F083000010B586B0CB
:10212000012001210124FEF74BFE40F2671003A9B4
:10213000039040F2E73004904FF08040FFF7CAFB75
:102140004FF080400121FFF7AFF94FF080400121AF
:102150000122FFF739FB4FF4A060FEF7C3FD00201A
:102160008DF806001C20ADF8040001A80294FEF7CB
:1021700089FD4FF080400121FFF79AF906B010BDAC
:102180002DE9F04F91B046F64C70002400215F22FB
:102190001F23C5F272200F940E9040F25410C2F229
:1021A00000000588502001F07BFC4CF6CD4046F243
:1021B00066190026CCF6CC40C0F60009A5FB00014C
:1021C000C80800EB8000A5EB400040F0100009EBD0
:1021D000801500BF2F5D17F0010F0CBF4FF6FF7089
:1021E00047F60F00FFF76CFE701C000750D0B807D1
:1021F00054BF4FF6FF7047F60F00FFF761FEB01CAB
:10220000000745D0780754BF4FF6FF7047F60F0020
:10221000FFF756FEF01C00073AD0380754BF4FF6C0
:10222000FF7047F60F00FFF74BFE301D00072FD061
:10223000F80654BF4FF6FF7047F60F00FFF740FE59
:10224000701D000724D0B80654BF4FF6FF7047F644
:102250000F00FFF735FEB01D000719D0780654BFF8
:102260004FF6FF7047F60F00FFF72AFEF01D00073C
:102270000ED0380654BF4FF6FF7047F60F00FFF739
:102280001FFE06F1080010F00F0618BF064600E01A
:1022900000260134402C9DD14FF0000B4C240DF151
:1022A000380A00BF4BF00F011FFA8BF01F230027E5
:1022B0008AB2002101F0F4FBA4F120000025C0B295
:1022C00009EB8016F45D14F0010F0CBF4FF6FF70A0
:1022D0004FF47840FFF7F4FD681C000750D0A007CA
:1022E00054BF4FF6FF704FF47840FFF7E9FDA81C8C
:1022F000000745D0600754BF4FF6FF704FF4784099
:10230000FFF7DEFDE81C00073AD0200754BF4FF668
:10231000FF704FF47840FFF7D3FD281D00072FD042
:10232000E00654BF4FF6FF704FF47840FFF7C8FD4A
:10233000681D000724D0A00654BF4FF6FF704FF46D
:102340007840FFF7BDFDA81D000719D0600654BFF7
:102350004FF6FF704FF47840FFF7B2FDE81D00071D
:102360000ED0200654BF4FF6FF704FF47840FFF7B1
:10237000A7FD05F1080010F00F0518BF054600E0A5
:1023800000250137402F9DD11AF8014F0BF1100B9A
:10239000002C7FF487AF47F24E501E2157222D2389
:1023A000C0F26D000D9040F26410C2F2000004888B
:1023B000502001F075FB4CF6CD4045F666380025FF
:1023C000CCF6CC40C0F60008A4FB0001C80800EB26
:1023D0008000A4EB400040F0100008EB001400BFA8
:1023E000665D16F0010F0CBF4FF6FF7047F60F0049
:1023F000FFF766FDB00754BF4FF6FF7047F60F00BA
:10240000FFF75EFD700754BF4FF6FF7047F60F00F1
:10241000FFF756FD300754BF4FF6FF7047F60F0029
:10242000FFF74EFDF00654BF4FF6FF7047F60F0062
:10243000FFF746FDB00654BF4FF6FF7047F60F009A
:10244000FFF73EFD700654BF4FF6FF7047F60F00D2
:10245000FFF736FD300654BF4FF6FF7047F60F000A
:10246000FFF72EFD0135102DBAD100244E250DF1B8
:10247000340A00BF44F00701A0B230238AB2212100
:1024800001F00EFBA5F120000027C0B208EB0015FB
:10249000EE5D16F0010F0CBF4FF6FF704FF4784061
:1024A000FFF70EFDB00754BF4FF6FF704FF47840B2
:1024B000FFF706FD700754BF4FF6FF704FF47840EA
:1024C000FFF7FEFC300754BF4FF6FF704FF4784023
:1024D000FFF7F6FCF00654BF4FF6FF704FF478405C
:1024E000FFF7EEFCB00654BF4FF6FF704FF4784094
:1024F000FFF7E6FC700654BF4FF6FF704FF47840CC
:10250000FFF7DEFC300654BF4FF6FF704FF4784003
:10251000FFF7D6FC0137102FBAD11AF8015F083443
:10252000002DA7D144F24C10002446250DF1280AB5
:10253000C0F247000B9044F24610C4F252600A9079
:1025400044F00701A0B241238AB2322101F0A8FA77
:10255000A5F120000027C0B208EB0015EE5D16F0D3
:10256000010F0CBF4FF6FF704FF47840FFF7A8FC47
:10257000B00754BF4FF6FF704FF47840FFF7A0FC50
:10258000700754BF4FF6FF704FF47840FFF798FC88
:10259000300754BF4FF6FF704FF47840FFF790FCC0
:1025A000F00654BF4FF6FF704FF47840FFF788FCF9
:1025B000B00654BF4FF6FF704FF47840FFF780FC31
:1025C000700654BF4FF6FF704FF47840FFF778FC69
:1025D000300654BF4FF6FF704FF47840FFF770FCA1
:1025E0000137102FBAD11AF8015F0834002DA7D196
:1025F00040F21810322157224123C2F20000048811
:10260000502001F04DFA4CF6CD400025CCF6CC40E0
:10261000A4FB0001C80800EB8000A4EB400040F0E0
:10262000100008EB001400BF665D16F0010F0CBF30
:102630004FF6FF7047F60F00FFF742FCB00754BF9C
:102640004FF6FF7047F60F00FFF73AFC700754BFD4
:102650004FF6FF7047F60F00FFF732FC300754BF0C
:102660004FF6FF7047F60F00FFF72AFCF00654BF45
:102670004FF6FF7047F60F00FFF722FCB00654BF7D
:102680004FF6FF7047F60F00FFF71AFC700654BFB5
:102690004FF6FF7047F60F00FFF712FC300654BFED
:1026A0004FF6FF7047F60F00FFF70AFC0135102DBB
:1026B000BAD140F2BC10AA214B22C923C2F20000B9
:1026C00004683C2001F0ECF904F1E000002600274A
:1026D000C0B209EB801400BFA55D15F0010F0CBF5F
:1026E0004FF6FF704FF47840FFF7EAFB781C0007C5
:1026F00050D0A80754BF4FF6FF704FF47840FFF753
:10270000DFFBB81C000745D0680754BF4FF6FF70C9
:102710004FF47840FFF7D4FBF81C00073AD02807A5
:1027200054BF4FF6FF704FF47840FFF7C9FB381DD8
:1027300000072FD0E80654BF4FF6FF704FF47840E3
:10274000FFF7BEFB781D000724D0A80654BF4FF644
:10275000FF704FF47840FFF7B3FBB81D000719D0A6
:10276000680654BF4FF6FF704FF47840FFF7A8FBA0
:10277000F81D00070ED0280654BF4FF6FF704FF427
:102780007840FFF79DFB07F1080010F00F0718BF16
:10279000074600E000270136402E9DD144F64C70DC
:1027A00000244C250DF12009C4F241400994089001
:1027B00044F00701A0B25F238AB2502101F070F902
:1027C000A5F120000027C0B208EB0015EE5D16F061
:1027D000010F0CBF4FF6FF704FF47840FFF770FB0E
:1027E000B00754BF4FF6FF704FF47840FFF768FB17
:1027F000700754BF4FF6FF704FF47840FFF760FB4F
:10280000300754BF4FF6FF704FF47840FFF758FB86
:10281000F00654BF4FF6FF704FF47840FFF750FBBF
:10282000B00654BF4FF6FF704FF47840FFF748FBF7
:10283000700654BF4FF6FF704FF47840FFF740FB2F
:10284000300654BF4FF6FF704FF47840FFF738FB67
:102850000137102FBAD119F8015F0834002DA7D124
:1028600040F2481050212F225F23C2F2000004885A
:10287000282001F015F94CF6CD400025CCF6CC40CF
:10288000A4FB0001C80800EB8000A4EB400040F06E
:10289000100008EB001400BF665D16F0010F0CBFBE
:1028A0004FF6FF7047F60F00FFF70AFBB00754BF63
:1028B0004FF6FF7047F60F00FFF702FB700754BF9B
:1028C0004FF6FF7047F60F00FFF7FAFA300754BFD4
:1028D0004FF6FF7047F60F00FFF7F2FAF00654BF0D
:1028E0004FF6FF7047F60F00FFF7EAFAB00654BF45
:1028F0004FF6FF7047F60F00FFF7E2FA700654BF7D
:102900004FF6FF7047F60F00FFF7DAFA300654BFB4
:102910004FF6FF7047F60F00FFF7D2FA0135102D82
:10292000BAD147F26F0000246F250DF11809C6F6E1
:1029300065600794069000BF44F00701A0B27323BE
:102940008AB2642101F0ACF8A5F120000027C0B2E2
:1029500008EB0015EE5D16F0010F0CBF4FF6FF708F
:102960004FF47840FFF7ACFAB00754BF4FF6FF7052
:102970004FF47840FFF7A4FA700754BF4FF6FF708A
:102980004FF47840FFF79CFA300754BF4FF6FF70C2
:102990004FF47840FFF794FAF00654BF4FF6FF70FB
:1029A0004FF47840FFF78CFAB00654BF4FF6FF7033
:1029B0004FF47840FFF784FA700654BF4FF6FF706B
:1029C0004FF47840FFF77CFA300654BF4FF6FF70A3
:1029D0004FF47840FFF774FA0137102FBAD119F885
:1029E000015F0834002DA7D140F26810002742F2A1
:1029F00010744FF00009C2F200000078019055E019
:102A00002F206421732300EBC70082B2781DC00021
:102A100080B201F045F8002518F8056016F0010FA6
:102A20000CBF4FF6FF7047F60F00FFF749FAB007EB
:102A300054BF4FF6FF7047F60F00FFF741FA7007DB
:102A400054BF4FF6FF7047F60F00FFF739FA300713
:102A500054BF4FF6FF7047F60F00FFF731FAF0064C
:102A600054BF4FF6FF7047F60F00FFF729FAB00684
:102A700054BF4FF6FF7047F60F00FFF721FA7006BC
:102A800054BF4FF6FF7047F60F00FFF719FA3006F4
:102A900054BF4FF6FF7047F60F00FFF711FA0135EC
:102AA000102DB9D14FF00009A5E000BFF8B20228FF
:102AB00002D1012026E000BFC7F10102C7F10200E8
:102AC000D2B200F00301032A02D2012041B919E079
:102AD000421A0120043A604312F0FF0FFAD189B183
:102AE000012903D100EB800040000BE04FF47A7223
:102AF00002294FF0640100FB02F208BF00FB01F263
:102B0000104600BF0199012FB1FBF0F04CF6CD410A
:102B1000CCF6CC41A0FB01124FEAD20101EB8101BE
:102B2000A0EB410507D85FEA096004D1002D3FF40E
:102B300067AF4FF001092F206421732300EBC7001A
:102B400082B2781DC00080B200F0AAFF45F01000EC
:102B50004FF0000A08EB001515F80AB01BF0010F42
:102B60000CBF4FF6FF7047F60F00FFF7A9F95FEAB9
:102B70008B7054BF4FF6FF7047F60F00FFF7A0F9B8
:102B80005FEA4B7054BF4FF6FF7047F60F00FFF738
:102B900097F95FEA0B7054BF4FF6FF7047F60F00CE
:102BA000FFF78EF95FEACB6054BF4FF6FF7047F630
:102BB0000F00FFF785F95FEA8B6054BF4FF6FF7097
:102BC00047F60F00FFF77CF95FEA4B6054BF4FF602
:102BD000FF7047F60F00FFF773F95FEA0B6054BF11
:102BE0004FF6FF7047F60F00FFF76AF90AF1010A86
:102BF000BAF1100FB0D10137032F7FF457AF46F66B
:102C00006240002462250DF11009C6F2755005944A
:102C1000049000BF44F00701A0B287238AB2782154
:102C200000F03EFFA5F120000027C0B208EB001520
:102C3000EE5D16F0010F0CBF4FF6FF704FF47840B9
:102C4000FFF73EF9B00754BF4FF6FF704FF47840DE
:102C5000FFF736F9700754BF4FF6FF704FF4784016
:102C6000FFF72EF9300754BF4FF6FF704FF478404E
:102C7000FFF726F9F00654BF4FF6FF704FF4784087
:102C8000FFF71EF9B00654BF4FF6FF704FF47840BF
:102C9000FFF716F9700654BF4FF6FF704FF47840F7
:102CA000FFF70EF9300654BF4FF6FF704FF478402F
:102CB000FFF706F90137102FBAD119F8015F083470
:102CC000002DA7D140F2D00078212F228723C2F215
:102CD00000000488282000F0E3FE4CF6CD400025DB
:102CE000CCF6CC40A4FB0001C80800EB8000A4EBAC
:102CF000400040F0100008EB001400BF665D16F0C5
:102D0000010F0CBF4FF6FF7047F60F00FFF7D8F822
:102D1000B00754BF4FF6FF7047F60F00FFF7D0F82B
:102D2000700754BF4FF6FF7047F60F00FFF7C8F863
:102D3000300754BF4FF6FF7047F60F00FFF7C0F89B
:102D4000F00654BF4FF6FF7047F60F00FFF7B8F8D4
:102D5000B00654BF4FF6FF7047F60F00FFF7B0F80C
:102D6000700654BF4FF6FF7047F60F00FFF7A8F844
:102D7000300654BF4FF6FF7047F60F00FFF7A0F87C
:102D80000135102DBAD146F6697000246D250DF17C
:102D90000809C0F26E00039046F66D10C7F273305A
:102DA000029000BF44F00701A0B29B238AB28C219D
:102DB00000F076FEA5F120000027C0B208EB001558
:102DC000EE5D16F0010F0CBF4FF6FF704FF4784028
:102DD000FFF776F8B00754BF4FF6FF704FF4784016
:102DE000FFF76EF8700754BF4FF6FF704FF478404E
:102DF000FFF766F8300754BF4FF6FF704FF4784086
:102E0000FFF75EF8F00654BF4FF6FF704FF47840BE
:102E1000FFF756F8B00654BF4FF6FF704FF47840F6
:102E2000FFF74EF8700654BF4FF6FF704FF478402E
:102E3000FFF746F8300654BF4FF6FF704FF4784066
:102E4000FFF73EF80137102FBAD119F8015F0834A7
:102E5000002DA7D140F258108C214D229B23C2F2A5
:102E600000000488462000F01BFE4CF6CD400025F3
:102E7000CCF6CC40A4FB0001C80800EB8000A4EB1A
:102E8000400040F0100008EB001400BF665D16F033
:102E9000010F0CBF4FF6FF7047F60F00FFF710F859
:102EA000B00754BF4FF6FF7047F60F00FFF708F862
:102EB000700754BF4FF6FF7047F60F00FFF700F89A
:102EC000300754BF4FF6FF7047F60F00FEF7F8FFCC
:102ED000F00654BF4FF6FF7047F60F00FEF7F0FF05
:102EE000B00654BF4FF6FF7047F60F00FEF7E8FF3D
:102EF000700654BF4FF6FF7047F60F00FEF7E0FF75
:102F0000300654BF4FF6FF7047F60F00FEF7D8FFAC
:102F10000135102DBAD140F2BC00002642F21077E4
:102F20004FF00009C2F2000090F807A006E000BFD1
:102F30000136022E04BF11B0BDE8F08FF0B20128B7
:102F400002D1012026E000BF7242C6F10100D2B2D8
:102F500000F00301032A03D2012049B91AE000BF9F
:102F6000421A0120043A784312F0FF0FFAD189B1D6
:102F7000012903D100EB800040000BE04FF47A728E
:102F800002294FF0640100FB02F208BF00FB01F2CE
:102F9000104600BF4CF6CD41BAFBF0F0002ECCF647
:102FA000CC41A0FB01124FEAD20101EB8101A0EB61
:102FB000410408BF5FEA09605CD00720D221E12309
:102FC00040EAC60082B2F00080B200F069FD44F031
:102FD0001000002508EB001414F805B01BF0010FD9
:102FE0000CBF4FF6FF7047F60F00FEF769FF5FEA70
:102FF0008B7054BF4FF6FF7047F60F00FEF760FF6F
:103000005FEA4B7054BF4FF6FF7047F60F00FEF7B4
:1030100057FF5FEA0B7054BF4FF6FF7047F60F0083
:10302000FEF74EFF5FEACB6054BF4FF6FF7047F6E6
:103030000F00FEF745FF5FEA8B6054BF4FF6FF704D
:1030400047F60F00FEF73CFF5FEA4B6054BF4FF6B8
:10305000FF7047F60F00FEF733FF5FEA0B6054BFC7
:103060004FF6FF7047F60F00FEF72AFF0135102DCF
:10307000B2D15DE714B14FF001099EE70020D221E3
:103080000722E123002400F00BFD00BF18F80450D4
:1030900015F0010F0CBF4FF6FF7047F60F00FEF75B
:1030A0000FFFA80754BF4FF6FF7047F60F00FEF75B
:1030B00007FF680754BF4FF6FF7047F60F00FEF793
:1030C000FFFE280754BF4FF6FF7047F60F00FEF7CC
:1030D000F7FEE80654BF4FF6FF7047F60F00FEF705
:1030E000EFFEA80654BF4FF6FF7047F60F00FEF73D
:1030F000E7FE680654BF4FF6FF7047F60F00FEF775
:10310000DFFE280654BF4FF6FF7047F60F00FEF7AC
:10311000D7FE0134102CB9D14FF0000908E70000A8
:10312000B0B541F6000405460221C4F20104204670
:10313000FDF7C8FC20460821FDF7C4FC68B2B0F1D9
:10314000FF3F04DD20462021FDF7BCFC03E02046C4
:103150002021FDF7B9FC20460821FDF7B5FC2046EB
:103160000821FDF7AFFC680604D420462021FDF7B6
:10317000A9FC03E020462021FDF7A6FC20460821FB
:10318000FDF7A2FC20460821FDF79CFCA80604D40C
:1031900020462021FDF796FC03E020462021FDF784
:1031A00093FC20460821FDF78FFC20460821FDF7FF
:1031B00089FCE80604D420462021FDF783FC03E0C7
:1031C00020462021FDF780FC20460821FDF77CFCED
:1031D00020460821FDF776FC280704D4204620214C
:1031E000FDF770FC03E020462021FDF76DFC204632
:1031F0000821FDF769FC20460821FDF763FC6807FC
:1032000004D420462021FDF75DFC03E02046202168
:10321000FDF75AFC20460821FDF756FC2046082100
:10322000FDF750FCA80704D420462021FDF74AFCF6
:1032300003E020462021FDF747FC20460821FDF74A
:1032400043FC20460821FDF73DFCE80704D1204659
:103250002021FDF737FC03E020462021FDF734FC58
:1032600020460821FDF730FC20460221BDE8B04091
:10327000FDF72ABC014640F224420020C4F20002BD
:10328000032904D0042918BF704702F58062B2F9FF
:10329000001010800846704770B58AB04FF4047073
:1032A00001210125FDF798FD4FF40040FDF77EFD5B
:1032B00042F200440026022001A9C4F20104039650
:1032C000ADF80400A4F5A050FDF74EFA2046FCF737
:1032D000DFFF4FF46020CDE90466069604A9CDE92E
:1032E000070620468DF82450FDF70AF820460121F4
:1032F000FCF7C4FF2046FDF72DF800BF2046FCF781
:10330000FBFF0028FAD12046FDF72AF82046FCF7FB
:10331000EFFF0028FAD10AB070BD000010B500F030
:103320005BFA41F600041021C4F201042046FDF7C7
:10333000C9FB642001F046F820461021FDF7C4FBCC
:10334000642001F03FF820464021FDF7BDFB6420DA
:1033500001F038F820460421FDF7B4FB1120FFF7F7
:10336000DFFE20460421FDF7AFFB782001F02AF8AC
:1033700020460421FDF7A6FB3620FFF7D1FE2046AC
:103380000421FDF7A1FB0020FFF7CAFE204604211F
:10339000FDF798FB3A20FFF7C3FE20460421FDF716
:1033A00093FB0520FFF7BCFE20460421FDF78AFBB6
:1033B000B220FFF7B5FE20460421FDF785FB0C2067
:1033C000FFF7AEFE0C20FFF7ABFE0020FFF7A8FED4
:1033D0003320FFF7A5FE3320FFF7A2FE204604218D
:1033E000FDF770FBB720FFF79BFE20460421FDF799
:1033F0006BFB3520FFF794FE20460421FDF762FBAE
:10340000BB20FFF78DFE20460421FDF75DFB322037
:10341000FFF786FE20460421FDF754FBC220FFF78C
:103420007FFE20460421FDF74FFB0120FFF778FEC9
:1034300020460421FDF746FBC320FFF771FE20461E
:103440000421FDF741FB1520FFF76AFE2046042109
:10345000FDF738FBC420FFF763FE20460421FDF78B
:1034600033FB2020FFF75CFE20460421FDF72AFBFA
:10347000C620FFF755FE20460421FDF725FB0F204F
:10348000FFF74EFE20460421FDF71CFBD020FFF77E
:1034900047FE20460421FDF717FBA420FFF740FE5E
:1034A000A120FFF73DFE20460421FDF70BFBE020A5
:1034B000FFF736FE20460421FDF706FBD020FFF77C
:1034C0002FFE0820FFF72CFE0E20FFF729FE092013
:1034D000FFF726FE0920FFF723FE0520FFF720FE59
:1034E0003120FFF71DFE3320FFF71AFE4820FFF7BB
:1034F00017FE1720FFF714FE1420FFF711FE15200A
:10350000FFF70EFE3120FFF70BFE3420FFF708FE19
:1035100020460421FDF7D6FAE120FFF701FE204600
:103520000421FDF7D1FAD020FFF7FAFD0820FFF7BC
:10353000F7FD0E20FFF7F4FD0920FFF7F1FD09204C
:10354000FFF7EEFD1520FFF7EBFD3120FFF7E8FD5B
:103550003320FFF7E5FD4820FFF7E2FD1720FFF7D6
:10356000DFFD1420FFF7DCFD1520FFF7D9FD31202A
:10357000FFF7D6FD3420FFF7D3FD20460421FDF7E9
:10358000A1FA2120FFF7CCFD20460421FDF79CFA8B
:1035900020460421FDF796FA2920FFF7C1FD2046B9
:1035A0000421BDE81040FDF78FBA00002DE9F04F6F
:1035B00083B041F218080127C4F20208D8F80000CD
:1035C00040F04500C8F80000012000F029FF40202D
:1035D0000121FDF701FC40F600066C464FF0100B90
:1035E0004FF0030AC4F201062146CDF808B0ADF849
:1035F0000070CDF804A006F580552846FDF7B4F814
:1036000028462021FDF760FA40F280100121C4F223
:10361000232007600820FDF7DFFB4FF4007006F55C
:103620008065CDF808B02146ADF800002846CDF8F9
:1036300004A0FDF799F828464FF40071FDF744FA0D
:1036400048F2A0174FF0000908200121C4F22127F9
:10365000C7F80490FDF7C0FB4FF48070CDF808B0B8
:103660002146ADF800002846CDF804A0FDF77CF80F
:1036700028464FF48071FDF727FAC7F800903068AC
:1036800020F001003060306820F0020030603068C7
:1036900040F003003060306820F010003060306887
:1036A00020F020003060306840F03000306030683A
:1036B00020F480703060306820F400703060306832
:1036C00040F440703060306820F4805030603068E2
:1036D00020F400503060306840F440503060306872
:1036E00020F004003060306820F00800306030685E
:1036F00040F00C003060306820F0400030603068EE
:1037000020F080003060306840F0C00030603068E9
:1037100020F480603060306820F4006030603068F1
:1037200040F440603060306820F4804030603068A1
:1037300020F400403060306840F400403060D8F839
:10374000040040F00800C8F80400012000F068FE02
:1037500040F228400921CFF6FF70315240F22C4050
:1037600042F21071CFF6FF70315240F2184047F626
:103770006801CFF6FF70315240F21C4047F67801E5
:10378000CFF6FF70315240F2404040F23C41CFF65C
:10379000FF70CFF6FF7126F80090305A7052705AC1
:1037A00040F23841CFF6FF717052705A40F2344106
:1037B000CFF6FF71705240F2204041F21111CFF666
:1037C000FF70315240F200408121CFF6FF7031523C
:1037D00003B0BDE8F08F000070B584B04020012137
:1037E000FDF7FAFA41F600041026022001AD039617
:1037F000ADF804000320C4F20104294602902046DB
:10380000FCF7B2FF20460221FDF75EF92820294689
:10381000ADF804002046FCF7A7FF20462821FDF75D
:1038200053F944202946ADF804002046FCF79CFFDC
:10383000204648F22001FDF747F920462946ADF819
:103840000460FCF791FF20461021FDF73DF904B01C
:1038500070BD0000F0B581B0081A01F0B9FF40F268
:10386000EC170446C2F200072146386801F006FE54
:1038700005463860204601F08FFF00284CF2000614
:1038800048BF4042C4F2DA56012828463146B8BF44
:10389000002401F063FE40B94CF200062846CCF249
:1038A000DA56314601F061FE08B935463E6040F215
:1038B000AC102146C2F200000068012840F2F0106E
:1038C00004BF00253D60C2F200000668046040F2BB
:1038D0002000C2F20000006801F0FAFF074640F243
:1038E00018002946C2F20000006801F0F1FF01460D
:1038F000384601F0C3FD05462046314602F0B4F8D3
:10390000014640F21000C2F20000006801F0E0FF42
:103910000146284601F0B2FD01F03EFF01B0F0BDC6
:10392000F0B581B0081A01F053FF40F2F4170446D5
:10393000C2F200072146386801F0A0FD4CF20005F4
:103940000646C4F2DA55294601F008FE68B94CF281
:1039500000013046CCF2DA5101F007FE002835466E
:1039600004BF4CF20005CCF2DA5540F2F8102146C3
:10397000C2F200000668046040F2AC10C2F200001F
:103980000068012840F22400C2F2000008BF0025B0
:1039900000683D6001F09CFF074640F21C00C2F247
:1039A00000000168284601F093FF0146384601F007
:1039B00065FD05462046314602F056F8014640F2C4
:1039C0001400C2F20000006801F082FF01462846A0
:1039D00001F054FD01F0E0FE01B0F0BDB0B58AB0D9
:1039E000202001210124FDF7F7F901200121FDF735
:1039F000F3F903204FF4804507A908900420ADF89F
:103A00001C50099041F20040C4F20100FCF7ACFEEA
:103A100003200E21FCF78EFE0020CDE9035010207C
:103A2000CDE9050403A8FCF755FE28200294ADF863
:103A3000040001A88DF80640FDF724F90AB0B0BDD6
:103A4000B0B584B070200121FDF7C6F9102041F611
:103A5000000401AD03904FF44160C4F20104294613
:103A6000ADF8040003200290A4F58060FCF77CFE12
:103A70004FF480502946ADF80400A4F50060FCF72F
:103A800073FE4FF480602946ADF804002046FCF731
:103A90006BFE20464FF48061FDF716F804B0B0BD10
:103AA0002DE9F04141F600040E46054604219846F2
:103AB0001746C4F201042046FDF704F82A20FFF758
:103AC0002FFB20460421FCF7FFFF280AFFF728FB05
:103AD000E8B2FFF725FB380AFFF722FBF8B2FFF741
:103AE0001FFB20460421FCF7EDFF2B20FFF718FBFE
:103AF00020460421FCF7E8FF300AFFF711FBF0B283
:103B0000FFF70EFB4FEA1820FFF70AFB5FFA88F079
:103B1000FFF706FB20460421FCF7D4FF2C20FFF71B
:103B2000FFFA20460421BDE8F041FCF7CDBF0000BC
:103B3000F0B581B001F04CFE40F200270446C2F21D
:103B400000072146386801F08FFF0646386040F2D2
:103B5000AC104CF20005C2F20000C4F2DA55006865
:103B60002946012808BF0026304601F0F7FC84F002
:103B7000004468B94CF200013046CCF2DA5101F051
:103B8000F4FC0028354604BF4CF20005CCF2DA55AF
:103B900040F2FC1021463D60C2F20000066804605D
:103BA00040F20C00C2F20000006801F091FE0746EE
:103BB00040F20800C2F200000168284601F088FEC9
:103BC0000146384601F05AFC05462046314601F0D0
:103BD0004BFF014640F20400C2F20000006801F011
:103BE00077FE0146284601F049FC01B0F0BD000017
:103BF000F0B58BB041F21800C4F20200016841F444
:103C000000610160012000F00BFC42F63C460120FF
:103C10000027C4F201063780B78000F001FCC02005
:103C20000121C0F21600FCF70FFF4FF400600121E4
:103C3000FDF7D2F841200121FDF7CEF8032042F62E
:103C4000004408A909901820C4F201040A904FF416
:103C5000C040ADF82000A4F5A050FCF785FD41F66A
:103C60001F4005A9CDE905702046FDF733FE702001
:103C700001ADC0F20100294601902046CDF80A703E
:103C8000FDF7AAFD20460821FDF7E4FD6020294646
:103C9000ADF804002046FDF7E3FD20460821FDF7BE
:103CA0000FFE20460121FDF70DFC20460121FDF706
:103CB000EDFB20460121FDF7FBFB3780B7800BB001
:103CC000F0BD0000B0B50546084611461C46FFF79A
:103CD000C1FD61428842A8BF0146A0422846C8BF34
:103CE0002146FEF7F7F84EF2D451CFF6FF71884225
:103CF000C8BF014641F62C208142A8BF01460846B4
:103D0000B0BD0000B0B50546084611461C46FFF799
:103D100007FE61428842A8BF0146A0422846C8BFAC
:103D20002146FEF769F94EF2D451CFF6FF71884271
:103D3000C8BF014641F62C208142A8BF0146084673
:103D4000B0BD0000B0B58AB002200121FDF738F8FF
:103D500010200121FDF740F840F600400121C0F29B
:103D60001A00FCF771FE40F20044042001A9039000
:103D7000C020C4F20004ADF8040004F58630FCF75E
:103D8000F3FC07AD2846FDF7FBFD4FF6FF70294613
:103D90000890002007902046FDF79CFD2046032157
:103DA00000220023FDF79AFB04AD2846FDF706FD2F
:103DB0000A202946ADF818002046FDF7B5FB20463D
:103DC0000121FDF76DFB204601210122FDF7FCFCDE
:103DD00020460021FDF77CFD20460121FDF768FB10
:103DE0000AB0B0BDB0B58AB0042001210424FCF7AC
:103DF000E7FF20200121FCF7EFFF4FF48050012165
:103E0000FCF722FE039440F600044FF4405001A951
:103E1000C4F20004ADF8040004F58630FCF7A4FCFD
:103E200007AD2846FDF7ACFD4FF6FF702946089018
:103E3000002007902046FDF74DFD2046032100227B
:103E40000023FDF74BFB04AD2846FDF7B7FC0A2025
:103E50002946ADF818002046FDF766FB20460121F3
:103E6000FDF71EFB204601210122FDF7ADFC204697
:103E70000021FDF72DFD20460121FDF719FB0AB0B9
:103E8000B0BD00002DE9F0470446084601F0E1F915
:103E900040F200080022C4F24908434601F0F0F95C
:103EA00040F200090022C3F6D0794B4601F0E8F950
:103EB00040F2000A0022C4F22A0A534601F042F8F6
:103EC00000250022C4F23E052B4601F03BF84DF6DA
:103ED000D36644F69377C0F6E036C4F26A073246FA
:103EE0003B4601F0CDF900F0FBFF40F2C811C2F2F1
:103EF00000010860204601F0ACF90022434601F0C1
:103F0000BFF900224B4601F0BBF90022534601F0F5
:103F100019F800222B4601F015F832463B4601F015
:103F2000AFF900F0DDFF40F2C411C2F200010860F9
:103F3000BDE8F08780B540F2AC1100220123C2F247
:103F400000010A6040F2B011C2F200010B6040F2C1
:103F50009811C2F200010A6040F24C11C2F2000155
:103F60000A6040F25011C2F200010A6040F27C1176
:103F7000C2F200010A6040F28011C2F200010A6040
:103F800001F026FC4CF20001C4F2736101F0A0FCC8
:103F900047F69841C4F2523101F008FB01F0FCFBF6
:103FA00040F2B411C2F20001086040F2B811C2F24E
:103FB0000001086080BD000048F290120128C4F2A0
:103FC000222203DB0123D361002305E00023002824
:103FD000D361034618BF01230129936103DB012349
:103FE0001360002205E00023002913600A4618BF71
:103FF000012240F2B0130029C4F222231A6042F6D3
:104000003C4248BF49420028C4F20102918048BFA7
:10401000404210807047000040F2AC1100220123A2
:104020000428C2F200010A6040F2B011C2F200019D
:104030000A6040F29811C2F200010B6040F24C118C
:10404000C2F200010A6040F25011C2F200010A609F
:1040500040F27C11C2F200010A6040F28011C2F20B
:1040600000010A6088BF704708A140F2B81251F8F9
:104070002010C2F20002116009A151F8200040F2A4
:10408000B411C2F200010860704700BF95FCFFFF49
:104090006B030000A006000081FFFFFF7F0000000F
:1040A0006B03000095FCFFFF60F9FFFF7F0000003D
:1040B00081FFFFFF2DE9F04381B08146501E154678
:1040C00098460E4682B2581E83B24846FFF7E8FC77
:1040D000464510D2089C00BFA94508D24F4600BFF4
:1040E0002046FDF7EDFE0137B8B2A842F8D30136FD
:1040F000B0B24045F0D301B0BDE8F08310B540F256
:104100000410C2F200000068A0B340F21010C2F226
:104110000000006801F05CFB0121FCF7EBF940F2C4
:10412000B410C2F20000006801F052FB0221FCF75B
:10413000E1F940F21410C2F20000006801F048FBFF
:104140000321FCF7D7F940F2B810C2F20000006872
:1041500001F03EFB0421FCF7CDF940F25C1048F27F
:104160001F51C2F20000C5F2EB11006880FB010193
:10417000481135E040F20810C2F200000068B0B308
:1041800040F21010C2F20000006801F021FB012192
:10419000FCF7B0F940F23004C2F20004206801F0EC
:1041A00017FB0221FCF7A6F940F21410C2F200003E
:1041B000006801F00DFB0321FCF79CF9206801F079
:1041C00007FB0421FCF796F940F25C1044F6D3514A
:1041D000C2F20000C1F26201006880FB0101881197
:1041E00000EBD17001F0F4FA0521FCF783F905200A
:1041F000FCF734F9002800F08A8043F60001421EE3
:1042000000F0030CC4F20101032A04D20020BCF127
:10421000000F63D17BE040F2D40EA0EB0C03002032
:10422000C2F2000E0A8812F0400F0BD10A8812F079
:10423000400F07D10A8812F0400F03D10A8812F00C
:10424000400FEFD01EF800208A8040F0010200BF2E
:104250000C8814F0400F0BD10C8814F0400F07D1DC
:104260000C8814F0400F03D10C8814F0400FEFD0ED
:104270001EF802208A8040F0020200BF0C8814F071
:10428000400F0BD10C8814F0400F07D10C8814F0AC
:10429000400F03D10C8814F0400FEFD01EF802201D
:1042A0008A8040F0030200BF0C8814F0400F0BD14D
:1042B0000C8814F0400F07D10C8814F0400F03D184
:1042C0000C8814F0400FEFD01EF80220043B00F1E0
:1042D00004008A80A6D1BCF1000F18D00A8812F021
:1042E000400F0BD10A8812F0400F07D10A8812F054
:1042F000400F03D10A8812F0400FEFD040F2D402F1
:10430000BCF1010FC2F20002135C8B8000D110BD22
:10431000431C00BF0C8814F0400F0BD10C8814F024
:10432000400F07D10C8814F0400F03D10C8814F013
:10433000400FEFD0D35CBCF1020F8B8008BF10BDE3
:10434000023000BF0B8813F0400F0BD10B8813F025
:10435000400F07D10B8813F0400F03D10B8813F0E7
:10436000400FEFD0105C888010BD00008842C4BFB1
:10437000084670479042B8BF10467047704700002B
:1043800080B56FF00400FCF797FD40F22C004DF66D
:10439000836140F20E22C2F20000C4F21B31C2F26D
:1043A00000020068A0FB0101480D1070C1F34750E6
:1043B0004FF47A71484340F20C21C2F200010880A8
:1043C00080BD000040F20C21C2F200010988414387
:1043D0004EF21000CEF200004160002181600168C1
:1043E00041F00101016000BF016801F001110129E4
:1043F0000ED1016801F00111012909D1016801F014
:104400000111012904D1016801F001110129EBD04A
:10441000016821F001010160002181607047000006
:1044200040F20E21C2F20001097841434EF2100021
:10443000CEF20000416000218160016841F001017D
:10444000016000BF016801F0011101290ED101686E
:1044500001F00111012909D1016801F001110129BF
:1044600004D1016801F001110129EBD0016821F0AC
:1044700001010160002181607047000080B582B0B9
:104480004FF4E13000F026F84FF4E13000F06EF820
:104490004FF4E13000F0C0F8FFF788F8FFF79EFA1C
:1044A000FEF73CFFFDF7CEFC4FF6FF700021F02237
:1044B000F02300900020FFF7FDFDFFF7C1FAFFF7A2
:1044C00097FBFFF73FFCFFF78DFC02B0BDE8804093
:1044D000FEF7E2BE2DE9F0418AB0054644F2040041
:1044E00001214FF00108FCF777FC43F6000403209C
:1044F00007AF08904FF40070C4F201043946ADF8DC
:104500001C001820A4F5405609903046FCF72CF901
:104510000420394609904FF48060ADF81C00304605
:10452000FCF722F925208DF80680ADF8040001A8DB
:10453000CDF80880FCF7A6FB0020039503A90490A2
:10454000ADF818004FF4402005902046FDF71AFC06
:10455000204640F225510122FDF7FCFB20460121B7
:10456000FDF7C6FB0AB0BDE8F08100002DE9F0417F
:104570008AB004464FF4802001214FF00108FCF777
:104580001FFC20200121FCF727FC30200121C0F274
:104590001400FCF759FA44F60005032007AF089011
:1045A0004FF48070C4F200053946ADF81C001820A5
:1045B00005F54C4609903046FCF7D6F804203946FC
:1045C00009904FF40070ADF81C003046FCF7CCF8B1
:1045D00027208DF80680ADF8040001A8CDF80880EA
:1045E000FCF750FB0020039403A90490ADF81800D9
:1045F0004FF4402005902846FDF7C4FB284640F2C2
:1046000025510122FDF7A6FB28460121FDF770FB8D
:104610000AB0BDE8F08100002DE9F0418AB00446FF
:104620004FF4002001214FF00108FCF7C9FB1020D6
:104630000121FCF7D1FB44F60045032007AF0890A9
:104640004FF48060C4F200053946ADF81C00182014
:1046500005F5444609903046FCF786F804203946B3
:1046600009904FF40060ADF81C003046FCF77CF870
:1046700034208DF80680ADF8040001A8CDF808803C
:10468000FCF700FB0020039403A90490ADF8180088
:104690004FF4402005902846FDF774FB284640F271
:1046A00025510122FDF756FB28460121FDF720FB8D
:1046B0000AB0BDE8F08100002DE9F04F81B04FF461
:1046C000A060FCF70FFBFCF705FCFFF759FE02208A
:1046D000FCF7FEF901200125FCF7FAF9FFF7CEFE01
:1046E00040F28410C2F20000FCF78EFB40F231145D
:1046F00040F2C50241F22C205B21C2F20004C2F25A
:104700000002A570208010809570E171D171FDF7D5
:1047100005FD40F2001740F21C1640F20C1540F265
:10472000481840F2581940F2A81A4FF0000BC2F294
:104730000007C2F20006C2F20005C2F20008C2F28F
:104740000009C2F2000A07E03220FFF73BFEFFF744
:10475000D5FC3220FFF736FE38680028F4D1FDF78B
:104760000FFD3068312806DC2046FCF76FFA306810
:104770000130306006E0322804D1204684F802B0CF
:10478000FCF764FA2868012805D14FF4FA70FFF7A6
:1047900019FEC5F800B0D8F80000012815D1D9F8E5
:1047A000001001293AD1DAF8000007283CD8DFE8E8
:1047B00010F00800D900F2000C011D012A013F0190
:1047C0004B019020FFF7B6FB2FE3D9F80010022829
:1047D00008BF012945D0022923D10028BCD1DAF82D
:1047E00000000E28B8D8DFE810F0F201FC01050245
:1047F0000F0222020F002B023F02560265020F0039
:1048000079029F02C102CB0240F2AC10C2F200005A
:10481000006801287FF4A0AF332050E30120022973
:10482000DBD001287FF498AF40F2BC10C2F2000048
:104830000068453803283FF68FAFDFE800F00246F6
:10484000597840F2A410C2F20000006805283FF633
:1048500083AFDFE810F07C00BA021A01B002240135
:10486000300140F2BC10C2F200000068442813D0AE
:10487000432840F0DF8240F2A410C2F2000000683A
:10488000032800F2D782DFE810F004003701F400BB
:1048900047016FF022000FE040F2A410C2F20000C6
:1048A0000068032800F2C682DFE810F00400570118
:1048B000E30071016FF02100FFF73CFB40F2B00113
:1048C0000120C2F20001086058E140F2A410C2F2D7
:1048D0000000006805283FF63FAFDFE810F0060053
:1048E0001900D6006C02E000EC006FF0220030E00E
:1048F00040F2A410C2F20000006805283FF62CAF79
:10490000DFE810F025000600C3007202CD00D900D8
:1049100040F2AC10C2F20000006801287FF41CAF26
:1049200040F2B000C2F20000C0F800B04BE240F22A
:10493000A410C2F20000006805283FF60DAFDFE8C2
:1049400010F006004402A4005302AE00BA006FF05B
:104950002100FFF7EFFA40F2B0010120C2F200019E
:1049600008604CE240F2AC10C2F20000006801287E
:1049700040F060824FF4C870FFF724FD40F25410FD
:10498000C2F200000068012800F04282022840F0D4
:10499000458244203DE240F2AC10C2F200000068C3
:1049A000012840F0478248F2A4110120C4F22121DD
:1049B00041F8040C40F2D000C2F200000068012867
:1049C00004BF0320CAF8000034E248F2A410C4F285
:1049D000212040F804BC40F2BC00C2F20000007983
:1049E000012804BF0420CAF8000023E240F2AC1002
:1049F000C2F200000068012840F01C826FF0310014
:104A0000FFF798FA11E240F2AC10C2F20000006821
:104A1000012840F00F8240F2BC10C2F20000006892
:104A2000442800F0FF81432840F0FF810020FAE194
:104A300040F2AC10C2F200000068012840F0FA8198
:104A40002320FFF777FAF0E140F2AC10C2F2000049
:104A50000068012840F0EE8140F20000C2F2000040
:104A6000C0F800B040F28010C4F22320C0F800B0BB
:104A7000E0E140F2AC10C2F200000068012840F012
:104A8000D9818E20FFF756FA78E040F2AC10C2F2DE
:104A90000000006801287FF45FAE572008E040F274
:104AA000AC10C2F20000006801287FF455AEEB2084
:104AB000FFF740FAA3E140F2AC10C2F20000006838
:104AC00001287FF449AE40F2000048F2A411C2F27E
:104AD0000000C4F22121C0F800B00120086040F2BB
:104AE0009810C2F20000C0F800B040F2B010C2F25C
:104AF0000000C0F800B02FE640F2AC10C2F2000097
:104B00000068012840F0968140F2B000C2F2000037
:104B1000C0F800B000202FE040F2AC10C2F200005C
:104B20000068012840F0868140F2000048F2A4119C
:104B3000C2F20000C4F22121C0F800B001200860D8
:104B400040F29810C2F20000C0F800B040F2B0107D
:104B5000C2F20000C0F800B06CE140F2AC10C2F24A
:104B600000000068012840F0658140F2B000C2F208
:104B70000000C0F800B00120FFF74EFA40F2A41088
:104B8000C2F20000014600680130086052E140F2C4
:104B9000AC10C2F200000068012840F04B8140F2E6
:104BA000B01048F2A411C2F20000C4F22121C0F8F2
:104BB00000B040F20000C2F20000C0F800B040F2C5
:104BC0009810C2F20000C0F800B00120DDE740F20A
:104BD000D000C2F20000006801287FF4BDADB12012
:104BE0006DE140F2AC10C2F20000006801287FF4D1
:104BF000B3AD53E140F2AC10C2F2000000680128EE
:104C00007FF4AAAD1C205AE140F2AC10C2F20000C1
:104C1000006801287FF4A0AD40F2BC00C2F20000A1
:104C2000407901287FF498AD6FF01D0047E140F214
:104C3000AC10C2F20000006801287FF48DAD27E1BE
:104C400040F2AC10C2F20000006801287FF484AD8D
:104C500040F244100121C2F2000001600320FFF77E
:104C6000DBF9012020712CE140F2AC10C2F200000F
:104C7000006801287FF470AD40F244110120C2F2B7
:104C800000010860C820FFF79DFB0420FFF7C4F96E
:104C900084F804B015E140F2AC10C2F200000068E4
:104CA00001287FF459AD40F24410C2F20000C0F870
:104CB00000B063E040F2AC10C2F2000000680128CE
:104CC0007FF44AAD40F21810C2F2000000680228DA
:104CD00000F0E480012800F0DB80F2E040F2AC104C
:104CE000C2F20000006801287FF436AD4FF4C870AE
:104CF000FFF768FB40F21810C2F2000000680228BB
:104D000000F0A080012840F0D98040F25410C2F297
:104D100000000068022800F0C580012840F0CE8025
:104D200040F2BC104521C6E040F2AC10C2F20000D7
:104D3000006801287FF410AD40F21810C2F20000A4
:104D40000068022800F08B80012840F0988040F233
:104D50005410C2F200000068022800F0A780012869
:104D600040F08D8040F2BC10452184E040F2AC1050
:104D7000C2F20000006801287FF4EEAC21209EE022
:104D800040F2AC10C2F20000006801287FF4E4ACED
:104D900040F29810C2F20000C0F800B040F2B0102B
:104DA000C2F20000C0F800B040F28010C4F223202C
:104DB000C0F800B0D0E440F2AC10C2F200000068CD
:104DC00001287FF4C9AC012017E040F2AC10C2F218
:104DD0000000006801287FF4BFAC40F2B000C2F2CE
:104DE0000000C0F800B007E040F2AC10C2F20000D2
:104DF000006801287FF4B0AC0020FFF70DF940F205
:104E0000A410C2F200000146006801300860A3E46B
:104E1000432040F2BC11C2F2000108605020FFF7AD
:104E200089F802E00120FFF7F7F8DAF80000013016
:104E3000CAF80000D8F80000D9F8001002293FF4A1
:104E4000CCACEEE440F25410C2F20000006802283C
:104E50002ED0012832D140F2BC1048212BE040F284
:104E60005410C2F200000068022831D0012806D197
:104E700040F2BC104821C2F20000016008E040F29C
:104E8000BC10C2F200000068482801D0452801D1BA
:104E9000002004E040F00100472812D10120FFF774
:104EA000BBF80EE040F2BC10462104E0462010E0C2
:104EB00040F2BC104721C2F2000001602320FFF73E
:104EC00039F8DAF800000130CAF80000FFF744BCF6
:104ED000472040F2BC11C2F2000108600120DEE769
:104EE00021F0004201F00043A2F16052B2F5801FB0
:104EF00028BFD2F17F6C0BD95FEA001C43EAC202E3
:104F000042EB507018BF704728BF20F00100704777
:104F1000B2F5801FBCBF184670474FEA410C1CF524
:104F2000001F02D2084600F09ABD70B500F052FA98
:104F300000000089FFF7F6BF4FF00040A0F58000A9
:104F4000704700002DE9C04130B4DFF8A0C23CEA50
:104F5000111418BF3CEA131400F0EC801CEA111481
:104F600081EA030544EAD57418BF1CEA131500F062
:104F7000C780A4EB050404F17F7404F500344FF0FE
:104F8000004545EAC12145EAC32341EA505143EABD
:104F900052534FEAC0204FEAC222994208BF9042C2
:104FA00000F09C804FEA13650FF24016765D4FEAE1
:104FB000134506FB05F7C7F1807706FB07F74FEAB5
:104FC000D737A7FB03687642A7FB06CEC8F5803823
:104FD00038BFA8F1010807FB08E6A6FB028C4FF0DA
:104FE000000EE6FB03CEDCF1000CCEF1004E38BF24
:104FF000AEF1010EA6FB0C584FF00007E6FB0E8742
:10500000A1FB08C6A0FB07CE16EB0E064FF000056D
:1050100045F10005E1FB076515F1E04E7EBFA4F503
:1050200080345FEA46066D4116F1800745F10005C0
:105030004FEA172747EA05674FEA15254FEA066644
:10504000A6F1DE46B6F1805F1FD9384605EBC47184
:1050500024F0010C01EB0C11BCF1FE6F02D8F0BC86
:10506000BDE8008124425CBF01F5801E9EEAC47F3A
:1050700002D4F0BCBDE80081244238D4A1F1C04183
:10508000F0BCBDE8004100F0F3B94FEAD02040EA9F
:1050900041504FEAD1214FEAD22242EA43524FEA2D
:1050A000D323A7FB028607FB036605FB02661EEA05
:1050B0000E0F58BFA6EB0056B6EB00564FEA520E45
:1050C0004EEAC37E18EB0E0E56EB530EBDD518EB11
:1050D00002085E417F1C55F10005B6E74FF48015CC
:1050E0004FF000074FF000064FF00008ADE701F168
:1050F000C04101F000414FF00000F0BCBDE800816C
:105100000CEA131511EA0C1F00D00CE013EA0C1F77
:1051100000F025804FF0000081EA030101F000411A
:10512000F0BCBDE80081F0BCBDE8004181EA0301AC
:1051300000F09EB9F0BCBDE8004170B500F04AF93E
:10514000097EFC3E00F007B84FF0000081EA030141
:1051500001F00041704781EA030100F089B9F0BC19
:10516000BDE8004122494FF000007047FFFDFBF908
:10517000F7F5F4F2F0EEEDEBE9E8E6E4E3E1E0DE8A
:10518000DDDBDAD8D7D5D4D3D1D0CFCDCCCBCAC8FC
:10519000C7C6C5C4C2C1C0BFBEBDBCBBBAB9B8B723
:1051A000B6B5B4B3B2B1B0AFAEADACABAAA9A8A816
:1051B000A7A6A5A4A3A3A2A1A09F9F9E9D9C9C9BE4
:1051C0009A9999989797969595949393929191908F
:1051D0008F8F8E8E8D8C8C8B8B8A89898888878720
:1051E0008685858484838382828181800000FF0795
:1051F0000000F87F4FEA41034FEA5353A3F5806361
:10520000D3F11E03C8BFD3F1210C0CDD4FF00042D7
:1052100042EAC12242EA505232FA03FC8CEAE17CB3
:10522000ACEBE1707047102BC4BF0020704703F552
:10523000787CBCF1FF3F04D06FF0004282EA21008D
:10524000704770B500F0C6F849922480002070477E
:10525000F2E710F0004248BF4042B0FA80F310FA83
:1052600003F10AD0C3F11D0303F5806302EB03527F
:105270004FEA415002EBD12170474FF000007047D8
:1052800070B5DFF848C11CEA111E1EBF1CEA1315D9
:105290009EEA0C0F95EA0C0F00F06F8081EA030480
:1052A0004EEAD47EAE4421EA4C1123EA4C1341F479
:1052B000801143F48013AEF17F7EA1FB024CA0FB72
:1052C0000365361955EB0C05A1FB034C4CF10003AB
:1052D000A0FB021C16EB0C06654153F100030942CA
:1052E00018BF46F0010613F4007F0BD14FEA0331DB
:1052F0004FEA053041EA155140EA165034036FF089
:1053000003020AE04FEAC3214FEAC52041EA5551A2
:1053100040EA5650F4026FF0020202EB2E4201EB1B
:10532000025585EACE710AD05FEA440C18BF24F01A
:10533000004450F1000041F1000120EAD47040F235
:10534000FE7C624500D270BDA84214BF4FF080447D
:105350004FF04044002E08BF0024BEF1806FA8BF6C
:10536000A1F1C041BDE8704080F2828001F1C041EE
:1053700001F000414FF0000070470CEA13159EEA5F
:105380000C0F18BF95EA0C0F06D081EA030E4FF000
:1053900000000EF0004170BD00F01CF88900013ED5
:1053A00000F007B800F009B84FEA430C5FEA5C5C14
:1053B00008D081EA030100F05BB84FEA410C5FEAD4
:1053C0005C5CF6D102494FF0000070470000FF0717
:1053D0000000F87F0EF1020E2EF0030E5EF8046B53
:1053E000364205D4012A43EB030515F5001F12D8F8
:1053F000012841EB010C1CF5001F0CD80ED14FEA1F
:10540000D17C0CEB4C0C0CF1020C15F5001F08BF05
:105410004CEBD37C04E04FF0080C01E04FEAD37C66
:105420000CEB4C0526FA05F606F00706B6F1040C5F
:1054300006D20EEB860CBDE870404CF0010C6047C4
:10544000DFE80CF0090B02024FF00041A1F500214A
:105450004FF0000070BD19461046012851EB0104C1
:1054600018BFD4F5001484BF002001F0004170BDC6
:105470000808A0F500114FEA3101704790EA010FCA
:1054800048BF81F0004100F1F682421A3CBF801A09
:1054900089184FEAD052A2EBD1534FF07F4C1CEA4F
:1054A000410F18BF9CEA026F00F03B804FF0004CA8
:1054B0004CEA00204CEA012121FA03FC10EB0C0C11
:1054C0001ED202F1FF325FEA1C2040EBC25038BF0F
:1054D00070471CF07F0F4FEA400C18BFBCF17F4FA4
:1054E00038BF7047C3F12003994008BF20F0010086
:1054F000BCF17F4F38BF7047A0F1C04000F0AFBA99
:105500004FEA3C00000A40EBC25028BF1CF0FF0FDE
:105510004FEA400CE6D018BFBCF17F4F38BF704750
:10552000EAE79CEA026F05D010EA5C0F08BF00F0C2
:105530000040704710B500F04CFA00BF64FBBE3E5F
:1055400010B500F0F5F80CBF0120002010BD10B51B
:1055500000F0EEF814BF0120002010BD10B500F0DF
:105560004FF98CBF0120002010BD10B500F048F9A4
:105570002CBF0120002010BD10B500F075F994BFBC
:105580000120002010BD10B500F06EF934BF0120DD
:10559000002010BD401058BFC0F14040491058BF16
:1055A000C1F140418142EFF3008070474FF47F0C1E
:1055B0001CEAD0121EBF1CEAD11392EA0C0F93EA28
:1055C0000C0F00F0858090EA010F48BF42F4807212
:1055D00040F4000C41F400002CF07F4120F07F40AB
:1055E00000B5A2EB030281420FF2081CACEB504E57
:1055F0009EF800E0C0F100004FEA4E0E00FB0EFCEA
:1056000038BF49004FEA2C1C0CFB0EF34FEACE1EAC
:105610000EEB635E4FEA112C0EFB0CFC4FEAC1212E
:105620004FEA1C5300FB031102F5FA024FEA112C5A
:105630000EFB0CFC4FEA01314FEADC4C00FB0C1175
:1056400042EB2242C14228BF09184CEB03335DF8FC
:1056500004EB10EB410143EBC250B2F57C0F38BFB5
:10566000704729D512F0F00F1CBF00F1C04000F0C8
:1056700000407047008182838485868788898B8C6F
:105680008D8E8F919293959697999A9C9D9FA0A2AB
:10569000A3A5A7A8AAACAEB0B2B3B5B7B9BCBEC0FB
:1056A000C2C5C7C9CCCED1D4D7D9DCDFE2E6E9EC9C
:1056B000F0F3F7FAFE0000004FEA400C0CF1807C9A
:1056C000BCF17E4F28BF7047B0F1C04000F0C7B9B1
:1056D0000CEAD11390EA010F48BF42F48072624590
:1056E00038BF634507D213F47F0F16D080EA01005C
:1056F00000F00040704710B500F06BF9097EFC3EE9
:1057000000F005B880EA010000F00040704780EA30
:10571000010000F0004000F0A2B912F47F0F04BFB6
:105720000248704780EA010000F099B90000C07F8C
:1057300050EA010C00F113801CF5000F58BFBCF5B6
:10574000000F01D48842704707D710F5000F58BFEB
:1057500011F5000F15D488427047894270471CF537
:10576000000F04D5BCF5000FF7D5814270474FF00C
:10577000807C1CEB400F38BF1CEB410F01D28142F3
:10578000704710B500F025F9922449004FF0005001
:105790004FF08051FFF7FEBE41000B0ED3F19E0289
:1057A00008D950F400034FEA032323FA02F048BF5C
:1057B0004042704710B500F00CF900BF49922480B8
:1057C000002070476FF0004282EA2000704700001E
:1057D00010F0004148BF4042B0FA80F310FA03F2E3
:1057E000C3F19D030BD051EAC35101EB12205306C4
:1057F00038BF704700F1010008BF20F0010070477A
:1058000050EA010C00F113801CF5000F58BFBCF5E5
:10581000000F01D48842704707D710F5000F58BF1A
:1058200011F5000F15D488427047894270471CF566
:10583000000F04D5BCF5000FF7D5814270474FF03B
:10584000807C1CEB400F38BF1CEB410F01D2814222
:10585000704710B500F0BDF8922449004FF0805019
:105860004FF00051FFF796BE50EA010C00F1138093
:105870001CF5000F58BFBCF5000F01D488427047DB
:1058800007D710F5000F58BF11F5000F15D4884247
:105890007047894270471CF5000F04D5BCF5000F16
:1058A000F7D5814270474FF0807C1CEB400F38BF2A
:1058B0001CEB410F01D28142704710B500F089F80E
:1058C000922449004FF000504FF08051FFF762BE24
:1058D0004FF47F0C1CEAD0121EBF1CEAD11392EACF
:1058E0000C0F93EA0C0F00F0478090EA010F48BFBD
:1058F00042F480724FF0004C4CEA00204CEA012147
:1059000002EB0302A0FB0113A2F50002002918BF5D
:1059100043F001035B0028BF4FEA330342EB22420E
:105920005FEA132C4CEBC2502EBFBCEB436FB2F5B9
:105930007C0F70474FEA036CBCF1004F08BF20F0AA
:105940000100B2F57C0F38BF70470BD582F0FF0223
:1059500012F5803FC8BF704700F1C040D8BF00F0CB
:105960000040704700F5000C5FEA4C0C48BF7047E0
:10597000B0F1C04000F073B80CEAD11390EA010F07
:1059800048BF42F48072624538BF634504D280EA62
:10599000010000F00040704710B500F01AF800BF99
:1059A0008900013E00F007B800F009B85FEA410C39
:1059B0005FEA1C6C08D080EA010000F050B85FEA92
:1059C000400C5FEA1C6CF6D14FF00040A0F580005F
:1059D00070470EF1020E2EF0030E5EF8044B2442C7
:1059E00004D44FEA4102B2F17F4F11D84FEA40038D
:1059F000B3F17F4F0CD80ED14FEAD07C0CEB4C0C9E
:105A00000CF1020CB2F17F4F08BF4CEBD17C04E0EB
:105A10004FF0080C01E04FEAD17C0CEB4C0324FA68
:105A200003F404F00704B4F1040C06D20EEB840C6A
:105A3000BDE810404CF0010C6047DFE80CF00708AF
:105A400002024FF00040A0F5800010BD0846420061
:105A500018BFD2F1807288BF00F0004010BDFF2156
:105A600041EAD050C005704790EA010F48BF81F06D
:105A700000413FF50AAD421A04D882F00042A0EB83
:105A8000020011444FEAD052A2EBD1534FF07F4CA9
:105A90001CEA410F18BF9CEA026F4AD04FF0004C3D
:105AA0004CEA00204CEA012121FA03FCB0EB0C0C7B
:105AB0000FD412F0FE0F36D05FEA4C001DD5001255
:105AC00040EBC25038BF70471CF03F0F18BF704703
:105AD0000BE05FEA1C20A2F1010240EBC25038BF8C
