:020000040800F2
:1000000000090020F1010008892400080D1C0008E7
:100010008524000841100008A933000800000000F2
:1000200000000000000000000000000003020008C3
:10003000FD11000800000000070200080902000886
:100040000B0200080B0200080B0200080B0200085C
:100050000B0200080B020008011200080B02000846
:100060000B0200080B0200080B0200080B0200083C
:100070000B0200080B0200080B0200080B0200082C
:100080000B0200080B0200080B0200080B0200081C
:100090000B0200080B0200080B020008791400088C
:1000A0000B0200080B0200080B0200080B020008FC
:1000B000C9280008092D00081D2D00080B020008A2
:1000C0000B0200080B0200080B0200080B020008DC
:1000D0000B020008353200080B0200080B02000872
:1000E000D91300080B0200080B0200080B020008DD
:1000F0000B0200080B0200080B0200080B020008AC
:100100000B0200080B0200080B0200080B0200089B
:100110000B0200080B0200080B0200080B0200088B
:100120000B0200080B0200080B0200080B0200087B
:1001300000F002F800F04DF80AA090E8000C8244AC
:100140008344AAF10107DA4501D100F042F8AFF289
:10015000090EBAE80F0013F0010F18BFFB1A43F0A5
:1001600001031847C0030100E0030100103A24BF57
:1001700078C878C1FAD8520724BF30C830C144BF0C
:1001800004680C607047000000230024002500264E
:10019000103A28BF78C1FBD8520728BF30C148BFEA
:1001A0000B60704766290BF0D687642900F0AE809B
:1001B000782900F0E780002070471FB500F00AFDA5
:1001C0000400002000210AF0C7FCE0601FBD10B54C
:1001D00010BD00F007FE1146FFF7EFFF07F0E6FD48
:1001E00000F025FE03B4FFF7F2FF03BC06F014FF96
:1001F0000948804709480047FEE7FEE7FEE7FEE7BB
:10020000FEE7FEE7FEE7FEE7FEE7FEE704480549F6
:10021000054A064B704700007127000831010008AD
:100220000003002000090020000500200005002038
:10023000704710B54C1084EA530404D54042C1F114
:10024000000138BF491E1B4204D55242C3F10003CE
:1002500038BF5B1E00F0A4F914F0804F04D0404278
:10026000C1F1000138BF491E14F0004F04D05242C2
:10027000C3F1000338BF5B1E10BD00000FB404497A
:1002800010B503AA029800F093FC10BC5DF814FBB3
:10029000280200200FB41CB5074B06AA7B44694610
:1002A0000090059800F06BFC0020694600F07AFC95
:1002B0001CBC5DF814FB00000509000070B5044685
:1002C00085690068C10601D5302600E02026C007F8
:1002D00007D070BDD4E9012130469047206A401C08
:1002E00020626D1EF6D570BD70B504468569007834
:1002F000C00707D170BDD4E9012120209047206AB2
:10030000401C20626D1EF6D570BD00002DE9F04145
:100310000646002410687529314616A510D0AFF3A3
:100320000080002802DA404213A507E031688A07FE
:1003300001D512A502E0490704D511A5012401E069
:10034000AFF3008000210A2206F1240709E0B0FB88
:10035000F2FCB0FBF2F302FB1C003030785418467C
:10036000491C0028F3D123462A463046BDE8F04117
:1003700000F098B9000000002D0000002B000000E4
:100380002000000070B504460D4621461068AFF30A
:1003900000802188090502D50F4A7A4402E00E4AFE
:1003A0007A440E32002104F1240305E000F00F0628
:1003B0000009965D5E54491C0028F7D1207800237F
:1003C000000704D5702D02D009B102231132204656
:1003D000BDE8704000F066B9F8BE00002DE9F05F9E
:1003E000894604464FF0000ADFF824B1FB44C0F808
:1003F00020A02046E168884700287DD0252806D027
:10040000D4E901219047206A401C2062F1E70025D1
:100410005F462046E16888472028064607DB312EE4
:1004200005D2B81910F8200C08B10543F1E7A80768
:1004300001D525F00405C4F81CA00027C4F818A0B5
:100440002A2E09D0304609F0E8FE38B304EB8708BD
:10045000303EC8F8186019E059F8041B204604EB38
:1004600087029161E1688847012F064618D1E0694B
:10047000002820DA25F020051DE0D8F8180000EB50
:10048000800006EB40003038C8F818002046E168CC
:100490008847064609F0C1FE0028EED1012F0AD098
:1004A0002E2E08D12046E16888477F1C0646022F81
:1004B00045F02005C4DBA069002803DA404245F07E
:1004C0000105A061E80701D025F01005A6B1A6F14D
:1004D0004100192802D8203645F400654A463146C5
:1004E000204625604D46FFF75DFE60B1012807D02C
:1004F000ED1D25F0070000E007E000F1080978E7AE
:1005000005F1040975E730467AE7206ABDE8F09FF7
:10051000CEBE000010B5044603E007F061FA401CAF
:1005200009D014F8010B05490028F6D1BDE81040A8
:100530000A2007F055BA4FF0FF3010BD2802002006
:1005400040EA010310B59B070FD1042A0DD310C850
:1005500008C9121F9C42F8D020BA19BA884201D9A2
:10056000012010BD4FF0FF3010BD1AB1D30703D0EA
:10057000521C07E0002010BD10F8013B11F8014BA0
:100580001B1B07D110F8013B11F8014B1B1B01D1BC
:10059000921EF1D1184610BD7047704770477047E2
:1005A00053EA020C00F069802DE9F04B4FF0000691
:1005B000002B1FBFB3FA83F503FA05F424FA05F6FE
:1005C0005E4012BF1643B2FA82F502FA05F4C5F195
:1005D00020051EBF22FA05FC44EA0C04203556EA29
:1005E000044C4FEA144418BF641C4FF000084FF04D
:1005F0000009904271EB030C39D3002919BFB1FAFD
:1006000081F701FA07F6B0FA80F700FA07F6C7F1AA
:1006100020071EBF20FA07FC46EA0C062037B6FB6F
:10062000F4FCA7EB0507103F07F01F0BCBF12006EA
:100630002CFA06F60CFA0BFB44BFB3460026202F1B
:10064000A4BF5E464FF0000B5BEA060C08BF4FF0FC
:10065000010B19EB0B0948EB0608ABFB027C06FB10
:1006600002CC0BFB03CCC01B71EB0C01C1E70B46AA
:10067000024641464846BDE8F08B13B54FF00000F6
:100680004FF00001AFF30080BDE81C40704710B58B
:1006900000F0A4FA006810BD10B5044600F09EFA00
:1006A000046010BD2DE9F0470D4699469246044678
:1006B00000F124080168880604D5E06921F01001E2
:1006C000216000E00120A84201DD471B00E0002777
:1006D000A1697A1902EB0900081AA0612078C00606
:1006E00002D42046FFF7EAFD002608E0D4E9012104
:1006F0001AF806009047206A401C761C20624E457E
:10070000F4DB2078C0060AD52046FFF7D7FD06E0C7
:10071000D4E9012130209047206A401C2062381E15
:10072000A7F10107F4DC07E0D4E9012118F805007E
:100730009047206A401C2062281EA5F10105F3DCC9
:100740002046FFF7D1FD2078000602D50220BDE843
:10075000F0870120FBE72DE9FF4F0C461E464FF0C6
:10076000FF378BB0D2E90001DDF860800A908A463D
:10077000C1F30A5505B93D46002108464FF0000077
:10078000BAF1000F00F4400005DA00EB80004FF4EE
:10079000400101EA50004FEA9059B9F1010F00DD24
:1007A000B9460A9850EA4A000ED044F61050A5F215
:1007B000FF3545432F14B8F1000F1ED07542291E96
:1007C0001EDDC9F100021CE0B8F1010F4FF000007E
:1007D00001D0302103E0F24305E02154401CB04237
:1007E000FBDB30460022002121540B99C1F8088020
:1007F000C1E900200FB0BDE8F08FBD1B6D1CDEE726
:100800004A4600DA694206A800F072FA06AB93E89D
:10081000070003AB83E8070050460A9909F09FF8E8
:100820008DE80700A0F500501F3800900398002DB8
:100830000ADD42F21F014A460844002303A903903F
:10084000684609F008FB09E0A0F500504A461F3849
:10085000002303A90390684609F012FB8DE8070006
:100860000004000C03D04FF0FF30410800E01046B8
:10087000B8F1000F03D00022009215461EE0751E4D
:1008800005D400F0AFF9303262556D1EF9D5B3468C
:100890000122084302D000227F1C04E02078302887
:1008A00001D100227F1E002A099784D01DE0112D5E
:1008B00007DA00F097F9303262556D1C50EA0102F8
:1008C000F5D1084302D00098C8B10EE00021681E9F
:1008D00005E0235C625C63542254401E491C814243
:1008E000F7DBAB46A81B401E0990002004F80B0064
:1008F0000B98099AC0F80880C0E9002B7AE7112606
:100900004FF0000857E72DE9F04F88460446D21D06
:1009100022F0070191B0D1E90001CDE90A0109F007
:10092000E6FB02460B98C00F01D02D2007E020689F
:10093000810701D52B2002E0202101EAC000032A13
:10094000099001D0072A05DB03464146204600F006
:100950008FF90BE12078800601D5E06900E00620E0
:10096000B8F1650F814606D0B8F1660F18D0B8F11E
:10097000670F70D131E00020B9F1110F009001DB59
:10098000112301E009F101030AAA01A90CA8FFF74C
:10099000E2FEDDE90C70002609F10105834647E01F
:1009A00001204B4600904FF000470AAA01A90CA86D
:1009B000FFF7D1FEDDE90DB00C995D46002610B9B8
:1009C00009F101000D18B9EB050003D4C0F1FF36A1
:1009D00009F10105A5EB09002BE0B9F1010F01DADE
:1009E0004FF001090020B9F1110F0090484601DDD8
:1009F000112300E003460AAA01A90CA8FFF7ABFEE9
:100A0000DDE90C704D4600268346207800070AD4A5
:100A1000AB4500DA5D4601A8012D04DD411911F84E
:100A2000011C302907D04F4502DA17F1040F04DA10
:100A3000012082460FE06D1EEEE7002F02DCED1B69
:100A40003E4403E0781CA84200DD7D1CB81B00F189
:100A5000010A4FF000472078000703D4AA4501DBC4
:100A60004FF0FF3A0021B7F1004F0DF143088DF828
:100A7000431024D002202B23002F01DA7F422D23A4
:100A80000A21021EA0F1010000DC5FB197FBF1FC1E
:100A900097FBF1F201FB1C7C17460CF1300C08F8B7
:100AA00001CDEEE7A8F1010003702188090501D509
:100AB000452100E06521A0F1010800F8011C09981A
:100AC0000FA9A1EB0807FF1D00B10120411901EB9F
:100AD000EA70A1693844081A401EA0612078C00657
:100AE00002D42046FFF7EAFB099828B1D4E9012196
:100AF0009047206A401C20622078C00622D52046FC
:100B0000FFF7DCFB1EE0002E04DBB34502DD01A88D
:100B1000805D00E03020D4E901219047206A401C2C
:100B20002062761CAAF101005FEA000A0AD100F0F7
:100B300051F8C0680168405CD4E901219047206AFF
:100B4000401C2062281EA5F10105DCDC07E0D4E989
:100B5000012118F8010B9047206A401C2062381EC2
:100B6000A7F10107F3DC2046FFF7BEFB032011B01D
:100B700041E6000001694A1C02610878704700B52F
:100B80008FB0CDE901310021059105497944CDE9C6
:100B9000031011466846FFF721FC0FB000BD0000AE
:100BA000E5FFFFFF0A6802F8010B0A6070470000CA
:100BB000074B70B50D467B44FFF7E1FF044628461E
:100BC00000F008F910B14FF0FF3070BD204670BD45
:100BD000276E000000487047C8000020004870479A
:100BE000A800002030B5B0F10A0271F100034FEA0D
:100BF000900E4EEA817EB0EB0E0061EB91014FEA60
:100C0000101E4EEA017E10EB0E0041EB11114FEA6F
:100C1000102E4EEA016E10EB0E0041EB11214FEA4F
:100C2000104E4EEA014E10EB0E0041EB1141401800
:100C300041F100014FEAD00040EA41704FEAD10192
:100C40004FEA810444EA907410EB800544EB010400
:100C50006D1944EB0404521BA3414FF0000348BF3D
:100C60000A3200D530BD401C41F1000130BD00000A
:100C70002DE9F0411F46044603260168072A01F4C6
:100C8000006004DB08B116A505E016A503E008B175
:100C900015A500E015A521F010002060A069C01E78
:100CA000A0610FB1401EA0612046FFF707FB4FB1C6
:100CB000D4E9012138469047206A401C2062C01CBC
:100CC000206206E0206AFAE7D4E9012115F8010B59
:100CD0009047761EF8D22046FFF706FBBDE8F0816C
:100CE0004E414E006E616E00494E4600696E6600D0
:100CF0002DE9F047814616468AB0354878440DC83C
:100D00008DE80D0032487844801C03AC0DC884E89F
:100D10000D0041F69B300844372190FBF1F290FB27
:100D2000F1F5A5F1800501FB12041B3C02D56442DC
:100D3000012000E00020DFF898A080460027FA4458
:100D4000AAF1BE0A0EE0E0070AD03246684607EB79
:100D5000470101230AEB810109F092F88DE80700B1
:100D600064107F1C002CEED1194F7F44AE3F19E078
:100D7000E80715D007EB04100DF1180A90E80E00F3
:100D80008AE80E00C068F04201D1981908903246F6
:100D9000012306A903A809F073F803AB83E8070051
:100DA0006D10641C002DE3D14FF0010332466946FB
:100DB000B8F1000F03A802D009F04DF801E009F0E6
:100DC0005FF8C9E90001C9F808200AB0BDE8F0875A
:100DD0003CB70000007B00F080007047004870477F
:100DE000A80000207546FFF7F9FFAE4605006946EA
:100DF000534620F00700854618B020B5FFF706FAE5
:100E0000BDE820404FF000064FF000074FF000080B
:100E10004FF0000BAC46ACE8C009ACE8C009ACE848
:100E2000C009ACE8C00921F007018D46704710B534
:100E30000446AFF300802046BDE81040FFF7D2B96A
:100E40004FF0013C50F8042B51F8043B9A4221D159
:100E5000A2EB0C03934313EACC1317D150F8042BE5
:100E600051F8043B9A4215D1A2EB0C03934313EAC9
:100E7000CC130BD150F8042B51F8043B9A4209D102
:100E8000A2EB0C03934313EACC13DBD04FF000002A
:100E9000704700BFD01A01BAB1FA81F101F0180110
:100EA00022FA01F0CB40DBB2C0B2C01AC1F120017E
:100EB0002CFA01F3D11A914311EAC311E6D170471C
:100EC0008268002942F0010308BF22F00103836019
:100ED0007047000080B543F60041C4F2010188422A
:100EE00014D042F60001C4F20101884216D042F249
:100EF0000041C4F20101884218BF80BD4FF4007068
:100F0000012101F01FFB4FF400700EE04FF4004090
:100F1000012101F017FB4FF4004006E04FF4806020
:100F2000012101F00FFB4FF480600021BDE88040FB
:100F300001F008BB8068C0F380007047C06C80B2CD
:100F4000704700000068084018BF0120704700008B
:100F50008068C0F3C000704780B54FF6FF634268F9
:100F6000CFF6F07302EA030CD1E9003243EA0C0336
:100F700043EA02224FF2FD734260CFF6F1738268BA
:100F800002EA030ED1E902C30A6942EA0E021A43D9
:100F900042EA4C028260C26A097D013922F4700281
:100FA000C9B242EA0151C16280BD000010B501EB37
:100FB000410C092988BFACF11E0C092903FA0CFE6B
:100FC0004FF0070303FA0CFC4FF0100388BF0C230B
:100FD000062AC45824EA0C0444EA0E04C45003D878
:100FE00034306FF0040307E00C2A87BF2C306FF019
:100FF000400330306FF0220302EB82021A441F23B9
:10100000914003FA02F2036823EA020211430160ED
:1010100010BD0000816841F0080181607047000048
:101020008268002942F4A00308BF22F4A003836071
:1010300070470000816841F0040181607047000042
:10104000FEE70000411EC8B2092802D90020C0B244
:10105000704740F2201024220929C2F200000270D9
:10106000F4D8DFE801F0050A0F14191E23282E34E6
:10107000052141710620C0B27047092141720A2042
:10108000C0B270470D2141730E20C0B270471121CC
:1010900041741220C0B27047152141751620C0B2AC
:1010A0007047192141761A20C0B270471D2141773F
:1010B0001E20C0B27047212180F821102220C0B22A
:1010C0007047252180F825102620C0B270472921BD
:1010D00080F829102A20C0B2704700000139CAB236
:1010E000092A98BF092900D97047DFE801F00511E6
:1010F0001D2935414D59667640F22011020AC2F28F
:10110000000148708A70020C000ECA7008717047A6
:1011100040F22011020AC2F2000148718A71020CE9
:10112000000ECA710872704740F22011020AC2F222
:10113000000148728A72020C000ECA72087370476E
:1011400040F22011020AC2F2000148738A73020CB5
:10115000000ECA730874704740F22011020AC2F2EE
:10116000000148748A74020C000ECA740875704736
:1011700040F22011020AC2F2000148758A75020C81
:10118000000ECA750876704740F22011020AC2F2BA
:10119000000148768A76020C000ECA7608777047FE
:1011A00040F22011020AC2F2000148778A77020C4D
:1011B000000ECA7781F82000704740F22011020A21
:1011C000C2F2000181F8210081F82220020C000EF9
:1011D00081F8232081F82400704740F22011020A90
:1011E000C2F2000181F8250081F82620020C000ED1
:1011F00081F8272081F82800704700007047000020
:10120000B0B582B0012000F07BF941F2000001216D
:10121000C4F2010000F06CFB08B102B0B0BD40F2B6
:10122000D8110020C2F20001087040F2DC21C2F2A5
:1012300000010A68022A3ED1086040F2A82140F26B
:10124000D822A023C2F20001C2F20002086040F2DC
:10125000C421106040F2E422C2F20001C2F2000296
:10126000086040F2E82110604FF48072C2F2000181
:10127000086040F2EC21C2F20001086040F2F02167
:10128000C2F20001086040F2CC21C2F20001086005
:1012900040F2D021C2F20001086040F2D421C2F233
:1012A000000108604FF6FF7080210090002005F0DB
:1012B0007BFC02B0B0BD40F2C825C2F20005286830
:1012C0000328AAD8DFE800F00253284540F20020A6
:1012D0000021C2F20000C4F2B42100680AF0DAFA78
:1012E00000210446C4F2B4310AF089FB68B9002138
:1012F0002046C4F2B4310AF082FB58B900212046DE
:10130000CCF2B4310AF0C6FA044640F2D410C2F26C
:101310000000046001205BE040F2AC200021C2F23A
:101320000000016040F200200021C2F20000CCF277
:10133000A00100680AF0AEFA002104460AF051FB51
:10134000D8BB00212046C4F2B4310AF0A3FA044607
:1013500038E040F2D4100021C2F2000029600160A0
:1013600040F2AC20C2F20000016002B0B0BD40F219
:1013700000200021C2F20000C4F2343100680AF0FB
:1013800089FA00210446C4F2B4310AF038FB68B986
:1013900000212046C4F2B4310AF031FB58B90021D3
:1013A0002046CCF2B4310AF075FA044640F2D4106B
:1013B000C2F20000046002200AE0204600210AF088
:1013C0001EFB20B940F2D410C2F2000004600320DA
:1013D000286002B0B0BD0000B0B541F200444FF447
:1013E0008051C4F20104204600F082FA012808D19D
:1013F00020464FF4005100F07BFA40F2882100288B
:1014000016E020464FF4805100F072FA054620465F
:101410004FF4005100F06CFA3DB101281ED1A4F543
:1014200080604FF4805100F063FA40F28821012877
:10143000C2F20001096801D0481C00E0481E40F2D9
:101440008821C2F2000108604FF4805000F058F883
:101450004FF40050BDE8B04000F052B8A4F58064ED
:101460004FF40051204600F043FA0028ECD120460A
:101470004FF48051BFE70000B0B541F200044021B5
:10148000C4F20104204600F033FA012807D12046B7
:10149000802100F02DFA40F28C21002812E0204635
:1014A000402100F025FA05462046802100F020FA70
:1014B0002DB101281AD12046402100F019FA40F23E
:1014C0008C210128C2F20001096801D0481C00E00B
:1014D000481E40F28C21C2F200010860802000F01A
:1014E0000FF84020BDE8B04000F00AB82046802147
:1014F00000F0FEF90028F1D120464021C9E70000A4
:1015000040F21441C4F2010108607047C26840F221
:101510000041C4F20101F2B102680B6893430B6011
:101520004B6893434B60D0F804C05CF801301A4319
:101530004CF8012002688B6893438B60CB6893431F
:10154000CB60806810280DD1886810438860C86817
:101550001043C8607047D0E90020435823EA0202D4
:101560004250704743581A434250704780B50C228E
:1015700040F2080E0F2302EA810201F0FC01C4F2DE
:10158000010E03FA02FC51F80E30904023EA0C03DE
:1015900041F80E3051F80E20104341F80E0080BD86
:1015A00080B5D1F808E00EF00F0C1EF0100F1CBF34
:1015B0004B684CEA030C098811F0FF0F00F0A4807F
:1015C0000368CA070BD023F00F02BEF1480F42EAAE
:1015D0000C0315D0BEF1280F01D1012242618A0708
:1015E00012D523F0F002BEF1280F42EA0C131CD0F2
:1015F000BEF1480F08D1022202614A0706D418E062
:10160000012202618A07ECD44A0712D523F47062E2
:10161000BEF1280F42EA0C231CD0BEF1480F08D1BE
:10162000042202610A0719D505E0022242614A0735
:10163000ECD40A0712D523F47042BEF1280F42EA17
:101640000C331CD0BEF1480F08D108220261CA0633
:1016500006D418E0042242610A07ECD4CA0612D567
:1016600023F47022BEF1280F42EA0C431CD0BEF1D5
:10167000480F08D1102202618A0619D505E0082218
:101680004261CA06ECD48A0612D523F47002BEF178
:10169000280F42EA0C531CD0BEF1480F08D120227B
:1016A00002614A0606D418E0102242618A06ECD490
:1016B0004A0612D523F07062BEF1280F42EA0C638D
:1016C0001AD0BEF1480F08D1402202610A061AD58D
:1016D00005E0202242614A06ECD40A0613D523F025
:1016E0007042BEF1280F42EA0C730AD0BEF1480FD7
:1016F00009D18022026106E0402242610A06EED44E
:1017000001E0802242610360B1F5807F38BF80BD77
:101710004368CA050CD523F00F02BEF1480F42EA18
:101720000C0317D0BEF1280F02D14FF48072426132
:101730008A0514D523F0F002BEF1280F42EA0C13FB
:101740001FD0BEF1480F0AD14FF4007202614A0562
:1017500007D41BE04FF4807202618A05EAD44A057F
:1017600014D523F47062BEF1280F42EA0C231FD077
:10177000BEF1480F0AD14FF4806202610A051CD500
:1017800006E04FF4007242614A05EAD40A0514D516
:1017900023F47042BEF1280F42EA0C331FD0BEF191
:1017A000480F0AD14FF400620261CA0407D41BE05B
:1017B0004FF4806242610A05EAD4CA0414D523F4C6
:1017C0007022BEF1280F42EA0C431FD0BEF1480F31
:1017D0000AD14FF4805202618A041CD506E04FF40E
:1017E00000624261CA04EAD48A0414D523F4700268
:1017F000BEF1280F42EA0C531FD0BEF1480F0AD1A8
:101800004FF4005202614A0407D41BE04FF48052A7
:1018100042618A04EAD44A0414D523F07062BEF10E
:10182000280F42EA0C631ED0BEF1480F0AD14FF4D4
:101830008042026109041BD506E04FF40052426168
:101840004A04EAD4090413D523F07041BEF1280FED
:1018500041EA0C730ED0BEF1480F09D14FF400419C
:101860000161436080BD4FF4804242610904EBD4C2
:10187000436080BD4FF400414161436080BD000082
:1018800010B50422002800F440141FFA80FCC4F2B2
:1018900001021346B8BF43F01803B4F5401F1B689C
:1018A000C0F3034E07D1146823F0706324F0706412
:1018B000146081B916E0C40206D447F6F07404EA55
:1018C00050440CFA04F402E0032404FA0EF4A34397
:1018D00043F0706331B147F6F07101EA50410CFA00
:1018E00001F10B430028B8BF1832136010BD00008F
:1018F0008068084018BF01207047000041617047B0
:10190000016170472DE9F04F89B0012818D00228F5
:1019100029D140F2C41040F2AC1140F20022C2F2D0
:101920000000C2F20001C2F2000206F02DFB0DF130
:10193000160369203B210E2200F068FEB0B142E0A0
:1019400040F2C41940F2AC1540F20022C2F2000984
:10195000C2F20005C2F200024846294606F014FB16
:10196000002800F0AE8009B0BDE8F08FBDF8160089
:10197000C0BA0AF089F98146BDF81800C0BA0AF069
:1019800083F90546BDF81A00C0BA0AF07DF906468B
:10199000BDF81E00C0BA0AF077F909F04FFF0446FF
:1019A000BDF820000F46C0BA0AF06EF909F046FFF4
:1019B000CDE90010BDF82200C0BA0AF065F909F0BF
:1019C0003DFFCDE9021046F26663204639464FF0EE
:1019D0006632C4F230031F4609F0C2F909F0D2F8AA
:1019E00040F2B822C2F20002D2E9001492680492D6
:1019F0000AF03CFB834640F27C103146C2F2000004
:101A0000C0F800B0284608F025FF40F2000AC4F2F2
:101A1000343A51460AF0CCF940F6DB75C4F2490578
:101A2000294609F0FFFF80464846314608F012FF7C
:101A3000B14606464046594600F0FAFA40F2AC1864
:101A40004FF066323B46C2F20008C8F80000DDE9FC
:101A5000001009F085F909F095F821460AF006FB17
:101A60000446304651460AF0A3F9294609F0DAFF48
:101A7000214600F09DFB40F2C4114FF066323B4618
:101A8000C2F200010860DDE9021009F069F909F00D
:101A900079F804990AF0EAFA40F28011C2F20001E2
:101AA000086040F2141040F21811C2F20000C2F2B5
:101AB0000001C0F80090D8F80000086009B0BDE847
:101AC000F08F0DF1160369203B210E2200F09EFDE0
:101AD00000B11AE0BDF81E00C0BA0AF0D5F809F04E
:101AE000ADFE0746BDF820000C46C0BA0AF0CCF89F
:101AF00009F0A4FE0290BDF822008B46C0BA0AF09D
:101B0000C3F809F09BFECDE9031046F2666638463D
:101B100021464FF06632C4F23006334609F020F910
:101B200009F0B2FA0AF0B0F840F2B822C2F20002AC
:101B300092E812010AF09AFA0AF06AF840F2B02A22
:101B4000074659464FF066323346C2F2000AAAF8F9
:101B50000000029809F004F909F096FA0AF094F8E6
:101B600021460AF083FA0AF053F8AAF802004FF06F
:101B700066323346DDE9031009F0F2F809F084FA21
:101B80000AF082F841460AF071FA0AF041F8AAF820
:101B9000040038460AF078F80146286800F048FA50
:101BA0002860BAF902000AF06FF80146D9F800007F
:101BB00000F0FEFA40F21811C9F800002868BAF9DE
:101BC0000440C2F200010860BAF900000AF05CF8B3
:101BD00040F27C11C2F20001086020460AF054F87D
:101BE00040F28011C2F20001086040F27C20C2F293
:101BF0000000B0F904000AF047F840F21411C2F2F4
:101C00000001086009B0BDE8F08F0000FEE70000A9
:101C1000022005F053BA000010B584B0082001215D
:101C2000012400F083FC102001A903904FF44060D0
:101C3000ADF804000320029040F60040C4F2010019
:101C4000FFF7AEFC48F2A810C4F221200460446003
:101C500004B010BD2DE9F04F83B040F6044102906E
:101C600048F2A8154FF0000BC4F20101C4F221257F
:101C7000086820F470400860086840F4004008607C
:101C800000202860022005F019FA01262E6055F880
:101C90007C0C0190012005F011FA0220C5F800B07B
:101CA00005F00CFA2E60012055F87C7C05F006FA50
:101CB0000220C5F800B005F001FA2E60012055F8A9
:101CC0007C4C05F0FBF90220C5F800B005F0F6F9F0
:101CD0002E60012055F87C8C05F0F0F90220C5F843
:101CE00000B005F0EBF92E60012055F87C9C05F062
:101CF000E5F90220C5F800B005F0E0F92E600120FA
:101D000055F87CAC05F0DAF90220C5F800B005F012
:101D1000D5F92E60012055F87CBC05F0CFF90020E4
:101D20002860022005F0CAF92E60012055F87C6C6D
:101D300005F0C4F940F6044200212960C4F2010212
:101D4000106820F470401060106840F4405010603B
:101D50000198002818BF0120002F18BF0127002C70
:101D600018BF012447EA4000B8F1000F18BF4FF038
:101D7000010844EA4000B9F1000F18BF4FF0010913
:101D800048EA4000BAF1000F18BF4FF0010A49EAD3
:101D90004000BBF1000F18BF4FF0010B4AEA4000B2
:101DA000002E4BEA400018BF012646EA4004029884
:101DB00048B10220696005F081F901202860022005
:101DC00005F07CF908E0012602206E6005F076F946
:101DD00002202E6005F072F900202860E0B203B006
:101DE000BDE8F08FF0B581B0044640F6044048F2FB
:101DF000A8150026C4F20100C4F22125016821F4CF
:101E000070410160016841F440510160E0092E60B9
:101E10006860022005F052F9012702202F6005F0CA
:101E20004DF902202E6005F049F9C4F38010686076
:101E3000022005F043F902202F6005F03FF902204F
:101E40002E6005F03BF9C4F340106860022005F0F5
:101E500035F902202F6005F031F902202E6005F0DF
:101E60002DF9C4F300106860022005F027F9022064
:101E70002F6005F023F902202E6005F01FF9C4F34E
:101E8000C0006860022005F019F902202F6005F0FB
:101E900015F902202E6005F011F9C4F38000686086
:101EA000022005F00BF902202F6005F007F902204F
:101EB0002E6005F003F9C4F340006860022005F0CD
:101EC000FDF802202F6005F0F9F802202E6005F0E1
:101ED000F5F804F001006860022005F0EFF8022038
:101EE0002F6005F0EBF82E60022001B0BDE8F04055
:101EF00005F0E4B8B0B540F6044048F2A814C4F2C6
:101F00000100C4F22124016821F4704101600168DC
:101F100041F440510160012060602060042005F020
:101F2000CDF800250420656005F0C8F82560B0BD37
:101F300010B540F6044048F2A814C4F20100C4F2FF
:101F40002124016821F470410160016841F440518D
:101F50000160002020606060042005F0AFF80120DF
:101F6000206060600420BDE8104005F0A7B80000C4
:101F700070B540F6044448F22C150126C4F2010461
:101F8000C4F22125206820F470402060206840F4CD
:101F9000004020600120C5F8806005F08FF8012026
:101FA000EE6705F08BF8286888B10020296871B1C8
:101FB000296861B140F00201C9B2F9290BD82A6839
:101FC0002AB1F92907D8296804300029EED1002464
:101FD0002046EC6770BD206820F4704020602068C7
:101FE00040F4405020600020E867C5F880000420DD
:101FF00005F064F801240420EC67C5F8804005F082
:102000005DF8204670BD000041F21801C4F20201E3
:102010000A6842F001020A600421C4F201010A6860
:1020200022F0E0620A600A6842EA40600860704795
:102030002DE9F04F85B0CDE9031040F28410C2F2D3
:10204000000004684FF0004021460AF00FF840F20B
:102050008811C2F20001096801910AF007F80146EF
:1020600040F27800C2F20000D0F800B0584609F003
:102070009FFE41F26F21C3F6832109F00BFC40F271
:102080000805C2F20005296809F004FC4FF07C51F4
:10209000074609F0FFFB80463846414609F0C2FC7E
:1020A00039460646029009F083FE0146384609F09B
:1020B000DDFF286040F20C005946C2F200000568BE
:1020C000284609F075FE82462046514609F0CEFFAB
:1020D00081463046494609F06BFE0146484609F004
:1020E000C5FF40F28411C2F2000108600198514618
:1020F00009F0BCFF4146064609F094FC3946044607
:1021000009F056FE0146304609F0B0FF40F2881152
:10211000C2F20001086049F6A6315846C3F64431C0
:1021200009F046FE294609F0B5FB0546204649461A
:1021300009F03EFE0146284609F098FF40F28C184F
:1021400040F20C01C2F20008C2F20001D8F80050BF
:1021500008600398294609F089FF594609F028FECE
:1021600040F290190146C2F20009D9F8000009F0C6
:1021700091FB06460498314609F078FF029907461C
:1021800009F016FE0146304609F084FB0646C9F800
:1021900000003846214609F00BFE0146284609F0AA
:1021A00079FBC8F80000304605B0BDE8F08F0000AC
:1021B0002DE9F04F83B0CDE9011040F29410C2F246
:1021C0000000076841F26F20C3F68320394609F00A
:1021D0004DFF40F29811C2F200010C68214609F04F
:1021E00045FF014640F27800C2F20000D0F800B08E
:1021F000584609F0DDFD40F21009C2F20009D9F895
:10220000001009F047FB4FF07C51054609F042FBF6
:1022100080462846414609F005FC294606460090BE
:1022200009F0C6FD0146284609F020FFC9F8000064
:1022300040F214005946C2F20000D0F800A0504607
:1022400009F0B6FD81463846494609F00FFF0746BA
:102250003046394609F0ACFD0146384609F006FF24
:1022600040F29411C2F2000108602046494609F08C
:10227000FDFE4146064609F0D5FB2946044609F015
:1022800097FD0146304609F0F1FE40F29811C2F286
:102290000001086049F6A6315846C3F6443109F0FA
:1022A00087FD514609F0F6FA05462046394609F001
:1022B0007FFD0146284609F0D9FE40F29C1840F205
:1022C0001401C2F20008C2F20001D8F80050086000
:1022D0000198294609F0CAFE594609F069FD40F205
:1022E000A0190146C2F20009D9F8000009F0D2FA9B
:1022F00006460298314609F0B9FE0099074609F0F2
:1023000057FD0146304609F0C5FA0646C9F80000F7
:102310003846214609F04CFD0146284609F0BAFA34
:10232000C8F80000304603B0BDE8F08F2DE9F04357
:1023300085B00C4605460DF1060369203B210E22AF
:1023400000F064F900281EBF002005B0BDE8F0834E
:10235000BDF80A00C0BA09F097FCBDF80810BDF836
:102360001280BDF80E90BDF81060BDF80670A86030
:10237000C8BA09F089FC6860F8BA09F085FC2860E1
:10238000F0BA09F081FC09F059FA46F266654FF09F
:102390006632C4F230052B4608F0E2FC08F0F2FB8E
:1023A000606099FAB9F009F06FFC09F047FA4FF054
:1023B00066322B4608F0D4FC08F0E4FB206098FA63
:1023C000B8F009F061FC09F039FA4FF066322B469B
:1023D00008F0C6FC08F0D6FBA060012005B0BDE8FF
:1023E000F083000080B5FFF717FC6B20802100F020
:1023F000DDFF642004F034FE6B20002100F0D6FFE6
:102400001B20182100F0D2FF1C20102100F0CEFF6D
:102410001920012100F0CAFF1A20012100F0C6FF97
:102420003820002100F0C2FF6A20002100F0BEFF2A
:102430002320002100F0BAFF3720802100F0B6FFF2
:10244000FFF758FDD220FFF7CDFCFFF791FD752077
:10245000FFF7C8FCFFF78CFDFFF74CFDD320FFF71B
:10246000C1FCFFF785FD0020FFF7F4FBFFF760FDDF
:102470006B20032100F09AFF6C20002100F096FFF2
:10248000002080BDFEE700007047000042684EF269
:102490000011CEF20001EAB110B54EF60C5207233E
:1024A000CEF20002126890F801E0847890F800C043
:1024B00023EA12220F23D340C2F1040223400EFA72
:1024C00002F21A4301EB0C03120183F80023BDE86A
:1024D000104000E080310078012300F01F02C0F3BB
:1024E000421003FA02F241F82020704740F0806069
:1024F0004EF60C5140F0FD70CEF2000108607047BE
:1025000041F20401C4F202010A6822F4404210437D
:102510000860704741F21C020029C4F202021168EF
:102520000CBF21EA000008431060704741F2180216
:102530000029C4F2020211680CBF21EA000008431E
:102540001060704741F20C020029C4F202021168C7
:102550000CBF21EA000008431060704780B541F2CB
:10256000040EC4F2020EDEF8002002F00C0341F269
:102570000022C0F27A02082B1FD1DEF80030C3F32C
:10258000834303F1020CDEF8003013F4803F06D1E0
:1025900040F60012C0F23D020CFB02F20DE0DEF844
:1025A000003013F4003F02D10CFB02F205E040F6CC
:1025B0000012C0F23D020CFB02F202604CF25841E4
:1025C000DEF80030C0F60001C3F30313CB5CDA4041
:1025D0004260DEF80030C3F30223CB5C22FA03F33F
:1025E0008360DEF80030C3F3C223C95C4CF254436D
:1025F000C0F6000322FA01F1C160DEF80020C2F348
:1026000081329A5CB1FBF2F1016180BD2DE9F04F9E
:1026100081B040F6044A074648F2A81901261C4634
:1026200015468846C4F2010AC4F22129DAF80000EE
:1026300020F47040CAF80000DAF8000040F440507E
:10264000CAF800000420C9F80460C9F8006004F06A
:1026500035FD4FF0000B0420C9F804B004F02EFD46
:102660007F00C9F800B0F8B2FFF7BCFBFFF780FCB1
:10267000D0B1DAF8000020F47040CAF80000DAF8AF
:10268000000040F44050CAF800000420C9F800B02F
:10269000C9F804B004F012FD0420C9F80060C9F8BC
:1026A000046004F00BFD51E04046FFF79BFBFFF791
:1026B0005FFCDAF8000020F47040CAF80000DAF895
:1026C000000040F44050CAF800000420C9F804603B
:1026D000C9F8006004F0F2FC0420C9F804B004F06A
:1026E000EDFC47F00100C9F800B0C0B2FFF77AFB7B
:1026F000FFF73EFC05E000BFFFF7ACFA04F8010B62
:10270000013DE8B2012803D020B10120F4E700BF69
:102710000020F1E7DAF80000002620F47040CAF843
:102720000000DAF8000040F44050CAF8000004202D
:10273000C9F80060C9F8046004F0C0FC0120C9F8C1
:102740000000C9F80400042004F0B8FC304601B0D1
:10275000BDE8F08F4EF210010428CEF200010A68A5
:1027600022F0040308BF42F004030B60704700002E
:1027700082B041F204000022C4F20200CFF6FF0250
:1027800050F8041C41F0010140F8041C016811409C
:102790004FF6FF720160CFF6F66250F8041C11404C
:1027A00040F8041C50F8041C21F4802140F8041C5B
:1027B000016821F4FE0101604FF41F014160002116
:1027C0000191009150F8041C41F4803140F8041C40
:1027D00050F8041C01F4003100910199013101917C
:1027E000009919B90199B1F5A06FF1D150F8041C05
:1027F00011F4003F0CBF0021012100910099012933
:1028000058D1D0F8FC1F41F01001C0F8FC1FD0F8DF
:10281000FC1F21F00301C0F8FC1FD0F8FC1F41F0A1
:102820000201C0F8FC1F01680160016801600168D5
:1028300041F480610160016821F47C11016001684C
:1028400041F4E811016050F8041C41F0807140F837
:10285000041C00BF50F8041C11F0007F0ED150F88A
:10286000041C11F0007F09D150F8041C11F0007F06
:1028700004D150F8041C11F0007FEBD0016821F066
:1028800003010160016841F002010160016801F08B
:102890000C0108290ED0016801F00C01082909D0AB
:1028A000016801F00C01082904D0016801F00C0155
:1028B0000829EBD14EF608504FF00061CEF200002F
:1028C000016002B0704700002DE9F04F81B04FF079
:1028D0008040012100F070FA012840F00B824FF097
:1028E0008040012100F032FA40F2DC26C2F20006FC
:1028F0003068002840F0CD8040F2D82BC2F2000BA7
:10290000DBF80000B0F5167FC0F2C080B0F57A7F2A
:1029100023DA40F2701940F20810C2F20009C2F244
:1029200000004946FFF702FD40F2A820C2F2000075
:102930000168C9B340F2D42099E88204C2F20000D1
:10294000D0F8008040F2D020C2F20000056840F2CA
:10295000CC20C2F2000000683DE040F09A800120E7
:102960000024306040F2E820C4F2C834C2F2000013
:102970002146006809F056F840F2B8252146C2F217
:102980000005286040F2EC20C2F20000006809F067
:1029900049F8686040F2F0202146C2F20000006869
:1029A00009F040F8A86074E00121016040F2CC20F9
:1029B00099E88204C2F20000016040F2D020D046C3
:1029C0003D46C2F20000076040F2D420C2F200008F
:1029D000C0F800A0084609F049FB014609F0E8F9F3
:1029E00004462846394609F041FB014609F0E0F962
:1029F0000146204608F04EFF04464046514609F085
:102A000035FB014609F0D4F90146204608F042FFA3
:102A100008F08CF80021C4F2F00108F0E9FF30B9A9
:102A200002203060D9E90005D9F8084012E040F2F0
:102A3000CC21D9E90005D9F80840C2F200010860AC
:102A400040F2D021C2F200010D6040F2D421C2F266
:102A500000010C6040F2E827C2F20007396808F074
:102A600019FF386040F2EC272846C2F200073968A7
:102A700008F010FF40F2F02538602046C2F2000551
:102A8000296808F007FF2860DBF800000130CBF868
:102A9000000040F2F420C2F200000168C72901DC06
:102AA00001310BE0C8290AD140F28011C4F2232180
:102AB0000A68B2FA82F252090A600021016040F20B
:102AC000DC10C2F200000168B1FA81F200294FEA7D
:102AD000521202601CD03068012840F00B8140F295
:102AE000EC1AC2F2000ADAF80000002840F0028175
:102AF00040F2C424C2F200042068312852DC0120D4
:102B0000FEF700FF20680130206001B0BDE8F08FC3
:102B100003F0C2FC40F2FC11C2F20001086040F276
:102B2000F411C2F200010A68531C40F2F812C2F21A
:102B30000002642B0B6017683844106040F0DA80A4
:102B400000230B6048F21F511360C5F2EB1180FBAC
:102B50000101481100EBD17009F096F840F2F01134
:102B6000C2F2000108600021C4F2C82108F05AFF37
:102B700008F064FE43F233334FF03332C4F22603DD
:102B800008F0FEFE002840F0B58040F2EC10C2F2E2
:102B900000000168002940F0AD800121016001B012
:102BA000BDE8F08F0220FEF7ADFE40F200290021C3
:102BB000C2F20009D9F80040204608F012FF38B9E7
:102BC00000212046C4F2B43108F064FEC9F80000C8
:102BD000042002F001FD40F25816C2F200063060F7
:102BE000032002F0F9FC40F25C1540F2D8170146D0
:102BF000C2F20005C2F2000728603878612809D1C6
:102C000040F2D41040F2D012C2F20000C2F2000230
:102C100000681060306803F081FE40F27C1040F2E2
:102C20001818C2F20000C2F200080168D8F80000CB
:102C300003F070FF40F21C142968C2F20004206007
:102C4000306803F0F9FF397840F2E415C2F200056C
:102C50006129286023D140F2D41040F2D011C2F291
:102C60000000C2F200010068086040F28010C2F269
:102C700000000168D9F8000003F0A8FE40F2CC166D
:102C80004FF630024FF4FA61C2F20006CFF6FF723F
:102C9000306004F0B9F901463060286804E040F281
:102CA000CC11C2F200010968226840F2A8154EF268
:102CB0000C5440F2A416C2F20005CFF6FF74C2F223
:102CC000000602445018511A2246296041F6F421A8
:102CD000306004F099F93060286841F6F42122460A
:102CE00004F092F92860DAF80010D8F8000003F038
:102CF0007FFF10B101B0BDE8F08F2968306801B0E6
:102D0000BDE8F04F03F020BF40F21040C4F20000D5
:102D10000188018821F001010180704740F6100010
:102D2000C4F200000188018821F001010180704790
:102D30000288002942F0800308BF22F0800303804C
:102D400070470000C943018270470000C9430182F7
:102D5000704700000288002942F0010308BF22F0FA
:102D60000103038070470000B0F844200029134697
:102D70006FF3DF3318BF42F40043A0F844307047CC
:102D800080B5B0F808C02CF0070C41EA0C01B0F88F
:102D900018C0B0F820E001814FF6FC410CEA010CAC
:102DA00040F2011141EA0C01018342EA03112EF0C5
:102DB00022021143018480BD028A0A4018BF012209
:102DC0008089084018BF01201040704770B50B88FB
:102DD000042B2AD0002B56D1B1F802C00A898B8867
:102DE000068C40F6FF354FF6FC74C4F2000526F061
:102DF000010643EA02130246A842068432F8186F1D
:102E0000B0F820E026F0F30643EA06036DDCB0F1EB
:102E1000804F7DD040F20045C4F20005A84277D033
:102E200040F60005C4F200056FE00E894B888A88E1
:102E3000058C40F6FF44360325F0100546EA0226CD
:102E40000584024632F8185FB0F820E0254046EAD3
:102E5000050C40F6FF356FF00306C4F20005A6F13D
:102E6000AD04A84262DCB0F1804F71D040F2004561
:102E7000C4F20005A8426BD040F60005C4F200057C
:102E8000A84265D068E00A898C884E88058C082B9A
:102E900071D125F48073038444EA0213024632F8A8
:102EA0001C5FB0F820E025F0F30543EA050C6FF451
:102EB000405303F5145440F6FF33C4F20003984224
:102EC00000F38180B0F1804F00F08F8040F200432A
:102ED000C4F20003984200F0888040F60003C4F278
:102EE0000003984200F0818084E040F60045C4F27F
:102EF0000005A8420CD042F60045C4F20105A842E4
:102F000006D043F20045C4F20105A84218BF083CB0
:102F100003830EEA040343EA0C0343F00103038432
:102F2000C988038B23F00C03038394E040F600452B
:102F3000C4F20005A8420BD043F20045C4F20105DB
:102F4000A84205D042F60045C4F20105A84203D1CB
:102F50004FF6FC741B012D3C0EEA0406A0F818C0C5
:102F6000334343F010030384C988038B23F4406385
:102F7000090203836FE025F480531203038442EABD
:102F80000423024640F6FF4432F81C5FB0F820C02C
:102F9000254046F6FF5443EA050E40F6FF33C4F2DF
:102FA0000003984234DCB0F1804F43D040F200433C
:102FB000C4F2000398423DD040F60003C4F200037F
:102FC000984237D039E040F60043C4F200039842FB
:102FD0000BD043F20043C4F20103984205D042F6FD
:102FE0000043C4F20103984204D14CF6FF73360249
:102FF00003F534540EEA0403A0F81CC0334343F431
:1030000080730384C988838B23F00C03838322E0BD
:1030100040F60043C4F2000398420BD043F2004351
:10302000C4F20103984205D042F60043C4F2010302
:10303000984202D136034CF6FF740CEA0403A0F860
:103040001CE0334343F480530384C988838B23F407
:1030500040630902838310880843108070BD00001C
:10306000002101220160426001817047002A8289AB
:103070000CBF22EA010111438181704710B5028C17
:1030800022F480720284048CB0F804E0838B0A88F6
:1030900023F0730343EA020C0B8924F4007242EA22
:1030A00003224B8842EA032243F20043C4F20103A5
:1030B000984205D042F60043C4F20103984212D16F
:1030C0008B892EF4405422F4406244EA0313CC89E5
:1030D00043EA041E4B8940F2FF441B02A3431A43F8
:1030E0008B8842EA0322A0F804E0A0F81CC0C9883B
:1030F0008187028410BD0000828B22F008021143F8
:103100008183704710B5028C22F480520284048CB3
:10311000B0F804E0828B0B8822F4E64242EA032CEA
:103120000B8924F4005242EA03324B8842EA03330B
:1031300043F20042C4F20102904205D042F600423E
:10314000C4F20102904204D18A892EF4804444EAF8
:10315000821EA0F804E0A0F81CC0C988A0F84010A6
:10316000038410BD828B22F4006242EA0121818334
:10317000704700008184704740F6FF33B0F800C00C
:10318000C4F2000398420FDCB0F1804F1ED040F231
:103190000043C4F20003984218D040F60003C4F282
:1031A0000003984212D016E040F60043C4F2000338
:1031B00098420BD043F20043C4F20103984205D079
:1031C00042F60043C4F20103984204D14B882CF02C
:1031D000700243EA020C41F2004240F48063C4F200
:1031E0000002934204D0CB882CF4407243EA020CD4
:1031F000A0F800C08A8882850A880285A0F18042F2
:10320000A2F596324FEAB222072A07D8012303FA21
:1032100002F212F0E50F1CBF097A018601218182BA
:10322000704700004FF6FF7141600021016001729C
:103230007047000010B543F6000440F22551C4F277
:103240000104204600F01CF8002808BF10BD2046ED
:1032500000F0A6F840F2F821C2F20001086040F246
:10326000D811C2F20001087010BD00008289002947
:1032700042F4005308BF22F40053838170470000DA
:1032800001F01F02012303FA02F2C1F34213022BE1
:1032900006D0012B14BF00F1140300F10C0301E070
:1032A00000F110031B88090A1A404FF0010318BFF0
:1032B0000122008803FA01F1084018BF01201040E4
:1032C0007047000001F01F0C012303FA0CFCC1F34E
:1032D00042131421022B08BF1021012B08BF0C211F
:1032E000002A42580CBF22EA0C0242EA0C02425069
:1032F0007047000070B586B00446008A0D46C98844
:1033000001AE20F4405008434EF6F3112082A0890C
:103310000840A98808432989084369890843A0818E
:10332000A08AA98920F440700843A0823046FFF7A4
:1033300015F943F6000106F108000222C4F201016A
:103340008C424FF0190108BF06F10C0004260068FA
:103350004843A189A2EBD1312A6802FA01F1B0FBFE
:10336000F1F048F21F51C5F2EB11A0FB01235A09FD
:103370006FF0630302FB0300A389A6EBD336B040D2
:103380003230A0FB0101072040EA133080F0080032
:1033900000EA511040EA0210208106B070BD000022
:1033A00080886FF35F207047FEE70000B0B50C46E1
:1033B0000546FEF79FFDFEF72BFCD220FEF712FD1F
:1033C000FEF7D6FD18B1FEF7B3FD0120B0BD2846CB
:1033D000FEF708FDFEF7CCFD2046FEF703FDFEF7E5
:1033E000C7FD0446002818BF0124FEF7A1FD2046B2
:1033F000B0BD00002DE9F04F81B040F6044A074609
:1034000048F2A81901241D4616468846C4F2010A4E
:10341000C4F22129DAF8000020F47040CAF8000054
:10342000DAF8000040F44050CAF800000420C9F85F
:103430000440C9F8004003F041FE4FF0000B0420A7
:10344000C9F804B003F03AFE7800C9F800B0C0B281
:10345000FEF7C8FCFEF78CFDD0B1DAF8000020F4CE
:103460007040CAF80000DAF8000040F44050CAF892
:1034700000000420C9F800B0C9F804B003F01EFE33
:103480000420C9F80040C9F8044003F017FE49E0E1
:103490004046FEF7A7FCFEF76BFD56B1002400BFC7
:1034A000285DFEF79FFCFEF763FDF8B90134B442D6
:1034B000F6D3DAF80000002420F47040CAF80000C7
:1034C000DAF8000040F44050CAF800000420C9F8BF
:1034D0000040C9F8044003F0F1FD0120C9F80000E4
:1034E000C9F80400042003F0E9FD1BE0DAF800004D
:1034F00020F47040CAF80000DAF8000040F44050B0
:10350000CAF800000020C9F80000C9F8040004202F
:1035100003F0D4FD01240420C9F80040C9F8044098
:1035200003F0CCFD204601B0BDE8F08F70B586B049
:1035300041F218000124C4F20200016841F01101B7
:103540000160012003F0BAFD10200121FEF7EEFF1B
:103550004820ADF8084002A904900320039041F2EE
:103560000000C4F20100FEF71BF801200121FEF764
:10357000DDFF0220002102250026FDF7F7FF0C20C9
:10358000CDE90246CDE9040402A8FDF7BFFF4FF4E0
:1035900083708DF80250ADF8000068460194FEF784
:1035A00075FF06B070BD000010B50446000A01F0BA
:1035B00069FFE0B2BDE8104001F064BF10B586B00D
:1035C000012001210124FEF7A5FF40F2671003A9A5
:1035D000039040F2E73004904FF08040FFF7CCFDBD
:1035E0004FF080400121FFF7B1FB4FF080400121F7
:1035F0000122FFF73BFD4FF4A060FEF777FF0020AC
:103600008DF806001C20ADF8040001A80294FEF716
:103610003DFF4FF080400121FFF79CFB06B010BD3D
:103620002DE9F04F87B0119E074690461C460D4687
:10363000069100EB5600013882B28819013883B236
:10364000384602F03BFB07210122300911EA560FF0
:1036500018BF02EB161070430028049000F084801D
:10366000A6F10C0075083E464FF0000BC0F3850133
:103670005FFA85F941EA8011A8F12000CBB24CF63F
:10368000DC01C2B20020C0F600010292039301EBFC
:10369000021101914EF2AC01C0F6000101EB821162
:1036A00000220091052B5FD80592DFE803F0030D9F
:1036B0005D0F5D1902994CF26842C0F6000201EB01
:1036C000410102EB81010CE001990AE002994CF6FC
:1036D000DC62C0F6000201EB410102EB011100E0E7
:1036E000009908444FF0000890F800A001201299BA
:1036F00000FA08F000EA0A0081B148B10699B0B2B8
:10370000024689B20B4602F0D9FA2046FFF74CFF79
:103710000136B0B2C01BA8420FD115E000280CBF83
:1037200010982046FFF740FF0BF1010B5FFA8BF07A
:10373000B0FBF9F101FB190058B108F10108B8F12B
:10374000080FD3D308E000BF06983E46013006902C
:1037500002E04FF0000B00BF059A0499039B013271
:1037600090B281423FF69EAF07B0BDE8F08F0000F7
:103770002DE9F04FB7B03A204FF000084CF6DC0AC4
:10378000562428AD299044F25640CDF89C80C0F6CE
:10379000000AC4F24410289046F65010C3F6742074
:1037A000CDE9258046F65270C3F66C20CDE9238022
:1037B00046F25910C3F67720CDE9218046F64560E0
:1037C000C3F64C2000F5C021CDE91F8000F5C16093
:1037D0001E9144F65641C0F23A011D9101F5C061B7
:1037E000CDE91B81CDE9198047F24D40C3F6522047
:1037F00018900FF6C450031D00690ECB179014A843
:103800000EC0DFF8B40D13900FF6C050031D006911
:103810000ECB12900FA80EC0DFF8B00D0E900FF671
:10382000C050031D00690ECB0D900AA80EC0DFF832
:10383000B00D09900FF6BC50031D00690ECB089027
:1038400005A80EC0DFF8AC0D049000BF48F00701DA
:103850001FFA88F00F2300278AB2002102F02EFA07
:10386000A4F12000C0B20AEB001600BFF45D14F012
:10387000010F0CBF4FF6FF700020FFF795FEA00769
:1038800054BF4FF6FF700020FFF78EFE600754BF55
:103890004FF6FF700020FFF787FE200754BF4FF65A
:1038A000FF700020FFF780FEE00654BF4FF6FF7068
:1038B0000020FFF779FEA00654BF4FF6FF700020EE
:1038C000FFF772FE600654BF4FF6FF700020FFF74F
:1038D0006BFE200654BF4FF6FF700020FFF764FE1A
:1038E0000137102FC2D115F8014F08F10808002C3C
:1038F000ACD1002450250DF1980800BF44F0070119
:10390000A0B21F238AB2102102F0D8F9A5F120003D
:103910000026C0B20AEB0017BD5D15F0010F0CBF09
:103920004FF6FF700020FFF73FFEA80754BF4FF689
:10393000FF700020FFF738FE680754BF4FF6FF7096
:103940000020FFF731FE280754BF4FF6FF7000201C
:10395000FFF72AFEE80654BF4FF6FF700020FFF77E
:1039600023FEA80654BF4FF6FF700020FFF71CFE91
:10397000680654BF4FF6FF700020FFF715FE2806BB
:1039800054BF4FF6FF700020FFF70EFE0136102ED9
:10399000C2D118F8015F0834002DAFD100245225A0
:1039A0000DF1900844F00701A0B22F238AB2202124
:1039B00002F084F9A5F120000026C0B20AEB00173E
:1039C000BD5D15F0010F0CBF4FF6FF700020FFF733
:1039D000EBFDA80754BF4FF6FF700020FFF7E4FD92
:1039E000680754BF4FF6FF700020FFF7DDFD280782
:1039F00054BF4FF6FF700020FFF7D6FDE80654BF16
:103A00004FF6FF700020FFF7CFFDA80654BF4FF61A
:103A1000FF700020FFF7C8FD680654BF4FF6FF7027
:103A20000020FFF7C1FD280654BF4FF6FF700020AD
:103A3000FFF7BAFD0136102EC2D118F8015F083425
:103A4000002DAFD1002459250DF1880844F007015D
:103A5000A0B23F238AB2302102F030F9A5F1200054
:103A60000026C0B20AEB0017BD5D15F0010F0CBFB8
:103A70004FF6FF700020FFF797FDA80754BF4FF6E1
:103A8000FF700020FFF790FD680754BF4FF6FF70EE
:103A90000020FFF789FD280754BF4FF6FF70002074
:103AA000FFF782FDE80654BF4FF6FF700020FFF7D6
:103AB0007BFDA80654BF4FF6FF700020FFF774FD92
:103AC000680654BF4FF6FF700020FFF76DFD280613
:103AD00054BF4FF6FF700020FFF766FD0136102E31
:103AE000C2D118F8015F0834002DAFD1002445255C
:103AF0000DF1800844F00701A0B24F238AB24021A3
:103B000002F0DCF8A5F120000026C0B20AEB001795
:103B1000BD5D15F0010F0CBF4FF6FF700020FFF7E1
:103B200043FDA80754BF4FF6FF700020FFF73CFD90
:103B3000680754BF4FF6FF700020FFF735FD2807D8
:103B400054BF4FF6FF700020FFF72EFDE80654BF6C
:103B50004FF6FF700020FFF727FDA80654BF4FF671
:103B6000FF700020FFF720FD680654BF4FF6FF707E
:103B70000020FFF719FD280654BF4FF6FF70002004
:103B8000FFF712FD0136102EC2D118F8015F08347C
:103B9000002DAFD1002445250DF1780844F0070130
:103BA000A0B25F238AB2502102F088F8A5F120006C
:103BB0000026C0B20AEB0017BD5D15F0010F0CBF67
:103BC0004FF6FF700020FFF7EFFCA80754BF4FF639
:103BD000FF700020FFF7E8FC680754BF4FF6FF7046
:103BE0000020FFF7E1FC280754BF4FF6FF700020CC
:103BF000FFF7DAFCE80654BF4FF6FF700020FFF72E
:103C0000D3FCA80654BF4FF6FF700020FFF7CCFC92
:103C1000680654BF4FF6FF700020FFF7C5FC28066A
:103C200054BF4FF6FF700020FFF7BEFC0136102E88
:103C3000C2D118F8015F0834002DAFD100245625F9
:103C40000DF1740844F00701A0B26F238AB260211D
:103C500002F034F8A5F120000026C0B20AEB0017EC
:103C6000BD5D15F0010F0CBF4FF6FF700020FFF790
:103C70009BFCA80754BF4FF6FF700020FFF794FC91
:103C8000680754BF4FF6FF700020FFF78DFC280730
:103C900054BF4FF6FF700020FFF786FCE80654BFC4
:103CA0004FF6FF700020FFF77FFCA80654BF4FF6C9
:103CB000FF700020FFF778FC680654BF4FF6FF70D6
:103CC0000020FFF771FC280654BF4FF6FF7000205C
:103CD000FFF76AFC0136102EC2D118F8015F0834D4
:103CE000002DAFD1002456250DF1700844F00701D6
:103CF000A0B27F238AB2702101F0E0FFA5F120007D
:103D00000026C0B20AEB0017BD5D15F0010F0CBF15
:103D10004FF6FF700020FFF747FCA80754BF4FF68F
:103D2000FF700020FFF740FC680754BF4FF6FF709C
:103D30000020FFF739FC280754BF4FF6FF70002022
:103D4000FFF732FCE80654BF4FF6FF700020FFF784
:103D50002BFCA80654BF4FF6FF700020FFF724FC91
:103D6000680654BF4FF6FF700020FFF71DFC2806C1
:103D700054BF4FF6FF700020FFF716FC0136102EDF
:103D8000C2D118F8015F0834002DAFD100244D25B1
:103D90000DF1680844F00701A0B28F238AB2802198
:103DA00001F08CFFA5F120000026C0B20AEB00173D
:103DB000BD5D15F0010F0CBF4FF6FF700020FFF73F
:103DC000F3FBA80754BF4FF6FF700020FFF7ECFB92
:103DD000680754BF4FF6FF700020FFF7E5FB280788
:103DE00054BF4FF6FF700020FFF7DEFBE80654BF1C
:103DF0004FF6FF700020FFF7D7FBA80654BF4FF621
:103E0000FF700020FFF7D0FB680654BF4FF6FF702D
:103E10000020FFF7C9FB280654BF4FF6FF700020B3
:103E2000FFF7C2FB0136102EC2D118F8015F08342B
:103E3000002DAFD100244D250DF1600844F007019D
:103E4000A0B29F238AB2902101F038FFA5F1200093
:103E50000026C0B20AEB0017BD5D15F0010F0CBFC4
:103E60004FF6FF700020FFF79FFBA80754BF4FF6E7
:103E7000FF700020FFF798FB680754BF4FF6FF70F4
:103E80000020FFF791FB280754BF4FF6FF7000207A
:103E9000FFF78AFBE80654BF4FF6FF700020FFF7DC
:103EA00083FBA80654BF4FF6FF700020FFF77CFB92
:103EB000680654BF4FF6FF700020FFF775FB280619
:103EC00054BF4FF6FF700020FFF76EFB0136102E37
:103ED000C2D118F8015F0834002DAFD140F2F010C4
:103EE0000021C2F20000C4F2C821006807F09AFD68
:103EF00007F0A4FC02460B460DF1AA000FF6144190
:103F0000FCF7C8F99DF8AA50002D5BD028240DF1CC
:103F1000AA0800BF44F00701A0B20F2300278AB20D
:103F2000002101F0CBFEA5F12000C0B20AEB001683
:103F3000F55D15F0010F0CBF4FF6FF704FF47840A0
:103F4000FFF732FBA80754BF4FF6FF704FF47840DD
:103F5000FFF72AFB680754BF4FF6FF704FF4784015
:103F6000FFF722FB280754BF4FF6FF704FF478404D
:103F7000FFF71AFBE80654BF4FF6FF704FF4784086
:103F8000FFF712FBA80654BF4FF6FF704FF47840BE
:103F9000FFF70AFB680654BF4FF6FF704FF47840F6
:103FA000FFF702FB280654BF4FF6FF704FF478402E
:103FB000FFF7FAFA0137102FBAD118F8015F083469
:103FC000002DA7D1562550240DF1AA08ADF8AA500E
:103FD00044F00701A0B20F2300278AB2002101F0AC
:103FE0006DFEA5F12000C0B20AEB0016F55D15F0DC
:103FF000010F0CBF4FF6FF704FF47840FFF7D4FA73
:10400000A80754BF4FF6FF704FF47840FFF7CCFA83
:10401000680754BF4FF6FF704FF47840FFF7C4FABB
:10402000280754BF4FF6FF704FF47840FFF7BCFAF3
:10403000E80654BF4FF6FF704FF47840FFF7B4FA2C
:10404000A80654BF4FF6FF704FF47840FFF7ACFA64
:10405000680654BF4FF6FF704FF47840FFF7A4FA9C
:10406000280654BF4FF6FF704FF47840FFF79CFAD4
:104070000137102FBAD118F8015F0834002DA7D1ED
:1040800040F2AC10C2F20000006807F0D7FB0B460C
:1040900040F29B4102460DF1AA00C0F60101FCF777
:1040A000F9F89DF8AA50002D52D020240DF1AA084D
:1040B00044F00701A0B21F238AB2102101F0FEFDD7
:1040C000A5F120000026C0B20AEB0017BD5D15F077
:1040D000010F0CBF4FF6FF701F20FFF765FAA8070E
:1040E00054BF4FF6FF701F20FFF75EFA680754BFFA
:1040F0004FF6FF701F20FFF757FA280754BF4FF6FF
:10410000FF701F20FFF750FAE80654BF4FF6FF700C
:104110001F20FFF749FAA80654BF4FF6FF701F2073
:10412000FFF742FA680654BF4FF6FF701F20FFF7F3
:104130003BFA280654BF4FF6FF701F20FFF734FAF2
:104140000136102EC2D118F8015F0834002DAFD10E
:1041500040F2C410C2F20000006807F06FFB0B468B
:1041600040F29B4102460DF1AA00C0F60101FCF7A6
:1041700091F89DF8AA50002D52D020240DF1AA08E4
:1041800044F00701A0B22F238AB2202101F096FD4E
:10419000A5F120000026C0B20AEB0017BD5D15F0A6
:1041A000010F0CBF4FF6FF701F20FFF7FDF9A807A6
:1041B00054BF4FF6FF701F20FFF7F6F9680754BF92
:1041C0004FF6FF701F20FFF7EFF9280754BF4FF697
:1041D000FF701F20FFF7E8F9E80654BF4FF6FF70A5
:1041E0001F20FFF7E1F9A80654BF4FF6FF701F200C
:1041F000FFF7DAF9680654BF4FF6FF701F20FFF78C
:10420000D3F9280654BF4FF6FF701F20FFF7CCF9F3
:104210000136102EC2D118F8015F0834002DAFD13D
:1042200040F20020C2F20000006807F007FB0B46D6
:1042300040F29B4102460DF1AA00C0F60101FCF7D5
:1042400029F89DF8AA50002D52D020240DF1AA087B
:1042500044F00701A0B23F238AB2302101F02EFDC5
:10426000A5F120000026C0B20AEB0017BD5D15F0D5
:10427000010F0CBF4FF6FF701F20FFF795F9A8073D
:1042800054BF4FF6FF701F20FFF78EF9680754BF29
:104290004FF6FF701F20FFF787F9280754BF4FF62E
:1042A000FF701F20FFF780F9E80654BF4FF6FF703C
:1042B0001F20FFF779F9A80654BF4FF6FF701F20A3
:1042C000FFF772F9680654BF4FF6FF701F20FFF723
:1042D0006BF9280654BF4FF6FF701F20FFF764F9F3
:1042E0000136102EC2D118F8015F0834002DAFD16D
:1042F00040F258142020402127224F23C2F200040C
:10430000256801F0DBFC002D26DB00254FF6FF7051
:10431000FFF74AF94FF6FF70FFF746F94FF6FF70C7
:10432000FFF742F94FF6FF70FFF73EF94FF6FF70C7
:10433000FFF73AF94FF6FF70FFF736F94FF6FF70C7
:10434000FFF732F94FF6FF70FFF72EF90135A8B2EB
:104350001028DBD324884BE0002500BF0AEB0500C2
:1043600090F8D06016F0010F0CBF4FF6FF7047F6C3
:104370000F00FFF719F9B00754BF4FF6FF7047F66B
:104380000F00FFF711F9700754BF4FF6FF7047F6A3
:104390000F00FFF709F9300754BF4FF6FF7047F6DB
:1043A0000F00FFF701F9F00654BF4FF6FF7047F614
:1043B0000F00FFF7F9F8B00654BF4FF6FF7047F64D
:1043C0000F00FFF7F1F8700654BF4FF6FF7047F685
:1043D0000F00FFF7E9F8300654BF4FF6FF7047F6BD
:1043E0000F00FFF7E1F80135102DB7D120684442E6
:1043F00040F25C152020502127225F23C2F20005E5
:104400002E6801F05BFC002E26DB00264FF6FF70C5
:10441000FFF7CAF84FF6FF70FFF7C6F84FF6FF70C8
:10442000FFF7C2F84FF6FF70FFF7BEF84FF6FF70C8
:10443000FFF7BAF84FF6FF70FFF7B6F84FF6FF70C8
:10444000FFF7B2F84FF6FF70FFF7AEF80136B0B2E3
:104450001028DBD328884BE0002700BF0AEB0700B9
:1044600090F8D06016F0010F0CBF4FF6FF7047F6C2
:104470000F00FFF799F8B00754BF4FF6FF7047F6EB
:104480000F00FFF791F8700754BF4FF6FF7047F623
:104490000F00FFF789F8300754BF4FF6FF7047F65B
:1044A0000F00FFF781F8F00654BF4FF6FF7047F694
:1044B0000F00FFF779F8B00654BF4FF6FF7047F6CC
:1044C0000F00FFF771F8700654BF4FF6FF7047F604
:1044D0000F00FFF769F8300654BF4FF6FF7047F63C
:1044E0000F00FFF761F80137102FB7D1286840425D
:1044F000A5B2002442F210794FF0000B039055E072
:104500002F2040214F2300EBC40082B2601DC00069
:1045100080B201F0D3FB00261AF8067017F0010FE5
:104520000CBF4FF6FF7047F60F00FFF73DF8B807D6
:1045300054BF4FF6FF7047F60F00FFF735F87807C6
:1045400054BF4FF6FF7047F60F00FFF72DF83807FE
:1045500054BF4FF6FF7047F60F00FFF725F8F80637
:1045600054BF4FF6FF7047F60F00FFF71DF8B8066F
:1045700054BF4FF6FF7047F60F00FFF715F87806A7
:1045800054BF4FF6FF7047F60F00FFF70DF83806DF
:1045900054BF4FF6FF7047F60F00FFF705F80136DE
:1045A000102EB9D14FF0000BC2E000BFE0B20228DC
:1045B0002AD101204EE000BF5475726E20202020C9
:1045C0002020202020202020202020005475726EE2
:1045D00020393020202020202020202020200000F2
:1045E0005475726E20313830202020202020202069
:1045F000202000005475726E203336302020202099
:104600002020202020200000C4F10102C4F102007B
:10461000D2B200F00301032A02D2012049B919E005
:10462000421A0120043A00FB09F012F0FF0FF9D101
:1046300081B1012903D100EB800040000AE04FF472
:104640007A7202294FF0640100FB02F208BF00FBFE
:1046500001F210464CF6CD41B5FBF0F0012CCCF642
:10466000CC41A0FB01124FEAD20101EB8101A0EB8A
:10467000410607D85FEA0B6004D1002E3FF440AF3B
:104680004FF0010B2F2040214F2300EBC40082B2DA
:10469000601DC00080B201F011FB46F01000002642
:1046A0000AEB001818F8067017F0010F0CBF4FF650
:1046B000FF7047F60F00FEF777FFB80754BF4FF6BD
:1046C000FF7047F60F00FEF76FFF780754BF4FF6F5
:1046D000FF7047F60F00FEF767FF380754BF4FF62D
:1046E000FF7047F60F00FEF75FFFF80654BF4FF666
:1046F000FF7047F60F00FEF757FFB80654BF4FF69E
:10470000FF7047F60F00FEF74FFF780654BF4FF6D5
:10471000FF7047F60F00FEF747FF380654BF4FF60D
:10472000FF7047F60F00FEF73FFF0136102EB9D19C
:104730000134032C7FF43AAF0398002542F210773E
:104740004FF0000980B2039056E02F2050215F23E4
:1047500000EBC50082B2681DC00080B201F0AEFA65
:10476000002600BF1AF8064014F0010F0CBF4FF6E8
:10477000FF7047F60F00FEF717FFA00754BF4FF674
:10478000FF7047F60F00FEF70FFF600754BF4FF6AC
:10479000FF7047F60F00FEF707FF200754BF4FF6E4
:1047A000FF7047F60F00FEF7FFFEE00654BF4FF61E
:1047B000FF7047F60F00FEF7F7FEA00654BF4FF656
:1047C000FF7047F60F00FEF7EFFE600654BF4FF68E
:1047D000FF7047F60F00FEF7E7FE200654BF4FF6C6
:1047E000FF7047F60F00FEF7DFFE0136102EB9D13D
:1047F0004FF00009A3E000BFE8B2022802D1012077
:1048000026E000BFC5F10102C5F10200D2B200F0FE
:104810000301032A02D2012041B919E0421A012002
:10482000043A784312F0FF0FFAD189B1012903D17C
:1048300000EB800040000BE04FF47A7202294FF049
:10484000640100FB02F208BF00FB01F2104600BF4A
:104850000399012DB1FBF0F04CF6CD41CCF6CC41E3
:10486000A0FB01124FEAD20101EB8101A0EB410450
:1048700007D85FEA096004D1002C3FF466AF4FF01F
:1048800001092F2050215F2300EBC50082B2681D73
:10489000C00080B201F012FA44F0100000260AEBCA
:1048A000001800BF18F806B01BF0010F0CBF4FF640
:1048B000FF7047F60F00FEF777FE5FEA8B7054BF7C
:1048C0004FF6FF7047F60F00FEF76EFE5FEA4B7083
:1048D00054BF4FF6FF7047F60F00FEF765FE5FEA24
:1048E0000B7054BF4FF6FF7047F60F00FEF75CFEEB
:1048F0005FEACB6054BF4FF6FF7047F60F00FEF73C
:1049000053FE5FEA8B6054BF4FF6FF7047F60F000F
:10491000FEF74AFE5FEA4B6054BF4FF6FF7047F662
:104920000F00FEF741FE5FEA0B6054BF4FF6FF70C9
:1049300047F60F00FEF738FE0136102EB2D10135D2
:10494000032D7FF459AF40F2E015182060211F229B
:104950006F23C2F200052C6801F0B0F92046002157
:1049600007F04DF8002400284ED04FF6FF7800BF26
:104970000AEB040090F8D06016F0010F0CBF4FF660
:10498000FF7047F60F00FEF70FFEB00754BF4FF65B
:10499000FF7047F60F00FEF707FE700754BF4FF693
:1049A000FF7047F60F00FEF7FFFD300754BF4FF6CC
:1049B000FF7047F60F00FEF7F7FDF00654BF4FF605
:1049C000FF7047F60F00FEF7EFFDB00654BF4FF63D
:1049D000FF7047F60F00FEF7E7FD700654BF4FF675
:1049E000FF7047F60F00FEF7DFFD300654BF4FF6AD
:1049F000FF7047F60F00FEF7D7FD0134102CB7D13A
:104A0000286880F0004426E04FF6FF70FEF7CCFDEA
:104A10004FF6FF70FEF7C8FD4FF6FF70FEF7C4FDBE
:104A20004FF6FF70FEF7C0FD4FF6FF70FEF7BCFDBE
:104A30004FF6FF70FEF7B8FD4FF6FF70FEF7B4FDBE
:104A40004FF6FF70FEF7B0FD0134A0B21028DBD3A3
:104A50002C684FF6FF7840F2E817182070211F22CB
:104A60007F23C2F200073D6801F028F928460021A3
:104A700006F0C5FF0025002850D000BF0AEB050056
:104A800090F8D06016F0010F0CBF4FF6FF7047F69C
:104A90000F00FEF789FDB00754BF4FF6FF7047F6D1
:104AA0000F00FEF781FD700754BF4FF6FF7047F609
:104AB0000F00FEF779FD300754BF4FF6FF7047F641
:104AC0000F00FEF771FDF00654BF4FF6FF7047F67A
:104AD0000F00FEF769FDB00654BF4FF6FF7047F6B2
:104AE0000F00FEF761FD700654BF4FF6FF7047F6EA
:104AF0000F00FEF759FD300654BF4FF6FF7047F622
:104B00000F00FEF751FD0135102DB7D1386880F048
:104B1000004528E025342E32660000004FF6FF7075
:104B2000FEF742FD4FF6FF70FEF73EFD4FF6FF70B9
:104B3000FEF73AFD4FF6FF70FEF736FD4FF6FF70B9
:104B4000FEF732FD4FF6FF70FEF72EFD4FF6FF70B9
:104B5000FEF72AFD4FF6FF70FEF726FD0135A8B2DD
:104B60001028DBD33D6847F60F0710262020602170
:104B700022460623CDE90078029601F0D7FC2020DA
:104B800070212A460623CDE90078029601F0CEFC7A
:104B900040F2A4142020802127228F23C2F2000497
:104BA000256801F08BF8002D26DB00254FF6FF70FD
:104BB000FEF7FAFC4FF6FF70FEF7F6FC4FF6FF70BB
:104BC000FEF7F2FC4FF6FF70FEF7EEFC4FF6FF70BB
:104BD000FEF7EAFC4FF6FF70FEF7E6FC4FF6FF70BB
:104BE000FEF7E2FC4FF6FF70FEF7DEFC0135A8B2DF
:104BF0001028DBD324884BE0002500BF0AEB05001A
:104C000090F8D06016F0010F0CBF4FF6FF7047F61A
:104C10000F00FEF7C9FCB00754BF4FF6FF7047F610
:104C20000F00FEF7C1FC700754BF4FF6FF7047F648
:104C30000F00FEF7B9FC300754BF4FF6FF7047F680
:104C40000F00FEF7B1FCF00654BF4FF6FF7047F6B9
:104C50000F00FEF7A9FCB00654BF4FF6FF7047F6F1
:104C60000F00FEF7A1FC700654BF4FF6FF7047F629
:104C70000F00FEF799FC300654BF4FF6FF7047F661
:104C80000F00FEF791FC0135102DB7D1206844428A
:104C900040F2A8152020902127229F23C2F2000570
:104CA0002E6801F00BF8002E26DB00264FF6FF7071
:104CB000FEF77AFC4FF6FF70FEF776FC4FF6FF70BA
:104CC000FEF772FC4FF6FF70FEF76EFC4FF6FF70BA
:104CD000FEF76AFC4FF6FF70FEF766FC4FF6FF70BA
:104CE000FEF762FC4FF6FF70FEF75EFC0136B0B2D5
:104CF0001028DBD328884BE0002700BF0AEB070011
:104D000090F8D06016F0010F0CBF4FF6FF7047F619
:104D10000F00FEF749FCB00754BF4FF6FF7047F68F
:104D20000F00FEF741FC700754BF4FF6FF7047F6C7
:104D30000F00FEF739FC300754BF4FF6FF7047F6FF
:104D40000F00FEF731FCF00654BF4FF6FF7047F638
:104D50000F00FEF729FCB00654BF4FF6FF7047F670
:104D60000F00FEF721FC700654BF4FF6FF7047F6A8
:104D70000F00FEF719FC300654BF4FF6FF7047F6E0
:104D80000F00FEF711FC0137102FB7D12868404201
:104D9000A5B2002442F210784FF00009039055E0CC
:104DA0002F2080218F2300EBC40082B2601DC00041
:104DB00080B200F083FF00261AF8067017F0010F8A
:104DC0000CBF4FF6FF7047F60F00FEF7EDFBB8077C
:104DD00054BF4FF6FF7047F60F00FEF7E5FB78076C
:104DE00054BF4FF6FF7047F60F00FEF7DDFB3807A4
:104DF00054BF4FF6FF7047F60F00FEF7D5FBF806DD
:104E000054BF4FF6FF7047F60F00FEF7CDFBB80614
:104E100054BF4FF6FF7047F60F00FEF7C5FB78064C
:104E200054BF4FF6FF7047F60F00FEF7BDFB380684
:104E300054BF4FF6FF7047F60F00FEF7B5FB013683
:104E4000102EB9D14FF000099AE000BFE0B203285C
:104E500002D1012026E000BFC4F10202C4F1030028
:104E6000D2B200F00301032A02D2012049B919E0AD
:104E7000421A0120043A00FB08F012F0FF0FF9D1AA
:104E800081B1012903D100EB800040000AE04FF41A
:104E90007A7202294FF0640100FB02F208BF00FBA6
:104EA00001F210464CF6CD41B5FBF0F0022CCCF6E9
:104EB000CC41A0FB01124FEAD20101EB8101A0EB32
:104EC000410607D85FEA096004D1002E3FF468AFBD
:104ED0004FF001092F2080218F2300EBC40082B204
:104EE000601DC00080B200F0E9FE46F01000002610
:104EF0000AEB001B1BF8067017F0010F0CBF4FF6F2
:104F0000FF7047F60F00FEF74FFBB80754BF4FF690
:104F1000FF7047F60F00FEF747FB780754BF4FF6C8
:104F2000FF7047F60F00FEF73FFB380754BF4FF600
:104F3000FF7047F60F00FEF737FBF80654BF4FF639
:104F4000FF7047F60F00FEF72FFBB80654BF4FF671
:104F5000FF7047F60F00FEF727FB780654BF4FF6A9
:104F6000FF7047F60F00FEF71FFB380654BF4FF6E1
:104F7000FF7047F60F00FEF717FB0136102EB9D170
:104F80000134042C7FF462AF0398002542F21077BD
:104F90004FF0000880B2039056E02F2090219F230D
:104FA00000EBC50082B2681DC00080B200F086FE32
:104FB000002600BF1AF8064014F0010F0CBF4FF690
:104FC000FF7047F60F00FEF7EFFAA00754BF4FF649
:104FD000FF7047F60F00FEF7E7FA600754BF4FF681
:104FE000FF7047F60F00FEF7DFFA200754BF4FF6B9
:104FF000FF7047F60F00FEF7D7FAE00654BF4FF6F2
:10500000FF7047F60F00FEF7CFFAA00654BF4FF629
:10501000FF7047F60F00FEF7C7FA600654BF4FF661
:10502000FF7047F60F00FEF7BFFA200654BF4FF699
:10503000FF7047F60F00FEF7B7FA0136102EB9D110
:105040004FF00008A3E000BFE8B2032802D101201E
:1050500026E000BFC5F10202C5F10300D2B200F0A4
:105060000301032A02D2012041B919E0421A0120AA
:10507000043A784312F0FF0FFAD189B1012903D124
:1050800000EB800040000BE04FF47A7202294FF0F1
:10509000640100FB02F208BF00FB01F2104600BFF2
:1050A0000399022DB1FBF0F04CF6CD41CCF6CC418A
:1050B000A0FB01124FEAD20101EB8101A0EB4104F8
:1050C00007D85FEA086004D1002C3FF466AF4FF0C8
:1050D00001082F2090219F2300EBC50082B2681D9C
:1050E000C00080B200F0EAFD44F0100000260AEB98
:1050F000001900BF19F806B01BF0010F0CBF4FF6E6
:10510000FF7047F60F00FEF74FFA5FEA8B7054BF4F
:105110004FF6FF7047F60F00FEF746FA5FEA4B7056
:1051200054BF4FF6FF7047F60F00FEF73DFA5FEAF7
:105130000B7054BF4FF6FF7047F60F00FEF734FABE
:105140005FEACB6054BF4FF6FF7047F60F00FEF7E3
:105150002BFA5FEA8B6054BF4FF6FF7047F60F00E3
:10516000FEF722FA5FEA4B6054BF4FF6FF7047F636
:105170000F00FEF719FA5FEA0B6054BF4FF6FF709D
:1051800047F60F00FEF710FA0136102EB2D10135A6
:10519000042D7FF459AF40F2C820C2F2000000682D
:1051A000032800F26B81DFE810F004005E00B80015
:1051B00012019DF84C50002D00F0608100240DF18B
:1051C0004C0800BF44F00701A0B2AF238AB2A0216F
:1051D00000F074FDA5F120000026C0B20AEB001714
:1051E000BD5D15F0010F0CBF4FF6FF701F20FEF7DD
:1051F000DBF9A80754BF4FF6FF701F20FEF7D4F964
:10520000680754BF4FF6FF701F20FEF7CDF928073F
:1052100054BF4FF6FF701F20FEF7C6F9E80654BFD3
:105220004FF6FF701F20FEF7BFF9A80654BF4FF6D8
:10523000FF701F20FEF7B8F9680654BF4FF6FF70E5
:105240001F20FEF7B1F9280654BF4FF6FF701F204C
:10525000FEF7AAF90136102EC2D118F8015F083402
:10526000002DAFD10AE19DF83850002D00F00681E5
:1052700000240DF1380800BF44F00701A0B2AF23AD
:105280008AB2A02100F01AFDA5F120000026C0B2CC
:105290000AEB0017BD5D15F0010F0CBF4FF6FF7054
:1052A0001F20FEF781F9A80754BF4FF6FF701F209B
:1052B000FEF77AF9680754BF4FF6FF701F20FEF71C
:1052C00073F9280754BF4FF6FF701F20FEF76CF9E3
:1052D000E80654BF4FF6FF701F20FEF765F9A806D9
:1052E00054BF4FF6FF701F20FEF75EF9680654BFEB
:1052F0004FF6FF701F20FEF757F9280654BF4FF6F0
:10530000FF701F20FEF750F90136102EC2D118F899
:10531000015F0834002DAFD1B0E09DF82450002D7E
:1053200000F0AC8000240DF1240800BF44F0070118
:10533000A0B2AF238AB2A02100F0C0FCA5F12000EA
:105340000026C0B20AEB0017BD5D15F0010F0CBFBF
:105350004FF6FF701F20FEF727F9A80754BF4FF63E
:10536000FF701F20FEF720F9680754BF4FF6FF704B
:105370001F20FEF719F9280754BF4FF6FF701F20B2
:10538000FEF712F9E80654BF4FF6FF701F20FEF734
:105390000BF9A80654BF4FF6FF701F20FEF704F963
:1053A000680654BF4FF6FF701F20FEF7FDF8280671
:1053B00054BF4FF6FF701F20FEF7F6F80136102E8F
:1053C000C2D118F8015F0834002DAFD156E09DF826
:1053D0001050002D52D000240DF1100844F00701A8
:1053E000A0B2AF238AB2A02100F068FCA5F1200092
:1053F0000026C0B20AEB0017BD5D15F0010F0CBF0F
:105400004FF6FF701F20FEF7CFF8A80754BF4FF6E6
:10541000FF701F20FEF7C8F8680754BF4FF6FF70F3
:105420001F20FEF7C1F8280754BF4FF6FF701F205A
:10543000FEF7BAF8E80654BF4FF6FF701F20FEF7DC
:10544000B3F8A80654BF4FF6FF701F20FEF7ACF864
:10545000680654BF4FF6FF701F20FEF7A5F8280618
:1054600054BF4FF6FF701F20FEF79EF80136102E36
:10547000C2D118F8015F0834002DAFD137B0BDE8B4
:10548000F08F0000B0B541F6000405460221C4F2D9
:1054900001042046FCF732FA20460821FCF72EFAD8
:1054A00068B2B0F1FF3F04DD20462021FCF726FA68
:1054B00003E020462021FCF723FA20460821FCF7D0
:1054C0001FFA20460821FCF719FA680604D4204682
:1054D0002021FCF713FA03E020462021FCF710FA04
:1054E00020460821FCF70CFA20460821FCF706FAB2
:1054F000A80604D420462021FCF700FA03E0204649
:105500002021FCF7FDF920460821FCF7F9F9204697
:105510000821FCF7F3F9E80604D420462021FCF723
:10552000EDF903E020462021FCF7EAF920460821A6
:10553000FCF7E6F920460821FCF7E0F9280704D437
:1055400020462021FCF7DAF903E020462021FCF771
:10555000D7F920460821FCF7D3F920460821FCF7AB
:10556000CDF9680704D420462021FCF7C7F903E0F1
:1055700020462021FCF7C4F920460821FCF7C0F999
:1055800020460821FCF7BAF9A80704D420462021B8
:10559000FCF7B4F903E020462021FCF7B1F92046DE
:1055A0000821FCF7ADF920460821FCF7A7F9E80728
:1055B00004D120462021FCF7A1F903E02046202158
:1055C000FCF79EF920460821FCF79AF920460221B3
:1055D000BDE8B040FCF794B9014640F224420020F7
:1055E000C4F20002032904D0042918BF704702F551
:1055F0008062B2F9001010800846704770B58AB01A
:105600004FF4047001210125FCF790FF4FF4004096
:10561000FCF776FF42F200440026022001A9C4F202
:1056200001040396ADF80400A4F5A050FBF7B8FF01
:105630002046FBF74FFC4FF46020CDE90466069648
:1056400004A9CDE9070620468DF82450FBF784FC19
:1056500020460121FBF734FC2046FBF7DBFC00BFB2
:105660002046FBF775FC0028FAD12046FBF7E2FC48
:105670002046FBF75FFC0028FAD10AB070BD00009D
:1056800010B500F015FA41F600041021C4F201042F
:105690002046FCF733F9642001F0E2FC204610219B
:1056A000FCF72EF9642001F0DBFC20464021FCF7DA
:1056B00027F9642001F0D4FC20460421FCF71EF9F0
:1056C0001120FFF7DFFE20460421FCF719F97820AE
:1056D00001F0C6FC20460421FCF710F93620FFF744
:1056E000D1FE20460421FCF70BF90020FFF7CAFE8B
:1056F00020460421FCF702F93A20FFF7C3FE2046BA
:105700000421FCF7FDF80520FFF7BCFE204604212C
:10571000FCF7F4F8B220FFF7B5FE20460421FCF7B1
:10572000EFF80C20FFF7AEFE0C20FFF7ABFE0020D9
:10573000FFF7A8FE3320FFF7A5FE3320FFF7A2FEF8
:1057400020460421FCF7DAF8B720FFF79BFE20463D
:105750000421FCF7D5F83520FFF794FE20460421FC
:10576000FCF7CCF8BB20FFF78DFE20460421FCF7A8
:10577000C7F83220FFF786FE20460421FCF7BEF86A
:10578000C220FFF77FFE20460421FCF7B9F8012074
:10579000FFF778FE20460421FCF7B0F8C320FFF79E
:1057A00071FE20460421FCF7ABF81520FFF76AFED6
:1057B00020460421FCF7A2F8C420FFF763FE204630
:1057C0000421FCF79DF82020FFF75CFE2046042111
:1057D000FCF794F8C620FFF755FE20460421FCF79D
:1057E0008FF80F20FFF74EFE20460421FCF786F8C5
:1057F000D020FFF747FE20460421FCF781F8A420C3
:10580000FFF740FEA120FFF73DFE20460421FCF7F4
:1058100075F8E020FFF736FE20460421FCF770F80B
:10582000D020FFF72FFE0820FFF72CFE0E20FFF7F9
:1058300029FE0920FFF726FE0920FFF723FE052099
:10584000FFF720FE3120FFF71DFE3320FFF71AFE81
:105850004820FFF717FE1720FFF714FE1420FFF76C
:1058600011FE1520FFF70EFE3120FFF70BFE34204E
:10587000FFF708FE20460421FCF740F8E120FFF77F
:1058800001FE20460421FCF73BF8D020FFF7FAFD8B
:105890000820FFF7F7FD0E20FFF7F4FD0920FFF7C2
:1058A000F1FD0920FFF7EEFD1520FFF7EBFD31209C
:1058B000FFF7E8FD3320FFF7E5FD4820FFF7E2FDA5
:1058C0001720FFF7DFFD1420FFF7DCFD1520FFF7A1
:1058D000D9FD3120FFF7D6FD3420FFF7D3FD204658
:1058E0000421FCF70BF82120FFF7CCFD2046042112
:1058F000FCF706F820460421FCF700F82920FFF702
:10590000C1FD20460421BDE81040FBF7F9BF0000AF
:1059100070B584B041F218060124C4F20206306862
:1059200040F045003060012001F0C8FB402001211B
:10593000FCF7FCFD40F60005102001A9C4F20105AA
:105940000390ADF80440032005F5805402902046F2
:10595000FBF726FE20462021FBF7D2FF286820F027
:1059600001002860286820F002002860286840F0C4
:1059700003002860286820F010002860286820F0C4
:1059800020002860286840F030002860286820F453
:1059900080702860286820F400702860286840F42F
:1059A00040702860286820F480502860286820F41F
:1059B00000502860286840F440502860286820F093
:1059C00004002860286820F008002860286840F05B
:1059D0000C002860286820F040002860286820F02B
:1059E00080002860286840F0C0002860286820F403
:1059F00080602860286820F400602860286840F4EF
:105A000040602860286820F480402860286820F4DE
:105A100000402860286840F400402860706840F02A
:105A200008007060012001F049FB40F22840092184
:105A3000CFF6FF70295240F22C4042F21071CFF69F
:105A4000FF70295240F2184047F66801CFF6FF7008
:105A5000295240F21C4047F67801CFF6FF702952D8
:105A600040F240400021CFF6FF70295240F23C4105
:105A7000285ACFF6FF716852685A40F23841CFF683
:105A8000FF716852685A40F23441CFF6FF71685294
:105A900040F2204041F21111CFF6FF70295240F23E
:105AA00000408121CFF6FF70295204B070BD000084
:105AB00070B584B040200121FCF738FD41F60004A8
:105AC0001026022001AD0396ADF804000320C4F2B5
:105AD0000104294602902046FBF762FD2046022180
