:020000040800F2
:1000000020080020CD010008770800084B070008F1
:10001000750800088D03000869160008000000003C
:10002000000000000000000000000000DF010008E8
:10003000F504000800000000E3010008E5010008E5
:10004000E7010008E7010008E7010008E7010008F0
:10005000E7010008E7010008F9040008E7010008CB
:10006000E7010008E7010008E7010008E7010008D0
:10007000E7010008E7010008E7010008E7010008C0
:10008000E7010008E7010008E7010008E7010008B0
:10009000E7010008E7010008E7010008E7010008A0
:1000A000E7010008E7010008E7010008E701000890
:1000B000090C0008750F0008890F0008E701000807
:1000C000E7010008E7010008E7010008E701000870
:1000D000E7010008C5130008E701000875140008CF
:1000E0002D050008E7010008E7010008E701000806
:1000F000E7010008E7010008E7010008E701000840
:10010000E7010008E7010008E7010008E70100082F
:1001100011130008E7010008E7010008E7010008E3
:10012000E7010008E7010008E7010008E70100080F
:1001300000F002F800F03AF80AA090E8000C8244BF
:100140008344AAF10107DA4501D100F02FF8AFF29C
:10015000090EBAE80F0013F0010F18BFFB1A43F0A5
:10016000010318475C6F00007C6F0000103A24BF49
:1001700078C878C1FAD8520724BF30C830C144BF0C
:1001800004680C607047000000230024002500264E
:10019000103A28BF78C1FBD8520728BF30C148BFEA
:1001A0000B6070471FB51FBD10B510BD00F038F8CB
:1001B0001146FFF7F7FF02F02FFD00F056F803B4E9
:1001C000FFF7F2FF03BC02F0C5FB000009488047BF
:1001D00009480047FEE7FEE7FEE7FEE7FEE7FEE729
:1001E000FEE7FEE7FEE7FEE704480549054A064B41
:1001F00070470000490A0008310100082002002071
:1002000020080020200400202004002070477047B0
:10021000704770477047000000487047600000203A
:100220007546FFF7F9FFAE4605006946534620F0D4
:100230000700854618B020B5FFF7D6FFBDE820407F
:100240004FF000064FF000074FF000084FF0000B92
:10025000AC46ACE8C009ACE8C009ACE8C009ACE801
:10026000C00921F007018D46704710B50446AFF371
:1002700000802046BDE81040FFF7A1BF826800293A
:1002800042F0010308BF22F00103836070470000C1
:1002900080B5134988420ED01249884213D01249C2
:1002A000884218BF80BD4FF40070012100F070FB40
:1002B0004FF400700EE04FF40040012100F068FBA5
:1002C0004FF4004006E04FF48060012100F060FB35
:1002D0004FF480600021BDE8804000F059BB00BFB2
:1002E000003C014000280140002401408068C0F328
:1002F000800070478068C0F3C000704780B54268D6
:10030000104B02EA030CD1E9003243EA0C0343EA42
:1003100002220D4B4260826802EA030ED1E902C359
:100320000A6942EA0E021A4342EA4C028260C26A39
:10033000097D013922F47002C9B242EA0151C16259
:1003400080BD00BFFFFEF0FFFDF7F1FF816841F0C7
:10035000080181607047816841F004018160704745
:1003600070B5094D04460026082E08BF70BDA15D7A
:10037000284601F075F92846402101F0E0F80128EF
:10038000F9D10136F0E700BF00480040FEE7000069
:10039000411EC8B2092802D90020C0B27047544893
:1003A000242209290270F7D8DFE801F005090D11B0
:1003B00015191D21262B052141710620EDE7092184
:1003C00041720A20E9E70D2141730E20E5E7112172
:1003D00041741220E1E7152141751620DDE719214E
:1003E00041761A20D9E71D2141771E20D5E721212A
:1003F00080F821102220D0E7252180F82510262022
:10040000CBE7292180F829102A20C6E70139CAB292
:10041000092A98BF092900D97047DFE801F0050EC5
:10042000172029323B444E5B3149020A48708A70DA
:10043000020C000ECA70087170472D49020A4871FB
:100440008A71020C000ECA71087270472849020AAC
:1004500048728A72020C000ECA72087370472449EF
:10046000020A48738A73020C000ECA73087470473C
:100470001F49020A48748A74020C000ECA74087577
:1004800070471B49020A48758A75020C000ECA752E
:10049000087670471649020A48768A76020C000EE2
:1004A000CA76087770471249020A48778A77020CA1
:1004B000000ECA7781F8200070470D49020A81F8C2
:1004C000210081F82220020C000E81F8232081F8FF
:1004D000240070470649020A81F8250081F8262089
:1004E000020C000E81F8272081F82800704700BF19
:1004F000710100207047000080B5012000F040F835
:100500000948012100F018F900B180BDC648016812
:1005100019B1012903D1022100E00121016017482E
:100520000121016080BD00BF0010014080B50520A1
:1005300002F028FA0F480168B1FA81F14909016017
:100540000D484FF4804100F0F7F8B74901280A68D8
:1005500002D12AB9012002E0012A01D1022008605B
:100560000648012101604FF48040BDE8804000F062
:1005700007B800BFBC81224200140140E8000020FF
:1005800001490860704700BF14040140C268154962
:10059000F2B102680B6893430B604B6893434B6066
:1005A000D0F804C05CF801301A434CF8012002680E
:1005B0008B6893438B60CB689343CB608068102833
:1005C0000CD1886810438860C8681043C8607047C1
:1005D000D0E90020435823EA020201E043581A43BD
:1005E000425070470004014010B50C22084C0F2304
:1005F00002EA810201F0FC0103FA02FC0B5990406F
:1006000023EA0C030B510A591043085110BD00BFD7
:10061000080001402DE9F043D1F808E00EF00F0C7E
:100620001EF0100F1CBF4A684CEA020C098811F03A
:10063000FF0F21D0036800224FF001094FF00F088F
:10064000002616E009FA06F70F4210D008FA02F465
:100650000CFA02F5BEF1480F23EA040343EA05034E
:1006600004D0BEF1280F08BF476100E007610432E3
:100670000136082EE6D10360B1F5807F38BFBDE8B2
:10068000F083436800224FF480794FF00F08002672
:1006900018E009FA06F707EA0105BD4210D108FA89
:1006A00002F40CFA02F5BEF1480F23EA040343EA10
:1006B000050304D0BEF1280F08BF476100E00761C1
:1006C00004320136082EE4D14360BDE8F083000017
:1006D00010B5264A002800F440141FFA80FC134687
:1006E000B8BF43F01803B4F5401F1B68C0F3034EB6
:1006F00006D1146823F0706324F0706414600EE077
:10070000C40206D447F6F07404EA50440CFA04F428
:1007100002E0032404FA0EF4A34343F0706331B102
:1007200047F6F07101EA50410CFA01F10B43002841
:10073000B8BF1832136010BD8068084018BF012090
:1007400070474161704701617047FEE78F490A6851
:1007500042F001020A6005490A6822F0E0620A607C
:100760000A6842EA40600860704700BF0400014028
:10077000DFF8A4C09CF80020002A4CD0072A4AD3F6
:1007800010B5264801782C290AD04178122907D0C3
:10079000D10716D0811811F8011C5B2902D010E096
:1007A000D1070ED0D11EDFF878E000234A1005E013
:1007B00000EB41040133A4780EF8014099B28A425B
:1007C000F6DC002100228CF80010BDE8104001E0AA
:1007D00081540132082AFBD11249086810B9104827
:1007E000407808601049096839B902289ABF0FA1FA
:1007F00051F8200047201049086009480F49007847
:1008000008600F490979012905D100280D480CBF5E
:100810000221012101607047C0010020B8010020C1
:10082000B0010020DC010020E000002000000000FA
:100830004100000042000000C8000020C400002069
:10084000F8000020E400002070B5094D04460026A1
:10085000082E08BF70BDA15D284600F001FF2846A4
:10086000402100F06CFE0128F9D10136F0E700BF0D
:10087000004C0040FEE7704742681449D2B110B501
:10088000174A0723126890F801E0847890F800C0B6
:1008900023EA12220F23D340C2F1040223400EFAAE
:1008A00002F21A4301EB0C03120183F80023BDE8A6
:1008B000104000E080310078012300F01F02C0F3F7
:1008C000421003FA02F241F82020704700E100E0F4
:1008D0000249084302490860704700BF0000FA055A
:1008E0000CED00E0DFF888CB9CF800206AB3072A03
:1008F0002BD310B5154801782C290AD0417812293C
:1009000007D0D10716D0811811F8011C5B2902D03D
:1009100010E0D1070ED0D11EDFF814E600234A10F4
:1009200005E000EB41040133A4780EF8014099B2D0
:100930008A42F6DC002100228CF80010BDE810404D
:1009400001E081540132082AFBD17047E801002000
:1009500032490A6822F4404210430860704700BFE1
:10096000044A002911680CBF21EA00000843106006
:10097000704700BF1C100240044A002911680CBFD8
:1009800021EA000008431060704700BF18100240C1
:10099000044A002911680CBF21EA000008431060D6
:1009A000704700BF0C10024010B51C4C226802F0CA
:1009B0000C031B4A082B11D12368C3F3834303F1B3
:1009C000020C236813F4803F01D1164A04E0236827
:1009D00013F4003F18BF134A0CFB02F202601249E5
:1009E0002368C3F30313CB5CDA4042602368C3F38C
:1009F0000223CB5C22FA03F383602368C3F3C22390
:100A0000C95C0A4B22FA01F1C1602268C2F381324B
:100A10009A5CB1FBF2F1016110BD00BF041002400D
:100A200000127A0000093D00AA3C0008A63C00081C
:100A3000044904280A6822F0040308BF42F00403B2
:100A40000B60704710E000E082B03748374A016819
:100A500041F00101016041681140354A416001687F
:100A600011400160016821F480210160416821F496
:100A7000FE0141604FF41F0181600021019100914E
:100A8000016841F480310160016801F40031009196
:100A9000019901310191009919B90199B1F5A06F3E
:100AA000F2D1016811F4003F0CBF00210121009137
:100AB0000099012932D14FF48051425842F010027E
:100AC0004250425822F003024250425842F0020281
:100AD00042504168416041684160416841F4806131
:100AE0004160416821F47C114160416841F4E811A2
:100AF0004160016841F080710160016811F0007F80
:100B0000FBD0416821F003014160416841F00201DE
:100B10004160416801F00C010829FAD105484FF005
:100B20000061016002B07047001002400000FFF851
:100B3000FFFFF6FE08ED00E010B5B0F820C042EA75
:100B40000312B0F1804F2CF0010CA0F820C0038BF1
:100B500023F0F30342EA030C038C4FF6FC720FD030
:100B6000244CA0420CD0244CA04209D0234CA042DB
:100B700006D0244CA04203D0214CA04218BF083A12
:100B80001A40A0F818C0114341F00101018410BDC2
:100B9000B0F820C01B03B0F1804F2CF0100CA0F86F
:100BA00020C043EA022C40F6FF42038B02EA030214
:100BB000038C4CEA020C0ED00E4A90420BD00E4A27
:100BC000904208D00D4A904205D00D4A904202D082
:100BD0000C4A90420AD123F030020B0143EA020191
:100BE000A0F818C041F010010184704723F0B00351
:100BF0000A46F3E70004004000080040000C0040F3
:100C000000340140002C01402DE9F84F4FF08040A6
:100C1000012100F003FA012818BFBDE8F88F4FF05A
:100C20008040012100F0C6F9B4480022DFF8D082EC
:100C300001680529B8BF4A1C0260D8F804003B28A7
:100C400003DC0130C8F8040003E03C2808BFFFF7CC
:100C50008FFDFFF747FE042000F0E8FFDFF8A4B2A5
:100C6000CBF80000032000F0E1FFA74C0146206014
:100C7000DBF8000001F0F8FCDFF89092DFF890A2BA
:100C8000DBF80000D9F80010DAF8002008442168E9
:100C9000C9F800005718CAF8007002F043FE9D4DD5
:100CA000294602F02DFD9C4E314602F0BBFE02F0BB
:100CB0001DFE044699480460384602F033FE29467A
:100CC00002F01EFD314602F0ADFE02F00FFE944927
:100CD000086094490968052905D12044D028A2BF9D
:100CE000914801214171914D2868012863D19048B4
:100CF0000078643801F02EFB02F0F8FD8D4C8E4A2E
:100D0000D9F800102060DAF800001268084402F1F7
:100D1000960300EBD070B3EB600F23DD4010A2F11F
:100D2000960398421EDDD8F8080000230026013003
:100D3000C8F80800DBF8000001F0C0FB7F49804ADA
:100D4000002308607048DAF800101268006801F0AB
:100D5000D1FB7C490860D8F8081019291CDB2E60EB
:100D6000012114E0D8F80030DBF8000001F0A6FB08
:100D70007249734AD8F8003008606348DAF8001006
:100D80001268006801F0B6FB6E490860002100227D
:100D9000C8F808206C4A11606C4A684912680968F2
:100DA00012B16B4A116004E02268694B1144801A49
:100DB00019606849086068480068012814D15E48D5
:100DC000D9F80050046804F11E0085420FDAA4F13E
:100DD0001E0085420BDD0120294622460023C8F86B
:100DE0000C00DBF800001BE0594800686FE00020B1
:100DF000DBF80060C8F80C0058480768D8F8000015
:100E000002F0D1FA002F19BF554A564B564A574B9C
:100E100002F0E0FA02F098FA0346304629462246EC
:100E200001F04CFBDFF81491DAF80050C9F800002B
:100E30004348046804F11E0085420CDAA4F11E0048
:100E4000854208DD0120294622460023C8F810000B
:100E50002D48006818E00020C8F810002A480668ED
:100E60003E480768D8F8000002F09DFA002F19BF2D
:100E70003B4A3C4B3C4A3D4B02F0ACFA02F064FA70
:100E8000034630462946224601F034FB2D490860CE
:100E9000D8F80C10012914D1D8F81010012910D15C
:100EA000D8F808104A1C0C29C8F8082009DB264A83
:100EB000012300211360284A1160C8E90211C8F813
:100EC000101024490860D9F8000021490860284C16
:100ED00041F6F421224601F035FD1D491D4D224603
:100EE0000860286841F6F42101F02CFD01462860D5
:100EF0004FF47A70BDE8F84F01F02EBCA401002039
:100F000000000020A8010020AC010020F401002016
:100F1000F80100200000C344AD63A841CC010020CB
:100F2000D0010020D000002000010020D4000020CB
:100F3000E001002004020020FC010020C401002088
:100F400000020020C8010020D8000020EC00002092
:100F5000D4010020D8010020DC000020F400002093
:100F6000A4703D0AD7A3D03F3D0AD7A3703DE23F0E
:100F70000CE5FFFF03480188018821F00101018091
:100F8000704700BF1004004003480188018821F029
:100F900001010180704700BF10080040028800294D
:100FA00042F0800308BF22F0800303807047C943EA
:100FB00001827047C943018270470288002942F0CC
:100FC000010308BF22F0010303807047B0F84420FA
:100FD000002913466FF3DF3318BF42F40043A0F833
:100FE0004430704780B5B0F808C02CF0070C41EAD7
:100FF0000C01B0F818C0B0F820E001814FF6FC41B8
:101000000CEA010C40F2011141EA0C01018342EAB1
:1010100003112EF022021143018480BD028A0A408E
:1010200018BF01228089084018BF01201040704776
:10103000B0B50B880D460446042B0DD0DBB92B89C7
:10104000AA8869882046FFF777FDE98834F8180FE9
:1010500020F00C0020800CE02B89AA8869882046AB
:10106000FFF796FDE88834F8181F21F440612180CD
:10107000010220466EE02889AA88B5F802E0218C9A
:10108000082B32D121F48071B4F1804F218442EADF
:101090000011204630F81C2F238C22F0F30241EA85
:1010A000020C0ED08F498C420BD08F498C4208D055
:1010B0008E498C4205D08E498C4202D08D498C429B
:1010C0004CD14CF6FF714FEA0E2E01F5345203EA73
:1010D0000201A4F81CC041EA0E0141F48071218490
:1010E000E988A28B22F00C0233E021F48051000346
:1010F00040F6FF43B4F1804F218440EA02212046AC
:1011000030F81C2F02EA0302238C41EA020C0ED0B5
:1011100074498C420BD074498C4208D073498C427C
:1011200005D073498C4202D072498C421AD14FEAE1
:101130000E3E4CF6FF7203EA0201A4F81CC041EA1D
:101140000E0141F480512184E988A28B22F440628F
:101150000902A283028811430180B0BD034901F551
:101160001452B4E746F6FF52E5E700BFFFCFFFFF9A
:10117000002101220160426001817047002A8289BA
:101180000CBF22EA010111438181704710B5028C26
:1011900022F480720284048CB0F804E0838B0A8805
:1011A00023F0730343EA020C0B8924F4007242EA31
:1011B00003224B8842EA03224D4B984202D04D4B0A
:1011C000984212D18B892EF4405422F4406244EAB2
:1011D0000313CC8943EA041E4B8940F2FF441B02EF
:1011E000A3431A438B8842EA0322A0F804E0A0F844
:1011F0001CC0C9888187028410BD00BF828B22F089
:10120000080211438183704710B5028C22F480528A
:101210000284048CB0F804E0828B0B8822F4E6424E
:1012200042EA032C0B8924F4005242EA03324B8831
:1012300042EA03332E4A904202D02E4A904204D111
:101240008A892EF4804444EA821EA0F804E0A0F8C3
:101250001CC0C988A0F84010038410BD828B22F402
:10126000006242EA01218183704781847047000057
:101270000288B0F1804F0ED01A4B98420BD01A4B17
:10128000984208D0194B984205D0194B984202D089
:10129000184B984203D14B8822F070021A4310B5C4
:1012A000154C40F48063A342BDE8104003D0CB88C6
:1012B00022F440721A4302808A8882850A88028555
:1012C0000E4A02444FEAB222072A07D8012303FA42
:1012D00002F212F0E50F1CBF097A0186012181821A
:1012E000704700BF0004004000080040000C0040B0
:1012F00000340140002C01400014004000D4FEBF27
:101300004FF6FF71416000210160017270470000DB
:1013100010B5274C40F22551204600F015F978B160
:10132000204600F099F923494A68032A15D8DFE8D6
:1013300002F002081625C2B22C2A0ED1012204E0C6
:101340002BE0C2B2122A08D102224A601A490A7856
:10135000531C0B70194988541FE0174A1AE0164BAA
:101360001C78621C1A70154B1855C3B25B2B02D047
:10137000D2B2092A11D303224A600EE00E4A0F4C62
:101380001378234413F8013C5B2B03D100234B60FB
:10139000137002E0002313704B6006490870084880
:1013A000017831299EBF04490978017010BD00BF42
:1013B000004C00402001002010020020B801002055
:1013C000C001002010B5A34C40F22551204600F08A
:1013D000BBF878B1204600F03FF922490A68032A99
:1013E00015D8DFE802F002081625C2B22C2A0ED169
:1013F000012204E02BE0C2B2122A08D102220A60C4
:1014000019490A78531C0B70184988541FE0164A72
:101410001AE0154B1C78621C1A70144B1855C3B295
:101420005B2B02D0D2B2092A11D303220A600EE04C
:101430000D4A0E4C1378234413F8013C5B2B03D167
:1014400000230B60137002E0002313700B6035491A
:1014500008700748017831299EBF03490978017057
:1014600010BD00BF1402002011020020E80100207E
:10147000F001002010B5274C40F22551204600F025
:1014800063F878B1204600F0E7F823490A68032A98
:1014900015D8DFE802F002081625C2B22C2A0ED1B8
:1014A000012204E02BE0C2B2122A08D102220A6013
:1014B0001A490A78531C0B70194988541FE0174ABF
:1014C0001AE0164B1C78621C1A70154B1855C3B2E3
:1014D0005B2B02D0D2B2092A11D303220A600EE09C
:1014E0000E4A0F4C1378234413F8013C5B2B03D1B5
:1014F00000230B60137002E0002313700B60094996
:1015000008700948017831299EBF044909780170A3
:1015100010BD00BF00480040180200201202002049
:10152000680100202001002070010020828900292C
:1015300042F4005308BF22F40053838170470088AF
:10154000084018BF0120704701F01F02012303FA71
:1015500002F2C1F34213022B06D0012B14BF00F19B
:10156000140300F10C0301E000F110031B88090AC9
:101570001A404FF0010318BF0122008803FA01F15D
:10158000084018BF01201040704701F01F0C0123D4
:1015900003FA0CFCC1F342131421022B08BF1021E3
:1015A000012B08BF0C21002A42580CBF22EA0C0272
:1015B00042EA0C024250704770B586B00446008A79
:1015C0000D46C98801AE20F4405008434EF6F31191
:1015D0002082A0890840A98808432989084369898D
:1015E0000843A081A08AA98920F440700843A08202
:1015F0003046FFF7D9F9174906F1080002226FF0CB
:1016000063038C424FF0190108BF06F10C00042659
:1016100000684843A189A2EBD1312A6802FA01F19E
:10162000B0FBF1F06421B0FBF1F202FB0300A389EF
:10163000A6EBD336B0403230B0FBF1F0072141EADF
:10164000133181F00801084040EA0210208106B001
:1016500070BD00BF0038014080886FF35F20704785
:101660006FF35F2181807047FEE770B586B000F0B0
:101670002FFB012001210124FFF77EF90220002128
:1016800002250026FEF7B0FF0C20CDE90246CDE989
:10169000040402A8FEF77AFF4FF483708DF802501D
:1016A000ADF8000068460194FFF7E6F806B070BD9B
:1016B000B0B5074D044604212846FFF742F82046FE
:1016C00000F08AFA28460421BDE8B040FFF73BB895
:1016D0000018014010B50446000A00F07DFAE0B29F
:1016E000BDE8104000F078BA2DE9F843DFF8E89C37
:1016F000081AD9F80850D9E90487C9F8105002F03F
:1017000011F9064602F0F2F8002800D540420128FF
:101710002C48B8BF002601683046C9F8086002F0BE
:1017200081F9634902F07EF962490446384602F0C5
:1017300079F9214601F04CFF5F4C0746C9F81400C7
:10174000214601F0B5FF28B95C4C3846214601F02E
:10175000B6FF10B92746C9F8144059482946006811
:101760000128304604BF0027C9F8147002F026FA99
:1017700001461548006802F055F90146384601F067
:1017800027FF04462846294601F022FF014630463D
:1017900002F014FA414601F01BFF01460B480068B5
:1017A00002F040F90146204601F012FF0146D9F847
:1017B0000C0001F00DFFC9F80C0002F097F801B021
:1017C000BDE8F083480000205000002040000020C9
:1017D0002DE9F843DFF8009C081AD9F82050D9E920
:1017E0000A87C9F8285002F09DF8064602F07EF8F4
:1017F000002800D5404201282C48B8BF00260168C7
:101800003046C9F8206002F00DF9294902F00AF9C2
:1018100028490446384602F005F9214601F0D8FE71
:10182000254C0746C9F82C00214601F041FF28B994
:10183000224C3846214601F042FF10B92746C9F82C
:101840002C401F48294600680128304604BF002765
:10185000C9F82C7002F0B2F901461A48006802F08B
:10186000E1F80146384601F0B3FE04462846294611
:1018700001F0AEFE0146304602F0A0F9414601F00B
:10188000A7FE01461048006802F0CCF80146204649
:1018900001F09EFE0146D9F8240001F099FEC9F836
:1018A000240002F023F801B0BDE8F0834C000020D2
:1018B000CDCC4C3ECDCC4C3F00C0DA4500C0DAC5A3
:1018C000D8000020540000204400002010B586B04D
:1018D000012001210124FFF743F840F2671003A91A
:1018E000039040F2E73004904FF08040FFF7C0FCD7
:1018F0004FF080400121FFF75DFB4FF08040012158
:101900000122FFF73BFC4FF4A060FEF7E1FF00204F
:101910008DF806001C20ADF8040001A80294FEF723
:10192000ABFF4FF080400121FFF747FB06B010BD31
:101930002DE9F04F87B0119D824690461C460F4618
:10194000069100EB5500013882B24819013883B284
:10195000504600F0E1FCA5F10C00072201234FF0F6
:10196000000B5646C0F3850112EA550F41EA80107C
:101970004FEA151118BF03EB1511C2B23748002307
:1019800069436D0803920491A8F120015FFA85F87C
:10199000C9B200EB0110029101902E4800EB8110BA
:1019A000009050E0052A52D80593DFE802F0030AC0
:1019B000500C501302992A4A01EB410102EB8101BC
:1019C00009E0019907E00299234A01EB410102EB8A
:1019D000011100E0009908444FF00009077801E088
:1019E00009F10109B9F1070F2AD80120129900FA6B
:1019F00009F0384069B128B10699B0B2224689B2DF
:101A000000F0E0FA0136B0B2A0EB0A00A842E7D13C
:101A100012E000280CBF10982046FFF75BFE0BF188
:101A2000010B5FFA8BF0B0FBF8F101FB1800002806
:101A3000D6D14FF0000B03E00698564601300690D1
:101A4000059B039A0133049998B28142AAD807B042
:101A5000BDE8F08FFE5800082E4700082E41000810
:101A6000BA3C00082DE9F04790B04B48DFF83081D0
:101A700000274FF0200A4FF6FF7447F60F090021A8
:101A800001238DF83C700E90444802885020CDE927
:101A90000094CDF808A0C047424D0EAA00200021B6
:101AA0004FF47843CDE9004A0297A8473E481026F4
:101AB0001E2101230D903D4802885020CDE900945D
:101AC0000296C0470DAA002021214FF478438DE8EB
:101AD000D000A84736480AAA32214FF478430B9029
:101AE00034480A9000208DE8D000A84732483221BF
:101AF000012302885020CDE900940296C0472F4868
:101B000096214FF4784302783C20CDE9004A0297B1
:101B1000FFF70EFF2A4808AA50214FF478438DF8AA
:101B20002470089000208DE8D000A8472548502157
:101B3000012302882820CDE900940296C04722485C
:101B400006AA64214FF478438DF81C70069000209B
:101B50008DE8D000A8471D4864210323027828207F
:101B6000CDE900940296C047194804AA78214FF4A1
:101B700078438DF81470049000208DE8D000A847B9
:101B800014487821012382782820CDE90094029618
:101B9000C04710B0BDE8F0874C6F7252C4000020FF
:101BA00051200008E72000084E756D00DC01002080
:101BB0004C41470046415246E4000020C800002046
:101BC0004C4F4144E00000206F70656EE001002042
:101BD000626C75656801002070B5944C0546022161
:101BE0002046FEF7AEFD002616E020460821FEF74F
:101BF000A8FD68B2B0F1FF3F04DD20462021FEF7CA
:101C0000A0FD03E020462021FEF79DFD204608218F
:101C1000FEF799FD01366D00F0B20728E5D92046A0
:101C20000221BDE87040FEF78EBD00BF0146074AA5
:101C30000020032904D0042918BF704702F58062F0
:101C4000B2F9001010800846704700BF240400401D
:101C500070B58AB04FF4047001210125FEF78CFEA7
:101C60004FF40040FEF774FE184C0026022001A934
:101C70000396ADF80400A4F5A050FEF7CBFC204677
:101C8000FEF706FB4FF46020CDE90466069604A932
:101C9000CDE9070620468DF82450FEF72FFB20469D
:101CA0000121FEF7EBFA2046FEF750FB2046FEF737
:101CB00021FB0028FAD12046FEF74DFB2046FEF717
:101CC00015FB0028FAD10AB070BD00BF0024014006
:101CD0001FB5AB480124016841F0110101600120EA
:101CE00000F068FE10200121FEF746FE4820ADF806
:101CF000044001A90390032002900248FEF78AFCE9
:101D00001FBD00BF0010014070B500F067F9CE4C58
:101D100010212046FEF715FD454D6420A8472046BA
:101D20001021FEF710FD6420A84720464021FEF751
:101D30000AFD6420A8473F4E1120B0477820A847ED
:101D40003620B0473C4C0020A0473A20B047052041
:101D5000A047B220B0470C20A0470C20A04700208D
:101D6000A0473320A0473320A047B720B0473520F5
:101D7000A047BB20B0473220A047C220B047012077
:101D8000A047C320B0471520A047C420B04720205B
:101D9000A047C620B0470F20A047D020B047A420BE
:101DA000A047A120A047E020B047D020A0470820AE
:101DB000A0470E20A0470920A0470920A0470520E2
:101DC000A0473120A0473320A0474820A047172034
:101DD000A0471420A0471520A0473120A047342059
:101DE000A047E120B047D020A0470820A0470E2000
:101DF000A0470920A0470920A0471520A04731206F
:101E0000A0473320A0474820A0471720A047142010
:101E1000A0471520A0473120A0473420A04721200B
:101E2000B04729203146BDE87040084700180140FE
:101E300085290008B1160008D91B00082DE9FE4FBE
:101E40004F490127086840F045000860012000F074
:101E5000B1FD4C4C40200121A0474B4E4FF0100BE0
:101E6000EA460320DFF8AC94CDF808B0ADF8007076
:101E70000190514606F586352846C847DFF8CC81E3
:101E800028462021C0474148012107600820A0477B
:101E90004FF40070CDF808B006F580355146ADF826
:101EA0000000032001902846C84728464FF40071DF
:101EB000C047374F0020012178600820A0474FF429
:101EC0008070CDF808B05146ADF8000003200190B5
:101ED0002846C84728464FF48071C047002006F5C1
:101EE0007C442C4D03210022022338602046002729
:101EF000A8472046032104220223A84720460321A5
:101F000008220223A847204603210C220223A847C7
:101F10002046032102220223A8472046032106224D
:101F20000223A847204603210A220223A84720466D
:101F300002210E220223A8471149486840F00800F8
:101F40004860012000F036FD0920308542F2107013
:101F5000B08547F66800308347F67800B083A6F86E
:101F60004070B6F84000B087B08F3087308FB086B1
:101F700041F2111030848120308003B0BDE8F08F31
:101F80001810024079090008000C0040800123422B
:101F9000A0812142991F0008B0B513444FF0010CF5
:101FA0005FFA83FE134606E005680CFA03F401337A
:101FB00025EA040404607345F6D391400268114396
:101FC0000160B0BD10B5144602460B4600F0A4F9FE
:101FD0002046BDE81040FFF77DBB00002DE9FF4122
:101FE00040200121FEF7C8FC4FF010080220164CDB
:101FF00001ADC84FCDF80C80ADF804000320294690
:1020000002902046B847114E20460221B0472820B2
:102010002946ADF804002046B84720462821B0479D
:1020200044202946ADF804002046B847204648F22F
:102030002001B04720462946ADF80480B847204625
:102040001021B047BDE8FF81001801404707000894
:102050002DE9FE4F07460E981C4692460E46A3F108
:10206000010B4FF000084FF000094508A04508BFDC
:10207000BDE8FE8FA4EB0800012102E001EB810125
:102080004900013810F0FF0FF8D1BAFBF1F00A2136
:10209000B0FBF1F101EB8101A0EB41015FEA0960C6
:1020A00004D1C34502DDA1B14FF001090D9841F003
:1020B0003001CAB2314600900E9801900020029083
:1020C00008FB057080B20C9BFFF732FC08F1010899
:1020D000CCE70D984FF000093146202200900E9871
:1020E000CDE90109ECE72DE9FE4FDDF83480DDF89C
:1020F00038A0DDF830B0994615460E4607464FEA3F
:1021000058040AE0B8B231464B46CDE900B8CDF8E4
:1021100008A0FFF70DFC274401352A78002AF1D1E9
:10212000BDE8FE8FF8B5081A01F0FCFBAA4F044683
:102130002146386801F04CFA05463860204601F027
:10214000D5FB002800D54042A54E01282846B8BF3F
:102150000024314601F0ACFA28B9A24E2846314697
:1021600001F0ADFA08B935463E609C48214600684A
:102170000128124804BF00253D6000687E687C602D
:1021800001F050FC07460E482946006801F04AFC61
:102190000146384601F01CFA05462046314601F05A
:1021A0000DFD01460748006801F03CFC0146284649
:1021B00001F00EFA01F09AFB01B0F0BD30000020F2
:1021C0002800002020000020F8B5081A01F0AAFB22
:1021D000814F04462146B86901F0FAF9804D064660
:1021E000294601F065FA38B97E49304601F067FAB0
:1021F0000028354608BF7B4D7848FE6921460068B7
:102200000128124808BF00250068C7E9065401F0FC
:1022100009FC07460E480168284601F003FC014608
:10222000384601F0D5F905462046314601F0C6FC96
:1022300001460848006801F0F5FB0146284601F018
:10224000C7F901F053FB01B0F0BD00BF340000201E
:102250002C00002024000020B0B58AB020200121ED
:102260000124FEF789FB01200121FEF785FB0320F5
:102270004FF4804507A908900420ADF81C50099040
:102280000D48FEF7C7F903200E21FEF7ADF9002037
:10229000CDE903501020CDE9050403A8FEF776F937
:1022A00028200294ADF8040001A88DF80640FEF73E
:1022B000E3FA0AB0B0BD00BF001401407FB5702042
:1022C0000121FEF759FB1020114C01AD114E039076
:1022D0004FF441602946ADF804000320029004F554
:1022E0008060B0474FF480502946ADF80400204686
:1022F000B0474FF4806004F500642946ADF804004F
:102300002046B04720464FF48061FEF71CFA7FBD9F
:1023100000100140150600082DE9F843DFF82C9065
:1023200007462A20984615460E46C847084C3846A8
:10233000A0472846A0472B20C8473046A047404624
:10234000A0472C204946BDE8F8430847B1160008CD
:10235000D5160008F8B501F0E5FA1F4F04462146EE
:10236000386B01F02BFC06463863F8481C4D0068BA
:102370002946012808BF0026304601F099F984F06B
:10238000004438B91749304601F099F9002835461C
:1023900008BF144D14483D6321467E6B7C63006882
:1023A00001F040FB074611480168284601F03AFB5E
:1023B0000146384601F00CF905462046314601F049
:1023C000FDFB01460A48006801F02CFB0146284647
:1023D00001F0FEF801B0F0BD30010020D80000206F
:1023E00000C0DA4500C0DAC51C000020180000203B
:1023F00014000020F0B58BB02C48016841F4006156
:102400000160012000F0D6FAE84E00270120378055
:10241000B78000F0CFFA26480121FEF759F94FF4B2
:1024200000600121FEF7A8FA41200121FEF7A4FA7D
:102430000320204C08A9099018200A904FF4C040AE
:10244000ADF82000A4F5A050FEF7E4F841F61F40D7
:1024500005A9CDE905702046FEF70AFF164801AD33
:10246000294601902046CDF80A70FEF78FFE2046DF
:102470000821FEF7C3FE60202946ADF8040020467F
:10248000FEF7C2FE20460821FEF7E8FE20460121A5
:10249000FEF79CFD20460121FEF780FD204601212C
:1024A000FEF78BFD3780B7800BB0F0BD18100240EF
:1024B000C0001600002C014070000100B0B50546B8
:1024C000084611461C46FFF72DFE61428842A8BF10
:1024D0000146A0422846C8BF2146FFF705F9134927
:1024E0008842C8BF014641F62C208142A8BF014660
:1024F0000846B0BDB0B50546084611461C46FFF774
:1025000063FE61428842A8BF0146A0422846C8BF78
:102510002146FFF75DF905498842C8BF014641F6EB
:102520002C208142A8BF01460846B0BDD4E5FFFF7C
:10253000B0B58AB002200121FEF712FA1020012165
:10254000FEF71AFA1F480121FEF7C2F804201E4CBC
:1025500001A90390C020ADF8040004F58630FEF711
:1025600059F807AD2846FEF7CBFE4FF6FF70294617
:102570000890002007902046FEF77AFE20460321AF
:1025800000220023FEF72EFD04AD2846FEF7F0FDE5
:102590000A202946ADF818002046FEF749FD2046DE
:1025A0000121FEF704FD204601210122FEF7E6FD90
:1025B00020460021FEF759FE20460121FEF7FDFCD2
:1025C0000AB0B0BD000C1A0000040040B0B58AB0DB
:1025D000042001210424FEF7C3F920200121FEF785
:1025E000CBF94FF480500121FEF772F803941D4C93
:1025F0004FF4405001A9ADF8040004F58630FEF711
:1026000009F807AD2846FEF77BFE4FF6FF70294616
:102610000890002007902046FEF72AFE204603215E
:1026200000220023FEF7DEFC04AD2846FEF7A0FDE5
:102630000A202946ADF818002046FEF7F9FC20468E
:102640000121FEF7B4FC204601210122FEF796FD90
:1026500020460021FEF709FE20460121FEF7ADFCD1
:102660000AB0B0BD000800402DE9F0470446084616
:1026700000F099FE1D4B0022984600F0ABFE1C4B6B
:102680000022994600F0A6FE1A4B00229A4600F05E
:1026900003FD194D00222B4600F0FEFC174E184F8B
:1026A00032463B4600F096FE00F0C4FC1549086037
:1026B000204600F078FE0022434600F08BFE002208
:1026C0004B4600F087FE0022534600F0E5FC002256
:1026D0002B4600F0E1FC32463B4600F07BFE00F06A
:1026E000A9FC09490860BDE8F08700BF0000494027
:1026F0000000D03F00002A4000003E40D3DEE00B47
:10270000934F6A400C0200200802002080B5374930
:10271000002201230A6036490B6036490A603649B7
:102720000A6036490A6036490A6036490A6001F093
:10273000F9F8074901F076F9064900F0E1FF01F0E8
:10274000D5F8794908607A49086080BDD800002032
:1027500000C07346987C5243124A012803DB0123D0
:10276000D361002305E000230028D361034618BF8E
:1027700001230129936103DB01231360002205E09B
:102780000023002913600A4618BF0122064B0029C6
:102790001A6000D54942054A0028918000D5404280
:1027A0001080704790812242B00122423C2C0140AF
:1027B0000E490022012304280A600D490A600D49D0
:1027C0000B600D490A600D490A600D490A600D4908
:1027D0000A6088BF70470CA1104A51F820101160A0
:1027E0000FA151F82000504908607047D800002020
:1027F000D4000020DC000020CC010020D00100200B
:10280000F4010020F80100206B03000095FCFFFF9D
:10281000D60600008C00000074FFFFFF00020020BD
:1028200095FCFFFF6B0300002AF9FFFF74FFFFFF19
:102830008C0000002DE9F8438146501E154698464D
:102840000E4682B2581E83B24846FFF765FD089CCB
:10285000B0B2404528BFBDE8F8834F4603E02046AC
:10286000FEF738FF0137B8B2A842F8D30136EFE7D8
:10287000B0B52A480068D8B12948006801F052F87C
:10288000284C0121A0472848006801F04BF802219C
:10289000A0472648006801F045F80321A0472448D6
:1028A000006801F03FF80421A047224864211DE0A0
:1028B0002148006808B31A48006801F033F8194C41
:1028C0000121A0471D4D286801F02CF80221A047E6
:1028D0001648006801F026F80321A047286801F097
:1028E00021F80421A04713484FF47A71006890FB47
:1028F000F1F001F017F80521A0470520FDF748FD8C
:10290000734A0F4B0021814208BFB0BD158815F0F6
:10291000400FFBD05D5C01319580F4E79C01002005
:10292000A80100200D040008FC010020AC010020DB
:1029300000020020D4010020A00100203C00002063
:10294000710100208842C4BF084670479042B8BF5A
:10295000104670477047000080B56FF00400FEF726
:1029600067F8064806494FF47A720068B0FBF1F048
:102970001C490870C0B25043488080BD3800002018
:1029800000127A00174949884143174841600021E5
:102990008160016841F001010160016801F00111ED
:1029A0000129FAD0016821F0010101600021816054
:1029B000704700BF0B49097841430B484160002133
:1029C0008160016841F001010160016801F00111BD
:1029D0000129FAD0016821F0010101600021816024
:1029E000704700BF1C01002010E000E0E0B54FF48C
:1029F000E13000F025F84FF4E13000F06BF84FF4CF
:102A0000E13000F0BBF8FFF719FAFFF725FCFFF7FC
:102A10007BF9FEF72AFE4FF6FF700021F022F0232B
:102A200000900020FFF706FFFFF748FCFFF7E2FCED
:102A3000FFF77EFDFFF7CAFDBDE88C40FFF708B940
:102A40002DE9F0418AB0054644F2040001214FF01F
:102A50000108FDF791FF03201D4C07AF08904FF4CC
:102A600000703946ADF81C001820A4F540560990B6
:102A70003046FDF7CFFD0420394609904FF48060C1
:102A8000ADF81C003046FDF7C5FD25208DF8068009
:102A9000ADF8040001A8CDF80880FDF7EDFE002098
:102AA000039503A90490ADF818004FF44020059059
:102AB0002046FEF781FD204640F225510122FEF717
:102AC00064FD20460121FEF731FD0AB0BDE8F0812A
:102AD000003801402DE9F0418AB004464FF48020CF
:102AE00001214FF00108FDF73BFF20200121FDF7F8
:102AF00043FF20480121FDF7EBFD03201E4D07AFEA
:102B000008904FF480703946ADF81C00182005F588
:102B10004C4609903046FDF77DFD0420394609906A
:102B20004FF40070ADF81C003046FDF773FD272010
:102B30008DF80680ADF8040001A8CDF80880FDF7F7
:102B40009BFE0020039403A90490ADF818004FF4F5
:102B5000402005902846FEF72FFD284640F22551DB
:102B60000122FEF712FD28460121FEF7DFFC0AB024
:102B7000BDE8F08130001400004800402DE9F0412C
:102B80008AB004464FF4002001214FF00108FDF700
:102B9000E7FE10200121FDF7EFFE03201D4D07AFDA
:102BA00008904FF480603946ADF81C00182005F5F8
:102BB000444609903046FDF72DFD04203946099022
:102BC0004FF40060ADF81C003046FDF723FD3420C3
:102BD0008DF80680ADF8040001A8CDF80880FDF757
:102BE0004BFE0020039403A90490ADF818004FF4A5
:102BF000402005902846FEF7DFFC284640F225518C
:102C00000122FEF7C2FC28460121FEF78FFC0AB024
:102C1000BDE8F081004C00402DE9F84F4FF4A06072
:102C2000FDF756FEFDF710FFFFF796FE0220FDF7B9
:102C30008DFD01200125FDF789FDFFF7D7FEDFF8A7
:102C4000F06306F14800FDF7AFFE41F22C2086F854
:102C50003A503087A748C6F83F005B2086F8470007
:102C6000FEF734FEA44806F1380400274FF00808A8
:102C70004FF045098246A1488346306840B1322072
:102C8000FFF780FEFFF7F4FD3220FFF77BFEF4E74D
:102C9000FEF7E8FE306BB168312886F8431006DC99
:102CA0002046FDF7D1FD306B013030630AE0322859
:102CB00008D106F14000FDF753FB204686F83A7034
:102CC000FDF7C2FDB06A012804D14FF4FA70FFF796
:102CD00059FEB762306A022813D00128CDD1504680
:102CE000CAF80070B068412825D1F0680328C4D81C
:102CF000DFE800F02D024149B0690128BDD1002074
:102D0000C3E05846CBF80050B06841380728B4D823
:102D1000DFE810F0080043005100610071007D0001
:102D20008E009D0030690328A7D8DFE810F07E00F0
:102D3000CA003E00A100F16842280AD103293FF6EB
:102D40009CAFDFE811F004009D001800A800592096
:102D500016E00A293FF691AFDFE811F00B00D20030
:102D6000E500F00006010C0119011F0134010D00FE
:102D700015008F2004E0B06901287FF47EAF212088
:102D8000FFF7C4FC83E0B06901287FF476AFF761F8
:102D900077615846CBF800706FE7306903283FF63B
:102DA0006CAFDFE800F0424E029CB06901287FF46E
:102DB00064AF372090E0306903283FF65EAFDFE86C
:102DC00000F034028657B06901287FF456AFF762ED
:102DD00086F842500FE1306903283FF64EAFDFE836
:102DE00000F04102767EB06901287FF446AFF762B9
:102DF00086F84250F9E0306905283FF63EAFDFE83B
:102E000010F02F0060005400F0005A0037003069C5
:102E100005283FF632AFDFE810F006001400480046
:102E2000E4004E002B0086F842506FF022001BE0B9
:102E3000306905283FF621AFDFE800F0120337D9EB
:102E40003D1AB06901287FF418AFF762CDE0306910
:102E500005283FF612AFDFE800F0033428CA2E0B36
:102E600086F842506FF02100FFF750FCF562C5E094
:102E7000B06901287FF401AF5046CAF8005011E054
:102E8000B06901287FF4F9AE0120FFF791FCF068EA
:102E90000130F060F1E6B06901287FF4EEAE5846EB
:102EA000CBF80070F7617761E7E6B06901287FF43D
:102EB000E4AE592010E0B06901287FF4DEAEED20C9
:102EC0000AE0B06901287FF4D8AEF76293E0B069F8
:102ED00001287FF4D2AE8C20FFF718FC8EE0B06999
:102EE00001287FF4CAAEF76177615046CAF80050F6
:102EF000C3E600BF5B2C1200A48121428001234263
:102F0000B06901287FF4B9AE4FF4C870FFF73AFDFD
:102F10007068002876D00128C6F80C807BD0022883
:102F20007BD1442078E0B06901287FF4A6AE03206D
:102F30007563FFF73DFC86F83C50A8E7B0690128AF
:102F40007FF49BAE4FF4C8707563FFF71BFD70688C
:102F500000284FF0010008BF022070620420FFF734
:102F600027FC86F83C7092E7B06901287FF485AEB3
:102F7000776304E7B06901287FF47FAE7763706AF6
:102F800002283FF481AF01283FF4B9AE7FE7B06972
:102F900001287FF472AE3520F2E6B06901287FF493
:102FA0006CAE4FF4C870FFF7EDFC706A02282BD0AE
:102FB00001283AD17068022833D0012808BFC6F82A
:102FC000089032E0B16901297FF457AE43380528F3
:102FD0003FF65AAF05FA00F010F0250F7FF48FAEE0
:102FE00052E7B06901287FF448AE012004E0B069DF
:102FF00001287FF442AE0020FFF7DAFB3069013090
:1030000030613AE65620BBE6706802280BD00128F2
:103010000BD1482008E04320B0601F20FFF776FB6B
:103020002BE6462000E04720B0602320A8E600BF42
:10303000C000002021F0004201F00043A2F16052E4
:10304000B2F5801F28BFD2F17F6C0BD95FEA001C5C
:1030500043EAC20242EB507018BF704728BF20F00D
:1030600001007047B2F5801FBCBF184670474FEA99
:10307000410C1CF5001F02D2084600F09ABD70B545
:1030800000F052FA00000089FFF7F6BF4FF0004051
:10309000A0F58000704700002DE9C04130B4DFF892
:1030A000A0C23CEA111418BF3CEA131400F0EC80F3
:1030B0001CEA111481EA030544EAD57418BF1CEA1E
:1030C000131500F0C780A4EB050404F17F7404F528
:1030D00000344FF0004545EAC12145EAC32341EAE7
:1030E000505143EA52534FEAC0204FEAC22299425C
:1030F00008BF904200F09C804FEA13650FF2401623
:10310000765D4FEA134506FB05F7C7F1807706FBAE
:1031100007F74FEAD737A7FB03687642A7FB06CE2F
:10312000C8F5803838BFA8F1010807FB08E6A6FB00
:10313000028C4FF0000EE6FB03CEDCF1000CCEF16A
:10314000004E38BFAEF1010EA6FB0C584FF0000741
:10315000E6FB0E87A1FB08C6A0FB07CE16EB0E060A
:103160004FF0000545F10005E1FB076515F1E04E64
:103170007EBFA4F580345FEA46066D4116F18007F4
:1031800045F100054FEA172747EA05674FEA15257D
:103190004FEA0666A6F1DE46B6F1805F1FD93846D3
:1031A00005EBC47124F0010C01EB0C11BCF1FE6FB6
:1031B00002D8F0BCBDE8008124425CBF01F5801E4E
:1031C0009EEAC47F02D4F0BCBDE80081244238D41A
:1031D000A1F1C041F0BCBDE8004100F0F3B94FEAF5
:1031E000D02040EA41504FEAD1214FEAD22242EAB0
:1031F00043524FEAD323A7FB028607FB036605FB76
:1032000002661EEA0E0F58BFA6EB0056B6EB00563C
:103210004FEA520E4EEAC37E18EB0E0E56EB530EDB
:10322000BDD518EB02085E417F1C55F10005B6E7DD
:103230004FF480154FF000074FF000064FF00008E4
:10324000ADE701F1C04101F000414FF00000F0BCDA
:10325000BDE800810CEA131511EA0C1F00D00CE048
:1032600013EA0C1F00F025804FF0000081EA0301F3
:1032700001F00041F0BCBDE80081F0BCBDE80041B8
:1032800081EA030100F09EB9F0BCBDE8004170B5D1
:1032900000F04AF9097EFC3E00F007B84FF000004C
:1032A00081EA030101F00041704781EA030100F067
:1032B00089B9F0BCBDE8004122494FF000007047D9
:1032C000FFFDFBF9F7F5F4F2F0EEEDEBE9E8E6E4EB
:1032D000E3E1E0DEDDDBDAD8D7D5D4D3D1D0CFCD72
:1032E000CCCBCAC8C7C6C5C4C2C1C0BFBEBDBCBBAB
:1032F000BAB9B8B7B6B5B4B3B2B1B0AFAEADACABA6
:10330000AAA9A8A8A7A6A5A4A3A3A2A1A09F9F9E7F
:103310009D9C9C9B9A999998979796959594939331
:10332000929191908F8F8E8E8D8C8C8B8B8A8989C8
:10333000888887878685858484838382828181804B
:103340000000FF070000F87F4FEA41034FEA5353A4
:10335000A3F58063D3F11E03C8BFD3F1210C0CDDAC
:103360004FF0004242EAC12242EA505232FA03FCD4
:103370008CEAE17CACEBE1707047102BC4BF0020FD
:10338000704703F5787CBCF1FF3F04D06FF000423A
:1033900082EA2100704770B500F0C6F84992248097
:1033A00000207047F2E710F0004248BF4042B0FAF8
:1033B00080F310FA03F10AD0C3F11D0303F5806313
:1033C00002EB03524FEA415002EBD12170474FF01C
:1033D0000000704770B5DFF848C11CEA111E1EBF1F
:1033E0001CEA13159EEA0C0F95EA0C0F00F06F8093
:1033F00081EA03044EEAD47EAE4421EA4C1123EA6A
:103400004C1341F4801143F48013AEF17F7EA1FB95
:10341000024CA0FB0365361955EB0C05A1FB034CD0
:103420004CF10003A0FB021C16EB0C06654153F1A6
:103430000003094218BF46F0010613F4007F0BD1C8
:103440004FEA03314FEA053041EA155140EA165080
:1034500034036FF003020AE04FEAC3214FEAC520AC
:1034600041EA555140EA5650F4026FF0020202EB75
:103470002E4201EB025585EACE710AD05FEA440C78
:1034800018BF24F0004450F1000041F1000120EA8F
:10349000D47040F2FE7C624500D270BDA84214BFD9
:1034A0004FF080444FF04044002E08BF0024BEF18E
:1034B000806FA8BFA1F1C041BDE8704080F282805A
:1034C00001F1C04101F000414FF0000070470CEAEB
:1034D00013159EEA0C0F18BF95EA0C0F06D081EA6F
:1034E000030E4FF000000EF0004170BD00F01CF81C
:1034F0008900013E00F007B800F009B84FEA430C1C
:103500005FEA5C5C08D081EA030100F05BB84FEA37
:10351000410C5FEA5C5CF6D102494FF00000704755
:103520000000FF070000F87F0EF1020E2EF0030EE0
:103530005EF8046B364205D4012A43EB030515F50A
:10354000001F12D8012841EB010C1CF5001F0CD8FC
:103550000ED14FEAD17C0CEB4C0C0CF1020C15F5A2
:10356000001F08BF4CEBD37C04E04FF0080C01E0D7
:103570004FEAD37C0CEB4C0526FA05F606F007065D
:10358000B6F1040C06D20EEB860CBDE870404CF090
:10359000010C6047DFE80CF0090B02024FF000411C
:1035A000A1F500214FF0000070BD1946104601281A
:1035B00051EB010418BFD4F5001484BF002001F0C2
:1035C000004170BD0808A0F500114FEA31017047B5
:1035D00090EA010F48BF81F0004100F1F682421AE3
:1035E0003CBF801A89184FEAD052A2EBD1534FF05A
:1035F0007F4C1CEA410F18BF9CEA026F00F03B8031
:103600004FF0004C4CEA00204CEA012121FA03FC67
:1036100010EB0C0C1ED202F1FF325FEA1C2040EBD3
:10362000C25038BF70471CF07F0F4FEA400C18BFE4
:10363000BCF17F4F38BF7047C3F12003994008BFEA
:1036400020F00100BCF17F4F38BF7047A0F1C040AF
:1036500000F0AFBA4FEA3C00000A40EBC25028BF6E
:103660001CF0FF0F4FEA400CE6D018BFBCF17F4FB3
:1036700038BF7047EAE79CEA026F05D010EA5C0F9A
:1036800008BF00F00040704710B500F04CFA00BFD2
:1036900064FBBE3E10B500F0F5F80CBF0120002021
:1036A00010BD10B500F0EEF814BF0120002010BDD1
:1036B00010B500F04FF98CBF0120002010BD10B5EF
:1036C00000F048F92CBF0120002010BD10B500F01B
:1036D00075F994BF0120002010BD10B500F06EF9FF
:1036E00034BF0120002010BD401058BFC0F1404041
:1036F000491058BFC1F140418142EFF3008070474B
:103700004FF47F0C1CEAD0121EBF1CEAD11392EAC0
:103710000C0F93EA0C0F00F0858090EA010F48BF70
:1037200042F4807240F4000C41F400002CF07F4120
:1037300020F07F4000B5A2EB030281420FF2081C8B
:10374000ACEB504E9EF800E0C0F100004FEA4E0E88
:1037500000FB0EFC38BF49004FEA2C1C0CFB0EF39B
:103760004FEACE1E0EEB635E4FEA112C0EFB0CFCF3
:103770004FEAC1214FEA1C5300FB031102F5FA0284
:103780004FEA112C0EFB0CFC4FEA01314FEADC4CE6
:1037900000FB0C1142EB2242C14228BF09184CEB3E
:1037A00003335DF804EB10EB410143EBC250B2F57B
:1037B0007C0F38BF704729D512F0F00F1CBF00F105
:1037C000C04000F000407047008182838485868776
:1037D00088898B8C8D8E8F919293959697999A9CD0
:1037E0009D9FA0A2A3A5A7A8AAACAEB0B2B3B5B73F
:1037F000B9BCBEC0C2C5C7C9CCCED1D4D7D9DCDF15
:10380000E2E6E9ECF0F3F7FAFE0000004FEA400CC4
:103810000CF1807CBCF17E4F28BF7047B0F1C040F6
:1038200000F0C7B90CEAD11390EA010F48BF42F487
:103830008072624538BF634507D213F47F0F16D0FC
:1038400080EA010000F00040704710B500F06BF90D
:10385000097EFC3E00F005B880EA010000F000405F
:10386000704780EA010000F0004000F0A2B912F4B5
:103870007F0F04BF0248704780EA010000F099B949
:103880000000C07F50EA010C00F113801CF5000F0E
:1038900058BFBCF5000F01D48842704707D710F518
:1038A000000F58BF11F5000F15D4884270478942A8
:1038B00070471CF5000F04D5BCF5000FF7D5814209
:1038C00070474FF0807C1CEB400F38BF1CEB410F62
:1038D00001D28142704710B500F025F992244900C9
:1038E0004FF000504FF08051FFF7FEBE41000B0E2D
:1038F000D3F19E0208D950F400034FEA032323FAC0
:1039000002F048BF4042704710B500F00CF900BF0C
:1039100049922480002070476FF0004282EA200024
:103920007047000010F0004148BF4042B0FA80F3F9
:1039300010FA03F2C3F19D030BD051EAC35101EB1E
:103940001220530638BF704700F1010008BF20F075
:103950000100704750EA010C00F113801CF5000FC4
:1039600058BFBCF5000F01D48842704707D710F547
:10397000000F58BF11F5000F15D4884270478942D7
:1039800070471CF5000F04D5BCF5000FF7D5814238
:1039900070474FF0807C1CEB400F38BF1CEB410F91
:1039A00001D28142704710B500F0BDF89224490061
:1039B0004FF080504FF00051FFF796BE50EA010CD7
:1039C00000F113801CF5000F58BFBCF5000F01D4A7
:1039D0008842704707D710F5000F58BF11F5000F48
:1039E00015D488427047894270471CF5000F04D5F2
:1039F000BCF5000FF7D5814270474FF0807C1CEB7F
:103A0000400F38BF1CEB410F01D28142704710B507
:103A100000F089F8922449004FF000504FF0805197
:103A2000FFF762BE4FF47F0C1CEAD0121EBF1CEAE7
:103A3000D11392EA0C0F93EA0C0F00F0478090EA42
:103A4000010F48BF42F480724FF0004C4CEA002056
:103A50004CEA012102EB0302A0FB0113A2F50002D4
:103A6000002918BF43F001035B0028BF4FEA33036E
:103A700042EB22425FEA132C4CEBC2502EBFBCEB50
:103A8000436FB2F57C0F70474FEA036CBCF1004FF7
:103A900008BF20F00100B2F57C0F38BF70470BD58E
:103AA00082F0FF0212F5803FC8BF704700F1C040AE
:103AB000D8BF00F00040704700F5000C5FEA4C0CE6
:103AC00048BF7047B0F1C04000F073B80CEAD113A2
:103AD00090EA010F48BF42F48072624538BF6345E7
:103AE00004D280EA010000F00040704710B500F0F9
:103AF0001AF800BF8900013E00F007B800F009B8CD
:103B00005FEA410C5FEA1C6C08D080EA010000F01B
:103B100050B85FEA400C5FEA1C6CF6D14FF00040F1
:103B2000A0F5800070470EF1020E2EF0030E5EF835
:103B3000044B244204D44FEA4102B2F17F4F11D822
:103B40004FEA4003B3F17F4F0CD80ED14FEAD07C3F
:103B50000CEB4C0C0CF1020CB2F17F4F08BF4CEB9C
:103B6000D17C04E04FF0080C01E04FEAD17C0CEB73
:103B70004C0324FA03F404F00704B4F1040C06D255
:103B80000EEB840CBDE810404CF0010C6047DFE800
:103B90000CF0070802024FF00040A0F5800010BDB5
:103BA0000846420018BFD2F1807288BF00F0004082
:103BB00010BDFF2141EAD050C005704790EA010FC7
:103BC00048BF81F000413FF50AAD421A04D882F0A7
:103BD0000042A0EB020011444FEAD052A2EBD153B5
:103BE0004FF07F4C1CEA410F18BF9CEA026F4AD08D
:103BF0004FF0004C4CEA00204CEA012121FA03FC72
:103C0000B0EB0C0C0FD412F0FE0F36D05FEA4C0074
:103C10001DD5001240EBC25038BF70471CF03F0F5B
:103C200018BF70470BE05FEA1C20A2F1010240EBD5
:103C3000C25038BF70471CF07F0F18BF7047C3F1E8
:103C40002003994014BF401E20F0010070474FEA46
:103C50001223800808BF7047B0FA80FCA2EB0C0268
:103C6000CCF1280C60FA0CF093EA122F04BF00EBA1
:103C7000C25070474FEAC3707047130A5FEADC1006
:103C800008BF7047F6E79CEA026F04D010EA5C0FA9
:103C900008BF0020704710B5FFF745FF40DFF63E34
:103CA00081F0004070470204060800000000010295
:103CB00003040102030406070809000000000000D5
:103CC00000000000000000000404040404000004DC
:103CD000000014140A0000000000000000000000B2
:103CE0000A0A1F0A0A1F0A0A000000040E15050628
:103CF0000C14150E0400000012150D152E2C2A129E
:103D000000000000040A0A361515291600000202F8
:103D10000100000000000000000010080804040476
:103D20000404080810000204040808080808040431
:103D3000020000000004150E0E1504000000000033
:103D40000008083E08080000000000000000000015
:103D500000000202010000000000003F000000001F
:103D60000000000000000000000000020000002031
:103D70001010080804040202010000000E111111C5
:103D80001111110E00000000040604040404040EC6
:103D9000000000000E1111080402011F00000000C5
:103DA0000E11100C1010110E00000000080C0C0A6F
:103DB000091F081C000000001F01010F1110110E47
:103DC000000000000C12010D1311110E0000000084
:103DD0001E10080804040404000000000E11110E57
:103DE0001111110E000000000E1111191610090614
:103DF00000000000000004000000000400000000BB
:103E00000000000400000004040000001008040288
:103E1000020408100000000000003F003F00000006
:103E20000000000002040810100804020000000056
:103E30000E11110804040004000000001C22292DAA
:103E40002D1D221C0000000004040C0A0A1E12335F
:103E5000000000000F12120E1212120F00000000DC
:103E60001E1101010101110E000000000F121212BB
:103E70001212120F000000001F120A0E0A02121F77
:103E8000000000001F120A0E0A02020700000000D4
:103E90001C1201013911120C000000003312121E15
:103EA00012121233000000001F0404040404041F53
:103EB000000000003E08080808080808090700007C
:103EC00037120A060A121237000000000702020227
:103ED0000202223F000000003B1B1B1B151515357D
:103EE000000000003B1216161A1A121700000000FC
:103EF0000E1111111111110E000000000F12120EFF
:103F000002020207000000000E1111111117190E14
:103F1000180000000F12120E0A12123700000000E3
:103F20001E1101060810110F000000001F150404E7
:103F30000404040E00000000331212121212120CBC
:103F4000000000003312120A0A0C040400000000F2
:103F5000151515150E0A0A0A000000001B0A0A04AE
:103F6000040A0A1B000000001B0A0A0A0404040ECB
:103F7000000000001F0908040402121F00001C04B6
:103F800004040404040404041C00000202040404E5
:103F90000808081010000E08080808080808080893
:103FA0000E00040A000000000000000000000000F5
:103FB0000000000000000000003F020400000000BC
:103FC00000000000000000000000000C121C123C69
:103FD000000000030202020E1212120E0000000086
:103FE0000000001C1202120C000000181010101C1F
:103FF0001212123C000000000000000C121E021CF5
:10400000000000182404041E0404041E0000000024
:104010000000003C120C021C221C00030202020ED3
:104020001212123700000004040000060404040EFB
:10403000000000080800000C080808080807000332
:104040000202021A0A060A1300000007040404040C
:104050000404041F000000000000000F15151515D2
:10406000000000000000000F1212123700000000D4
:104070000000000C1212120C000000000000000FE3
:104080001212120E020700000000001C1212121C75
:10409000103800000000001B0602020700000000AC
:1040A0000000001E020C101E000000000004041E90
:1040B0000404041C000000000000001B1212123C4B
:1040C000000000000000001B0A0A040400000000B9
:1040D00000000015150E0A0A000000000000001B79
:1040E0000A040A1B000000000000003312120C0832
:1040F000040300000000001E0804041E000018084D
:104100000808080C08080808180008080808080823
:104110000808080808080604040404080404040441
:10412000060016090000000000000000000000006A
:10413000000000000000000000000000000000007F
:1041400000080808080808080000181800000048BF
:104150006C241200000000000000000000000000BD
:10416000002424247F1212127F1212120000000079
:10417000081C2A2A0A0C1828282A2A1C08080000C9
:104180000022251515152A58545454220000000009
:10419000000C1212120A76252911916E00000006F9
:1041A00006040300000000000000000000000040C2
:1041B000201010080808080808101020400000020D
:1041C0000408081010101010100808040200000065
:1041D000000008086B1C1C6B0808000000000000B1
:1041E0000000080808087F08080808000000000010
:1041F00000000000000000000000060604030000AC
:10420000000000000000FE000000000000000000B0
:104210000000000000000000000006060000000092
:104220008040402020101008080404020200000012
:104230000018244242424242424224180000000038
:1042400000080E08080808080808083E00000000DA
:10425000003C4242422020100804427E0000000040
:10426000003C4242201820404042221C0000000036
:1042700000203028242422227E2020780000000004
:10428000007E0202021A26404042221C000000006A
:1042900000382402021A264242422418000000007C
:1042A000007E2222101008080808080800000000FC
:1042B000003C4242422418244242423C000000009A
:1042C00000182442424264584040241C0000000070
:1042D000000000001818000000001818000000007E
:1042E00000000000000800000000000808040000B2
:1042F00000402010080402040810204000000000C4
:10430000000000007F0000007F00000000000000AF
:1043100000020408102040201008040200000000E1
:10432000003C4242464020101000181800000000D7
:10433000001C225A555555552D42221C00000000E4
:10434000000808181414243C224242E70000000030
:10435000001F2222221E22424242221F0000000091
:10436000007C4242010101010142221C00000000C8
:10437000001F2242424242424242221F00000000ED
:10438000003F4212121E12120242423F0000000081
:10439000003F4212121E1212020202070000000029
:1043A000003C2222010101712122221C0000000098
:1043B00000E7424242427E42424242E700000000A1
:1043C000003E0808080808080808083E0000000029
:1043D000007C10101010101010101010110F0000A1
:1043E000007722120A0E0A12122222770000000021
:1043F00000070202020202020202427F00000000E5
:104400000077363636362A2A2A2A2A6B0000000020
:1044100000E346464A4A5252526262470000000098
:10442000001C2241414141414141221C0000000049
:10443000003F424242423E020202020700000000E8
:10444000001C2241414141414D53321C600000009B
:10445000003F4242423E1212222242C700000000A8
:10446000007C4242020418204042423E000000000C
:10447000007F4908080808080808081C0000000018
:1044800000E74242424242424242423C00000000B7
:1044900000E74242222424141418080800000000F7
:1044A000006B494949495555362222220000000037
:1044B00000E7422424181818242442E700000000D2
:1044C00000772222141408080808081C00000000C5
:1044D000007E2120101008040442423F00000078B2
:1044E00008080808080808080808080878000000F4
:1044F0000202040408080810102020204040001E7A
:104500001010101010101010101010101E00003895
:104510004400000000000000000000000000000057
:1045200000000000000000000000000000FF000686
:104530000800000000000000000000000000000073
:1045400000000000003C4278444242FC00000000B1
:1045500000030202021A26424242261A000000000C
:10456000000000000038440202024438000000004D
:104570000060404040784442424264D8000000005D
:1045800000000000003C427E0202423C00000000AD
:1045900000F08808087E08080808083E00000000AF
:1045A00000000000007C22221C023C42423C000031
:1045B00000030202023A4642424242E70000000083
:1045C000000C0C00000E08080808083E000000005F
:1045D000003030000038202020202020221E000043
:1045E000000302020272120A161222770000000073
:1045F000000E0808080808080808083E0000000027
:1046000000000000007F9292929292B7000000009A
:1046100000000000003B4642424242E7000000002A
:1046200000000000003C42424242423C00000000C8
:1046300000000000001B26424242221E020700002A
:1046400000000000007844424242447840E000000C
:104650000000000000774C040404041F0000000068
:1046600000000000007C42023C40423E000000008E
:1046700000000008083E0808080808300000000094
:104680000000000000634242424262DC0000000081
:104690000000000000E74224241408080000000085
:1046A0000000000000EB494955552222000000009F
:1046B00000000000007624181818246E0000000086
:1046C0000000000000E74224241418080807000036
:1046D00000000000007E22100808447E000000C098
:1046E000202020202010202020202020C00010107A
:1046F00010101010101010101010101010100006D4
:1047000008080808081008080808080806000C32FD
:10471000C2000000000000000000000000000000D7
:1047200080C04060203010190B0E04000000000013
:104730000000000000000000000000000000000079
:104740000000000000000000000000000000000069
:104750000000000000000000000000000000000059
:104760000000000000006000600060006000600069
:1047700060006000400020002000200000000000D9
:104780000000600060006000000000000000000009
:1047900000006006600630039801880044000000B5
:1047A0000000000000000000000000000000000009
:1047B00000000000000000000000000000000000F9
:1047C0000000000000001002100210021002FE079C
:1047D000FE0708020801080108010801FE07FE079C
:1047E00004010401040104010000000000000000B5
:1047F0000000000040004000F00158034C03CC03CF
:104800004C0058007000E000C001C00140034C03A0
:104810005C034C034801F000400040000000000031
:104820000000000000000E010A01910091009100BB
:10483000510051003A00AE03A00250045004480455
:1048400048044804840284030000000000000000C3
:1048500000000000000038006C006C006C006C0070
:104860006C002C0098071C011A013301330163010D
:10487000E300C308C6093C07000000000000000078
:1048800000000C001C0010001000080004000000D4
:104890000000000000000000000000000000000018
:1048A0000000000000000000000000000000000008
:1048B0000000000400020001800080004000400071
:1048C00020002000200020002000200020004000C8
:1048D0004000800080000001000200040000000091
:1048E000000002000400080010001000200020005A
:1048F00040004000400040004000400040002000D8
:104900002000100010000800040002000000000059
:10491000000000000000000000004000C000400057
:10492000460C4E0FD001F0015E0F460C40004000D7
:104930004000000000000000000000000000000037
:1049400000000000000000000000000040004000E7
:10495000400040004000FE0F40004000400040008A
:104960004000000000000000000000000000000007
:104970000000000000000000000000000000000037
:104980000000000000000000000000000000000027
:1049900000000C001C0010001000080004000000C3
:1049A0000000000000000000000000000000000007
:1049B000000000000000FE070000000000000000F2
:1049C00000000000000000000000000000000000E7
:1049D00000000000000000000000000000000000D7
:1049E00000000000000000000000000000000000C7
:1049F00000001C001C001C00000000000000000063
:104A00000000000400060002000300010001800015
:104A100080004000400060002000200010001000D6
:104A2000080008000C00040006000200000000005E
:104A30000000000000000000F00098010C030C03CF
:104A40000606060606060606060606060606060606
:104A50000C030C039801F0000000000000000000AF
:104A6000000000000000000040007C0060006000CA
:104A70006000600060006000600060006000600036
:104A8000600060006000FC03000000000000000007
:104A90000000000000000000F8008401020306038B
:104AA0000603000300018001C00060002000100028
:104AB000080204020602FE030000000000000000DD
:104AC00000000000000000007800C600860186019A
:104AD00080018001C000700080010001000300031C
:104AE000060306038601F800000000000000000035
:104AF000000000000000000080018001C001A00152
:104B0000A00190018801880184018201FE0F8001CB
:104B1000800180018001E00700000000000000002B
:104B20000000000000000000FC030400040004007A
:104B300004000400F4008C010403000300030603D6
:104B4000060382018401F80000000000000000005C
:104B50000000000000000000E00118030C030C003E
:104B600004000600E60116030E0606060606060603
:104B700004060C021803F000000000000000000012
:104B80000000000000000000F8070C060402040109
:104B900000010001800080004000400040006000F3
:104BA0006000600060006000000000000000000085
:104BB0000000000000000000F8010C0306060606D5
:104BC00006060C021C03F000C8010C0306060606CC
:104BD000060606060C03F0010000000000000000BD
:104BE0000000000000000000F0000C010C030602B1
:104BF00006060606060606078C067806000600036B
:104C000000030C018C01780000000000000000008F
:104C10000000000000000000000000000000000094
:104C20000000E000E000E0000000000000000000E4
:104C30000000E000E000E0000000000000000000D4
:104C40000000000000000000000000000000000064
:104C50000000600060000000000000000000000094
:104C60000000000060006000400020002000000004
:104C7000000000000000000400020001800040006D
:104C80002000100008000400080010002000400070
:104C9000800000010002000400000000000000008D
:104CA0000000000000000000000000000000000004
:104CB0000000FE07000000000000FE0700000000EA
:104CC00000000000000000000000000000000000E4
:104CD0000000000000000400080010002000400058
:104CE000800000010002000400020001800040007A
:104CF0002000100008000400000000000000000078
:104D00000000000000000000E0031806040C040C82
:104D10000C0C0C0C0007800140004000400000001B
:104D20000000E000E000E0000000000000000000E3
:104D3000000000000000E00018030C02CC05640530
:104D40006605A605B604B604B604B604B602E401C8
:104D50000C040C021803F00000000000000000002A
:104D60000000000000000000600060005000D00063
:104D700090009000880088010801F80104030403F2
:104D80000402020202060F0F0000000000000000F3
:104D90000000000000000000FE008C030C030C0368
:104DA0000C030C038C01FC000C030C020C060C061B
:104DB0000C060C060C03FE010000000000000000C1
:104DC0000000000000000000E00318030C060C04C3
:104DD000040406000600060006000600060006049D
:104DE0000C040C021803F00000000000000000009A
:104DF00000000000000000007F008C010C030C0389
:104E00000C060C060C060C060C060C060C060C0612
:104E10000C030C038C017F00000000000000000068
:104E20000000000000000000FF0306030604060463
:104E3000060086008600FE008600860086000600CA
:104E4000060406040602FF03000000000000000044
:104E50000000000000000000FF0306030604060433
:104E6000060086008600FE0086008600860006009A
:104E70000600060006001F00000000000000000001
:104E80000000000000000000F00018010C020C02FD
:104E900004020600060006000600C60F060306030D
:104EA0000C030C031803F0000000000000000000D9
:104EB00000000000000000000F0F060606060606B0
:104EC000060606060606FE07060606060606060689
:104ED0000606060606060F0F000000000000000090
:104EE0000000000000000000FC03600060006000A3
:104EF00060006000600060006000600060006000B2
:104F0000600060006000FC03000000000000000082
:104F10000000000000000000F807C000C000C00052
:104F2000C000C000C000C000C000C000C000C00081
:104F3000C000C000C000C000C60066003C00000009
:104F40000000000000000000CF038601C6004600FC
:104F50002600160036002E006E004600C6008600B1
:104F60008601060106038F07000000000000000014
:104F700000000000000000001F0006000600060000
:104F800006000600060006000600060006000600F1
:104F9000060406040602FF030000000000000000F3
:104FA00000000000000000000707860386038E0350
:104FB0008E034E034E034A035A035A033A03320345
:104FC00032033203120387070000000000000000D4
:104FD00000000000000000008E0F0C021C021C02EA
:104FE00034023402640264024402C4028402840370
:104FF0008403040304031F020000000000000000FB
:105000000000000000000000F00098010C030C02FA
:105010000606060606060606060606060606060630
:105020000C020C039801F0000000000000000000DA
:105030000000000000000000FF0006030606060650
:105040000606060606068603FE00060006000600A3
:105050000600060006001F0000000000000000001F
:105060000000000000000000F00098010C030C029A
:105070000606060606060606060606060606760660
:105080004C02CC039801F0008007000300000000F0
:105090000000000000000000FF01060306060606EF
:1050A000060606060603FE004600C60086008601C8
:1050B0000603060306060F0E0000000000000000B5
:1050C0000000000000000000F8020C0306020602C7
:1050D00006000E003C00F800E00380030007020613
:1050E000020606060C03F0010000000000000000AC
:1050F0000000000000000000FE0762046108610873
:10510000600060006000600060006000600060009F
:10511000600060006000F801000000000000000076
:1051200000000000000000001E070C020C020C0230
:105130000C020C020C020C020C020C020C020C02FF
:105140000C020C021801F00000000000000000003A
:1051500000000000000000000F0706020401040127
:105160000C010C0188008800980098005000500045
:10517000700030002000200000000000000000004F
:105180000000000000000000F70E62044204460424
:10519000460464026402E402E4029C029C01980159
:1051A00098018801880088000000000000000000CD
:1051B00000000000000000009E070C01080118011B
:1051C0009000B0006000200060006000D0009000FF
:1051D0008801080104038E070000000000000000A1
:1051E00000000000000000000F0F060404020C0283
:1051F00008011801B800B000700060006000600095
:10520000600060006000F801000000000000000085
:105210000000000000000000FC070C020603020171
:105220008001800040004000200020001000180095
:1052300008040C040402FE0300000000000000004B
:105240000000E003200020002000200020002000BB
:10525000200020002000200020002000200020004E
:1052600020002000200020002000E00300000000BB
:105270000000000000000400040008000800100006
:10528000100010002000200040004000C0008000FE
:105290008000000100010002000200020004000082
:1052A00000007C0040004000400040004000400002
:1052B00040004000400040004000400040004000EE
:1052C000400040004000400040007C000000000022
:1052D00060009000080100000000000000000000D5
:1052E00000000000000000000000000000000000BE
:1052F00000000000000000000000000000000000AE
:10530000000000000000000000000000000000009D
:10531000000000000000000000000000000000008D
:10532000000000000000000000000000FF0F00006F
:1053300000001800600000000000000000000000F5
:10534000000000000000000000000000000000005D
:10535000000000000000000000000000000000004D
:10536000000000000000000000000000000000003D
:105370000000F0010C030C030003E0031C030E0308
:10538000060306038E0B7C0E0000000000000000E8
:1053900000000000000008000E000C000C000C00D3
:1053A0000C00CC013C031C060C060C060C060C067B
:1053B0000C060C021C03E4010000000000000000C9
:1053C00000000000000000000000000000000000DD
:1053D0000000F0008C018C0186010600060006002A
:1053E00006020C020C01F0000000000000000000AA
:1053F0000000000000000002C003000300030003DF
:10540000000378038C030C0306030603060306035C
:10541000060304038C077801000000000000000070
:10542000000000000000000000000000000000007C
:105430000000E001180308020C060C06FC070C0033
:105440000C0018041802E001000000000000000039
:105450000000000000000000C003600630063000BD
:105460003000FE01300030003000300030003000ED
:10547000300030003000FC0100000000000000009F
:10548000000000000000000000000000000000001C
:105490000000F007D8068C018C018C019801F800FF
:1054A0000C00FC00CC03060306038E03F80000008A
:1054B00000000000000008000E000C000C000C00B2
:1054C0000C00EC011C030C030C030C030C030C0379
:1054D0000C030C030C039E070000000000000000FA
:1054E00000000000000000006000600000000000FC
:1054F00040007C00600060006000600060006000B0
:10550000600060006000FC0300000000000000007C
:105510000000000000000000C001C0010000000009
:105520000001F00180018001800180018001800183
:1055300080018001800180018001CC007C0000009E
:1055400000000000000008000E000C000C000C0021
:105550000C008C038C008C004C006C005C008C00F8
:105560008C010C010C039E070000000000000000ED
:1055700000000000000040007C006000600060004F
:10558000600060006000600060006000600060001B
:10559000600060006000FC030000000000000000EC
:1055A00000000000000000000000000000000000FB
:1055B00000003707EE06660666066606660666069D
:1055C000660666066606FF0F000000000000000089
:1055D00000000000000000000000000000000000CB
:1055E0000000EE011C030C030C030C030C030C0362
:1055F0000C030C030C039E070000000000000000D9
:10560000000000000000000000000000000000009A
:105610000000F00098010C030606060606060606C2
:1056200006060C030C03F000000000000000000060
:10563000000000000000000000000000000000006A
:105640000000EE011C030C060C060C060C060C06F2
:105650000C060C031C03EC010C000C003E000000C7
:10566000000000000000000000000000000000003A
:10567000000078028C030C030603060306030603EE
:10568000060304038C03780300030003C007000033
:10569000000000000000000000000000000000000A
:1056A00000009F035806380618001800180018005C
:1056B000180018001800FF000000000000000000A3
:1056C00000000000000000000000000000000000DA
:1056D0000000F0031C030C020C023800F000C003B1
:1056E000040304038C03FC01000000000000000020
:1056F000000000000000000000002000200030003A
:105700003000FE013000300030003000300030004A
:10571000300030023002E001000000000000000014
:105720000000000000000000000000000000000079
:1057300008028E030C030C030C030C030C030C0374
:105740000C030C039C07780100000000000000001F
:105750000000000000000000000000000000000049
:1057600000001E070C020801080118019000B0009B
:10577000B000600060002000000000000000000099
:105780000000000000000000000000000000000019
:105790000000F70E6204460464026402EC029C01FD
:1057A0009801980198010800000000000000000026
:1057B00000000000000000000000000000000000E9
:1057C0000000BC0718011001B00060006000E0009C
:1057D0009000080108039E07000000000000000080
:1057E00000000000000000000000000000000000B9
:1057F00000009E0708010801080190009000B00019
:105800006000600060002000200024001C000000F8
:105810000000000000000000000000000000000088
:105820000000FC018401C40044006000200030003E
:10583000180208020C03FC01000000000000000038
:105840000000000380008000800080008000800055
:105850008000800040002000400080008000800028
:105860008000800080008000800000030000400075
:105870004000400040004000400040004000400028
:105880004000400040004000400040004000400018
:105890004000400040004000400040004000000048
:1058A00000000C001000100010001000100010008C
:1058B0001000100020004000200010001000100018
:1058C000100010001000100010000C00000000007C
:1058D0001C002204C204800300000000000000003D
:1058E00000000000000000000000000000000000B8
:1058F00000000000000000000000000000000000A8
:105900000000000000000000000000000000000097
:105910000000000000000000000000000000000087
:105920000000000000000000000000000000000077
:105930000000000000000000000000000000000067
:105940000000000000000000C001C001C001C00153
:10595000C001C001C0018000800080008000800084
:105960008000800000000000000000008001C003F3
:10597000C0038001000000000000000000000000E3
:1059800000000000E01CE01CF01E700E3807180339
:10599000080184000000000000000000000000007A
:1059A00000000000000000000000000000000000F7
:1059B00000000000000000000000000000000000E7
:1059C0000000000000000000000020102010201047
:1059D00020102010FE7FFE7F10081008100810080D
:1059E000100810081008FE7FFE7F08040804080451
:1059F000080408040000000000000000000000008F
:105A000000000000000000010001C0076019103113
:105A100018311839183938017001E001C0038007C6
:105A2000000F001D003900311C311C310C310C11EC
:105A3000180DE00700010001000100000000000057
:105A4000000000000000000000001C103618630871
:105A5000630C63046304630263026301361D9C37B5
:105A600080228063406340632063206330631022A0
:105A70001836081C000000000000000000000000B4
:105A800000000000000000000000F00098018C0100
:105A90008C018C018C018C00CC007800183E1C0815
:105AA0003608320863046304C304C3038343064314
:105AB0008E26781C0000000000000000000000009E
:105AC000000000001C003C003C00300030001000D2
:105AD0000C000600000000000000000000000000B4
