:020000040800F2
:1000000010080020CD010008F50B0008590A00086F
:10001000F10B00081D040008F91D00080000000095
:10002000000000000000000000000000DF010008E8
:10003000D905000800000000E3010008E501000800
:10004000E7010008E7010008E7010008E7010008F0
:10005000E7010008E7010008DD050008E7010008E6
:10006000E7010008E7010008E7010008E7010008D0
:10007000E7010008E7010008E7010008E7010008C0
:10008000E7010008E7010008E7010008E7010008B0
:10009000E7010008E7010008E7010008E7010008A0
:1000A000E7010008E7010008E7010008E701000890
:1000B000A10F00081D14000831140008E701000812
:1000C000E7010008E7010008E7010008E701000870
:1000D000E7010008611A0008E7010008791B000821
:1000E000F9050008E7010008E7010008E70100083A
:1000F000E7010008E7010008E7010008E701000840
:10010000E7010008E7010008E7010008E70100082F
:1001100049190008E7010008E7010008E7010008A5
:10012000E7010008E7010008E7010008E70100080F
:1001300000F002F800F03AF80AA090E8000C8244BF
:100140008344AAF10107DA4501D100F02FF8AFF29C
:10015000090EBAE80F0013F0010F18BFFB1A43F0A5
:10016000010318473872000058720000103A24BF8B
:1001700078C878C1FAD8520724BF30C830C144BF0C
:1001800004680C607047000000230024002500264E
:10019000103A28BF78C1FBD8520728BF30C148BFEA
:1001A0000B6070471FB51FBD10B510BD00F038F8CB
:1001B0001146FFF7F7FF04F095F800F056F803B486
:1001C000FFF7F2FF03BC03F0EFFE00000948804791
:1001D00009480047FEE7FEE7FEE7FEE7FEE7FEE729
:1001E000FEE7FEE7FEE7FEE704480549054A064B41
:1001F00070470000490E000831010008100200207D
:1002000010080020100400201004002070477047E0
:10021000704770477047000000487047500000204A
:100220007546FFF7F9FFAE4605006946534620F0D4
:100230000700854618B020B5FFF7D6FFBDE820407F
:100240004FF000064FF000074FF000084FF0000B92
:10025000AC46ACE8C009ACE8C009ACE8C009ACE801
:10026000C00921F007018D46704710B50446AFF371
:1002700000802046BDE81040FFF7A1BF826800293A
:1002800042F0010308BF22F00103836070470000C1
:1002900080B543F60041C4F20101884214D042F611
:1002A0000001C4F20101884216D042F20041C4F2BA
:1002B0000101884218BF80BD4FF40070012100F099
:1002C00051FD4FF400700EE04FF40040012100F0AA
:1002D00049FD4FF4004006E04FF48060012100F03A
:1002E00041FD4FF480600021BDE8804000F03ABD40
:1002F0008068C0F3800070478068C0F3C00070471A
:1003000080B54FF6FF634268CFF6F07302EA030C44
:10031000D1E9003243EA0C0343EA02224FF2FD73B3
:100320004260CFF6F173826802EA030ED1E902C39C
:100330000A6942EA0E021A4342EA4C028260C26A29
:10034000097D013922F47002C9B242EA0151C16249
:1003500080BD0000816841F00801816070470000A5
:10036000816841F00401816070470000B0B544F637
:10037000000401780546C4F20004204601F038FD6F
:100380002046402101F09AFC0128F9D169782046E5
:1003900001F02EFD2046402101F090FC0128F9D10A
:1003A000A978204601F024FD2046402101F086FC7A
:1003B0000128F9D1E978204601F01AFD20464021B4
:1003C00001F07CFC0128F9D12979204601F010FDCB
:1003D0002046402101F072FC0128F9D169792046BC
:1003E00001F006FD2046402101F068FC0128F9D10A
:1003F000A979204601F0FCFC2046402101F05EFC7A
:100400000128F9D1E979204601F0F2FC204640218B
:1004100001F054FC0128F9D1B0BD0000FEE7000056
:10042000411EC8B2092802D90020C0B2704740F26C
:10043000C50024220929C2F200000270F4D8DFE8C6
:1004400001F0050A0F14191E23282E3405214171CD
:100450000620C0B27047092141720A20C0B270471D
:100460000D2141730E20C0B270471121417412203A
:10047000C0B27047152141751620C0B270471921CE
:1004800041761A20C0B270471D2141771E20C0B2AC
:100490007047212180F821102220C0B27047252109
:1004A00080F825102620C0B27047292180F8291035
:1004B0002A20C0B2704700000139CAB2092A98BF89
:1004C000092900D97047DFE801F005111D293541E0
:1004D0004D59667640F2C501020AC2F20001487029
:1004E0008A70020C000ECA700871704740F2C50194
:1004F000020AC2F2000148718A71020C000ECA7130
:100500000872704740F2C501020AC2F20001487247
:100510008A72020C000ECA720873704740F2C5015D
:10052000020AC2F2000148738A73020C000ECA73F9
:100530000874704740F2C501020AC2F20001487413
:100540008A74020C000ECA740875704740F2C50127
:10055000020AC2F2000148758A75020C000ECA75C3
:100560000876704740F2C501020AC2F200014876DF
:100570008A76020C000ECA760877704740F2C501F1
:10058000020AC2F2000148778A77020C000ECA778D
:1005900081F82000704740F2C501020AC2F2000152
:1005A00081F8210081F82220020C000E81F823201E
:1005B00081F82400704740F2C501020AC2F200012E
:1005C00081F8250081F82620020C000E81F82720F2
:1005D00081F82800704700007047000080B50120B6
:1005E00000F038F841F200000121C4F20100BDE83A
:1005F000804000F027BA000080B5052003F0F8FC29
:1006000040F200000121C2F20000016041F200400E
:100610004FF48041C4F2010000F014FA40F23C11A2
:100620000128C2F200010A6803D132B90120086032
:1006300003E0012A04BF0220086040F2FC0001210F
:10064000C2F2000001604FF48040BDE8804000F03D
:1006500001B8000040F21441C4F201010860704783
:10066000C26840F20041C4F20101F2B102680B68B5
:1006700093430B604B6893434B60D0F804C05CF825
:1006800001301A434CF8012002688B6893438B6059
:10069000CB689343CB60806810280DD188681043E5
:1006A0008860C8681043C8607047D0E9002043588C
:1006B00023EA02024250704743581A43425070479F
:1006C00080B50C2240F2080E0F2302EA810201F0ED
:1006D000FC01C4F2010E03FA02FC51F80E30904006
:1006E00023EA0C0341F80E3051F80E20104341F874
:1006F0000E0080BD80B5D1F808E00EF00F0C1EF0A2
:10070000100F1CBF4B684CEA030C098811F0FF0F57
:1007100000F0A4800368CA070BD023F00F02BEF1DB
:10072000480F42EA0C0315D0BEF1280F01D1012277
:1007300042618A0712D523F0F002BEF1280F42EA87
:100740000C131CD0BEF1480F08D1022202614A07E7
:1007500006D418E0012202618A07ECD44A0712D5B8
:1007600023F47062BEF1280F42EA0C231CD0BEF1C4
:10077000480F08D1042202610A0719D505E00222B8
:1007800042614A07ECD40A0712D523F47042BEF145
:10079000280F42EA0C331CD0BEF1480F08D10822C2
:1007A0000261CA0606D418E0042242610A07ECD4AA
:1007B000CA0612D523F47022BEF1280F42EA0C4378
:1007C0001CD0BEF1480F08D1102202618A0619D54B
:1007D00005E008224261CA06ECD48A0612D523F449
:1007E0007002BEF1280F42EA0C531CD0BEF1480F34
:1007F00008D1202202614A0606D418E01022426184
:100800008A06ECD44A0612D523F07062BEF1280F96
:1008100042EA0C631AD0BEF1480F08D140220261AF
:100820000A061AD505E0202242614A06ECD40A06DF
:1008300013D523F07042BEF1280F42EA0C730AD0A0
:10084000BEF1480F09D18022026106E040224261D8
:100850000A06EED401E0802242610360B1F5807F98
:1008600038BF80BD4368CA050CD523F00F02BEF126
:10087000480F42EA0C0317D0BEF1280F02D14FF403
:10088000807242618A0514D523F0F002BEF1280F70
:1008900042EA0C131FD0BEF1480F0AD14FF4007288
:1008A00002614A0507D41BE04FF4807202618A0599
:1008B000EAD44A0514D523F47062BEF1280F42EA47
:1008C0000C231FD0BEF1480F0AD14FF480620261A1
:1008D0000A051CD506E04FF4007242614A05EAD4CD
:1008E0000A0514D523F47042BEF1280F42EA0C33F6
:1008F0001FD0BEF1480F0AD14FF400620261CA0452
:1009000007D41BE04FF4806242610A05EAD4CA04AE
:1009100014D523F47022BEF1280F42EA0C431FD0F5
:10092000BEF1480F0AD14FF4805202618A041CD5EF
:1009300006E04FF400624261CA04EAD48A0414D586
:1009400023F47002BEF1280F42EA0C531FD0BEF10F
:10095000480F0AD14FF4005202614A0407D41BE049
:100960004FF4805242618A04EAD44A0414D523F039
:100970007062BEF1280F42EA0C631ED0BEF1480F30
:100980000AD14FF48042026109041BD506E04FF4FE
:10099000005242614A04EAD4090413D523F070419D
:1009A000BEF1280F41EA0C730ED0BEF1480F09D1F9
:1009B0004FF400410161436080BD4FF480424261C9
:1009C0000904EBD4436080BD4FF4004141614360B2
:1009D00080BD000010B50422002800F440141FFA66
:1009E00080FCC4F201021346B8BF43F01803B4F50B
:1009F000401F1B68C0F3034E07D1146823F07063D7
:100A000024F07064146081B916E0C40206D447F67D
:100A1000F07404EA50440CFA04F402E0032404FAEB
:100A20000EF4A34343F0706331B147F6F07101EA6D
:100A300050410CFA01F10B430028B8BF1832136083
:100A400010BD00008068084018BF012070470000FA
:100A50004161704701617047FEE7000041F21801F3
:100A6000C4F202010A6842F001020A600421C4F2E1
:100A700001010A6822F0E0620A600A6842EA406006
:100A80000860704740F2241CC2F2000C9CF8000081
:100A9000002800F08E800728C0F08B8010B540F24F
:100AA0001C1EC2F2000E9EF800102C290CD09EF8DD
:100AB0000110122908D0C10734D00EEB000111F843
:100AC000011C5B2902D02DE0C1072BD040F214138A
:100AD000033800214210C2F2000300200EEB410453
:100AE000A4785C5440F0010189B28A421ADD0EEB11
:100AF0004104A4785C5440F0020189B28A4211DDBD
:100B000041F001041EF814405C5440F0030189B226
:100B10008A4207DD0EEB41040430A4785C5481B2B4
:100B20008A42DBDC40F254110020C2F20001CEF810
:100B30000400CEF800008CF8000008680028BDE82A
:100B4000104005D140F21410C2F200004078086055
:100B500040F23C11C2F20001096851B902289ABF63
:100B600014A151F82000472040F2AC11C2F200015C
:100B7000086040F2141040F24811C2F20000C2F2C4
:100B800000010078086040F22511C2F200010979E5
:100B9000012918BF704730B140F20C100121C2F298
:100BA00000000160704740F20C100221C2F2000008
:100BB000016070470000000041000000420000009A
:100BC00070B544F6004504460026C4F2000503E073
:100BD0000136322E08BF70BDA15D284601F008F92C
:100BE0002846402101F06AF80128F9D1F0E7000019
:100BF000FEE700007047000042684EF20011CEF29E
:100C00000001EAB110B54EF60C520723CEF20002F5
:100C1000126890F801E0847890F800C023EA12226C
:100C20000F23D340C2F1040223400EFA02F21A430A
:100C300001EB0C03120183F80023BDE8104000E033
:100C400080310078012300F01F02C0F3421003FA44
:100C500002F241F82020704740F080604EF60C51BF
:100C600040F0FD70CEF200010860704740F2681C51
:100C7000C2F2000C9CF80000002850D0072838BFB2
:100C8000704710B540F2601EC2F2000E9EF80010D0
:100C90002C290CD09EF80110122908D0C10735D09C
:100CA0000EEB000111F8011C5B2902D02EE0C107F8
:100CB0002CD040F25813033800214210C2F2000336
:100CC000002000BF0EEB4104A4785C5440F0010109
:100CD00089B28A421ADD0EEB4104A4785C5440F0DC
:100CE000020189B28A4211DD41F001041EF814406C
:100CF0005C5440F0030189B28A4207DD0EEB4104E7
:100D00000430A4785C5481B28A42DBDC0020CEF847
:100D10000400CEF800008CF80000BDE810407047D9
:100D200041F20401C4F202010A6822F44042104375
:100D30000860704741F21C020029C4F202021168E7
:100D40000CBF21EA000008431060704741F218020E
:100D50000029C4F2020211680CBF21EA0000084316
:100D60001060704741F20C020029C4F202021168BF
:100D70000CBF21EA000008431060704780B541F2C3
:100D8000040EC4F2020EDEF8002002F00C0341F261
:100D90000022C0F27A02082B1FD1DEF80030C3F324
:100DA000834303F1020CDEF8003013F4803F06D1D8
:100DB00040F60012C0F23D020CFB02F20DE0DEF83C
:100DC000003013F4003F02D10CFB02F205E040F6C4
:100DD0000012C0F23D020CFB02F2026045F2CA5161
:100DE000DEF80030C0F60001C3F30313CB5CDA4039
:100DF0004260DEF80030C3F30223CB5C22FA03F337
:100E00008360DEF80030C3F3C223C95C45F2C653E9
:100E1000C0F6000322FA01F1C160DEF80020C2F33F
:100E200081329A5CB1FBF2F1016180BD4EF210019A
:100E30000428CEF200010A6822F0040308BF42F041
:100E400004030B607047000082B041F204000022EE
:100E5000C4F20200CFF6FF0250F8041C41F0010179
:100E600040F8041C016811404FF6FF720160CFF694
:100E7000F66250F8041C114040F8041C50F8041CA1
:100E800021F4802140F8041C016821F4FE01016076
:100E90004FF41F01416000210191009150F8041CA2
:100EA00041F4803140F8041C50F8041C01F4003176
:100EB0000091019901310191009919B90199B1F598
:100EC000A06FF1D150F8041C11F4003F0CBF0021B9
:100ED000012100910099012958D1D0F8FC1F41F05F
:100EE0001001C0F8FC1FD0F8FC1F21F00301C0F86E
:100EF000FC1FD0F8FC1F41F00201C0F8FC1F016884
:100F0000016001680160016841F48061016001686D
:100F100021F47C110160016841F4E811016050F88E
:100F2000041C41F0807140F8041C00BF50F8041C00
:100F300011F0007F0ED150F8041C11F0007F09D190
:100F400050F8041C11F0007F04D150F8041C11F07B
:100F5000007FEBD0016821F003010160016841F0DE
:100F600002010160016801F00C0108290ED001683E
:100F700001F00C01082909D0016801F00C010829D1
:100F800004D0016801F00C010829EBD14EF608509D
:100F90004FF00061CEF20000016002B07047000027
:100FA0002DE9F04F81B04FF08040012100F08EFA22
:100FB00001281CBF01B0BDE8F08F4FF08040012137
:100FC00000F04EFA40F200100022C2F20000016868
:100FD0000529B8BF4A1C026040F20020C2F200009E
:100FE00001683B2902DC0131016003E03C2908BFB4
:100FF000FFF748FDFFF73AFE042001F04FFF40F2F3
:10100000041AC2F2000ACAF80000032001F046FFE9
:1010100040F208180146C2F20008C8F80000DAF8E9
:10102000000002F045FD40F26C1B40F27019DAF846
:101030000000C2F2000BC2F20009DBF80010D9F880
:1010400000200844D8F80010CBF800005518C9F863
:10105000005004F0F7F80026C4F2C346314603F00E
:10106000DFFF46F2AD37C4F2A817394604F06AF93B
:1010700004F0CCF8044640F24010C2F200000460D4
:10108000284604F0DFF8314603F0CAFF394604F081
:1010900059F904F0BBF840F24411C2F200010860B3
:1010A00040F29411C2F200010968052908D12044D8
:1010B000C62805DB40F2BD000121C2F200004171EB
:1010C00040F2A015C2F200052868012840F0978080
:1010D00040F25810C2F200000078643802F03EFB83
:1010E00004F094F840F2B01440F2A412DBF80010BF
:1010F000C2F20004C2F200022060D9F800001268B7
:10110000084402F1960300EBD070B3EB600F2DDDC5
:101110004010A2F19603984228DD40F2F816002311
:101120000027C2F20006306801303060DAF80000B3
:1011300002F0DEFB40F2301140F2A8120023C2F2AE
:101140000002C2F200010860D8F80000D9F80010CF
:10115000126802F0EDFB40F23411C2F200010860A7
:10116000316814292DDB2F6001211FE040F2280592
:10117000DAF80000C2F200052B6802F0B9FB40F279
:10118000301140F2A8122B68C2F20002C2F2000134
:101190000860D8F80000D9F80010126802F0C8FB07
:1011A00040F23411C2F200010860002140F2F8124E
:1011B0000023C2F20002136040F29C12C2F200024D
:1011C000116040F2B00240F23011C2F20002C2F2ED
:1011D0000001126809682AB140F24C12C2F2000202
:1011E000116007E0226840F24C13C2F20003114480
:1011F000801A196040F25011C2F20001086040F2FA
:101200008810C2F200000068012840F0CF8040F250
:10121000A410DBF80050C2F20000046804F11E00C4
:1012200085420FDAA4F11E0085420BDD40F28C10DE
:10123000012122460023C2F200000160DAF800001A
:1012400029462DE040F28C100021DAF80060C2F24D
:101250000000016040F23810C2F20000076840F25E
:101260002800C2F20000006803F02DFD47B149F6E6
:101270009A1249F69913C9F69912C3F6C97307E091
:1012800040F63D2243F67053CAF2D732C3F6DA7302
:1012900003F030FD03F0E8FC0346304629462246C1
:1012A00002F026FB40F2301AD9F80050C2F2000AD0
:1012B000CAF8000040F2A810C2F20000046804F16D
:1012C0001E0085420FDAA4F11E0085420BDD40F2BC
:1012D0008C10012122460023C2F200004160D8F8A0
:1012E000000029462DE040F28C100021D8F8006063
:1012F000C2F20000416040F23810C2F200000768FC
:1013000040F22800C2F20000006803F0DCFC47B1A4
:1013100049F69A1249F69913C9F69912C3F6C97398
:1013200007E040F63D2243F67053CAF2D732C3F6C7
:10133000DA7303F0DFFC03F097FC034630462946DE
:10134000224602F0F5FA40F23411C2F200010860C0
:1013500040F28C11C2F200010A68012A1AD14A68CF
:10136000012A17D140F2F812C2F2000213685F1C82
:10137000102B17600EDB00230127C1E9003340F278
:101380009C111360C2F200010F6040F28811C2F29A
:1013900000010B6040F25011C2F20001086040F2FF
:1013A0004C11DAF80000C2F20001086040F20000BF
:1013B000C2F20000006828B140F24C10C2F20000F6
:1013C00000680AE040F250110020C2F200010860FB
:1013D00040F24C11C2F2000108604EF20C5441F68A
:1013E000F421CFF6FF74224602F0D6FD40F24C15F0
:1013F00040F2501641F6F4212246C2F20005C2F234
:1014000000062860306802F0C7FD01463060286899
:1014100001B0BDE8F04F02F0E5BB000040F2104023
:10142000C4F200000188018821F0010101807047A9
:1014300040F61000C4F200000188018821F001018B
:10144000018070470288002942F0800308BF22F023
:101450008003038070470000C94301827047000089
:10146000C9430182704700000288002942F001034D
:1014700008BF22F00103038070470000B0F8442049
:10148000002913466FF3DF3318BF42F40043A0F87E
:101490004430704780B5B0F808C02CF0070C41EA22
:1014A0000C01B0F818C0B0F820E001814FF6FC4103
:1014B0000CEA010C40F2011141EA0C01018342EAFD
:1014C00003112EF022021143018480BD028A0A40DA
:1014D00018BF01228089084018BF012010407047C2
:1014E00070B50B88042B2AD0002B56D1B1F802C05E
:1014F0000A898B88068C40F6FF354FF6FC74C4F2DF
:10150000000526F0010643EA02130246A8420684BB
:1015100032F8186FB0F820E026F0F30643EA06032D
:101520006DDCB0F1804F7DD040F20045C4F2000583
:10153000A84277D040F60005C4F200056FE00E899E
:101540004B888A88058C40F6FF44360325F0100549
:1015500046EA02260584024632F8185FB0F820E019
:10156000254046EA050C40F6FF356FF00306C4F24D
:101570000005A6F1AD04A84262DCB0F1804F71D045
:1015800040F20045C4F20005A8426BD040F60005C9
:10159000C4F20005A84265D068E00A898C884E88AC
:1015A000058C082B71D125F48073038444EA02135F
:1015B000024632F81C5FB0F820E025F0F30543EA5C
:1015C000050C6FF4405303F5145440F6FF33C4F296
:1015D0000003984200F38180B0F1804F00F08F80CB
:1015E00040F20043C4F20003984200F0888040F6C5
:1015F0000003C4F20003984200F0818084E040F6CA
:101600000045C4F20005A8420CD042F60045C4F2E1
:101610000105A84206D043F20045C4F20105A842E4
:1016200018BF083C03830EEA040343EA0C0343F0AB
:1016300001030384C988038B23F00C03038394E024
:1016400040F60045C4F20005A8420BD043F2004525
:10165000C4F20105A84205D042F60045C4F20105D6
:10166000A84203D14FF6FC741B012D3C0EEA040680
:10167000A0F818C0334343F010030384C988038BD8
:1016800023F44063090203836FE025F480531203BF
:10169000038442EA0423024640F6FF4432F81C5F0A
:1016A000B0F820C0254046F6FF5443EA050E40F648
:1016B000FF33C4F20003984234DCB0F1804F43D0D2
:1016C00040F20043C4F2000398423DD040F60003CC
:1016D000C4F20003984237D039E040F60043C4F228
:1016E000000398420BD043F20043C4F20103984236
:1016F00005D042F60043C4F20103984204D14CF6EF
:10170000FF73360203F534540EEA0403A0F81CC03C
:10171000334343F480730384C988838B23F00C0321
:10172000838322E040F60043C4F2000398420BD0CA
:1017300043F20043C4F20103984205D042F600434D
:10174000C4F20103984202D136034CF6FF740CEA4E
:101750000403A0F81CE0334343F480530384C98896
:10176000838B23F44063090283831088084310802D
:1017700070BD0000002101220160426001817047BC
:10178000002A82890CBF22EA01011143818170473E
:1017900010B5028C22F480720284048CB0F804E04C
:1017A000838B0A8823F0730343EA020C0B8924F429
:1017B000007242EA03224B8842EA032243F20043CA
:1017C000C4F20103984205D042F60043C4F201037B
:1017D000984212D18B892EF4405422F4406244EA9C
:1017E0000313CC8943EA041E4B8940F2FF441B02D9
:1017F000A3431A438B8842EA0322A0F804E0A0F82E
:101800001CC0C9888187028410BD0000828B22F031
:10181000080211438183704710B5028C22F4805274
:101820000284048CB0F804E0828B0B8822F4E64238
:1018300042EA032C0B8924F4005242EA03324B881B
:1018400042EA033343F20042C4F20102904205D05F
:1018500042F60042C4F20102904204D18A892EF479
:10186000804444EA821EA0F804E0A0F81CC0C988A5
:10187000A0F84010038410BD828B22F4006242EA7B
:1018800001218183704700008184704740F6FF3357
:10189000B0F800C0C4F2000398420FDCB0F1804FF2
:1018A0001ED040F20043C4F20003984218D040F624
:1018B0000003C4F20003984212D016E040F6004341
:1018C000C4F2000398420BD043F20043C4F2010378
:1018D000984205D042F60043C4F20103984204D175
:1018E0004B882CF0700243EA020C41F2004240F4B3
:1018F0008063C4F20002934204D0CB882CF440727F
:1019000043EA020CA0F800C08A8882850A88028512
:10191000A0F18042A2F596324FEAB222072A07D8F8
:10192000012303FA02F212F0E50F1CBF097A0186C7
:1019300001218182704700004FF6FF714160002154
:101940000160017270470000B0B544F6004440F2F7
:101950002551C4F20004204600F0B6F998B12046A3
:1019600000F042FA054640F20C20C2F20000016885
:1019700003291BD8DFE801F002081F34E9B22C2943
:1019800014D1012104E048E0E9B212290ED102216C
:10199000016040F2F410C2F2000001784A1C0270AB
:1019A00040F21C10C2F2000045542EE040F2F41147
:1019B000C2F2000126E040F2F412C2F200021378F3
:1019C000591C117040F21C12C2F20002D554EAB246
:1019D0005B2A02D0C9B2092917D30321016014E0A0
:1019E00040F2F41140F21C13C2F20001C2F20003F3
:1019F0000A781A4412F8012C5B2A03D100220260F3
:101A00000A7002E000220A7002602046202100F0E5
:101A10003FF92046202100F03FF940F2FF10C2F2CA
:101A20000000057040F22410C2F200000178312954
:101A300005D840F2F411C2F2000109780170204685
:101A40004FF4587100F03AF9002808BFB0BD2046A5
:101A5000082100F01DF9204600F0C6F9B0BD0000D5
:101A6000B0B543F6000440F22551C4F2010420460B
:101A700000F02AF998B1204600F0B6F9054640F288
:101A80000420C2F20000016803291BD8DFE801F03E
:101A900002081F34E9B22C2914D1012104E048E0E6
:101AA000E9B212290ED10221016040F2F510C2F212
:101AB000000001784A1C027040F26010C2F200007F
:101AC00045542EE040F2F511C2F2000126E040F24A
:101AD000F512C2F200021378591C117040F2601224
:101AE000C2F20002D554EAB25B2A02D0C9B2092977
:101AF00017D30321016014E040F2F51140F26013A6
:101B0000C2F20001C2F200030A781A4412F8012C52
:101B10005B2A03D1002202600A7002E000220A70F0
:101B200002602046202100F0B3F82046202100F07A
:101B3000B3F840F2FF10C2F20000057040F26810E6
:101B4000C2F200000178312905D840F2F511C2F245
:101B500000010978017020464FF4587100F0AEF88A
:101B6000002808BFB0BD2046082100F091F82046AB
:101B700000F03AF9B0BD0000B0B544F6000440F200
:101B80002551C4F20004204600F09EF898B120468A
:101B900000F02AF9054640F20820C2F20000016870
:101BA00003291BD8DFE801F002081F34E9B22C2911
:101BB00014D1012104E048E0E9B212290ED102213A
:101BC000016040F2F610C2F2000001784A1C027077
:101BD00040F2B400C2F2000045542EE040F2F6118B
:101BE000C2F2000126E040F2F612C2F200021378BF
:101BF000591C117040F2B402C2F20002D554EAB28C
:101C00005B2A02D0C9B2092917D30321016014E06D
:101C100040F2F61140F2B403C2F20001C2F2000336
:101C20000A781A4412F8012C5B2A03D100220260C0
:101C30000A7002E000220A7002602046202100F0B3
:101C400027F82046202100F027F840F2FF10C2F2CA
:101C50000000057040F2BC00C2F20000017831299A
:101C600005D840F2F611C2F2000109780170204651
:101C70004FF4587100F022F8002808BFB0BD20468C
:101C8000082100F005F8204600F0AEF8B0BD0000D5
:101C9000C943018070470000090A012202FA01F1DC
:101CA000C9430180704700008289002942F4005333
:101CB00008BF22F400538381704700000088084069
:101CC00018BF01207047000001F01F02012303FA32
:101CD00002F2C1F34213022B06D0012B14BF00F114
:101CE000140300F10C0301E000F110031B88090A42
:101CF0001A404FF0010318BF0122008803FA01F1D6
:101D0000084018BF012010407047000001F01F0C70
:101D1000012303FA0CFCC1F342131421022B08BF68
:101D20001021012B08BF0C21002A42580CBF22EAC7
:101D30000C0242EA0C0242507047000070B586B0B7
:101D40000446008A0D46C98801AE20F4405008437D
:101D50004EF6F3112082A0890840A98808432989FA
:101D6000084369890843A081A08AA98920F44070AA
:101D70000843A0823046FFF701F843F6000106F160
:101D800008000222C4F201018C424FF0190108BF81
:101D900006F10C00042600684843A189A2EBD1316A
:101DA0002A6802FA01F1B0FBF1F048F21F51C5F2C6
:101DB000EB11A0FB01235A096FF0630302FB030040
:101DC000A389A6EBD336B0403230A0FB0101072037
:101DD00040EA133080F0080000EA511040EA021097
:101DE000208106B070BD000080886FF35F207047CF
:101DF0006FF35F2181807047FEE7000070B586B009
:101E000041F218000124C4F20200016841F01101FE
:101E10000160012002F01AF910200121FEF796FF5F
:101E20004820ADF8084002A904900320039041F235
:101E30000000C4F20100FEF75DFC01200121FEF765
:101E400085FF0220002102250026FEF739FC0C2028
:101E5000CDE90246CDE9040402A8FEF701FC4FF4E7
:101E600083708DF80250ADF8000068460194FEF7CB
:101E7000C3FE06B070BD000010B50446000A00F0B5
:101E800063FFE0B2BDE8104000F05EBF2DE9F04313
:101E900081B040F2C81440F2BC12081AC2F2000429
:101EA000C2F200022568D2F80080156003F0CAF97A
:101EB000064603F0ABF9002848BF4042012840F233
:101EC0003C00C2F20000B8BF002601683046266020
:101ED00003F038FA49F69A11C3F6996103F032FA21
:101EE00040F2C01943F233310446C2F20009C3F68E
:101EF0003371D9F8000003F025FA214602F0F8FF0B
:101F00004CF200040746C9F80000C4F2DA54214636
:101F100003F05EF840B94CF200043846CCF2DA54D3
:101F2000214603F05CF810B92746C9F8004040F29A
:101F30009C102946C2F2000000680128304604BF08
:101F40000027C9F8007003F0C9FA014640F24400C6
:101F5000C2F20000006803F0F5F90146384602F0CD
:101F6000C7FF04462846294602F0C2FF0146304614
:101F700003F0B4FA414602F0BBFF014640F23400E0
:101F8000C2F20000006803F0DDF90146204602F0CD
:101F9000AFFF40F2C4140146C2F20004206802F010
:101FA000A7FF206003F032F901B0BDE8F083000024
:101FB0002DE9F04381B040F2D81440F2CC12081A57
:101FC000C2F20004C2F200022568D2F80080156057
:101FD00003F038F9064603F019F9002848BF4042DB
:101FE000012840F24000C2F20000B8BF002601689C
:101FF0003046266003F0A6F94CF6CD41C3F64C619D
:1020000003F0A0F940F2D0194CF6CD410446C2F2DB
:102010000009C3F64C71D9F8000003F093F921468A
:1020200002F066FF4CF200040746C9F80000C4F253
:10203000DA54214602F0CCFF40B94CF20004384695
:10204000CCF2DA54214602F0CAFF10B92746C9F88B
:10205000004040F29C102946C2F2000000680128AE
:10206000304604BF0027C9F8007003F037FA014674
:1020700040F24800C2F20000006803F063F9014634
:10208000384602F035FF04462846294602F030FF64
:102090000146304603F022FA414602F029FF01468C
:1020A00040F23800C2F20000006803F04BF901462C
:1020B000204602F01DFF40F2D4140146C2F2000493
:1020C000206802F015FF206003F0A0F801B0BDE821
:1020D000F083000010B586B0012001210124FEF735
:1020E00029FE40F2671003A9039040F2E730049004
:1020F0004FF08040FFF7CAFB4FF080400121FFF70F
:10210000AFF94FF0804001210122FFF739FB4FF476
:10211000A060FEF7A1FD00208DF806001C20ADF8A0
:10212000040001A80294FEF767FD4FF080400121F2
:10213000FFF79AF906B010BD2DE9F04F8FB046F6C3
:102140004C70002400215F221F23C5F272200D94E1
:102150000C9040F24810C2F200000588502001F0B7
:10216000B5FA4CF6CD4045F6DA390026CCF6CC402F
:10217000C0F60009A5FB0001C80800EB8000A5EB34
:10218000400040F0100009EB801500BF2F5D17F0F4
:10219000010F0CBF4FF6FF7047F60F00FFF76CFE04
:1021A000701C000750D0B80754BF4FF6FF7047F6B9
:1021B0000F00FFF761FEB01C000745D0780754BF41
:1021C0004FF6FF7047F60F00FFF756FEF01C0007B2
:1021D0003AD0380754BF4FF6FF7047F60F00FFF7AD
:1021E0004BFE301D00072FD0F80654BF4FF6FF708E
:1021F00047F60F00FFF740FE701D000724D0B80619
:1022000054BF4FF6FF7047F60F00FFF735FEB01DC5
:10221000000719D0780654BF4FF6FF7047F60F003D
:10222000FFF72AFEF01D00070ED0380654BF4FF608
:10223000FF7047F60F00FFF71FFE06F1080010F0D1
:102240000F0618BF064600E000260134402C9DD141
:102250004FF0000B4C240DF1300A00BF4BF00F0182
:102260001FFA8BF01F2300278AB2002101F02EFAFB
:10227000A4F120000025C0B209EB8016F45D14F033
:10228000010F0CBF4FF6FF704FF47840FFF7F4FDDD
:10229000681C000750D0A00754BF4FF6FF704FF4E2
:1022A0007840FFF7E9FDA81C000745D0600754BF40
:1022B0004FF6FF704FF47840FFF7DEFDE81C000793
:1022C0003AD0200754BF4FF6FF704FF47840FFF725
:1022D000D3FD281D00072FD0E00654BF4FF6FF7036
:1022E0004FF47840FFF7C8FD681D000724D0A00612
:1022F00054BF4FF6FF704FF47840FFF7BDFDA81DA7
:10230000000719D0600654BF4FF6FF704FF47840B5
:10231000FFF7B2FDE81D00070ED0200654BF4FF6B0
:10232000FF704FF47840FFF7A7FD05F1080010F0AB
:102330000F0518BF054600E000250137402F9DD14D
:102340001AF8014F0BF1100B002C7FF487AF47F206
:102350004E501E2157222D23C0F26D000B9040F2EB
:102360005410C2F200000488502001F0AFF94CF67E
:10237000CD4045F2DA5A0025CCF6CC40C0F6000A32
:10238000A4FB0001C80800EB8000A4EB400040F073
:1023900010000AEB001400BF665D16F0010F0CBFC1
:1023A0004FF6FF7047F60F00FFF766FDB00754BF0A
:1023B0004FF6FF7047F60F00FFF75EFD700754BF42
:1023C0004FF6FF7047F60F00FFF756FD300754BF7A
:1023D0004FF6FF7047F60F00FFF74EFDF00654BFB3
:1023E0004FF6FF7047F60F00FFF746FDB00654BFEB
:1023F0004FF6FF7047F60F00FFF73EFD700654BF23
:102400004FF6FF7047F60F00FFF736FD300654BF5A
:102410004FF6FF7047F60F00FFF72EFD0135102D28
:10242000BAD100244E250DF12C0800BF44F007015D
:10243000A0B230238AB2212101F048F9A5F1200091
:102440000027C0B20AEB0015EE5D16F0010F0CBFBD
:102450004FF6FF704FF47840FFF70EFDB00754BF02
:102460004FF6FF704FF47840FFF706FD700754BF3A
:102470004FF6FF704FF47840FFF7FEFC300754BF73
:102480004FF6FF704FF47840FFF7F6FCF00654BFAC
:102490004FF6FF704FF47840FFF7EEFCB00654BFE4
:1024A0004FF6FF704FF47840FFF7E6FC700654BF1C
:1024B0004FF6FF704FF47840FFF7DEFC300654BF54
:1024C0004FF6FF704FF47840FFF7D6FC0137102F1E
:1024D000BAD118F8015F0834002DA7D144F24C108E
:1024E000002446250DF12008C0F24700099044F26F
:1024F0004610C4F25260089044F00701A0B2412394
:102500008AB2322101F0E2F8A5F120000027C0B222
:102510000AEB0015EE5D16F0010F0CBF4FF6FF70D1
:102520004FF47840FFF7A8FCB00754BF4FF6FF7098
:102530004FF47840FFF7A0FC700754BF4FF6FF70D0
:102540004FF47840FFF798FC300754BF4FF6FF7008
:102550004FF47840FFF790FCF00654BF4FF6FF7041
:102560004FF47840FFF788FCB00654BF4FF6FF7079
:102570004FF47840FFF780FC700654BF4FF6FF70B1
:102580004FF47840FFF778FC300654BF4FF6FF70E9
:102590004FF47840FFF770FC0137102FBAD118F8CC
:1025A000015F0834002DA7D140F20C1032215722D0
:1025B0004123C2F200000488502001F087F84CF655
:1025C000CD400025CCF6CC40A4FB0001C80800EBB0
:1025D0008000A4EB400040F010000AEB001400BFA4
:1025E000665D16F0010F0CBF4FF6FF7047F60F0047
:1025F000FFF742FCB00754BF4FF6FF7047F60F00DD
:10260000FFF73AFC700754BF4FF6FF7047F60F0014
:10261000FFF732FC300754BF4FF6FF7047F60F004C
:10262000FFF72AFCF00654BF4FF6FF7047F60F0085
:10263000FFF722FCB00654BF4FF6FF7047F60F00BD
:10264000FFF71AFC700654BF4FF6FF7047F60F00F5
:10265000FFF712FC300654BF4FF6FF7047F60F002D
:10266000FFF70AFC0135102DBAD140F2AC109621CB
:102670004B22B523C2F2000004683C2001F026F88A
:1026800004F1E00000260027C0B209EB801400BF6F
:10269000A55D15F0010F0CBF4FF6FF704FF47840A9
:1026A000FFF7EAFB781C000750D0A80754BF4FF68D
:1026B000FF704FF47840FFF7DFFBB81C000745D0F0
:1026C000680754BF4FF6FF704FF47840FFF7D4FB14
:1026D000F81C00073AD0280754BF4FF6FF704FF49C
:1026E0007840FFF7C9FB381D00072FD0E80654BF1C
:1026F0004FF6FF704FF47840FFF7BEFB781D0007E0
:1027000024D0A80654BF4FF6FF704FF47840FFF76F
:10271000B3FBB81D000719D0680654BF4FF6FF7011
:102720004FF47840FFF7A8FBF81D00070ED02806ED
:1027300054BF4FF6FF704FF47840FFF79DFB07F151
:10274000080010F00F0718BF074600E00027013609
:10275000402E9DD144F64C7000244C250DF11808F4
:10276000C4F241400794069044F00701A0B25F23F1
:102770008AB2502100F0AAFFA5F120000027C0B2C4
:102780000AEB0015EE5D16F0010F0CBF4FF6FF705F
:102790004FF47840FFF770FBB00754BF4FF6FF705F
:1027A0004FF47840FFF768FB700754BF4FF6FF7097
:1027B0004FF47840FFF760FB300754BF4FF6FF70CF
:1027C0004FF47840FFF758FBF00654BF4FF6FF7008
:1027D0004FF47840FFF750FBB00654BF4FF6FF7040
:1027E0004FF47840FFF748FB700654BF4FF6FF7078
:1027F0004FF47840FFF740FB300654BF4FF6FF70B0
:102800004FF47840FFF738FB0137102FBAD118F892
:10281000015F0834002DA7D140F23C1050212F2237
:102820005F23C2F200000488282000F04FFF4CF61E
:10283000CD400025CCF6CC40A4FB0001C80800EB3D
:102840008000A4EB400040F010000AEB001400BF31
:10285000665D16F0010F0CBF4FF6FF7047F60F00D4
:10286000FFF70AFBB00754BF4FF6FF7047F60F00A3
:10287000FFF702FB700754BF4FF6FF7047F60F00DB
:10288000FFF7FAFA300754BF4FF6FF7047F60F0014
:10289000FFF7F2FAF00654BF4FF6FF7047F60F004D
:1028A000FFF7EAFAB00654BF4FF6FF7047F60F0085
:1028B000FFF7E2FA700654BF4FF6FF7047F60F00BD
:1028C000FFF7DAFA300654BF4FF6FF7047F60F00F5
:1028D000FFF7D2FA0135102DBAD147F26F0000246C
:1028E0006F250DF11008C6F665600594049000BFD1
:1028F00044F00701A0B273238AB2642100F0E6FE1F
:10290000A5F120000027C0B20AEB0015EE5D16F01D
:10291000010F0CBF4FF6FF704FF47840FFF7ACFA91
:10292000B00754BF4FF6FF704FF47840FFF7A4FA9A
:10293000700754BF4FF6FF704FF47840FFF79CFAD2
:10294000300754BF4FF6FF704FF47840FFF794FA0A
:10295000F00654BF4FF6FF704FF47840FFF78CFA43
:10296000B00654BF4FF6FF704FF47840FFF784FA7B
:10297000700654BF4FF6FF704FF47840FFF77CFAB3
:10298000300654BF4FF6FF704FF47840FFF774FAEB
:102990000137102FBAD118F8015F0834002DA7D1E4
:1029A00040F25810002742F210744FF00009C2F2B2
:1029B00000000078019055E02F206421732300EB84
:1029C000C70082B2781DC00080B200F07FFE0025F3
:1029D0001AF8056016F0010F0CBF4FF6FF7047F6AE
:1029E0000F00FFF749FAB00754BF4FF6FF7047F6E4
:1029F0000F00FFF741FA700754BF4FF6FF7047F61C
:102A00000F00FFF739FA300754BF4FF6FF7047F653
:102A10000F00FFF731FAF00654BF4FF6FF7047F68C
:102A20000F00FFF729FAB00654BF4FF6FF7047F6C4
:102A30000F00FFF721FA700654BF4FF6FF7047F6FC
:102A40000F00FFF719FA300654BF4FF6FF7047F634
:102A50000F00FFF711FA0135102DB9D14FF0000921
:102A6000A5E000BFF8B2022802D1012026E000BF95
:102A7000C7F10102C7F10200D2B200F00301032A3C
:102A800002D2012041B919E0421A0120043A604300
:102A900012F0FF0FFAD189B1012903D100EB8000B8
:102AA00040000BE04FF47A7202294FF0640100FB02
:102AB00002F208BF00FB01F2104600BF0199012F8E
:102AC000B1FBF0F04CF6CD41CCF6CC41A0FB0112AD
:102AD0004FEAD20101EB8101A0EB410507D85FEA83
:102AE000096004D1002D3FF467AF4FF001092F209A
:102AF0006421732300EBC70082B2781DC00080B24E
:102B000000F0E4FD45F010004FF000080AEB00155E
:102B100015F808B01BF0010F0CBF4FF6FF7047F619
:102B20000F00FFF7A9F95FEA8B7054BF4FF6FF70F3
:102B300047F60F00FFF7A0F95FEA4B7054BF4FF65E
:102B4000FF7047F60F00FFF797F95FEA0B7054BF6D
:102B50004FF6FF7047F60F00FFF78EF95FEACB6084
:102B600054BF4FF6FF7047F60F00FFF785F95FEA95
:102B70008B6054BF4FF6FF7047F60F00FFF77CF9EC
:102B80005FEA4B6054BF4FF6FF7047F60F00FFF748
:102B900073F95FEA0B6054BF4FF6FF7047F60F0002
:102BA000FFF76AF908F10108B8F1100FB0D1013749
:102BB000032F7FF457AF46F66240002462250DF1E3
:102BC0000808C6F275500394029000BF44F0070154
:102BD000A0B287238AB2782100F078FDA5F1200009
:102BE0000027C0B20AEB0015EE5D16F0010F0CBF16
:102BF0004FF6FF704FF47840FFF73EF9B00754BF2F
:102C00004FF6FF704FF47840FFF736F9700754BF66
:102C10004FF6FF704FF47840FFF72EF9300754BF9E
:102C20004FF6FF704FF47840FFF726F9F00654BFD7
:102C30004FF6FF704FF47840FFF71EF9B00654BF0F
:102C40004FF6FF704FF47840FFF716F9700654BF47
:102C50004FF6FF704FF47840FFF70EF9300654BF7F
:102C60004FF6FF704FF47840FFF706F90137102F49
:102C7000BAD118F8015F0834002DA7D140F2B40092
:102C800078212F228723C2F200008478282000F0C8
:102C90001DFD4CF6CD400025CCF6CC40A4FB000138
:102CA000C80800EB8000A4EB400040F010000AEBE5
:102CB000001400BF665D16F0010F0CBF4FF6FF70E9
:102CC00047F60F00FFF7D8F8B00754BF4FF6FF7074
:102CD00047F60F00FFF7D0F8700754BF4FF6FF70AC
:102CE00047F60F00FFF7C8F8300754BF4FF6FF70E4
:102CF00047F60F00FFF7C0F8F00654BF4FF6FF701D
:102D000047F60F00FFF7B8F8B00654BF4FF6FF7054
:102D100047F60F00FFF7B0F8700654BF4FF6FF708C
:102D200047F60F00FFF7A8F8300654BF4FF6FF70C4
:102D300047F60F00FFF7A0F80135102D04BF0FB0C4
:102D4000BDE8F08FB6E70000B0B541F600040546D7
:102D50000221C4F201042046FDF77AFE2046082134
:102D6000FDF776FE68B2B0F1FF3F04DD204620217A
:102D7000FDF76EFE03E020462021FDF76BFE2046A6
:102D80000821FDF767FE20460821FDF761FE680671
:102D900004D420462021FDF75BFE03E020462021DD
:102DA000FDF758FE20460821FDF754FE2046082175
:102DB000FDF74EFEA80604D420462021FDF748FE6C
:102DC00003E020462021FDF745FE20460821FDF7BF
:102DD00041FE20460821FDF73BFEE80604D42046CC
:102DE0002021FDF735FE03E020462021FDF732FECD
:102DF00020460821FDF72EFE20460821FDF728FE7B
:102E0000280704D420462021FDF722FE03E02046B7
:102E10002021FDF71FFE20460821FDF71BFE20465E
:102E20000821FDF715FE680704D420462021FDF790
:102E30000FFE03E020462021FDF70CFE204608216E
:102E4000FDF708FE20460821FDF702FEA80704D47E
:102E500020462021FDF7FCFD03E020462021FDF760
:102E6000F9FD20460821FDF7F5FD20460821FDF774
:102E7000EFFDE80704D120462021FDF7E9FD03E03E
:102E800020462021FDF7E6FD20460821FDF7E2FD62
:102E900020460221BDE8B040FDF7DCBD014640F20E
:102EA00024420020C4F20002032904D0042918BFE0
:102EB000704702F58062B2F9001010800846704732
:102EC00070B58AB04FF4047001210125FDF73EFF73
:102ED0004FF40040FDF724FF42F200440026022098
:102EE00001A9C4F201040396ADF80400A4F5A050B2
:102EF000FDF700FC2046FDF7CBF94FF46020CDE94B
:102F00000466069604A9CDE9070620468DF82450EC
:102F1000FDF7F6F920460121FDF7B0F92046FDF74F
:102F200019FA00BF2046FDF7E7F90028FAD120463C
:102F3000FDF716FA2046FDF7DBF90028FAD10AB0B2
:102F400070BD000010B500F05BFA41F600041021DE
:102F5000C4F201042046FDF77BFD642001F048F82F
:102F600020461021FDF776FD642001F041F820464F
:102F70004021FDF76FFD642001F03AF8204604215E
:102F8000FDF766FD1120FFF7DFFE20460421FDF767
:102F900061FD782001F02CF820460421FDF758FD52
:102FA0003620FFF7D1FE20460421FDF753FD002017
:102FB000FFF7CAFE20460421FDF74AFD3A20FFF73D
:102FC000C3FE20460421FDF745FD0520FFF7BCFEAA
:102FD00020460421FDF73CFDB220FFF7B5FE204658
:102FE0000421FDF737FD0C20FFF7AEFE0C20FFF7A4
:102FF000ABFE0020FFF7A8FE3320FFF7A5FE33202D
:10300000FFF7A2FE20460421FDF722FDB720FFF7BF
:103010009BFE20460421FDF71DFD3520FFF794FEA1
:1030200020460421FDF714FDBB20FFF78DFE20464E
:103030000421FDF70FFD3220FFF786FE2046042114
:10304000FDF706FDC220FFF77FFE20460421FDF7B5
:1030500001FD0120FFF778FE20460421FDF7F8FC72
:10306000C320FFF771FE20460421FDF7F3FC152075
:10307000FFF76AFE20460421FDF7EAFCC420FFF7B3
:1030800063FE20460421FDF7E5FC2020FFF75CFEEF
:1030900020460421FDF7DCFCC620FFF755FE204644
:1030A0000421FDF7D7FC0F20FFF74EFE2046042138
:1030B000FDF7CEFCD020FFF747FE20460421FDF7A8
:1030C000C9FCA420FFF740FEA120FFF73DFE2046EB
:1030D0000421FDF7BDFCE020FFF736FE2046042169
:1030E000FDF7B8FCD020FFF72FFE0820FFF72CFEDD
:1030F0000E20FFF729FE0920FFF726FE0920FFF723
:1031000023FE0520FFF720FE3120FFF71DFE3320B0
:10311000FFF71AFE4820FFF717FE1720FFF714FEEF
:103120001420FFF711FE1520FFF70EFE3120FFF7E8
:103130000BFE3420FFF708FE20460421FDF788FC33
:10314000E120FFF701FE20460421FDF783FCD0209B
:10315000FFF7FAFD0820FFF7F7FD0E20FFF7F4FD5B
:103160000920FFF7F1FD0920FFF7EEFD1520FFF71D
:10317000EBFD3120FFF7E8FD3320FFF7E5FD4820A8
:10318000FFF7E2FD1720FFF7DFFD1420FFF7DCFD5E
:103190001520FFF7D9FD3120FFF7D6FD3420FFF7CA
:1031A000D3FD20460421FDF753FC2120FFF7CCFD81
:1031B00020460421FDF74EFC20460421FDF748FC83
:1031C0002920FFF7C1FD20460421BDE81040FDF78E
:1031D00041BC00002DE9F04F83B041F218080127EF
:1031E000C4F20208D8F8000040F04500C8F800001A
:1031F000012000F02BFF40200121FDF7A7FD40F644
:1032000000066C464FF0100B4FF0030AC4F20106A3
:103210002146CDF808B0ADF80070CDF804A006F551
:1032200080552846FDF766FA28462021FDF712FC56
:1032300040F280100121C4F2232007600820FDF72E
:1032400085FD4FF4007006F58065CDF808B0214685
:10325000ADF800002846CDF804A0FDF74BFA28464B
:103260004FF40071FDF7F6FB48F2A0174FF000098C
:1032700008200121C4F22127C7F80490FDF766FD5C
:103280004FF48070CDF808B02146ADF80000284614
:10329000CDF804A0FDF72EFA28464FF48071FDF713
:1032A000D9FBC7F80090306820F00100306030682A
:1032B00020F002003060306840F003003060306879
:1032C00020F010003060306820F02000306030685E
:1032D00040F030003060306820F48070306030683A
:1032E00020F400703060306840F440703060306826
:1032F00020F480503060306820F400503060306836
:1033000040F440503060306820F004003060306895
:1033100020F008003060306840F00C003060306809
:1033200020F040003060306820F08000306030686D
:1033300040F0C0003060306820F480603060306859
:1033400020F400603060306840F4406030603068E5
:1033500020F480403060306820F4004030603068F5
:1033600040F400403060D8F8040040F00800C8F88D
:103370000400012000F06AFE40F228400921CFF647
:10338000FF70315240F22C4042F21071CFF6FF70C4
:10339000315240F2184047F66801CFF6FF703152C3
:1033A00040F21C4047F67801CFF6FF70315240F2F0
:1033B000404040F23C41CFF6FF70CFF6FF7126F857
:1033C0000090305A7052705A40F23841CFF6FF7177
:1033D0007052705A40F23441CFF6FF71705240F291
:1033E000204041F21111CFF6FF70315240F20040FF
:1033F0008121CFF6FF70315203B0BDE8F08F00009D
:1034000070B584B040200121FDF7A0FC41F6000416
:103410001026022001AD0396ADF804000320C4F28B
:103420000104294602902046FDF764F92046022156
:10343000FDF710FB28202946ADF804002046FDF7D3
:1034400059F920462821FDF705FB44202946ADF80F
:1034500004002046FDF74EF9204648F22001FDF712
:10346000F9FA20462946ADF80460FDF743F92046F5
:103470001021FDF7EFFA04B070BD0000F0B581B087
:10348000081A01F0DFFE40F2DC170446C2F2000722
:103490002146386801F02CFD05463860204601F0D1
:1034A000B5FE00284CF2000648BF4042C4F2DA568E
:1034B000012828463146B8BF002401F089FD40B9F3
:1034C0004CF200062846CCF2DA56314601F087FD70
:1034D00008B935463E6040F29C102146C2F2000019
:1034E0000068012840F2E01004BF00253D60C2F2F0
:1034F00000000668046040F22000C2F2000000688C
:1035000001F020FF074640F218002946C2F20000F1
:10351000006801F017FF0146384601F0E9FC054656
:103520002046314601F0DAFF014640F21000C2F2B7
:103530000000006801F006FF0146284601F0D8FCB3
:1035400001F064FE01B0F0BDF0B581B0081A01F0E1
:1035500079FE40F2E4170446C2F2000721463868BB
:1035600001F0C6FC4CF200050646C4F2DA552946C5
:1035700001F02EFD68B94CF200013046CCF2DA5170
:1035800001F02DFD0028354604BF4CF20005CCF2B9
:10359000DA5540F2E8102146C2F2000006680460E5
:1035A00040F29C10C2F200000068012840F22400A2
:1035B000C2F2000008BF002500683D6001F0C2FEB5
:1035C000074640F21C00C2F200000168284601F0E4
:1035D000B9FE0146384601F08BFC054620463146CF
:1035E00001F07CFF014640F21400C2F200000068C6
:1035F00001F0A8FE0146284601F07AFC01F006FE23
:1036000001B0F0BDB0B58AB0202001210124FDF742
:103610009DFB01200121FDF799FB03204FF480451C
:1036200007A908900420ADF81C50099041F2004011
:10363000C4F20100FDF75EF803200E21FDF740F80B
:103640000020CDE903501020CDE9050403A8FDF7C3
:1036500007F84FF494700294ADF8040001A88DF8B7
:103660000640FDF7C9FA0AB0B0BD0000B0B584B09D
:1036700070200121FDF76AFB102041F6000401AD26
:1036800003904FF44160C4F201042946ADF80400F0
:1036900003200290A4F58060FDF72CF84FF48050D1
:1036A0002946ADF80400A4F50060FDF723F84FF4B7
:1036B00080602946ADF804002046FDF71BF820463F
:1036C0004FF48061FDF7C6F904B0B0BD2DE9F041BB
:1036D00041F600040E460546042198461746C4F2FA
:1036E00001042046FDF7B4F92A20FFF72DFB204600
:1036F0000421FDF7AFF9280AFFF726FBE8B2FFF730
:1037000023FB380AFFF720FBF8B2FFF71DFB20462A
:103710000421FDF79DF92B20FFF716FB204604211D
:10372000FDF798F9300AFFF70FFBF0B2FFF70CFB3B
:103730004FEA1820FFF708FB5FFA88F0FFF704FB59
:1037400020460421FDF784F92C20FFF7FDFA2046DE
:103750000421BDE8F041FDF77DB90000F0B581B06E
:1037600001F070FD40F2F0170446C2F20007214656
:10377000386801F0B3FE0646386040F29C104CF207
:103780000005C2F20000C4F2DA550068294601289B
:1037900008BF0026304601F01BFC84F0004468B9E5
:1037A0004CF200013046CCF2DA5101F018FC00284E
:1037B000354604BF4CF20005CCF2DA5540F2EC106D
:1037C00021463D60C2F200000668046040F20C0031
:1037D000C2F20000006801F0B5FD074640F20800A3
:1037E000C2F200000168284601F0ACFD01463846EF
:1037F00001F07EFB05462046314601F06FFE014692
:1038000040F20400C2F20000006801F09BFD014696
:10381000284601F06DFB01B0F0BD0000F0B58BB0A3
:1038200041F21800C4F20200016841F40061016035
:10383000012000F00BFC42F63C4601200027C4F2B8
:1038400001063780B78000F001FCC0200121C0F2E2
:103850001600FDF7BFF84FF400600121FDF776FA7E
:1038600041200121FDF772FA032042F6004408A925
:1038700009901820C4F201040A904FF4C040ADF83A
:103880002000A4F5A050FCF735FF41F61F4005A924
:10389000CDE905702046FDF7F9FF702001ADC0F2BB
:1038A0000100294601902046CDF80A70FDF770FF0F
:1038B00020460821FDF7AAFF60202946ADF8040044
:1038C0002046FDF7A9FF20460821FDF7D5FF204639
:1038D0000121FDF7D3FD20460121FDF7B3FD204670
:1038E0000121FDF7C1FD3780B7800BB0F0BD0000AE
:1038F000B0B50546084611461C46FFF7BFFD6142BC
:103900008842A8BF0146A0422846C8BF2146FEF70C
:10391000BDFA4EF2D451CFF6FF718842C8BF0146BE
:1039200041F62C208142A8BF01460846B0BD0000E8
:10393000B0B50546084611461C46FFF705FE614234
:103940008842A8BF0146A0422846C8BF2146FEF7CC
:103950002FFB4EF2D451CFF6FF718842C8BF01460B
:1039600041F62C208142A8BF01460846B0BD0000A8
:10397000B0B58AB002200121FDF7DCF91020012149
:10398000FDF7E4F940F600400121C0F21A00FDF70E
:1039900021F840F20044042001A90390C020C4F2A1
:1039A0000004ADF8040004F58630FCF7A3FE07AD73
:1039B0002846FDF7C1FF4FF6FF702946089000200A
:1039C00007902046FDF762FF2046032100220023D6
:1039D000FDF760FD04AD2846FDF7CCFE0A20294620
:1039E000ADF818002046FDF77BFD20460121FDF7CC
:1039F00033FD204601210122FDF7C2FE20460021B1
:103A0000FDF742FF20460121FDF72EFD0AB0B0BDB3
:103A1000B0B58AB0042001210424FDF78BF92020E1
:103A20000121FDF793F94FF480500121FCF7D2FFFB
:103A3000039440F600044FF4405001A9C4F200047E
:103A4000ADF8040004F58630FCF754FE07AD2846B7
:103A5000FDF772FF4FF6FF7029460890002007908F
:103A60002046FDF713FF2046032100220023FDF727
:103A700011FD04AD2846FDF77DFE0A202946ADF86C
:103A800018002046FDF72CFD20460121FDF7E4FC3F
:103A9000204601210122FDF773FE20460021FDF79B
:103AA000F3FE20460121FDF7DFFC0AB0B0BD0000A7
:103AB0002DE9F0470446084601F005F940F20008F8
:103AC0000022C4F24908434601F014F940F200090B
:103AD0000022C3F6D0794B4601F00CF940F2000AFF
:103AE0000022C4F22A0A534600F066FF0025002295
:103AF000C4F23E052B4600F05FFF4DF6D36644F658
:103B00009377C0F6E036C4F26A0732463B4601F0CE
:103B1000F1F800F01FFF40F2B811C2F20001086096
:103B2000204601F0D0F80022434601F0E3F80022DD
:103B30004B4601F0DFF80022534600F03DFF002223
:103B40002B4600F039FF32463B4601F0D3F800F037
:103B500001FF40F2B411C2F200010860BDE8F08735
:103B600080B540F29C1100220123C2F200010A60DC
:103B700040F2A011C2F200010B6040F28811C2F2C3
:103B800000010A6040F24011C2F200010A6040F2F6
:103B90004411C2F200010A6040F26C11C2F200014D
:103BA0000A6040F27011C2F200010A6001F04AFBA3
:103BB0004CF20001C4F2736101F0C4FB47F6984176
:103BC000C4F2523101F02CFA01F020FB40F2A411B2
:103BD000C2F20001086040F2A811C2F200010860C0
:103BE00080BD000048F290120128C4F2222203DBBB
:103BF0000123D361002305E000230028D36103469D
:103C000018BF01230129936103DB01231360002204
:103C100005E00023002913600A4618BF012240F284
:103C2000B0130029C4F222231A6042F63C4248BF76
:103C300049420028C4F20102918048BF40421080EE
:103C40007047000040F29C11002201230428C2F2B8
:103C500000010A6040F2A011C2F200010A6040F2C5
:103C60008811C2F200010B6040F24011C2F2000163
:103C70000A6040F24411C2F200010A6040F26C1185
:103C8000C2F200010A6040F27011C2F200010A6043
:103C900088BF704708A140F2A81251F82010C2F264
:103CA0000002116009A151F8200040F2A411C2F2F3
:103CB00000010860704700BF620300009EFCFFFF28
:103CC000C40600008C00000074FFFFFF9EFCFFFF95
:103CD000620300003CF9FFFF74FFFFFF8C0000004F
:103CE0002DE9F04381B08146501E154698460E4698
:103CF00082B2581E83B24846FFF7E8FC464510D210
:103D0000089C00BFA94508D24F4600BF2046FEF7D9
:103D1000B3F80137B8B2A842F8D30136B0B2404583
:103D2000F0D301B0BDE8F08310B540F2F400C2F268
:103D300000000068A0B340F20410C2F20000006866
:103D400001F080FA0121FCF7B7FB40F2A410C2F2A7
:103D50000000006801F076FA0221FCF7ADFB40F2AA
:103D60000810C2F20000006801F06CFA0321FCF7B1
:103D7000A3FB40F2A810C2F20000006801F062FA52
:103D80000421FCF799FB40F24C1048F21F51C2F29B
:103D90000000C5F2EB11006880FB0101481135E01D
:103DA00040F2F800C2F200000068B0B340F2041024
:103DB000C2F20000006801F045FA0121FCF77CFB2B
:103DC00040F23004C2F20004206801F03BFA022104
:103DD000FCF772FB40F20810C2F20000006801F02C
:103DE00031FA0321FCF768FB206801F02BFA04216B
:103DF000FCF762FB40F24C1044F6D351C2F20000D3
:103E0000C1F26201006880FB0101881100EBD170F2
:103E100001F018FA0521FCF74FFB0520FCF700FB29
:103E2000002800F08A8043F60001421E00F0030CD7
:103E3000C4F20101032A04D20020BCF1000F63D1B7
:103E40007BE040F2C50EA0EB0C030020C2F2000E96
:103E50000A8812F0400F0BD10A8812F0400F07D1E8
:103E60000A8812F0400F03D10A8812F0400FEFD0F9
:103E70001EF800208A8040F0010200BF0C8814F078
:103E8000400F0BD10C8814F0400F07D10C8814F0B0
:103E9000400F03D10C8814F0400FEFD01EF8022021
:103EA0008A8040F0020200BF0C8814F0400F0BD152
:103EB0000C8814F0400F07D10C8814F0400F03D188
:103EC0000C8814F0400FEFD01EF802208A8040F0DA
:103ED000030200BF0C8814F0400F0BD10C8814F0C3
:103EE000400F07D10C8814F0400F03D10C8814F058
:103EF000400FEFD01EF80220043B00F104008A803E
:103F0000A6D1BCF1000F18D00A8812F0400F0BD1D7
:103F10000A8812F0400F07D10A8812F0400F03D12F
:103F20000A8812F0400FEFD040F2C502BCF1010F39
:103F3000C2F20002135C8B8000D110BD431C00BF95
:103F40000C8814F0400F0BD10C8814F0400F07D1EF
:103F50000C8814F0400F03D10C8814F0400FEFD000
:103F6000D35CBCF1020F8B8008BF10BD023000BFD4
:103F70000B8813F0400F0BD10B8813F0400F07D1C3
:103F80000B8813F0400F03D10B8813F0400FEFD0D4
:103F9000105C888010BD00008842C4BF084670478E
:103FA0009042B8BF104670477047000080B56FF070
:103FB0000400FCF73BFF40F22C004DF6836140F219
:103FC000FE12C2F20000C4F21B31C2F2000200680D
:103FD000A0FB0101480D1070C1F347504FF47A71F6
:103FE000484340F2FC11C2F20001088080BD00008D
:103FF00040F2FC11C2F20001098841434EF2100068
:10400000CEF20000416000218160016841F00101B1
:10401000016000BF016801F0011101290ED10168A2
:1040200001F00111012909D1016801F001110129F3
:1040300004D1016801F001110129EBD0016821F0E0
:1040400001010160002181607047000040F2FE1113
:10405000C2F20001097841434EF21000CEF2000096
:10406000416000218160016841F00101016000BFF1
:10407000016801F0011101290ED1016801F001115F
:10408000012909D1016801F00111012904D1016858
:1040900001F001110129EBD0016821F0010101605B
:1040A000002181607047000080B582B04FF4E1309C
:1040B00000F026F84FF4E13000F06EF84FF4E130F4
:1040C00000F0C0F8FFF786F8FFF79CFAFEF73AFF1A
:1040D000FDF794FE4FF6FF700021F022F0230090D0
:1040E0000020FFF7FDFDFFF7C1FAFFF797FBFFF791
:1040F0003FFCFFF78DFC02B0BDE88040FEF7E0BE5C
:104100002DE9F0418AB0054644F2040001214FF048
:104110000108FCF71BFE43F60004032007AF0890DC
:104120004FF40070C4F201043946ADF81C001820A9
:10413000A4F5405609903046FCF7DCFA04203946D5
:1041400009904FF48060ADF81C003046FCF7D2FABD
:1041500002208DF806002520ADF8040001A8CDF856
:104160000880FCF749FD0020039503A90490ADF8F1
:1041700018004FF4402005902046FDF7DFFD204653
:1041800040F225510122FDF7C1FD20460121FDF736
:104190008BFD0AB0BDE8F0812DE9F0418AB00446FC
:1041A0004FF4802001214FF00108FCF7C3FD2020CF
:1041B0000121FCF7CBFD30200121C0F21400FCF7F7
:1041C00009FC44F60005032007AF08904FF4807007
:1041D000C4F200053946ADF81C00182005F54C4620
:1041E00009903046FCF786FA0420394609904FF4CE
:1041F0000070ADF81C003046FCF77CFA27208DF8E3
:104200000680ADF8040001A8CDF80880FCF7F4FCA6
:104210000020039403A90490ADF818004FF4402047
:1042200005902846FDF78AFD284640F225510122D7
:10423000FDF76CFD28460121FDF736FD0AB0BDE80B
:10424000F08100002DE9F04389B081464FF4002051
:1042500001214FF00108FCF76DFD10200121FCF752
:1042600075FD44F6004503244FF4806006AFC4F2A8
:1042700000050794ADF818001820394605F54446A6
:1042800008903046FCF736FA0420394608904FF47F
:104290000060ADF818003046FCF72CFA34208DF899
:1042A0000240ADF800006846CDF80480FCF7A4FC9D
:1042B0000020CDF8089002A90390ADF814004FF447
:1042C000402004902846FDF739FD284640F225514C
:1042D0000122FDF71BFD28460121FDF7E5FC09B091
:1042E000BDE8F0832DE9F04F81B04FF4A060FCF7FA
:1042F000B3FCFCF7A9FDFFF759FE0220FCF7AEFB6B
:1043000001200124FCF7AAFBFFF7CEFE40F2741057
:10431000C2F20000FCF732FD40F2251B40F2BD0561
:1043200041F22C205B210027C2F2000BC2F20005F3
:104330008BF80240ABF800002880AF702F718BF82B
:104340000710E971FDF7C6FE40F2F00640F2AC142A
:1043500040F2101840F2FC0940F23C1AC2F200068A
:10436000C2F20004C2F20008C2F20009C2F2000A5E
:1043700008E000BF3220FFF73BFEFFF7D5FC3220FC
:10438000FFF736FE30680028F4D1FDF7D5FE20682F
:10439000E870D8F80000042808DC5846FCF710FC48
:1043A000D8F800000130C8F8000009E0052807D15E
:1043B0002846FBF7DBFF58468BF80270FCF700FC41
:1043C000D9F80000012805D14FF4FA70FFF710FE6C
:1043D000C9F80070DAF8000002281DD00128D1D1F8
:1043E00048F2A410C4F2212007602068412835D18A
:1043F00040F29810C2F2000000680328C2D8DFE83B
:1044000000F03D02556140F29C10C2F200000068CD
:104410000128B7D100202EE140F280110120C4F222
:1044200023210860206841380728ABD8DFE810F066
:104430000800670080008C00A600B600CB00E900F1
:1044400040F29410C2F20000006803283FF69AAFD1
:10445000DFE810F0630035015701F40040F29811D5
:104460004228C2F2000109680CD103293FF68AAF45
:10447000DFE811F00400F8001C0008015920FFF7E4
:104480006FFBFAE00A293FF67DAFDFE811F00B0081
:10449000640187019C01C301D101EA01F601170201
:1044A0000F001B008F20FFF75BFBE6E040F29C1043
:1044B000C2F20000006801287FF464AF2120FFF7FA
:1044C0004FFBDAE040F29C10C2F2000000680128C5
:1044D0007FF458AF40F2A010C2F20000076040F233
:1044E0000000C2F20000076040F28810C2F2000033
:1044F000076040F28010C4F22320076042E740F2D8
:104500009410C2F20000006803283FF63BAFDFE8DA
:1045100010F004006A00F80004016FF02200FFF7B9
:104520001FFB40F2B0010120C2F200010860EEE181
:1045300040F29410C2F20000006803283FF622AF58
:10454000DFE800F03CBD107C40F29410C2F20000A5
:10455000006803283FF616AFDFE810F0630045005F
:104560000400DF0040F29C10C2F200000068012845
:104570007FF408AF012028718E20CBE040F2941028
:10458000C2F20000006805283FF6FCAEDFE810F03C
:1045900049009700A500AA01AF00560040F2941010
:1045A000C2F20000006805283FF6ECAEDFE810F02C
:1045B00006001B0095009A019F0046000120A8708C
:1045C0006FF0220031E040F29410C2F20000006867
:1045D00005283FF6D7AEDFE810F024000600800083
:1045E0008F018A00310040F29C10C2F20000006886
:1045F00001287FF4C7AE40F2B000C2F200000760AD
:1046000078E140F29410C2F20000006805283FF6FD
:10461000B9AEDFE810F006005400620071016C00D2
:1046200013000120A8706FF02100FFF799FA40F203
:10463000B0000121C2F20000016068E140F29C106C
:10464000C2F20000006801287FF49CAE40F2000036
:1046500048F2A411C2F20000C4F221210760012037
:10466000086021E040F29C10C2F2000000680128BE
:104670007FF488AE0120FFF7E5FA40F29810C2F20D
:10468000000048E140F29C10C2F2000000680128DE
:104690007FF478AE40F20000C2F20000076040F202
:1046A0008010C4F22320076040F28810C2F200009C
:1046B000076040F2A010C2F20000076062E640F21C
:1046C0009C10C2F20000006801287FF45BAE40F24B
:1046D000B000C2F20000076016E140F29C10C2F286
:1046E0000000006801287FF44DAE572012E040F230
:1046F0009C10C2F20000006801287FF443AEEB205A
:1047000008E040F29C10C2F20000006801287FF42B
:1047100039AE3520FFF724FAF9E040F29C10C2F2DE
:104720000000006801287FF42DAE40F2A01048F28E
:10473000A411C2F20000C4F22121076040F200007F
:10474000C2F20000076040F28810C2F20000076069
:104750000120086016E640F29C10C2F200000068DA
:1047600001287FF40FAE4FF4C870FFF741FC40F210
:104770004810C2F200000068002800F0D18040F22A
:10478000981101284FF00802C2F200010A6000F0FF
:10479000D880022840F0D7804420D3E040F29C101B
:1047A000C2F20000006801287FF4ECAD40F238103E
:1047B0000121C2F2000001600320FFF743FA01204B
:1047C0008BF8040059E740F29C10C2F20000006828
:1047D00001287FF4D7AD40F238110120C2F2000168
:1047E00008604FF4C870FFF703FC40F2481040F235
:1047F0000C11C2F20000C2F20001006800284FF064
:10480000010008BF022008600420FFF71BFA8BF8A4
:10481000047032E740F29C10C2F2000000680128E8
:104820007FF4B0AD40F23810C2F20000076045E6F8
:1048300040F29C10C2F20000006801287FF4A2AD93
:1048400040F23810C2F20000076040F20C10C2F2D1
:104850000000006802283FF40DAF01283FF4DAADF4
:104860000BE740F29C10C2F20000006801287FF4C0
:1048700089AD3320FFF774F9FFE640F29C10C2F2D5
:104880000000006801287FF47DAD4FF4C870FFF789
:10489000AFFB40F20C10C2F200000068022843D0C7
:1048A00001287FF40BAE40F24810C2F2000000680D
:1048B000012814BF462045202060FFE540F29C11EE
:1048C000C2F20001096801297FF45CAD4338052874
:1048D0003FF6D0AE012101FA00F010F0250F7FF471
:1048E00099ADC7E640F29C10C2F2000000680128B2
:1048F0007FF448AD012008E040F29C10C2F20000B5
:10490000006801287FF43EAD0020FFF79BF940F2DC
:104910009410C2F20000014600680130086031E5E1
:104920005620FFF71DF9A8E640F24810C2F2000039
:10493000006802280BD001287FF4C0AD4820206019
:10494000BCE5432020601F20FFF70AF91AE5472045
:104950002060B3E521F0004201F00043A2F1605273
:10496000B2F5801F28BFD2F17F6C0BD95FEA001C23
:1049700043EAC20242EB507018BF704728BF20F0D4
:1049800001007047B2F5801FBCBF184670474FEA60
:10499000410C1CF5001F02D2084600F09ABD70B50C
:1049A00000F052FA00000089FFF7F6BF4FF0004018
:1049B000A0F58000704700002DE9C04130B4DFF859
:1049C000A0C23CEA111418BF3CEA131400F0EC80BA
:1049D0001CEA111481EA030544EAD57418BF1CEAE5
:1049E000131500F0C780A4EB050404F17F7404F5EF
:1049F00000344FF0004545EAC12145EAC32341EAAE
:104A0000505143EA52534FEAC0204FEAC222994222
:104A100008BF904200F09C804FEA13650FF24016E9
:104A2000765D4FEA134506FB05F7C7F1807706FB75
:104A300007F74FEAD737A7FB03687642A7FB06CEF6
:104A4000C8F5803838BFA8F1010807FB08E6A6FBC7
:104A5000028C4FF0000EE6FB03CEDCF1000CCEF131
:104A6000004E38BFAEF1010EA6FB0C584FF0000708
:104A7000E6FB0E87A1FB08C6A0FB07CE16EB0E06D1
:104A80004FF0000545F10005E1FB076515F1E04E2B
:104A90007EBFA4F580345FEA46066D4116F18007BB
:104AA00045F100054FEA172747EA05674FEA152544
:104AB0004FEA0666A6F1DE46B6F1805F1FD938469A
:104AC00005EBC47124F0010C01EB0C11BCF1FE6F7D
:104AD00002D8F0BCBDE8008124425CBF01F5801E15
:104AE0009EEAC47F02D4F0BCBDE80081244238D4E1
:104AF000A1F1C041F0BCBDE8004100F0F3B94FEABC
:104B0000D02040EA41504FEAD1214FEAD22242EA76
:104B100043524FEAD323A7FB028607FB036605FB3C
:104B200002661EEA0E0F58BFA6EB0056B6EB005603
:104B30004FEA520E4EEAC37E18EB0E0E56EB530EA2
:104B4000BDD518EB02085E417F1C55F10005B6E7A4
:104B50004FF480154FF000074FF000064FF00008AB
:104B6000ADE701F1C04101F000414FF00000F0BCA1
:104B7000BDE800810CEA131511EA0C1F00D00CE00F
:104B800013EA0C1F00F025804FF0000081EA0301BA
:104B900001F00041F0BCBDE80081F0BCBDE800417F
:104BA00081EA030100F09EB9F0BCBDE8004170B598
:104BB00000F04AF9097EFC3E00F007B84FF0000013
:104BC00081EA030101F00041704781EA030100F02E
:104BD00089B9F0BCBDE8004122494FF000007047A0
:104BE000FFFDFBF9F7F5F4F2F0EEEDEBE9E8E6E4B2
:104BF000E3E1E0DEDDDBDAD8D7D5D4D3D1D0CFCD39
:104C0000CCCBCAC8C7C6C5C4C2C1C0BFBEBDBCBB71
:104C1000BAB9B8B7B6B5B4B3B2B1B0AFAEADACAB6C
:104C2000AAA9A8A8A7A6A5A4A3A3A2A1A09F9F9E46
:104C30009D9C9C9B9A9999989797969595949393F8
:104C4000929191908F8F8E8E8D8C8C8B8B8A89898F
:104C50008888878786858584848383828281818012
:104C60000000FF070000F87F4FEA41034FEA53536B
:104C7000A3F58063D3F11E03C8BFD3F1210C0CDD73
:104C80004FF0004242EAC12242EA505232FA03FC9B
:104C90008CEAE17CACEBE1707047102BC4BF0020C4
:104CA000704703F5787CBCF1FF3F04D06FF0004201
:104CB00082EA2100704770B500F0C6F8499224805E
:104CC00000207047F2E710F0004248BF4042B0FABF
:104CD00080F310FA03F10AD0C3F11D0303F58063DA
:104CE00002EB03524FEA415002EBD12170474FF0E3
:104CF0000000704770B5DFF848C11CEA111E1EBFE6
:104D00001CEA13159EEA0C0F95EA0C0F00F06F8059
:104D100081EA03044EEAD47EAE4421EA4C1123EA30
:104D20004C1341F4801143F48013AEF17F7EA1FB5C
:104D3000024CA0FB0365361955EB0C05A1FB034C97
:104D40004CF10003A0FB021C16EB0C06654153F16D
:104D50000003094218BF46F0010613F4007F0BD18F
:104D60004FEA03314FEA053041EA155140EA165047
:104D700034036FF003020AE04FEAC3214FEAC52073
:104D800041EA555140EA5650F4026FF0020202EB3C
:104D90002E4201EB025585EACE710AD05FEA440C3F
:104DA00018BF24F0004450F1000041F1000120EA56
:104DB000D47040F2FE7C624500D270BDA84214BFA0
:104DC0004FF080444FF04044002E08BF0024BEF155
:104DD000806FA8BFA1F1C041BDE8704080F2828021
:104DE00001F1C04101F000414FF0000070470CEAB2
:104DF00013159EEA0C0F18BF95EA0C0F06D081EA36
:104E0000030E4FF000000EF0004170BD00F01CF8E2
:104E10008900013E00F007B800F009B84FEA430CE2
:104E20005FEA5C5C08D081EA030100F05BB84FEAFE
:104E3000410C5FEA5C5CF6D102494FF0000070471C
:104E40000000FF070000F87F0EF1020E2EF0030EA7
:104E50005EF8046B364205D4012A43EB030515F5D1
:104E6000001F12D8012841EB010C1CF5001F0CD8C3
:104E70000ED14FEAD17C0CEB4C0C0CF1020C15F569
:104E8000001F08BF4CEBD37C04E04FF0080C01E09E
:104E90004FEAD37C0CEB4C0526FA05F606F0070624
:104EA000B6F1040C06D20EEB860CBDE870404CF057
:104EB000010C6047DFE80CF0090B02024FF00041E3
:104EC000A1F500214FF0000070BD194610460128E1
:104ED00051EB010418BFD4F5001484BF002001F089
:104EE000004170BD0808A0F500114FEA310170477C
:104EF00090EA010F48BF81F0004100F1F682421AAA
:104F00003CBF801A89184FEAD052A2EBD1534FF020
:104F10007F4C1CEA410F18BF9CEA026F00F03B80F7
:104F20004FF0004C4CEA00204CEA012121FA03FC2E
:104F300010EB0C0C1ED202F1FF325FEA1C2040EB9A
:104F4000C25038BF70471CF07F0F4FEA400C18BFAB
:104F5000BCF17F4F38BF7047C3F12003994008BFB1
:104F600020F00100BCF17F4F38BF7047A0F1C04076
:104F700000F0AFBA4FEA3C00000A40EBC25028BF35
:104F80001CF0FF0F4FEA400CE6D018BFBCF17F4F7A
:104F900038BF7047EAE79CEA026F05D010EA5C0F61
:104FA00008BF00F00040704710B500F04CFA00BF99
:104FB00064FBBE3E10B500F0F5F80CBF01200020E8
:104FC00010BD10B500F0EEF814BF0120002010BD98
:104FD00010B500F04FF98CBF0120002010BD10B5B6
:104FE00000F048F92CBF0120002010BD10B500F0E2
:104FF00075F994BF0120002010BD10B500F06EF9C6
:1050000034BF0120002010BD401058BFC0F1404007
:10501000491058BFC1F140418142EFF30080704711
:105020004FF47F0C1CEAD0121EBF1CEAD11392EA87
:105030000C0F93EA0C0F00F0858090EA010F48BF37
:1050400042F4807240F4000C41F400002CF07F41E7
:1050500020F07F4000B5A2EB030281420FF2081C52
:10506000ACEB504E9EF800E0C0F100004FEA4E0E4F
:1050700000FB0EFC38BF49004FEA2C1C0CFB0EF362
:105080004FEACE1E0EEB635E4FEA112C0EFB0CFCBA
:105090004FEAC1214FEA1C5300FB031102F5FA024B
:1050A0004FEA112C0EFB0CFC4FEA01314FEADC4CAD
:1050B00000FB0C1142EB2242C14228BF09184CEB05
:1050C00003335DF804EB10EB410143EBC250B2F542
:1050D0007C0F38BF704729D512F0F00F1CBF00F1CC
:1050E000C04000F00040704700818283848586873D
:1050F00088898B8C8D8E8F919293959697999A9C97
:105100009D9FA0A2A3A5A7A8AAACAEB0B2B3B5B705
:10511000B9BCBEC0C2C5C7C9CCCED1D4D7D9DCDFDB
:10512000E2E6E9ECF0F3F7FAFE0000004FEA400C8B
:105130000CF1807CBCF17E4F28BF7047B0F1C040BD
:1051400000F0C7B90CEAD11390EA010F48BF42F44E
:105150008072624538BF634507D213F47F0F16D0C3
:1051600080EA010000F00040704710B500F06BF9D4
:10517000097EFC3E00F005B880EA010000F0004026
:10518000704780EA010000F0004000F0A2B912F47C
:105190007F0F04BF0248704780EA010000F099B910
:1051A0000000C07F50EA010C00F113801CF5000FD5
:1051B00058BFBCF5000F01D48842704707D710F5DF
:1051C000000F58BF11F5000F15D48842704789426F
:1051D00070471CF5000F04D5BCF5000FF7D58142D0
:1051E00070474FF0807C1CEB400F38BF1CEB410F29
:1051F00001D28142704710B500F025F99224490090
:105200004FF000504FF08051FFF7FEBE41000B0EF3
:10521000D3F19E0208D950F400034FEA032323FA86
:1052200002F048BF4042704710B500F00CF900BFD3
:1052300049922480002070476FF0004282EA2000EB
:105240007047000010F0004148BF4042B0FA80F3C0
:1052500010FA03F2C3F19D030BD051EAC35101EBE5
:105260001220530638BF704700F1010008BF20F03C
:105270000100704750EA010C00F113801CF5000F8B
:1052800058BFBCF5000F01D48842704707D710F50E
:10529000000F58BF11F5000F15D48842704789429E
:1052A00070471CF5000F04D5BCF5000FF7D58142FF
:1052B00070474FF0807C1CEB400F38BF1CEB410F58
:1052C00001D28142704710B500F0BDF89224490028
:1052D0004FF080504FF00051FFF796BE50EA010C9E
:1052E00000F113801CF5000F58BFBCF5000F01D46E
:1052F0008842704707D710F5000F58BF11F5000F0F
:1053000015D488427047894270471CF5000F04D5B8
:10531000BCF5000FF7D5814270474FF0807C1CEB45
:10532000400F38BF1CEB410F01D28142704710B5CE
:1053300000F089F8922449004FF000504FF080515E
:10534000FFF762BE4FF47F0C1CEAD0121EBF1CEAAE
:10535000D11392EA0C0F93EA0C0F00F0478090EA09
:10536000010F48BF42F480724FF0004C4CEA00201D
:105370004CEA012102EB0302A0FB0113A2F500029B
:10538000002918BF43F001035B0028BF4FEA330335
:1053900042EB22425FEA132C4CEBC2502EBFBCEB17
:1053A000436FB2F57C0F70474FEA036CBCF1004FBE
:1053B00008BF20F00100B2F57C0F38BF70470BD555
:1053C00082F0FF0212F5803FC8BF704700F1C04075
:1053D000D8BF00F00040704700F5000C5FEA4C0CAD
:1053E00048BF7047B0F1C04000F073B80CEAD11369
:1053F00090EA010F48BF42F48072624538BF6345AE
:1054000004D280EA010000F00040704710B500F0BF
:105410001AF800BF8900013E00F007B800F009B893
:105420005FEA410C5FEA1C6C08D080EA010000F0E2
:1054300050B85FEA400C5FEA1C6CF6D14FF00040B8
:10544000A0F5800070470EF1020E2EF0030E5EF8FC
:10545000044B244204D44FEA4102B2F17F4F11D8E9
:105460004FEA4003B3F17F4F0CD80ED14FEAD07C06
:105470000CEB4C0C0CF1020CB2F17F4F08BF4CEB63
:10548000D17C04E04FF0080C01E04FEAD17C0CEB3A
:105490004C0324FA03F404F00704B4F1040C06D21C
:1054A0000EEB840CBDE810404CF0010C6047DFE8C7
:1054B0000CF0070802024FF00040A0F5800010BD7C
:1054C0000846420018BFD2F1807288BF00F0004049
:1054D00010BDFF2141EAD050C005704790EA010F8E
:1054E00048BF81F000413FF50AAD421A04D882F06E
:1054F0000042A0EB020011444FEAD052A2EBD1537C
:105500004FF07F4C1CEA410F18BF9CEA026F4AD053
:105510004FF0004C4CEA00204CEA012121FA03FC38
:10552000B0EB0C0C0FD412F0FE0F36D05FEA4C003B
:105530001DD5001240EBC25038BF70471CF03F0F22
:1055400018BF70470BE05FEA1C20A2F1010240EB9C
:10555000C25038BF70471CF07F0F18BF7047C3F1AF
:105560002003994014BF401E20F0010070474FEA0D
:105570001223800808BF7047B0FA80FCA2EB0C022F
:10558000CCF1280C60FA0CF093EA122F04BF00EB68
:10559000C25070474FEAC3707047130A5FEADC10CD
:1055A00008BF7047F6E79CEA026F04D010EA5C0F70
:1055B00008BF0020704710B5FFF745FF40DFF63EFB
:1055C00081F000407047020406080000000001025C
:1055D000030401020304060708090000000000009C
:1055E00000000000000000000000000000080808A3
:1055F0000808080800001818000000486C24120071
:10560000000000000000000000000000002424242E
:105610007F1212127F12121200000000081C2A2AA8
:105620000A0C1828282A2A1C080800000022251520
:1056300015152A585454542200000000000C121270
:10564000120A76252911916E000000060604030057
:1056500000000000000000000000004020101008C2
:10566000080808080810102040000002040808106C
:1056700010101010100808040200000000000808B4
:105680006B1C1C6B080800000000000000000808EC
:1056900008087F080808080000000000000000005B
:1056A00000000000000006060403000000000000E7
:1056B0000000FE00000000000000000000000000EC
:1056C00000000000000006060000000080404020AE
:1056D00020101008080404020200000000182442F0
:1056E00042424242424224180000000000080E08D4
:1056F000080808080808083E00000000003C424274
:10570000422020100804427E00000000003C42427B
:10571000201820404042221C0000000000203028B9
:10572000242422227E20207800000000007E020235
:10573000021A26404042221C0000000000382402C9
:10574000021A26424242241800000000007E222253
:10575000101008080808080800000000003C424239
:10576000422418244242423C000000000018244217
:10577000424264584040241C000000000000000029
:1057800018180000000018180000000000000000B9
:10579000000800000000000808040000004020107D
:1057A000080402040810204000000000000000006F
:1057B0007F0000007F0000000000000000020408DD
:1057C000102040201008040200000000003C42426B
:1057D000464020101000181800000000001C225A3B
:1057E000555555552D42221C000000000008081890
:1057F0001414243C224242E700000000001F222231
:10580000221E22424242221F00000000007C42422F
:10581000010101010142221C00000000001F224280
:10582000424242424242221F00000000003F421218
:10583000121E12120242423F00000000003F4212BC
:10584000121E12120202020700000000003C222277
:10585000010101712122221C0000000000E74242E8
:1058600042427E42424242E700000000003E0808F9
:10587000080808080808083E00000000007C101016
:105880001010101010101010110F000000772212CD
:105890000A0E0A12122222770000000000070202FC
:1058A000020202020202427F000000000077363648
:1058B00036362A2A2A2A2A6B0000000000E34646D0
:1058C0004A4A52525262624700000000001C2241C4
:1058D000414141414141221C00000000003F424241
:1058E00042423E020202020700000000001C224168
:1058F000414141414D53321C60000000003F424293
:10590000423E1212222242C700000000007C4242A6
:10591000020418204042423E00000000007F490877
:10592000080808080808081C0000000000E74242B8
:10593000424242424242423C0000000000E74242F2
:10594000222424141418080800000000006B4949A0
:1059500049495555362222220000000000E7422422
:1059600024181818242442E700000000007722229F
:10597000141408080808081C00000000007E2120FC
:10598000101008040442423F00000078080808088C
:105990000808080808080808780000000202040443
:1059A00008080810102020204040001E1010101081
:1059B00010101010101010101E00003844000000CD
:1059C00000000000000000000000000000000000D7
:1059D000000000000000000000FF000608000000BA
:1059E00000000000000000000000000000000000B7
:1059F000003C4278444242FC0000000000030202E6
:105A0000021A26424242261A00000000000000004E
:105A100000384402020244380000000000604040A8
:105A200040784442424264D8000000000000000078
:105A3000003C427E0202423C0000000000F0880868
:105A4000087E08080808083E00000000000000006A
:105A5000007C22221C023C42423C00000003020265
:105A6000023A4642424242E700000000000C0C00AD
:105A7000000E08080808083E000000000030300052
:105A80000038202020202020221E000000030202D7
:105A90000272120A1612227700000000000E080897
:105AA000080808080808083E000000000000000080
:105AB000007F9292929292B70000000000000000D6
:105AC000003B4642424242E7000000000000000066
:105AD000003C42424242423C000000000000000004
