:020000040800F2
:1000000060070020F1010008911A0008C9150008D6
:100010008D1A0008411000083D260008000000006D
:1000200000000000000000000000000003020008C3
:10003000451000080000000007020008090200083F
:100040000B0200080B0200080B0200080B0200085C
:100050000B0200080B020008491000080B02000800
:100060000B0200080B0200080B0200080B0200083C
:100070000B0200080B0200080B0200080B0200082C
:100080000B0200080B0200080B0200080B0200081C
:100090000B0200080B0200080B0200080511000803
:1000A0000B0200080B0200080B0200080B020008FC
:1000B000D11E0008CD1F0008E11F00080B02000838
:1000C0000B0200080B0200080B0200080B020008DC
:1000D0000B020008F92400080B0200080B020008BC
:1000E000651000080B0200080B0200080B02000854
:1000F0000B0200080B0200080B0200080B020008AC
:100100000B0200080B0200080B0200080B0200089B
:100110000B0200080B0200080B0200080B0200088B
:100120000B0200080B0200080B0200080B0200087B
:1001300000F002F800F04DF80AA090E8000C8244AC
:100140008344AAF10107DA4501D100F042F8AFF289
:10015000090EBAE80F0013F0010F18BFFB1A43F0A5
:1001600001031847D0A50000F0A50000103A24BFF5
:1001700078C878C1FAD8520724BF30C830C144BF0C
:1001800004680C607047000000230024002500264E
:10019000103A28BF78C1FBD8520728BF30C148BFEA
:1001A0000B607047662908F0AE86642900F0AE80C7
:1001B000782900F0E780002070471FB500F00AFDA5
:1001C00004000020002107F07DFCE0601FBD10B599
:1001D00010BD00F007FE1146FFF7EFFF04F066FFC9
:1001E00000F025FE03B4FFF7F2FF03BC04F03CF877
:1001F0000948804709480047FEE7FEE7FEE7FEE7BB
:10020000FEE7FEE7FEE7FEE7FEE7FEE704480549F6
:10021000054A064B70470000791D000831010008AF
:1002200060010020600700206003002060030020C0
:10023000704710B54C1084EA530404D54042C1F114
:10024000000138BF491E1B4204D55242C3F10003CE
:1002500038BF5B1E00F0A4F914F0804F04D0404278
:10026000C1F1000138BF491E14F0004F04D05242C2
:10027000C3F1000338BF5B1E10BD00000FB404497A
:1002800010B503AA029800F093FC10BC5DF814FBB3
:10029000D80000200FB41CB5074B06AA7B44694662
:1002A0000090059800F06BFC0020694600F07AFC95
:1002B0001CBC5DF814FB00000509000070B5044685
:1002C00085690068C10601D5302600E02026C007F8
:1002D00007D070BDD4E9012130469047206A401C08
:1002E00020626D1EF6D570BD70B504468569007834
:1002F000C00707D170BDD4E9012120209047206AB2
:10030000401C20626D1EF6D570BD00002DE9F04145
:100310000646002410687529314616A510D0AFF3A3
:100320000080002802DA404213A507E031688A07FE
:1003300001D512A502E0490704D511A5012401E069
:10034000AFF3008000210A2206F1240709E0B0FB88
:10035000F2FCB0FBF2F302FB1C003030785418467C
:10036000491C0028F3D123462A463046BDE8F04117
:1003700000F098B9000000002D0000002B000000E4
:100380002000000070B504460D4621461068AFF30A
:1003900000802188090502D50F4A7A4402E00E4AFE
:1003A0007A440E32002104F1240305E000F00F0628
:1003B0000009965D5E54491C0028F7D1207800237F
:1003C000000704D5702D02D009B102231132204656
:1003D000BDE8704000F066B95C8C00002DE9F05F6C
:1003E000894604464FF0000ADFF824B1FB44C0F808
:1003F00020A02046E168884700287DD0252806D027
:10040000D4E901219047206A401C2062F1E70025D1
:100410005F462046E16888472028064607DB312EE4
:1004200005D2B81910F8200C08B10543F1E7A80768
:1004300001D525F00405C4F81CA00027C4F818A0B5
:100440002A2E09D0304606F0F9FF38B304EB8708AE
:10045000303EC8F8186019E059F8041B204604EB38
:1004600087029161E1688847012F064618D1E0694B
:10047000002820DA25F020051DE0D8F8180000EB50
:10048000800006EB40003038C8F818002046E168CC
:100490008847064606F0D2FF0028EED1012F0AD089
:1004A0002E2E08D12046E16888477F1C0646022F81
:1004B00045F02005C4DBA069002803DA404245F07E
:1004C0000105A061E80701D025F01005A6B1A6F14D
:1004D0004100192802D8203645F400654A463146C5
:1004E000204625604D46FFF75DFE60B1012807D02C
:1004F000ED1D25F0070000E007E000F1080978E7AE
:1005000005F1040975E730467AE7206ABDE8F09FF7
:10051000328C000010B5044603E004F089FB401C57
:1005200009D014F8010B05490028F6D1BDE81040A8
:100530000A2004F07DBB4FF0FF3010BDD800002032
:1005400040EA010310B59B070FD1042A0DD310C850
:1005500008C9121F9C42F8D020BA19BA884201D9A2
:10056000012010BD4FF0FF3010BD1AB1D30703D0EA
:10057000521C07E0002010BD10F8013B11F8014BA0
:100580001B1B07D110F8013B11F8014B1B1B01D1BC
:10059000921EF1D1184610BD7047704770477047E2
:1005A00053EA020C00F069802DE9F04B4FF0000691
:1005B000002B1FBFB3FA83F503FA05F424FA05F6FE
:1005C0005E4012BF1643B2FA82F502FA05F4C5F195
:1005D00020051EBF22FA05FC44EA0C04203556EA29
:1005E000044C4FEA144418BF641C4FF000084FF04D
:1005F0000009904271EB030C39D3002919BFB1FAFD
:1006000081F701FA07F6B0FA80F700FA07F6C7F1AA
:1006100020071EBF20FA07FC46EA0C062037B6FB6F
:10062000F4FCA7EB0507103F07F01F0BCBF12006EA
:100630002CFA06F60CFA0BFB44BFB3460026202F1B
:10064000A4BF5E464FF0000B5BEA060C08BF4FF0FC
:10065000010B19EB0B0948EB0608ABFB027C06FB10
:1006600002CC0BFB03CCC01B71EB0C01C1E70B46AA
:10067000024641464846BDE8F08B13B54FF00000F6
:100680004FF00001AFF30080BDE81C40704710B58B
:1006900000F0A4FA006810BD10B5044600F09EFA00
:1006A000046010BD2DE9F0470D4699469246044678
:1006B00000F124080168880604D5E06921F01001E2
:1006C000216000E00120A84201DD471B00E0002777
:1006D000A1697A1902EB0900081AA0612078C00606
:1006E00002D42046FFF7EAFD002608E0D4E9012104
:1006F0001AF806009047206A401C761C20624E457E
:10070000F4DB2078C0060AD52046FFF7D7FD06E0C7
:10071000D4E9012130209047206A401C2062381E15
:10072000A7F10107F4DC07E0D4E9012118F805007E
:100730009047206A401C2062281EA5F10105F3DCC9
:100740002046FFF7D1FD2078000602D50220BDE843
:10075000F0870120FBE72DE9FF4F0C461E464FF0C6
:10076000FF378BB0D2E90001DDF860800A908A463D
:10077000C1F30A5505B93D46002108464FF0000077
:10078000BAF1000F00F4400005DA00EB80004FF4EE
:10079000400101EA50004FEA9059B9F1010F00DD24
:1007A000B9460A9850EA4A000ED044F61050A5F215
:1007B000FF3545432F14B8F1000F1ED07542291E96
:1007C0001EDDC9F100021CE0B8F1010F4FF000007E
:1007D00001D0302103E0F24305E02154401CB04237
:1007E000FBDB30460022002121540B99C1F8088020
:1007F000C1E900200FB0BDE8F08FBD1B6D1CDEE726
:100800004A4600DA694206A800F072FA06AB93E89D
:10081000070003AB83E8070050460A9906F0CAF9BF
:100820008DE80700A0F500501F3800900398002DB8
:100830000ADD42F21F014A460844002303A903903F
:10084000684606F033FC09E0A0F500504A461F3820
:10085000002303A90390684606F03DFC8DE80700DD
:100860000004000C03D04FF0FF30410800E01046B8
:10087000B8F1000F03D00022009215461EE0751E4D
:1008800005D400F0AFF9303262556D1EF9D5B3468C
:100890000122084302D000227F1C04E02078302887
:1008A00001D100227F1E002A099784D01DE0112D5E
:1008B00007DA00F097F9303262556D1C50EA0102F8
:1008C000F5D1084302D00098C8B10EE00021681E9F
:1008D00005E0235C625C63542254401E491C814243
:1008E000F7DBAB46A81B401E0990002004F80B0064
:1008F0000B98099AC0F80880C0E9002B7AE7112606
:100900004FF0000857E72DE9F04F88460446D21D06
:1009100022F0070191B0D1E90001CDE90A0106F00A
:1009200011FD02460B98C00F01D02D2007E0206872
:10093000810701D52B2002E0202101EAC000032A13
:10094000099001D0072A05DB03464146204600F006
:100950008FF90BE12078800601D5E06900E00620E0
:10096000B8F1650F814606D0B8F1660F18D0B8F11E
:10097000670F70D131E00020B9F1110F009001DB59
:10098000112301E009F101030AAA01A90CA8FFF74C
:10099000E2FEDDE90C70002609F10105834647E01F
:1009A00001204B4600904FF000470AAA01A90CA86D
:1009B000FFF7D1FEDDE90DB00C995D46002610B9B8
:1009C00009F101000D18B9EB050003D4C0F1FF36A1
:1009D00009F10105A5EB09002BE0B9F1010F01DADE
:1009E0004FF001090020B9F1110F0090484601DDD8
:1009F000112300E003460AAA01A90CA8FFF7ABFEE9
:100A0000DDE90C704D4600268346207800070AD4A5
:100A1000AB4500DA5D4601A8012D04DD411911F84E
:100A2000011C302907D04F4502DA17F1040F04DA10
:100A3000012082460FE06D1EEEE7002F02DCED1B69
:100A40003E4403E0781CA84200DD7D1CB81B00F189
:100A5000010A4FF000472078000703D4AA4501DBC4
:100A60004FF0FF3A0021B7F1004F0DF143088DF828
:100A7000431024D002202B23002F01DA7F422D23A4
:100A80000A21021EA0F1010000DC5FB197FBF1FC1E
:100A900097FBF1F201FB1C7C17460CF1300C08F8B7
:100AA00001CDEEE7A8F1010003702188090501D509
:100AB000452100E06521A0F1010800F8011C09981A
:100AC0000FA9A1EB0807FF1D00B10120411901EB9F
:100AD000EA70A1693844081A401EA0612078C00657
:100AE00002D42046FFF7EAFB099828B1D4E9012196
:100AF0009047206A401C20622078C00622D52046FC
:100B0000FFF7DCFB1EE0002E04DBB34502DD01A88D
:100B1000805D00E03020D4E901219047206A401C2C
:100B20002062761CAAF101005FEA000A0AD100F0F7
:100B300051F8C0680168405CD4E901219047206AFF
:100B4000401C2062281EA5F10105DCDC07E0D4E989
:100B5000012118F8010B9047206A401C2062381EC2
:100B6000A7F10107F3DC2046FFF7BEFB032011B01D
:100B700041E6000001694A1C02610878704700B52F
:100B80008FB0CDE901310021059105497944CDE9C6
:100B9000031011466846FFF721FC0FB000BD0000AE
:100BA000E5FFFFFF0A6802F8010B0A6070470000CA
:100BB000074B70B50D467B44FFF7E1FF044628461E
:100BC00000F008F910B14FF0FF3070BD204670BD45
:100BD00077400000004870475800002000487047E8
:100BE0003800002030B5B0F10A0271F100034FEA7D
:100BF000900E4EEA817EB0EB0E0061EB91014FEA60
:100C0000101E4EEA017E10EB0E0041EB11114FEA6F
:100C1000102E4EEA016E10EB0E0041EB11214FEA4F
:100C2000104E4EEA014E10EB0E0041EB1141401800
:100C300041F100014FEAD00040EA41704FEAD10192
:100C40004FEA810444EA907410EB800544EB010400
:100C50006D1944EB0404521BA3414FF0000348BF3D
:100C60000A3200D530BD401C41F1000130BD00000A
:100C70002DE9F0411F46044603260168072A01F4C6
:100C8000006004DB08B116A505E016A503E008B175
:100C900015A500E015A521F010002060A069C01E78
:100CA000A0610FB1401EA0612046FFF707FB4FB1C6
:100CB000D4E9012138469047206A401C2062C01CBC
:100CC000206206E0206AFAE7D4E9012115F8010B59
:100CD0009047761EF8D22046FFF706FBBDE8F0816C
:100CE0004E414E006E616E00494E4600696E6600D0
:100CF0002DE9F047814616468AB0354878440DC83C
:100D00008DE80D0032487844801C03AC0DC884E89F
:100D10000D0041F69B300844372190FBF1F290FB27
:100D2000F1F5A5F1800501FB12041B3C02D56442DC
:100D3000012000E00020DFF898A080460027FA4458
:100D4000AAF1BE0A0EE0E0070AD03246684607EB79
:100D5000470101230AEB810106F0BDF98DE8070088
:100D600064107F1C002CEED1194F7F44AE3F19E078
:100D7000E80715D007EB04100DF1180A90E80E00F3
:100D80008AE80E00C068F04201D1981908903246F6
:100D9000012306A903A806F09EF903AB83E8070028
:100DA0006D10641C002DE3D14FF0010332466946FB
:100DB000B8F1000F03A802D006F078F901E006F0C0
:100DC0008AF9C9E90001C9F808200AB0BDE8F0872E
:100DD000A4840000007B00F080007047004870474A
:100DE000380000207546FFF7F9FFAE46050069465A
:100DF000534620F00700854618B020B5FFF706FAE5
:100E0000BDE820404FF000064FF000074FF000080B
:100E10004FF0000BAC46ACE8C009ACE8C009ACE848
:100E2000C009ACE8C00921F007018D46704710B534
:100E30000446AFF300802046BDE81040FFF7D2B96A
:100E40004FF0013C50F8042B51F8043B9A4221D159
:100E5000A2EB0C03934313EACC1317D150F8042BE5
:100E600051F8043B9A4215D1A2EB0C03934313EAC9
:100E7000CC130BD150F8042B51F8043B9A4209D102
:100E8000A2EB0C03934313EACC13DBD04FF000002A
:100E9000704700BFD01A01BAB1FA81F101F0180110
:100EA00022FA01F0CB40DBB2C0B2C01AC1F120017E
:100EB0002CFA01F3D11A914311EAC311E6D170471C
:100EC0008268002942F0010308BF22F00103836019
:100ED0007047000080B543F60041C4F2010188422A
:100EE00014D042F60001C4F20101884216D042F249
:100EF0000041C4F20101884218BF80BD4FF4007068
:100F0000012100F023FE4FF400700EE04FF400408A
:100F1000012100F01BFE4FF4004006E04FF480601A
:100F2000012100F013FE4FF480600021BDE88040F5
:100F300000F00CBE8068C0F380007047C06C80B2C7
:100F4000704700000068084018BF0120704700008B
:100F50008068C0F3C000704780B54FF6FF634268F9
:100F6000CFF6F07302EA030CD1E9003243EA0C0336
:100F700043EA02224FF2FD734260CFF6F1738268BA
:100F800002EA030ED1E902C30A6942EA0E021A43D9
:100F900042EA4C028260C26A097D013922F4700281
:100FA000C9B242EA0151C16280BD000010B501EB37
:100FB000410C092988BFACF11E0C092903FA0CFE6B
:100FC0004FF0070303FA0CFC4FF0100388BF0C230B
:100FD000062AC45824EA0C0444EA0E04C45003D878
:100FE00034306FF0040307E00C2A87BF2C306FF019
:100FF000400330306FF0220302EB82021A441F23B9
:10100000914003FA02F2036823EA020211430160ED
:1010100010BD0000816841F0080181607047000048
:101020008268002942F4A00308BF22F4A003836071
:1010300070470000816841F0040181607047000042
:10104000FEE700007047000080B5012000F0BAF80C
:1010500041F200000121C4F20100BDE8804000F02F
:10106000A9BA0000B0B541F200444FF48051C4F277
:101070000104204600F09EFA012808D120464FF4D2
:10108000005100F097FA40F23411002816E0204693
:101090004FF4805100F08EFA054620464FF400517F
:1010A00000F088FA3DB101281ED1A4F580604FF40C
:1010B000805100F07FFA40F234110128C2F20001A1
:1010C000096801D0481C00E0481E40F23411C2F209
:1010D000000108604FF4805000F074F84FF40050A5
:1010E000BDE8B04000F06EB8A4F580644FF4005144
:1010F000204600F05FFA0028ECD120464FF48051E2
:10110000BFE7000010B5802000F05CF8402000F040
:1011100059F841F200044021C4F20104204600F0D5
:1011200049FA012807D12046802100F043FA40F215
:10113000381100280BE02046402100F03BFA90B91E
:101140002046802100F036FA40F238110128C2F220
:101150000001096801D0481C00E0481E40F2381127
:10116000C2F2000108602046802100F023FA012825
:101170000CD12046402100F01DFA40F23811012820
:10118000C2F20001096813D1481C14E020468021F6
:1011900000F010FA002818BF10BD2046402100F0D2
:1011A00009FA40F238110028C2F20001096801D0A2
:1011B000481E00E0481C40F23811C2F200010860ED
:1011C00010BD000040F21441C4F2010108607047F4
:1011D000C26840F20041C4F20101F2B102680B683A
:1011E00093430B604B6893434B60D0F804C05CF8AA
:1011F00001301A434CF8012002688B6893438B60DE
:10120000CB689343CB60806810280DD18868104369
:101210008860C8681043C8607047D0E90020435810
:1012200023EA02024250704743581A434250704723
:1012300080B50C2240F2080E0F2302EA810201F071
:10124000FC01C4F2010E03FA02FC51F80E3090408A
:1012500023EA0C0341F80E3051F80E20104341F8F8
:101260000E0080BD80B5D1F808E00EF00F0C1EF026
:10127000100F1CBF4B684CEA030C098811F0FF0FDC
:1012800000F0A4800368CA070BD023F00F02BEF160
:10129000480F42EA0C0315D0BEF1280F01D10122FC
:1012A00042618A0712D523F0F002BEF1280F42EA0C
:1012B0000C131CD0BEF1480F08D1022202614A076C
:1012C00006D418E0012202618A07ECD44A0712D53D
:1012D00023F47062BEF1280F42EA0C231CD0BEF149
:1012E000480F08D1042202610A0719D505E002223D
:1012F00042614A07ECD40A0712D523F47042BEF1CA
:10130000280F42EA0C331CD0BEF1480F08D1082246
:101310000261CA0606D418E0042242610A07ECD42E
:10132000CA0612D523F47022BEF1280F42EA0C43FC
:101330001CD0BEF1480F08D1102202618A0619D5CF
:1013400005E008224261CA06ECD48A0612D523F4CD
:101350007002BEF1280F42EA0C531CD0BEF1480FB8
:1013600008D1202202614A0606D418E01022426108
:101370008A06ECD44A0612D523F07062BEF1280F1B
:1013800042EA0C631AD0BEF1480F08D14022026134
:101390000A061AD505E0202242614A06ECD40A0664
:1013A00013D523F07042BEF1280F42EA0C730AD025
:1013B000BEF1480F09D18022026106E0402242615D
:1013C0000A06EED401E0802242610360B1F5807F1D
:1013D00038BF80BD4368CA050CD523F00F02BEF1AB
:1013E000480F42EA0C0317D0BEF1280F02D14FF488
:1013F000807242618A0514D523F0F002BEF1280FF5
:1014000042EA0C131FD0BEF1480F0AD14FF400720C
:1014100002614A0507D41BE04FF4807202618A051D
:10142000EAD44A0514D523F47062BEF1280F42EACB
:101430000C231FD0BEF1480F0AD14FF48062026125
:101440000A051CD506E04FF4007242614A05EAD451
:101450000A0514D523F47042BEF1280F42EA0C337A
:101460001FD0BEF1480F0AD14FF400620261CA04D6
:1014700007D41BE04FF4806242610A05EAD4CA0433
:1014800014D523F47022BEF1280F42EA0C431FD07A
:10149000BEF1480F0AD14FF4805202618A041CD574
:1014A00006E04FF400624261CA04EAD48A0414D50B
:1014B00023F47002BEF1280F42EA0C531FD0BEF194
:1014C000480F0AD14FF4005202614A0407D41BE0CE
:1014D0004FF4805242618A04EAD44A0414D523F0BE
:1014E0007062BEF1280F42EA0C631ED0BEF1480FB5
:1014F0000AD14FF48042026109041BD506E04FF483
:10150000005242614A04EAD4090413D523F0704121
:10151000BEF1280F41EA0C730ED0BEF1480F09D17D
:101520004FF400410161436080BD4FF4804242614D
:101530000904EBD4436080BD4FF400414161436036
:1015400080BD000010B50422002800F440141FFAEA
:1015500080FCC4F201021346B8BF43F01803B4F58F
:10156000401F1B68C0F3034E07D1146823F070635B
:1015700024F07064146081B916E0C40206D447F602
:10158000F07404EA50440CFA04F402E0032404FA70
:101590000EF4A34343F0706331B147F6F07101EAF2
:1015A00050410CFA01F10B430028B8BF1832136008
:1015B00010BD00008068084018BF0120704700007F
:1015C0004161704701617047FEE70000022002F0B0
:1015D0009DBE000010B584B008200121012400F058
:1015E000A9FA102001A903904FF44060ADF804005F
:1015F0000320029040F60040C4F20100FFF732FEE3
:1016000048F2A810C4F221200460446004B010BD68
:101610002DE9F04F83B040F60441029048F2A8153E
:101620004FF0000BC4F20101C4F22125086820F438
:1016300070400860086840F400400860002028609E
:10164000022002F063FE01262E6055F87C0C01900A
:10165000012002F05BFE0220C5F800B002F056FE49
:101660002E60012055F87C7C02F050FE0220C5F867
:1016700000B002F04BFE2E60012055F87C4C02F0C9
:1016800045FE0220C5F800B002F040FE2E600120A9
:1016900055F87C8C02F03AFE0220C5F800B002F04A
:1016A00035FE2E60012055F87C9C02F02FFE0220B2
:1016B000C5F800B002F02AFE2E60012055F87CAC7F
:1016C00002F024FE0220C5F800B002F01FFE2E60DA
:1016D000012055F87CBC02F019FE00202860022091
:1016E00002F014FE2E60012055F87C6C02F00EFE14
:1016F00040F6044200212960C4F20102106820F47F
:1017000070401060106840F440501060019800284C
:1017100018BF0120002F18BF0127002C18BF01247B
:1017200047EA4000B8F1000F18BF4FF0010844EA43
:101730004000B9F1000F18BF4FF0010948EA40001E
:10174000BAF1000F18BF4FF0010A49EA4000BBF19F
:10175000000F18BF4FF0010B4AEA4000002E4BEA81
:10176000400018BF012646EA4004029848B1022012
:10177000696002F0CBFD01202860022002F0C6FD66
:1017800008E0012602206E6002F0C0FD02202E60FB
:1017900002F0BCFD00202860E0B203B0BDE8F08F8D
:1017A000F0B581B0044640F6044048F2A815002682
:1017B000C4F20100C4F22125016821F470410160E6
:1017C000016841F440510160E0092E606860022028
:1017D00002F09CFD012702202F6002F097FD0220FD
:1017E0002E6002F093FDC4F380106860022002F0C6
:1017F0008DFD02202F6002F089FD02202E6002F094
:1018000085FDC4F340106860022002F07FFD0220D5
:101810002F6002F07BFD02202E6002F077FDC4F302
:1018200000106860022002F071FD02202F6002F0BB
:101830006DFD02202E6002F069FDC4F3C0006860F7
:10184000022002F063FD02202F6002F05FFD022003
:101850002E6002F05BFDC4F380006860022002F09D
:1018600055FD02202F6002F051FD02202E6002F093
:101870004DFDC4F340006860022002F047FD0220E5
:101880002F6002F043FD02202E6002F03FFD04F0C5
:1018900001006860022002F039FD02202F6002F092
:1018A00035FD2E60022001B0BDE8F04002F02EBDF3
:1018B000B0B540F6044048F2A814C4F20100C4F2E6
:1018C0002124016821F470410160016841F4405114
:1018D0000160012060602060042002F017FD0025F7
:1018E0000420656002F012FD2560B0BD10B540F621
:1018F000044048F2A814C4F20100C4F22124016893
:1019000021F470410160016841F440510160002000
:1019100020606060042002F0F9FC0120206060601B
:101920000420BDE8104002F0F1BC000070B540F6A4
:10193000044448F22C150126C4F20104C4F2212506
:10194000206820F470402060206840F4004020604F
:101950000120C5F8806002F0D9FC0120EE6702F09A
:10196000D5FC286888B10020296871B1296861B167
:1019700040F00201C9B2F9290BD82A682AB1F92925
:1019800007D8296804300029EED100242046EC67EE
:1019900070BD206820F470402060206840F4405002
:1019A00020600020E867C5F88000042002F0AEFC4B
:1019B00001240420EC67C5F8804002F0A7FC204613
:1019C00070BD000041F21801C4F202010A6842F041
:1019D00001020A600421C4F201010A6822F0E062F7
:1019E0000A600A6842EA40600860704780B5FFF705
:1019F000F1FD6B20802100F023FE642002F058FCF2
:101A00006B20002100F01CFE1B20182100F018FEA6
:101A10001C20102100F014FE1920012100F010FEFE
:101A20001A20012100F00CFE3820002100F008FEF1
:101A30006A20002100F004FE2320002100F000FEB7
:101A40003720802100F0FCFDFFF732FFD220FFF7A6
:101A5000A7FEFFF76BFF7520FFF7A2FEFFF766FFFB
:101A6000FFF726FFD320FFF79BFEFFF75FFF002065
:101A7000FFF7CEFDFFF73AFF6B20032100F0E0FDFA
:101A80006C20002100F0DCFD002080BDFEE700009E
:101A90007047000042684EF20011CEF20001EAB138
:101AA00010B54EF60C520723CEF20002126890F8E1
:101AB00001E0847890F800C023EA12220F23D3407B
:101AC000C2F1040223400EFA02F21A4301EB0C03A6
:101AD000120183F80023BDE8104000E08031007857
:101AE000012300F01F02C0F3421003FA02F241F892
:101AF0002020704740F080604EF60C5140F0FD70A1
:101B0000CEF200010860704741F20401C4F2020104
:101B10000A6822F4404210430860704741F21C02F8
:101B20000029C4F2020211680CBF21EA0000084338
:101B30001060704741F218020029C4F202021168D5
:101B40000CBF21EA000008431060704741F20C020C
:101B50000029C4F2020211680CBF21EA0000084308
:101B60001060704780B541F2040EC4F2020EDEF838
:101B7000002002F00C0341F20022C0F27A02082B8E
:101B80001FD1DEF80030C3F3834303F1020CDEF80B
:101B9000003013F4803F06D140F60012C0F23D023F
:101BA0000CFB02F20DE0DEF8003013F4003F02D12E
:101BB0000CFB02F205E040F60012C0F23D020CFB05
:101BC00002F2026049F2C011DEF80030C0F60001F6
:101BD000C3F30313CB5CDA404260DEF80030C3F39A
:101BE0000223CB5C22FA03F38360DEF80030C3F3F8
:101BF000C223C95C49F2BC13C0F6000322FA01F10A
:101C0000C160DEF80020C2F381329A5CB1FBF2F1D0
:101C1000016180BD2DE9F04F81B040F6044A0746CE
:101C200048F2A81901261C4615468846C4F2010A46
:101C3000C4F22129DAF8000020F47040CAF800004C
:101C4000DAF8000040F44050CAF800000420C9F857
:101C50000460C9F8006002F059FB4FF0000B04204B
:101C6000C9F804B002F052FB7F00C9F800B0F8B226
:101C7000FFF796FDFFF75AFED0B1DAF8000020F426
:101C80007040CAF80000DAF8000040F44050CAF88A
:101C900000000420C9F800B0C9F804B002F036FB17
:101CA0000420C9F80060C9F8046002F02FFB51E07D
:101CB0004046FFF775FDFFF739FEDAF8000020F423
:101CC0007040CAF80000DAF8000040F44050CAF84A
:101CD00000000420C9F80460C9F8006002F016FB97
:101CE0000420C9F804B002F011FB47F00100C9F864
:101CF00000B0C0B2FFF754FDFFF718FE05E000BFCB
:101D0000FFF786FC04F8010B013DE8B2012803D07F
:101D100020B10120F4E700BF0020F1E7DAF800006D
:101D2000002620F47040CAF80000DAF8000040F401
:101D30004050CAF800000420C9F80060C9F80460E7
:101D400002F0E4FA0120C9F80000C9F804000420F8
:101D500002F0DCFA304601B0BDE8F08F4EF210011F
:101D60000428CEF200010A6822F0040308BF42F002
:101D700004030B607047000082B041F204000022AF
:101D8000C4F20200CFF6FF0250F8041C41F001013A
:101D900040F8041C016811404FF6FF720160CFF655
:101DA000F66250F8041C114040F8041C50F8041C62
:101DB00021F4802140F8041C016821F4FE01016037
:101DC0004FF41F01416000210191009150F8041C63
:101DD00041F4803140F8041C50F8041C01F4003137
:101DE0000091019901310191009919B90199B1F559
:101DF000A06FF1D150F8041C11F4003F0CBF00217A
:101E0000012100910099012958D1D0F8FC1F41F01F
:101E10001001C0F8FC1FD0F8FC1F21F00301C0F82E
:101E2000FC1FD0F8FC1F41F00201C0F8FC1F016844
:101E3000016001680160016841F48061016001682E
:101E400021F47C110160016841F4E811016050F84F
:101E5000041C41F0807140F8041C00BF50F8041CC1
:101E600011F0007F0ED150F8041C11F0007F09D151
:101E700050F8041C11F0007F04D150F8041C11F03C
:101E8000007FEBD0016821F003010160016841F09F
:101E900002010160016801F00C0108290ED00168FF
:101EA00001F00C01082909D0016801F00C01082992
:101EB00004D0016801F00C010829EBD14EF608505E
:101EC0004FF00061CEF20000016002B070470000E8
:101ED00010B54FF08040012100F0D0F8012818BF64
:101EE00010BD4FF08040012100F092F840F25C14E8
:101EF000C2F200042068632811DC02F033F840F2DB
:101F0000CC01C2F20001086040F2C801C2F2000137
:101F10000A681044086020680130206039E06428B5
:101F200037D140F2C8020021C2F2000221601068DD
:101F3000116006F013FE0024C4F2C824214606F006
:101F4000DBFC40F2C401C2F200010860214606F049
:101F5000D3FC06F0E3FB46F266634FF06632C4F250
:101F6000270306F08CFC40F2C0010028C2F20001F9
:101F700018BF01200A68B2FA82F2520910400860C4
:101F800040F28010C4F223200168B1FA81F14909BE
:101F9000016040F2BC0040F2A00140F2D002C2F267
:101FA0000000C2F20001C2F2000203F0FDF802F0EC
:101FB0002BF840F29C01C2F20001086002F01CF80C
:101FC00040F29801C2F20001086010BD40F21040DA
:101FD000C4F200000188018821F0010101807047EE
:101FE00040F61000C4F200000188018821F00101D0
:101FF000018070470288002942F0800308BF22F068
:102000008003038070470000C943018270470000CD
:10201000C9430182704700000288002942F0010391
:1020200008BF22F00103038070470000B0F844208D
:10203000002913466FF3DF3318BF42F40043A0F8C2
:102040004430704780B5B0F808C02CF0070C41EA66
:102050000C01B0F818C0B0F820E001814FF6FC4147
:102060000CEA010C40F2011141EA0C01018342EA41
:1020700003112EF022021143018480BD028A0A401E
:1020800018BF01228089084018BF01201040704706
:1020900070B50B88042B2AD0002B56D1B1F802C0A2
:1020A0000A898B88068C40F6FF354FF6FC74C4F223
:1020B000000526F0010643EA02130246A842068400
:1020C00032F8186FB0F820E026F0F30643EA060372
:1020D0006DDCB0F1804F7DD040F20045C4F20005C8
:1020E000A84277D040F60005C4F200056FE00E89E3
:1020F0004B888A88058C40F6FF44360325F010058E
:1021000046EA02260584024632F8185FB0F820E05D
:10211000254046EA050C40F6FF356FF00306C4F291
:102120000005A6F1AD04A84262DCB0F1804F71D089
:1021300040F20045C4F20005A8426BD040F600050D
:10214000C4F20005A84265D068E00A898C884E88F0
:10215000058C082B71D125F48073038444EA0213A3
:10216000024632F81C5FB0F820E025F0F30543EAA0
:10217000050C6FF4405303F5145440F6FF33C4F2DA
:102180000003984200F38180B0F1804F00F08F800F
:1021900040F20043C4F20003984200F0888040F609
:1021A0000003C4F20003984200F0818084E040F60E
:1021B0000045C4F20005A8420CD042F60045C4F226
:1021C0000105A84206D043F20045C4F20105A84229
:1021D00018BF083C03830EEA040343EA0C0343F0F0
:1021E00001030384C988038B23F00C03038394E069
:1021F00040F60045C4F20005A8420BD043F200456A
:10220000C4F20105A84205D042F60045C4F201051A
:10221000A84203D14FF6FC741B012D3C0EEA0406C4
:10222000A0F818C0334343F010030384C988038B1C
:1022300023F44063090203836FE025F48053120303
:10224000038442EA0423024640F6FF4432F81C5F4E
:10225000B0F820C0254046F6FF5443EA050E40F68C
:10226000FF33C4F20003984234DCB0F1804F43D016
:1022700040F20043C4F2000398423DD040F6000310
:10228000C4F20003984237D039E040F60043C4F26C
:10229000000398420BD043F20043C4F2010398427A
:1022A00005D042F60043C4F20103984204D14CF633
:1022B000FF73360203F534540EEA0403A0F81CC081
:1022C000334343F480730384C988838B23F00C0366
:1022D000838322E040F60043C4F2000398420BD00F
:1022E00043F20043C4F20103984205D042F6004392
:1022F000C4F20103984202D136034CF6FF740CEA93
:102300000403A0F81CE0334343F480530384C988DA
:10231000838B23F440630902838310880843108071
:1023200070BD000000210122016042600181704700
:10233000002A82890CBF22EA010111438181704782
:1023400010B5028C22F480720284048CB0F804E090
:10235000838B0A8823F0730343EA020C0B8924F46D
:10236000007242EA03224B8842EA032243F200430E
:10237000C4F20103984205D042F60043C4F20103BF
:10238000984212D18B892EF4405422F4406244EAE0
:102390000313CC8943EA041E4B8940F2FF441B021D
:1023A000A3431A438B8842EA0322A0F804E0A0F872
:1023B0001CC0C9888187028410BD0000828B22F076
:1023C000080211438183704710B5028C22F48052B9
:1023D0000284048CB0F804E0828B0B8822F4E6427D
:1023E00042EA032C0B8924F4005242EA03324B8860
:1023F00042EA033343F20042C4F20102904205D0A4
:1024000042F60042C4F20102904204D18A892EF4BD
:10241000804444EA821EA0F804E0A0F81CC0C988E9
:10242000A0F84010038410BD828B22F4006242EABF
:1024300001218183704700008184704740F6FF339B
:10244000B0F800C0C4F2000398420FDCB0F1804F36
:102450001ED040F20043C4F20003984218D040F668
:102460000003C4F20003984212D016E040F6004385
:10247000C4F2000398420BD043F20043C4F20103BC
:10248000984205D042F60043C4F20103984204D1B9
:102490004B882CF0700243EA020C41F2004240F4F7
:1024A0008063C4F20002934204D0CB882CF44072C3
:1024B00043EA020CA0F800C08A8882850A88028557
:1024C000A0F18042A2F596324FEAB222072A07D83D
:1024D000012303FA02F212F0E50F1CBF097A01860C
:1024E00001218182704700004FF6FF714160002199
:1024F000016001727047000043F6000040F2255170
:10250000C4F2010000F00AB88289002942F40053A5
:1025100008BF22F4005383817047000001F01F02BE
:10252000012303FA02F2C1F34213022B06D0012B5E
:1025300014BF00F1140300F10C0301E000F11003DB
:102540001B88090A1A404FF0010318BF01220088B6
:1025500003FA01F1084018BF012010407047000045
:1025600001F01F0C012303FA0CFCC1F342131421E8
:10257000022B08BF1021012B08BF0C21002A425852
:102580000CBF22EA0C0242EA0C02425070470000E3
:1025900070B586B00446008A0D46C98801AE20F4A5
:1025A000405008434EF6F3112082A0890840A988C4
:1025B00008432989084369890843A081A08AA98919
:1025C00020F440700843A0823046FFF7CBFA43F670
:1025D000000106F108000222C4F201018C424FF012
:1025E000190108BF06F10C00042600684843A189C0
:1025F000A2EBD1312A6802FA01F1B0FBF1F048F206
:102600001F51C5F2EB11A0FB01235A096FF06303C0
:1026100002FB0300A389A6EBD336B0403230A0FB07
:102620000101072040EA133080F0080000EA511051
:1026300040EA0210208106B070BD0000FEE70000F5
:10264000B0B50C460546FFF733F9FEF7BFFFD220C1
:10265000FFF7A6F8FFF76AF918B1FFF747F901206D
:10266000B0BD2846FFF79CF8FFF760F92046FFF75A
:1026700097F8FFF75BF90446002818BF0124FFF71D
:1026800035F92046B0BD00002DE9F04F81B040F68D
:10269000044A074648F2A81901241D4616468846F2
:1026A000C4F2010AC4F22129DAF8000020F47040D3
:1026B000CAF80000DAF8000040F44050CAF8000000
:1026C0000420C9F80440C9F8004001F01FFE4FF093
:1026D000000B0420C9F804B001F018FE7800C9F816
:1026E00000B0C0B2FFF75CF8FFF720F9D0B1DAF81C
:1026F000000020F47040CAF80000DAF8000040F44E
:102700004050CAF800000420C9F800B0C9F804B06D
:1027100001F0FCFD0420C9F80040C9F8044001F0B4
:10272000F5FD49E04046FFF73BF8FFF7FFF856B1EB
:10273000002400BF285DFFF733F8FFF7F7F8F8B97A
:102740000134B442F6D3DAF80000002420F47040DB
:10275000CAF80000DAF8000040F44050CAF800005F
:102760000420C9F80040C9F8044001F0CFFD012061
:10277000C9F80000C9F80400042001F0C7FD1BE0FF
:10278000DAF8000020F47040CAF80000DAF800001F
:1027900040F44050CAF800000020C9F80000C9F811
:1027A0000400042001F0B2FD01240420C9F8004017
:1027B000C9F8044001F0AAFD204601B0BDE8F08F41
:1027C00010B50446000A00F07FFFE0B2BDE81040FB
:1027D00000F07ABF10B586B0012001210124FFF777
:1027E0009DF940F2671003A9039040F2E73004908E
:1027F0004FF08040FFF722FE4FF080400121FFF7AD
:1028000003FC4FF0804001210122FFF791FD4FF4BE
:10281000A060FFF76FF900208DF806001C20ADF8CE
:10282000040001A80294FFF735F94FF08040012120
:10283000FFF7F2FB06B010BD2DE9F04F9FB044F258
:1028400056413A20002543F6742249F2D01B562403
:102850000DF14008C4F2441111900F95C0F6000B21
:10286000109146F65011C3F67421CDE90D5146F68C
:102870005271C3F66C21CDE90B5146F25911C3F6E2
:102880007721CDE9090146F24C5046F645610592A3
:1028900046F65212C7F26640C6F66371C6F6670284
:1028A000089046F2645006910492C2F272000790BA
:1028B000CDE9021045F00701A8B20F2300278AB224
:1028C000002101F0A1FAA4F12000C0B20BEB00142A
:1028D000E65D16F0010F0CBF4FF6FF700020FFF70A
:1028E0006FFFB00754BF4FF6FF700020FFF768FF7F
:1028F000700754BF4FF6FF700020FFF761FF3007ED
:1029000054BF4FF6FF700020FFF75AFFF00654BF88
:102910004FF6FF700020FFF753FFB00654BF4FF68D
:10292000FF700020FFF74CFF700654BF4FF6FF709A
:102930000020FFF745FF300654BF4FF6FF70002020
:10294000FFF73EFF0137102FC2D118F8014F0835AD
:10295000002CAFD1002550240DF1380845F00701B7
:10296000A8B21F238AB2102101F04EFAA4F1200070
:102970000024C0B20BEB00173E5D16F0010F0CBF38
:102980004FF6FF700020FFF71BFFB00754BF4FF654
:10299000FF700020FFF714FF700754BF4FF6FF7061
:1029A0000020FFF70DFF300754BF4FF6FF700020E7
:1029B000FFF706FFF00654BF4FF6FF700020FFF749
:1029C000FFFEB00654BF4FF6FF700020FFF7F8FE81
:1029D000700654BF4FF6FF700020FFF7F1FE30067F
:1029E00054BF4FF6FF700020FFF7EAFE0134102CB1
:1029F000C2D118F8014F0835002CAFD10025522460
:102A00000DF1300845F00701A8B22F238AB220212A
:102A100001F0FAF9A4F120000024C0B20BEB00177A
:102A20003E5D16F0010F0CBF4FF6FF700020FFF760
:102A3000C7FEB00754BF4FF6FF700020FFF7C0FE7F
:102A4000700754BF4FF6FF700020FFF7B9FE300744
:102A500054BF4FF6FF700020FFF7B2FEF00654BFE0
:102A60004FF6FF700020FFF7ABFEB00654BF4FF6E5
:102A7000FF700020FFF7A4FE700654BF4FF6FF70F2
:102A80000020FFF79DFE300654BF4FF6FF70002078
:102A9000FFF796FE0134102CC2D118F8014F08350B
:102AA000002CAFD1002559240DF1280845F007016D
:102AB000A8B23F238AB2302101F0A6F9A4F1200088
:102AC0000024C0B20BEB00173E5D16F0010F0CBFE7
:102AD0004FF6FF700020FFF773FEB00754BF4FF6AC
:102AE000FF700020FFF76CFE700754BF4FF6FF70B9
:102AF0000020FFF765FE300754BF4FF6FF7000203F
:102B0000FFF75EFEF00654BF4FF6FF700020FFF7A0
:102B100057FEB00654BF4FF6FF700020FFF750FE7F
:102B2000700654BF4FF6FF700020FFF749FE3006D5
:102B300054BF4FF6FF700020FFF742FE0134102C07
:102B4000C2D118F8014F0835002CAFD1002545241B
:102B50000DF1180845F00701A8B24F238AB24021B1
:102B600001F052F9A4F120000024C0B20BEB0017D1
:102B70003E5D16F0010F0CBF4FF6FF700020FFF70F
:102B80001FFEB00754BF4FF6FF700020FFF718FE7E
:102B9000700754BF4FF6FF700020FFF711FE30079B
:102BA00054BF4FF6FF700020FFF70AFEF00654BF37
:102BB0004FF6FF700020FFF703FEB00654BF4FF63C
:102BC000FF700020FFF7FCFD700654BF4FF6FF704A
:102BD0000020FFF7F5FD300654BF4FF6FF700020D0
:102BE000FFF7EEFD0134102CC2D118F8014F083563
:102BF000002CAFD1002545240DF1080845F0070150
:102C0000A8B25F238AB2502101F0FEF8A4F120009F
:102C10000024C0B20BEB00173E5D16F0010F0CBF95
:102C20004FF6FF700020FFF7CBFDB00754BF4FF603
:102C3000FF700020FFF7C4FD700754BF4FF6FF7010
:102C40000020FFF7BDFD300754BF4FF6FF70002096
:102C5000FFF7B6FDF00654BF4FF6FF700020FFF7F8
:102C6000AFFDB00654BF4FF6FF700020FFF7A8FD80
:102C7000700654BF4FF6FF700020FFF7A1FD30062D
:102C800054BF4FF6FF700020FFF79AFD0134102C5F
:102C9000C2D118F8014F0835002CAFD140F2C40062
:102CA0000021C2F20000C4F2C821006805F024FE31
:102CB00005F034FD02460B460DF14A000FF60021E7
:102CC000FDF7E8FA9DF84A40002C5BD028250DF16D
:102CD0004A0800BF45F00701A8B20F2300278AB2B7
:102CE000002101F091F8A4F12000C0B20BEB001418
:102CF000E65D16F0010F0CBF4FF6FF704FF4784001
:102D0000FFF75EFDB00754BF4FF6FF704FF47840F9
:102D1000FFF756FD700754BF4FF6FF704FF4784031
:102D2000FFF74EFD300754BF4FF6FF704FF4784069
:102D3000FFF746FDF00654BF4FF6FF704FF47840A2
:102D4000FFF73EFDB00654BF4FF6FF704FF47840DA
:102D5000FFF736FD700654BF4FF6FF704FF4784012
:102D6000FFF72EFD300654BF4FF6FF704FF478404A
:102D7000FFF726FD0137102FBAD118F8014F08359B
:102D8000002CA7D1562450250DF14A08ADF84A4031
:102D900045F00701A8B20F2300278AB2002101F0F5
:102DA00033F8A4F12000C0B20BEB0014E65D16F07E
:102DB000010F0CBF4FF6FF704FF47840FFF700FD96
:102DC000B00754BF4FF6FF704FF47840FFF7F8FCA0
:102DD000700754BF4FF6FF704FF47840FFF7F0FCD8
:102DE000300754BF4FF6FF704FF47840FFF7E8FC10
:102DF000F00654BF4FF6FF704FF47840FFF7E0FC49
:102E0000B00654BF4FF6FF704FF47840FFF7D8FC80
:102E1000700654BF4FF6FF704FF47840FFF7D0FCB8
:102E2000300654BF4FF6FF704FF47840FFF7C8FCF0
:102E30000137102FBAD118F8014F0835002CA7D14F
:102E400040F2A000C2F20000006805F067FC0B46EB
:102E50004AF2FF3102460DF14A00C0F60001FDF7CB
:102E600019FA9DF84A40002C52D020250DF14A084D
:102E700045F00701A8B21F238AB2102100F0C4FF59
:102E8000A4F120000024C0B20BEB00173E5D16F049
:102E9000010F0CBF4FF6FF701F20FFF791FCB0072A
:102EA00054BF4FF6FF701F20FFF78AFC700754BF16
:102EB0004FF6FF701F20FFF783FC300754BF4FF61B
:102EC000FF701F20FFF77CFCF00654BF4FF6FF7029
:102ED0001F20FFF775FCB00654BF4FF6FF701F2090
:102EE000FFF76EFC700654BF4FF6FF701F20FFF710
:102EF00067FC300654BF4FF6FF701F20FFF760FCE1
:102F00000134102CC2D118F8014F0835002CAFD174
:102F100040F2BC00C2F20000006805F0FFFB0B4667
:102F20004AF2FF3102460DF14A00C0F60001FDF7FA
:102F3000B1F99DF84A40002C52D020250DF14A08E5
:102F400045F00701A8B22F238AB2202100F05CFFD0
:102F5000A4F120000024C0B20BEB00173E5D16F078
:102F6000010F0CBF4FF6FF701F20FFF729FCB007C1
:102F700054BF4FF6FF701F20FFF722FC700754BFAD
:102F80004FF6FF701F20FFF71BFC300754BF4FF6B2
:102F9000FF701F20FFF714FCF00654BF4FF6FF70C0
:102FA0001F20FFF70DFCB00654BF4FF6FF701F2027
:102FB000FFF706FC700654BF4FF6FF701F20FFF7A7
:102FC000FFFB300654BF4FF6FF701F20FFF7F8FBE2
:102FD0000134102CC2D118F8014F0835002CAFD1A4
:102FE00040F2D000C2F20000006805F097FB0B46EB
:102FF0004AF2FF3102460DF14A00C0F60001FDF72A
:1030000049F99DF84A40002C52D020250DF14A087C
:1030100045F00701A8B23F238AB2302100F0F4FE48
:10302000A4F120000024C0B20BEB00173E5D16F0A7
:10303000010F0CBF4FF6FF701F20FFF7C1FBB00759
:1030400054BF4FF6FF701F20FFF7BAFB700754BF45
:103050004FF6FF701F20FFF7B3FB300754BF4FF64A
:10306000FF701F20FFF7ACFBF00654BF4FF6FF7058
:103070001F20FFF7A5FBB00654BF4FF6FF701F20BF
:10308000FFF79EFB700654BF4FF6FF701F20FFF73F
:1030900097FB300654BF4FF6FF701F20FFF790FBE1
:1030A0000134102CC2D118F8014F0835002CAFD1D3
:1030B00040F29805682040216F224F23C2F200059C
:1030C0002C6800F0A1FE002C26DB00244FF6FF70D8
:1030D000FFF776FB4FF6FF70FFF772FB4FF6FF70BE
:1030E000FFF76EFB4FF6FF70FFF76AFB4FF6FF70BE
:1030F000FFF766FB4FF6FF70FFF762FB4FF6FF70BE
:10310000FFF75EFB4FF6FF70FFF75AFB0134A0B2EA
:103110001028DBD32D884BE0002600BF0BEB060008
:1031200090F8D04014F0010F0CBF4FF6FF7047F637
:103130000F00FFF745FBA00754BF4FF6FF7047F69F
:103140000F00FFF73DFB600754BF4FF6FF7047F6D7
:103150000F00FFF735FB200754BF4FF6FF7047F60F
:103160000F00FFF72DFBE00654BF4FF6FF7047F648
:103170000F00FFF725FBA00654BF4FF6FF7047F680
:103180000F00FFF71DFB600654BF4FF6FF7047F6B8
:103190000F00FFF715FB200654BF4FF6FF7047F6F0
:1031A0000F00FFF70DFB0136102EB7D128684542FE
:1031B00040F29C067020502177225F23C2F2000665
:1031C000346800F021FE002C26DB00244FF6FF704F
:1031D000FFF7F6FA4FF6FF70FFF7F2FA4FF6FF70BF
:1031E000FFF7EEFA4FF6FF70FFF7EAFA4FF6FF70BF
:1031F000FFF7E6FA4FF6FF70FFF7E2FA4FF6FF70BF
:10320000FFF7DEFA4FF6FF70FFF7DAFA0134A0B2EB
:103210001028DBD330884BE0002700BF0BEB070002
:1032200090F8D04014F0010F0CBF4FF6FF7047F636
:103230000F00FFF7C5FAA00754BF4FF6FF7047F61F
:103240000F00FFF7BDFA600754BF4FF6FF7047F657
:103250000F00FFF7B5FA200754BF4FF6FF7047F68F
:103260000F00FFF7ADFAE00654BF4FF6FF7047F6C8
:103270000F00FFF7A5FAA00654BF4FF6FF7047F600
:103280000F00FFF79DFA600654BF4FF6FF7047F638
:103290000F00FFF795FA200654BF4FF6FF7047F670
:1032A0000F00FFF78DFA0137102FB7D13068404279
:1032B000AFB2002642F210780025019054E077204A
:1032C00040214F2300EBC60082B206F10E00C00081
:1032D00080B200F099FD00241BF8045015F0010F96
:1032E0000CBF4FF6FF7047F60F00FFF769FAA8070B
:1032F00054BF4FF6FF7047F60F00FFF761FA6807FB
:1033000054BF4FF6FF7047F60F00FFF759FA280732
:1033100054BF4FF6FF7047F60F00FFF751FAE8066B
:1033200054BF4FF6FF7047F60F00FFF749FAA806A3
:1033300054BF4FF6FF7047F60F00FFF741FA6806DB
:1033400054BF4FF6FF7047F60F00FFF739FA280613
:1033500054BF4FF6FF7047F60F00FFF731FA013404
:10336000102CB9D10025A2E0F0B2042802D101202E
:1033700026E000BFC6F10302C6F10400D2B200F09D
:103380000301032A02D2012049B919E0421A01209F
:10339000043A00FB08F012F0FF0FF9D181B10129C6
:1033A00003D100EB800040000AE04FF47A7202295A
:1033B0004FF0640100FB02F208BF00FB01F210466F
:1033C0004CF6CD41B7FBF0F0032ECCF6CC41A0FB80
:1033D00001124FEAD20101EB8101A0EB410405D8B3
:1033E000280603D1002C3FF46AAF01257720402145
:1033F0004F2300EBC60082B206F10E00C00080B27F
:1034000000F002FD44F010004FF000090BEB001437
:1034100014F809A01AF0010F0CBF4FF6FF7047F621
:103420000F00FFF7CDF95FEA8A7054BF4FF6FF70C7
:1034300047F60F00FFF7C4F95FEA4A7054BF4FF632
:10344000FF7047F60F00FFF7BBF95FEA0A7054BF41
:103450004FF6FF7047F60F00FFF7B2F95FEACA6058
:1034600054BF4FF6FF7047F60F00FFF7A9F95FEA68
:103470008A6054BF4FF6FF7047F60F00FFF7A0F9C0
:103480005FEA4A6054BF4FF6FF7047F60F00FFF740
:1034900097F95FEA0A6054BF4FF6FF7047F60F00D6
:1034A000FFF78EF909F10109B9F1100FB0D101361A
:1034B000052E7FF459AF0198002742F210754FF0A6
:1034C00000091FFA80FA05E00137052F04BF1FB07D
:1034D000BDE8F08FF8B2042802D1012026E000BF39
:1034E000C7F10302C7F10400D2B200F00301032ABE
:1034F00002D2012041B919E0421A0120043A68437E
:1035000012F0FF0FFAD189B1012903D100EB80003D
:1035100040000BE04FF47A7202294FF0640100FB87
:1035200002F208BF00FB01F2104600BF4CF6CD418D
:10353000BAFBF0F0032FCCF6CC41A0FB01124FEA0E
:10354000D20101EB8101A0EB410406D85FEA0960DA
:1035500003D1002C5DD04FF001097F2050215F2363
:1035600000EBC70082B207F10F00C00080B200F08C
:103570004BFC44F010004FF000080BEB001400BFB0
:1035800014F8086016F0010F0CBF4FF6FF7047F6F5
:103590000F00FFF715F9B00754BF4FF6FF7047F65D
:1035A0000F00FFF70DF9700754BF4FF6FF7047F695
:1035B0000F00FFF705F9300754BF4FF6FF7047F6CD
:1035C0000F00FFF7FDF8F00654BF4FF6FF7047F607
:1035D0000F00FFF7F5F8B00654BF4FF6FF7047F63F
:1035E0000F00FFF7EDF8700654BF4FF6FF7047F677
:1035F0000F00FFF7E5F8300654BF4FF6FF7047F6AF
:103600000F00FFF7DDF808F10108B8F1100FB7D18E
:103610005AE77F2050215F2300EBC70082B207F1F9
:103620000F00C00080B200F0EFFB00241BF8046024
:1036300016F0010F0CBF4FF6FF7047F60F00FFF7B3
:10364000BFF8B00754BF4FF6FF7047F60F00FFF703
:10365000B7F8700754BF4FF6FF7047F60F00FFF73B
:10366000AFF8300754BF4FF6FF7047F60F00FFF773
:10367000A7F8F00654BF4FF6FF7047F60F00FFF7AC
:103680009FF8B00654BF4FF6FF7047F60F00FFF7E4
:1036900097F8700654BF4FF6FF7047F60F00FFF71C
:1036A0008FF8300654BF4FF6FF7047F60F00FFF754
:1036B00087F80134102CB9D14FF0000904E700BF9E
:1036C00025342E3266000000B0B541F600040546F0
:1036D0000221C4F201042046FDF772FF20460821B2
:1036E000FDF76EFF68B2B0F1FF3F04DD20462021F8
:1036F000FDF766FF03E020462021FDF763FF20462B
:103700000821FDF75FFF20460821FDF759FF6806F5
:1037100004D420462021FDF753FF03E0204620215A
:10372000FDF750FF20460821FDF74CFF20460821F9
:10373000FDF746FFA80604D420462021FDF740FFF0
:1037400003E020462021FDF73DFF20460821FDF73C
:1037500039FF20460821FDF733FFE80604D4204650
:103760002021FDF72DFF03E020462021FDF72AFF51
:1037700020460821FDF726FF20460821FDF720FFFF
:10378000280704D420462021FDF71AFF03E0204635
:103790002021FDF717FF20460821FDF713FF2046E3
:1037A0000821FDF70DFF680704D420462021FDF70E
:1037B00007FF03E020462021FDF704FF20460821F3
:1037C000FDF700FF20460821FDF7FAFEA80704D404
:1037D00020462021FDF7F4FE03E020462021FDF7DE
:1037E000F1FE20460821FDF7EDFE20460821FDF7F9
:1037F000E7FEE80704D120462021FDF7E1FE03E0C3
:1038000020462021FDF7DEFE20460821FDF7DAFEE6
:1038100020460221BDE8B040FDF7D4BE70B58AB0A5
:103820004FF4047001210125FEF784F94FF40040A4
:10383000FEF76AF942F200440026022001A9C4F210
:1038400001040396ADF80400A4F5A050FDF70AFDAD
:103850002046FDF73FFB4FF46020CDE90466069655
:1038600004A9CDE9070620468DF82450FDF774FB26
:1038700020460121FDF724FB2046FDF7CBFB00BFCE
:103880002046FDF765FB0028FAD12046FDF7D2FB64
:103890002046FDF74FFB0028FAD10AB070BD0000AA
:1038A00010B584B041F218000124C4F2020001688E
:1038B00041F011010160012000F028FD10200121DC
:1038C000FEF738F94820ADF8044001A90390032021
:1038D000029041F20000C4F20100FDF7C3FC04B005
:1038E00010BD000010B500F015FA41F600041021DB
:1038F000C4F201042046FDF763FE642000F0D8FC0A
:1039000020461021FDF75EFE642000F0D1FC204629
:103910004021FDF757FE642000F0CAFC2046042138
:10392000FDF74EFE1120FFF7CFFE20460421FDF7E4
:1039300049FE782000F0BCFC20460421FDF740FE43
:103940003620FFF7C1FE20460421FDF73BFE002094
:10395000FFF7BAFE20460421FDF732FE3A20FFF7BA
:10396000B3FE20460421FDF72DFE0520FFF7ACFE37
:1039700020460421FDF724FEB220FFF7A5FE2046D5
:103980000421FDF71FFE0C20FFF79EFE0C20FFF721
:103990009BFE0020FFF798FE3320FFF795FE3320B3
:1039A000FFF792FE20460421FDF70AFEB720FFF73D
:1039B0008BFE20460421FDF705FE3520FFF784FE2F
:1039C00020460421FDF7FCFDBB20FFF77DFE2046CD
:1039D0000421FDF7F7FD3220FFF776FE2046042193
:1039E000FDF7EEFDC220FFF76FFE20460421FDF734
:1039F000E9FD0120FFF768FE20460421FDF7E0FD08
:103A0000C320FFF761FE20460421FDF7DBFD1520F2
:103A1000FFF75AFE20460421FDF7D2FDC420FFF730
:103A200053FE20460421FDF7CDFD2020FFF74CFE7C
:103A300020460421FDF7C4FDC620FFF745FE2046C1
:103A40000421FDF7BFFD0F20FFF73EFE20460421B5
:103A5000FDF7B6FDD020FFF737FE20460421FDF725
:103A6000B1FDA420FFF730FEA120FFF72DFE204678
:103A70000421FDF7A5FDE020FFF726FE20460421E6
:103A8000FDF7A0FDD020FFF71FFE0820FFF71CFE6A
:103A90000E20FFF719FE0920FFF716FE0920FFF799
:103AA00013FE0520FFF710FE3120FFF70DFE332037
:103AB000FFF70AFE4820FFF707FE1720FFF704FE76
:103AC0001420FFF701FE1520FFF7FEFD3120FFF760
:103AD000FBFD3420FFF7F8FD20460421FDF770FDC3
:103AE000E120FFF7F1FD20460421FDF76BFDD0201A
:103AF000FFF7EAFD0820FFF7E7FD0E20FFF7E4FDE2
:103B00000920FFF7E1FD0920FFF7DEFD1520FFF793
:103B1000DBFD3120FFF7D8FD3320FFF7D5FD48202E
:103B2000FFF7D2FD1720FFF7CFFD1420FFF7CCFDE4
:103B30001520FFF7C9FD3120FFF7C6FD3420FFF740
:103B4000C3FD20460421FDF73BFD2120FFF7BCFD0E
:103B500020460421FDF736FD20460421FDF730FD07
:103B60002920FFF7B1FD20460421BDE81040FDF7F4
:103B700029BD000070B584B041F218060124C4F2DA
:103B80000206306840F045003060012000F0BEFBC6
:103B900040200121FDF7CEFF40F60005102001A9CD
:103BA000C4F201050390ADF80440032005F58054EC
:103BB00002902046FDF756FB20462021FDF702FD2E
:103BC000286820F001002860286820F002002860A2
:103BD000286840F003002860286820F01000286062
:103BE000286820F020002860286840F03000286015
:103BF000286820F480702860286820F4007028600D
:103C0000286840F440702860286820F480502860BC
:103C1000286820F400502860286840F4405028604C
:103C2000286820F004002860286820F00800286038
:103C3000286840F00C002860286820F040002860C8
:103C4000286820F080002860286840F0C0002860C4
:103C5000286820F480602860286820F400602860CC
:103C6000286840F440602860286820F4804028607C
:103C7000286820F400402860286840F4004028604C
:103C8000706840F008007060012000F03FFB40F2D7
:103C900028400921CFF6FF70295240F22C4042F211
:103CA0001071CFF6FF70295240F2184047F66801B4
:103CB000CFF6FF70295240F21C4047F67801CFF64C
:103CC000FF70295240F240400021CFF6FF70295288
:103CD00040F23C41285ACFF6FF716852685A40F2D0
:103CE0003841CFF6FF716852685A40F23441CFF63E
:103CF000FF71685240F2204041F21111CFF6FF707F
:103D0000295240F200408121CFF6FF70295204B0C1
:103D100070BD000070B584B040200121FDF70AFF9E
:103D200041F600041026022001AD0396ADF8040010
:103D30000320C4F20104294602902046FDF792FABE
:103D400020460221FDF73EFC28202946ADF804005C
:103D50002046FDF787FA20462821FDF733FC442052
:103D60002946ADF804002046FDF77CFA204648F2CB
:103D70002001FDF727FC20462946ADF80460FDF739
:103D800071FA20461021FDF71DFC04B070BD000043
:103D900040F2D401C2F20001086040F204000021A8
:103DA000C2F2000001607047B0B584B070200121FC
:103DB000FDF7C0FE102041F6000401AD03904FF462
:103DC0004160C4F201042946ADF8040003200290CA
:103DD000A4F58060FDF746FA4FF480502946ADF80F
:103DE0000400A4F50060FDF73DFA4FF48060294619
:103DF000ADF804002046FDF735FA20464FF4806107
:103E0000FDF7E0FB04B0B0BD2DE9F04141F6000440
:103E10000E460546042198461746C4F20104204682
:103E2000FDF7CEFB2A20FFF74FFC20460421FDF7CB
:103E3000C9FB280AFFF748FCE8B2FFF745FC380A3F
:103E4000FFF742FCF8B2FFF73FFC20460421FDF7E4
:103E5000B7FB2B20FFF738FC20460421FDF7B2FB0F
:103E6000300AFFF731FCF0B2FFF72EFC4FEA1820C2
:103E7000FFF72AFC5FFA88F0FFF726FC20460421B2
:103E8000FDF79EFB2C20FFF71FFC20460421BDE818
:103E9000F041FDF797BB0000F0B58BB041F2180080
:103EA000C4F20200016841F400610160012000F0E9
:103EB0002DFA42F63C4601200027C4F20106378065
:103EC000B78000F023FAC0200121C0F21600FDF7F0
:103ED00039FB4FF400600121FDF72CFE4120012148
:103EE000FDF728FE032042F6004408A90990182097
:103EF000C4F201040A904FF4C040ADF82000A4F5CC
:103F0000A050FDF7AFF941F61F4005A9CDE90570B6
:103F10002046FEF793FA602001ADC0F20100294669
:103F200001902046CDF80A70FEF70AFA20460821D3
:103F3000FEF744FA20462946FEF746FA20460821B5
:103F4000FEF772FA20460121FEF770F820460121A3
:103F5000FEF750F820460121FEF75EF83780B78063
:103F60000BB0F0BD10B542F200440C210122072332
:103F7000C4F201042046FDF719F820460121FDF79F
:103F80004FF800BF20460221FCF7DCFF0028F9D0E3
:103F90002046FCF7D3FF04F05CF846F266634FF06E
:103FA0006632C4F20A0304F0DFF848F2000300228C
:103FB000C4F2670304F0D8F800230022C4F22403FB
:103FC00003F084FE00230022C4F2590304F0CCF86D
:103FD00000230022C3F6307304F0C6F804F00AF898
:103FE00010BD000080B5FDF701FD00BF01F0D0F964
:103FF0000028FBD180BD000040F234110022C2F243
:10400000000108680A60704740F238110022C2F2CD
:10401000000108680A607047B0B58AB0022001212B
:10402000FDF77CFD10200121FDF784FD40F60040E6
:104030000121C0F21A00FDF785FA40F20044042085
:1040400001A90390C020C4F20004ADF8040004F5F7
:104050008630FDF707F907AD2846FEF745FA4FF61B
:10406000FF7029460890002007902046FEF7E6F9E9
:104070002046032100220023FDF7E4FF04AD28467B
:10408000FEF750F90A202946ADF818002046FDF742
:10409000FFFF20460121FDF7B7FF20460121012245
:1040A000FEF746F920460021FEF7C6F92046012119
:1040B000FDF7B2FF0AB0B0BDB0B58AB0042001214F
:1040C0000424FDF72BFD20200121FDF733FD4FF4E3
:1040D00080500121FDF736FA039440F600044FF4B6
:1040E000405001A9C4F20004ADF8040004F5863084
:1040F000FDF7B8F807AD2846FEF7F6F94FF6FF7062
:1041000029460890002007902046FEF797F92046A0
:10411000032100220023FDF795FF04AD2846FEF79A
:1041200001F90A202946ADF818002046FDF7B0FF36
:1041300020460121FDF768FF204601210122FEF7FC
:10414000F7F820460021FEF777F920460121FDF718
:1041500063FF0AB0B0BD0000B0B58AB001242820CA
:104160000694ADF8140005A88DF81640FDF792FCF2
:1041700001200121FDF7DEFC20200121FDF7DAFC02
:104180004FF44055042007A9ADF81C5009900320B6
:10419000089041F20040C4F20100FDF763F80320EB
:1041A0000D21FDF745F800200494019502901020A0
:1041B000039001A8FDF70CF80AB0B0BD70B58AB045
:1041C000012417200694ADF8140005A88DF81640B8
:1041D000FDF760FC01200121FDF7ACFC102001215E
:1041E0001025FDF7A7FCC026042007A9ADF81C6028
:1041F00009900320089041F20000C4F20100FDF78D
:1042000031F802200721FDF713F8002004940196ED
:10421000CDE9020501A8FCF7DBFF0AB070BD000084
:104220002DE9F04381B08146501E154698460E4652
:1042300082B2581E83B24846FFF7E6FD464510D2CB
:10424000089C00BFA94508D24F4600BF2046FEF794
:10425000B7FA0137B8B2A842F8D30136B0B2404538
:10426000F0D301B0BDE8F0837047000080B56FF077
:104270000400FDF773FD40F200004DF6836140F24B
:104280005212C2F20000C4F21B31C2F200020068F6
:10429000A0FB0101480D1070C1F347504FF47A7133
:1042A000484340F25011C2F20001088080BD000076
:1042B00040F25011C2F20001098841434EF2100051
:1042C000CEF20000416000218160016841F00101EF
:1042D000016000BF016801F0011101290ED10168E0
:1042E00001F00111012909D1016801F00111012931
:1042F00004D1016801F001110129EBD0016821F01E
:1043000001010160002181607047000040F25211FC
:10431000C2F20001097841434EF21000CEF20000D3
:10432000416000218160016841F00101016000BF2E
:10433000016801F0011101290ED1016801F001119C
:10434000012909D1016801F00111012904D1016895
:1043500001F001110129EBD0016821F00101016098
:1043600000218160704700002DE9F04186B00446CD
:104370004CF602200DF102050421C0F6E3102A4696
:10438000CDF80200682002F069FBA32014F040067B
:104390006FF05C026FF05C018DF8020018BF6FF0E7
:1043A0003F028DF803206FF05C0218BF6FF03702F8
:1043B0008DF804206FF05C0218BF6FF03D0214F41A
:1043C000C0778DF805206FF05C0218BF6FF03B02DC
:1043D0008DF806206FF05C0218BF6FF033028DF885
:1043E000072018BF6FF039012A468DF808104AF2ED
:1043F000A331ADF809108DF80B0040F6A7200A2173
:1044000002F02CFB14F003086FF027004FF00101BD
:104410002A4618BF20208DF8020040F6B62002F090
:104420001DFB14F0200F0CD1C7208DF8140048F6A6
:10443000B000CCF2C35004904AF6B820CAF6AA20C5
:104440000AE05D20059049F6B400C3F20D500490D7
:104450004AF6B820C8F6B350039003AA4FF4976009
:10446000092102F0FBFA1FB314F480706FF074019D
:104470000DF1020208BF6FF07F0100288DF80310D4
:104480004FF0B00141EAD0118DF802104FF0B401A5
:1044900041EAD01140F6A2208DF804106FF06401BB
:1044A00008BF6FF06F018DF80510042102F0D6FAF5
:1044B000E00708D1D8200DF1020201218DF8020099
:1044C0004FF40B6051E0F8200DF1020201218DF84C
:1044D00002004FF40B6002F0C1FA0720FA2100F04D
:1044E00017FB3F2003AA01218DF80C004FF4A470A4
:1044F00002F0B4FA002003AA01218DF80C0040F26A
:104500004F1002F0ABFA4FF4A05003AD0221ADF80A
:104510000C004FF4EF702A4602F0A0FA4FF4C840A6
:1045200002212A46ADF80C004FF4ED7002F096FA25
:1045300048F6006003AA0421C9F2F90003904FF481
:10454000AE7002F08BFA4FF4006002212A46ADF8FB
:104550000C004FF4AD7002F081FA4FF400700221AC
:104560002A46ADF80C004FF4AC7002F077FA600800
:104570006C210DF1020261F35F0001218DF8020050
:1045800040F23D7002F06AFA600703AA4FF004019E
:1045900052BF4FF08B304CF2C020CCF2C46003907D
:1045A00040F6982002F05AFA01F022FBE00603AA36
:1045B0004FF0040152BF4FF0A33042F62000C3F683
:1045C0003000039040F69E2002F048FA01F010FB04
:1045D00040F2481144F00800002EC2F200010880A9
:1045E00018BF0626002F18BF063614F0140F18BF88
:1045F00046F01006B8F1000F18BF043601F0F8FAC3
:1046000040F24E10C2F200000670002006B0BDE875
:10461000F081000049F2D07140F6F6304FF480622C
:10462000C823C0F6000101F0EDB800002DE9F04FFD
:1046300089B0DDF848908246002014460DF1040B45
:10464000139A88461E465946A9F8000040F24E10BB
:10465000C2F20000007801F075FA20B14FF0FF308F
:1046600009B0BDE8F08F40F24810C2F20000B0F887
:1046700000C01CF0140F52D09DF805209DF80410C6
:104680009DF80630B6469DF80760120442EA0161C3
:1046900041EA03220914324322609DF809309DF853
:1046A00008209DF80A609DF80B501B0443EA026243
:1046B00042EA062312142B435243636001FB01219B
:1046C0009DF80D609DF80C309DF80E509DF80F0080
:1046D000360446EA036343EA05261A14304302FB14
:1046E0000211A0609DF811609DF810009DF8125015
:1046F0009DF81370360446EA006040EA052600146F
:1047000000FB0010374300F17140E760B0F1007F1B
:1047100079D901F06DFA0020A9F800009EE7002188
:104720005FEA4C602AD5C8B241F0060140F00103AF
:104730001BF800201BF8033043EA022240F0030379
:10474000A8F8002040F002021BF802201BF80330FA
:1047500043EA0222A8F8022040F0040240F00500DB
:104760001BF802201BF8000040EA0220A8F8040011
:10477000B9F8000040F00800A9F800001CF4C07F60
:1047800018D0C8B206313BF80020584412BA120CB7
:10479000AAF80020428812BA120CAAF802208088D7
:1047A00000BA000CAAF80400B9F8000040F070004C
:1047B000A9F800005FEA8C701ED0C8B20BEB0005B0
:1047C0006878EC7810F0010F0CD040F23C11C2F286
:1047D00000010A6832B104F00701C4F3C2000131DC
:1047E00090476878000707D540F24010C2F20000F9
:1047F000016809B1A0098847304600F073FC002029
:1048000009B0BDE8F08FB9F800001021764640F4F9
:104810008070A9F800005FEA4C603FF584AFADE717
:10482000B0B584B004460DF1020000F0ABFE40F2DA
:1048300044100C25C2F20000028802F0030012F0BE
:10484000040F05EA520554F8200018BF4042BDF895
:10485000021012F0200F4FEAC133C2F3811183FB23
:1048600000C054F8211064594FEA905E4FEA903529
:104870008DF804E08DF805504FEA90158DF806503C
:1048800018BF644212F4807F83FB04E44FEA94551E
:104890008DF808504FEA94358DF809504FEA941579
:1048A0008DF80A5018BF494283FB0112930D8DF811
:1048B0000C30930B8DF80D3093098DF80E304FEAC4
:1048C0009C7343EA80008DF807004FEA9E7040EA2F
:1048D00084008DF80B00880F0C2140EA820001AAA9
:1048E0008DF80F004FF4257002F0B8F804B0B0BD99
:1048F00010B582B00446C82819D8C8206A460221DB
:10490000B0FBF4F001388DF80100000A8DF80000CA
:1049100040F2162002F0A2F848B94AF2C63240F638
:10492000C1200C21C0F6000202F098F818B14FF037
:10493000FF3002B010BD40F24C10C2F20000048003
:10494000002002B010BD0000F0B581B040F244116B
:104950004EF209370C26C2F20001C0F2CA270988BC
:1049600001F0030211F0040F06EA510650F822206C
:1049700018BF52428659C1F3811511F4807F82FB22
:10498000072350F825504FEA93544FEA93308DF89F
:1049900000408DF801004FEA93108DF802004FEAB5
:1049A00092706A4640EA83008DF8030018BF6D429A
:1049B00011F0200F4FF474704FF0040118BF7642CD
:1049C00002F04CF8B0B986FB07016A46800F40EA56
:1049D0008100010C8DF803008DF80110010E000A12
:1049E0008DF800108DF802004FF47570042102F06C
:1049F00035F818B14FF0FF3001B0F0BD85FB07016D
:104A00006A46800F40EA8100010C8DF803008DF8A2
:104A10000110010E000A8DF800108DF802004FF40D
:104A20007670042102F01AF801B0F0BD10B582B022
:104A30004AF2D5310446C0F3C100C0F600010A5C59
:104A40008DF8052004F003028B5C8DF80430C4F36C
:104A50008113C95C8DF806104AF2D231C0F600010C
:104A60008A5C085C8DF800208DF80100C85C01AA02
:104A700003218DF8020040F2264001F0EFFF50BB09
:104A80006A4640F22A40032101F0E8FF18BB44F2D5
:104A90002660C0F26600009045F23660C0F27600F3
:104AA000019060071BD4A00621D4E00505D567203E
:104AB0008DF8020077208DF8060001AA4FF4886077
:104AC000032101F0CBFF30B96A4640F231400321A7
:104AD00001F0C4FFA0B14FF0FF3002B010BD27209D
:104AE0008DF8000037208DF80400A006DDD54720A2
:104AF0008DF8010057208DF80500E005D7D4DCE7DC
:104B000040F24410C2F200000480002002B010BD48
:104B100070B582B004460D464FF0FF30B1F5C86F56
:104B200052D814F007014FD00DF1030000F00CFD36
:104B3000284604F02BF80021C4F2483103F0DCFED3
:104B400005469DF8030002384FEA70024FF0FF302F
:104B5000072A39D800264FF08D41C4F24066DFE8BD
:104B600002F01504330A3333331000264FF08C4122
:104B7000C4F2C0560AE000264FF08B41C4F2405602
:104B800004E000264FF08A41C4F2C046284604F0F3
:104B900079F803F0C3FF8DF80500000A31468DF85F
:104BA0000400284604F06EF803F0B8FF8DF8070003
:104BB000000A8DF8060001A8851CE00706D1A007B1
:104BC00013D4600720D4002002B070BD01AA4FF4B6
:104BD000EA70022101F042FF28BB4FF492700221DB
:104BE0002A4601F03BFFF0B9E9E701AA4FF4EC7067
:104BF000022101F033FFB0B94FF4947002212A462C
:104C000001F02CFF78B9DCE701AA4FF4EE70022125
:104C100001F024FF38B94FF4967002212A4601F0C2
:104C20001DFF0028CFD04FF0FF3002B070BD000054
:104C300040F2A401C2F200010968002904BF00206B
:104C4000704743F60001C4F2010100BF0A8812F068
:104C5000400F0BD10A8812F0400F07D10A8812F0DA
:104C6000400F03D10A8812F0400FEFD0C2B28A8001
:104C7000704700002DE9F04F83B040F20807054669
:104C8000012016460C466B46ADF80000C2F2000744
:104C9000D7E90002817C10780222FDF7F5FC10B103
:104CA0004FF0FF378CE1C820FFF702FB00206B4676
:104CB0008DF80000D7E90002C17B10780122FDF7D2
:104CC000E3FC10B14FF0FF377AE1D7E900026B4601
:104CD000417910780122FDF7D7FC10B14FF0FF3772
:104CE0006EE1D7E900026B46817C10780122FDF766
:104CF000CBFC10B14FF0FF3762E1D7E900026B4601
:104D0000C17D10780122FDF7BFFC10B14FF0FF37D5
:104D100056E1D7E900026B46017910780122FDF7D0
:104D2000B3FC10B14FF0FF374AE10C206B468DF811
:104D30000000D7E90002017910780122FDF7A4FCF8
:104D400010B14FF0FF373BE10F20FFF7B1FAD7E981
:104D50000010BA6A6B46527A8DF800200122007862
:104D60008978FDF791FC10B14FF0FF3728E1D7E9C2
:104D70000010BA6A6B46127A8DF800200122007882
:104D80004978FDF781FC10B14FF0FF3718E1D7E902
:104D90000010BA6A002E6B46927A18BF42F0E00209
:104DA0008DF80020012200788979FDF76DFC10B1A3
:104DB0004FF0FF3704E1002E6B460FBF1820B86A92
:104DC000C07A60F01F008DF80000D7E90002C179B9
:104DD00010780122FDF758FC10B14FF0FF37EFE0DB
:104DE00016B1C820FFF764FA40206B468DF800002A
:104DF000D7E90002017910780122FDF745FC10B1D6
:104E00004FF0FF37DCE078206B468DF80000D7E9E3
:104E10000002417910780122FDF736FC10B14FF005
:104E2000FF37CDE03220FFF743FA00206B468DF8C4
:104E30000000D7E90002417910780122FDF724FC37
:104E400010B14FF0FF37BBE0D7E900026B46817A23
:104E500010780222FCF7DEFE10B14FF0FF37AFE012
:104E60009DF800009DF801100022C5E90022AA600B
:104E7000C4E90022A26041EA00204AF6AB21CAF64A
:104E8000AA21A0FB0101C1F3C709B9F1000F39D074
:104E90000026E846D7E900024346C17A10780C2282
:104EA000FCF7B8FE002840F08980BDF8000094E8C7
:104EB0000E00013600BA01EB204CBDF80410BDF81D
:104EC000020000BA09BA02EB204003EB2141C4E919
:104ED00000C0A16095E80700BDF806301BBA00EBE2
:104EE000234ABDF80830BDF80A001BBA00BA01EB2E
:104EF000234BF1B202EB20408945C5E900ABA86025
:104F0000C8D802E0D5E900ABA868C1178322002306
:104F10000027090441EA10410004FBF78AF94A46D8
:104F20000023FBF786F9A8604FEAEB708322002389
:104F3000000440EA1B414FEA0B40FBF77AF94A466E
:104F40000023FBF776F968604FEAEA7083220023BA
:104F5000000440EA1A414FEA0A40FBF76AF94A4660
:104F60000023FBF766F928604A460023D4E9006075
:104F7000A568C117490141EAD0614001FBF759F921
:104F80006060F0174A460023400140EAD661700194
:104F9000FBF74FF92060E8174A460023400140EA3A
:104FA000D5616801FBF745F94FF480310028C4BF93
:104FB0000021CFF6FF710844A06001E04FF0FF37F9
:104FC000384603B0BDE8F08F80B582B0FEF7D2FD61
:104FD000FEF788FCFEF764FC4FF6FF700021F0221C
:104FE000F02300900020FFF71BF9FEF7DDFEFEF72F
:104FF00053FFFEF7F7FFFFF70FF8FFF75DF8FFF736
:10500000DDF8FFF7A9F8FDF7E5FBFEF707FC4FF425
:10501000FA3002B0BDE88040AFF300802DE9F041E6
:1050200088B0054644F2040001214FF00108FCF766
:1050300081FD43F60004032005AF06904FF4007095
:10504000C4F201043946ADF814001820A4F5405606
:1050500007903046FCF706F90420394607904FF4D4
:105060008060ADF814003046FCF7FCF80020019594
:1050700001A90290ADF810004FF4402003902046A3
:10508000FDF786FA204640F225510122FDF768FA25
:1050900020460121FDF738FA40F2A400C2F20000D8
:1050A000C0F8008008B0BDE8F081000080B5FCF7D2
:1050B00063FEFFF7DBF80120FCF784FC4FF440703F
:1050C000FCF718FDFFF780FF0020FEF761FE40F2BD
:1050D000A800C2F20000FCF745FD00BFFDF7ACFBE5
:1050E000FCE700007047000070B582B040F2080590
:1050F000C2F2000595F8241019B10024204602B030
:1051000070BDA97A21B300F0FE002E7C01400C1A7C
:10511000297418BF4FF0FF34E8B1687C80B90120D2
:105120000DF107038DF80700D5E90002C17B107867
:105130000122FDF7A9FA002804BF9DF80700687452
:1051400000F056FD00281CBF2E744FF0FF34D5E749
:105150004FF0FF34D2E7287DA0B1687C0028CDD184
:1051600001200DF105038DF80500D5E90002C17B92
:1051700010780122FDF788FA0028BFD19DF80500BC
:105180006874BBE700200DF106038DF80600D5E931
:105190000002C17B10780122FDF776FA0028ADD11C
:1051A0009DF806006874A9E72DE9F04F8DB040F234
:1051B0005A1405460DF12F000F4640F22C111646E9
:1051C00007AA0CABC2F20004C2F20001CDE9004014
:1051D00040F25410C2F20000FFF728FA08B1012093
:1051E000D1E06078C00701D10220CCE0DDE90704FE
:1051F00006960597099E0A9F03F0B0FC4FF04251B6
:1052000003F040FD8046204603F0A8FC4FF04251D9
:1052100003F038FD8146304603F0A0FC4FF04251C8
:1052200003F030FD0446384603F098FC4FF042513D
:1052300003F028FD064648464FF0404103F022FDAA
:1052400031468246039603F01DFD0746404641461F
:10525000CDF8108003F08EFA2146804603F012FD4F
:10526000394603F087FA03F059FA02F0EFF84AF2F0
:1052700066634FF06632C4F24C0302F075FF02F031
:1052800037FC28602046214603F074FA31468346F5
:1052900003F0F8FC05464046494603F0F3FC294676
:1052A00003F068FA03F03AFA05460F4648465146BD
:1052B00003F0E8FC06462046594603F0E3FC0146AD
:1052C000304603F0ABFD4FF07E5103F053FA03F08C
:1052D00025FA02460B462846394602F0FFFA4AF202
:1052E000666A4FF06632C4F24C0A534602F03CFF45
:1052F00002F0FEFB059908604846214603F0C2FC17
:10530000039F049E05463046394603F0BBFC014628
:10531000284603F02FFA014603F02CFA03F0FEF9B9
:10532000054688463046314603F0ACFC0646484602
:10533000494603F0A7FC0146304603F01BFA064637
:105340002046214603F09EFC0146304603F066FDF0
:1053500004463846394603F095FC0146204603F0E2
:105360005DFD03F0DBF902460B462846414602F09C
:10537000B5FA4FF06632534602F0F6FE02F0B8FB83
:10538000069908600020C0B20DB0BDE8F08F0000A3
:1053900070B582B0FCF71EF900F022F9002840F049
:1053A0009A804EA0FAF76AFF782001F0DBFA002815
:1053B00014BF53A05CA0FBF7ADF840F20804C2F2A2
:1053C000000494F8240020B14AF23050C0F60000E6
:1053D00023E0A07AE8B100F07806257C2674607C92
:1053E00080B901200DF107038DF80700D4E9000210
:1053F000C17B10780122FDF747F9002804BF9DF812
:105400000700607400F0F4FB08B1257401E0782E09
:10541000DAD04AF29060C0F60000FBF77BF8642017
:1054200001F030FA002819BF4AF26050C0F60000BF
:105430004AF27040C0F60000FBF76CF8FFF7EAF89C
:10544000002819BF4AF29050C0F600004AF21040FE
:10545000C0F60000FBF75EF88820FFF7E7FA0028A7
:1054600019BF4AF26060C0F600004AF20050C0F670
:105470000000FBF74FF840F27310FEF775FF0028AD
:1054800019BF4AF2D050C0F600004AF24040C0F6C0
:105490000000FBF73FF86420FFF72AFA002819BF45
:1054A0004AF20060C0F600004AF2A040C0F60000D8
:1054B000FBF730F801F006FB012001F06BF9002842
:1054C00019BF4AF23060C0F600004AF2D040C0F680
:1054D0000000FBF71FF8002002B070BD6D70752052
:1054E000696E697469616C697A6174696F6E206351
:1054F0006F6D706C6574652E2E2E2E2E2E0A200078
:105500006D70755F7365745F73656E736F72206322
:105510006F6D65206163726F7373206572726F7255
:10552000202E2E2E2E2E2E006D70755F7365745FEB
:1055300073656E736F7220636F6D706C6574652038
:105540002E2E2E2E2E2E000040F20801C2F2000157
:105550004A7A032A84BF4FF0FF30704740F202437B
:10556000D200C1F20803D3400370C97C002904BFF4
:105570000020704740F60401C2F21001D1400170D2
:105580000020704780B540F2080CC2F2000C9CF875
:105590000910032984BF4FF0FF3080BD4FF4005E37
:1055A0004FF48043DFE801F01002070C40F6CE7E96
:1055B00041F69C7308E04FF4006E4FF4805303E013
:1055C0004FF4806E4FF4006303809CF813100029A1
:1055D00004BF002080BDA0F800E0002080BD0000D6
:1055E00010B584B040F2080480200DF107038DF857
:1055F0000700C2F20004D4E90002817C1078012285
:10560000FDF742F810B14FF0FF341EE06420FEF7C2
:105610004FFE00200DF107038DF80700D4E90002CA
:10562000817C10780122FDF72FF810B14FF0FF3484
:105630000BE0D4E900020DF10703817D107806220A
:10564000FCF7E8FA20B14FF0FF34204604B010BD5B
:105650009DF80C209DF8080004239DF80A1003EA29
:10566000820200F0010061F34102104307D000F014
:10567000070101292BD002290ED1002028E0D4E90E
:1056800000020DF10703C17810780122FCF7C2FA7D
:1056900048B14FF0FF34D8E7C1B248A0FAF7EEFDA9
:1056A0004FF0FF34D1E79DF8070000F00F00042809
:1056B0000AD00028E1D14AF2C060C0F60000FAF733
:1056C00029FF4FF0FF34C0E746A0FAF723FF01207F
:1056D0004FF6FF710DF10D03E181E074FF2020749E
:1056E000A0744FF0FF30A0600120207384F82200E6
:1056F00000202084C4E90500E06184F82700C4F894
:10570000230018208DF80D00D4E90002817910786B
:105710000122FCF7B9FF10B14FF0FF3495E79DF877
:105720000D00C0082072A07A70B100208DF80E0024
:10573000607A90B1D4E900020DF10E03C1791078BE
:105740000122FCF7A1FF10B14FF0FF347DE79DF877
:105750000E00C0086072A07A78B103208DF80F00A7
:10576000E07A03280FD0D4E900020DF10F0381780D
:1057700010780122FCF788FF10B14FF0FF3464E786
:105780009DF80F00E072322001F07CF810B14FF06C
:10579000FF345AE70020FFF7A7FC10B14FF0FF34A9
:1057A00053E7002000F082FF10B14FF0FF344CE7C8
:1057B0000020002401F0D6F847E700BF556E73754E
:1057C00070706F7274656420736F66747761726550
:1057D0002070726F64756374207265762025642E64
:1057E0000A00000048616C662073656E7369746915
:1057F00076697479207061727420666F756E642E9C
:10580000000000002DE9F04F8BB0074688464FF0AE
:10581000FF30002900F0958040F20809C2F200092B
:1058200099F82510002940F08C80002FCDE9013235
:105830006BD000204FF0000AA7EB000B08EB000133
:10584000BBF1100FA8BF4FF0100B002905916CD0D1
:1058500099F80A00002868D04FEA1A208DF82BA08A
:105860001FFA8BF58DF82A005FFA8AF02E18CAF31A
:1058700007200490D9F8040041898E4255D8D9F800
:105880000010007802220DF12A03097EFCF7FCFECD
:105890004C46002849D1039545465FFA8BF8D4E978
:1058A0000002059B417D10784246FCF7EDFEE0BB0F
:1058B000A07A2246C8B304988DF82BA08DF82A0050
:1058C000506841898E4230D81168007802220DF16B
:1058D0002A03097EFCF7D8FE494630BBD1E9000215
:1058E0000DF11A042346417D10784246FCF792F9E7
:1058F000D8B90598039A2146FAF722FE20BBDA446C
:10590000A8461FFA8AF0B84296D302980DF12A03EE
:105910008DF82B00000A8DF82A00D9E90002817E5B
:1059200010780222FCF7B0FE20B14FF0FF300BB030
:10593000BDE8F08F0198A9F82600012089F825001C
:1059400000200BB0BDE8F08F6FF001000BB0BDE898
:10595000F08F000070B582B00446282802D94FF0BD
:10596000FF34EBE040F20805002CC2F2000545D000
:1059700095F82300012820D0A87C95F82210322227
:10598000002808BF302200298DF8032007D06FF0CF
:105990004D01002808BF6FF04F018DF80310D5E9C5
:1059A00000020DF103030126017D10780122FCF7AE
:1059B0006BFE002808BF85F823602020012C8DF89D
:1059C00000004FD100208DF80100A87A002800F0D7
:1059D000998006208DF80400E87A062800F092806D
:1059E000D5E9000201AB817810780122FCF74CFE6A
:1059F000002840F087809DF8040082E095F823009D
:105A000000B3A87C95F822100028024618BF022295
:105A100000298DF8022007D06FF07D01002808BF13
:105A20006FF07F018DF80210D5E900020DF102033D
:105A3000017D10780122FCF727FE002804BF00201A
:105A400085F823004FF4E0606B46ADF80000D5E91F
:105A50000002817C10780222FCF716FEB8B34FF0EA
:105A6000FF346BE0052C18D801208DF80100A87ACE
:105A7000002847D006208DF80500E87A062841D096
:105A8000D5E900020DF10503817810780122FCF7B9
:105A9000FBFDB8BB9DF8050033E0142C1AD802209A
:105AA0008DF80100A87A68B305208DF80600E87A21
:105AB000052827D0D5E900020DF10603817810787A
:105AC0000122FCF7E1FDE8B99DF8060019E0002489
:105AD0002C7533E003208DF80100A87A90B10420E2
