:020000040800F2
:1000000050070020F10100089D180008D5130008D2
:1000100099180008411000084D2400080000000055
:1000200000000000000000000000000003020008C3
:10003000451000080000000007020008090200083F
:100040000B0200080B0200080B0200080B0200085C
:100050000B0200080B020008491000080B02000800
:100060000B0200080B0200080B0200080B0200083C
:100070000B0200080B0200080B0200080B0200082C
:100080000B0200080B0200080B0200080B0200081C
:100090000B0200080B0200080B0200080B0200080C
:1000A0000B0200080B0200080B0200080B020008FC
:1000B000DD1C0008DD1D0008F11D00080B02000812
:1000C0000B0200080B0200080B0200080B020008DC
:1000D0000B020008092300080B0200080B020008AD
:1000E0000B0200080B0200080B0200080B020008BC
:1000F0000B0200080B0200080B0200080B020008AC
:100100000B0200080B0200080B0200080B0200089B
:100110000B0200080B0200080B0200080B0200088B
:100120000B0200080B0200080B0200080B0200087B
:1001300000F002F800F04DF80AA090E8000C8244AC
:100140008344AAF10107DA4501D100F042F8AFF289
:10015000090EBAE80F0013F0010F18BFFB1A43F0A5
:100160000103184770B6000090B60000103A24BF93
:1001700078C878C1FAD8520724BF30C830C144BF0C
:1001800004680C607047000000230024002500264E
:10019000103A28BF78C1FBD8520728BF30C148BFEA
:1001A0000B607047662908F01686642900F0AE805F
:1001B000782900F0E780002070471FB500F00AFDA5
:1001C00004000020002107F0E5FBE0601FBD10B532
:1001D00010BD00F007FE1146FFF7EFFF04F0E0FE50
:1001E00000F025FE03B4FFF7F2FF03BC03F0BAFFF3
:1001F0000948804709480047FEE7FEE7FEE7FEE7BB
:10020000FEE7FEE7FEE7FEE7FEE7FEE704480549F6
:10021000054A064B70470000851B000831010008A5
:100220005001002050070020500300205003002000
:10023000704710B54C1084EA530404D54042C1F114
:10024000000138BF491E1B4204D55242C3F10003CE
:1002500038BF5B1E00F0A4F914F0804F04D0404278
:10026000C1F1000138BF491E14F0004F04D05242C2
:10027000C3F1000338BF5B1E10BD00000FB404497A
:1002800010B503AA029800F093FC10BC5DF814FBB3
:10029000CC0000200FB41CB5074B06AA7B4469466E
:1002A0000090059800F06BFC0020694600F07AFC95
:1002B0001CBC5DF814FB00000509000070B5044685
:1002C00085690068C10601D5302600E02026C007F8
:1002D00007D070BDD4E9012130469047206A401C08
:1002E00020626D1EF6D570BD70B504468569007834
:1002F000C00707D170BDD4E9012120209047206AB2
:10030000401C20626D1EF6D570BD00002DE9F04145
:100310000646002410687529314616A510D0AFF3A3
:100320000080002802DA404213A507E031688A07FE
:1003300001D512A502E0490704D511A5012401E069
:10034000AFF3008000210A2206F1240709E0B0FB88
:10035000F2FCB0FBF2F302FB1C003030785418467C
:10036000491C0028F3D123462A463046BDE8F04117
:1003700000F098B9000000002D0000002B000000E4
:100380002000000070B504460D4621461068AFF30A
:1003900000802188090502D50F4A7A4402E00E4AFE
:1003A0007A440E32002104F1240305E000F00F0628
:1003B0000009965D5E54491C0028F7D1207800237F
:1003C000000704D5702D02D009B102231132204656
:1003D000BDE8704000F066B92C8B00002DE9F05F9D
:1003E000894604464FF0000ADFF824B1FB44C0F808
:1003F00020A02046E168884700287DD0252806D027
:10040000D4E901219047206A401C2062F1E70025D1
:100410005F462046E16888472028064607DB312EE4
:1004200005D2B81910F8200C08B10543F1E7A80768
:1004300001D525F00405C4F81CA00027C4F818A0B5
:100440002A2E09D0304606F06FFF38B304EB870838
:10045000303EC8F8186019E059F8041B204604EB38
:1004600087029161E1688847012F064618D1E0694B
:10047000002820DA25F020051DE0D8F8180000EB50
:10048000800006EB40003038C8F818002046E168CC
:100490008847064606F048FF0028EED1012F0AD013
:1004A0002E2E08D12046E16888477F1C0646022F81
:1004B00045F02005C4DBA069002803DA404245F07E
:1004C0000105A061E80701D025F01005A6B1A6F14D
:1004D0004100192802D8203645F400654A463146C5
:1004E000204625604D46FFF75DFE60B1012807D02C
:1004F000ED1D25F0070000E007E000F1080978E7AE
:1005000005F1040975E730467AE7206ABDE8F09FF7
:10051000028B000010B5044603E004F007FB401C0A
:1005200009D014F8010B05490028F6D1BDE81040A8
:100530000A2004F0FBBA4FF0FF3010BDCC000020C1
:1005400040EA010310B59B070FD1042A0DD310C850
:1005500008C9121F9C42F8D020BA19BA884201D9A2
:10056000012010BD4FF0FF3010BD1AB1D30703D0EA
:10057000521C07E0002010BD10F8013B11F8014BA0
:100580001B1B07D110F8013B11F8014B1B1B01D1BC
:10059000921EF1D1184610BD7047704770477047E2
:1005A00053EA020C00F069802DE9F04B4FF0000691
:1005B000002B1FBFB3FA83F503FA05F424FA05F6FE
:1005C0005E4012BF1643B2FA82F502FA05F4C5F195
:1005D00020051EBF22FA05FC44EA0C04203556EA29
:1005E000044C4FEA144418BF641C4FF000084FF04D
:1005F0000009904271EB030C39D3002919BFB1FAFD
:1006000081F701FA07F6B0FA80F700FA07F6C7F1AA
:1006100020071EBF20FA07FC46EA0C062037B6FB6F
:10062000F4FCA7EB0507103F07F01F0BCBF12006EA
:100630002CFA06F60CFA0BFB44BFB3460026202F1B
:10064000A4BF5E464FF0000B5BEA060C08BF4FF0FC
:10065000010B19EB0B0948EB0608ABFB027C06FB10
:1006600002CC0BFB03CCC01B71EB0C01C1E70B46AA
:10067000024641464846BDE8F08B13B54FF00000F6
:100680004FF00001AFF30080BDE81C40704710B58B
:1006900000F0A4FA006810BD10B5044600F09EFA00
:1006A000046010BD2DE9F0470D4699469246044678
:1006B00000F124080168880604D5E06921F01001E2
:1006C000216000E00120A84201DD471B00E0002777
:1006D000A1697A1902EB0900081AA0612078C00606
:1006E00002D42046FFF7EAFD002608E0D4E9012104
:1006F0001AF806009047206A401C761C20624E457E
:10070000F4DB2078C0060AD52046FFF7D7FD06E0C7
:10071000D4E9012130209047206A401C2062381E15
:10072000A7F10107F4DC07E0D4E9012118F805007E
:100730009047206A401C2062281EA5F10105F3DCC9
:100740002046FFF7D1FD2078000602D50220BDE843
:10075000F0870120FBE72DE9FF4F0C461E464FF0C6
:10076000FF378BB0D2E90001DDF860800A908A463D
:10077000C1F30A5505B93D46002108464FF0000077
:10078000BAF1000F00F4400005DA00EB80004FF4EE
:10079000400101EA50004FEA9059B9F1010F00DD24
:1007A000B9460A9850EA4A000ED044F61050A5F215
:1007B000FF3545432F14B8F1000F1ED07542291E96
:1007C0001EDDC9F100021CE0B8F1010F4FF000007E
:1007D00001D0302103E0F24305E02154401CB04237
:1007E000FBDB30460022002121540B99C1F8088020
:1007F000C1E900200FB0BDE8F08FBD1B6D1CDEE726
:100800004A4600DA694206A800F072FA06AB93E89D
:10081000070003AB83E8070050460A9906F040F949
:100820008DE80700A0F500501F3800900398002DB8
:100830000ADD42F21F014A460844002303A903903F
:10084000684606F0A9FB09E0A0F500504A461F38AB
:10085000002303A90390684606F0B3FB8DE8070068
:100860000004000C03D04FF0FF30410800E01046B8
:10087000B8F1000F03D00022009215461EE0751E4D
:1008800005D400F0AFF9303262556D1EF9D5B3468C
:100890000122084302D000227F1C04E02078302887
:1008A00001D100227F1E002A099784D01DE0112D5E
:1008B00007DA00F097F9303262556D1C50EA0102F8
:1008C000F5D1084302D00098C8B10EE00021681E9F
:1008D00005E0235C625C63542254401E491C814243
:1008E000F7DBAB46A81B401E0990002004F80B0064
:1008F0000B98099AC0F80880C0E9002B7AE7112606
:100900004FF0000857E72DE9F04F88460446D21D06
:1009100022F0070191B0D1E90001CDE90A0106F00A
:1009200087FC02460B98C00F01D02D2007E02068FD
:10093000810701D52B2002E0202101EAC000032A13
:10094000099001D0072A05DB03464146204600F006
:100950008FF90BE12078800601D5E06900E00620E0
:10096000B8F1650F814606D0B8F1660F18D0B8F11E
:10097000670F70D131E00020B9F1110F009001DB59
:10098000112301E009F101030AAA01A90CA8FFF74C
:10099000E2FEDDE90C70002609F10105834647E01F
:1009A00001204B4600904FF000470AAA01A90CA86D
:1009B000FFF7D1FEDDE90DB00C995D46002610B9B8
:1009C00009F101000D18B9EB050003D4C0F1FF36A1
:1009D00009F10105A5EB09002BE0B9F1010F01DADE
:1009E0004FF001090020B9F1110F0090484601DDD8
:1009F000112300E003460AAA01A90CA8FFF7ABFEE9
:100A0000DDE90C704D4600268346207800070AD4A5
:100A1000AB4500DA5D4601A8012D04DD411911F84E
:100A2000011C302907D04F4502DA17F1040F04DA10
:100A3000012082460FE06D1EEEE7002F02DCED1B69
:100A40003E4403E0781CA84200DD7D1CB81B00F189
:100A5000010A4FF000472078000703D4AA4501DBC4
:100A60004FF0FF3A0021B7F1004F0DF143088DF828
:100A7000431024D002202B23002F01DA7F422D23A4
:100A80000A21021EA0F1010000DC5FB197FBF1FC1E
:100A900097FBF1F201FB1C7C17460CF1300C08F8B7
:100AA00001CDEEE7A8F1010003702188090501D509
:100AB000452100E06521A0F1010800F8011C09981A
:100AC0000FA9A1EB0807FF1D00B10120411901EB9F
:100AD000EA70A1693844081A401EA0612078C00657
:100AE00002D42046FFF7EAFB099828B1D4E9012196
:100AF0009047206A401C20622078C00622D52046FC
:100B0000FFF7DCFB1EE0002E04DBB34502DD01A88D
:100B1000805D00E03020D4E901219047206A401C2C
:100B20002062761CAAF101005FEA000A0AD100F0F7
:100B300051F8C0680168405CD4E901219047206AFF
:100B4000401C2062281EA5F10105DCDC07E0D4E989
:100B5000012118F8010B9047206A401C2062381EC2
:100B6000A7F10107F3DC2046FFF7BEFB032011B01D
:100B700041E6000001694A1C02610878704700B52F
:100B80008FB0CDE901310021059105497944CDE9C6
:100B9000031011466846FFF721FC0FB000BD0000AE
:100BA000E5FFFFFF0A6802F8010B0A6070470000CA
:100BB000074B70B50D467B44FFF7E1FF044628461E
:100BC00000F008F910B14FF0FF3070BD204670BD45
:100BD000733F0000004870475000002000487047F5
:100BE0003000002030B5B0F10A0271F100034FEA85
:100BF000900E4EEA817EB0EB0E0061EB91014FEA60
:100C0000101E4EEA017E10EB0E0041EB11114FEA6F
:100C1000102E4EEA016E10EB0E0041EB11214FEA4F
:100C2000104E4EEA014E10EB0E0041EB1141401800
:100C300041F100014FEAD00040EA41704FEAD10192
:100C40004FEA810444EA907410EB800544EB010400
:100C50006D1944EB0404521BA3414FF0000348BF3D
:100C60000A3200D530BD401C41F1000130BD00000A
:100C70002DE9F0411F46044603260168072A01F4C6
:100C8000006004DB08B116A505E016A503E008B175
:100C900015A500E015A521F010002060A069C01E78
:100CA000A0610FB1401EA0612046FFF707FB4FB1C6
:100CB000D4E9012138469047206A401C2062C01CBC
:100CC000206206E0206AFAE7D4E9012115F8010B59
:100CD0009047761EF8D22046FFF706FBBDE8F0816C
:100CE0004E414E006E616E00494E4600696E6600D0
:100CF0002DE9F047814616468AB0354878440DC83C
:100D00008DE80D0032487844801C03AC0DC884E89F
:100D10000D0041F69B300844372190FBF1F290FB27
:100D2000F1F5A5F1800501FB12041B3C02D56442DC
:100D3000012000E00020DFF898A080460027FA4458
:100D4000AAF1BE0A0EE0E0070AD03246684607EB79
:100D5000470101230AEB810106F033F98DE8070012
:100D600064107F1C002CEED1194F7F44AE3F19E078
:100D7000E80715D007EB04100DF1180A90E80E00F3
:100D80008AE80E00C068F04201D1981908903246F6
:100D9000012306A903A806F014F903AB83E80700B2
:100DA0006D10641C002DE3D14FF0010332466946FB
:100DB000B8F1000F03A802D006F0EEF801E006F04B
:100DC00000F9C9E90001C9F808200AB0BDE8F087B8
:100DD00074830000007B00F080007047004870477B
:100DE000300000207546FFF7F9FFAE460500694662
:100DF000534620F00700854618B020B5FFF706FAE5
:100E0000BDE820404FF000064FF000074FF000080B
:100E10004FF0000BAC46ACE8C009ACE8C009ACE848
:100E2000C009ACE8C00921F007018D46704710B534
:100E30000446AFF300802046BDE81040FFF7D2B96A
:100E40004FF0013C50F8042B51F8043B9A4221D159
:100E5000A2EB0C03934313EACC1317D150F8042BE5
:100E600051F8043B9A4215D1A2EB0C03934313EAC9
:100E7000CC130BD150F8042B51F8043B9A4209D102
:100E8000A2EB0C03934313EACC13DBD04FF000002A
:100E9000704700BFD01A01BAB1FA81F101F0180110
:100EA00022FA01F0CB40DBB2C0B2C01AC1F120017E
:100EB0002CFA01F3D11A914311EAC311E6D170471C
:100EC0008268002942F0010308BF22F00103836019
:100ED0007047000080B543F60041C4F2010188422A
:100EE00014D042F60001C4F20101884216D042F249
:100EF0000041C4F20101884218BF80BD4FF4007068
:100F0000012100F029FD4FF400700EE04FF4004085
:100F1000012100F021FD4FF4004006E04FF4806015
:100F2000012100F019FD4FF480600021BDE88040F0
:100F300000F012BD8068C0F380007047C06C80B2C2
:100F4000704700000068084018BF0120704700008B
:100F50008068C0F3C000704780B54FF6FF634268F9
:100F6000CFF6F07302EA030CD1E9003243EA0C0336
:100F700043EA02224FF2FD734260CFF6F1738268BA
:100F800002EA030ED1E902C30A6942EA0E021A43D9
:100F900042EA4C028260C26A097D013922F4700281
:100FA000C9B242EA0151C16280BD000010B501EB37
:100FB000410C092988BFACF11E0C092903FA0CFE6B
:100FC0004FF0070303FA0CFC4FF0100388BF0C230B
:100FD000062AC45824EA0C0444EA0E04C45003D878
:100FE00034306FF0040307E00C2A87BF2C306FF019
:100FF000400330306FF0220302EB82021A441F23B9
:10100000914003FA02F2036823EA020211430160ED
:1010100010BD0000816841F0080181607047000048
:101020008268002942F4A00308BF22F4A003836071
:1010300070470000816841F0040181607047000042
:10104000FEE700007047000080B5012000F00AF8BC
:1010500041F200000121C4F20100BDE8804000F02F
:10106000AFB9000040F21441C4F2010108607047BA
:1010700080B5D1F808E00EF00F0C1EF0100F1CBF69
:101080004B684CEA030C098811F0FF0F00F0A480B4
:101090000368CA070BD023F00F02BEF1480F42EAE3
:1010A0000C0315D0BEF1280F01D1012242618A073D
:1010B00012D523F0F002BEF1280F42EA0C131CD027
:1010C000BEF1480F08D1022202614A0706D418E097
:1010D000012202618A07ECD44A0712D523F4706218
:1010E000BEF1280F42EA0C231CD0BEF1480F08D1F4
:1010F000042202610A0719D505E0022242614A076B
:10110000ECD40A0712D523F47042BEF1280F42EA4C
:101110000C331CD0BEF1480F08D108220261CA0668
:1011200006D418E0042242610A07ECD4CA0612D59C
:1011300023F47022BEF1280F42EA0C431CD0BEF10A
:10114000480F08D1102202618A0619D505E008224D
:101150004261CA06ECD48A0612D523F47002BEF1AD
:10116000280F42EA0C531CD0BEF1480F08D12022B0
:1011700002614A0606D418E0102242618A06ECD4C5
:101180004A0612D523F07062BEF1280F42EA0C63C2
:101190001AD0BEF1480F08D1402202610A061AD5C2
:1011A00005E0202242614A06ECD40A0613D523F05A
:1011B0007042BEF1280F42EA0C730AD0BEF1480F0C
:1011C00009D18022026106E0402242610A06EED483
:1011D00001E0802242610360B1F5807F38BF80BDAD
:1011E0004368CA050CD523F00F02BEF1480F42EA4E
:1011F0000C0317D0BEF1280F02D14FF48072426168
:101200008A0514D523F0F002BEF1280F42EA0C1330
:101210001FD0BEF1480F0AD14FF4007202614A0597
:1012200007D41BE04FF4807202618A05EAD44A05B4
:1012300014D523F47062BEF1280F42EA0C231FD0AC
:10124000BEF1480F0AD14FF4806202610A051CD535
:1012500006E04FF4007242614A05EAD40A0514D54B
:1012600023F47042BEF1280F42EA0C331FD0BEF1C6
:10127000480F0AD14FF400620261CA0407D41BE090
:101280004FF4806242610A05EAD4CA0414D523F4FB
:101290007022BEF1280F42EA0C431FD0BEF1480F66
:1012A0000AD14FF4805202618A041CD506E04FF443
:1012B00000624261CA04EAD48A0414D523F470029D
:1012C000BEF1280F42EA0C531FD0BEF1480F0AD1DD
:1012D0004FF4005202614A0407D41BE04FF48052DD
:1012E00042618A04EAD44A0414D523F07062BEF144
:1012F000280F42EA0C631ED0BEF1480F0AD14FF40A
:101300008042026109041BD506E04FF4005242619D
:101310004A04EAD4090413D523F07041BEF1280F22
:1013200041EA0C730ED0BEF1480F09D14FF40041D1
:101330000161436080BD4FF4804242610904EBD4F7
:10134000436080BD4FF400414161436080BD0000B7
:1013500010B50422002800F440141FFA80FCC4F2E7
:1013600001021346B8BF43F01803B4F5401F1B68D1
:10137000C0F3034E07D1146823F0706324F0706447
:10138000146081B916E0C40206D447F6F07404EA8A
:1013900050440CFA04F402E0032404FA0EF4A343CC
:1013A00043F0706331B147F6F07101EA50410CFA35
:1013B00001F10B430028B8BF1832136010BD0000C4
:1013C0008068084018BF01207047000041617047E5
:1013D00001617047FEE70000022002F015BF000027
:1013E00010B584B008200121012400F0A9FA1020D2
:1013F00001A903904FF44060ADF80400032002906F
:1014000040F60040C4F20100FFF732FE48F2A81097
:10141000C4F221200460446004B010BD2DE9F04FF7
:1014200083B040F60441029048F2A8154FF0000B3B
:10143000C4F20101C4F22125086820F4704008605C
:10144000086840F40040086000202860022002F094
:10145000DBFE01262E6055F87C0C0190012002F085
:10146000D3FE0220C5F800B002F0CEFE2E600120AF
:1014700055F87C7C02F0C8FE0220C5F800B002F0EE
:10148000C3FE2E60012055F87C4C02F0BDFE022008
:10149000C5F800B002F0B8FE2E60012055F87C8C33
:1014A00002F0B2FE0220C5F800B002F0ADFE2E60E0
:1014B000012055F87C9C02F0A7FE0220C5F800B080
:1014C00002F0A2FE2E60012055F87CAC02F09CFEDA
:1014D0000220C5F800B002F097FE2E60012055F8FA
:1014E0007CBC02F091FE00202860022002F08CFEFD
:1014F0002E60012055F87C6C02F086FE40F6044216
:1015000000212960C4F20102106820F470401060CC
:10151000106840F4405010600198002818BF012066
:10152000002F18BF0127002C18BF012447EA4000F4
:10153000B8F1000F18BF4FF0010844EA4000B9F1BC
:10154000000F18BF4FF0010948EA4000BAF1000F40
:1015500018BF4FF0010A49EA4000BBF1000F18BF65
:101560004FF0010B4AEA4000002E4BEA400018BF42
:10157000012646EA4004029848B10220696002F060
:1015800043FE01202860022002F03EFE08E0012612
:1015900002206E6002F038FE02202E6002F034FE5F
:1015A00000202860E0B203B0BDE8F08FF0B581B054
:1015B000044640F6044048F2A8150026C4F2010093
:1015C000C4F22125016821F470410160016841F4F1
:1015D00040510160E0092E606860022002F014FEB4
:1015E000012702202F6002F00FFE02202E6002F081
:1015F0000BFEC4F380106860022002F005FE02209A
:101600002F6002F001FE02202E6002F0FDFDC4F307
:1016100040106860022002F0F7FD02202F6002F007
:10162000F3FD02202E6002F0EFFDC4F300106860AD
:10163000022002F0E9FD02202F6002F0E5FD022009
:101640002E6002F0E1FDC4F3C0006860022002F0E9
:10165000DBFD02202F6002F0D7FD02202E6002F099
:10166000D3FDC4F380006860022002F0CDFD0220AB
:101670002F6002F0C9FD02202E6002F0C5FDC4F308
:1016800040006860022002F0BFFD02202F6002F0DF
:10169000BBFD02202E6002F0B7FD04F0010068607F
:1016A000022002F0B1FD02202F6002F0ADFD2E609D
:1016B000022001B0BDE8F04002F0A6BDB0B540F692
:1016C000044048F2A814C4F20100C4F221240168C5
:1016D00021F470410160016841F440510160012032
:1016E00060602060042002F08FFD0025042065600A
:1016F00002F08AFD2560B0BD10B540F6044048F206
:10170000A814C4F20100C4F22124016821F470413C
:101710000160016841F44051016000202060606078
:10172000042002F071FD0120206060600420BDE80B
:10173000104002F069BD000070B540F6044448F264
:101740002C150126C4F20104C4F22125206820F4DE
:1017500070402060206840F4004020600120C5F8FF
:10176000806002F051FD0120EE6702F04DFD286817
:1017700088B10020296871B1296861B140F0020187
:10178000C9B2F9290BD82A682AB1F92907D82968DA
:1017900004300029EED100242046EC6770BD20689B
:1017A00020F470402060206840F440502060002009
:1017B000E867C5F88000042002F026FD012404201B
:1017C000EC67C5F8804002F01FFD204670BD0000A8
:1017D00041F21801C4F202010A6842F001020A60F3
:1017E0000421C4F201010A6822F0E0620A600A687A
:1017F00042EA40600860704780B5FFF7F1FD6B205A
:10180000802100F025FE642002F0D0FC6B20002136
:1018100000F01EFE1B20182100F01AFE1C201021D3
:1018200000F016FE1920012100F012FE1A200121FD
:1018300000F00EFE3820002100F00AFE6A20002190
:1018400000F006FE2320002100F002FE3720802158
:1018500000F0FEFDFFF732FFD220FFF7A7FEFFF7F3
:101860006BFF7520FFF7A2FEFFF766FFFFF726FF6D
:10187000D320FFF79BFEFFF75FFF0020FFF7CEFDB1
:10188000FFF73AFF6B20032100F0E2FD6C200021FE
:1018900000F0DEFD002080BDFEE700007047000084
:1018A00042684EF20011CEF20001EAB110B54EF6D8
:1018B0000C520723CEF20002126890F801E08478FF
:1018C00090F800C023EA12220F23D340C2F1040291
:1018D00023400EFA02F21A4301EB0C03120183F8C3
:1018E0000023BDE8104000E080310078012300F0C3
:1018F0001F02C0F3421003FA02F241F820207047A1
:1019000040F080604EF60C5140F0FD70CEF20001C8
:101910000860704741F20401C4F202010A6822F42F
:10192000404210430860704741F21C020029C4F293
:10193000020211680CBF21EA0000084310607047E2
:1019400041F218020029C4F2020211680CBF21EA18
:10195000000008431060704741F20C020029C4F2F5
:10196000020211680CBF21EA0000084310607047B2
:1019700080B541F2040EC4F2020EDEF8002002F03F
:101980000C0341F20022C0F27A02082B1FD1DEF8CC
:101990000030C3F3834303F1020CDEF8003013F48C
:1019A000803F06D140F60012C0F23D020CFB02F26D
:1019B0000DE0DEF8003013F4003F02D10CFB02F220
:1019C00005E040F60012C0F23D020CFB02F202609C
:1019D00049F29001DEF80030C0F60001C3F30313B2
:1019E000CB5CDA404260DEF80030C3F30223CB5C0C
:1019F00022FA03F38360DEF80030C3F3C223C95C2C
:101A000049F28C03C0F6000322FA01F1C160DEF84E
:101A10000020C2F381329A5CB1FBF2F1016180BD1A
:101A20002DE9F04F81B040F6044A074648F2A81964
:101A300001261C4615468846C4F2010AC4F2212933
:101A4000DAF8000020F47040CAF80000DAF800006C
:101A500040F44050CAF800000420C9F80460C9F8F6
:101A6000006002F0D1FB4FF0000B0420C9F804B075
:101A700002F0CAFB7F00C9F800B0F8B2FFF796FD8C
:101A8000FFF75AFED0B1DAF8000020F47040CAF82F
:101A90000000DAF8000040F44050CAF800000420CA
:101AA000C9F800B0C9F804B002F0AEFB0420C9F8D0
:101AB0000060C9F8046002F0A7FB51E04046FFF760
:101AC00075FDFFF739FEDAF8000020F47040CAF81F
:101AD0000000DAF8000040F44050CAF8000004208A
:101AE000C9F80460C9F8006002F08EFB0420C9F850
:101AF00004B002F089FB47F00100C9F800B0C0B2A1
:101B0000FFF754FDFFF718FE05E000BFFFF786FC66
:101B100004F8010B013DE8B2012803D020B10120F7
:101B2000F4E700BF0020F1E7DAF80000002620F417
:101B30007040CAF80000DAF8000040F44050CAF8DB
:101B400000000420C9F80060C9F8046002F05CFBE2
:101B50000120C9F80000C9F80400042002F054FB79
:101B6000304601B0BDE8F08F4EF210010428CEF2ED
:101B700000010A6822F0040308BF42F004030B606E
:101B80007047000082B041F204000022C4F202005B
:101B9000CFF6FF0250F8041C41F0010140F8041C8C
:101BA000016811404FF6FF720160CFF6F66250F8FF
:101BB000041C114040F8041C50F8041C21F480213E
:101BC00040F8041C016821F4FE0101604FF41F017C
:101BD000416000210191009150F8041C41F48031D2
:101BE00040F8041C50F8041C01F4003100910199E4
:101BF00001310191009919B90199B1F5A06FF1D1A5
:101C000050F8041C11F4003F0CBF00210121009189
:101C10000099012958D1D0F8FC1F41F01001C0F8FB
:101C2000FC1FD0F8FC1F21F00301C0F8FC1FD0F806
:101C3000FC1F41F00201C0F8FC1F0168016001684F
:101C40000160016841F480610160016821F47C1148
:101C50000160016841F4E811016050F8041C41F092
:101C6000807140F8041C00BF50F8041C11F0007F84
:101C70000ED150F8041C11F0007F09D150F8041C5B
:101C800011F0007F04D150F8041C11F0007FEBD05C
:101C9000016821F003010160016841F00201016067
:101CA000016801F00C0108290ED0016801F00C0157
:101CB000082909D0016801F00C01082904D0016845
:101CC00001F00C010829EBD14EF608504FF00061ED
:101CD000CEF20000016002B07047000010B54FF076
:101CE0008040012100F0D2F8012818BF10BD4FF04C
:101CF0008040012100F094F840F24814C2F2000440
:101D00002068632811DC02F01FF940F2C401C2F21E
:101D10000001086040F2C001C2F200010A681044EC
:101D2000086020680130206039E0642837D140F233
:101D3000C0020021C2F2000221601068116006F0AA
:101D400075FE0024C4F2C824214606F03DFD40F291
:101D5000BC01C2F200010860214606F035FD06F024
:101D600045FC46F266634FF06632C4F2270306F084
:101D7000EEFC40F2B8010028C2F2000118BF0120B9
:101D80000A68B2FA82F252091040086040F28010EC
:101D9000C4F223200168B1FA81F14909016040F2DF
:101DA000B40040F2980140F2C802C2F20000C2F250
:101DB0000001C2F2000203F06DF9042001F01AFDE7
:101DC00040F29001C2F200010860032001F012FD10
:101DD00040F29401C2F20001086010BD40F21040D0
:101DE000C4F200000188018821F0010101807047E0
:101DF00040F61000C4F200000188018821F00101C2
:101E0000018070470288002942F0800308BF22F059
:101E10008003038070470000C943018270470000BF
:101E2000C9430182704700000288002942F0010383
:101E300008BF22F00103038070470000B0F844207F
:101E4000002913466FF3DF3318BF42F40043A0F8B4
:101E50004430704780B5B0F808C02CF0070C41EA58
:101E60000C01B0F818C0B0F820E001814FF6FC4139
:101E70000CEA010C40F2011141EA0C01018342EA33
:101E800003112EF022021143018480BD028A0A4010
:101E900018BF01228089084018BF012010407047F8
:101EA00070B50B88042B2AD0002B56D1B1F802C094
:101EB0000A898B88068C40F6FF354FF6FC74C4F215
:101EC000000526F0010643EA02130246A8420684F2
:101ED00032F8186FB0F820E026F0F30643EA060364
:101EE0006DDCB0F1804F7DD040F20045C4F20005BA
:101EF000A84277D040F60005C4F200056FE00E89D5
:101F00004B888A88058C40F6FF44360325F010057F
:101F100046EA02260584024632F8185FB0F820E04F
:101F2000254046EA050C40F6FF356FF00306C4F283
:101F30000005A6F1AD04A84262DCB0F1804F71D07B
:101F400040F20045C4F20005A8426BD040F60005FF
:101F5000C4F20005A84265D068E00A898C884E88E2
:101F6000058C082B71D125F48073038444EA021395
:101F7000024632F81C5FB0F820E025F0F30543EA92
:101F8000050C6FF4405303F5145440F6FF33C4F2CC
:101F90000003984200F38180B0F1804F00F08F8001
:101FA00040F20043C4F20003984200F0888040F6FB
:101FB0000003C4F20003984200F0818084E040F600
:101FC0000045C4F20005A8420CD042F60045C4F218
:101FD0000105A84206D043F20045C4F20105A8421B
:101FE00018BF083C03830EEA040343EA0C0343F0E2
:101FF00001030384C988038B23F00C03038394E05B
:1020000040F60045C4F20005A8420BD043F200455B
:10201000C4F20105A84205D042F60045C4F201050C
:10202000A84203D14FF6FC741B012D3C0EEA0406B6
:10203000A0F818C0334343F010030384C988038B0E
:1020400023F44063090203836FE025F480531203F5
:10205000038442EA0423024640F6FF4432F81C5F40
:10206000B0F820C0254046F6FF5443EA050E40F67E
:10207000FF33C4F20003984234DCB0F1804F43D008
:1020800040F20043C4F2000398423DD040F6000302
:10209000C4F20003984237D039E040F60043C4F25E
:1020A000000398420BD043F20043C4F2010398426C
:1020B00005D042F60043C4F20103984204D14CF625
:1020C000FF73360203F534540EEA0403A0F81CC073
:1020D000334343F480730384C988838B23F00C0358
:1020E000838322E040F60043C4F2000398420BD001
:1020F00043F20043C4F20103984205D042F6004384
:10210000C4F20103984202D136034CF6FF740CEA84
:102110000403A0F81CE0334343F480530384C988CC
:10212000838B23F440630902838310880843108063
:1021300070BD0000002101220160426001817047F2
:10214000002A82890CBF22EA010111438181704774
:1021500010B5028C22F480720284048CB0F804E082
:10216000838B0A8823F0730343EA020C0B8924F45F
:10217000007242EA03224B8842EA032243F2004300
:10218000C4F20103984205D042F60043C4F20103B1
:10219000984212D18B892EF4405422F4406244EAD2
:1021A0000313CC8943EA041E4B8940F2FF441B020F
:1021B000A3431A438B8842EA0322A0F804E0A0F864
:1021C0001CC0C9888187028410BD0000828B22F068
:1021D000080211438183704710B5028C22F48052AB
:1021E0000284048CB0F804E0828B0B8822F4E6426F
:1021F00042EA032C0B8924F4005242EA03324B8852
:1022000042EA033343F20042C4F20102904205D095
:1022100042F60042C4F20102904204D18A892EF4AF
:10222000804444EA821EA0F804E0A0F81CC0C988DB
:10223000A0F84010038410BD828B22F4006242EAB1
:1022400001218183704700008184704740F6FF338D
:10225000B0F800C0C4F2000398420FDCB0F1804F28
:102260001ED040F20043C4F20003984218D040F65A
:102270000003C4F20003984212D016E040F6004377
:10228000C4F2000398420BD043F20043C4F20103AE
:10229000984205D042F60043C4F20103984204D1AB
:1022A0004B882CF0700243EA020C41F2004240F4E9
:1022B0008063C4F20002934204D0CB882CF44072B5
:1022C00043EA020CA0F800C08A8882850A88028549
:1022D000A0F18042A2F596324FEAB222072A07D82F
:1022E000012303FA02F212F0E50F1CBF097A0186FE
:1022F00001218182704700004FF6FF71416000218B
:10230000016001727047000043F6000040F2255161
:10231000C4F2010000F00AB88289002942F4005397
:1023200008BF22F4005383817047000001F01F02B0
:10233000012303FA02F2C1F34213022B06D0012B50
:1023400014BF00F1140300F10C0301E000F11003CD
:102350001B88090A1A404FF0010318BF01220088A8
:1023600003FA01F1084018BF012010407047000037
:1023700001F01F0C012303FA0CFCC1F342131421DA
:10238000022B08BF1021012B08BF0C21002A425844
:102390000CBF22EA0C0242EA0C02425070470000D5
:1023A00070B586B00446008A0D46C98801AE20F497
:1023B000405008434EF6F3112082A0890840A988B6
:1023C00008432989084369890843A081A08AA9890B
:1023D00020F440700843A0823046FFF7C9FA43F664
:1023E000000106F108000222C4F201018C424FF004
:1023F000190108BF06F10C00042600684843A189B2
:10240000A2EBD1312A6802FA01F1B0FBF1F048F2F7
:102410001F51C5F2EB11A0FB01235A096FF06303B2
:1024200002FB0300A389A6EBD336B0403230A0FBF9
:102430000101072040EA133080F0080000EA511043
:1024400040EA0210208106B070BD0000FEE70000E7
:10245000B0B50C460546FFF731F9FEF7BDFFD220B7
:10246000FFF7A4F8FFF768F918B1FFF745F9012065
:10247000B0BD2846FFF79AF8FFF75EF92046FFF750
:1024800095F8FFF759F90446002818BF0124FFF713
:1024900033F92046B0BD00002DE9F04F81B040F681
:1024A000044A074648F2A81901241D4616468846E4
:1024B000C4F2010AC4F22129DAF8000020F47040C5
:1024C000CAF80000DAF8000040F44050CAF80000F2
:1024D0000420C9F80440C9F8004001F095FE4FF00F
:1024E000000B0420C9F804B001F08EFE7800C9F892
:1024F00000B0C0B2FFF75AF8FFF71EF9D0B1DAF812
:10250000000020F47040CAF80000DAF8000040F43F
:102510004050CAF800000420C9F800B0C9F804B05F
:1025200001F072FE0420C9F80040C9F8044001F02F
:102530006BFE49E04046FFF739F8FFF7FDF856B16A
:10254000002400BF285DFFF731F8FFF7F5F8F8B970
:102550000134B442F6D3DAF80000002420F47040CD
:10256000CAF80000DAF8000040F44050CAF8000051
:102570000420C9F80040C9F8044001F045FE0120DC
:10258000C9F80000C9F80400042001F03DFE1BE07A
:10259000DAF8000020F47040CAF80000DAF8000011
:1025A00040F44050CAF800000020C9F80000C9F803
:1025B0000400042001F028FE01240420C9F8004092
:1025C000C9F8044001F020FE204601B0BDE8F08FBC
:1025D00010B50446000A01F063F8E0B2BDE810400F
:1025E00001F05EB810B586B0012001210124FFF78B
:1025F0009BF940F2671003A9039040F2E730049082
:102600004FF08040FFF722FE4FF080400121FFF79E
:1026100003FC4FF0804001210122FFF791FD4FF4B0
:10262000A060FFF76DF900208DF806001C20ADF8C2
:10263000040001A80294FFF733F94FF08040012114
:10264000FFF7F2FB06B010BD2DE9F04FA3B044F246
:1026500056413A20002543F6742249F2A00B562435
:102660000DF15008C4F2441115901395C0F6000BFB
:10267000149146F65011C3F67421CDE9115146F676
:102680005271C3F66C21CDE90F5146F25911C3F6D0
:1026900077210E9165210D9146F26811C6F2727193
:1026A0000C9146F27351C6F220310B9146F650411F
:1026B000C6F26511CDE9090146F24C5046F6456176
:1026C000059246F65212C7F26640C6F66371C6F628
:1026D0006702089046F2645006910492C2F27200BA
:1026E0000790CDE9021000BF45F00701A8B20F2303
:1026F00000278AB2002101F079FBA4F12000C0B2CA
:102700000BEB0014E65D16F0010F0CBF4FF6FF70E7
:102710000020FFF75DFFB00754BF4FF6FF700020A9
:10272000FFF756FF700754BF4FF6FF700020FFF70A
:102730004FFF300754BF4FF6FF700020FFF748FFF0
:10274000F00654BF4FF6FF700020FFF741FFB006C0
:1027500054BF4FF6FF700020FFF73AFF700654BFDA
:102760004FF6FF700020FFF733FF300654BF4FF6DF
:10277000FF700020FFF72CFF0137102FC2D118F88F
:10278000014F0835002CAFD1002550240DF1480829
:1027900045F00701A8B21F238AB2102101F026FBE1
:1027A000A4F120000024C0B20BEB00173E5D16F030
:1027B000010F0CBF4FF6FF700020FFF709FFB007B5
:1027C00054BF4FF6FF700020FFF702FF700754BFA1
:1027D0004FF6FF700020FFF7FBFE300754BF4FF6A7
:1027E000FF700020FFF7F4FEF00654BF4FF6FF70B5
:1027F0000020FFF7EDFEB00654BF4FF6FF7000203B
:10280000FFF7E6FE700654BF4FF6FF700020FFF79B
:10281000DFFE300654BF4FF6FF700020FFF7D8FEF2
:102820000134102CC2D118F8014F0835002CAFD15B
:10283000002552240DF1400845F00701A8B22F23CE
:102840008AB2202101F0D2FAA4F120000024C0B203
:102850000BEB00173E5D16F0010F0CBF4FF6FF703B
:102860000020FFF7B5FEB00754BF4FF6FF70002001
:10287000FFF7AEFE700754BF4FF6FF700020FFF762
:10288000A7FE300754BF4FF6FF700020FFF7A0FEF1
:10289000F00654BF4FF6FF700020FFF799FEB00618
:1028A00054BF4FF6FF700020FFF792FE700654BF32
:1028B0004FF6FF700020FFF78BFE300654BF4FF637
:1028C000FF700020FFF784FE0134102CC2D118F8ED
:1028D000014F0835002CAFD1002559240DF13808DF
:1028E00045F00701A8B23F238AB2302101F07EFAF9
:1028F000A4F120000024C0B20BEB00173E5D16F0DF
:10290000010F0CBF4FF6FF700020FFF761FEB0070C
:1029100054BF4FF6FF700020FFF75AFE700754BFF8
:102920004FF6FF700020FFF753FE300754BF4FF6FD
:10293000FF700020FFF74CFEF00654BF4FF6FF700B
:102940000020FFF745FEB00654BF4FF6FF70002091
:10295000FFF73EFE700654BF4FF6FF700020FFF7F2
:1029600037FE300654BF4FF6FF700020FFF730FEF1
:102970000134102CC2D118F8014F0835002CAFD10A
:10298000002545240DF1180845F00701A8B24F2392
:102990008AB2402101F02AFAA4F120000024C0B23A
:1029A0000BEB00173E5D16F0010F0CBF4FF6FF70EA
:1029B0000020FFF70DFEB00754BF4FF6FF70002058
:1029C000FFF706FE700754BF4FF6FF700020FFF7B9
:1029D000FFFD300754BF4FF6FF700020FFF7F8FDF2
:1029E000F00654BF4FF6FF700020FFF7F1FDB00670
:1029F00054BF4FF6FF700020FFF7EAFD700654BF8A
:102A00004FF6FF700020FFF7E3FD300654BF4FF68E
:102A1000FF700020FFF7DCFD0134102CC2D118F844
:102A2000014F0835002CAFD1002545240DF10808D1
:102A300045F00701A8B25F238AB2502101F0D6F910
:102A4000A4F120000024C0B20BEB00173E5D16F08D
:102A5000010F0CBF4FF6FF700020FFF7B9FDB00764
:102A600054BF4FF6FF700020FFF7B2FD700754BF50
:102A70004FF6FF700020FFF7ABFD300754BF4FF655
:102A8000FF700020FFF7A4FDF00654BF4FF6FF7063
:102A90000020FFF79DFDB00654BF4FF6FF700020E9
:102AA000FFF796FD700654BF4FF6FF700020FFF74A
:102AB0008FFD300654BF4FF6FF700020FFF788FDF2
:102AC0000134102CC2D118F8014F0835002CAFD1B9
:102AD00040F2BC000021C2F20000C4F2C82100682C
:102AE00005F072FE05F082FD02460B460DF15A001C
:102AF0000FF6A431FDF7CEFB9DF85A40002C5BD0B9
:102B000028250DF15A0800BF45F00701A8B20F2390
:102B100000278AB2002101F069F9A4F12000C0B2B7
:102B20000BEB0014E65D16F0010F0CBF4FF6FF70C3
:102B30004FF47840FFF74CFDB00754BF4FF6FF70DD
:102B40004FF47840FFF744FD700754BF4FF6FF7015
:102B50004FF47840FFF73CFD300754BF4FF6FF704D
:102B60004FF47840FFF734FDF00654BF4FF6FF7086
:102B70004FF47840FFF72CFDB00654BF4FF6FF70BE
:102B80004FF47840FFF724FD700654BF4FF6FF70F6
:102B90004FF47840FFF71CFD300654BF4FF6FF702E
:102BA0004FF47840FFF714FD0137102FBAD118F811
:102BB000014F0835002CA7D1562450250DF15A0895
:102BC000ADF85A4045F00701A8B20F2300278AB29A
:102BD000002101F00BF9A4F12000C0B20BEB0014AE
:102BE000E65D16F0010F0CBF4FF6FF704FF4784012
:102BF000FFF7EEFCB00754BF4FF6FF704FF478407C
:102C0000FFF7E6FC700754BF4FF6FF704FF47840B3
:102C1000FFF7DEFC300754BF4FF6FF704FF47840EB
:102C2000FFF7D6FCF00654BF4FF6FF704FF4784024
:102C3000FFF7CEFCB00654BF4FF6FF704FF478405C
:102C4000FFF7C6FC700654BF4FF6FF704FF4784094
:102C5000FFF7BEFC300654BF4FF6FF704FF47840CC
:102C6000FFF7B6FC0137102FBAD118F8014F08351D
:102C7000002CA7D140F29800C2F20000006805F0D5
:102C8000B5FC0B464BF29F4102460DF15A00C0F6CF
:102C90000001FDF7FFFA9DF85A40002C52D0202584
:102CA0000DF15A0845F00701A8B21F238AB210217E
:102CB00001F09CF8A4F120000024C0B20BEB001737
:102CC0003E5D16F0010F0CBF4FF6FF701F20FFF79F
:102CD0007FFCB00754BF4FF6FF701F20FFF778FC52
:102CE000700754BF4FF6FF701F20FFF771FC3007CD
:102CF00054BF4FF6FF701F20FFF76AFCF00654BF69
:102D00004FF6FF701F20FFF763FCB00654BF4FF66D
:102D1000FF701F20FFF75CFC700654BF4FF6FF707A
:102D20001F20FFF755FC300654BF4FF6FF701F20E1
:102D3000FFF74EFC0134102CC2D118F8014F0835B2
:102D4000002CAFD140F2B400C2F20000006805F0E0
:102D50004DFC0B464BF29F4102460DF15A00C0F666
:102D60000001FDF797FA9DF85A40002C52D020251B
:102D70000DF15A0845F00701A8B22F238AB220218D
:102D800001F034F8A4F120000024C0B20BEB0017CE
:102D90003E5D16F0010F0CBF4FF6FF701F20FFF7CE
:102DA00017FCB00754BF4FF6FF701F20FFF710FC51
:102DB000700754BF4FF6FF701F20FFF709FC300764
:102DC00054BF4FF6FF701F20FFF702FCF00654BF00
:102DD0004FF6FF701F20FFF7FBFBB00654BF4FF606
:102DE000FF701F20FFF7F4FB700654BF4FF6FF7013
:102DF0001F20FFF7EDFB300654BF4FF6FF701F207A
:102E0000FFF7E6FB0134102CC2D118F8014F08354A
:102E1000002CAFD140F2C800C2F20000006805F0FB
:102E2000E5FB0B464BF29F4102460DF15A00C0F6FE
:102E30000001FDF72FFA9DF85A40002C52D02025B2
:102E40000DF15A0845F00701A8B23F238AB230219C
:102E500000F0CCFFA4F120000024C0B20BEB00175F
:102E60003E5D16F0010F0CBF4FF6FF701F20FFF7FD
:102E7000AFFBB00754BF4FF6FF701F20FFF7A8FB52
:102E8000700754BF4FF6FF701F20FFF7A1FB3007FC
:102E900054BF4FF6FF701F20FFF79AFBF00654BF98
:102EA0004FF6FF701F20FFF793FBB00654BF4FF69D
:102EB000FF701F20FFF78CFB700654BF4FF6FF70AA
:102EC0001F20FFF785FB300654BF4FF6FF701F2011
:102ED000FFF77EFB0134102CC2D118F8014F0835E2
:102EE000002CAFD140F29005682040216F224F2383
:102EF000C2F200052C6800F079FF002C26DB0024CC
:102F00004FF6FF70FFF764FB4FF6FF70FFF760FBB3
:102F10004FF6FF70FFF75CFB4FF6FF70FFF758FBB3
:102F20004FF6FF70FFF754FB4FF6FF70FFF750FBB3
:102F30004FF6FF70FFF74CFB4FF6FF70FFF748FBB3
:102F40000134A0B21028DBD32D884BE0002600BF4F
:102F50000BEB060090F8D04014F0010F0CBF4FF6B9
:102F6000FF7047F60F00FFF733FBA00754BF4FF683
:102F7000FF7047F60F00FFF72BFB600754BF4FF6BB
:102F8000FF7047F60F00FFF723FB200754BF4FF6F3
:102F9000FF7047F60F00FFF71BFBE00654BF4FF62C
:102FA000FF7047F60F00FFF713FBA00654BF4FF664
:102FB000FF7047F60F00FFF70BFB600654BF4FF69C
:102FC000FF7047F60F00FFF703FB200654BF4FF6D4
:102FD000FF7047F60F00FFF7FBFA0136102EB7D14E
:102FE0002868454240F294067020502177225F23E2
:102FF000C2F20006346800F0F9FE002C26DB002443
:103000004FF6FF70FFF7E4FA4FF6FF70FFF7E0FAB4
:103010004FF6FF70FFF7DCFA4FF6FF70FFF7D8FAB4
:103020004FF6FF70FFF7D4FA4FF6FF70FFF7D0FAB4
:103030004FF6FF70FFF7CCFA4FF6FF70FFF7C8FAB4
:103040000134A0B21028DBD330884BE0002700BF4A
:103050000BEB070090F8D04014F0010F0CBF4FF6B7
:10306000FF7047F60F00FFF7B3FAA00754BF4FF603
:10307000FF7047F60F00FFF7ABFA600754BF4FF63B
:10308000FF7047F60F00FFF7A3FA200754BF4FF673
:10309000FF7047F60F00FFF79BFAE00654BF4FF6AC
:1030A000FF7047F60F00FFF793FAA00654BF4FF6E4
:1030B000FF7047F60F00FFF78BFA600654BF4FF61C
:1030C000FF7047F60F00FFF783FA200654BF4FF654
:1030D000FF7047F60F00FFF77BFA0137102FB7D1CB
:1030E00030684042AFB2002642F2107800250190CD
:1030F00054E0772040214F2300EBC60082B206F156
:103100000E00C00080B200F071FE00241BF80450D5
:1031100015F0010F0CBF4FF6FF7047F60F00FFF7D9
:1031200057FAA80754BF4FF6FF7047F60F00FFF796
:103130004FFA680754BF4FF6FF7047F60F00FFF7CE
:1031400047FA280754BF4FF6FF7047F60F00FFF706
:103150003FFAE80654BF4FF6FF7047F60F00FFF73F
:1031600037FAA80654BF4FF6FF7047F60F00FFF777
:103170002FFA680654BF4FF6FF7047F60F00FFF7AF
:1031800027FA280654BF4FF6FF7047F60F00FFF7E7
:103190001FFA0134102CB9D10025A2E0F0B20528A5
:1031A00002D1012026E000BFC6F10402C6F10500ED
:1031B000D2B200F00301032A02D2012049B919E07A
:1031C000421A0120043A00FB08F012F0FF0FF9D177
:1031D00081B1012903D100EB800040000AE04FF4E7
:1031E0007A7202294FF0640100FB02F208BF00FB73
:1031F00001F210464CF6CD41B7FBF0F0042ECCF6B0
:10320000CC41A0FB01124FEAD20101EB8101A0EBFE
:10321000410405D8280603D1002C3FF46AAF0125EC
:10322000772040214F2300EBC60082B206F10E004A
:10323000C00080B200F0DAFD44F010004FF0000949
:103240000BEB001414F809A01AF0010F0CBF4FF695
:10325000FF7047F60F00FFF7BBF95FEA8A7054BFB3
:103260004FF6FF7047F60F00FFF7B2F95FEA4A70BA
:1032700054BF4FF6FF7047F60F00FFF7A9F95FEA5A
:103280000A7054BF4FF6FF7047F60F00FFF7A0F922
:103290005FEACA6054BF4FF6FF7047F60F00FFF7B2
:1032A00097F95FEA8A6054BF4FF6FF7047F60F0048
:1032B000FFF78EF95FEA4A6054BF4FF6FF7047F69A
:1032C0000F00FFF785F95FEA0A6054BF4FF6FF7001
:1032D00047F60F00FFF77CF909F10109B9F1100F6A
:1032E000B0D10136062E7FF459AF0198002742F283
:1032F00010754FF000091FFA80FA57E07F20502127
:103300005F2300EBC70082B207F10F00C00080B25C
:1033100000F06CFD002400BF1BF8046016F0010FE4
:103320000CBF4FF6FF7047F60F00FFF751F9B007DB
:1033300054BF4FF6FF7047F60F00FFF749F97007CB
:1033400054BF4FF6FF7047F60F00FFF741F9300703
:1033500054BF4FF6FF7047F60F00FFF739F9F0063C
:1033600054BF4FF6FF7047F60F00FFF731F9B00674
:1033700054BF4FF6FF7047F60F00FFF729F97006AC
:1033800054BF4FF6FF7047F60F00FFF721F93006E4
:1033900054BF4FF6FF7047F60F00FFF719F90134DD
:1033A000102CB9D14FF000099EE000BFF8B20528FB
:1033B00002D1012026E000BFC7F10402C7F10500D9
:1033C000D2B200F00301032A02D2012041B919E070
:1033D000421A0120043A684312F0FF0FFAD189B172
:1033E000012903D100EB800040000BE04FF47A721A
:1033F00002294FF0640100FB02F208BF00FB01F25A
:10340000104600BF4CF6CD41BAFBF0F0042FCCF6CD
:10341000CC41A0FB01124FEAD20101EB8101A0EBEC
:10342000410407D85FEA096004D1002C3FF466AF7D
:103430004FF001097F2050215F2300EBC70082B2CB
:1034400007F10F00C00080B200F0D0FC44F0100083
:103450004FF000080BEB001414F8086016F0010F91
:103460000CBF4FF6FF7047F60F00FFF7B1F8B0073B
:1034700054BF4FF6FF7047F60F00FFF7A9F870072B
:1034800054BF4FF6FF7047F60F00FFF7A1F8300763
:1034900054BF4FF6FF7047F60F00FFF799F8F0069C
:1034A00054BF4FF6FF7047F60F00FFF791F8B006D4
:1034B00054BF4FF6FF7047F60F00FFF789F870060C
:1034C00054BF4FF6FF7047F60F00FFF781F8300644
:1034D00054BF4FF6FF7047F60F00FFF779F808F179
:1034E0000108B8F1100FB7D10137062F7FF45EAF96
:1034F00040F2B800C2F200000068012840F0C88025
:1035000049F2A0684AF6AB274FF0200A50240DF18B
:103510002809C0F60008CAF6AA2700BF0AF10B0165
:103520001FFA8AF07B238AB2642100F05FFCA4F1C9
:10353000200000250024C0B200EB400008EB001B77
:103540001BF8056016F0010F0CBF4FF6FF704FF42B
:103550007840FFF73DF8601CC0B2A0FB0712D1080D
:1035600001EB4101A0EB8100002800F08580B0074D
:1035700054BF4FF6FF704FF47840FFF729F8A01CB6
:10358000C0B2A0FB0712D10801EB4101A0EB810002
:10359000002871D0700754BF4FF6FF704FF4784089
:1035A000FFF716F8E01CC0B2A0FB0712D10801EB30
:1035B0004101A0EB810000285ED0300754BF4FF6D8
:1035C000FF704FF47840FFF703F8201DC0B2A0FB56
:1035D0000712D10801EB4101A0EB810000284BD07C
:1035E000F00654BF4FF6FF704FF47840FEF7F0FF3F
:1035F000601DC0B2A0FB0712D10801EB4101A0EB96
:103600008100C8B3B00654BF4FF6FF704FF4784046
:10361000FEF7DEFFA01DC0B2A0FB0712D10801EB30
:103620004101A0EB810038B3700654BF4FF6FF7024
:103630004FF47840FEF7CCFFE01DC0B2A0FB0712AC
:10364000D10801EB4101A0EB8100A8B1300654BFC5
:103650004FF6FF704FF47840FEF7BAFF04F1080010
:10366000C1B2A1FB0723DA0802EB4202A1EB8204FC
:10367000002C18BF044600E000240135302D7FF4F3
:103680005FAF19F8014F0AF10C0A002C7FF446AF26
:1036900023B0BDE8F08F00BF25342E326600000055
:1036A000B0B541F6000405460221C4F201042046EB
:1036B000FDF78CFE20460821FDF788FE68B2B0F1C8
:1036C000FF3F04DD20462021FDF780FE03E0204679
:1036D0002021FDF77DFE20460821FDF779FE2046DA
:1036E0000821FDF773FE680604D420462021FDF76B
:1036F0006DFE03E020462021FDF76AFE20460821EA
:10370000FDF766FE20460821FDF760FEA80604D4FA
:1037100020462021FDF75AFE03E020462021FDF738
:1037200057FE20460821FDF753FE20460821FDF7ED
:103730004DFEE80604D420462021FDF747FE03E0B5
:1037400020462021FDF744FE20460821FDF740FEDB
:1037500020460821FDF73AFE280704D42046202100
:10376000FDF734FE03E020462021FDF731FE204620
:103770000821FDF72DFE20460821FDF727FE6807EA
:1037800004D420462021FDF721FE03E0204620211D
:10379000FDF71EFE20460821FDF71AFE20460821EF
:1037A000FDF714FEA80704D420462021FDF70EFEE5
:1037B00003E020462021FDF70BFE20460821FDF7FF
:1037C00007FE20460821FDF701FEE80704D1204648
:1037D0002021FDF7FBFD03E020462021FDF7F8FD49
:1037E00020460821FDF7F4FD20460221BDE8B04047
:1037F000FDF7EEBD014640F224420020C4F2000273
:10380000032904D0042918BF704702F58062B2F979
:10381000001010800846704770B58AB04FF40470ED
:1038200001210125FEF78CF84FF40040FEF772F8F5
:1038300042F200440026022001A9C4F201040396CA
:10384000ADF80400A4F5A050FDF712FC2046FDF7EA
:1038500041FB4FF46020CDE90466069604A9CDE94A
:10386000070620468DF82450FDF776FB20460121FF
:10387000FDF726FB2046FDF7CDFB00BF2046FDF7F8
:1038800067FB0028FAD12046FDF7D4FB2046FDF760
:1038900051FB0028FAD10AB070BD000010B584B009
:1038A00041F218000124C4F20200016841F0110144
:1038B0000160012000F0A8FC10200121FEF740F873
:1038C0004820ADF8044001A903900320029041F282
:1038D0000000C4F20100FDF7CBFB04B010BD0000F6
:1038E00010B500F015FA41F600041021C4F20104ED
:1038F0002046FDF76BFD642000F058FC20461021A7
:10390000FDF766FD642000F051FC20464021FDF7E4
:103910005FFD642000F04AFC20460421FDF756FDBF
:103920001120FFF7BDFE20460421FDF751FD782050
:1039300000F03CFC20460421FDF748FD3620FFF74F
:10394000AFFE20460421FDF743FD0020FFF7A8FE4F
:1039500020460421FDF73AFD3A20FFF7A1FE20465C
:103960000421FDF735FD0520FFF79AFE20460421CE
:10397000FDF72CFDB220FFF793FE20460421FDF752
:1039800027FD0C20FFF78CFE0C20FFF789FE00209E
:10399000FFF786FE3320FFF783FE3320FFF780FE1C
:1039A00020460421FDF712FDB720FFF779FE2046DF
:1039B0000421FDF70DFD3520FFF772FE204604219E
:1039C000FDF704FDBB20FFF76BFE20460421FDF749
:1039D000FFFC3220FFF764FE20460421FDF7F6FCD1
:1039E000C220FFF75DFE20460421FDF7F1FC012017
:1039F000FFF756FE20460421FDF7E8FCC320FFF741
:103A00004FFE20460421FDF7E3FC1520FFF748FE9A
:103A100020460421FDF7DAFCC420FFF741FE2046D2
:103A20000421FDF7D5FC2020FFF73AFE20460421B3
:103A3000FDF7CCFCC620FFF733FE20460421FDF73E
:103A4000C7FC0F20FFF72CFE20460421FDF7BEFC2B
:103A5000D020FFF725FE20460421FDF7B9FCA42065
:103A6000FFF71EFEA120FFF71BFE20460421FDF7F5
:103A7000ADFCE020FFF714FE20460421FDF7A8FC72
:103A8000D020FFF70DFE0820FFF70AFE0E20FFF7FB
:103A900007FE0920FFF704FE0920FFF701FE0520BD
:103AA000FFF7FEFD3120FFF7FBFD3320FFF7F8FDA8
:103AB0004820FFF7F5FD1720FFF7F2FD1420FFF770
:103AC000EFFD1520FFF7ECFD3120FFF7E9FD342075
:103AD000FFF7E6FD20460421FDF778FCE120FFF723
:103AE000DFFD20460421FDF773FCD020FFF7D8FD51
:103AF0000820FFF7D5FD0E20FFF7D2FD0920FFF7C4
:103B0000CFFD0920FFF7CCFD1520FFF7C9FD3120BF
:103B1000FFF7C6FD3320FFF7C3FD4820FFF7C0FDC8
:103B20001720FFF7BDFD1420FFF7BAFD1520FFF7A2
:103B3000B7FD3120FFF7B4FD3420FFF7B1FD20467B
:103B40000421FDF743FC2120FFF7AAFD20460421B4
:103B5000FDF73EFC20460421FDF738FC2920FFF745
:103B60009FFD20460421BDE81040FDF731BC000058
:103B700070B584B041F218060124C4F20206306820
:103B800040F045003060012000F03EFB4020012164
:103B9000FDF7D6FE40F60005102001A9C4F201058C
:103BA0000390ADF80440032005F5805402902046B0
:103BB000FDF75EFA20462021FDF70AFC286820F078
:103BC00001002860286820F002002860286840F082
:103BD00003002860286820F010002860286820F082
:103BE00020002860286840F030002860286820F411
:103BF00080702860286820F400702860286840F4ED
:103C000040702860286820F480502860286820F4DC
:103C100000502860286840F440502860286820F050
:103C200004002860286820F008002860286840F018
:103C30000C002860286820F040002860286820F0E8
:103C400080002860286840F0C0002860286820F4C0
:103C500080602860286820F400602860286840F4AC
:103C600040602860286820F480402860286820F49C
:103C700000402860286840F400402860706840F0E8
:103C800008007060012000F0BFFA40F228400921CE
:103C9000CFF6FF70295240F22C4042F21071CFF65D
:103CA000FF70295240F2184047F66801CFF6FF70C6
:103CB000295240F21C4047F67801CFF6FF70295296
:103CC00040F240400021CFF6FF70295240F23C41C3
:103CD000285ACFF6FF716852685A40F23841CFF641
:103CE000FF716852685A40F23441CFF6FF71685252
:103CF00040F2204041F21111CFF6FF70295240F2FC
:103D000000408121CFF6FF70295204B070BD000041
:103D100070B584B040200121FDF712FE41F6000489
:103D20001026022001AD0396ADF804000320C4F272
:103D30000104294602902046FDF79AF92046022107
:103D4000FDF746FB28202946ADF804002046FDF784
:103D50008FF920462821FDF73BFB44202946ADF88A
:103D600004002046FDF784F9204648F22001FDF7C3
:103D70002FFB20462946ADF80460FDF779F920466F
:103D80001021FDF725FB04B070BD0000B0B584B074
:103D900070200121FDF7D4FD102041F6000401AD93
:103DA00003904FF44160C4F201042946ADF80400C9
:103DB00003200290A4F58060FDF75AF94FF480507B
:103DC0002946ADF80400A4F50060FDF751F94FF461
:103DD00080602946ADF804002046FDF749F92046E9
:103DE0004FF48061FDF7F4FA04B0B0BD2DE9F04165
:103DF00041F600040E460546042198461746C4F2D3
:103E000001042046FDF7E2FA2A20FFF749FC20468C
:103E10000421FDF7DDFA280AFFF742FCE8B2FFF7BC
:103E20003FFC380AFFF73CFCF8B2FFF739FC2046AC
:103E30000421FDF7CBFA2B20FFF732FC20460421AA
:103E4000FDF7C6FA300AFFF72BFCF0B2FFF728FCAB
:103E50004FEA1820FFF724FC5FFA88F0FFF720FCF8
:103E600020460421FDF7B2FA2C20FFF719FC20466A
:103E70000421BDE8F041FDF7ABBA0000F0B58BB00E
:103E800041F21800C4F20200016841F400610160CF
:103E9000012000F0B9F942F63C4601200027C4F2A7
:103EA00001063780B78000F0AFF9C0200121C0F2D1
:103EB0001600FDF74DFA4FF400600121FDF740FDBB
:103EC00041200121FDF73CFD032042F6004408A9F2
:103ED00009901820C4F201040A904FF4C040ADF8D4
:103EE0002000A4F5A050FDF7C3F841F61F4005A936
:103EF000CDE905702046FEF7A9F9602001ADC0F2BA
:103F00000100294601902046CDF80A70FEF720F9FD
:103F100020460821FEF75AF920462946FEF75CF9AB
:103F200020460821FEF788F920460121FDF786FF8B
:103F300020460121FDF766FF20460121FDF774FFB1
:103F40003780B7800BB0F0BD10B542F200440C21B1
:103F500001220723C4F201042046FDF727F820467A
:103F60000121FDF75DF800BF20460221FCF7EAFFC2
:103F70000028F9D02046FCF7E1FF03F0D2FF46F21B
:103F800066634FF06632C4F20A0304F055F848F253
:103F900000030022C4F2670304F04EF8002300225D
:103FA000C4F2240303F0FAFD00230022C4F25903F3
:103FB00004F042F800230022C3F6307304F03CF80A
:103FC00003F080FF10BD000080B5FDF715FC00BFB9
:103FD00001F054F90028FBD180BD0000B0B58AB0D3
:103FE00002200121FDF7A0FC10200121FDF7A8FC13
:103FF00040F600400121C0F21A00FDF7A9F940F295
:104000000044042001A90390C020C4F20004ADF8CC
:10401000040004F58630FDF72BF807AD2846FEF7BF
:104020006BF94FF6FF702946089000200790204654
:10403000FEF70CF92046032100220023FDF70AFFBA
:1040400004AD2846FEF776F80A202946ADF8180098
:104050002046FDF725FF20460121FDF7DDFE204625
:1040600001210122FEF76CF820460021FEF7ECF852
:1040700020460121FDF7D8FE0AB0B0BDB0B58AB028
:10408000042001210424FDF74FFC20200121FDF72D
:1040900057FC4FF480500121FDF75AF9039440F684
:1040A00000044FF4405001A9C4F20004ADF804002C
:1040B00004F58630FCF7DCFF07AD2846FEF71CF957
:1040C0004FF6FF7029460890002007902046FEF723
:1040D000BDF82046032100220023FDF7BBFE04ADFE
:1040E0002846FEF727F80A202946ADF81800204692
:1040F000FDF7D6FE20460121FDF78EFE2046012168
:104100000122FEF71DF820460021FEF79DF820460B
:104110000121FDF789FE0AB0B0BD00002DE9F04392
:1041200081B08146501E154698460E4682B2581EF2
:1041300083B24846FFF75AFE464510D2089C00BF9E
:10414000A94508D24F4600BF2046FEF741FA013785
:10415000B8B2A842F8D30136B0B24045F0D301B0AE
:10416000BDE8F0837047000080B56FF00400FDF7F4
:10417000FBFC40F200004DF6836140F23E12C2F2B9
:104180000000C4F21B31C2F200020068A0FB010172
:10419000480D1070C1F347504FF47A71484340F214
:1041A0003C11C2F20001088080BD000040F23C11C9
:1041B000C2F20001098841434EF21000CEF2000025
:1041C000416000218160016841F00101016000BF90
:1041D000016801F0011101290ED1016801F00111FE
:1041E000012909D1016801F00111012904D10168F7
:1041F00001F001110129EBD0016821F001010160FA
:10420000002181607047000040F23E11C2F20001BF
:10421000097841434EF21000CEF2000041600021C7
:104220008160016841F00101016000BF016801F097
:10423000011101290ED1016801F00111012909D1F3
:10424000016801F00111012904D1016801F0011197
:104250000129EBD0016821F001010160002181609A
:10426000704700002DE9F04186B004464CF602206C
:104270000DF102050421C0F6E3102A46CDF8020034
:10428000682002F061FBA32014F040066FF05C028E
:104290006FF05C018DF8020018BF6FF03F028DF8DF
:1042A00003206FF05C0218BF6FF037028DF8042016
:1042B0006FF05C0218BF6FF03D0214F4C0778DF808
:1042C00005206FF05C0218BF6FF03B028DF80620EE
:1042D0006FF05C0218BF6FF033028DF8072018BF33
:1042E0006FF039012A468DF808104AF2A331ADF873
:1042F00009108DF80B0040F6A7200A2102F024FBDC
:1043000014F003086FF027004FF001012A4618BF90
:1043100020208DF8020040F6B62002F015FB14F0C4
:10432000200F0CD1C7208DF8140048F6B000CCF255
:10433000C35004904AF6B820CAF6AA200AE05D20CD
:10434000059049F6B400C3F20D5004904AF6B82027
:10435000C8F6B350039003AA4FF49760092102F006
:10436000F3FA1FB314F480706FF074010DF10202C0
:1043700008BF6FF07F0100288DF803104FF0B001E7
:1043800041EAD0118DF802104FF0B40141EAD0118A
:1043900040F6A2208DF804106FF0640108BF6FF0A2
:1043A0006F018DF80510042102F0CEFAE00708D164
:1043B000D8200DF1020201218DF802004FF40B60AC
:1043C00051E0F8200DF1020201218DF802004FF4B6
:1043D0000B6002F0B9FA0720FA2100F017FB3F202A
:1043E00003AA01218DF80C004FF4A47002F0ACFA7E
:1043F000002003AA01218DF80C0040F24F1002F0BA
:10440000A3FA4FF4A05003AD0221ADF80C004FF415
:10441000EF702A4602F098FA4FF4C84002212A466B
:10442000ADF80C004FF4ED7002F08EFA48F6006023
:1044300003AA0421C9F2F90003904FF4AE7002F010
:1044400083FA4FF4006002212A46ADF80C004FF4C5
:10445000AD7002F079FA4FF4007002212A46ADF8EF
:104460000C004FF4AC7002F06FFA60086C210DF193
:10447000020261F35F0001218DF8020040F23D70FD
:1044800002F062FA600703AA4FF0040152BF4FF036
:104490008B304CF2C020CCF2C460039040F69820E0
:1044A00002F052FA01F01AFBE00603AA4FF00401F1
:1044B00052BF4FF0A33042F62000C3F63000039005
:1044C00040F69E2002F040FA01F008FB40F2341161
:1044D00044F00800002EC2F20001088018BF062632
:1044E000002F18BF063614F0140F18BF46F0100640
:1044F000B8F1000F18BF043601F0F0FA40F23A109C
:10450000C2F200000670002006B0BDE8F081000095
:104510004AF6700140F6F6304FF48062C823C0F6C8
:10452000000101F0E5B800002DE9F04F89B0DDF899
:1045300048908246002014460DF1040B139A8846D9
:104540001E465946A9F8000040F23A10C2F2000097
:10455000007801F06DFA20B14FF0FF3009B0BDE8EE
:10456000F08F40F23410C2F20000B0F800C01CF02E
:10457000140F52D09DF805209DF804109DF80630C8
:10458000B6469DF80760120442EA016141EA03223F
:104590000914324322609DF809309DF808209DF8E7
:1045A0000A609DF80B501B0443EA026242EA0623AC
:1045B00012142B435243636001FB01219DF80D60EF
:1045C0009DF80C309DF80E509DF80F00360446EA19
:1045D000036343EA05261A14304302FB0211A0606C
:1045E0009DF811609DF810009DF812509DF8137011
:1045F000360446EA006040EA0526001400FB00107D
:10460000374300F17140E760B0F1007F79D901F0E4
:1046100065FA0020A9F800009EE700215FEA4C60DF
:104620002AD5C8B241F0060140F001031BF8002072
:104630001BF8033043EA022240F00303A8F80020ED
:1046400040F002021BF802201BF8033043EA02226A
:10465000A8F8022040F0040240F005001BF80220F8
:104660001BF8000040EA0220A8F80400B9F8000096
:1046700040F00800A9F800001CF4C07F18D0C8B2B0
:1046800006313BF80020584412BA120CAAF8002058
:10469000428812BA120CAAF80220808800BA000CD4
:1046A000AAF80400B9F8000040F07000A9F8000072
:1046B0005FEA8C701ED0C8B20BEB00056878EC780E
:1046C00010F0010F0CD040F22811C2F200010A686C
:1046D00032B104F00701C4F3C20001319047687899
:1046E000000707D540F22C10C2F20000016809B1A2
:1046F000A0098847304600F06BFC002009B0BDE8F7
:10470000F08FB9F800001021764640F48070A9F8C7
:1047100000005FEA4C603FF584AFADE7B0B584B010
:1047200004460DF1020000F0A3FE40F230100C250B
:10473000C2F20000028802F0030012F0040F05EA42
:10474000520554F8200018BF4042BDF8021012F084
:10475000200F4FEAC133C2F3811183FB00C054F82C
:10476000211064594FEA905E4FEA90358DF804E0CD
:104770008DF805504FEA90158DF8065018BF644229
:1047800012F4807F83FB04E44FEA94558DF80850BF
:104790004FEA94358DF809504FEA94158DF80A5078
:1047A00018BF494283FB0112930D8DF80C30930B17
:1047B0008DF80D3093098DF80E304FEA9C7343EA63
:1047C00080008DF807004FEA9E7040EA84008DF863
:1047D0000B00880F0C2140EA820001AA8DF80F001F
:1047E0004FF4257002F0B0F804B0B0BD10B582B03F
:1047F0000446C82819D8C8206A460221B0FBF4F044
:1048000001388DF80100000A8DF8000040F21620F2
:1048100002F09AF848B94BF2664240F6C1200C21EA
:10482000C0F6000202F090F818B14FF0FF3002B06D
:1048300010BD40F23810C2F200000480002002B027
:1048400010BD0000F0B581B040F230114EF20937D2
:104850000C26C2F20001C0F2CA27098801F0030247
:1048600011F0040F06EA510650F8222018BF5242F8
:104870008659C1F3811511F4807F82FB072350F81C
:1048800025504FEA93544FEA93308DF800408DF84D
:1048900001004FEA93108DF802004FEA92706A46C9
:1048A00040EA83008DF8030018BF6D4211F0200F1D
:1048B0004FF474704FF0040118BF764202F044F8D0
:1048C000B0B986FB07016A46800F40EA8100010CFF
:1048D0008DF803008DF80110010E000A8DF800100C
:1048E0008DF802004FF47570042102F02DF818B114
:1048F0004FF0FF3001B0F0BD85FB07016A46800F25
:1049000040EA8100010C8DF803008DF80110010EC2
:10491000000A8DF800108DF802004FF47670042123
:1049200002F012F801B0F0BD10B582B04BF2754143
:104930000446C0F3C100C0F600010A5C8DF80520F2
:1049400004F003028B5C8DF80430C4F38113C95C5E
:104950008DF806104BF27241C0F600018A5C085CCB
:104960008DF800208DF80100C85C01AA03218DF8A4
:10497000020040F2264001F0E7FF50BB6A4640F2D9
:104980002A40032101F0E0FF18BB44F22660C0F288
:104990006600009045F23660C0F276000190600734
:1049A0001BD4A00621D4E00505D567208DF80200B0
:1049B00077208DF8060001AA4FF48860032101F0EA
:1049C000C3FF30B96A4640F23140032101F0BCFF19
:1049D000A0B14FF0FF3002B010BD27208DF80000CD
:1049E00037208DF80400A006DDD547208DF80100A2
:1049F00057208DF80500E005D7D4DCE740F23010F1
:104A0000C2F200000480002002B010BD70B582B078
:104A100004460D464FF0FF30B1F5C86F52D814F080
:104A200007014FD00DF1030000F004FD284604F00B
:104A300015F80021C4F2483103F0C6FE05469DF882
:104A4000030002384FEA70024FF0FF30072A39D8CE
:104A500000264FF08D41C4F24066DFE802F01504F5
:104A6000330A3333331000264FF08C41C4F2C05662
:104A70000AE000264FF08B41C4F2405604E00026C5
:104A80004FF08A41C4F2C046284604F063F803F0B0
:104A9000ADFF8DF80500000A31468DF80400284668
:104AA00004F058F803F0A2FF8DF80700000A8DF813
:104AB000060001A8851CE00706D1A00713D46007F3
:104AC00020D4002002B070BD01AA4FF4EA70022188
:104AD00001F03AFF28BB4FF4927002212A4601F000
:104AE00033FFF0B9E9E701AA4FF4EC70022101F0BD
:104AF0002BFFB0B94FF4947002212A4601F024FF35
:104B000078B9DCE701AA4FF4EE70022101F01CFF36
:104B100038B94FF4967002212A4601F015FF00289B
:104B2000CFD04FF0FF3002B070BD000040F29C01CA
:104B3000C2F200010968002904BF0020704743F653
:104B40000001C4F2010100BF0A8812F0400F0BD12E
:104B50000A8812F0400F07D10A8812F0400F03D1E3
:104B60000A8812F0400FEFD0C2B28A80704700006E
:104B70002DE9F04F83B040F20407054601201646A8
:104B80000C466B46ADF80000C2F20007D7E9000200
:104B9000817C10780222FDF77FFC10B14FF0FF37C7
:104BA0008CE1C820FFF702FB00206B468DF8000067
:104BB000D7E90002C17B10780122FDF76DFC10B12E
:104BC0004FF0FF377AE1D7E900026B464179107860
:104BD0000122FDF761FC10B14FF0FF376EE1D7E91C
:104BE00000026B46817C10780122FDF755FC10B164
:104BF0004FF0FF3762E1D7E900026B46C17D1078C4
:104C00000122FDF749FC10B14FF0FF3756E1D7E91B
:104C100000026B46017910780122FDF73DFC10B1CE
:104C20004FF0FF374AE10C206B468DF80000D7E9C2
:104C30000002017910780122FDF72EFC10B14FF02F
:104C4000FF373BE10F20FFF7B1FAD7E90010BA6A4E
:104C50006B46527A8DF80020012200788978FDF7A2
:104C60001BFC10B14FF0FF3728E1D7E90010BA6AFA
:104C70006B46127A8DF80020012200784978FDF702
:104C80000BFC10B14FF0FF3718E1D7E90010BA6AFA
:104C9000002E6B46927A18BF42F0E0028DF8002099
:104CA000012200788979FDF7F7FB10B14FF0FF374B
:104CB00004E1002E6B460FBF1820B86AC07A60F07E
:104CC0001F008DF80000D7E90002C1791078012299
:104CD000FDF7E2FB10B14FF0FF37EFE016B1C8204F
:104CE000FFF764FA40206B468DF80000D7E9000218
:104CF000017910780122FDF7CFFB10B14FF0FF379B
:104D0000DCE078206B468DF80000D7E9000241799D
:104D100010780122FDF7C0FB10B14FF0FF37CDE056
:104D20003220FFF743FA00206B468DF80000D7E9E8
:104D30000002417910780122FDF7AEFB10B14FF06F
:104D4000FF37BBE0D7E900026B46817A1078022278
:104D5000FCF766FE10B14FF0FF37AFE09DF80000A2
:104D60009DF801100022C5E90022AA60C4E90022D2
:104D7000A26041EA00204AF6AB21CAF6AA21A0FBB4
:104D80000101C1F3C709B9F1000F39D00026E84687
:104D9000D7E900024346C17A10780C22FCF740FEA6
:104DA000002840F08980BDF8000094E80E0001362C
:104DB00000BA01EB204CBDF80410BDF8020000BAA7
:104DC00009BA02EB204003EB2141C4E900C0A16015
:104DD00095E80700BDF806301BBA00EB234ABDF882
:104DE0000830BDF80A001BBA00BA01EB234BF1B240
:104DF00002EB20408945C5E900ABA860C8D802E0B5
:104E0000D5E900ABA868C117832200230027090455
:104E100041EA10410004FBF70CFA4A460023FBF775
:104E200008FAA8604FEAEB7083220023000440EAEE
:104E30001B414FEA0B40FBF7FCF94A460023FBF706
:104E4000F8F968604FEAEA7083220023000440EA20
:104E50001A414FEA0A40FBF7ECF94A460023FBF7F8
:104E6000E8F928604A460023D4E90060A568C11724
:104E7000490141EAD0614001FBF7DBF96060F017BE
:104E80004A460023400140EAD6617001FBF7D1F9A0
:104E90002060E8174A460023400140EAD5616801D6
:104EA000FBF7C7F94FF480310028C4BF0021CFF6CB
:104EB000FF710844A06001E04FF0FF37384603B0AF
:104EC000BDE8F08F80B582B0FEF752FEFEF708FD18
:104ED000FEF7E4FC4FF6FF700021F022F023009073
:104EE0000020FFF71BF9FEF751FFFEF7C7FFFFF7A2
:104EF0006BF8FFF773F8FFF7C1F8FDF773FBFEF7E8
:104F00008BFC4FF4FA3002B0BDE88040AFF3008074
:104F10002DE9F04188B0054644F2040001214FF02C
:104F20000108FCF70DFD43F60004032005AF0690D1
:104F30004FF40070C4F201043946ADF81400182093
:104F4000A4F5405607903046FCF792F80420394605
:104F500007904FF48060ADF814003046FCF788F8F5
:104F60000020019501A90290ADF810004FF44020F7
:104F700003902046FDF714FA204640F22551012205
:104F8000FDF7F6F920460121FDF7C6F940F29C0035
:104F9000C2F20000C0F8008008B0BDE8F081000057
:104FA00080B5FCF7EFFDFFF7DFF80120FCF710FC00
:104FB0004FF44070FCF7A4FCFFF784FF40F2A00020
:104FC000C2F20000FCF7D4FCFDF73EFBFCE700005A
:104FD0007047000070B582B040F20405C2F20005CF
:104FE00095F8241019B10024204602B070BDA97AAA
:104FF00021B300F0FE002E7C01400C1A297418BF6A
:105000004FF0FF34E8B1687C80B901200DF107034F
:105010008DF80700D5E90002C17B10780122FDF769
:105020003BFA002804BF9DF80700687400F056FDA5
:1050300000281CBF2E744FF0FF34D5E74FF0FF342B
:10504000D2E7287DA0B1687C0028CDD101200DF1E8
:1050500005038DF80500D5E90002C17B1078012217
:10506000FDF71AFA0028BFD19DF805006874BBE768
:1050700000200DF106038DF80600D5E90002C17B82
:1050800010780122FDF708FA0028ADD19DF806003E
:105090006874A9E72DE9F04F8DB040F2461405463B
:1050A0000DF12F000F4640F22011164607AA0CAB57
:1050B000C2F20004C2F20001CDE9004040F240100B
:1050C000C2F20000FFF730FA08B10120D1E06078A9
:1050D000C00701D10220CCE0DDE907040696059760
:1050E000099E0A9F03F0A2FC4FF0425103F032FDEB
:1050F0008046204603F09AFC4FF0425103F02AFD0F
:105100008146304603F092FC4FF0425103F022FDFD
:105110000446384603F08AFC4FF0425103F01AFD72
:10512000064648464FF0404103F014FD31468246A2
:10513000039603F00FFD074640464146CDF8108028
:1051400003F080FA2146804603F004FD394603F05F
:1051500079FA03F04BFA02F0EFF84AF266634FF087
:105160006632C4F24C0302F067FF02F029FC2860AB
:105170002046214603F066FA3146834603F0EAFCF6
:1051800005464046494603F0E5FC294603F05AFA35
:1051900003F02CFA05460F464846514603F0DAFC68
:1051A00006462046594603F0D5FC0146304603F03A
:1051B0009DFD4FF07E5103F045FA03F017FA0246C9
:1051C0000B462846394602F0FFFA4AF2666A4FF06B
:1051D0006632C4F24C0A534602F02EFF02F0F0FB96
:1051E000059908604846214603F0B4FC039F049EDD
:1051F00005463046394603F0ADFC0146284603F02B
:1052000021FA014603F01EFA03F0F0F9054688463C
:105210003046314603F09EFC06464846494603F0B8
:1052200099FC0146304603F00DFA06462046214619
:1052300003F090FC0146304603F058FD0446384622
:10524000394603F087FC0146204603F04FFD03F08A
:10525000CDF902460B462846414602F0B5FA4FF01A
:105260006632534602F0E8FE02F0AAFB0699086097
:105270000020C0B20DB0BDE8F08F000070B582B064
:10528000FCF7AEF800F022F9002840F09A804EA01A
:10529000FAF7F4FF782001F0DBFA002814BF53A0DE
:1052A0005CA0FBF737F940F20404C2F2000494F862
:1052B000240020B14BF2D050C0F6000023E0A07AC9
:1052C000E8B100F07806257C2674607C80B9012066
:1052D0000DF107038DF80700D4E90002C17B1078B7
:1052E0000122FDF7D9F8002804BF9DF8070060747B
:1052F00000F0F4FB08B1257401E0782EDAD04BF20F
:105300003070C0F60000FBF705F9642001F030FAB8
:10531000002819BF4BF20060C0F600004BF210509D
:10532000C0F60000FBF7F6F8FFF7F2F8002819BF07
:105330004BF23060C0F600004BF2B040C0F6000007
:10534000FBF7E8F88820FFF7EFFA002819BF4BF2C7
:105350000070C0F600004BF2A050C0F60000FBF752
:10536000D9F840F27310FEF77DFF002819BF4BF209
:105370007060C0F600004BF2E040C0F60000FBF7A2
:10538000C9F86420FFF732FA002819BF4BF2A06079
:10539000C0F600004BF24050C0F60000FBF7BAF830
:1053A00001F006FB012001F06BF9002819BF4BF258
:1053B000D060C0F600004BF27050C0F60000FBF762
:1053C000A9F8002002B070BD6D707520696E697417
:1053D00069616C697A6174696F6E20636F6D706C5E
:1053E0006574652E2E2E2E2E2E0A20006D70755F90
:1053F0007365745F73656E736F7220636F6D652084
:105400006163726F7373206572726F72202E2E2E1D
:105410002E2E2E006D70755F7365745F73656E73ED
:105420006F7220636F6D706C657465202E2E2E2E4A
:105430002E2E000040F20401C2F200014A7A032A33
:1054400084BF4FF0FF30704740F20243D200C1F2F8
:105450000803D3400370C97C002904BF00207047B3
:1054600040F60401C2F21001D140017000207047E3
:1054700080B540F2040CC2F2000C9CF8091003291C
:1054800084BF4FF0FF3080BD4FF4005E4FF4804387
:10549000DFE801F01002070C40F6CE7E41F69C7367
:1054A00008E04FF4006E4FF4805303E04FF4806E39
:1054B0004FF4006303809CF81310002904BF002000
:1054C00080BDA0F800E0002080BD000010B584B0D1
:1054D00040F2040480200DF107038DF80700C2F2AA
:1054E0000004D4E90002817C10780122FCF7D4FF8B
:1054F00010B14FF0FF341EE06420FEF757FE00208D
:105500000DF107038DF80700D4E90002817C1078C3
:105510000122FCF7C1FF10B14FF0FF340BE0D4E9DA
:1055200000020DF10703817D10780622FCF778FA5E
:1055300020B14FF0FF34204604B010BD9DF80C2080
:105540009DF8080004239DF80A1003EA820200F087
:10555000010061F34102104307D000F00701012967
:105560002BD002290ED1002028E0D4E900020DF151
:105570000703C17810780122FCF752FA48B14FF0C6
:10558000FF34D8E7C1B248A0FAF778FE4FF0FF34F5
:10559000D1E79DF8070000F00F0004280AD000288A
:1055A000E1D14BF26070C0F60000FAF7B3FF4FF0A4
:1055B000FF34C0E746A0FAF7ADFF01204FF6FF71B8
:1055C0000DF10D03E181E074FF202074A0744FF011
:1055D000FF30A0600120207384F822000020208486
:1055E000C4E90500E06184F82700C4F8230018200E
:1055F0008DF80D00D4E90002817910780122FCF7C2
:105600004BFF10B14FF0FF3495E79DF80D00C00837
:105610002072A07A70B100208DF80E00607A90B1EF
:10562000D4E900020DF10E03C17910780122FCF7D4
:1056300033FF10B14FF0FF347DE79DF80E00C00836
:105640006072A07A78B103208DF80F00E07A032809
:105650000FD0D4E900020DF10F03817810780122F8
:10566000FCF71AFF10B14FF0FF3464E79DF80F000C
:10567000E072322001F07CF810B14FF0FF345AE7AD
:105680000020FFF7A7FC10B14FF0FF3453E70020D4
:1056900000F082FF10B14FF0FF344CE700200024EF
:1056A00001F0D6F847E700BF556E737570706F72E2
:1056B00074656420736F6674776172652070726FB1
:1056C00064756374207265762025642E0A000000DC
:1056D00048616C662073656E736974697669747964
:1056E000207061727420666F756E642E0000000079
:1056F0002DE9F04F8BB0074688464FF0FF30002968
:1057000000F0958040F20409C2F2000999F82510D2
:10571000002940F08C80002FCDE901326BD00020B1
:105720004FF0000AA7EB000B08EB0001BBF1100FD4
:10573000A8BF4FF0100B002905916CD099F80A0012
:10574000002868D04FEA1A208DF82BA01FFA8BF59D
:105750008DF82A005FFA8AF02E18CAF30720049009
:10576000D9F8040041898E4255D8D9F80010007844
:1057700002220DF12A03097EFCF78EFE4C4600281A
:1057800049D1039545465FFA8BF8D4E90002059BA1
:10579000417D10784246FCF77FFEE0BBA07A2246AE
:1057A000C8B304988DF82BA08DF82A005068418961
:1057B0008E4230D81168007802220DF12A03097E4A
:1057C000FCF76AFE494630BBD1E900020DF11A042C
:1057D0002346417D10784246FCF722F9D8B9059856
:1057E000039A2146FAF7ACFE20BBDA44A8461FFA1A
:1057F0008AF0B84296D302980DF12A038DF82B0057
:10580000000A8DF82A00D9E90002817E1078022270
:10581000FCF742FE20B14FF0FF300BB0BDE8F08F37
:105820000198A9F82600012089F8250000200BB076
:10583000BDE8F08F6FF001000BB0BDE8F08F000005
:1058400070B582B00446282802D94FF0FF34EBE04F
:1058500040F20405002CC2F2000545D095F8230063
:10586000012820D0A87C95F822103222002808BFF9
:10587000302200298DF8032007D06FF04D01002859
:1058800008BF6FF04F018DF80310D5E900020DF14C
:1058900003030126017D10780122FCF7FDFD00289D
:1058A00008BF85F823602020012C8DF800004FD11F
:1058B00000208DF80100A87A002800F099800620C9
:1058C0008DF80400E87A062800F09280D5E90002FD
:1058D00001AB817810780122FCF7DEFD002840F052
:1058E00087809DF8040082E095F8230000B3A87C2F
:1058F00095F822100028024618BF022200298DF8D0
:10590000022007D06FF07D01002808BF6FF07F01F3
:105910008DF80210D5E900020DF10203017D107827
:105920000122FCF7B9FD002804BF002085F8230000
:105930004FF4E0606B46ADF80000D5E90002817CD1
:1059400010780222FCF7A8FDB8B34FF0FF346BE0EB
:10595000052C18D801208DF80100A87A002847D01E
:1059600006208DF80500E87A062841D0D5E9000226
:105970000DF10503817810780122FCF78DFDB8BB8D
:105980009DF8050033E0142C1AD802208DF8010090
:10599000A87A68B305208DF80600E87A052827D094
:1059A000D5E900020DF10603817810780122FCF799
:1059B00073FDE8B99DF8060019E000242C7533E06A
:1059C00003208DF80100A87A90B104208DF807001B
:1059D000E87A04280CD0D5E900020DF1070381789C
:1059E00010780122FCF758FD10B99DF80700E87205
:1059F0009DF8010007216B4641EA80108DF80100F7
:105A0000D5E90002817C10780222FCF745FD10B137
:105A10004FF0FF3408E0002408202C73A872012006
:105A200028750020FFF7D6FA204602B070BD0000AE
:105A30002DE9F04182B040F204070E4605461446B7
:105A40004FF0FF30C2F2000797F82410D9B3B97AAB
:105A5000C9B3D7E900020DF10603817A107802225A
:105A6000FBF7DEFF28BB9DF806009DF8071041EA12
:105A70000028A84502D2002020701AE078684188EA
:105A8000B8EB510F0DD9396800780DF106030122EA
:105A9000497CFBF7C5FF60B99DF80600C00615D428
:105AA000786839680078EAB23346C97AFBF7B8FFFC
:105AB00020B14FF0FF3002B0BDE8F081B8FBF5F047
:105AC00001382070002002B0BDE8F08100F006F837
:105AD0006FF0010002B0BDE8F081000010B582B0A7
