:020000040800F2
:10000000A8070020CD010008690600086106000865
:1000100065060008A9020008010C000800000000A5
:10002000000000000000000000000000DF010008E8
:10003000AD02000800000000E3010008E50100082F
:10004000E7010008E7010008E7010008E7010008F0
:10005000E7010008E7010008B1020008E701000815
:10006000E7010008E7010008E7010008E7010008D0
:10007000E7010008E7010008E7010008E7010008C0
:10008000E7010008E7010008E7010008E7010008B0
:10009000E7010008E7010008E7010008E7010008A0
:1000A000E7010008E7010008E7010008E701000890
:1000B000E7010008E701000835090008E70100082A
:1000C000E7010008E7010008E7010008E701000870
:1000D000E7010008450A0008E7010008E7010008F9
:1000E000E7010008E7010008E7010008E701000850
:1000F000E7010008E7010008E7010008E701000840
:10010000E7010008E7010008E7010008E70100082F
:10011000E7010008E7010008E7010008E70100081F
:10012000E7010008E7010008E7010008E70100080F
:1001300000F002F800F03AF80AA090E8000C8244BF
:100140008344AAF10107DA4501D100F02FF8AFF29C
:10015000090EBAE80F0013F0010F18BFFB1A43F0A5
:1001600001031847A4150000C4150000103A24BF6D
:1001700078C878C1FAD8520724BF30C830C144BF0C
:1001800004680C607047000000230024002500264E
:10019000103A28BF78C1FBD8520728BF30C148BFEA
:1001A0000B6070471FB51FBD10B510BD00F04AF8B9
:1001B0001146FFF7F7FF01F0C3F900F068F803B448
:1001C000FFF7F2FF03BC01F01BF90000094880476C
:1001D00009480047FEE7FEE7FEE7FEE7FEE7FEE729
:1001E000FEE7FEE7FEE7FEE704480549054A064B41
:1001F00070470000DD07000831010008A801002059
:10020000A8070020A8030020A803002070470000D2
:1002100010B5044603E001F073F9401C09D014F84E
:10022000010B05490028F6D1BDE810400A2001F075
:1002300067B94FF0FF3010BD48010020704770478C
:1002400070477047754600F02BF8AE4605006946CA
:10025000534620F00700854618B020B5FFF7C4FFCD
:10026000BDE820404FF000064FF000074FF00008B7
:100270004FF0000BAC46ACE8C009ACE8C009ACE8F4
:10028000C009ACE8C00921F007018D46704710B5E0
:100290000446AFF300802046BDE81040FFF78FBF53
:1002A0000048704708000020FEE70000704700008B
:1002B00080B5012000F00AF841F200000121C4F2EB
:1002C0000100BDE8804000F0C1B9000040F21441D7
:1002D000C4F2010108607047C26840F20041C4F2F4
:1002E0000101F2B102680B6893430B604B689343C2
:1002F0004B60D0F804C05CF801301A434CF8012080
:1003000002688B6893438B60CB689343CB608068B3
:1003100010280DD1886810438860C8681043C860F1
:100320007047D0E90020435823EA02024250704748
:1003300043581A434250704780B50C2240F2080ED1
:100340000F2302EA810201F0FC01C4F2010E03FA5C
:1003500002FC51F80E30904023EA0C0341F80E30B5
:1003600051F80E20104341F80E0080BD80B5D1F841
:1003700008E00EF00F0C1EF0100F1CBF4B684CEA8B
:10038000030C098811F0FF0F00F0A4800368CA076E
:100390000BD023F00F02BEF1480F42EA0C0315D038
:1003A000BEF1280F01D1012242618A0712D523F044
:1003B000F002BEF1280F42EA0C131CD0BEF1480F28
:1003C00008D1022202614A0706D418E00122026124
:1003D0008A07ECD44A0712D523F47062BEF1280FC5
:1003E00042EA0C231CD0BEF1480F08D1042202615E
:1003F0000A0719D505E0022242614A07ECD40A0730
:1004000012D523F47042BEF1280F42EA0C331CD0FF
:10041000BEF1480F08D108220261CA0606D418E0CE
:10042000042242610A07ECD4CA0612D523F47022D2
:10043000BEF1280F42EA0C431CD0BEF1480F08D190
:10044000102202618A0619D505E008224261CA0617
:10045000ECD48A0612D523F47002BEF1280F42EACA
:100460000C531CD0BEF1480F08D1202202614A066D
:1004700006D418E0102242618A06ECD44A0612D54E
:1004800023F07062BEF1280F42EA0C631AD0BEF16D
:10049000480F08D1402202610A061AD505E0202241
:1004A00042614A06ECD40A0613D523F07042BEF12D
:1004B000280F42EA0C730AD0BEF1480F09D18022FE
:1004C000026106E0402242610A06EED401E0802289
:1004D00042610360B1F5807F38BF80BD4368CA05C3
:1004E0000CD523F00F02BEF1480F42EA0C0317D0DF
:1004F000BEF1280F02D14FF4807242618A0514D5F3
:1005000023F0F002BEF1280F42EA0C131FD0BEF117
:10051000480F0AD14FF4007202614A0507D41BE06C
:100520004FF4807202618A05EAD44A0514D523F497
:100530007062BEF1280F42EA0C231FD0BEF1480FB3
:100540000AD14FF4806202610A051CD506E04FF41F
:10055000007242614A05EAD40A0514D523F47042B8
:10056000BEF1280F42EA0C331FD0BEF1480F0AD16A
:100570004FF400620261CA0407D41BE04FF48062AA
:1005800042610A05EAD4CA0414D523F47022BEF1EC
:10059000280F42EA0C431FD0BEF1480F0AD14FF496
:1005A000805202618A041CD506E04FF40062426169
:1005B000CA04EAD48A0414D523F47002BEF1280FC9
:1005C00042EA0C531FD0BEF1480F0AD14FF400523B
:1005D00002614A0407D41BE04FF4805242618A044E
:1005E000EAD44A0414D523F07062BEF1280F42EA1F
:1005F0000C631ED0BEF1480F0AD14FF48042026155
:1006000009041BD506E04FF4005242614A04EAD4C3
:10061000090413D523F07041BEF1280F41EA0C7391
:100620000ED0BEF1480F09D14FF400410161436083
:1006300080BD4FF4804242610904EBD4436080BD29
:100640004FF400414161436080BD00008068084074
:1006500018BF012070470000416170470161704779
:10066000FEE70000FEE700007047000042684EF21F
:100670000011CEF20001EAB110B54EF60C5207237C
:10068000CEF20002126890F801E0847890F800C081
:1006900023EA12220F23D340C2F1040223400EFAB0
:1006A00002F21A4301EB0C03120183F80023BDE8A8
:1006B000104000E080310078012300F01F02C0F3F9
:1006C000421003FA02F241F82020704740F08060A7
:1006D0004EF60C5140F0FD70CEF2000108607047FC
:1006E00041F21C020029C4F2020211680CBF21EA87
:1006F000000008431060704741F218020029C4F25C
:10070000020211680CBF21EA000008431060704724
:1007100080B541F2040EC4F2020EDEF8002002F0B1
:100720000C0341F20022C0F27A02082B1FD1DEF83E
:100730000030C3F3834303F1020CDEF8003013F4FE
:10074000803F06D140F60012C0F23D020CFB02F2DF
:100750000DE0DEF8003013F4003F02D10CFB02F292
:1007600005E040F60012C0F23D020CFB02F202600E
:1007700041F2F661DEF80030C0F60001C3F3031366
:10078000CB5CDA404260DEF80030C3F30223CB5C7E
:1007900022FA03F38360DEF80030C3F3C223C95C9E
:1007A00041F2F263C0F6000322FA01F1C160DEF803
:1007B0000020C2F381329A5CB1FBF2F1016180BD8D
:1007C0004EF210010428CEF200010A6822F0040360
:1007D00008BF42F004030B607047000082B041F292
:1007E00004000022C4F20200CFF6FF0250F8041CFD
:1007F00041F0010140F8041C016811404FF6FF72FE
:100800000160CFF6F66250F8041C114040F8041C59
:1008100050F8041C21F4802140F8041C016821F4E4
:10082000FE0101604FF41F01416000210191009120
:1008300050F8041C41F4803140F8041C50F8041CAA
:1008400001F400310091019901310191009919B928
:100850000199B1F5A06FF1D150F8041C11F4003FDB
:100860000CBF0021012100910099012958D1D0F835
:10087000FC1F41F01001C0F8FC1FD0F8FC1F21F054
:100880000301C0F8FC1FD0F8FC1F41F00201C0F8C2
:10089000FC1F0168016001680160016841F480612A
:1008A0000160016821F47C110160016841F4E811E4
:1008B000016050F8041C41F0807140F8041C00BF36
:1008C00050F8041C11F0007F0ED150F8041C11F0F8
:1008D000007F09D150F8041C11F0007F04D150F8BA
:1008E000041C11F0007FEBD0016821F003010160CE
:1008F000016841F002010160016801F00C01082962
:100900000ED0016801F00C01082909D0016801F03E
:100910000C01082904D0016801F00C010829EBD171
:100920004EF608504FF00061CEF20000016002B0B8
:100930007047000010B540F600040121C4F2000425
:10094000204600F017F8012818BF10BD20460121ED
:10095000BDE81040AFF30080C9430182704700003A
:100960000288002942F0010308BF22F0010303803E
:1009700070470000028A0A4018BF0122808908409F
:1009800018BF012010407047002A82890CBF22EA5C
:10099000010111438181704740F6FF33B0F800C078
:1009A000C4F2000398420FDCB0F1804F1ED040F239
:1009B0000043C4F20003984218D040F60003C4F28A
:1009C0000003984212D016E040F60043C4F2000340
:1009D00098420BD043F20043C4F20103984205D081
:1009E00042F60043C4F20103984204D14B882CF034
:1009F000700243EA020C41F2004240F48063C4F208
:100A00000002934204D0CB882CF4407243EA020CDB
:100A1000A0F800C08A8882850A880285A0F18042F9
:100A2000A2F596324FEAB222072A07D8012303FA29
:100A300002F212F0E50F1CBF097A018601218182C2
:100A40007047000010B543F6000440F22551C4F28F
:100A50000104204600F03CF808B3204600F0C8F836
:100A600040F24411C2F200010A8812F4004F18BF8C
:100A700010BDC3B2540413D40D2B02BF42F4804006
:100A8000088010BD40F27C04531C6FF39F32C2F209
:100A90000004A05498B2C72888BF00230B8010BD63
:100AA0000A2B14BF002042F40040088010BD000053
:100AB0008289002942F4005308BF22F40053838145
:100AC000704700000088084018BF012070470000F0
:100AD00001F01F02012303FA02F2C1F34213022BB9
:100AE00006D0012B14BF00F1140300F10C0301E048
:100AF00000F110031B88090A1A404FF0010318BFC8
:100B00000122008803FA01F1084018BF01201040BB
:100B10007047000001F01F0C012303FA0CFCC1F325
:100B200042131421022B08BF1021012B08BF0C21F6
:100B3000002A42580CBF22EA0C0242EA0C02425040
:100B40007047000070B586B00446008A0D46C9881B
:100B500001AE20F4405008434EF6F3112082A089E4
:100B60000840A98808432989084369890843A08166
:100B7000A08AA98920F440700843A0823046FFF77C
:100B8000C7FD43F6000106F108000222C4F201018C
:100B90008C424FF0190108BF06F10C0004260068D2
:100BA0004843A189A2EBD1312A6802FA01F1B0FBD6
:100BB000F1F048F21F51C5F2EB11A0FB01235A09D5
:100BC0006FF0630302FB0300A389A6EBD336B040AA
:100BD0003230A0FB0101072040EA133080F008000A
:100BE00000EA511040EA0210208106B070BD0000FA
:100BF00080886FF35F2070476FF35F2181807047BB
:100C0000FEE7000070B586B041F218000124C4F27E
:100C10000200016841F011010160012000F042FC76
:100C200010200121FFF768FD4820ADF8084002A917
:100C300004900320039041F20000C4F20100FFF78A
:100C400095FB01200121FFF757FD0220002102251D
:100C50000026FFF771FB0C20CDE90246CDE9040424
:100C600002A8FFF739FB06208DF80250ADF800000E
:100C700068460194FFF7FAFC06B070BDB0B586B0C7
:100C8000042001210125FFF72BFD40F6000441F669
:100C90001F4003A9039042F20F70C4F200040490B5
:100CA0002046FFF779FE204601210122FFF76CFE66
:100CB0004FF4A060FFF70AFD02208DF8060040F215
:100CC0001E20ADF8040001A80295FFF7CFFC2046D6
:100CD0000121FFF745FE06B0B0BD000010B5044687
:100CE000000A00F005F8E0B2BDE81040AFF3008064
:100CF000B0B541F6000405460221C4F201042046C5
:100D0000FFF7AAFC20460821FFF7A6FC68B2B0F165
:100D1000FF3F04DD20462021FFF79EFC03E0204634
:100D20002021FFF79BFC20460821FFF797FC204677
:100D30000821FFF791FC680604D420462021FFF724
:100D40008BFC03E020462021FFF788FC2046082189
:100D5000FFF784FC20460821FFF77EFCA80604D498
:100D600020462021FFF778FC03E020462021FFF7F2
:100D700075FC20460821FFF771FC20460821FFF78B
:100D80006BFCE80604D420462021FFF765FC03E055
:100D900020462021FFF762FC20460821FFF75EFC79
:100DA00020460821FFF758FC280704D420462021BC
:100DB000FFF752FC03E020462021FFF74FFC2046BE
:100DC0000821FFF74BFC20460821FFF745FC680788
:100DD00004D420462021FFF73FFC03E020462021D9
:100DE000FFF73CFC20460821FFF738FC204608218D
:100DF000FFF732FCA80704D420462021FFF72CFC83
:100E000003E020462021FFF729FC20460821FFF7B8
:100E100025FC20460821FFF71FFCE80704D12046E7
:100E20002021FFF719FC03E020462021FFF716FCE4
:100E300020460821FFF712FC20460221BDE8B04001
:100E4000FFF70CBC10B500F015FA41F600041021B4
:100E5000C4F201042046FFF7FFFB642000F0F4FA1F
:100E600020461021FFF7FAFB642000F0EDFA20463F
:100E70004021FFF7F3FB642000F0E6FA204604214E
:100E8000FFF7EAFB1120FFF733FF20460421FFF7AD
:100E9000E5FB782000F0D8FA20460421FFF7DCFBC0
:100EA0003620FFF725FF20460421FFF7D7FB00205F
:100EB000FFF71EFF20460421FFF7CEFB3A20FFF785
:100EC00017FF20460421FFF7C9FB0520FFF710FF9D
:100ED00020460421FFF7C0FBB220FFF709FF2046A0
:100EE0000421FFF7BBFB0C20FFF702FF0C20FFF7EC
:100EF000FFFE0020FFF7FCFE3320FFF7F9FE332052
:100F0000FFF7F6FE20460421FFF7A6FBB720FFF708
:100F1000EFFE20460421FFF7A1FB3520FFF7E8FE96
:100F200020460421FFF798FBBB20FFF7E1FE204697
:100F30000421FFF793FB3220FFF7DAFE204604215D
:100F4000FFF78AFBC220FFF7D3FE20460421FFF7FC
:100F500085FB0120FFF7CCFE20460421FFF77CFB38
:100F6000C320FFF7C5FE20460421FFF777FB1520BD
:100F7000FFF7BEFE20460421FFF76EFBC420FFF7FB
:100F8000B7FE20460421FFF769FB2020FFF7B0FEE3
:100F900020460421FFF760FBC620FFF7A9FE20468C
:100FA0000421FFF75BFB0F20FFF7A2FE2046042180
:100FB000FFF752FBD020FFF79BFE20460421FFF7EE
:100FC0004DFBA420FFF794FEA120FFF791FE2046E1
:100FD0000421FFF741FBE020FFF78AFE20460421B1
:100FE000FFF73CFBD020FFF783FE0820FFF780FED1
:100FF0000E20FFF77DFE0920FFF77AFE0920FFF79C
:1010000077FE0520FFF774FE3120FFF771FE3320D5
:10101000FFF76EFE4820FFF76BFE1720FFF768FE14
:101020001420FFF765FE1520FFF762FE3120FFF761
:101030005FFE3420FFF75CFE20460421FFF70CFB27
:10104000E120FFF755FE20460421FFF707FBD020E3
:10105000FFF74EFE0820FFF74BFE0E20FFF748FE7D
:101060000920FFF745FE0920FFF742FE1520FFF794
:101070003FFE3120FFF73CFE3320FFF739FE4820CA
:10108000FFF736FE1720FFF733FE1420FFF730FE80
:101090001520FFF72DFE3120FFF72AFE3420FFF741
:1010A00027FE20460421FFF7D7FA2120FFF720FE74
:1010B00020460421FFF7D2FA20460421FFF7CCFA9C
:1010C0002920FFF715FE20460421BDE81040FFF758
:1010D000C5BA000070B584B041F218060124C4F20C
:1010E0000206306840F045003060012000F0DAF977
:1010F00040200121FFF700FB40F60005102001A968
:10110000C4F201050390ADF80440032005F58054B6
:1011100002902046FFF72AF920462021FFF79EFA89
:10112000286820F001002860286820F0020028606C
:10113000286840F003002860286820F0100028602C
:10114000286820F020002860286840F030002860DF
:10115000286820F480702860286820F400702860D7
:10116000286840F440702860286820F48050286087
:10117000286820F400502860286840F44050286017
:10118000286820F004002860286820F00800286003
:10119000286840F00C002860286820F04000286093
:1011A000286820F080002860286840F0C00028608F
:1011B000286820F480602860286820F40060286097
:1011C000286840F440602860286820F48040286047
:1011D000286820F400402860286840F40040286017
:1011E000706840F008007060012000F05BF940F288
:1011F00028400921CFF6FF70295240F22C4042F2DC
:101200001071CFF6FF70295240F2184047F668017E
:10121000CFF6FF70295240F21C4047F67801CFF616
:10122000FF70295240F240400021CFF6FF70295252
:1012300040F23C41285ACFF6FF716852685A40F29A
:101240003841CFF6FF716852685A40F23441CFF608
:10125000FF71685240F2204041F21111CFF6FF7049
:10126000295240F200408121CFF6FF70295204B08C
:1012700070BD000070B584B040200121FFF73CFA3A
:1012800041F600041026022001AD0396ADF80400DB
:101290000320C4F20104294602902046FFF766F8B5
:1012A00020460221FFF7DAF928202946ADF804008C
:1012B0002046FFF75BF820462821FFF7CFF94420AE
:1012C0002946ADF804002046FFF750F8204648F2C2
:1012D0002001FFF7C3F920462946ADF80460FFF767
:1012E00045F820461021FFF7B9F904B070BD0000A1
:1012F0002DE9F04141F600040E46054604219846CA
:101300001746C4F201042046FFF7A6F92A20FFF78A
:10131000EFFC20460421FFF7A1F9280AFFF7E8FCBB
:10132000E8B2FFF7E5FC380AFFF7E2FCF8B2FFF796
:10133000DFFC20460421FFF78FF92B20FFF7D8FCB4
:1013400020460421FFF78AF9300AFFF7D1FCF0B2FA
:10135000FFF7CEFC4FEA1820FFF7CAFC5FFA88F0CF
:10136000FFF7C6FC20460421FFF776F92C20FFF793
:10137000BFFC20460421BDE8F041FFF76FB9000033
:101380002DE9F04381B08146501E154698460E4621
:1013900082B2581E83B24846FFF7AAFF464510D2D4
:1013A000089C00BFA94508D24F4600BF2046FFF762
:1013B00095FC0137B8B2A842F8D30136B0B2404527
:1013C000F0D301B0BDE8F08310B584B00420012152
:1013D000FFF792F9102040F6000401A903900820BD
:1013E000C4F20104ADF80400032002902046FEF789
:1013F000BDFF20460821FFF72FF904B010BD000003
:101400007047000080B56FF00400FFF7D9F940F293
:1014100000004DF6836140F29E12C2F20000C4F259
:101420001B31C2F200020068A0FB0101480D1070E0
:10143000C1F347504FF47A71484340F29C11C2F215
:101440000001088080BD000040F29C11C2F2000142
:10145000098841434EF21000CEF2000041600021A5
:101460008160016841F00101016000BF016801F085
:10147000011101290ED1016801F00111012909D1E1
:10148000016801F00111012904D1016801F0011185
:101490000129EBD0016821F0010101600021816088
:1014A0007047000040F29E11C2F2000109784143EA
:1014B0004EF21000CEF20000416000218160016810
:1014C00041F00101016000BF016801F00111012933
:1014D0000ED1016801F00111012909D1016801F063
:1014E0000111012904D1016801F001110129EBD09A
:1014F000016821F001010160002181607047000056
:1015000043F60001C4F201010A8812F0400F0BD12A
:101510000A8812F0400F07D10A8812F0400F03D159
:101520000A8812F0400FEFD0C2B28A8070470000E4
:1015300080B5FFF7CFFDBDE88040FFF783BC00001A
:101540002DE9F04F85B0FFF749F9FFF75BFF40F257
:101550006800C2F20000FFF7DBF8FFF7E9FF402068
:1015600001210124FFF7C8F841F60005102002A967
:1015700004900320C4F20105ADF80840039028460A
:10158000FEF7F4FE28460121FFF766F8FFF776FB29
:101590004FF6FF700021F022F0234FF00009009079
:1015A0000020FFF7EDFEFFF70FFFFFF72BFB4FF4D7
:1015B000E13000F051F840F2441A40F2A01740F236
:1015C000A41440F27C080FF27C0B05F5005521A60F
:1015D000C2F2000AC2F20007C2F20004C2F200081E
:1015E000BAF8000006E000BF3046FEF711FE00200A
:1015F000AAF8000000F40041012282EAD13100BFC4
:101600000029FDD100F03F0038605846FEF700FE8B
:101610003868C4F800900128E6DB002018F80010B4
:101620002846FFF7E9FA00BF28464021FFF74AFAAB
:101630000128F9D120683968013088422060EDDB4B
:10164000D2E700BF0D0A206D6573736167653A0DBF
:101650000A0D00000D0A0D002DE9F04389B0814606
:1016600044F2040001214FF00108FFF745F843F66A
:10167000000403254FF4007006AFC4F2010407957F
:10168000ADF8180018203946A4F5405608903046A9
:10169000FEF76CFE0420394608904FF48060ADF8E8
:1016A00018003046FEF762FE40F225308DF80250F9
:1016B000ADF800006846CDF80480FEF7D7FF0020A3
:1016C000CDF8089002A90390ADF814004FF4402023
:1016D00004902046FFF736FA204640F225510122B9
:1016E000FFF718FA20460121FFF7E2F909B0BDE83B
:1016F000F083020406080000000001020304010256
:10170000030406070809000028170008000000204D
:10171000040000006C0100082C17000808000020DD
:0C172000A00700008801000800A24A0495
:04000005080001CD21
:00000001FF
