:020000040800F2
:1000000050070020CD0100081D0600081506000855
:10001000190600087D020008FD0A00080000000023
:10002000000000000000000000000000DF010008E8
:100030008102000800000000E3010008E50100085B
:10004000E7010008E7010008E7010008E7010008F0
:10005000E7010008E701000885020008E701000841
:10006000E7010008E7010008E7010008E7010008D0
:10007000E7010008E7010008E7010008E7010008C0
:10008000E7010008E7010008E7010008E7010008B0
:10009000E7010008E7010008E7010008E7010008A0
:1000A000E7010008E7010008E7010008E701000890
:1000B000E7010008E7010008E9080008E701000877
:1000C000E7010008E7010008E7010008E701000870
:1000D000E7010008450A0008E7010008E7010008F9
:1000E000E7010008E7010008E7010008E701000850
:1000F000E7010008E7010008E7010008E701000840
:10010000E7010008E7010008E7010008E70100082F
:10011000E7010008E7010008E7010008E70100081F
:10012000E7010008E7010008E7010008E70100080F
:1001300000F002F800F03AF80AA090E8000C8244BF
:100140008344AAF10107DA4501D100F02FF8AFF29C
:10015000090EBAE80F0013F0010F18BFFB1A43F0A5
:1001600001031847CC780200EC780200103A24BF53
:1001700078C878C1FAD8520724BF30C830C144BF0C
:1001800004680C607047000000230024002500264E
:10019000103A28BF78C1FBD8520728BF30C148BFEA
:1001A0000B6070471FB51FBD10B510BD00F033F8D0
:1001B0001146FFF7F7FF01F05DF900F051F803B4C5
:1001C000FFF7F2FF03BC01F0CDF8000009488047BB
:1001D00009480047FEE7FEE7FEE7FEE7FEE7FEE729
:1001E000FEE7FEE7FEE7FEE704480549054A064B41
:1001F00070470000910700083101000850010020FD
:100200005007002050030020500300207047704723
:10021000704770477047754600F02CF8AE460500F1
:100220006946534620F00700854618B020B5FFF711
:10023000DBFFBDE820404FF000064FF000074FF015
:1002400000084FF0000BAC46ACE8C009ACE8C009B0
:10025000ACE8C009ACE8C00921F007018D46704741
:1002600010B50446AFF300802046BDE81040FFF70C
:10027000A6BF00000048704708000020FEE700000D
:1002800070470000012000F001B8000040F2144166
:10029000C4F2010108607047C26840F20041C4F234
:1002A0000101F2B102680B6893430B604B68934302
:1002B0004B60D0F804C05CF801301A434CF80120C0
:1002C00002688B6893438B60CB689343CB608068F4
:1002D00010280DD1886810438860C8681043C86032
:1002E0007047D0E90020435823EA02024250704789
:1002F00043581A434250704780B50C2240F2080E12
:100300000F2302EA810201F0FC01C4F2010E03FA9C
:1003100002FC51F80E30904023EA0C0341F80E30F5
:1003200051F80E20104341F80E0080BD80B5D1F881
:1003300008E00EF00F0C1EF0100F1CBF4B684CEACB
:10034000030C098811F0FF0F00F0A4800368CA07AE
:100350000BD023F00F02BEF1480F42EA0C0315D078
:10036000BEF1280F01D1012242618A0712D523F084
:10037000F002BEF1280F42EA0C131CD0BEF1480F68
:1003800008D1022202614A0706D418E00122026164
:100390008A07ECD44A0712D523F47062BEF1280F05
:1003A00042EA0C231CD0BEF1480F08D1042202619E
:1003B0000A0719D505E0022242614A07ECD40A0770
:1003C00012D523F47042BEF1280F42EA0C331CD040
:1003D000BEF1480F08D108220261CA0606D418E00F
:1003E000042242610A07ECD4CA0612D523F4702213
:1003F000BEF1280F42EA0C431CD0BEF1480F08D1D1
:10040000102202618A0619D505E008224261CA0657
:10041000ECD48A0612D523F47002BEF1280F42EA0A
:100420000C531CD0BEF1480F08D1202202614A06AD
:1004300006D418E0102242618A06ECD44A0612D58E
:1004400023F07062BEF1280F42EA0C631AD0BEF1AD
:10045000480F08D1402202610A061AD505E0202281
:1004600042614A06ECD40A0613D523F07042BEF16D
:10047000280F42EA0C730AD0BEF1480F09D180223E
:10048000026106E0402242610A06EED401E08022C9
:1004900042610360B1F5807F38BF80BD4368CA0503
:1004A0000CD523F00F02BEF1480F42EA0C0317D01F
:1004B000BEF1280F02D14FF4807242618A0514D533
:1004C00023F0F002BEF1280F42EA0C131FD0BEF158
:1004D000480F0AD14FF4007202614A0507D41BE0AD
:1004E0004FF4807202618A05EAD44A0514D523F4D8
:1004F0007062BEF1280F42EA0C231FD0BEF1480FF4
:100500000AD14FF4806202610A051CD506E04FF45F
:10051000007242614A05EAD40A0514D523F47042F8
:10052000BEF1280F42EA0C331FD0BEF1480F0AD1AA
:100530004FF400620261CA0407D41BE04FF48062EA
:1005400042610A05EAD4CA0414D523F47022BEF12C
:10055000280F42EA0C431FD0BEF1480F0AD14FF4D6
:10056000805202618A041CD506E04FF400624261A9
:10057000CA04EAD48A0414D523F47002BEF1280F09
:1005800042EA0C531FD0BEF1480F0AD14FF400527B
:1005900002614A0407D41BE04FF4805242618A048E
:1005A000EAD44A0414D523F07062BEF1280F42EA5F
:1005B0000C631ED0BEF1480F0AD14FF48042026195
:1005C00009041BD506E04FF4005242614A04EAD404
:1005D000090413D523F07041BEF1280F41EA0C73D2
:1005E0000ED0BEF1480F09D14FF4004101614360C4
:1005F00080BD4FF4804242610904EBD4436080BD6A
:100600004FF400414161436080BD0000416170478B
:1006100001617047FEE70000FEE700007047000040
:1006200042684EF20011CEF20001EAB110B54EF66A
:100630000C520723CEF20002126890F801E0847891
:1006400090F800C023EA12220F23D340C2F1040223
:1006500023400EFA02F21A4301EB0C03120183F855
:100660000023BDE8104000E080310078012300F055
:100670001F02C0F3421003FA02F241F82020704733
:1006800040F080604EF60C5140F0FD70CEF200015B
:100690000860704741F21C020029C4F2020211688E
:1006A0000CBF21EA000008431060704741F21802B5
:1006B0000029C4F2020211680CBF21EA00000843BD
:1006C0001060704780B541F2040EC4F2020EDEF8ED
:1006D000002002F00C0341F20022C0F27A02082B43
:1006E0001FD1DEF80030C3F3834303F1020CDEF8C0
:1006F000003013F4803F06D140F60012C0F23D02F4
:100700000CFB02F20DE0DEF8003013F4003F02D1E2
:100710000CFB02F205E040F60012C0F23D020CFBB9
:1007200002F2026041F27651DEF80030C0F60001BC
:10073000C3F30313CB5CDA404260DEF80030C3F34E
:100740000223CB5C22FA03F38360DEF80030C3F3AC
:10075000C223C95C41F27253C0F6000322FA01F1D0
:10076000C160DEF80020C2F381329A5CB1FBF2F185
:10077000016180BD4EF210010428CEF200010A682A
:1007800022F0040308BF42F004030B60704700002E
:1007900082B041F204000022C4F20200CFF6FF0250
:1007A00050F8041C41F0010140F8041C016811409C
:1007B0004FF6FF720160CFF6F66250F8041C11404C
:1007C00040F8041C50F8041C21F4802140F8041C5B
:1007D000016821F4FE0101604FF41F014160002116
:1007E0000191009150F8041C41F4803140F8041C40
:1007F00050F8041C01F4003100910199013101917C
:10080000009919B90199B1F5A06FF1D150F8041C04
:1008100011F4003F0CBF0021012100910099012932
:1008200058D1D0F8FC1F41F01001C0F8FC1FD0F8DF
:10083000FC1F21F00301C0F8FC1FD0F8FC1F41F0A1
:100840000201C0F8FC1F01680160016801600168D5
:1008500041F480610160016821F47C11016001684C
:1008600041F4E811016050F8041C41F0807140F837
:10087000041C00BF50F8041C11F0007F0ED150F88A
:10088000041C11F0007F09D150F8041C11F0007F06
:1008900004D150F8041C11F0007FEBD0016821F066
:1008A00003010160016841F002010160016801F08B
:1008B0000C0108290ED0016801F00C01082909D0AB
:1008C000016801F00C01082904D0016801F00C0155
:1008D0000829EBD14EF608504FF00061CEF200002F
:1008E000016002B07047000010B540F6000401211D
:1008F000C4F20004204600F03DF801282AD1204629
:10090000012100F029F840F28010C4F22320016890
:10091000B1FA81F14909016040F24610C2F20000CB
:100920000188052988BF10BDDFE801F00306090C26
:100930000F120121018010BD0221018010BD032191
:10094000018010BD0421018010BD0521018010BD72
:100950000021018010BD0000C943018270470000E2
:100960000288002942F0010308BF22F0010303803E
:1009700070470000028A0A4018BF0122808908409F
:1009800018BF012010407047002A82890CBF22EA5C
:10099000010111438181704740F6FF33B0F800C078
:1009A000C4F2000398420FDCB0F1804F1ED040F239
:1009B0000043C4F20003984218D040F60003C4F28A
:1009C0000003984212D016E040F60043C4F2000340
:1009D00098420BD043F20043C4F20103984205D081
:1009E00042F60043C4F20103984204D14B882CF034
:1009F000700243EA020C41F2004240F48063C4F208
:100A00000002934204D0CB882CF4407243EA020CDB
:100A1000A0F800C08A8882850A880285A0F18042F9
:100A2000A2F596324FEAB222072A07D8012303FA29
:100A300002F212F0E50F1CBF097A018601218182C2
:100A40007047000010B543F6000440F22551C4F28F
:100A50000104204600F02CF808B3204600F04AF8C4
:100A600040F24411C2F200010A8812F4004F18BF8C
:100A700010BDC3B2540413D40D2B02BF42F4804006
:100A8000088010BD40F27C04531C6FF39F32C2F209
:100A90000004A05498B2C72888BF00230B8010BD63
:100AA0000A2B14BF002042F40040088010BD000053
:100AB00001F01F02012303FA02F2C1F34213022BD9
:100AC00006D0012B14BF00F1140300F10C0301E068
:100AD00000F110031B88090A1A404FF0010318BFE8
:100AE0000122008803FA01F1084018BF01201040DC
:100AF0007047000080886FF35F207047FEE70000BA
:100B000070B586B041F218000124C4F202000168F9
:100B100041F011010160012000F076FC102001215C
:100B2000FFF7C4FD4820ADF8084002A90490032057
:100B3000039041F20000C4F20100FFF7F7FB01202F
:100B40000121FFF7B3FD0220002102250026FFF757
:100B5000D3FB0C20CDE90246CDE9040402A8FFF73F
:100B60009BFB06208DF80250ADF80000684601940A
:100B7000FFF756FD06B070BDB0B586B00420012168
:100B80000125FFF787FD40F6000441F61F4003A949
:100B9000039042F20F70C4F2000404902046FFF765
:100BA000FBFE204601210122FFF7EEFE4FF4A0607C
:100BB000FFF766FD02208DF8060040F21E20ADF81A
:100BC000040001A80295FFF72BFD20460121FFF745
:100BD000C7FE06B0B0BD000010B50446000A00F024
:100BE00007F8E0B2BDE8104000F002B8AFF30080B3
:100BF000B0B541F6000405460221C4F201042046C6
:100C0000FFF704FD20460821FFF700FD68B2B0F1B0
:100C1000FF3F04DD20462021FFF7F8FC03E02046DB
:100C20002021FFF7F5FC20460821FFF7F1FC2046C4
:100C30000821FFF7EBFC680604D420462021FFF7CB
:100C4000E5FC03E020462021FFF7E2FC20460821D6
:100C5000FFF7DEFC20460821FFF7D8FCA80604D4E5
:100C600020462021FFF7D2FC03E020462021FFF799
:100C7000CFFC20460821FFF7CBFC20460821FFF7D8
:100C8000C5FCE80604D420462021FFF7BFFC03E0A2
:100C900020462021FFF7BCFC20460821FFF7B8FCC6
:100CA00020460821FFF7B2FC280704D42046202163
:100CB000FFF7ACFC03E020462021FFF7A9FC20460B
:100CC0000821FFF7A5FC20460821FFF79FFC6807D5
:100CD00004D420462021FFF799FC03E02046202180
:100CE000FFF796FC20460821FFF792FC20460821DA
:100CF000FFF78CFCA80704D420462021FFF786FCD0
:100D000003E020462021FFF783FC20460821FFF75F
:100D10007FFC20460821FFF779FCE80704D1204634
:100D20002021FFF773FC03E020462021FFF770FC31
:100D300020460821FFF76CFC20460221BDE8B040A8
:100D4000FFF766BC10B500F015FA41F6000410215B
:100D5000C4F201042046FFF759FC642000F026FB92
:100D600020461021FFF754FC642000F01FFB2046B2
:100D70004021FFF74DFC642000F018FB20460421C1
:100D8000FFF744FC1120FFF733FF20460421FFF753
:100D90003FFC782000F00AFB20460421FFF736FCD8
:100DA0003620FFF725FF20460421FFF731FC002005
:100DB000FFF71EFF20460421FFF728FC3A20FFF72B
:100DC00017FF20460421FFF723FC0520FFF710FF43
:100DD00020460421FFF71AFCB220FFF709FF204646
:100DE0000421FFF715FC0C20FFF702FF0C20FFF792
:100DF000FFFE0020FFF7FCFE3320FFF7F9FE332053
:100E0000FFF7F6FE20460421FFF700FCB720FFF7AE
:100E1000EFFE20460421FFF7FBFB3520FFF7E8FE3D
:100E200020460421FFF7F2FBBB20FFF7E1FE20463E
:100E30000421FFF7EDFB3220FFF7DAFE2046042104
:100E4000FFF7E4FBC220FFF7D3FE20460421FFF7A3
:100E5000DFFB0120FFF7CCFE20460421FFF7D6FB85
:100E6000C320FFF7C5FE20460421FFF7D1FB152064
:100E7000FFF7BEFE20460421FFF7C8FBC420FFF7A2
:100E8000B7FE20460421FFF7C3FB2020FFF7B0FE8A
:100E900020460421FFF7BAFBC620FFF7A9FE204633
:100EA0000421FFF7B5FB0F20FFF7A2FE2046042127
:100EB000FFF7ACFBD020FFF79BFE20460421FFF795
:100EC000A7FBA420FFF794FEA120FFF791FE204688
:100ED0000421FFF79BFBE020FFF78AFE2046042158
:100EE000FFF796FBD020FFF783FE0820FFF780FE78
:100EF0000E20FFF77DFE0920FFF77AFE0920FFF79D
:100F000077FE0520FFF774FE3120FFF771FE3320D6
:100F1000FFF76EFE4820FFF76BFE1720FFF768FE15
:100F20001420FFF765FE1520FFF762FE3120FFF762
:100F30005FFE3420FFF75CFE20460421FFF766FBCE
:100F4000E120FFF755FE20460421FFF761FBD0208A
:100F5000FFF74EFE0820FFF74BFE0E20FFF748FE7E
:100F60000920FFF745FE0920FFF742FE1520FFF795
:100F70003FFE3120FFF73CFE3320FFF739FE4820CB
:100F8000FFF736FE1720FFF733FE1420FFF730FE81
:100F90001520FFF72DFE3120FFF72AFE3420FFF742
:100FA00027FE20460421FFF731FB2120FFF720FE1A
:100FB00020460421FFF72CFB20460421FFF726FBE7
:100FC0002920FFF715FE20460421BDE81040FFF759
:100FD0001FBB000070B584B041F218060124C4F2B2
:100FE0000206306840F045003060012000F00CFA45
:100FF00040200121FFF75AFB40F60005102001A90F
:10100000C4F201050390ADF80440032005F58054B7
:1010100002902046FFF78AF920462021FFF7F8FAD0
:10102000286820F001002860286820F0020028606D
:10103000286840F003002860286820F0100028602D
:10104000286820F020002860286840F030002860E0
:10105000286820F480702860286820F400702860D8
:10106000286840F440702860286820F48050286088
:10107000286820F400502860286840F44050286018
:10108000286820F004002860286820F00800286004
:10109000286840F00C002860286820F04000286094
:1010A000286820F080002860286840F0C000286090
:1010B000286820F480602860286820F40060286098
:1010C000286840F440602860286820F48040286048
:1010D000286820F400402860286840F40040286018
:1010E000706840F008007060012000F08DF940F257
:1010F00028400921CFF6FF70295240F22C4042F2DD
:101100001071CFF6FF70295240F2184047F668017F
:10111000CFF6FF70295240F21C4047F67801CFF617
:10112000FF70295240F240400021CFF6FF70295253
:1011300040F23C41285ACFF6FF716852685A40F29B
:101140003841CFF6FF716852685A40F23441CFF609
:10115000FF71685240F2204041F21111CFF6FF704A
:10116000295240F200408121CFF6FF70295204B08D
:1011700070BD000070B584B040200121FFF796FAE1
:1011800041F600041026022001AD0396ADF80400DC
:101190000320C4F20104294602902046FFF7C6F856
:1011A00020460221FFF734FA28202946ADF8040032
:1011B0002046FFF7BBF820462821FFF729FA4420F4
:1011C0002946ADF804002046FFF7B0F8204648F263
:1011D0002001FFF71DFA20462946ADF80460FFF70D
:1011E000A5F820461021FFF713FA04B070BD0000E7
:1011F0002DE9F04141F600040E46054604219846CB
:101200001746C4F201042046FFF700FA2A20FFF730
:10121000EFFC20460421FFF7FBF9280AFFF7E8FC62
:10122000E8B2FFF7E5FC380AFFF7E2FCF8B2FFF797
:10123000DFFC20460421FFF7E9F92B20FFF7D8FC5B
:1012400020460421FFF7E4F9300AFFF7D1FCF0B2A1
:10125000FFF7CEFC4FEA1820FFF7CAFC5FFA88F0D0
:10126000FFF7C6FC20460421FFF7D0F92C20FFF73A
:10127000BFFC20460421BDE8F041FFF7C9B90000DA
:101280002DE9F04F81B01C460B4492460244013ACE
:10129000013B92B29BB2FFF7ABFFBAF1000F1ED039
:1012A0000A984FF0000B002700F10108601E80B281
:1012B00000F101097CB108EB4B05002615F8010C83
:1012C000FFF794FC2878FFF791FC01360235B0B2A5
:1012D000A042F3D3CB440137B8B25045EAD301B0B2
:1012E000BDE8F08F2DE9F04381B08146501E1546D0
:1012F00098460E4682B2581E83B24846FFF778FFE2
:10130000464510D2089C00BFA94508D24F4600BFF1
:101310002046FFF761FC0137B8B2A842F8D3013686
:10132000B0B24045F0D301B0BDE8F08310B584B051
:1013300004200121FFF7BAF9102040F6000401A9AA
:1013400003900820C4F20104ADF8040003200290C9
:101350002046FEF7EBFF20460821FFF757F904B0BF
:1013600010BD00007047000080B56FF00400FFF76B
:1013700001FA40F200004DF6836140F24A12C2F2D7
:101380000000C4F21B31C2F200020068A0FB0101A0
:10139000480D1070C1F347504FF47A71484340F242
:1013A0004811C2F20001088080BD000040F24811DF
:1013B000C2F20001098841434EF21000CEF2000053
:1013C000416000218160016841F00101016000BFBE
:1013D000016801F0011101290ED1016801F001112C
:1013E000012909D1016801F00111012904D1016825
:1013F00001F001110129EBD0016821F00101016028
:10140000002181607047000040F24A11C2F20001E1
:10141000097841434EF21000CEF2000041600021F5
:101420008160016841F00101016000BF016801F0C5
:10143000011101290ED1016801F00111012909D121
:10144000016801F00111012904D1016801F00111C5
:101450000129EBD0016821F00101016000218160C8
:101460007047000080B5FFF7B5FDBDE88040FFF78D
:1014700069BC00002DE9F04784B0FFF789F9FFF758
:1014800073FF40F26800C2F20000FFF71BF9FFF79C
:10149000E9FF402001210124FFF708F9102001A9EC
:1014A0000390ADF8044041F600040320C4F20104A7
:1014B00002902046FEF73AFF20460121FFF7A6F8EA
:1014C000FFF75AFB4FF6FF7800200021F022F023AF
:1014D000CDF80080FFF706FFFFF728FFFFF710FBAE
:1014E00040F2461547F6961944F28E7A41F2865438
:1014F00048F21E664BF62607C2F20005C0F6000948
:10150000C0F6000AC0F60004C0F60006C0F60007E8
:1015100006E000BF0020002150225023FFF7B0FE5C
:1015200028880528FCD8DFE800F0030C15181A1CE1
:1015300000200021F022F023CDF80080FFF7D2FE3A
:10154000EEE70020002128222823CDF80090FFF7A5
:1015500097FEE5E7CDF800A0DCE70094DAE7009617
:10156000D8E700200021F022F0230097FFF788FE43
:10157000D6E702040608000000000102030401028D
:10158000030406070809101000500050011BCDF796
:10159000CDF7CDF7CDF7CDF7CDF7CDF7CDF7CDF72B
:1015A000C5D7C5F7C5D6C5D6C5D7C5F7C5F7C5F7DD
:1015B000C5D7C5D7C5D7CDF7CDF7C5D6BDB6BDB54F
:1015C000BD95BD95BDB5C5B6BDB5BD95BD95BD7542
:1015D000BD75BD75BD74BD95BD95BD94BD75BD741E
:1015E000BD74BD74BD54B554BD74BD74BD74B553E4
:1015F000BD74BD54B533B513B533B533B533B53359
:10160000B533B533B533AD12AD12ACF2ACF2ACF2CA
:10161000ACF2ACF2ACF2ACF2ACF2ACF2ACD1A4D124
:10162000A4B0A4B0A4D1A4B0A4B0A4B0A490CE1788
:10163000C5D7CDD7CDF7C5D7C5D6C5D7C5F7C5D77B
:10164000C5D7C5D6C5B6C5F7C5D7C5D7C5D7C5D7BC
:10165000C5D7C5D7C5D7CDF7CDF7BDB6BDB6BD96F5
:10166000BDB5BD95BD95BDB5BD95BD95BD95BD95AA
:10167000BD75BD74BD95BD75BD95BD74BD95BD747D
:10168000BD54BD54BD54B554B533BD54B553B53335
:10169000B533B513AD12B513B533B533B554B53352
:1016A000B533B533B533B513ACF2ACF2ACF2ACF242
:1016B000ACF2ACF2ACF2ACF2ACF2ACF2ACD2A4D183
:1016C000A4B1A4B0A4B1A4D1ACD1A4B1A490CDF7DD
:1016D000CDF7CDF7CDF7CDD7C5B7C5B7C5B6C5B62C
:1016E000C5D7C5D6C5F7C5F7C5D7C5B6C5B7C5D71C
:1016F000C5B6C5B6C5D7C5F7C5D7C5B6BD96BD95E0
:10170000BD95BD95BDB6BD95BD95BD75BD74BD9569
:10171000BD95BD95BD95B575B574BD74BD95BD74CC
:10172000BD74B554B533B534B534B554B533B533EC
:10173000B513AD12B513B533B533B533B553B533B2
:10174000B553B533B533B533B513B513ACF2ACF20D
:10175000ACF2ACF2ACF2ACF2ACF2ACF2ACD2ACD1DA
:10176000A4D1A4B1A4D1A4D1A4B0A4B0A46FCDF746
:10177000CDF7CDF7CDD7C5D7C5D7C5B7C5D7C5D751
:10178000C5D7C5F7C5F7C5D7C5D6C5D6C5D7C5D73B
:10179000C5D7C5B6BDB6C5B7C5B6C5D6BD75BD95A9
:1017A000BD95BD95BD96BD96BDB6BD95B575BD75CE
:1017B000BD95BD74BD75BD95BD75B574BD74BD7465
:1017C000BD95BD74BD54BD54B554B533B533B513D3
:1017D000B533B533AD13B513B533B533B533B53311
:1017E000B533B533B533B513B513B513AD12B51362
:1017F000AD13ACF2ACF2ACF2ACF2ACD2A4D2A4D148
:10180000A4D1A4D1A4B1A490A490A4909C6FCDF72E
:10181000C5D7C5D7C5D7C5D7C5D7C5D7C5D7C5D7E8
:10182000BD96BDB6C5D7C5D7C5B6C5B6C5B6C5D7AD
:10183000C5D7C5D7C5B6C5B6C5D7C5B7BDB6BD959D
:10184000BD95BD96C5B6BD96BD95BDB6C638CE583C
:10185000CE58CE38CE38CE38CE58C638C617B57426
:10186000BD95BD95B554B554B554B574BD74B53377
:10187000B513B533B533B513B513B513B533B513C8
:10188000B513B533B533B513B513AD12AD12AD12F3
:10189000ACF2AD12ACF2ACF2ACF2ACD2A4D1A4D1A9
:1018A000A4B1A4B1A4D1A4B1A4B0A490A46FCDF765
:1018B000C5F7C5D7C5D6C5D7C5D7C5D7C5D7C5D729
:1018C000C5D7C5D7C5D7C5D6C5D6C5D6CDF7C5D713
:1018D000C5D7BDB6C5B6BD96BD96D69ACE79CE79DA
:1018E000CE79CE59CE59CE59CE59CE58CE58CE58A3
:1018F000CE58CE58CE58CE58CE58CE58CE58CE38D8
:10190000C638C638C638C637C637C617C617C5F76D
:10191000B533B533AD13AD12ACF2ACF2ACF2B512D7
:10192000B513ACF2B512B513AD12ACF2ACF2ACF229
:10193000AD12ACF2ACF2ACF2ACD1A4D1A4B1A4B172
:10194000A4B0A4B0A4B0A490A4B0A490A490C5D70F
:10195000C5F7C5F7C5F7C5F7C5F7C5F7CDF7C5F79F
:10196000C5D7C5F7C5F7C5D7C5B6C5D6C5D7C5D67A
:10197000CE38D699CE79CE79CE79CE79CE79CE7948
:10198000CE79CE59CE79CE79CE59CE59CE59CE59BF
:10199000CE58CE58CE58CE58CE58CE58CE38C6385F
:1019A000CE38C638C638C637CE38C617C638C63859
:1019B000C617C617C5F6C5F6C5D6AD13AD13AD131C
:1019C000ACF2ACF2B512B512ACF2ACF2ACF2ACF2D5
:1019D000ACF2ACF2ACF2ACD1ACD1ACD1A4D1ACD1C4
:1019E000A4B1A4B0A490A490A4909C70A46FCDF7CF
:1019F000C5F7C5F7C5F7C5F7CDF7CDF7C5D7C5B658
:101A0000C5B6C5D6C5B6BDB6B596D69AD69AD69A37
:101A1000D69AD699D699D699D679CE79CE79CE79E5
:101A2000CE79CE79CE79CE79CE79CE79CE59CE59BE
:101A3000CE59CE58CE58CE58CE58CE58CE58CE3895
:101A4000CE38C638C637CD76C5127204C617C6382A
:101A5000C617C617C617C5F6C5F6BDF6BDD6BDD5A1
:101A6000A4F2ACF2ACF2AD12ACF2ACF2ACF2ACF26D
:101A7000ACF2ACF2ACF2ACD1ACF1ACF1ACD1A4D1E3
:101A8000A4B1A490A490A4909C6F9C6FA46FC5D7A0
:101A9000C5D6C5F7C5D6C5D6C5B6BDB6BD96C5B6FD
:101AA000BDB6BD96D6BAD6BAD6BAD69AD69AD69A70
:101AB000D69AD699D699D699D699CE79CE79CE7925
:101AC000CE79CE79CE79CE79CE79CE59CE79CE591E
:101AD000CE59CE58CE58CE58CE58CE58CE58CE38F5
:101AE000CE38CE38AA08BA46A2EA69846984C638D4
:101AF000C617C617C617C5F7BDF6BDF6BDD6BDD508
:101B0000BDB5BDB5BDB4B574ACF2ACF2ACF2ACF2DF
:101B1000ACF2ACF2ACF2ACF2ACD1A4D1A4D1A4B191
:101B2000A4B0A490A4B0A490A490A490A490C5B78D
:101B3000C5D649A6C5D6C5B6C5B6BD96BDB6D6BA34
:101B4000D6BAD6BAD6BAD6BAD6BAD69AD69AD69A75
:101B5000D69AD699CE99D699D699D699CE79CE7964
:101B6000CE79CE79CE79CE79CE79CE79CE59CE597D
:101B7000CE59CE58CE59CE58CE58CE58CE58CE3853
:101B8000CE38CB6ECA67CBCEB36E82875123D65781
:101B9000C617C617C617C5F6BDD6C5D6BDD5BDB5C1
:101BA000BDB5BDB5BD94B594B594B573A4B1ACD174
:101BB000A4D1ACF2ACF2ACF2A4D1A4B1A4B1A4B063
:101BC000A4B1A4B1A4B1A4B1A4B0A490A490C5B68A
:101BD000C5B6C5D6BDB6C5B6BDB6D6BAD6BAD6BADE
:101BE000D6BAD6BAD6BAD6BAD6BAD69AD69AD69AD5
:101BF000D69AD699D699D699D699CE79CE79D679DC
:101C0000CE79CE79CE79CE79CE79CE79CE59CE59DC
:101C1000CE59CE58CE58CE58CE58CE58CE58CE38B3
:101C2000A925EC30E42FC2E980839ACA59026124C5
:101C3000C617C617C5F6C5F6BDD6BDD6BDB5BDB56A
:101C4000BDB5BDB5BD94B594B574B573B553B553B5
:101C5000B532A4D1ACF2ACF1A4D1A4D1A4D1ACD111
:101C6000ACD1ACD1A4B1A4B1A4B0A490A48FBD75E3
:101C7000BD75BD75B575D6BAD6DAD6BAD6DAD6BAC6
:101C8000D6BAD6BAD6BAD6BAD69AD69AD69AD69A54
:101C9000D699D699CE99D699D699CE79CBD0998620
:101CA0007122CE79CE79CE79CE59CE59CE59CE7910
:101CB000CE59CE59CE59CE58CE58CE58CE58C2084D
:101CC000B965BA29C3AEC26890C289E761236123AE
:101CD000CE57C5F6C5F6BDD6BDD5BDD5BDB5BDB5CE
:101CE000BD94B594B594B573B553B553B553AD53D1
:101CF000AD32AD12AD12ACF1A4D1A4D1ACD1ACD106
:101D0000ACD1A4B1A4B1A4B0A490A490A490B57592
:101D1000B555DEDBD6BAD6DAD6DAD6BAD6BAD6BA60
:101D2000D6BAD6BAD6BAD6BAD69AD69AD69AD69AB3
:101D3000D699D699D699D699D67ACACEE3CFA0E2CB
:101D4000A1E4CE59CE79CE79CE79CE59CE59CE599D
:101D5000CE59CE59CE58CE58CE58CE58DEDBB12310
:101D6000B0A1D2CBA8A388A2B2087062BD356943E6
:101D700058A1C5F6C5D6BDD5BDB5BDB5BDB5BD94DB
:101D8000BD94B574B573B553B553B553AD32AD32DB
:101D9000AD32AD12AD11AD11A4D1A4D1ACF1ACF204
:101DA000A4D2A4D1ACD1A4B1A4B1A4B0A4B0DEDBC0
:101DB000DEDBD6DAD6DAD6DADEDBD6BAD6DAD6BAD1
:101DC000D6BAD6BAD6BAD6BAD69AD69AD69AD69A13
:101DD000D699D699D699D679E36EE3F0B0A1A90148
:101DE00090E18183D679CE79CE79CE59CE59CE592C
:101DF000CE59CE58CE58CE38BD94C617DE9ACA07F3
:101E0000A860DA27E36FA103ED33BC718A68932BD6
:101E10007162C5D6BDD5BDD5BDB5BDB5BD94BD94AA
:101E2000B574B573B5537863A92760228A47AD327C
:101E3000AD12AD12A512A4F1A4D1A4D0A4D1A4D105
:101E4000A4B1A4B1A4B1A4B1A4B0A490A470DEDBE9
:101E5000DEDBD6DAD6DBD6BAD6DAD6DAD6DAD6BA38
:101E6000D6BAD6BAD6BAD6BAD69AD69AD69AD69A72
:101E7000CE99D699D679ED96B945F4B3F4F3E4D278
:101E8000BAA980A179A3CE59CE79CE79CE59CE798F
:101E9000AD33C5B4BDB4BD94BDB4DEB9E6DAF63633
:101EA000DA46C0A1B8C2A820A061A1658963AAEBE7
:101EB00093A9BDD5BDD5BDB5BD94BD94B574B5745C
:101EC000B553B53391688823D2AC88626040AD3297
:101ED000AD11AD11A4F1A4F1A4D0A4D1A4D0A4D08B
:101EE0009C8FA4D1A4B1A4B0A4B0A490A490DEDB34
:101EF000D6DBD6BBD6DBD6DBD6DBD6BAD6BAD6BADD
:101F0000D6BAD6BAD6BAD69AD69AD69AD69AD69AF1
:101F1000D699D679ED98FD76E3CEB8C3CA289861F4
:101F2000BA0780A268817984CE59CE59CE59DEDABB
:101F3000CE57B553BD93BD93C5D5D678DE79D5942C
:101F4000D204B880B8C2B0A19820A0C090C191813D
:101F50009BC9BDB4BDB4BD94B574B573B553AD5391
:101F6000AD33B5129883902290629186686150607B
:101F7000ACF1A4F1A4D0A4D0A4B0A4B0A4B0A4B0F7
:101F8000A4B0A4B0A4B0A4B0A4B1A490A490DEDB8B
:101F9000D6DBD6DBD6DAD6BAD6BAD6BAD6BAD6BA5F
:101FA000D6BAD6BAD69AD69AD69AD69AD69ACE997A
:101FB000D69AD679DB6EECB3C963E2EAF40F9040AF
:101FC00088A1786068607102B532CE79CE59DEFBA7
:101FD000D699BD73B552B552C5B3D657DE99DE99C1
:101FE000E573B9A1B040A0609840BA03BB46AC4CC1
:101FF000A44B938793A8B573B553B553AD52B5525F
:10200000B5329022B987B906906288626800690388
:10201000ACF1ACF1A4D1A4D0A4D0A4D0A4D0A4B0ED
:10202000A4B0A4B0A4AFA4B0A4B1A4B1A4B0DEDBAA
:10203000D6DBD6DBD6BAD6BAD6DAD6DAD6BAD6BA9E
:10204000D6BAD6BAD6BAD69AD69AD69ACE99CE79E2
:10205000D699D679E32BF430C8E3C8E2C963A8C1A6
:1020600090C2806070607902ACF09C8ECE59DEDA4E
:10207000C616A4AFA4AEB4F0BD52CDF5DE98D657C7
:10208000D5F6C2E8D2C5CAA7A1C2CDF5D6789BC9FC
:102090009BE993C8A44AA44CACAFAD32A46FB5324F
:1020A000CB4CB9E8A062A022B926884170205840E4
:1020B0008247A4D1A4D0A4D0A4D0A4D0A4D0A4B04A
:1020C000A4B0A4AFA4AFA48FA4AFA4B1A4B0DEDB2E
:1020D000D6DBD6DAD6DAD6BAD6BAD6DAD6BAD6BAFF
:1020E000D6BAD6BAD69AD69AD69AD69ACE79CE7982
:1020F000CE79EF7DDA06D943EBEED183E1C5CA058F
:1021000098C27840704089839BEB93CA9BEAD5F3D1
:10211000ACAEA48EA48EACCFB511BD73D635DEB8EF
:10212000E6B9DE78D5F6C572BD11D5F6D678B4CE4F
:10213000ACADAC8DB4EFACADAD12BD94E71CCD959C
:10214000C1C7A001B8A4A884B18778007000682036
:102150004820A4D0A4D0A4B0A4D0A4D0A4D0A4B02B
:10216000A4B0A4AFA48FA48FA48F9C8FA48FDEDB18
:10217000DEDBD6DBDEDBD6DAD6BAD6BAD6BAD6BA4C
:10218000D6BAD6BAD69AD69AD69AD69AD69ACE79B8
:10219000EF7DEF7DED33F348EA45C0C0C9A3A8C089
:1021A00099448081706092A69BEA93C993C9DE53DB
:1021B000A46CA46DB511B511B511B511BD52C5739F
:1021C000C5B4D5F6C593C573C593C593CDD4C5B471
:1021D000BD52BD51B50FA46BC594DEDAE71BCD74BB
:1021E000C186B063B0C4A041800080017000682047
:1021F00068A1ACF0A4D0A4D0A4B0A4B0A4AFA4AF04
:102200009C8F9C8F9C8F9C8E9C6E9C6E9C6DDEDB4D
:10221000D6DBD6DBD6DAD6BAD6BAD6BAD6BAD6BADC
:10222000D6BAD6BAD69AD69ACE9AD69ACE79CE9928
:10223000EF5DEF7DF659EAE7F2A5D9A1D224B942C4
:10224000A08088A180819BAAA40B93A893A993CA7C
:10225000A44C93E9ACF0B532BD52B510B531B5110F
:10226000BD32B532B4F2C593BD53C5B5CDD5C5D5D4
:10227000BD31B50FAC8D93C8D678E71BDE99D5D5A7
:10228000EEBBA801B021A00098008841780068004A
:1022900071218B45A4AFA4AFA48FA48F9C8F9C6E9B
:1022A0009C8E9C6E9C6E9C6E9C4D9C4D9C4DDEDB72
:1022B000DEDBD6DAD6BAD6BAD6BAD6BAD6BAD6BA55
:1022C000D6BAD6BAD6BAD69AD699D69ACE79E73CA5
:1022D000EF7DEF7DE658E5D6E284E243C961C18235
:1022E000A122AC2FCDB5BD129BC993A88B879C0AA8
:1022F0009C0B8B87A44CB4F0B511B4F0B531BD7311
:10230000BD73B4F1BD73BD94C5B4C5F5C5D5B530C5
:10231000B50FACAD9C0AD678DEB9E71BEF5CEF3B9E
:10232000F73CA020B041A000A000880080007020F1
:10233000826393A8A48FA48E9C6E9C6E9C6E9C6EF0
:102340009C4D9C4D9C4D9C4D942C942C942CDEDBF0
:10235000D6DBDEDBD6BAD6BAD6BAD6BAD6BAD6BAB3
:10236000D69AD6BAD69AD69AD69AD69ACE9AE71C42
:10237000EF7DEF7DEF5CEF3BD4AEEF1CEF3CC51281
:10238000CDD69BA9A42B9C0BACAE93A79C2CA48E62
:10239000ACAEA44B93A7C5B4BD93BD52C5B4BD9319
:1023A000CDD5BD53BD73D637C593BD73BD32B50F03
:1023B000ACCEA44BCE37D678DEB9EF5CEF3CE71B52
:1023C000EF3BB44EE678B8E4A00088008060582067
:1023D000B5108B8693889C4D9C4D9C4D9C4D9C4D7F
:1023E0009C2D942C942C942C942C940C940BD6DB34
:1023F000D6DBD6BAD6DAD6BAD6DAD6BAD6BAD6BAFC
:10240000D69AD69AD69AD69AD69AD69AE73CE71B07
:10241000D5F7EF7DEF7DEF7DEF5DC593EF5CEF5D71
:10242000B4CEA46E9BE99BC89BEAACAFB511ACF0EF
:10243000A48FBD318B459BE9BDB4B552C5F5CE1611
:10244000BD53B533BD53D657CE16B531B530B4EE06
:10245000A46BD678DE99D658D698DEFAF77CF77D4D
:10246000E6FAD636E6D9E6DAE679B4AEAC8FDE998E
:102470009BC9B51093C89C2C942C942C942C942C10
:10248000940B940B940B940B940B940B8BEADEDB64
:10249000D6DBD6BAD6DAD6BAD6DAD6BAD6BAD6BA5B
:1024A000D6BAD6BAD69AD69ACE79CE79DE9AD4B49E
:1024B000B3EFB452B40FEF7DEF7ECDF5D636EF5DBE
:1024C000B50FD637A42B9C2CACAFB532BD93B5114C
:1024D000B4F1ACD0A46D8B66CE36D658CE16C5B44A
:1024E000C5D6CDF6C5B4C5B4B4F1BD0FB4EEAC8C51
:1024F0009C09DEB9D658D657CE37DEB9DED9EF3BC8
:10250000EF7CCDF4E6D9EF5DBD52BD72D658DEBA90
:10251000A44B93C99C2BACAD940B940B940B940AD5
:1025200093EB8BEA93EA93EA8BEA8BEA8BE9D6DBAF
:10253000D6DBD6DAD6BAD6BAD6BAD6BAD6BAD6BADA
:10254000D6BAD6BAD69ACE59CE59DEFBC350C26C93
:10255000A8E4B2EC71A48267EF7DD614D698E73C6C
:10256000BD93C5B4C5B5BD53B532BD52BD94C59379
:102570009C4EACF0ACF093C99C0ACE17D658CE57FF
:10258000CE16D699C5D5C5D4B4EFB4EEACAD9C0A81
:10259000E6FAD679D678CE58CE37CE37D678DE99C9
:1025A000E6FAE71BD677EF5BB510CE15E6FBACADD0
:1025B000B4EFACAEB4EFA46D93E993E993E98BC9A2
:1025C0008BC98BC98BC98BC98BA98BC98BA8D6DA50
:1025D000D6DBD6BAD6BAD6BAD6BAD6DAD6DAD6BA1A
:1025E000D6BACE79CE59CE59E73CCB8ED3F2DBF3B7
:1025F000A0A4A0E47903718571A5D699D698CE5888
:10260000C5F6C5D5BD94BD74B552B553B553B553D4
:10261000B553CDF5B511A48E8B65BD52DEBACE573C
:10262000CE37BD52CE16B50FB4EEACADA44BDE988E
:10263000DEB9D699CE37CE57CE58CE58CE17CE3734
:10264000CE37CE37D657D657C5B5BD73C5D5BD9392
:10265000BD72ACCFB531B510B4F093E98BC98BC85E
:102660008BC98BA88BA88BA88BA88BA88BA8D6DB33
:10267000D6BBD6DBD6BAD6BAD6DAD6BAD6BAD6BA98
:10268000CE59CE59CE59C618D658CB4FB1EAE4121E
:10269000C28B802188E368A258C3D678CE37CE1685
:1026A000C5D5BD94BD94BD94B532B532B552B532E1
:1026B000B532ACF1BD73B511B4EE9BC8BD93DEDA93
:1026C000CE16D6B9B4EFB4CEACADA46B9BE9DEBAEE
:1026D000DEDAD699D678CE37CE37CE58CE37D65723
:1026E000CE37CE16CE36C5D5C5B4CDD5CDD5C5B42D
:1026F000BD73BD73BD73C5B4BD729C2C8BC88BC834
:102700008BC88BA88BA88BA88BA88BA88BA7D6DB94
:10271000D6DBD6DBD6BAD6BBD6BBD6DACE79CE5987
:10272000CE59CE59DEDAD638D4F4C26CED77C2CCAD
:10273000A12480216800792460A279E5CE16C5B570
:10274000C5D5BDB5C594B532B511B511ACF1ACF177
:10275000BD53BD73BD94BD72A48E9366A46BCE575A
:10276000C5B4B4EFACAEAC8DA46B93E96A22DEDAEB
:10277000C5F6CE37C616CE57D657C5D5D657D65777
:10278000CE16B553C5D5CDF5C594C593C5B3BD72A9
:10279000BD52B531CD33BCF37A24B4F08BC88BC8AD
:1027A0008BA88BA88BA88BA88BA88BA88BA7D6DB14
:1027B000D6DBD6DBD6DBD6DBD6BBCE59CE59CE594F
:1027C000E71CD6BAD699A988E4F5DBAFD3F2CAAC38
:1027D000B26AA0E47000680060837124CE16C5F56B
:1027E000C5B4BD93B531BD93ACD0ACAFACCFB511D2
:1027F000B511BD53BD74C594ACF0ACAF9BC7BD92D1
:10280000D698ACADA46CA46B9C098B87DEDAE71C70
:10281000D658CE57D699CE57D657D657CE37CDF5B0
:10282000C5D5C5B4C5B4C593BD72BD72C592BD3121
:10283000BD32C3CFDBCECB4E91A779E48BA88BC83A
:102840008BA88BA88BA88BA88BA88BA88BA7D6DB73
:10285000D6DBD6DBD6DBD6DBCE59CE59CE59E71C3C
:10286000DF1BD699D6BAC24CE30EF597A042984228
:102870008000780080426800684270A2C572BD5135
:10288000BD52BD72B4EFACADA46CA44CACAFBD7284
:10289000CDF5CE16D637CDF6B511B4EF8B24A409FD
:1028A000AC8CA44B9C2A9C098B65EF3BD658DE99D7
:1028B000D637D657CE36CE16CE15C5B4C5D4C5B488
:1028C000C5B3BD72B531C572BD31BD10AC8EAC8F14
:1028D000B0C5CA69D34ED4D37020688250608BA82B
:1028E0008BA88BA88BA88B888BA88BA88BA7D6DBF3
:1028F000D6DBD6BBD6DBC659C638CE59E73CE71C7B
:10290000E71CDEDBDEFBCB50DB2EB084E536880037
:10291000A0C3DBCF78008041680078C29C0C9C0C7F
:102920009C2C9C2CAC6DA46CA44B9C2A9C09A44BA5
:10293000B510CDF5CE36DE98DEB9BD529C0A9BE7C8
:102940009C2A9BE893E78B8682C3DEB9DEFBD69890
:10295000CE58C5F5BD73C5B3C593C572C592BD71DB
:10296000B4F0B510B510A4AEACAEA46CACAFA8A4D6
:10297000A8A3E534B946B0E38060684060206121D7
:102980008BA78BA88BA88BA88B878B878387D6DB9D
:10299000D6DBD6DBCE59C638CE59CE59E71CE71C5C
:1029A000DF1BDF1BEF7DB0E4B927B043A041C94670
:1029B000B12388009082888280A170409BCA93AA2C
:1029C00093CA93CA9C0B9C4DA48EBD52B552B5318F
:1029D0009C29A429A44AB510CE36C593BD5193C7EE
:1029E00093C793C78B6582E3CDD4D699CE36C5B451
:1029F000BD52BD51C572B50FCDB3B4EFB4CEB4EF77
:102A0000ACAED678C5B4C5D5C5B4CDD6C167C249BC
:102A1000B966E34DB9E69861B228782078C1504094
:102A200082A48B878B878387838783878387D6DB83
:102A3000D6DBCE59C638C638CE59E75DDEFBE71C7B
:102A4000DEFBE71CEF5DF73CB864D9C8DBAFA02024
:102A5000B9C6CA078000886088A2826693A993A835
:102A600093A99C0BAC8EACF0BD53BD73ACD1BD73C0
:102A7000C5D5C593A44CA44AA46BB4EFD6989C2AA0
:102A80008B8683657AE37282B531D658B510B4EE81
:102A9000B4EEB510ACCFBD92CE16C5B4BD74C5D5DD
:102AA000C5D5C5F5C616C5B4BD94A9C8B8C3CA6A0C
:102AB000DB50E2AAB0A2B28A800078207020586071
:102AC00050408B868B878387838783878386D6DB7B
:102AD000CE59C638C638C638CE59D69AE71CDEFB62
:102AE000DF1BEF5DEF7DDE9ACC50C946B861A821AF
:102AF000C104B923C1A5908091849BCB9BEB8B46ED
:102B00008B88A44DACD0C5B5C5B4BD53ACF1CDF5E3
:102B1000BD73CE16BD93D615CDB3CE17A48D834508
:102B20008324834572C37241B510ACADD699CE16DD
:102B3000CE17C5F6CE17BDB4C5D5BD94B553CDF6E9
:102B4000C5B5C5D5C5D5CE16EF3CA0A3D228A8A142
:102B5000E38FB965C1A59020A14580007020502069
:102B600050408B668B868366838683868386D6BA3F
:102B7000C638C638C638CE59CE79DEFBEF7DDEDBEF
:102B8000E6FBEF5DDEFBEF7DD637CC90B208B0A25E
:102B9000882090A2700060609B8BD6789BEA938718
:102BA0009C0AACAFBD32C5D5BD94C5D5CDD5CDD46D
:102BB000D656DE76DE97CE16BDD6B574AC8D82E3E2
:102BC0008304BD30728272C4BD72C5F5CE57C6167D
:102BD000C616D658CE37D658CE57CE17CE37C616CD
:102BE000C5D6CE16D657D657EF5DD289B862B0009B
:102BF00098E3CACA9861802078007000998668209E
:102C00005860834583658B86836683868385C63853
:102C1000C618C638C638CE59D69ADEDBEF7DEF5DD2
:102C2000DEDAEF5DEF7DE71CDE99EF3CCE16DEDAF3
:102C3000C532CDF6BCD0E73CA40BCDF593A89BC91B
:102C4000BD52BD73C594C5B4CE15D635DE56DE96DD
:102C5000DE96D678CE58CE37D699C5D5AC8E7AC208
:102C60007A40A44B940A93E9ACADACADC616C5F559
:102C7000BD93CE17C5F6CE16BDD5C5D5C5F6CE3794
:102C8000C5F6C5B4CE17DE99E6BADA26B042A8205A
:102C9000CA07C1A5902078008902700070206820C2
:102CA0005860834583458365838583868365C638FD
:102CB000C618C638C638CE79D69AD6DAEF7DEF7DFB
:102CC000E73CE73BEF5CEF7DEF7DDEDAEF3CD6786B
:102CD000E71BC5B4C593DEDABD10B4F0ACAFBD736D
:102CE000C5B4CDF5D636E6B8DE76E696E6B7DEB8FC
:102CF000DEBACE37CE58C5F6C5F7A46EA46D7262A3
:102D00007AA2CE16C5D5BD94B552A46C9C0AB51056
:102D1000C593C5D5D698DEDAD699CE37C5F6C5F6B1
:102D2000CE17C553C5D5D657E6FBEEDAC924A800A1
:102D3000A0209020880078007000702070207060C3
:102D40007AA39386834483458B8583868385C618BF
:102D5000C638C638C658CE79D69AE73CEF5DEF7DC7
:102D6000EF7DEF7DEF5DEF7DEF7CEF7DDEDAEF3C19
:102D7000D698DE98DEFBBCCEBD51C593C5B4CE154A
:102D8000D615D635DE56DE76E6B7E6D8D679D699AC
:102D9000D678C617CE38C616C5D6A46EA44C7262B5
:102DA0007241C5D5BD73ACF1B553B532AD119BE9D8
:102DB000A42BA48CC5B3D698DEFADEB9DEDAD658D9
:102DC000CE37D658CDF6CDD6D678EF5DD553B8826E
:102DD000A0409860800070006820682068206880AB
:102DE0008B267B0483248324836583868385C6188E
:102DF000C638C638CE59CE79CE7AD6DBEF5DEF5DD8
:102E0000EF7DEF7DE73CE71BE73CE71AEF5CCDD3B6
:102E1000D657DEB9D698D678D678D657D635D635A1
:102E2000DE76DDF4B4119288A36C8B4A82A7D69922
:102E3000CE58CE38C617C5D5B553A48EA42B6A621A
:102E4000BD94C5F5A42BAD11BD93B532B532B532E5
:102E5000BD94A44C9C09ACEFC5D4D657E71BE71B27
:102E6000D699CE17C5F6CE17D617DEB9D616D637F1
:102E7000BCD0802070006020B53282E68AE593E9FC
:102E800093A7836583448344834583658365C638FC
:102E9000C638CE38CE79DEDBDEFBD6BAD6BAB38DF5
:102EA000EF7DEF7DDEFBDEFBDEDADEDADEBADEB9F9
:102EB000D678DEB9DEB9DEB9D656DE56DE76DE76F7
:102EC000E676D432E5D8B28C9A2981A66984722636
:102ED0007A66C5F6BDD5BD94B532ACF09C2B6A823E
:102EE0008324AC4BBD93A4B0B553BD93B511BD9431
:102EF000BD94BD94BD739C09ACADB4CECE16BCD20E
:102F0000B46FE6FAD678C5D6BD74BD94CE16CDD4CE
:102F1000B4F0C5D5CE3793A8BD739BE993C98BA7F1
:102F200093C8834483448344834583658385C6185B
:102F3000C638CE59C617CE59D69AD6BADEBA92E856
:102F4000EF7DEF7DEF7DDF1BD6BAD699CE58D699AF
:102F5000D658D678DE97DE76DE76DE77DE96DE76BB
:102F6000DCB3ECF4D30DD4F5892470A293D072268F
:102F700069A47A46B574B533ACF19C4D9C0A6221C4
:102F80007B03B531ACAFB531B532C593BD94BD73DC
:102F9000BD73C5B4C593BD73C573B3CEC26C88E3AE
:102FA00089C6B38ADEDAD658B532BD53BD32B4F124
:102FB000B510BD51B4CFA44B9387A44B9C0993E8A3
:102FC00093C8834483448344834483448365C638DD
:102FD000C638CE59CE58CE38CE58D699DE7992C75B
:102FE000A2E8EF7DEF7DDEFBD699CE58CE37D63600
:102FF000D656DE77DE77DE97DE96E6B7E6B6E6569D
:10300000E3F1D30DD38FA8C39082CC72810360A16A
:10301000690271E5BD73AD11ACF19C0C9C0B728221
:103020007AC3B531B511ACCFACF0B532B532BD73A2
:10303000C5B4BD52BD53CE16CDD5DACDA863B247C7
:10304000908381E5C5B4CE16C594BD52B511B511B6
:10305000ACF0B531B4F0ACCFACADA46CA46B93E8DC
:1030600093C77B038324834483447B448344C638CF
:10307000C638C5F7CE38CE59D659D6589AA79286B3
:103080009AA6EF7DEF7DD6BACE16CE16CDF5CE152B
:10309000D656DE56DE96DE97E6D8E6D8CE37E45230
:1030A000C145EBCEC2ABD2EC88228862AAEB686045
:1030B00068A171A59C4D9C2D9C0C93EB9C0A6A61A8
:1030C00072A2ACAEA48EA48EACD0ACF1AD11C5B4DE
:1030D000BD94C5B4C5B5CDD6EDF7B8A5C125A9A495
:1030E000908178608264A46CB531BD52BD52B51137
:1030F000B4F0ACF0ACCFACAEACAEA46D93C993C899
:103100007B247B0383248324832483448344C63821
:10311000C638C5F7C5F7CE38D658D6589AE79AA616
:103120009AC7EF7DEF7DCE36CE16CE16CE15CE15D4
:10313000D656D656DE76DEB8DE98D679D658E36E09
:10314000C0E3E2ECB041A0828000BA8A800078C37C
:1031500068416881938993A993CA93CA93EA6221CB
:103160006A8293EAA4AFA4AFB511B552BD94BD5223
:10317000C5B5BD53C5B5A0A4EC52B062B924A0003A
:103180008860784079E3ACAD9BE9A46BB510B510CD
:10319000ACF0ACF0AC8EB4CFACAEAC8DA46D93E91A
:1031A0006A217B0383248324832483248324C638D5
:1031B000BDD6C5D6C5F7CE18CE38D65792C792A67B
:1031C0009265A2E7D678D678D678CDF5B3E9B3C9BB
:1031D000CDD4DE97DE97D699CE79D699DE79D9C748
:1031E000C821B8A2C905A8419840880090418081B3
:1031F00070407103830793A993A993C993EA59C0B7
:103200006A82940AA4AFACD0ACF1BD94C5D5BD74AC
:10321000C5D5E71CC491E3B0D987C927B924C1A497
:10322000AA068922824492E5A42BA46C93C89C2B05
:10323000A48DA48DA46DA46DAC8DACAE93EA93C99E
:103240006A017AE383048324832483248324C617B6
:10325000C617C638C5D6C5F7CE38D63892C99287B4
:103260009AA69A869AA6A2A7D637AB25CD4DCD6E43
:10327000B3C7D6BAD6BAD679CE79D678D658E34E71
:10328000D0A3E1C8C0E3B924A90388417800702025
:10329000686179037A649BEA93888B8893C959A102
:1032A00072828B66B4F1B532B553C5B4BD53C5D582
:1032B000E6FBD659C22AC166C166A882B104A8C17C
:1032C000CA888040792279E39BE99BE9A42A7B059F
:1032D00093A79BE99C0AB4EEB530ACCE93EA93E990
:1032E00072017AE37B037B03832483248324C61740
:1032F000BDF7C5F7C617C5F7CE38D658A2E89286EF
:103300009AA692459A86E71C9B69C52CCD6ECD4E38
:10331000DEBAD6BAD679D679D679D699DE9AF75C5E
:10332000D144C882B841B8C2B0418000A94480A14C
:1033300078C260618B078B4793A893A893C959E221
:10334000620193C8B553BD53B553BD53C5D5E71CF2
:10335000E71CE6BACA2BC9C9E1C8B862A8C3B90359
:1033600090407860790079C39BE99BE99C099C09AE
:103370009C298BA693A79C09BD51A4AD940A93E9FF
:1033800059817AE37B037B03832483248324C61738
:10339000C617CE38CE38C5F7CE38D658A3099AA767
:1033A00092669266A308AC90BCECCD8FD5F0DEFBA4
:1033B000DEDBD6BAD699D699D699DEBADEDAEF1C1C
:1033C000ED13D9C6D984C061B041B143A1637881FE
:1033D0006881D6798B4793CA9C0A93A89BEA72832B
:1033E00072A3B511C5B5BD94C5B4BD74CE16EF5D5D
:1033F000EF3CCD34B8E5A822A842C8A3A841A881D3
:10340000A0E28922796268E18B259BE89BE89BE832
:103410009C2A9C0A9C0A93C893E99C0A93C9596008
:1034200059607AE37AE37B03832483248324C617D9
:10343000BDD6C5F7C617CE38CE18D658A309928682
:1034400092669286D6798AC5C56FD5F2DEB9EF7DD0
:10345000EF5DDEFBEF5CE73CD6BADEBADEFBE71BD6
:10346000DE37DD94DAA9C923C102A902992168E1F6
:10347000DEBA9BEBCE589BEB93C893A9A42C6A634E
:103480006A62BD30BD74C5D6C5F6CE57CE16EF3CC8
:10349000D678DE17A8C39000A822B862A020A000AA
:1034A000986070608A0479218B2593C793C89BE844
:1034B000A44BA46CB53093C993E993E993C9618097
:1034C00069C07AE37B037B04832483458324C61786
:1034D000C617C638C617C5F7CDF7D638B38AA3289E
:1034E0009AA79AC7BD53BCEDCDD2D5F4EF7DEF7D41
:1034F000E75CE73CDEFBDEDADEDADEFBE71BEF5CF7
:10350000D638E6B9D553D44E9880AAE9E6FC9BA9F3
:10351000B532DEDAA46EB55393C99C2BB4F07AA40D
:103520006A42A44BCE58C5B5C5D5CE37D698E71B51
:10353000DEB9E6FBD490B863A021B021A820882092
:103540008800784078E182038B4693A793A79BE895
:10355000A46CACCEB51093E993EA9C2B59816180A1
:1035600071E07AE37B037B04830483658324C618BC
:10357000C5F7BDD6C617C5F7D658CE38B389AB2820
:10358000926692A7A326CDB2D5F3D634E71CE73DC9
:10359000EF5DEF7DE73CE71CDEDADEDBE71CEF5C8E
:1035A000DEDAE71BCE16DE98E73CB4CFD699DEDB39
:1035B000A46DC6369C2CA48EA48EB510ACD06A83A4
:1035C000728493C8D678CE17CE58CE37D678DEFA26
:1035D000E71BEF5DBC6FB064B001B000B0A4980011
:1035E000900090E18163B4B0CDD693A793C79C09B6
:1035F000ACAEACEF9C0B9C0A61805940618069A025
:1036000071E07AE37B047B04832583468324C61818
:10361000BDD6BDB6C617D679CE17CE17D5F5AB48F1
:10362000928682468A43C5B3CDB1D5D1D612E6DAA9
:10363000EF3DE6FCEF5DEF5DE75DDEFBDEFBE73CCB
:10364000DF1BE73CD657DEB9EF7DB531BDB3DEDB1E
:10365000D6BAAD31A44CBD94B532ACF1C5D572C566
:10366000622393A8DEFBCE37C616CE37CE37D658A8
:10367000E71BEF7DDE58E6B9DDF6D30C980090002D
:1036800090407880B4B093CABD7393C793E8ACAE52
:10369000B531B511940A71E161805960618069A00A
:1036A00072007AE37B037B048B6783258325C6172F
:1036B000C638C5F7C5F7C638CE38CDF6D5F6B34807
:1036C000BB69C5B5C5B4CE14D613D5F1DE12D5D2BB
:1036D000BB67BB26B3269A64EF7DEF7DE73CE71C12
:1036E000E73CE75CEF5CD678E73CB510CE14DEFB38
:1036F000BDB4CE16CE16CE37BDB5ACF1C59372C4EF
:1037000049A18B68DEFBD698CE37C5F6D678D67839
:10371000DEB9DED9EF7DCDD4EF5DEF3C70009020B7
:10372000B42FCD95A42CDEBAACAF9BE8ACCEB5518E
:10373000BD939C4D72A37A826180596069A071C06B
:10374000720082E3830483248BA883268B66BE17D2
:10375000C638C5F7C5F7C637CE17CDF7CDF6BB6966
:10376000A2E7CDF6C592CDB1D634DE34D5F3D5F38C
:10377000BB26AAA4BB26B2E5EF5DEF5DEF7DEF7D32
:10378000E71CE73CEF5CE6FBE73CDEDAD657D69970
:10379000D678D699D678CE58CE37BD53B5106A6351
:1037A00052029388E73CD679CE37CE16CE37CE5725
:1037B000D678DEDAE71BEF7DD699E6FBE71BCE1560
:1037C000D637C5D4940BACF1940AB4EFC5B4BDB4EC
:1037D000ACD083287AC3936561A0616069C0720030
:1037E0007AA282E483048B888366834693A8BDF71C
:1037F000C638C638C617CE38CE38CE38CE37CDD537
:10380000C5D5C5B4CDB3CDD2D5D2DE34CDD3EED966
:10381000BB06BB05AAA4B305AAE6EF7DEF7DEF7D4D
:10382000E73CEF5DE73CE71CDF1BDF1BDEFBDEFB5D
:10383000DEFBDF1BDEFBDEDACE58D699BD736A44B1
:1038400049A293A9E75CD6B9CE38CE58CE37CE5729
:10385000CE78D678DEDADF1BEF5CD678E73CCE1682
:10386000EF7DACD09C8FB531BD73C5D5C5D59C4D12
:10387000490051208BAB8B057A0161A071C0722089
:103880007AA38304832593EA8B678B879C4CBDF7CF
:10389000C618C638C617CE38CE38CE17CE37CDD6D6
:1038A000CDD6C572C570CDB1DE34CDF4CDB3C3A6CF
:1038B000C366BB05B2E5B2E5AAC4AAE4EF7DEF5D3D
:1038C000EF5DE73CE73CE71CCE17D699E71CDEFB33
:1038D000DEFBDEFBDEDBDEFBE73CD6BABD1061E3E0
:1038E0006A64ACCFEF5DD6BAD678D658D698CE37C4
:1038F000CE37D699D678D699D6B9DED9DEFACE1695
:10390000BD94C617BDB5C5D5CE16C5D5BDB5490143
:10391000512151418BCB93CBA36569C07A007A21A9
:1039200082E383048BAAB5108B889C4DA46DBDF7F0
:10393000BDF7C638CE38C617CE18CE38CE37C5F646
:10394000CDF6CDD4CDB3CDB1D5F4D615D5F4CBA627
:10395000C366BB05BB05BB26B2C3AAA3AAC4BB47AB
:10396000E73CE71CDEFBDEDACE58DEFBDEFBCE58A2
:10397000DEDBCE38DEDBDEFBDEFBE73CDF1B936706
:103980007284D657EF7DDEDAD69ADEB9DEDACE570C
:10399000DEBADEB9D678CE17BDF6C617BDB5C5F608
:1039A000C616CE37CE37D678CE37ACF140E15121AE
:1039B000512059417AE6ACD1ACAF92C2824182C368
:1039C0008304832593CA93CAA48EA4AF9C2CC617E4
:1039D000BDD7C617C638BDB6C617C617CE17CE1781
:1039E000CE16D616D615B4F0CDB4CDD4D5F3D3C5F6
:1039F000CB85C3A6C366BB26B325AAA4AAC5A28449
:103A0000AAC5E73CDEDACE58CE58CE78D6BAD699DB
:103A1000CE59D6BAD69AD6BADEDBDEFBCE3793873E
:103A20009BE9CD30EF7DDEDAD6BAD678CE37D678C0
:103A3000CE37CE57D678C5D5AD11ACF0C617C5F682
:103A4000CE37C5F6CE78D6BAA4D259625941514183
:103A50005961596161E2A48FA48FACAE8261830485
:103A600083257B058B88A48FACB0A48F8BC9CE59DE
:103A7000BDF7BDF7C618C638CE59C5F7D69AD69940
:103A8000D678CE37CE15CE15D616D615D5F3D3E5C6
:103A9000CBA4C384C365BB25BB25C3A8B305AAE5D6
:103AA000B326A2C6A285AAE6A2C5932AC5D6CE177A
:103AB000D69AD6BA718379C3718379C3E6FA9BA784
:103AC0009BE7EEB9EF7DEF7DDEDBC617D699D69981
:103AD000D699D658C5F6BDB46A456A2669425901D9
:103AE000696261636162616159415941514151416A
:103AF0005961618172639C4EB553A48F82E3834602
:103B000083668B679C6DA4AFA48F9C4E8346E73D74
:103B1000C618BDD7BDF7C618C638CE59D699D6999E
:103B2000D679CE57CE37CE37CE36D636DE15DC2513
:103B3000D3E4CBA4BB24C365C325B2E5AAC5B32691
:103B4000AAC5B327AAE5A2849A2381A29A649A847B
:103B500081C381A281C381A279A279C281C2596045
:103B60009365DD0FEF7DDF1BDEDAC617CE58E73C2D
:103B7000D699D699C617A46E616169816961696138
:103B800069A26141616159415941594159415961A4
:103B9000618161A172A48BCCACF2BDB6A4D08B873D
:103BA00093EA93EB9C6EA48FA46F93EA8346E77E1F
:103BB000CE79C5F7BDD7BDF7BE17C617C638CE59E3
:103BC000CE79CE79CE58CE58C5F6CE16D616E63377
:103BD000DC46D3C4CBA4CBA5BB44B304BB45B2E401
:103BE000AAE5AAE4AAC5A2C59A2392239244920206
:103BF00081C289E181C279A279A279C281C29B87FF
:103C0000E654DD4FEF5DE71CDF1B8A2281C1BD5505
:103C1000D65771C179C271A1718169806161696191
:103C20006121614161415941594159615961618144
:103C300061A172238B8B9C4FB512ACD1940D93EB89
:103C40008BC9940C9C4EA48F942C83468346E77EAC
:103C5000EF7ECE59BDF7BDF7BDF7BE17C617C63804
:103C6000CE38CE58CE58CE58CE17CE17D637DE36F1
:103C7000E635DC47D405CBA4CBA5CB85C365A263D1
:103C8000BB25AAE4AAA39A639A429A639A6389E23B
:103C900089C181C181A17960798171817981ABE923
:103CA000E655EE97CDD79A82A28092218A018201B1
:103CB00071817161718171A171A1698069A169616D
:103CC0006981696161406140616169A16981618166
:103CD00072238B6AA4D2AD12ACF1942D9C2D942C3E
:103CE000940C9C6EA48FA48F940B83468366E75D2F
:103CF000E77EEF7EC638BDF7BDF7BDF7BDF7BDF770
:103D0000C617C638CE58CE79CE58C5D6CDF6D616FB
:103D1000DE36DE15D427DC26D3E5D3C4D3C5CB44A9
:103D2000BAE4B2E3A282A2829A4292229A639201F8
:103D300089C181A1798181A179A179817981ABC87A
:103D4000D5D15940A2819A40A2818A0081C081C008
:103D500081C081E179C171817181718069806981DE
:103D60006961696071A1698071A169A071C07244C3
:103D70009C0EB534BD74B5339C4E9C6E9C6E9C6E8F
:103D8000A48FA4AFA4B0940C836783678366DF3DE0
:103D9000E75DE77EEF7EC638BDF7BDF7BDF7BDF73F
:103DA000BDF7C617C638CE58CE79C5D6CDD6CDF616
:103DB000CDF6D617DE37D572CBA4D3E5CB84CB8432
:103DC000CB63B2E2BB02AA81A2829A2091E191E187
:103DD00089C189E181C181C181C179A17981B3E9B9
:103DE000AC297A00A260A2419A8289E08A0081C04F
:103DF0008A0081E081C08A42718071A069816981F5
:103E0000698179C179E179E171E171E18308B554A2
:103E1000BD95B5549C6F9C6FA4B0A4B0A4D0A4B0C1
:103E2000ACD1ACD09C4D8367838783878BA8DF1C84
:103E3000DF3DE75DE75DEF7DC638BDF7BDF6BDD67A
:103E4000BDD7BDF7C617C638CE58CE79D679C5B618
:103E5000CDF6CDF6D637CDD5CD94CD10C384BB22CB
:103E6000CBA4CB83B2E2BB02B2E2AAA292219A42D5
:103E7000920189C189C18A0289E181A189E2BC2AB2
:103E8000D5D19B03AAC1AA819A41A30381C09220E4
:103E90008A008A008A0081C081E081C081E179C105
:103EA0008201820171A17A0271E39C0DB554B5556E
:103EB0008C0E9C90A4B0ACD1ACF1ACF1AD11ACF1D6
:103EC000ACF1A48F8BEB8368838883A993EADF1C12
:103ED000DF3CE73DE75DE77DEF7DCE59BDF7BDF700
:103EE000BDF7B5B6BDF7C617C618CE58CE79D69968
:103EF000D69ACDF7CE17D637D616CDB5CD94C511F7
:103F0000C3A4C383C363C343B2E1B2A0AAC1AAC11D
:103F10009A419A41920189E189E189E189C1B38796
:103F2000C52FD5D0BB21AAC1A2809A609A408A0031
:103F300081C09261924189E08A0082018A008201F7
:103F4000820182029BCB7AA7BDB6BD959C70A4B1BD
:103F5000A4D1A4F1AD12AD12AD12AD12AD11ACF100
:103F6000A4AF9C4D838983898BCA940C9C4DDEFC45
:103F7000DF1CDF3CE73DE75DE77DEF7DCE79BDF7F8
:103F8000BDF7BDD7BDF7BDF7C5F7C617CE38CE59BB
:103F9000CE79D6BADEDACDF7CE17CDF6CDD6CDF6C0
:103FA000D5F6CDD5D5F5D5D4B303BB22B323E5B132
:103FB000B302AA81A2A192219A21A2A29A63AAE2A3
:103FC000DE77EEB7B301AAA0AAE1A2809A60AAC0E8
:103FD0009A6192409A81A2C292209262A327ABEA90
:103FE00082237A04BD75B574B533A4D2A4D1ACF2E2
:103FF000AD12AD33B532B532B512AD12AD11A4B0BC
:10400000942D83A98BAA8BEB940C9C6EA48FD6FB6A
:10401000DEFCDF1CDF3CDF3DE75DE77DEF7DD6BAF0
:10402000C618BDF7BDD6BDD7BDF7C5F7C5F7C638AD
:10403000CE58CE79D69AD6BAD6BAC5D6CDD6CDF682
:10404000CDD6CDF6CDD6CDF6D636D5F5DE14D5F413
:10405000D591C50FC4EFAB04A2C2AAA2B302CC464D
:10406000DE36B48DBB62B321BB63B343AAE1AB01BF
:10407000A2A0A2A1A2C2A2E39A6181E28AA593278B
:10408000C5F79C91B554A4D1ACF2AD32AD32B53286
:10409000B533B533B533B532B532B532A48F944E9E
:1040A0008BCA8BEB940C9C4D9C6FA4B0A4B0D6DB58
:1040B000D6FCDF1CDF1CDF3CE73DE75DE77DEF7EE4
:1040C000EF7DCE79BDF7BDD7BDD7BDF7BDF7C6171C
:1040D000C617C638CE58D699D69AD6BAD699D69A91
:1040E000C5F6C5D6C5B5C5D6C5F6CE17CDF6CDF63F
:1040F000D636D636DE56DE36D5B3BC2BC48BDE784C
:10410000D658DE56BB62BB42B322C3C4BB62BB837C
:10411000AAE2B343B387B3CB8A64C5D6B512AD1355
:10412000ACD2ACF2B513B533B553B553B553B553A3
:10413000B533B533B553B553B5339C6F942D8BEC74
:10414000940C9C4D9C6FA4B0A4D1ACF1A4D1D6DB4F
:10415000D6DBD6FCDEFCDF1CDF3CE73DE75DE75D40
:10416000EF7DEF7DDEBBC618BDD7BDD6BDF7BDF771
:10417000C617C617C618C638CE59CE79D699D69A5C
:10418000D69AD679C5B5C5D6CDF6C5D6CDF6C5D5A0
:10419000CDD6CE16CE17DE78CDF6D5F6D637E6DA02
:1041A000CDD4CDF5CC25BB61CC45CBC3CBE4BB8412
:1041B0009A82AB24CDD5BD54B533B533B553B55381
:1041C000B553B553B553B553B553B553B573B5736F
:1041D000B574BD94BD94B5739C6F940D942D9C4E95
:1041E0009C6FA4B0A4F1ACF1A4F1A4F1AD11D6BBC5
:1041F000D6DBD6DBD6FBD6FCDF1CDF1CDF3DE73D84
:10420000E75DEF7DEF7DEF5DCE79BE17BDF7BDF7C2
:10421000BDF7BDF7BDF7C617C618C638CE58CE597C
:10422000CE79D699D699D699D699D699CE37C5D67C
:10423000C5F6CDF6CE37D678CE17D678D638DEDAB4
:10424000D636D657DE56C405A281CD73C553C5D523
:10425000B533C594BD74BD74BD74BD74BD74B574FF
:10426000B574B574BD74BD94BD74BD94BDB5BDB514
:10427000BDB5BDB5A4D19C909C4E9C6FA48FA4D01D
:10428000ACF1ACF1ACF1ACF1ACF1AD12B533CEBBED
:10429000D6DBD6DBD6DBD6FBD6FCDEFCDF1CDF1D97
:1042A000E73DE75DE75DEF7DEF7DEF5DCE79C61819
:1042B000BDF7BDF7BDF7BDF7C617C617C618C63898
:1042C000C638CE58CE58CE79CE79CE79D699D699F1
:1042D000CE58CE58C5D6D658CE17DEBAD658CE3719
:1042E000D658D678D679CDF6DEB9C595C594C5B57C
:1042F000BD95BDB5BD95BDB5BD95BD95BD95BDB5CE
:10430000BDB5BDB5BDB5C5D5C5D5C5D5C5D6C5D653
:10431000BDB5A4B09C90A490A4D0A4D1AD12AD1210
:10432000AD12ACF2ACF1AD12AD33B553B573CEBA3C
:10433000CEBBD6DBD6DBD6DBD6DBDEFCDEFCDF1C81
:10434000DF1CDF3DE73DE75DE75DE77DEF7DEF7D6E
:10435000D69AC618BDF7BDF7BDF7BDF7C617C5F7A6
:10436000C617C618C638C638C638CE58CE58CE5925
:10437000CE79D679D699D699CE17D699D678D658F9
:10438000D658D658D699D679D658CE37CE17CE1716
:10439000C616C5F6C5F6C617C617C617C5F6C6179C
:1043A000C617C5F6C5F6C5F6C5F6C5D6BDD5A4D1A2
:1043B000A4D1A4D1A4F1AD12AD32AD32AD12AD1283
:1043C000AD12AD12AD33B553B574B594BD94CEBA3C
:1043D000CEBBCEBBCEBBD6BBD6DBD6DBDEFCDEFC9B
:1043E000DEFCDF1CDF1CDF3DE75DE75DE75DE75DD1
:1043F000EF7DEF7DD6BACE59C618BDF7BDF7BDF734
:10440000BDF7BDF7BDF7C5F7C617C617C617C63740
:10441000C638CE38CE58CE58CE58CE58CE58CE58B4
:10442000CE58CE58D679CE58CE38CE37C617C61706
:10443000C617C617CE17C617C617C617C617C5F7AD
:10444000C5F7C5F6C5F6C5F6BDB5AD33AD12AD12AF
:10445000AD33AD33B553B533AD33AD32AD12AD126F
:10446000B533B553B574BD94BD95BD95BD94CEBA65
:10447000CEBACEBACEBACEBBD6BBD6BBD6DBD6DB97
:10448000DEFCDEFCDEFCDF1CDF1CDF3DDF3DE75D2C
:10449000E75DE75DE75DE77DEF5DD69ACE59C6380B
:1044A000C617BDF7BDF7BDF7BDF7BDF7C5F7C61712
:1044B000C5F7C617C617C617C617C617C617C61735
:1044C000C638CE38CE38CE58C617C617C617C61748
:1044D000C5F7C617C617C617C617C5F7C617C61736
:1044E000C5F7C5F6B595AD54AD54B574B553B574AF
:1044F000B574B574B553B553AD33AD33B553B57469
:10450000BD94BD95BDB5BDB5BDB5BDB5BDB4CE9A67
:10451000CE9ACE9ACE9ACE9ACEBBCEBBD6BBD6BBC7
:10452000D6DBD6DBDEFCDEFCDEFCDF1CDF1CDF3D89
:10453000DF3DE73DE75DE75DE77DE75DE75DE73DA3
:10454000D6DBCE9ACE59C638C617C5F7BDF7C5F724
:10455000BDF7BDF7BDF7BDF7BDF6BDD6C5F7C5F7CD
:10456000C617C617C5F7C5F7C617C5F7C5F7C617E7
:10457000C5F6C5F7C617C617C617C618C617C5F7B6
:10458000B5B5B595B595B595B595BD95B594B594B5
:10459000B574B574B574B574B574BD94BDB5BDB519
:1045A000BDD5BDB5BDD5BDD5BDB5BDB5BD95CE9A45
:1045B000CE9ACE9ACE9ACE9ACE9ACE9BCEBBCE9B98
:1045C000D6BBD6DBD6DBD6DBD6FCD6FCDEFCDF1CCE
:1045D000DF1CDF1CDF3DE73DE75DE75DE75DE75D95
:1045E000E75DE75DE73DE73DDF1CDEDBCE9ACE59B8
:1045F000C638C617C5F7C5F7BDD6BDD6BDF6C617B2
:10460000C5F7C5F6C5F6C5F6C5F7C617C618C63848
:10461000C638C638CE58C638C618BDF7BDF7BDD7A0
:10462000BDD6BDD6BDB6BDB6BDB5BD95B594B59428
:10463000B594B595BDB5BDB5BDD6BDD6BDD6BDD6B7
:10464000BDD6BDD6BDB5BDB5BDB5BDB5BDB5CE9AA2
:10465000CE9ACE9ACE9ACE9ACE9ACE9ACE9ACE9A1A
:10466000CE9ACE9BD6BBD6DBD6DBD6DBD6DBD6FB53
:10467000D6FCDEFCDEFCDF1CDF1CDF1DDF1CDF3DAB
:10468000E73DE73DE73DE73DDF3DDF3DDF1CDF1C6C
:10469000DF1CDEFCDEFBDEDBD6DBD6BAD69AD69A92
:1046A000D69AD69ACE79CE79CE79CE79CE79CE7980
:1046B000CE59CE58C638C638C638C617BDF7BDF76E
:1046C000BDF7BDD6BDD6BDD6BDB5BDB5BDD6BDD673
:1046D000BDD6BDD6BDD6BDF6BDD6BDD6BDD6BDD622
:1046E000BDD6BDD6BDB6BDB5BDB5BDB5BDB5CE9A01
:1046F000CE7ACE7ACE9ACE9ACE7ACE9ACE9ACE7AFA
:10470000CE9ACE9ACE9AD6BBD6BBD6BBD6DBD6DB5C
:10471000D6DBD6DBD6DBDEFCDEFCDF1CDF1CDF1CE1
:10472000DF1CDF1CDF1DE73DDF3DDF3DE73CDF3CFD
:10473000DF1CDF1CDF1CDEFBDEFBDEFBDEDBDEDB8B
:10474000D6BAD6BAD6BAD69AD69AD679CE79CE79FC
:10475000CE58CE38C638C638C618C617C5F7C5F7FE
:10476000BDF7BDF7BDF7C5F7C5F7C5F6C5F7C5F782
:10477000C5F7C5F7C5F7C5F7C5F6BDF6BDD6BDD6B5
:10478000BDD6BDD6BDD6BDB5BDB5BDB5BDB5101088
:1047900000500050011B5C185C195C185C385C39D7
:1047A0005C396438643864386438643864586458F0
:1047B00064586458645864396439643864386438B7
:1047C0006438643864386437643864385BF66C384D
:1047D000641864385C18643864186C386438643859
:1047E000643764386C186C38643864376C376C37ED
:1047F0006C376C376C376C376C576C576C576C5721
:104800006C576C576C576C576C5774777477747718
:104810007477747774977C977C987C977C977CB836
:104820007CB77CB784B784D884D884D88CD78CF8EC
:104830008CF88CF895187C985C385C196C18643886
:1048400064396458645964596459645964596459A1
:104850006459645964596C386C38645864586C38BD
:1048600064586458645964596C387437743584B624
:10487000741484967C556C366C586C786C386C3734
:104880006C576C576C576C576C386C386C376C378E
:104890006C376C376C586C576C576C576C576C573F
:1048A0006C577477747774777477747774777497B8
:1048B0007498749874977C977C977C977CB87CB834
:1048C00084B884B884D884D884D88CF88CF88CF8D0
:1048D0008CF88CF89518A5356C16643864376439F3
:1048E00064596459645964596C596C596C596C59C0
:1048F0006C596C596C596C586C586C586C596C5894
:104900006C5864596C596C587C7784968C94AD972C
:104910007C10A5358C7394D6745574776C586C588C
:104920006C586C586C576C576C586C586C586C5869
:104930006C586C586C586C576C576C786C776C77FB
:1049400074787478747874777477749874987498A9
:10495000749774977C987C977CB87CB87CB884B842
:1049600084D884D884D884D88CD88CF88CF88CF8E7
:104970008CF895189518C5D6B555741464596458B3
:10498000645964596C796C796C796C796C796C794F
:104990006C796C796C796C586C786C786C5874782C
:1049A00074796C796C587C98A59973F073D1A5557E
:1049B0008C929CF439E9AD369D36A599747674983D
:1049C00074787C9974996C78745874586C786C7895
:1049D0006C786C786C786C78747874787478747897
:1049E0007478747874777478749874987C987CB8B8
:1049F0007CB87CB87CB87CB87CB884B884B884B8FF
:104A000084D884D88CD88CF88CF88CF88D188D18B4
:104A1000951895189538BD94C617C65A84557CB814
:104A20006C7964796C796C796C796C796C796C7966
:104A30006C796C796C7974786C796C79747874773A
:104A40007C9874567CB76BF38453A55694B394B496
:104A50008C9373B05B2E7C129CF56B6FA5368C9596
:104A600084957C7674777498747874787478747894
:104A70007478747874787478747874987498749876
:104A80007498749874987C987C987CB87CB87CB83E
:104A90007CB87CB87CB87CB884B884D884D884D8F6
:104AA0008CD88CF88CF88CF88CF88CF88D189518BC
:104AB000951895389538CE35BDD5A4F5D698BE59FC
:104AC00074776C7A647A6C796C796C996C796C799E
:104AD0007479747974797479747974797478747771
:104AE000847574137C54849594D59CD4AD558411ED
:104AF000630E39E952EC94F573D08411738E8411EE
:104B0000B596ADB884D874997499747874787478BB
:104B10007478747874987498749874987498749875
:104B20007C987C987C987CB87CB87CB87CB87CB845
:104B30007CB87CB87CD884D884D884D884F884F8AD
:104B40008CF88CF88CF88CF8951895188D18953889
:104B5000953895389D38CD94BD92CDD5DE56C59407
:104B6000A578747864586C786C7A6C796C796C7907
:104B70007479747974797498749974997478747870
:104B800084758C957C3373F28412738FA534528BA9
:104B9000841273D1632E5B2E73B09D158C31AD756D
:104BA000A51484328CD77CB87498749874987498CF
:104BB0007498749874987498749874987C987C9885
:104BC0007C987C987C987CB87CB87CB87CB87CB8A5
:104BD0007CB884D884D884D884D884D884F88CF8D5
:104BE0008CF88CF88CF88CF89518951895189538E1
:104BF00095589D589D58B511C5D5CE36CDF5B553B0
:104C0000BDF874366C786C79747974797499749988
:104C100074997499749974996C99749974787C786E
:104C20008CB684746B90A5366B6F8411A51439E82B
:104C3000634E8C946BB18474632E9CF5AD56420820
:104C4000AD555ACB84328CB58CD87C9774B8749897
:104C5000749974987C98749874987C987CB87CB893
:104C60007CB87CB87CB87CB87CB87CB87CB87CB8A4
:104C700084D884D884D884D884F884F88CF88CF8C4
:104C80008D188D18951895189538953895399D5922
:104C90009D589D589D79CE11AD13CDF3DE5794D517
:104CA0009D58747864796C996C7974987499749936
:104CB00074997499749974B9749974B974B974972E
:104CC0005B5084746BB094B484528452630C52CBA6
:104CD00031C852AD847494F54A6C5AED8C31528BC4
:104CE0008C715AAA7BAEB5B77C128CD67CB77498FF
:104CF00074B97CB87CB87CB87CB87CB87CB87CB81B
:104D00007CB87CB87CB87CB87CB884D884D884D88B
:104D100084D884D884F884F88CF88CF88D188D1891
:104D2000951895389518953895389D399D589D5802
:104D30009D789D79A579C5D89D19CE77DE57E71A5C
:104D40007C7574796C796C9974796C99749974998F
:104D500074997499749984B87498749974B974B87E
:104D60008CF74AAD6B6F94D49D3631A85AED2987E4
:104D7000630D8C728453424A3A09B5D8738FA4F4F8
:104D80006B4E9472A4F331458C5194D48CF77CB75C
:104D90007CB87CB87CB87CB87CB87CB87CB87CB873
:104DA00084D884D884D87CB884D884D884D884D84B
:104DB00084F884F88CF88D188D188D188D18953915
:104DC00095389538953895389D389D589D589D59FA
:104DD000A578A579A57984736C776C998CB8C63958
:104DE0009D79747874997478747A6C9974997499BB
:104DF000749974997499953784D87C9874BA749915
:104E000084B75B507C3284327BF17C335AED18E4FA
:104E10002986424984325B0D94D42966A5159CB33A
:104E200084326B6E94929CD37B8EA53563718CF922
:104E30007CB87CB87CB87CB87CB87CB87CB87CB8D2
:104E400084D884D884D884D884D984D884F884F841
:104E500084F98CF98D198D188D188D189538953920
:104E60009538953895389D389D589D589D59A57908
:104E7000A579A578AD98A535A5B96C376417745791
:104E80006C786C5974BA6C79749974987499749933
:104E900074797CB97CB88CD58CB684B77C997CB994
:104EA00084D984967C1252CC84327BD1843208839C
:104EB00018E573D05AED847384327BF17BF0630D77
:104EC000630D7BD08C5239A783F0A5158CF77CD964
:104ED0007CD97CD87CD87CD87CD87CD87CB884D849
:104EE00084D884D884D884D884D884F884F884F882
:104EF0008CF88D188D198D1895389518953895382A
:104F0000953895589D599D599D589D78A578A579B6
:104F10009D377C12A515BDD5AD35C5F9BE5B6C9826
:104F200074996C786C776C98749974797499749995
:104F300074987C9784B68C958CB58CB584B784D9DD
:104F400084D88CF77C1284735B0D73B094D4632D7A
:104F50007C1152AC214673D084527BF04A6A6B4E6E
:104F60005ACC6B4E7BD08C519CB3BDD89D3784F905
:104F700084D97CD97CD97CD97CD97CD984D884D873
:104F800084D884D884D884D884F984F884F88CF9B7
:104F90008D188D198D198D18953995399538953944
:104FA000955995599D599D799D38741384748453EE
:104FB0007C128C728431C594DE97CDF5BD96A558D0
:104FC000AD77C67A6C15747A6C996C9A6C997499F1
:104FD0007C78849694D59495843394D594F68CF803
:104FE0008CD894F773B16B8F31C818E56B6F7C1157
:104FF0008C735AED214652AC94B473B06B6FAD56BE
:105000006B4E632E630D630D9CB37BF08C72951712
:105010008D188CF885197CD97CD97CD984D884D812
:1050200084D984D984D884D884F984F88D188D18CB
:105030008D198D198D3995399538953995399D5931
:105040009D799D599D7995177C137C537C1273B083
:105050009CD494B28C51D615C5B5A4D2D616D5F42D
:10506000DE55D67694D8747A7498749A6C9974993B
:105070007C788C9694B594959CF6845394F6951709
:105080008CD794D65AED8452A536294652CC8C73CF
:105090005B0D634E5B0C73D06B6F632E5AED73AF79
:1050A0008C936B4EC6394A6A632D6B6E841094D410
:1050B00094F574138D197CD97CD97CD984D984D981
:1050C00084D984D984D884F984F984F98D188D1908
:1050D0008D188D398D3995389538953995399D5973
:1050E0009D599D5884957C329D377C337C12845227
:1050F0008C7294929471CDB5C594CDD3DDF3E65501
:10510000D5F6AD53A57A7CB984F7747974997499FE
:105110007C7884968C958C7373D19CF6634F94F64F
:1051200084958CB5A5155ACD84325B0D94D494B476
:10513000632E6B8F3A087BD052AC84324A6B7BD0A3
:10514000634E632D9D149CF48C52B59784328C521F
:1051500094529D1784F984F984F984F984D984F9E7
:1051600084D984D984F984F98CF98D198D198D1914
:105170008D198D398D399538953995599D599D5988
:105180009D599D786BF17C32AD9884537C1273F1FC
:1051900094B38C519492C594BD52BD72C594D613EC
:1051A000DE57C5B4B5B77C568CB68C97849694D62A
:1051B000849584F87CB894F6847352AD8C7394D53E
:1051C0009495A5577BD06B6F73B04A6B8432845231
:1051D0005AED422A7BF18C934A8B52AC843183F096
:1051E0007BD094B483F1A4F4A515A5148C30AD1331
:1051F0006B6E8CD68D3A84F984F97CF984F984F944
:1052000084F984F984F98CF98CF98D198D198D192B
:105210008D39953995399539953995599D599D59B6
:105220009D5884B584737C32AD787C337C12843194
:105230009CB49CB39472ACB0BD72BD52ACD1B513EA
:10524000C5B4CDD4A4D284737C737C738455845349
:105250008C74741384966B90632F422A73D0A57755
:10526000843273D17BF194937BF1424B9CD531A86E
:105270008C737BD1632E6B4D39E86B6F73D018E460
:1052800094B373D09CF4A4F48C31A51483EF83CE33
:1052900084106BD18D1884F984F984F984F984F928
:1052A00084F984F985198CF98D198D198D398D3909
:1052B0008D398D3995399559955995599D599D79BE
:1052C0009D798495A598A557847473F27C127C11FE
:1052D00083F19CD38C51A5159491B553C5D5ACF3EE
:1052E000BD54D614CDB6A4F584767C557C757C333C
:1052F0007C137C7584763A0B8C74424B8C9394D4DB
:1053000084538C9431C884526B6F8C7394D421462F
:1053100052AC8C9394D4AD556B4E5ACC6B6F5AEC07
:105320006B6F6BAF9492B5967BAE736D9451AD136A
:105330008C3094D49D378CF984F984F984F984F9FC
:1053400084F984F98D198D198D198D198D398D393F
:105350008D398D3995399559955995599D599D791D
:105360009D799D79A5788CB584547C3384538431A0
:10537000738F8410B59674348474B597A533C5F7CC
:105380009C92C592CDD6B595B5F88477743684963F
:1053900074557476535195168C7484537C3273B063
:1053A0007C12424B10A4843284326B8F8C9329463A
:1053B0003188738F73B08C738C535AED6B6F5AECCA
:1053C00084328C9473B083F0738FC5F87B8E9C907D
:1053D0005227526A73B08D1884F8851984F984F9BC
:1053E00084F98D198D198D198D198D198D198D3996
:1053F0008D398D399539955995599D599D799D7955
:105400009D99A5996BB173D273B17C127BF2634EF7
:105410007BB08C31BD959D35AD779CD5B57694D359
:10542000A534C638AD579D388CF67C768496845466
:1054300084B684B78496741373D173D17C126B7065
:1054400073D173B1424A4A6B8C9339E9318729662B
:1054500073B08452634F8C949CD483F0B5767BCF29
:1054600031A8634E5ACB83F0AD76630C7B8EC5B505
:10547000312352696B4E95398D19851984F98CF950
:105480008D198D198D198D198D198D198D398D39AC
:105490008D398D399539955995599D799D79A57A8B
:1054A000A59AA599845473D17BF17BF173B0634EB7
:1054B0007BB094928C30B577A537AD98AD569CD320
:1054C0008C93953884B97CB684B77435A4F59473FD
:1054D0008C738C75847694F67C326B8F73D18C943C
:1054E00052CD636F4A8C3A2A7BF1212600000821B5
:1054F000634E7C125ACD634E52AC7BF0C5F7CE584A
:10550000A5145B0C212483EF52698C0F9CB162EAD5
:1055100052276B0B528A634F957A851A8D1985191C
:10552000851985198D198D198D198D398D398D39FB
:105530009559955995599D799D799D799D79A5990B
:10554000A599A59984747C127C1273D06B6F632E1D
:105550007BD08410738EAD97AD779CF68C93A53479
:10556000C5B5C5B68C74A55794B694F69472CE188A
:105570008C10AD98849773F2426A2166424B8C740A
:105580004AAC6B9039E952CC8432528BD69A6B2C50
:1055900052AB73B06B2D5AED7BF1528ABD7541E66B
:1055A00029440841528A52696B0B62CA39849CB102
:1055B0005A69A4F34A4984738D398D5B8D1A8D39EC
:1055C00085198D198D198D198D398D398D39953A2A
:1055D00095599559955A9D799D799D799D99A5994A
:1055E000A5BA73F273F284538C737BF173B05AEDE6
:1055F0008C526B4D7BF094F5A555AD34BD76BDB79F
:10560000B598A536AD569C739C929C919451C594C7
:10561000C594C5F89D3863503A0A8473632F632F8D
:105620006B7031C96B6F94B4A5367BF0BD96B554E1
:10563000632DCE7ADE9A73AF8C7294929C70ACF22A
:10564000CE1720C308403165084031658C0F7B6D53
:1056500052486B0B524994D4A5798D3A8D3A8D39C5
:105660008D198D198D3A8D198D3A8D39953A955937
:105670009559955995799D799D9AA59AA599A5BA17
:10568000A5B9951794F68CB58C9473B194B38C72BC
:10569000A5156B6E7BAFAD55AD14ACF2B513BD95D2
:1056A00094B594F49CF3A4F4BD95BD32CDD5DDB38F
:1056B000F696B5339D36A5378CB49D158433A55722
:1056C0007BF16B90630E5B0D7BF184329CD3A4D392
:1056D000526A83F0ACF38C318410947252489C91DE
:1056E000C5B5AD12734DBDB62103630B8C3062AAF4
:1056F0005A8983CF8C31632E7C3395388D3A8D193E
:105700008D398D3A8D198D3A8D3A8D3A953A955A53
:10571000955A957A9D7A9D9AA59AA59AA59AA5BA21
:10572000A5BAADB9A578A57894F56B906B8F841167
:105730008C318411630C5ACB52698C4F83CD83AE6C
:105740008BAEACF2AD35B5B6AD34B4F1C532DDF4E7
:10575000CDB3D63894947C1284328432A5379CD54C
:105760002987298739E921465B0E6B6F9CD3D6794F
:10577000B5768411ACD3AD136B2D52694A08738E84
:10578000B553B53362EB7BAEAD556B2DC5D76B2CE6
:1057900052289C916B2C6B4DA5359516959A9D7949
:1057A00095398D39953A8D398D5A8D5A955A955A24
:1057B000957A9D9A9D9AA59AA59AA5BAA5BAADDAA9
:1057C000A5BAADDAADD9BE1A8C746B9084117BF199
:1057D00084317C1042299CF594B48C9394B2A4F249
:1057E000A4D2AD348C537C52A4D3B4D1BD52BD539A
:1057F000DE57AD147BF15B0E845373B073B194D557
:105800008C738C733A097C1173F17C3242087BAE45
:105810006B4D8C7162AAC5F7BD966B4D5ACB6B4D23
:105820007B8C20C283EF7BCF7BD094B3B5756B2B81
:105830006B0B9430AD1483EF736D9D3684F78496B3
:1058400084967CB7955A955A955A957A957A9D7A09
:105850009D7A9D9A9D9AA5BAA5BAA5BAADDAADDA98
:10586000ADFAADFAB61AB5FAA53773B1B5B873B0DB
:1058700073B073AF4A6A94F76BB28CD68CB4AD3503
:10588000AD77AD768C7384738410B556C5F6C5B606
:10589000D65894B47BF25B0E73B0847394B5634FA7
:1058A00073B1845329A831E831A86B7052AC6B8F67
:1058B00052AB528AA515A514A4F394304A49528AD2
:1058C000A4F23144738F73AF94B3AD55C5F73985E6
:1058D0005268738D7BAF8C305A8A8C928CF59517F9
:1058E0008CB58D18959B955A957A957A9D7A9D9A47
:1058F000A59AA5BAA5BAA5BAADDAADDAB5FAB5FAE0
:10590000B5FAB61ABDFABDF9A5376BB0A51573B0D7
:1059100073B07BF05ACA8CF88CD794F78C95A51687
:105920009D378CF4BDB794939D149D16A535843294
:10593000845394F6A59A94B531C96B7073D152CD46
:1059400094F594B4A55608A452ED634F632F8C537D
:10595000632E94939452AD354A07B5752945630B70
:1059600018C3630C84527BD07BCF9CD331646B2CE7
:1059700039C762EB52899CB283AE947194F59CF660
:1059800094F6A5999D9A9D9A9D9A9D9AA59AA5BAD5
:10599000A5BAA5DAADDAADDAADFAB5FAB5FAB5FA67
:1059A000B61ABE1ABE1ABE1AC65B7C1273906B6E14
:1059B00073AF6B4E62EC84748CB48C948C9594B5FC
:1059C0008C31A4D4BDD8AD35B575BDD7AD56B5981D
:1059D0007C1263704A8D73D13A0A8473632E3A093C
:1059E0008C945B0D31C829876B9084535B0E52AC4D
:1059F00073AF4A698C106B2D4A0883EF4A28CE3862
:105A000039C72124C61842087B8E732C6B4C4A4937
:105A10004A29738E9492B5546B0B7BAE73B07BF1B5
:105A2000B5D9ADDAA5DCA59AA5BA9D9AA5BBA5BA4C
:105A3000ADDBADDAADBAADDAB5FAB5FABE1BBE3A3A
:105A4000BE3ABE19BDF9BE3ACE7B6B6F739073AF91
:105A50008C51738F5A8A9CD384109CF58CD594F604
:105A600094B494D69CD5ACF3DE17D615CE19AD57A9
:105A70007BF284535ACD632E94D56B904AAC52CCB2
:105A80005B0D8C7352CD5B0E426B9CF52105630D53
:105A90007BD0738E31442125A4F39CD31082B5555D
:105AA00031655ACB7B8EB55583CFAD142103526A35
:105AB00052AB42289C928C511061738D52AB6B6E2D
:105AC0009CD594F7ADDBADBAADBAA5BAA5BAADDA3F
:105AD000ADDAADDAA599ADB9B5D9BE1ABE1ABE3ADE
